{
  "_format": "hh-sol-artifact-1",
  "contractName": "EIP1271Wallet",
  "sourceName": "contracts/test/EIP1271Wallet.sol",
  "abi": [
    {
      "inputs": [
        {
          "internalType": "address",
          "name": "_owner",
          "type": "address"
        }
      ],
      "stateMutability": "nonpayable",
      "type": "constructor"
    },
    {
      "inputs": [
        {
          "internalType": "contract ERC20ApprovalInterface",
          "name": "token",
          "type": "address"
        },
        {
          "internalType": "address",
          "name": "operator",
          "type": "address"
        },
        {
          "internalType": "uint256",
          "name": "amount",
          "type": "uint256"
        }
      ],
      "name": "approveERC20",
      "outputs": [],
      "stateMutability": "nonpayable",
      "type": "function"
    },
    {
      "inputs": [
        {
          "internalType": "contract NFTApprovalInterface",
          "name": "token",
          "type": "address"
        },
        {
          "internalType": "address",
          "name": "operator",
          "type": "address"
        }
      ],
      "name": "approveNFT",
      "outputs": [],
      "stateMutability": "nonpayable",
      "type": "function"
    },
    {
      "inputs": [
        {
          "internalType": "bytes32",
          "name": "",
          "type": "bytes32"
        }
      ],
      "name": "digestApproved",
      "outputs": [
        {
          "internalType": "bool",
          "name": "",
          "type": "bool"
        }
      ],
      "stateMutability": "view",
      "type": "function"
    },
    {
      "inputs": [],
      "name": "isValid",
      "outputs": [
        {
          "internalType": "bool",
          "name": "",
          "type": "bool"
        }
      ],
      "stateMutability": "view",
      "type": "function"
    },
    {
      "inputs": [
        {
          "internalType": "bytes32",
          "name": "digest",
          "type": "bytes32"
        },
        {
          "internalType": "bytes",
          "name": "signature",
          "type": "bytes"
        }
      ],
      "name": "isValidSignature",
      "outputs": [
        {
          "internalType": "bytes4",
          "name": "",
          "type": "bytes4"
        }
      ],
      "stateMutability": "view",
      "type": "function"
    },
    {
      "inputs": [],
      "name": "owner",
      "outputs": [
        {
          "internalType": "address",
          "name": "",
          "type": "address"
        }
      ],
      "stateMutability": "view",
      "type": "function"
    },
    {
      "inputs": [
        {
          "internalType": "bytes32",
          "name": "digest",
          "type": "bytes32"
        },
        {
          "internalType": "bool",
          "name": "approved",
          "type": "bool"
        }
      ],
      "name": "registerDigest",
      "outputs": [],
      "stateMutability": "nonpayable",
      "type": "function"
    },
    {
      "inputs": [
        {
          "internalType": "bool",
          "name": "showMessage",
          "type": "bool"
        }
      ],
      "name": "revertWithMessage",
      "outputs": [],
      "stateMutability": "nonpayable",
      "type": "function"
    },
    {
      "inputs": [
        {
          "internalType": "bool",
          "name": "valid",
          "type": "bool"
        }
      ],
      "name": "setValid",
      "outputs": [],
      "stateMutability": "nonpayable",
      "type": "function"
    },
    {
      "inputs": [],
      "name": "showRevertMessage",
      "outputs": [
        {
          "internalType": "bool",
          "name": "",
          "type": "bool"
        }
      ],
      "stateMutability": "view",
      "type": "function"
    }
  ],
  "bytecode": "0x60a060405234801561001057600080fd5b5060405161086938038061086983398101604081905261002f9161005d565b6001600160a01b031660805260008054600160ff19918216811790925560028054909116909117905561008d565b60006020828403121561006f57600080fd5b81516001600160a01b038116811461008657600080fd5b9392505050565b6080516107ac6100bd6000396000818161015e01528181610333015281816103e801526104b301526107ac6000f3fe608060405234801561001057600080fd5b506004361061009e5760003560e01c80638da5cb5b116100665780638da5cb5b1461015957806397fe801414610198578063a8e5e4aa146101b5578063bb5d40eb146101c8578063de77d5e0146101d557600080fd5b80631626ba7e146100a357806329e282e8146100d457806346a35674146101045780636c64edee1461012557806384e6d7e714610146575b600080fd5b6100b66100b136600461059c565b6101f8565b6040516001600160e01b031990911681526020015b60405180910390f35b6101026100e2366004610668565b600091825260016020526040909120805460ff1916911515919091179055565b005b610102610112366004610698565b6000805460ff1916911515919091179055565b610102610133366004610698565b6002805460ff1916911515919091179055565b6101026101543660046106d1565b6103dd565b6101807f000000000000000000000000000000000000000000000000000000000000000081565b6040516001600160a01b0390911681526020016100cb565b6000546101a59060ff1681565b60405190151581526020016100cb565b6101026101c33660046106ff565b6104a8565b6002546101a59060ff1681565b6101a56101e3366004610740565b60016020526000908152604090205460ff1681565b60008281526001602052604081205460ff161561021d5750630b135d3f60e11b6103d7565b815160400361024e5760025460ff1661023e576001600160e01b0319610247565b630b135d3f60e11b5b90506103d7565b815160411461025c57600080fd5b60208201516040830151606084015160001a7f7fffffffffffffffffffffffffffffff5d576e7357a4501ddfe92f46681b20a082111561029b57600080fd5b8060ff16601b141580156102b357508060ff16601c14155b156102bd57600080fd5b6040805160008082526020820180845289905260ff841692820192909252606081018590526080810184905260019060a0016020604051602081039080840390855afa158015610311573d6000803e3d6000fd5b5050604051601f1901519150506001600160a01b03811661033157600080fd5b7f00000000000000000000000000000000000000000000000000000000000000006001600160a01b0316816001600160a01b0316146103af5760005460ff161561009e5760405162461bcd60e51b815260206004820152600a6024820152692120a21029a4a3a722a960b11b60448201526064015b60405180910390fd5b60025460ff166103c7576001600160e01b03196103d0565b630b135d3f60e11b5b9450505050505b92915050565b336001600160a01b037f000000000000000000000000000000000000000000000000000000000000000016146104425760405162461bcd60e51b815260206004820152600a60248201526927b7363c9037bbb732b960b11b60448201526064016103a6565b60405163a22cb46560e01b81526001600160a01b0382811660048301526001602483015283169063a22cb46590604401600060405180830381600087803b15801561048c57600080fd5b505af11580156104a0573d6000803e3d6000fd5b505050505050565b336001600160a01b037f0000000000000000000000000000000000000000000000000000000000000000161461050d5760405162461bcd60e51b815260206004820152600a60248201526927b7363c9037bbb732b960b11b60448201526064016103a6565b60405163095ea7b360e01b81526001600160a01b0383811660048301526024820183905284169063095ea7b3906044016020604051808303816000875af115801561055c573d6000803e3d6000fd5b505050506040513d601f19601f820116820180604052508101906105809190610759565b50505050565b634e487b7160e01b600052604160045260246000fd5b600080604083850312156105af57600080fd5b82359150602083013567ffffffffffffffff808211156105ce57600080fd5b818501915085601f8301126105e257600080fd5b8135818111156105f4576105f4610586565b604051601f8201601f19908116603f0116810190838211818310171561061c5761061c610586565b8160405282815288602084870101111561063557600080fd5b8260208601602083013760006020848301015280955050505050509250929050565b801515811461066557600080fd5b50565b6000806040838503121561067b57600080fd5b82359150602083013561068d81610657565b809150509250929050565b6000602082840312156106aa57600080fd5b81356106b581610657565b9392505050565b6001600160a01b038116811461066557600080fd5b600080604083850312156106e457600080fd5b82356106ef816106bc565b9150602083013561068d816106bc565b60008060006060848603121561071457600080fd5b833561071f816106bc565b9250602084013561072f816106bc565b929592945050506040919091013590565b60006020828403121561075257600080fd5b5035919050565b60006020828403121561076b57600080fd5b81516106b58161065756fea26469706673582212205272ad5a3f73e99ad4f7e5d44a0a82af440b831f02db3fa3436ede302a5dde9764736f6c63430008110033",
  "linkReferences": {},
  "deployedLinkReferences": {}
}