{
  "_format": "hh-sol-artifact-1",
  "contractName": "Reenterer",
  "sourceName": "contracts/test/Reenterer.sol",
  "abi": [
    {
      "anonymous": false,
      "inputs": [
        {
          "indexed": false,
          "internalType": "bytes",
          "name": "returnData",
          "type": "bytes"
        }
      ],
      "name": "Reentered",
      "type": "event"
    },
    {
      "inputs": [],
      "name": "callData",
      "outputs": [
        {
          "internalType": "bytes",
          "name": "",
          "type": "bytes"
        }
      ],
      "stateMutability": "view",
      "type": "function"
    },
    {
      "inputs": [],
      "name": "msgValue",
      "outputs": [
        {
          "internalType": "uint256",
          "name": "",
          "type": "uint256"
        }
      ],
      "stateMutability": "view",
      "type": "function"
    },
    {
      "inputs": [
        {
          "internalType": "address",
          "name": "targetToUse",
          "type": "address"
        },
        {
          "internalType": "uint256",
          "name": "msgValueToUse",
          "type": "uint256"
        },
        {
          "internalType": "bytes",
          "name": "callDataToUse",
          "type": "bytes"
        }
      ],
      "name": "prepare",
      "outputs": [],
      "stateMutability": "nonpayable",
      "type": "function"
    },
    {
      "inputs": [],
      "name": "target",
      "outputs": [
        {
          "internalType": "address",
          "name": "",
          "type": "address"
        }
      ],
      "stateMutability": "view",
      "type": "function"
    },
    {
      "stateMutability": "payable",
      "type": "receive"
    }
  ],
  "bytecode": "0x608060405234801561001057600080fd5b50610558806100206000396000f3fe6080604052600436106100435760003560e01c80634e417a98146100ff5780635157589b1461012a578063d4b839921461014c578063ddf363d71461018457600080fd5b366100fa576000805460015460405183926001600160a01b0316919061006b906002906102a4565b60006040518083038185875af1925050503d80600081146100a8576040519150601f19603f3d011682016040523d82523d6000602084013e6100ad565b606091505b5091509150816100c1573d6000803e3d6000fd5b7f52b1b52a16f834754c20ed40ad488c0fc799dea307f9bb9cde6413f0e356703e816040516100f0919061031a565b60405180910390a1005b600080fd5b34801561010b57600080fd5b506101146101a8565b604051610121919061031a565b60405180910390f35b34801561013657600080fd5b5061014a610145366004610368565b610236565b005b34801561015857600080fd5b5060005461016c906001600160a01b031681565b6040516001600160a01b039091168152602001610121565b34801561019057600080fd5b5061019a60015481565b604051908152602001610121565b600280546101b59061026a565b80601f01602080910402602001604051908101604052809291908181526020018280546101e19061026a565b801561022e5780601f106102035761010080835404028352916020019161022e565b820191906000526020600020905b81548152906001019060200180831161021157829003601f168201915b505050505081565b600080546001600160a01b0319166001600160a01b03861617905560018390556002610263828483610462565b5050505050565b600181811c9082168061027e57607f821691505b60208210810361029e57634e487b7160e01b600052602260045260246000fd5b50919050565b60008083546102b28161026a565b600182811680156102ca57600181146102df5761030e565b60ff198416875282151583028701945061030e565b8760005260208060002060005b858110156103055781548a8201529084019082016102ec565b50505082870194505b50929695505050505050565b600060208083528351808285015260005b818110156103475785810183015185820160400152820161032b565b506000604082860101526040601f19601f8301168501019250505092915050565b6000806000806060858703121561037e57600080fd5b84356001600160a01b038116811461039557600080fd5b935060208501359250604085013567ffffffffffffffff808211156103b957600080fd5b818701915087601f8301126103cd57600080fd5b8135818111156103dc57600080fd5b8860208285010111156103ee57600080fd5b95989497505060200194505050565b634e487b7160e01b600052604160045260246000fd5b601f82111561045d57600081815260208120601f850160051c8101602086101561043a5750805b601f850160051c820191505b8181101561045957828155600101610446565b5050505b505050565b67ffffffffffffffff83111561047a5761047a6103fd565b61048e83610488835461026a565b83610413565b6000601f8411600181146104c257600085156104aa5750838201355b600019600387901b1c1916600186901b178355610263565b600083815260209020601f19861690835b828110156104f357868501358255602094850194600190920191016104d3565b50868210156105105760001960f88860031b161c19848701351681555b505060018560011b018355505050505056fea2646970667358221220c697bcbd4fa16fac42692fe779fa242fe4043858752204de2be6eee5be52895364736f6c63430008110033",
  "linkReferences": {},
  "deployedLinkReferences": {}
}