{
	"conduit/Conduit.sol": {
		"Conduit": {
			"abi": [
				{
					"inputs": [],
					"stateMutability": "nonpayable",
					"type": "constructor"
				},
				{
					"inputs": [
						{
							"internalType": "address",
							"name": "token",
							"type": "address"
						},
						{
							"internalType": "address",
							"name": "from",
							"type": "address"
						},
						{
							"internalType": "address",
							"name": "to",
							"type": "address"
						},
						{
							"internalType": "uint256",
							"name": "amount",
							"type": "uint256"
						}
					],
					"name": "BadReturnValueFromERC20OnTransfer",
					"type": "error"
				},
				{
					"inputs": [
						{
							"internalType": "address",
							"name": "channel",
							"type": "address"
						}
					],
					"name": "ChannelClosed",
					"type": "error"
				},
				{
					"inputs": [
						{
							"internalType": "address",
							"name": "channel",
							"type": "address"
						},
						{
							"internalType": "bool",
							"name": "isOpen",
							"type": "bool"
						}
					],
					"name": "ChannelStatusAlreadySet",
					"type": "error"
				},
				{
					"inputs": [
						{
							"internalType": "address",
							"name": "token",
							"type": "address"
						},
						{
							"internalType": "address",
							"name": "from",
							"type": "address"
						},
						{
							"internalType": "address",
							"name": "to",
							"type": "address"
						},
						{
							"internalType": "uint256[]",
							"name": "identifiers",
							"type": "uint256[]"
						},
						{
							"internalType": "uint256[]",
							"name": "amounts",
							"type": "uint256[]"
						}
					],
					"name": "ERC1155BatchTransferGenericFailure",
					"type": "error"
				},
				{
					"inputs": [],
					"name": "Invalid1155BatchTransferEncoding",
					"type": "error"
				},
				{
					"inputs": [],
					"name": "InvalidController",
					"type": "error"
				},
				{
					"inputs": [],
					"name": "InvalidERC721TransferAmount",
					"type": "error"
				},
				{
					"inputs": [],
					"name": "InvalidItemType",
					"type": "error"
				},
				{
					"inputs": [],
					"name": "MissingItemAmount",
					"type": "error"
				},
				{
					"inputs": [
						{
							"internalType": "address",
							"name": "account",
							"type": "address"
						}
					],
					"name": "NoContract",
					"type": "error"
				},
				{
					"inputs": [
						{
							"internalType": "address",
							"name": "token",
							"type": "address"
						},
						{
							"internalType": "address",
							"name": "from",
							"type": "address"
						},
						{
							"internalType": "address",
							"name": "to",
							"type": "address"
						},
						{
							"internalType": "uint256",
							"name": "identifier",
							"type": "uint256"
						},
						{
							"internalType": "uint256",
							"name": "amount",
							"type": "uint256"
						}
					],
					"name": "TokenTransferGenericFailure",
					"type": "error"
				},
				{
					"inputs": [],
					"name": "UnusedItemParameters",
					"type": "error"
				},
				{
					"anonymous": false,
					"inputs": [
						{
							"indexed": true,
							"internalType": "address",
							"name": "channel",
							"type": "address"
						},
						{
							"indexed": false,
							"internalType": "bool",
							"name": "open",
							"type": "bool"
						}
					],
					"name": "ChannelUpdated",
					"type": "event"
				},
				{
					"inputs": [
						{
							"components": [
								{
									"internalType": "enum ConduitItemType",
									"name": "itemType",
									"type": "uint8"
								},
								{
									"internalType": "address",
									"name": "token",
									"type": "address"
								},
								{
									"internalType": "address",
									"name": "from",
									"type": "address"
								},
								{
									"internalType": "address",
									"name": "to",
									"type": "address"
								},
								{
									"internalType": "uint256",
									"name": "identifier",
									"type": "uint256"
								},
								{
									"internalType": "uint256",
									"name": "amount",
									"type": "uint256"
								}
							],
							"internalType": "struct ConduitTransfer[]",
							"name": "transfers",
							"type": "tuple[]"
						}
					],
					"name": "execute",
					"outputs": [
						{
							"internalType": "bytes4",
							"name": "magicValue",
							"type": "bytes4"
						}
					],
					"stateMutability": "nonpayable",
					"type": "function"
				},
				{
					"inputs": [
						{
							"components": [
								{
									"internalType": "address",
									"name": "token",
									"type": "address"
								},
								{
									"internalType": "address",
									"name": "from",
									"type": "address"
								},
								{
									"internalType": "address",
									"name": "to",
									"type": "address"
								},
								{
									"internalType": "uint256[]",
									"name": "ids",
									"type": "uint256[]"
								},
								{
									"internalType": "uint256[]",
									"name": "amounts",
									"type": "uint256[]"
								}
							],
							"internalType": "struct ConduitBatch1155Transfer[]",
							"name": "batchTransfers",
							"type": "tuple[]"
						}
					],
					"name": "executeBatch1155",
					"outputs": [
						{
							"internalType": "bytes4",
							"name": "magicValue",
							"type": "bytes4"
						}
					],
					"stateMutability": "nonpayable",
					"type": "function"
				},
				{
					"inputs": [
						{
							"components": [
								{
									"internalType": "enum ConduitItemType",
									"name": "itemType",
									"type": "uint8"
								},
								{
									"internalType": "address",
									"name": "token",
									"type": "address"
								},
								{
									"internalType": "address",
									"name": "from",
									"type": "address"
								},
								{
									"internalType": "address",
									"name": "to",
									"type": "address"
								},
								{
									"internalType": "uint256",
									"name": "identifier",
									"type": "uint256"
								},
								{
									"internalType": "uint256",
									"name": "amount",
									"type": "uint256"
								}
							],
							"internalType": "struct ConduitTransfer[]",
							"name": "standardTransfers",
							"type": "tuple[]"
						},
						{
							"components": [
								{
									"internalType": "address",
									"name": "token",
									"type": "address"
								},
								{
									"internalType": "address",
									"name": "from",
									"type": "address"
								},
								{
									"internalType": "address",
									"name": "to",
									"type": "address"
								},
								{
									"internalType": "uint256[]",
									"name": "ids",
									"type": "uint256[]"
								},
								{
									"internalType": "uint256[]",
									"name": "amounts",
									"type": "uint256[]"
								}
							],
							"internalType": "struct ConduitBatch1155Transfer[]",
							"name": "batchTransfers",
							"type": "tuple[]"
						}
					],
					"name": "executeWithBatch1155",
					"outputs": [
						{
							"internalType": "bytes4",
							"name": "magicValue",
							"type": "bytes4"
						}
					],
					"stateMutability": "nonpayable",
					"type": "function"
				},
				{
					"inputs": [
						{
							"internalType": "address",
							"name": "channel",
							"type": "address"
						},
						{
							"internalType": "bool",
							"name": "isOpen",
							"type": "bool"
						}
					],
					"name": "updateChannel",
					"outputs": [],
					"stateMutability": "nonpayable",
					"type": "function"
				}
			],
			"devdoc": {
				"author": "0age",
				"errors": {
					"BadReturnValueFromERC20OnTransfer(address,address,address,uint256)": [
						{
							"details": "Revert with an error when an ERC20 token transfer returns a falsey      value.",
							"params": {
								"amount": "The amount for the attempted ERC20 transfer.",
								"from": "The source of the attempted ERC20 transfer.",
								"to": "The recipient of the attempted ERC20 transfer.",
								"token": "The token for which the ERC20 transfer was attempted."
							}
						}
					],
					"ChannelClosed(address)": [
						{
							"details": "Revert with an error when attempting to execute transfers using a      caller that does not have an open channel."
						}
					],
					"ChannelStatusAlreadySet(address,bool)": [
						{
							"details": "Revert with an error when attempting to update a channel to the      current status of that channel."
						}
					],
					"ERC1155BatchTransferGenericFailure(address,address,address,uint256[],uint256[])": [
						{
							"details": "Revert with an error when a batch ERC1155 token transfer reverts.",
							"params": {
								"amounts": "The amounts for the attempted transfer.",
								"from": "The source of the attempted transfer.",
								"identifiers": "The identifiers for the attempted transfer.",
								"to": "The recipient of the attempted transfer.",
								"token": "The token for which the transfer was attempted."
							}
						}
					],
					"Invalid1155BatchTransferEncoding()": [
						{
							"details": "Revert with an error when attempting to execute an 1155 batch      transfer using calldata not produced by default ABI encoding or with      different lengths for ids and amounts arrays."
						}
					],
					"InvalidController()": [
						{
							"details": "Revert with an error when attempting to update the status of a      channel from a caller that is not the conduit controller."
						}
					],
					"InvalidERC721TransferAmount()": [
						{
							"details": "Revert with an error when an ERC721 transfer with amount other than      one is attempted."
						}
					],
					"InvalidItemType()": [
						{
							"details": "Revert with an error when attempting to execute a transfer for an      item that does not have an ERC20/721/1155 item type."
						}
					],
					"MissingItemAmount()": [
						{
							"details": "Revert with an error when attempting to fulfill an order where an      item has an amount of zero."
						}
					],
					"NoContract(address)": [
						{
							"details": "Revert with an error when an account being called as an assumed      contract does not have code and returns no data.",
							"params": {
								"account": "The account that should contain code."
							}
						}
					],
					"TokenTransferGenericFailure(address,address,address,uint256,uint256)": [
						{
							"details": "Revert with an error when an ERC20, ERC721, or ERC1155 token      transfer reverts.",
							"params": {
								"amount": "The amount for the attempted transfer.",
								"from": "The source of the attempted transfer.",
								"identifier": "The identifier for the attempted transfer.",
								"to": "The recipient of the attempted transfer.",
								"token": "The token for which the transfer was attempted."
							}
						}
					],
					"UnusedItemParameters()": [
						{
							"details": "Revert with an error when attempting to fulfill an order where an      item has unused parameters. This includes both the token and the      identifier parameters for native transfers as well as the identifier      parameter for ERC20 transfers. Note that the conduit does not      perform this check, leaving it up to the calling channel to enforce      when desired."
						}
					]
				},
				"kind": "dev",
				"methods": {
					"execute((uint8,address,address,address,uint256,uint256)[])": {
						"params": {
							"transfers": "The ERC20/721/1155 transfers to perform."
						},
						"returns": {
							"magicValue": "A magic value indicating that the transfers were                    performed successfully."
						}
					},
					"executeBatch1155((address,address,address,uint256[],uint256[])[])": {
						"params": {
							"batchTransfers": "The 1155 batch item transfers to perform."
						},
						"returns": {
							"magicValue": "A magic value indicating that the item transfers were                    performed successfully."
						}
					},
					"executeWithBatch1155((uint8,address,address,address,uint256,uint256)[],(address,address,address,uint256[],uint256[])[])": {
						"params": {
							"batchTransfers": "The 1155 batch item transfers to perform.",
							"standardTransfers": "The ERC20/721/1155 item transfers to perform."
						},
						"returns": {
							"magicValue": "A magic value indicating that the item transfers were                    performed successfully."
						}
					},
					"updateChannel(address,bool)": {
						"params": {
							"channel": "The channel to open or close.",
							"isOpen": "The status of the channel (either open or closed)."
						}
					}
				},
				"title": "Conduit",
				"version": 1
			},
			"evm": {
				"assembly": "    /* \"conduit/Conduit.sol\":1078:10213  contract Conduit is ConduitInterface, TokenTransferrer {... */\n  mstore(0x40, 0xa0)\n    /* \"conduit/Conduit.sol\":2751:2853  constructor() {... */\n  callvalue\n  dup1\n  iszero\n  tag_1\n  jumpi\n  0x00\n  dup1\n  revert\ntag_1:\n  pop\n    /* \"conduit/Conduit.sol\":2836:2846  msg.sender */\n  caller\n    /* \"conduit/Conduit.sol\":2822:2846  _controller = msg.sender */\n  0xffffffffffffffffffffffffffffffffffffffff\n  and\n  0x80\n  dup2\n  0xffffffffffffffffffffffffffffffffffffffff\n  and\n  dup2\n  mstore\n  pop\n  pop\n    /* \"conduit/Conduit.sol\":1078:10213  contract Conduit is ConduitInterface, TokenTransferrer {... */\n  mload(0x80)\n  codecopy(0x00, dataOffset(sub_0), dataSize(sub_0))\n  0x00\n  assignImmutable(\"0x8fef2229291b68be841adf029e58b87f39ba144b2d3b0af1760243d0a9bc6a1c\")\n  return(0x00, dataSize(sub_0))\nstop\n\nsub_0: assembly {\n        /* \"conduit/Conduit.sol\":1078:10213  contract Conduit is ConduitInterface, TokenTransferrer {... */\n      mstore(0x40, 0x80)\n      callvalue\n      dup1\n      iszero\n      tag_1\n      jumpi\n      0x00\n      dup1\n      revert\n    tag_1:\n      pop\n      jumpi(tag_2, lt(calldatasize, 0x04))\n      shr(0xe0, calldataload(0x00))\n      dup1\n      0x4ce34aa2\n      eq\n      tag_3\n      jumpi\n      dup1\n      0x899e104c\n      eq\n      tag_4\n      jumpi\n      dup1\n      0x8df25d92\n      eq\n      tag_5\n      jumpi\n      dup1\n      0xc4e8fcb5\n      eq\n      tag_6\n      jumpi\n    tag_2:\n      0x00\n      dup1\n      revert\n        /* \"conduit/Conduit.sol\":3602:4376  function execute(ConduitTransfer[] calldata transfers)... */\n    tag_3:\n      tag_7\n      0x04\n      dup1\n      calldatasize\n      sub\n      dup2\n      add\n      swap1\n      tag_8\n      swap2\n      swap1\n      tag_9\n      jump\t// in\n    tag_8:\n      tag_10\n      jump\t// in\n    tag_7:\n      mload(0x40)\n      tag_11\n      swap2\n      swap1\n      tag_12\n      jump\t// in\n    tag_11:\n      mload(0x40)\n      dup1\n      swap2\n      sub\n      swap1\n      return\n        /* \"conduit/Conduit.sol\":6540:7672  function executeWithBatch1155(... */\n    tag_4:\n      tag_13\n      0x04\n      dup1\n      calldatasize\n      sub\n      dup2\n      add\n      swap1\n      tag_14\n      swap2\n      swap1\n      tag_15\n      jump\t// in\n    tag_14:\n      tag_16\n      jump\t// in\n    tag_13:\n      mload(0x40)\n      tag_17\n      swap2\n      swap1\n      tag_12\n      jump\t// in\n    tag_17:\n      mload(0x40)\n      dup1\n      swap2\n      sub\n      swap1\n      return\n        /* \"conduit/Conduit.sol\":5137:5619  function executeBatch1155(... */\n    tag_5:\n      tag_18\n      0x04\n      dup1\n      calldatasize\n      sub\n      dup2\n      add\n      swap1\n      tag_19\n      swap2\n      swap1\n      tag_20\n      jump\t// in\n    tag_19:\n      tag_21\n      jump\t// in\n    tag_18:\n      mload(0x40)\n      tag_22\n      swap2\n      swap1\n      tag_12\n      jump\t// in\n    tag_22:\n      mload(0x40)\n      dup1\n      swap2\n      sub\n      swap1\n      return\n        /* \"conduit/Conduit.sol\":7905:8508  function updateChannel(address channel, bool isOpen) external override {... */\n    tag_6:\n      tag_23\n      0x04\n      dup1\n      calldatasize\n      sub\n      dup2\n      add\n      swap1\n      tag_24\n      swap2\n      swap1\n      tag_25\n      jump\t// in\n    tag_24:\n      tag_26\n      jump\t// in\n    tag_23:\n      stop\n        /* \"conduit/Conduit.sol\":3602:4376  function execute(ConduitTransfer[] calldata transfers)... */\n    tag_10:\n        /* \"conduit/Conduit.sol\":3732:3749  bytes4 magicValue */\n      0x00\n        /* \"conduit/Conduit.sol\":1695:1703  caller() */\n      caller\n        /* \"conduit/Conduit.sol\":1671:1693  ChannelKey_channel_ptr */\n      0x00\n        /* \"conduit/Conduit.sol\":1664:1704  mstore(ChannelKey_channel_ptr, caller()) */\n      mstore\n        /* \"conduit/Conduit.sol\":1816:1830  _channels.slot */\n      0x00\n        /* \"conduit/Conduit.sol\":1795:1814  ChannelKey_slot_ptr */\n      0x20\n        /* \"conduit/Conduit.sol\":1788:1831  mstore(ChannelKey_slot_ptr, _channels.slot) */\n      mstore\n        /* \"conduit/Conduit.sol\":2037:2054  ChannelKey_length */\n      0x40\n        /* \"conduit/Conduit.sol\":2013:2035  ChannelKey_channel_ptr */\n      0x00\n        /* \"conduit/Conduit.sol\":2003:2055  keccak256(ChannelKey_channel_ptr, ChannelKey_length) */\n      keccak256\n        /* \"conduit/Conduit.sol\":1997:2056  sload(keccak256(ChannelKey_channel_ptr, ChannelKey_length)) */\n      sload\n        /* \"conduit/Conduit.sol\":1970:2585  if iszero(... */\n      tag_28\n      jumpi\n        /* \"conduit/Conduit.sol\":2267:2296  ChannelClosed_error_signature */\n      0x93daadf200000000000000000000000000000000000000000000000000000000\n        /* \"conduit/Conduit.sol\":2242:2265  ChannelClosed_error_ptr */\n      0x00\n        /* \"conduit/Conduit.sol\":2235:2297  mstore(ChannelClosed_error_ptr, ChannelClosed_error_signature) */\n      mstore\n        /* \"conduit/Conduit.sol\":2406:2414  caller() */\n      caller\n        /* \"conduit/Conduit.sol\":2379:2404  ChannelClosed_channel_ptr */\n      0x04\n        /* \"conduit/Conduit.sol\":2372:2415  mstore(ChannelClosed_channel_ptr, caller()) */\n      mstore\n        /* \"conduit/Conduit.sol\":2544:2570  ChannelClosed_error_length */\n      0x24\n        /* \"conduit/Conduit.sol\":2519:2542  ChannelClosed_error_ptr */\n      0x00\n        /* \"conduit/Conduit.sol\":2512:2571  revert(ChannelClosed_error_ptr, ChannelClosed_error_length) */\n      revert\n        /* \"conduit/Conduit.sol\":1970:2585  if iszero(... */\n    tag_28:\n        /* \"conduit/Conduit.sol\":3839:3869  uint256 totalStandardTransfers */\n      0x00\n        /* \"conduit/Conduit.sol\":3872:3881  transfers */\n      dup4\n      dup4\n        /* \"conduit/Conduit.sol\":3872:3888  transfers.length */\n      swap1\n      pop\n        /* \"conduit/Conduit.sol\":3839:3888  uint256 totalStandardTransfers = transfers.length */\n      swap1\n      pop\n        /* \"conduit/Conduit.sol\":3943:3952  uint256 i */\n      0x00\n        /* \"conduit/Conduit.sol\":3938:4247  for (uint256 i = 0; i < totalStandardTransfers; ) {... */\n    tag_30:\n        /* \"conduit/Conduit.sol\":3962:3984  totalStandardTransfers */\n      dup2\n        /* \"conduit/Conduit.sol\":3958:3959  i */\n      dup2\n        /* \"conduit/Conduit.sol\":3958:3984  i < totalStandardTransfers */\n      lt\n        /* \"conduit/Conduit.sol\":3938:4247  for (uint256 i = 0; i < totalStandardTransfers; ) {... */\n      iszero\n      tag_31\n      jumpi\n        /* \"conduit/Conduit.sol\":4077:4100  _transfer(transfers[i]) */\n      tag_33\n        /* \"conduit/Conduit.sol\":4087:4096  transfers */\n      dup6\n      dup6\n        /* \"conduit/Conduit.sol\":4097:4098  i */\n      dup4\n        /* \"conduit/Conduit.sol\":4087:4099  transfers[i] */\n      dup2\n      dup2\n      lt\n      tag_34\n      jumpi\n      tag_35\n      tag_36\n      jump\t// in\n    tag_35:\n    tag_34:\n      swap1\n      pop\n      0xc0\n      mul\n      add\n        /* \"conduit/Conduit.sol\":4077:4086  _transfer */\n      tag_37\n        /* \"conduit/Conduit.sol\":4077:4100  _transfer(transfers[i]) */\n      jump\t// in\n    tag_33:\n        /* \"conduit/Conduit.sol\":4219:4222  ++i */\n      dup1\n      0x01\n      add\n      swap1\n      pop\n        /* \"conduit/Conduit.sol\":3938:4247  for (uint256 i = 0; i < totalStandardTransfers; ) {... */\n      jump(tag_30)\n    tag_31:\n      pop\n        /* \"conduit/Conduit.sol\":4348:4369  this.execute.selector */\n      shl(0xe0, 0x4ce34aa2)\n        /* \"conduit/Conduit.sol\":4335:4369  magicValue = this.execute.selector */\n      swap2\n      pop\n        /* \"conduit/Conduit.sol\":3755:4376  {... */\n      pop\n        /* \"conduit/Conduit.sol\":3602:4376  function execute(ConduitTransfer[] calldata transfers)... */\n      swap3\n      swap2\n      pop\n      pop\n      jump\t// out\n        /* \"conduit/Conduit.sol\":6540:7672  function executeWithBatch1155(... */\n    tag_16:\n        /* \"conduit/Conduit.sol\":6733:6750  bytes4 magicValue */\n      0x00\n        /* \"conduit/Conduit.sol\":1695:1703  caller() */\n      caller\n        /* \"conduit/Conduit.sol\":1671:1693  ChannelKey_channel_ptr */\n      0x00\n        /* \"conduit/Conduit.sol\":1664:1704  mstore(ChannelKey_channel_ptr, caller()) */\n      mstore\n        /* \"conduit/Conduit.sol\":1816:1830  _channels.slot */\n      0x00\n        /* \"conduit/Conduit.sol\":1795:1814  ChannelKey_slot_ptr */\n      0x20\n        /* \"conduit/Conduit.sol\":1788:1831  mstore(ChannelKey_slot_ptr, _channels.slot) */\n      mstore\n        /* \"conduit/Conduit.sol\":2037:2054  ChannelKey_length */\n      0x40\n        /* \"conduit/Conduit.sol\":2013:2035  ChannelKey_channel_ptr */\n      0x00\n        /* \"conduit/Conduit.sol\":2003:2055  keccak256(ChannelKey_channel_ptr, ChannelKey_length) */\n      keccak256\n        /* \"conduit/Conduit.sol\":1997:2056  sload(keccak256(ChannelKey_channel_ptr, ChannelKey_length)) */\n      sload\n        /* \"conduit/Conduit.sol\":1970:2585  if iszero(... */\n      tag_39\n      jumpi\n        /* \"conduit/Conduit.sol\":2267:2296  ChannelClosed_error_signature */\n      0x93daadf200000000000000000000000000000000000000000000000000000000\n        /* \"conduit/Conduit.sol\":2242:2265  ChannelClosed_error_ptr */\n      0x00\n        /* \"conduit/Conduit.sol\":2235:2297  mstore(ChannelClosed_error_ptr, ChannelClosed_error_signature) */\n      mstore\n        /* \"conduit/Conduit.sol\":2406:2414  caller() */\n      caller\n        /* \"conduit/Conduit.sol\":2379:2404  ChannelClosed_channel_ptr */\n      0x04\n        /* \"conduit/Conduit.sol\":2372:2415  mstore(ChannelClosed_channel_ptr, caller()) */\n      mstore\n        /* \"conduit/Conduit.sol\":2544:2570  ChannelClosed_error_length */\n      0x24\n        /* \"conduit/Conduit.sol\":2519:2542  ChannelClosed_error_ptr */\n      0x00\n        /* \"conduit/Conduit.sol\":2512:2571  revert(ChannelClosed_error_ptr, ChannelClosed_error_length) */\n      revert\n        /* \"conduit/Conduit.sol\":1970:2585  if iszero(... */\n    tag_39:\n        /* \"conduit/Conduit.sol\":6836:6866  uint256 totalStandardTransfers */\n      0x00\n        /* \"conduit/Conduit.sol\":6869:6886  standardTransfers */\n      dup6\n      dup6\n        /* \"conduit/Conduit.sol\":6869:6893  standardTransfers.length */\n      swap1\n      pop\n        /* \"conduit/Conduit.sol\":6836:6893  uint256 totalStandardTransfers = standardTransfers.length */\n      swap1\n      pop\n        /* \"conduit/Conduit.sol\":6957:6966  uint256 i */\n      0x00\n        /* \"conduit/Conduit.sol\":6952:7269  for (uint256 i = 0; i < totalStandardTransfers; ) {... */\n    tag_41:\n        /* \"conduit/Conduit.sol\":6976:6998  totalStandardTransfers */\n      dup2\n        /* \"conduit/Conduit.sol\":6972:6973  i */\n      dup2\n        /* \"conduit/Conduit.sol\":6972:6998  i < totalStandardTransfers */\n      lt\n        /* \"conduit/Conduit.sol\":6952:7269  for (uint256 i = 0; i < totalStandardTransfers; ) {... */\n      iszero\n      tag_42\n      jumpi\n        /* \"conduit/Conduit.sol\":7091:7122  _transfer(standardTransfers[i]) */\n      tag_44\n        /* \"conduit/Conduit.sol\":7101:7118  standardTransfers */\n      dup8\n      dup8\n        /* \"conduit/Conduit.sol\":7119:7120  i */\n      dup4\n        /* \"conduit/Conduit.sol\":7101:7121  standardTransfers[i] */\n      dup2\n      dup2\n      lt\n      tag_45\n      jumpi\n      tag_46\n      tag_36\n      jump\t// in\n    tag_46:\n    tag_45:\n      swap1\n      pop\n      0xc0\n      mul\n      add\n        /* \"conduit/Conduit.sol\":7091:7100  _transfer */\n      tag_37\n        /* \"conduit/Conduit.sol\":7091:7122  _transfer(standardTransfers[i]) */\n      jump\t// in\n    tag_44:\n        /* \"conduit/Conduit.sol\":7241:7244  ++i */\n      dup1\n      0x01\n      add\n      swap1\n      pop\n        /* \"conduit/Conduit.sol\":6952:7269  for (uint256 i = 0; i < totalStandardTransfers; ) {... */\n      jump(tag_41)\n    tag_42:\n      pop\n        /* \"conduit/Conduit.sol\":7484:7529  _performERC1155BatchTransfers(batchTransfers) */\n      tag_47\n        /* \"conduit/Conduit.sol\":7514:7528  batchTransfers */\n      dup5\n      dup5\n        /* \"conduit/Conduit.sol\":7484:7513  _performERC1155BatchTransfers */\n      tag_48\n        /* \"conduit/Conduit.sol\":7484:7529  _performERC1155BatchTransfers(batchTransfers) */\n      jump\t// in\n    tag_47:\n        /* \"conduit/Conduit.sol\":7631:7665  this.executeWithBatch1155.selector */\n      shl(0xe0, 0x899e104c)\n        /* \"conduit/Conduit.sol\":7618:7665  magicValue = this.executeWithBatch1155.selector */\n      swap2\n      pop\n        /* \"conduit/Conduit.sol\":6752:7672  {... */\n      pop\n        /* \"conduit/Conduit.sol\":6540:7672  function executeWithBatch1155(... */\n      swap5\n      swap4\n      pop\n      pop\n      pop\n      pop\n      jump\t// out\n        /* \"conduit/Conduit.sol\":5137:5619  function executeBatch1155(... */\n    tag_21:\n        /* \"conduit/Conduit.sol\":5272:5289  bytes4 magicValue */\n      0x00\n        /* \"conduit/Conduit.sol\":1695:1703  caller() */\n      caller\n        /* \"conduit/Conduit.sol\":1671:1693  ChannelKey_channel_ptr */\n      0x00\n        /* \"conduit/Conduit.sol\":1664:1704  mstore(ChannelKey_channel_ptr, caller()) */\n      mstore\n        /* \"conduit/Conduit.sol\":1816:1830  _channels.slot */\n      0x00\n        /* \"conduit/Conduit.sol\":1795:1814  ChannelKey_slot_ptr */\n      0x20\n        /* \"conduit/Conduit.sol\":1788:1831  mstore(ChannelKey_slot_ptr, _channels.slot) */\n      mstore\n        /* \"conduit/Conduit.sol\":2037:2054  ChannelKey_length */\n      0x40\n        /* \"conduit/Conduit.sol\":2013:2035  ChannelKey_channel_ptr */\n      0x00\n        /* \"conduit/Conduit.sol\":2003:2055  keccak256(ChannelKey_channel_ptr, ChannelKey_length) */\n      keccak256\n        /* \"conduit/Conduit.sol\":1997:2056  sload(keccak256(ChannelKey_channel_ptr, ChannelKey_length)) */\n      sload\n        /* \"conduit/Conduit.sol\":1970:2585  if iszero(... */\n      tag_50\n      jumpi\n        /* \"conduit/Conduit.sol\":2267:2296  ChannelClosed_error_signature */\n      0x93daadf200000000000000000000000000000000000000000000000000000000\n        /* \"conduit/Conduit.sol\":2242:2265  ChannelClosed_error_ptr */\n      0x00\n        /* \"conduit/Conduit.sol\":2235:2297  mstore(ChannelClosed_error_ptr, ChannelClosed_error_signature) */\n      mstore\n        /* \"conduit/Conduit.sol\":2406:2414  caller() */\n      caller\n        /* \"conduit/Conduit.sol\":2379:2404  ChannelClosed_channel_ptr */\n      0x04\n        /* \"conduit/Conduit.sol\":2372:2415  mstore(ChannelClosed_channel_ptr, caller()) */\n      mstore\n        /* \"conduit/Conduit.sol\":2544:2570  ChannelClosed_error_length */\n      0x24\n        /* \"conduit/Conduit.sol\":2519:2542  ChannelClosed_error_ptr */\n      0x00\n        /* \"conduit/Conduit.sol\":2512:2571  revert(ChannelClosed_error_ptr, ChannelClosed_error_length) */\n      revert\n        /* \"conduit/Conduit.sol\":1970:2585  if iszero(... */\n    tag_50:\n        /* \"conduit/Conduit.sol\":5435:5480  _performERC1155BatchTransfers(batchTransfers) */\n      tag_52\n        /* \"conduit/Conduit.sol\":5465:5479  batchTransfers */\n      dup4\n      dup4\n        /* \"conduit/Conduit.sol\":5435:5464  _performERC1155BatchTransfers */\n      tag_48\n        /* \"conduit/Conduit.sol\":5435:5480  _performERC1155BatchTransfers(batchTransfers) */\n      jump\t// in\n    tag_52:\n        /* \"conduit/Conduit.sol\":5582:5612  this.executeBatch1155.selector */\n      shl(0xe0, 0x8df25d92)\n        /* \"conduit/Conduit.sol\":5569:5612  magicValue = this.executeBatch1155.selector */\n      swap1\n      pop\n        /* \"conduit/Conduit.sol\":5137:5619  function executeBatch1155(... */\n      swap3\n      swap2\n      pop\n      pop\n      jump\t// out\n        /* \"conduit/Conduit.sol\":7905:8508  function updateChannel(address channel, bool isOpen) external override {... */\n    tag_26:\n        /* \"conduit/Conduit.sol\":8074:8085  _controller */\n      immutable(\"0x8fef2229291b68be841adf029e58b87f39ba144b2d3b0af1760243d0a9bc6a1c\")\n        /* \"conduit/Conduit.sol\":8060:8085  msg.sender != _controller */\n      0xffffffffffffffffffffffffffffffffffffffff\n      and\n        /* \"conduit/Conduit.sol\":8060:8070  msg.sender */\n      caller\n        /* \"conduit/Conduit.sol\":8060:8085  msg.sender != _controller */\n      0xffffffffffffffffffffffffffffffffffffffff\n      and\n      eq\n        /* \"conduit/Conduit.sol\":8056:8138  if (msg.sender != _controller) {... */\n      tag_54\n      jumpi\n        /* \"conduit/Conduit.sol\":8108:8127  InvalidController() */\n      mload(0x40)\n      0x6d5769be00000000000000000000000000000000000000000000000000000000\n      dup2\n      mstore\n      0x04\n      add\n      mload(0x40)\n      dup1\n      swap2\n      sub\n      swap1\n      revert\n        /* \"conduit/Conduit.sol\":8056:8138  if (msg.sender != _controller) {... */\n    tag_54:\n        /* \"conduit/Conduit.sol\":8253:8259  isOpen */\n      dup1\n        /* \"conduit/Conduit.sol\":8231:8259  _channels[channel] == isOpen */\n      iszero\n      iszero\n        /* \"conduit/Conduit.sol\":8231:8240  _channels */\n      0x00\n        /* \"conduit/Conduit.sol\":8231:8249  _channels[channel] */\n      dup1\n        /* \"conduit/Conduit.sol\":8241:8248  channel */\n      dup5\n        /* \"conduit/Conduit.sol\":8231:8249  _channels[channel] */\n      0xffffffffffffffffffffffffffffffffffffffff\n      and\n      0xffffffffffffffffffffffffffffffffffffffff\n      and\n      dup2\n      mstore\n      0x20\n      add\n      swap1\n      dup2\n      mstore\n      0x20\n      add\n      0x00\n      keccak256\n      0x00\n      swap1\n      sload\n      swap1\n      0x0100\n      exp\n      swap1\n      div\n      0xff\n      and\n        /* \"conduit/Conduit.sol\":8231:8259  _channels[channel] == isOpen */\n      iszero\n      iszero\n      sub\n        /* \"conduit/Conduit.sol\":8227:8333  if (_channels[channel] == isOpen) {... */\n      tag_55\n      jumpi\n        /* \"conduit/Conduit.sol\":8306:8313  channel */\n      dup2\n        /* \"conduit/Conduit.sol\":8315:8321  isOpen */\n      dup2\n        /* \"conduit/Conduit.sol\":8282:8322  ChannelStatusAlreadySet(channel, isOpen) */\n      mload(0x40)\n      0x924e341e00000000000000000000000000000000000000000000000000000000\n      dup2\n      mstore\n      0x04\n      add\n      tag_56\n      swap3\n      swap2\n      swap1\n      tag_57\n      jump\t// in\n    tag_56:\n      mload(0x40)\n      dup1\n      swap2\n      sub\n      swap1\n      revert\n        /* \"conduit/Conduit.sol\":8227:8333  if (_channels[channel] == isOpen) {... */\n    tag_55:\n        /* \"conduit/Conduit.sol\":8409:8415  isOpen */\n      dup1\n        /* \"conduit/Conduit.sol\":8388:8397  _channels */\n      0x00\n        /* \"conduit/Conduit.sol\":8388:8406  _channels[channel] */\n      dup1\n        /* \"conduit/Conduit.sol\":8398:8405  channel */\n      dup5\n        /* \"conduit/Conduit.sol\":8388:8406  _channels[channel] */\n      0xffffffffffffffffffffffffffffffffffffffff\n      and\n      0xffffffffffffffffffffffffffffffffffffffff\n      and\n      dup2\n      mstore\n      0x20\n      add\n      swap1\n      dup2\n      mstore\n      0x20\n      add\n      0x00\n      keccak256\n      0x00\n        /* \"conduit/Conduit.sol\":8388:8415  _channels[channel] = isOpen */\n      0x0100\n      exp\n      dup2\n      sload\n      dup2\n      0xff\n      mul\n      not\n      and\n      swap1\n      dup4\n      iszero\n      iszero\n      mul\n      or\n      swap1\n      sstore\n      pop\n        /* \"conduit/Conduit.sol\":8485:8492  channel */\n      dup2\n        /* \"conduit/Conduit.sol\":8470:8501  ChannelUpdated(channel, isOpen) */\n      0xffffffffffffffffffffffffffffffffffffffff\n      and\n      0xae63067d43ac07563b7eb8db6595635fc77f1578a2a5ea06ba91b63e2afa37e2\n        /* \"conduit/Conduit.sol\":8494:8500  isOpen */\n      dup3\n        /* \"conduit/Conduit.sol\":8470:8501  ChannelUpdated(channel, isOpen) */\n      mload(0x40)\n      tag_58\n      swap2\n      swap1\n      tag_59\n      jump\t// in\n    tag_58:\n      mload(0x40)\n      dup1\n      swap2\n      sub\n      swap1\n      log2\n        /* \"conduit/Conduit.sol\":7905:8508  function updateChannel(address channel, bool isOpen) external override {... */\n      pop\n      pop\n      jump\t// out\n        /* \"conduit/Conduit.sol\":8814:10211  function _transfer(ConduitTransfer calldata item) internal {... */\n    tag_37:\n        /* \"conduit/Conduit.sol\":8980:9001  ConduitItemType.ERC20 */\n      0x01\n        /* \"conduit/Conduit.sol\":8963:9001  item.itemType == ConduitItemType.ERC20 */\n      0x03\n      dup2\n      gt\n      iszero\n      tag_61\n      jumpi\n      tag_62\n      tag_63\n      jump\t// in\n    tag_62:\n    tag_61:\n        /* \"conduit/Conduit.sol\":8963:8967  item */\n      dup2\n        /* \"conduit/Conduit.sol\":8963:8976  item.itemType */\n      0x00\n      add\n      0x20\n      dup2\n      add\n      swap1\n      tag_64\n      swap2\n      swap1\n      tag_65\n      jump\t// in\n    tag_64:\n        /* \"conduit/Conduit.sol\":8963:9001  item.itemType == ConduitItemType.ERC20 */\n      0x03\n      dup2\n      gt\n      iszero\n      tag_66\n      jumpi\n      tag_67\n      tag_63\n      jump\t// in\n    tag_67:\n    tag_66:\n      sub\n        /* \"conduit/Conduit.sol\":8959:10205  if (item.itemType == ConduitItemType.ERC20) {... */\n      tag_68\n      jumpi\n        /* \"conduit/Conduit.sol\":9304:9370  _performERC20Transfer(item.token, item.from, item.to, item.amount) */\n      tag_69\n        /* \"conduit/Conduit.sol\":9326:9330  item */\n      dup2\n        /* \"conduit/Conduit.sol\":9326:9336  item.token */\n      0x20\n      add\n      0x20\n      dup2\n      add\n      swap1\n      tag_70\n      swap2\n      swap1\n      tag_71\n      jump\t// in\n    tag_70:\n        /* \"conduit/Conduit.sol\":9338:9342  item */\n      dup3\n        /* \"conduit/Conduit.sol\":9338:9347  item.from */\n      0x40\n      add\n      0x20\n      dup2\n      add\n      swap1\n      tag_72\n      swap2\n      swap1\n      tag_71\n      jump\t// in\n    tag_72:\n        /* \"conduit/Conduit.sol\":9349:9353  item */\n      dup4\n        /* \"conduit/Conduit.sol\":9349:9356  item.to */\n      0x60\n      add\n      0x20\n      dup2\n      add\n      swap1\n      tag_73\n      swap2\n      swap1\n      tag_71\n      jump\t// in\n    tag_73:\n        /* \"conduit/Conduit.sol\":9358:9362  item */\n      dup5\n        /* \"conduit/Conduit.sol\":9358:9369  item.amount */\n      0xa0\n      add\n      calldataload\n        /* \"conduit/Conduit.sol\":9304:9325  _performERC20Transfer */\n      tag_74\n        /* \"conduit/Conduit.sol\":9304:9370  _performERC20Transfer(item.token, item.from, item.to, item.amount) */\n      jump\t// in\n    tag_69:\n        /* \"conduit/Conduit.sol\":8959:10205  if (item.itemType == ConduitItemType.ERC20) {... */\n      jump(tag_75)\n    tag_68:\n        /* \"conduit/Conduit.sol\":9408:9430  ConduitItemType.ERC721 */\n      0x02\n        /* \"conduit/Conduit.sol\":9391:9430  item.itemType == ConduitItemType.ERC721 */\n      0x03\n      dup2\n      gt\n      iszero\n      tag_76\n      jumpi\n      tag_77\n      tag_63\n      jump\t// in\n    tag_77:\n    tag_76:\n        /* \"conduit/Conduit.sol\":9391:9395  item */\n      dup2\n        /* \"conduit/Conduit.sol\":9391:9404  item.itemType */\n      0x00\n      add\n      0x20\n      dup2\n      add\n      swap1\n      tag_78\n      swap2\n      swap1\n      tag_65\n      jump\t// in\n    tag_78:\n        /* \"conduit/Conduit.sol\":9391:9430  item.itemType == ConduitItemType.ERC721 */\n      0x03\n      dup2\n      gt\n      iszero\n      tag_79\n      jumpi\n      tag_80\n      tag_63\n      jump\t// in\n    tag_80:\n    tag_79:\n      sub\n        /* \"conduit/Conduit.sol\":9387:10205  if (item.itemType == ConduitItemType.ERC721) {... */\n      tag_81\n      jumpi\n        /* \"conduit/Conduit.sol\":9535:9536  1 */\n      0x01\n        /* \"conduit/Conduit.sol\":9520:9524  item */\n      dup2\n        /* \"conduit/Conduit.sol\":9520:9531  item.amount */\n      0xa0\n      add\n      calldataload\n        /* \"conduit/Conduit.sol\":9520:9536  item.amount != 1 */\n      eq\n        /* \"conduit/Conduit.sol\":9516:9607  if (item.amount != 1) {... */\n      tag_82\n      jumpi\n        /* \"conduit/Conduit.sol\":9563:9592  InvalidERC721TransferAmount() */\n      mload(0x40)\n      0xefcc00b100000000000000000000000000000000000000000000000000000000\n      dup2\n      mstore\n      0x04\n      add\n      mload(0x40)\n      dup1\n      swap2\n      sub\n      swap1\n      revert\n        /* \"conduit/Conduit.sol\":9516:9607  if (item.amount != 1) {... */\n    tag_82:\n        /* \"conduit/Conduit.sol\":9659:9808  _performERC721Transfer(... */\n      tag_83\n        /* \"conduit/Conduit.sol\":9699:9703  item */\n      dup2\n        /* \"conduit/Conduit.sol\":9699:9709  item.token */\n      0x20\n      add\n      0x20\n      dup2\n      add\n      swap1\n      tag_84\n      swap2\n      swap1\n      tag_71\n      jump\t// in\n    tag_84:\n        /* \"conduit/Conduit.sol\":9727:9731  item */\n      dup3\n        /* \"conduit/Conduit.sol\":9727:9736  item.from */\n      0x40\n      add\n      0x20\n      dup2\n      add\n      swap1\n      tag_85\n      swap2\n      swap1\n      tag_71\n      jump\t// in\n    tag_85:\n        /* \"conduit/Conduit.sol\":9754:9758  item */\n      dup4\n        /* \"conduit/Conduit.sol\":9754:9761  item.to */\n      0x60\n      add\n      0x20\n      dup2\n      add\n      swap1\n      tag_86\n      swap2\n      swap1\n      tag_71\n      jump\t// in\n    tag_86:\n        /* \"conduit/Conduit.sol\":9779:9783  item */\n      dup5\n        /* \"conduit/Conduit.sol\":9779:9794  item.identifier */\n      0x80\n      add\n      calldataload\n        /* \"conduit/Conduit.sol\":9659:9681  _performERC721Transfer */\n      tag_87\n        /* \"conduit/Conduit.sol\":9659:9808  _performERC721Transfer(... */\n      jump\t// in\n    tag_83:\n        /* \"conduit/Conduit.sol\":9387:10205  if (item.itemType == ConduitItemType.ERC721) {... */\n      jump(tag_88)\n    tag_81:\n        /* \"conduit/Conduit.sol\":9846:9869  ConduitItemType.ERC1155 */\n      0x03\n        /* \"conduit/Conduit.sol\":9829:9869  item.itemType == ConduitItemType.ERC1155 */\n      dup1\n      dup2\n      gt\n      iszero\n      tag_89\n      jumpi\n      tag_90\n      tag_63\n      jump\t// in\n    tag_90:\n    tag_89:\n        /* \"conduit/Conduit.sol\":9829:9833  item */\n      dup2\n        /* \"conduit/Conduit.sol\":9829:9842  item.itemType */\n      0x00\n      add\n      0x20\n      dup2\n      add\n      swap1\n      tag_91\n      swap2\n      swap1\n      tag_65\n      jump\t// in\n    tag_91:\n        /* \"conduit/Conduit.sol\":9829:9869  item.itemType == ConduitItemType.ERC1155 */\n      0x03\n      dup2\n      gt\n      iszero\n      tag_92\n      jumpi\n      tag_93\n      tag_63\n      jump\t// in\n    tag_93:\n    tag_92:\n      sub\n        /* \"conduit/Conduit.sol\":9825:10205  if (item.itemType == ConduitItemType.ERC1155) {... */\n      tag_94\n      jumpi\n        /* \"conduit/Conduit.sol\":9924:10103  _performERC1155Transfer(... */\n      tag_95\n        /* \"conduit/Conduit.sol\":9965:9969  item */\n      dup2\n        /* \"conduit/Conduit.sol\":9965:9975  item.token */\n      0x20\n      add\n      0x20\n      dup2\n      add\n      swap1\n      tag_96\n      swap2\n      swap1\n      tag_71\n      jump\t// in\n    tag_96:\n        /* \"conduit/Conduit.sol\":9993:9997  item */\n      dup3\n        /* \"conduit/Conduit.sol\":9993:10002  item.from */\n      0x40\n      add\n      0x20\n      dup2\n      add\n      swap1\n      tag_97\n      swap2\n      swap1\n      tag_71\n      jump\t// in\n    tag_97:\n        /* \"conduit/Conduit.sol\":10020:10024  item */\n      dup4\n        /* \"conduit/Conduit.sol\":10020:10027  item.to */\n      0x60\n      add\n      0x20\n      dup2\n      add\n      swap1\n      tag_98\n      swap2\n      swap1\n      tag_71\n      jump\t// in\n    tag_98:\n        /* \"conduit/Conduit.sol\":10045:10049  item */\n      dup5\n        /* \"conduit/Conduit.sol\":10045:10060  item.identifier */\n      0x80\n      add\n      calldataload\n        /* \"conduit/Conduit.sol\":10078:10082  item */\n      dup6\n        /* \"conduit/Conduit.sol\":10078:10089  item.amount */\n      0xa0\n      add\n      calldataload\n        /* \"conduit/Conduit.sol\":9924:9947  _performERC1155Transfer */\n      tag_99\n        /* \"conduit/Conduit.sol\":9924:10103  _performERC1155Transfer(... */\n      jump\t// in\n    tag_95:\n        /* \"conduit/Conduit.sol\":9825:10205  if (item.itemType == ConduitItemType.ERC1155) {... */\n      jump(tag_100)\n    tag_94:\n        /* \"conduit/Conduit.sol\":10177:10194  InvalidItemType() */\n      mload(0x40)\n      0x7932f1fc00000000000000000000000000000000000000000000000000000000\n      dup2\n      mstore\n      0x04\n      add\n      mload(0x40)\n      dup1\n      swap2\n      sub\n      swap1\n      revert\n        /* \"conduit/Conduit.sol\":9825:10205  if (item.itemType == ConduitItemType.ERC1155) {... */\n    tag_100:\n        /* \"conduit/Conduit.sol\":9387:10205  if (item.itemType == ConduitItemType.ERC721) {... */\n    tag_88:\n        /* \"conduit/Conduit.sol\":8959:10205  if (item.itemType == ConduitItemType.ERC20) {... */\n    tag_75:\n        /* \"conduit/Conduit.sol\":8814:10211  function _transfer(ConduitTransfer calldata item) internal {... */\n      pop\n      jump\t// out\n        /* \"lib/TokenTransferrer.sol\":23697:35180  function _performERC1155BatchTransfers(... */\n    tag_48:\n        /* \"lib/TokenTransferrer.sol\":23926:23947  batchTransfers.length */\n      dup1\n        /* \"lib/TokenTransferrer.sol\":24213:24234  batchTransfers.offset */\n      dup3\n        /* \"lib/TokenTransferrer.sol\":24493:24511  nextElementHeadPtr */\n      dup1\n        /* \"lib/TokenTransferrer.sol\":24763:24802  ERC1155_safeBatchTransferFrom_signature */\n      0x2eb2c2d600000000000000000000000000000000000000000000000000000000\n        /* \"lib/TokenTransferrer.sol\":24709:24745  ConduitBatch1155Transfer_from_offset */\n      0x20\n        /* \"lib/TokenTransferrer.sol\":24685:24816  mstore(... */\n      mstore\n        /* \"lib/TokenTransferrer.sol\":24910:24911  0 */\n      0x00\n        /* \"lib/TokenTransferrer.sol\":24879:34775  for {... */\n    tag_102:\n        /* \"lib/TokenTransferrer.sol\":24932:24935  len */\n      dup4\n        /* \"lib/TokenTransferrer.sol\":24929:24930  i */\n      dup2\n        /* \"lib/TokenTransferrer.sol\":24926:24936  lt(i, len) */\n      lt\n        /* \"lib/TokenTransferrer.sol\":24879:34775  for {... */\n      iszero\n      tag_104\n      jumpi\n        /* \"lib/TokenTransferrer.sol\":25311:25329  nextElementHeadPtr */\n      dup3\n        /* \"lib/TokenTransferrer.sol\":25298:25330  calldataload(nextElementHeadPtr) */\n      calldataload\n        /* \"lib/TokenTransferrer.sol\":25264:25276  arrayHeadPtr */\n      dup3\n        /* \"lib/TokenTransferrer.sol\":25239:25348  add(... */\n      add\n        /* \"lib/TokenTransferrer.sol\":25445:25455  elementPtr */\n      dup1\n        /* \"lib/TokenTransferrer.sol\":25432:25456  calldataload(elementPtr) */\n      calldataload\n        /* \"lib/TokenTransferrer.sol\":25549:25554  token */\n      dup1\n        /* \"lib/TokenTransferrer.sol\":25537:25555  extcodesize(token) */\n      extcodesize\n        /* \"lib/TokenTransferrer.sol\":25527:25797  if iszero(extcodesize(token)) {... */\n      tag_105\n      jumpi\n        /* \"lib/TokenTransferrer.sol\":25612:25638  NoContract_error_signature */\n      0x5f15d67200000000000000000000000000000000000000000000000000000000\n        /* \"lib/TokenTransferrer.sol\":25586:25610  NoContract_error_sig_ptr */\n      0x00\n        /* \"lib/TokenTransferrer.sol\":25579:25639  mstore(NoContract_error_sig_ptr, NoContract_error_signature) */\n      mstore\n        /* \"lib/TokenTransferrer.sol\":25695:25700  token */\n      dup1\n        /* \"lib/TokenTransferrer.sol\":25667:25693  NoContract_error_token_ptr */\n      0x04\n        /* \"lib/TokenTransferrer.sol\":25660:25701  mstore(NoContract_error_token_ptr, token) */\n      mstore\n        /* \"lib/TokenTransferrer.sol\":25755:25778  NoContract_error_length */\n      0x24\n        /* \"lib/TokenTransferrer.sol\":25729:25753  NoContract_error_sig_ptr */\n      0x00\n        /* \"lib/TokenTransferrer.sol\":25722:25779  revert(NoContract_error_sig_ptr, NoContract_error_length) */\n      revert\n        /* \"lib/TokenTransferrer.sol\":25527:25797  if iszero(extcodesize(token)) {... */\n    tag_105:\n        /* \"lib/TokenTransferrer.sol\":25939:25981  ConduitBatch1155Transfer_ids_length_offset */\n      0xa0\n        /* \"lib/TokenTransferrer.sol\":25927:25937  elementPtr */\n      dup3\n        /* \"lib/TokenTransferrer.sol\":25923:25982  add(elementPtr, ConduitBatch1155Transfer_ids_length_offset) */\n      add\n        /* \"lib/TokenTransferrer.sol\":25889:26000  calldataload(... */\n      calldataload\n        /* \"lib/TokenTransferrer.sol\":26231:26238  OneWord */\n      0x20\n        /* \"lib/TokenTransferrer.sol\":26220:26229  idsLength */\n      dup2\n        /* \"lib/TokenTransferrer.sol\":26216:26239  mul(idsLength, OneWord) */\n      mul\n        /* \"lib/TokenTransferrer.sol\":26144:26194  ConduitBatch1155Transfer_amounts_length_baseOffset */\n      0xc0\n        /* \"lib/TokenTransferrer.sol\":26119:26257  add(... */\n      add\n        /* \"lib/TokenTransferrer.sol\":27544:27565  expectedAmountsOffset */\n      dup1\n        /* \"lib/TokenTransferrer.sol\":27398:27438  ConduitBatchTransfer_amounts_head_offset */\n      0x80\n        /* \"lib/TokenTransferrer.sol\":27346:27356  elementPtr */\n      dup6\n        /* \"lib/TokenTransferrer.sol\":27301:27476  add(... */\n      add\n        /* \"lib/TokenTransferrer.sol\":27251:27510  calldataload(... */\n      calldataload\n        /* \"lib/TokenTransferrer.sol\":27215:27595  eq(... */\n      eq\n        /* \"lib/TokenTransferrer.sol\":27043:27085  ConduitBatch1155Transfer_ids_length_offset */\n      0xa0\n        /* \"lib/TokenTransferrer.sol\":26897:26937  ConduitBatch1155Transfer_ids_head_offset */\n      0x60\n        /* \"lib/TokenTransferrer.sol\":26845:26855  elementPtr */\n      dup7\n        /* \"lib/TokenTransferrer.sol\":26800:26975  add(... */\n      add\n        /* \"lib/TokenTransferrer.sol\":26750:27009  calldataload(... */\n      calldataload\n        /* \"lib/TokenTransferrer.sol\":26714:27115  eq(... */\n      eq\n        /* \"lib/TokenTransferrer.sol\":26631:27621  and(... */\n      and\n        /* \"lib/TokenTransferrer.sol\":26556:26577  expectedAmountsOffset */\n      dup2\n        /* \"lib/TokenTransferrer.sol\":26544:26554  elementPtr */\n      dup6\n        /* \"lib/TokenTransferrer.sol\":26540:26578  add(elementPtr, expectedAmountsOffset) */\n      add\n        /* \"lib/TokenTransferrer.sol\":26527:26579  calldataload(add(elementPtr, expectedAmountsOffset)) */\n      calldataload\n        /* \"lib/TokenTransferrer.sol\":26488:26497  idsLength */\n      dup4\n        /* \"lib/TokenTransferrer.sol\":26456:26605  eq(... */\n      eq\n        /* \"lib/TokenTransferrer.sol\":26371:27643  and(... */\n      and\n        /* \"lib/TokenTransferrer.sol\":26343:27661  iszero(... */\n      iszero\n        /* \"lib/TokenTransferrer.sol\":27752:27767  invalidEncoding */\n      dup1\n        /* \"lib/TokenTransferrer.sol\":27749:28141  if invalidEncoding {... */\n      iszero\n      tag_106\n      jumpi\n        /* \"lib/TokenTransferrer.sol\":27884:27925  Invalid1155BatchTransferEncoding_selector */\n      0xeba2084c00000000000000000000000000000000000000000000000000000000\n        /* \"lib/TokenTransferrer.sol\":27822:27858  Invalid1155BatchTransferEncoding_ptr */\n      0x00\n        /* \"lib/TokenTransferrer.sol\":27790:27947  mstore(... */\n      mstore\n        /* \"lib/TokenTransferrer.sol\":28062:28101  Invalid1155BatchTransferEncoding_length */\n      0x04\n        /* \"lib/TokenTransferrer.sol\":28000:28036  Invalid1155BatchTransferEncoding_ptr */\n      0x00\n        /* \"lib/TokenTransferrer.sol\":27968:28123  revert(... */\n      revert\n        /* \"lib/TokenTransferrer.sol\":27749:28141  if invalidEncoding {... */\n    tag_106:\n        /* \"lib/TokenTransferrer.sol\":28269:28276  OneWord */\n      0x20\n        /* \"lib/TokenTransferrer.sol\":28249:28267  nextElementHeadPtr */\n      dup9\n        /* \"lib/TokenTransferrer.sol\":28245:28277  add(nextElementHeadPtr, OneWord) */\n      add\n        /* \"lib/TokenTransferrer.sol\":28223:28277  nextElementHeadPtr := add(nextElementHeadPtr, OneWord) */\n      swap8\n      pop\n        /* \"lib/TokenTransferrer.sol\":28532:28573  ConduitBatch1155Transfer_usable_head_size */\n      0x80\n        /* \"lib/TokenTransferrer.sol\":28473:28509  ConduitBatch1155Transfer_from_offset */\n      0x20\n        /* \"lib/TokenTransferrer.sol\":28461:28471  elementPtr */\n      dup7\n        /* \"lib/TokenTransferrer.sol\":28457:28510  add(elementPtr, ConduitBatch1155Transfer_from_offset) */\n      add\n        /* \"lib/TokenTransferrer.sol\":28408:28435  BatchTransfer1155Params_ptr */\n      0x24\n        /* \"lib/TokenTransferrer.sol\":28374:28591  calldatacopy(... */\n      calldatacopy\n        /* \"lib/TokenTransferrer.sol\":28820:28828  TwoWords */\n      0x40\n        /* \"lib/TokenTransferrer.sol\":28809:28818  idsLength */\n      dup4\n        /* \"lib/TokenTransferrer.sol\":28805:28829  mul(idsLength, TwoWords) */\n      mul\n        /* \"lib/TokenTransferrer.sol\":28795:28803  TwoWords */\n      0x40\n        /* \"lib/TokenTransferrer.sol\":28791:28830  add(TwoWords, mul(idsLength, TwoWords)) */\n      add\n        /* \"lib/TokenTransferrer.sol\":29098:29115  idsAndAmountsSize */\n      dup1\n        /* \"lib/TokenTransferrer.sol\":29031:29072  BatchTransfer1155Params_ids_length_offset */\n      0xa0\n        /* \"lib/TokenTransferrer.sol\":29002:29137  add(... */\n      add\n        /* \"lib/TokenTransferrer.sol\":28943:28980  BatchTransfer1155Params_data_head_ptr */\n      0xa4\n        /* \"lib/TokenTransferrer.sol\":28915:29155  mstore(... */\n      mstore\n        /* \"lib/TokenTransferrer.sol\":29431:29432  0 */\n      0x00\n        /* \"lib/TokenTransferrer.sol\":29370:29387  idsAndAmountsSize */\n      dup2\n        /* \"lib/TokenTransferrer.sol\":29301:29344  BatchTransfer1155Params_data_length_basePtr */\n      0xc4\n        /* \"lib/TokenTransferrer.sol\":29272:29409  add(... */\n      add\n        /* \"lib/TokenTransferrer.sol\":29244:29450  mstore(... */\n      mstore\n        /* \"lib/TokenTransferrer.sol\":29659:29676  idsAndAmountsSize */\n      dup1\n        /* \"lib/TokenTransferrer.sol\":29596:29637  BatchTransfer1155Params_calldata_baseSize */\n      0xc4\n        /* \"lib/TokenTransferrer.sol\":29571:29694  add(... */\n      add\n        /* \"lib/TokenTransferrer.sol\":29966:29983  idsAndAmountsSize */\n      dup2\n        /* \"lib/TokenTransferrer.sol\":29901:29943  ConduitBatch1155Transfer_ids_length_offset */\n      0xa0\n        /* \"lib/TokenTransferrer.sol\":29889:29899  elementPtr */\n      dup9\n        /* \"lib/TokenTransferrer.sol\":29885:29944  add(elementPtr, ConduitBatch1155Transfer_ids_length_offset) */\n      add\n        /* \"lib/TokenTransferrer.sol\":29825:29863  BatchTransfer1155Params_ids_length_ptr */\n      0xc4\n        /* \"lib/TokenTransferrer.sol\":29791:30001  calldatacopy(... */\n      calldatacopy\n        /* \"lib/TokenTransferrer.sol\":30379:30380  0 */\n      0x00\n        /* \"lib/TokenTransferrer.sol\":30356:30357  0 */\n      dup1\n        /* \"lib/TokenTransferrer.sol\":30279:30295  transferDataSize */\n      dup3\n        /* \"lib/TokenTransferrer.sol\":30198:30234  ConduitBatch1155Transfer_from_offset */\n      0x20\n        /* \"lib/TokenTransferrer.sol\":30175:30176  0 */\n      0x00\n        /* \"lib/TokenTransferrer.sol\":30148:30153  token */\n      dup11\n        /* \"lib/TokenTransferrer.sol\":30121:30126  gas() */\n      gas\n        /* \"lib/TokenTransferrer.sol\":30095:30398  call(... */\n      call\n        /* \"lib/TokenTransferrer.sol\":30471:30478  success */\n      dup1\n        /* \"lib/TokenTransferrer.sol\":30461:34761  if iszero(success) {... */\n      tag_107\n      jumpi\n        /* \"lib/TokenTransferrer.sol\":30634:30650  returndatasize() */\n      returndatasize\n        /* \"lib/TokenTransferrer.sol\":30631:33627  if returndatasize() {... */\n      iszero\n      tag_108\n      jumpi\n        /* \"lib/TokenTransferrer.sol\":31106:31113  OneWord */\n      0x20\n        /* \"lib/TokenTransferrer.sol\":31062:31075  AlmostOneWord */\n      0x1f\n        /* \"lib/TokenTransferrer.sol\":31044:31060  returndatasize() */\n      returndatasize\n        /* \"lib/TokenTransferrer.sol\":31040:31076  add(returndatasize(), AlmostOneWord) */\n      add\n        /* \"lib/TokenTransferrer.sol\":31007:31139  div(... */\n      div\n        /* \"lib/TokenTransferrer.sol\":31800:31807  OneWord */\n      0x20\n        /* \"lib/TokenTransferrer.sol\":31782:31798  transferDataSize */\n      dup4\n        /* \"lib/TokenTransferrer.sol\":31778:31808  div(transferDataSize, OneWord) */\n      div\n        /* \"lib/TokenTransferrer.sol\":31936:31951  returnDataWords */\n      dup2\n        /* \"lib/TokenTransferrer.sol\":31923:31934  CostPerWord */\n      0x03\n        /* \"lib/TokenTransferrer.sol\":31919:31952  mul(CostPerWord, returnDataWords) */\n      mul\n        /* \"lib/TokenTransferrer.sol\":32073:32083  msizeWords */\n      dup2\n        /* \"lib/TokenTransferrer.sol\":32056:32071  returnDataWords */\n      dup4\n        /* \"lib/TokenTransferrer.sol\":32053:32084  gt(returnDataWords, msizeWords) */\n      gt\n        /* \"lib/TokenTransferrer.sol\":32050:33029  if gt(returnDataWords, msizeWords) {... */\n      iszero\n      tag_109\n      jumpi\n        /* \"lib/TokenTransferrer.sol\":32875:32901  MemoryExpansionCoefficient */\n      0x0200\n        /* \"lib/TokenTransferrer.sol\":32780:32790  msizeWords */\n      dup3\n        /* \"lib/TokenTransferrer.sol\":32768:32778  msizeWords */\n      dup4\n        /* \"lib/TokenTransferrer.sol\":32764:32791  mul(msizeWords, msizeWords) */\n      mul\n        /* \"lib/TokenTransferrer.sol\":32657:32672  returnDataWords */\n      dup5\n        /* \"lib/TokenTransferrer.sol\":32592:32607  returnDataWords */\n      dup6\n        /* \"lib/TokenTransferrer.sol\":32539:32718  mul(... */\n      mul\n        /* \"lib/TokenTransferrer.sol\":32490:32833  sub(... */\n      sub\n        /* \"lib/TokenTransferrer.sol\":32445:32939  div(... */\n      div\n        /* \"lib/TokenTransferrer.sol\":32358:32369  CostPerWord */\n      0x03\n        /* \"lib/TokenTransferrer.sol\":32305:32315  msizeWords */\n      dup4\n        /* \"lib/TokenTransferrer.sol\":32288:32303  returnDataWords */\n      dup6\n        /* \"lib/TokenTransferrer.sol\":32284:32316  sub(returnDataWords, msizeWords) */\n      sub\n        /* \"lib/TokenTransferrer.sol\":32239:32407  mul(... */\n      mul\n        /* \"lib/TokenTransferrer.sol\":32198:32973  add(... */\n      add\n        /* \"lib/TokenTransferrer.sol\":32160:32164  cost */\n      dup2\n        /* \"lib/TokenTransferrer.sol\":32123:33003  add(... */\n      add\n        /* \"lib/TokenTransferrer.sol\":32115:33003  cost := add(... */\n      swap1\n      pop\n        /* \"lib/TokenTransferrer.sol\":32050:33029  if gt(returnDataWords, msizeWords) {... */\n    tag_109:\n        /* \"lib/TokenTransferrer.sol\":33289:33294  gas() */\n      gas\n        /* \"lib/TokenTransferrer.sol\":33272:33286  ExtraGasBuffer */\n      0x20\n        /* \"lib/TokenTransferrer.sol\":33266:33270  cost */\n      dup3\n        /* \"lib/TokenTransferrer.sol\":33262:33287  add(cost, ExtraGasBuffer) */\n      add\n        /* \"lib/TokenTransferrer.sol\":33259:33295  lt(add(cost, ExtraGasBuffer), gas()) */\n      lt\n        /* \"lib/TokenTransferrer.sol\":33256:33605  if lt(add(cost, ExtraGasBuffer), gas()) {... */\n      iszero\n      tag_110\n      jumpi\n        /* \"lib/TokenTransferrer.sol\":33425:33441  returndatasize() */\n      returndatasize\n        /* \"lib/TokenTransferrer.sol\":33422:33423  0 */\n      0x00\n        /* \"lib/TokenTransferrer.sol\":33419:33420  0 */\n      dup1\n        /* \"lib/TokenTransferrer.sol\":33404:33442  returndatacopy(0, 0, returndatasize()) */\n      returndatacopy\n        /* \"lib/TokenTransferrer.sol\":33562:33578  returndatasize() */\n      returndatasize\n        /* \"lib/TokenTransferrer.sol\":33559:33560  0 */\n      0x00\n        /* \"lib/TokenTransferrer.sol\":33552:33579  revert(0, returndatasize()) */\n      revert\n        /* \"lib/TokenTransferrer.sol\":33256:33605  if lt(add(cost, ExtraGasBuffer), gas()) {... */\n    tag_110:\n        /* \"lib/TokenTransferrer.sol\":30651:33627  {... */\n      pop\n      pop\n      pop\n        /* \"lib/TokenTransferrer.sol\":30631:33627  if returndatasize() {... */\n    tag_108:\n        /* \"lib/TokenTransferrer.sol\":33756:33806  ERC1155BatchTransferGenericFailure_error_signature */\n      0xafc445e200000000000000000000000000000000000000000000000000000000\n        /* \"lib/TokenTransferrer.sol\":33729:33730  0 */\n      0x00\n        /* \"lib/TokenTransferrer.sol\":33697:33828  mstore(... */\n      mstore\n        /* \"lib/TokenTransferrer.sol\":33943:33948  token */\n      dup7\n        /* \"lib/TokenTransferrer.sol\":33897:33941  ERC1155BatchTransferGenericFailure_token_ptr */\n      0x04\n        /* \"lib/TokenTransferrer.sol\":33890:33949  mstore(ERC1155BatchTransferGenericFailure_token_ptr, token) */\n      mstore\n        /* \"lib/TokenTransferrer.sol\":34122:34167  ERC1155BatchTransferGenericFailure_ids_offset */\n      0xc0\n        /* \"lib/TokenTransferrer.sol\":34060:34096  BatchTransfer1155Params_ids_head_ptr */\n      0x64\n        /* \"lib/TokenTransferrer.sol\":34028:34189  mstore(... */\n      mstore\n        /* \"lib/TokenTransferrer.sol\":34446:34486  BatchTransfer1155Params_amounts_head_ptr */\n      0x84\n        /* \"lib/TokenTransferrer.sol\":34440:34487  mload(BatchTransfer1155Params_amounts_head_ptr) */\n      mload\n        /* \"lib/TokenTransferrer.sol\":34403:34410  OneWord */\n      0x20\n        /* \"lib/TokenTransferrer.sol\":34370:34513  add(... */\n      add\n        /* \"lib/TokenTransferrer.sol\":34304:34344  BatchTransfer1155Params_amounts_head_ptr */\n      0x84\n        /* \"lib/TokenTransferrer.sol\":34272:34535  mstore(... */\n      mstore\n        /* \"lib/TokenTransferrer.sol\":34726:34742  transferDataSize */\n      dup2\n        /* \"lib/TokenTransferrer.sol\":34723:34724  0 */\n      0x00\n        /* \"lib/TokenTransferrer.sol\":34716:34743  revert(0, transferDataSize) */\n      revert\n        /* \"lib/TokenTransferrer.sol\":30461:34761  if iszero(success) {... */\n    tag_107:\n        /* \"lib/TokenTransferrer.sol\":24984:34775  {... */\n      pop\n      pop\n      pop\n      pop\n      pop\n      pop\n      pop\n      pop\n        /* \"lib/TokenTransferrer.sol\":24967:24968  1 */\n      0x01\n        /* \"lib/TokenTransferrer.sol\":24964:24965  i */\n      dup2\n        /* \"lib/TokenTransferrer.sol\":24960:24969  add(i, 1) */\n      add\n        /* \"lib/TokenTransferrer.sol\":24955:24969  i := add(i, 1) */\n      swap1\n      pop\n        /* \"lib/TokenTransferrer.sol\":24879:34775  for {... */\n      jump(tag_102)\n    tag_104:\n        /* \"lib/TokenTransferrer.sol\":24883:24925  {... */\n      pop\n        /* \"lib/TokenTransferrer.sol\":35139:35163  DefaultFreeMemoryPointer */\n      0x80\n        /* \"lib/TokenTransferrer.sol\":35116:35137  FreeMemoryPointerSlot */\n      0x40\n        /* \"lib/TokenTransferrer.sol\":35109:35164  mstore(FreeMemoryPointerSlot, DefaultFreeMemoryPointer) */\n      mstore\n        /* \"lib/TokenTransferrer.sol\":23901:35174  {... */\n      pop\n      pop\n      pop\n        /* \"lib/TokenTransferrer.sol\":23697:35180  function _performERC1155BatchTransfers(... */\n      pop\n      pop\n      jump\t// out\n        /* \"lib/TokenTransferrer.sol\":1345:10960  function _performERC20Transfer(... */\n    tag_74:\n        /* \"lib/TokenTransferrer.sol\":1771:1792  FreeMemoryPointerSlot */\n      0x40\n        /* \"lib/TokenTransferrer.sol\":1765:1793  mload(FreeMemoryPointerSlot) */\n      mload\n        /* \"lib/TokenTransferrer.sol\":1919:1947  ERC20_transferFrom_signature */\n      0x23b872dd00000000000000000000000000000000000000000000000000000000\n        /* \"lib/TokenTransferrer.sol\":1891:1917  ERC20_transferFrom_sig_ptr */\n      0x00\n        /* \"lib/TokenTransferrer.sol\":1884:1948  mstore(ERC20_transferFrom_sig_ptr, ERC20_transferFrom_signature) */\n      mstore\n        /* \"lib/TokenTransferrer.sol\":1997:2001  from */\n      dup4\n        /* \"lib/TokenTransferrer.sol\":1968:1995  ERC20_transferFrom_from_ptr */\n      0x04\n        /* \"lib/TokenTransferrer.sol\":1961:2002  mstore(ERC20_transferFrom_from_ptr, from) */\n      mstore\n        /* \"lib/TokenTransferrer.sol\":2049:2051  to */\n      dup3\n        /* \"lib/TokenTransferrer.sol\":2022:2047  ERC20_transferFrom_to_ptr */\n      0x24\n        /* \"lib/TokenTransferrer.sol\":2015:2052  mstore(ERC20_transferFrom_to_ptr, to) */\n      mstore\n        /* \"lib/TokenTransferrer.sol\":2103:2109  amount */\n      dup2\n        /* \"lib/TokenTransferrer.sol\":2072:2101  ERC20_transferFrom_amount_ptr */\n      0x44\n        /* \"lib/TokenTransferrer.sol\":2065:2110  mstore(ERC20_transferFrom_amount_ptr, amount) */\n      mstore\n        /* \"lib/TokenTransferrer.sol\":2797:2804  OneWord */\n      0x20\n        /* \"lib/TokenTransferrer.sol\":2778:2779  0 */\n      0x00\n        /* \"lib/TokenTransferrer.sol\":2735:2760  ERC20_transferFrom_length */\n      0x64\n        /* \"lib/TokenTransferrer.sol\":2691:2717  ERC20_transferFrom_sig_ptr */\n      0x00\n        /* \"lib/TokenTransferrer.sol\":2672:2673  0 */\n      dup1\n        /* \"lib/TokenTransferrer.sol\":2649:2654  token */\n      dup10\n        /* \"lib/TokenTransferrer.sol\":2626:2631  gas() */\n      gas\n        /* \"lib/TokenTransferrer.sol\":2604:2818  call(... */\n      call\n        /* \"lib/TokenTransferrer.sol\":3295:3305  callStatus */\n      dup1\n        /* \"lib/TokenTransferrer.sol\":3242:3258  returndatasize() */\n      returndatasize\n        /* \"lib/TokenTransferrer.sol\":3235:3259  iszero(returndatasize()) */\n      iszero\n        /* \"lib/TokenTransferrer.sol\":3209:3211  31 */\n      0x1f\n        /* \"lib/TokenTransferrer.sol\":3191:3207  returndatasize() */\n      returndatasize\n        /* \"lib/TokenTransferrer.sol\":3188:3212  gt(returndatasize(), 31) */\n      gt\n        /* \"lib/TokenTransferrer.sol\":3184:3185  1 */\n      0x01\n        /* \"lib/TokenTransferrer.sol\":3180:3181  0 */\n      0x00\n        /* \"lib/TokenTransferrer.sol\":3174:3182  mload(0) */\n      mload\n        /* \"lib/TokenTransferrer.sol\":3171:3186  eq(mload(0), 1) */\n      eq\n        /* \"lib/TokenTransferrer.sol\":3167:3213  and(eq(mload(0), 1), gt(returndatasize(), 31)) */\n      and\n        /* \"lib/TokenTransferrer.sol\":3143:3277  or(... */\n      or\n        /* \"lib/TokenTransferrer.sol\":2927:3319  and(... */\n      and\n        /* \"lib/TokenTransferrer.sol\":3680:3696  returndatasize() */\n      returndatasize\n        /* \"lib/TokenTransferrer.sol\":3673:3697  iszero(returndatasize()) */\n      iszero\n        /* \"lib/TokenTransferrer.sol\":3666:3698  iszero(iszero(returndatasize())) */\n      iszero\n        /* \"lib/TokenTransferrer.sol\":3657:3664  success */\n      dup2\n        /* \"lib/TokenTransferrer.sol\":3653:3699  and(success, iszero(iszero(returndatasize()))) */\n      and\n        /* \"lib/TokenTransferrer.sol\":3643:10753  if iszero(and(success, iszero(iszero(returndatasize())))) {... */\n      tag_112\n      jumpi\n        /* \"lib/TokenTransferrer.sol\":4001:4008  success */\n      dup1\n        /* \"lib/TokenTransferrer.sol\":3991:3996  token */\n      dup8\n        /* \"lib/TokenTransferrer.sol\":3979:3997  extcodesize(token) */\n      extcodesize\n        /* \"lib/TokenTransferrer.sol\":3972:3998  iszero(extcodesize(token)) */\n      iszero\n        /* \"lib/TokenTransferrer.sol\":3965:3999  iszero(iszero(extcodesize(token))) */\n      iszero\n        /* \"lib/TokenTransferrer.sol\":3961:4009  and(iszero(iszero(extcodesize(token))), success) */\n      and\n        /* \"lib/TokenTransferrer.sol\":3951:10533  if iszero(and(iszero(iszero(extcodesize(token))), success)) {... */\n      tag_113\n      jumpi\n        /* \"lib/TokenTransferrer.sol\":4090:4097  success */\n      dup1\n        /* \"lib/TokenTransferrer.sol\":4080:10212  if iszero(success) {... */\n      tag_114\n      jumpi\n        /* \"lib/TokenTransferrer.sol\":4189:4199  callStatus */\n      dup2\n        /* \"lib/TokenTransferrer.sol\":4179:8938  if iszero(callStatus) {... */\n      tag_115\n      jumpi\n        /* \"lib/TokenTransferrer.sol\":4379:4395  returndatasize() */\n      returndatasize\n        /* \"lib/TokenTransferrer.sol\":4376:7698  if returndatasize() {... */\n      iszero\n      tag_116\n      jumpi\n        /* \"lib/TokenTransferrer.sol\":4946:4953  OneWord */\n      0x20\n        /* \"lib/TokenTransferrer.sol\":4894:4907  AlmostOneWord */\n      0x1f\n        /* \"lib/TokenTransferrer.sol\":4876:4892  returndatasize() */\n      returndatasize\n        /* \"lib/TokenTransferrer.sol\":4872:4908  add(returndatasize(), AlmostOneWord) */\n      add\n        /* \"lib/TokenTransferrer.sol\":4831:4987  div(... */\n      div\n        /* \"lib/TokenTransferrer.sol\":5352:5359  OneWord */\n      0x20\n        /* \"lib/TokenTransferrer.sol\":5340:5350  memPointer */\n      dup5\n        /* \"lib/TokenTransferrer.sol\":5336:5360  div(memPointer, OneWord) */\n      div\n        /* \"lib/TokenTransferrer.sol\":5504:5519  returnDataWords */\n      dup2\n        /* \"lib/TokenTransferrer.sol\":5491:5502  CostPerWord */\n      0x03\n        /* \"lib/TokenTransferrer.sol\":5487:5520  mul(CostPerWord, returnDataWords) */\n      mul\n        /* \"lib/TokenTransferrer.sol\":5657:5667  msizeWords */\n      dup2\n        /* \"lib/TokenTransferrer.sol\":5640:5655  returnDataWords */\n      dup4\n        /* \"lib/TokenTransferrer.sol\":5637:5668  gt(returnDataWords, msizeWords) */\n      gt\n        /* \"lib/TokenTransferrer.sol\":5634:6927  if gt(returnDataWords, msizeWords) {... */\n      iszero\n      tag_117\n      jumpi\n        /* \"lib/TokenTransferrer.sol\":6741:6767  MemoryExpansionCoefficient */\n      0x0200\n        /* \"lib/TokenTransferrer.sol\":6630:6640  msizeWords */\n      dup3\n        /* \"lib/TokenTransferrer.sol\":6618:6628  msizeWords */\n      dup4\n        /* \"lib/TokenTransferrer.sol\":6614:6641  mul(msizeWords, msizeWords) */\n      mul\n        /* \"lib/TokenTransferrer.sol\":6491:6506  returnDataWords */\n      dup5\n        /* \"lib/TokenTransferrer.sol\":6418:6433  returnDataWords */\n      dup6\n        /* \"lib/TokenTransferrer.sol\":6357:6560  mul(... */\n      mul\n        /* \"lib/TokenTransferrer.sol\":6300:6691  sub(... */\n      sub\n        /* \"lib/TokenTransferrer.sol\":6247:6813  div(... */\n      div\n        /* \"lib/TokenTransferrer.sol\":6144:6155  CostPerWord */\n      0x03\n        /* \"lib/TokenTransferrer.sol\":6034:6044  msizeWords */\n      dup4\n        /* \"lib/TokenTransferrer.sol\":5965:5980  returnDataWords */\n      dup6\n        /* \"lib/TokenTransferrer.sol\":5908:6094  sub(... */\n      sub\n        /* \"lib/TokenTransferrer.sol\":5855:6201  mul(... */\n      mul\n        /* \"lib/TokenTransferrer.sol\":5806:6855  add(... */\n      add\n        /* \"lib/TokenTransferrer.sol\":5760:5764  cost */\n      dup2\n        /* \"lib/TokenTransferrer.sol\":5715:6893  add(... */\n      add\n        /* \"lib/TokenTransferrer.sol\":5707:6893  cost := add(... */\n      swap1\n      pop\n        /* \"lib/TokenTransferrer.sol\":5634:6927  if gt(returnDataWords, msizeWords) {... */\n    tag_117:\n        /* \"lib/TokenTransferrer.sol\":7219:7224  gas() */\n      gas\n        /* \"lib/TokenTransferrer.sol\":7202:7216  ExtraGasBuffer */\n      0x20\n        /* \"lib/TokenTransferrer.sol\":7196:7200  cost */\n      dup3\n        /* \"lib/TokenTransferrer.sol\":7192:7217  add(cost, ExtraGasBuffer) */\n      add\n        /* \"lib/TokenTransferrer.sol\":7189:7225  lt(add(cost, ExtraGasBuffer), gas()) */\n      lt\n        /* \"lib/TokenTransferrer.sol\":7186:7668  if lt(add(cost, ExtraGasBuffer), gas()) {... */\n      iszero\n      tag_118\n      jumpi\n        /* \"lib/TokenTransferrer.sol\":7417:7433  returndatasize() */\n      returndatasize\n        /* \"lib/TokenTransferrer.sol\":7414:7415  0 */\n      0x00\n        /* \"lib/TokenTransferrer.sol\":7411:7412  0 */\n      dup1\n        /* \"lib/TokenTransferrer.sol\":7396:7434  returndatacopy(0, 0, returndatasize()) */\n      returndatacopy\n        /* \"lib/TokenTransferrer.sol\":7617:7633  returndatasize() */\n      returndatasize\n        /* \"lib/TokenTransferrer.sol\":7614:7615  0 */\n      0x00\n        /* \"lib/TokenTransferrer.sol\":7607:7634  revert(0, returndatasize()) */\n      revert\n        /* \"lib/TokenTransferrer.sol\":7186:7668  if lt(add(cost, ExtraGasBuffer), gas()) {... */\n    tag_118:\n        /* \"lib/TokenTransferrer.sol\":4396:7698  {... */\n      pop\n      pop\n      pop\n        /* \"lib/TokenTransferrer.sol\":4376:7698  if returndatasize() {... */\n    tag_116:\n        /* \"lib/TokenTransferrer.sol\":7921:7964  TokenTransferGenericFailure_error_signature */\n      0xf486bc8700000000000000000000000000000000000000000000000000000000\n        /* \"lib/TokenTransferrer.sol\":7846:7887  TokenTransferGenericFailure_error_sig_ptr */\n      0x00\n        /* \"lib/TokenTransferrer.sol\":7806:7994  mstore(... */\n      mstore\n        /* \"lib/TokenTransferrer.sol\":8140:8145  token */\n      dup7\n        /* \"lib/TokenTransferrer.sol\":8063:8106  TokenTransferGenericFailure_error_token_ptr */\n      0x04\n        /* \"lib/TokenTransferrer.sol\":8023:8175  mstore(... */\n      mstore\n        /* \"lib/TokenTransferrer.sol\":8320:8324  from */\n      dup6\n        /* \"lib/TokenTransferrer.sol\":8244:8286  TokenTransferGenericFailure_error_from_ptr */\n      0x24\n        /* \"lib/TokenTransferrer.sol\":8204:8354  mstore(... */\n      mstore\n        /* \"lib/TokenTransferrer.sol\":8432:8434  to */\n      dup5\n        /* \"lib/TokenTransferrer.sol\":8390:8430  TokenTransferGenericFailure_error_to_ptr */\n      0x44\n        /* \"lib/TokenTransferrer.sol\":8383:8435  mstore(TokenTransferGenericFailure_error_to_ptr, to) */\n      mstore\n        /* \"lib/TokenTransferrer.sol\":8513:8514  0 */\n      0x00\n        /* \"lib/TokenTransferrer.sol\":8471:8511  TokenTransferGenericFailure_error_id_ptr */\n      0x64\n        /* \"lib/TokenTransferrer.sol\":8464:8515  mstore(TokenTransferGenericFailure_error_id_ptr, 0) */\n      mstore\n        /* \"lib/TokenTransferrer.sol\":8662:8668  amount */\n      dup4\n        /* \"lib/TokenTransferrer.sol\":8584:8628  TokenTransferGenericFailure_error_amount_ptr */\n      0x84\n        /* \"lib/TokenTransferrer.sol\":8544:8698  mstore(... */\n      mstore\n        /* \"lib/TokenTransferrer.sol\":8842:8882  TokenTransferGenericFailure_error_length */\n      0xa4\n        /* \"lib/TokenTransferrer.sol\":8767:8808  TokenTransferGenericFailure_error_sig_ptr */\n      0x00\n        /* \"lib/TokenTransferrer.sol\":8727:8912  revert(... */\n      revert\n        /* \"lib/TokenTransferrer.sol\":4179:8938  if iszero(callStatus) {... */\n    tag_115:\n        /* \"lib/TokenTransferrer.sol\":9227:9276  BadReturnValueFromERC20OnTransfer_error_signature */\n      0x9889192300000000000000000000000000000000000000000000000000000000\n        /* \"lib/TokenTransferrer.sol\":9150:9197  BadReturnValueFromERC20OnTransfer_error_sig_ptr */\n      0x00\n        /* \"lib/TokenTransferrer.sol\":9114:9302  mstore(... */\n      mstore\n        /* \"lib/TokenTransferrer.sol\":9442:9447  token */\n      dup7\n        /* \"lib/TokenTransferrer.sol\":9363:9412  BadReturnValueFromERC20OnTransfer_error_token_ptr */\n      0x04\n        /* \"lib/TokenTransferrer.sol\":9327:9473  mstore(... */\n      mstore\n        /* \"lib/TokenTransferrer.sol\":9612:9616  from */\n      dup6\n        /* \"lib/TokenTransferrer.sol\":9534:9582  BadReturnValueFromERC20OnTransfer_error_from_ptr */\n      0x24\n        /* \"lib/TokenTransferrer.sol\":9498:9642  mstore(... */\n      mstore\n        /* \"lib/TokenTransferrer.sol\":9779:9781  to */\n      dup5\n        /* \"lib/TokenTransferrer.sol\":9703:9749  BadReturnValueFromERC20OnTransfer_error_to_ptr */\n      0x44\n        /* \"lib/TokenTransferrer.sol\":9667:9807  mstore(... */\n      mstore\n        /* \"lib/TokenTransferrer.sol\":9948:9954  amount */\n      dup4\n        /* \"lib/TokenTransferrer.sol\":9868:9918  BadReturnValueFromERC20OnTransfer_error_amount_ptr */\n      0x64\n        /* \"lib/TokenTransferrer.sol\":9832:9980  mstore(... */\n      mstore\n        /* \"lib/TokenTransferrer.sol\":10118:10164  BadReturnValueFromERC20OnTransfer_error_length */\n      0x84\n        /* \"lib/TokenTransferrer.sol\":10041:10088  BadReturnValueFromERC20OnTransfer_error_sig_ptr */\n      0x00\n        /* \"lib/TokenTransferrer.sol\":10005:10190  revert(... */\n      revert\n        /* \"lib/TokenTransferrer.sol\":4080:10212  if iszero(success) {... */\n    tag_114:\n        /* \"lib/TokenTransferrer.sol\":10348:10374  NoContract_error_signature */\n      0x5f15d67200000000000000000000000000000000000000000000000000000000\n        /* \"lib/TokenTransferrer.sol\":10322:10346  NoContract_error_sig_ptr */\n      0x00\n        /* \"lib/TokenTransferrer.sol\":10315:10375  mstore(NoContract_error_sig_ptr, NoContract_error_signature) */\n      mstore\n        /* \"lib/TokenTransferrer.sol\":10431:10436  token */\n      dup7\n        /* \"lib/TokenTransferrer.sol\":10403:10429  NoContract_error_token_ptr */\n      0x04\n        /* \"lib/TokenTransferrer.sol\":10396:10437  mstore(NoContract_error_token_ptr, token) */\n      mstore\n        /* \"lib/TokenTransferrer.sol\":10491:10514  NoContract_error_length */\n      0x24\n        /* \"lib/TokenTransferrer.sol\":10465:10489  NoContract_error_sig_ptr */\n      0x00\n        /* \"lib/TokenTransferrer.sol\":10458:10515  revert(NoContract_error_sig_ptr, NoContract_error_length) */\n      revert\n        /* \"lib/TokenTransferrer.sol\":3951:10533  if iszero(and(iszero(iszero(extcodesize(token))), success)) {... */\n    tag_113:\n        /* \"lib/TokenTransferrer.sol\":3643:10753  if iszero(and(success, iszero(iszero(returndatasize())))) {... */\n    tag_112:\n        /* \"lib/TokenTransferrer.sol\":10854:10864  memPointer */\n      dup3\n        /* \"lib/TokenTransferrer.sol\":10831:10852  FreeMemoryPointerSlot */\n      0x40\n        /* \"lib/TokenTransferrer.sol\":10824:10865  mstore(FreeMemoryPointerSlot, memPointer) */\n      mstore\n        /* \"lib/TokenTransferrer.sol\":10942:10943  0 */\n      0x00\n        /* \"lib/TokenTransferrer.sol\":10932:10940  ZeroSlot */\n      0x60\n        /* \"lib/TokenTransferrer.sol\":10925:10944  mstore(ZeroSlot, 0) */\n      mstore\n        /* \"lib/TokenTransferrer.sol\":1573:10954  {... */\n      pop\n      pop\n      pop\n        /* \"lib/TokenTransferrer.sol\":1345:10960  function _performERC20Transfer(... */\n      pop\n      pop\n      pop\n      pop\n      jump\t// out\n        /* \"lib/TokenTransferrer.sol\":11564:16478  function _performERC721Transfer(... */\n    tag_87:\n        /* \"lib/TokenTransferrer.sol\":11883:11888  token */\n      dup4\n        /* \"lib/TokenTransferrer.sol\":11871:11889  extcodesize(token) */\n      extcodesize\n        /* \"lib/TokenTransferrer.sol\":11861:12115  if iszero(extcodesize(token)) {... */\n      tag_120\n      jumpi\n        /* \"lib/TokenTransferrer.sol\":11942:11968  NoContract_error_signature */\n      0x5f15d67200000000000000000000000000000000000000000000000000000000\n        /* \"lib/TokenTransferrer.sol\":11916:11940  NoContract_error_sig_ptr */\n      0x00\n        /* \"lib/TokenTransferrer.sol\":11909:11969  mstore(NoContract_error_sig_ptr, NoContract_error_signature) */\n      mstore\n        /* \"lib/TokenTransferrer.sol\":12021:12026  token */\n      dup4\n        /* \"lib/TokenTransferrer.sol\":11993:12019  NoContract_error_token_ptr */\n      0x04\n        /* \"lib/TokenTransferrer.sol\":11986:12027  mstore(NoContract_error_token_ptr, token) */\n      mstore\n        /* \"lib/TokenTransferrer.sol\":12077:12100  NoContract_error_length */\n      0x24\n        /* \"lib/TokenTransferrer.sol\":12051:12075  NoContract_error_sig_ptr */\n      0x00\n        /* \"lib/TokenTransferrer.sol\":12044:12101  revert(NoContract_error_sig_ptr, NoContract_error_length) */\n      revert\n        /* \"lib/TokenTransferrer.sol\":11861:12115  if iszero(extcodesize(token)) {... */\n    tag_120:\n        /* \"lib/TokenTransferrer.sol\":12313:12334  FreeMemoryPointerSlot */\n      0x40\n        /* \"lib/TokenTransferrer.sol\":12307:12335  mload(FreeMemoryPointerSlot) */\n      mload\n        /* \"lib/TokenTransferrer.sol\":12459:12488  ERC721_transferFrom_signature */\n      0x23b872dd00000000000000000000000000000000000000000000000000000000\n        /* \"lib/TokenTransferrer.sol\":12430:12457  ERC721_transferFrom_sig_ptr */\n      0x00\n        /* \"lib/TokenTransferrer.sol\":12423:12489  mstore(ERC721_transferFrom_sig_ptr, ERC721_transferFrom_signature) */\n      mstore\n        /* \"lib/TokenTransferrer.sol\":12539:12543  from */\n      dup4\n        /* \"lib/TokenTransferrer.sol\":12509:12537  ERC721_transferFrom_from_ptr */\n      0x04\n        /* \"lib/TokenTransferrer.sol\":12502:12544  mstore(ERC721_transferFrom_from_ptr, from) */\n      mstore\n        /* \"lib/TokenTransferrer.sol\":12592:12594  to */\n      dup3\n        /* \"lib/TokenTransferrer.sol\":12564:12590  ERC721_transferFrom_to_ptr */\n      0x24\n        /* \"lib/TokenTransferrer.sol\":12557:12595  mstore(ERC721_transferFrom_to_ptr, to) */\n      mstore\n        /* \"lib/TokenTransferrer.sol\":12643:12653  identifier */\n      dup2\n        /* \"lib/TokenTransferrer.sol\":12615:12641  ERC721_transferFrom_id_ptr */\n      0x44\n        /* \"lib/TokenTransferrer.sol\":12608:12654  mstore(ERC721_transferFrom_id_ptr, identifier) */\n      mstore\n        /* \"lib/TokenTransferrer.sol\":12933:12934  0 */\n      0x00\n        /* \"lib/TokenTransferrer.sol\":12914:12915  0 */\n      dup1\n        /* \"lib/TokenTransferrer.sol\":12870:12896  ERC721_transferFrom_length */\n      0x64\n        /* \"lib/TokenTransferrer.sol\":12825:12852  ERC721_transferFrom_sig_ptr */\n      0x00\n        /* \"lib/TokenTransferrer.sol\":12806:12807  0 */\n      dup1\n        /* \"lib/TokenTransferrer.sol\":12783:12788  token */\n      dup10\n        /* \"lib/TokenTransferrer.sol\":12760:12765  gas() */\n      gas\n        /* \"lib/TokenTransferrer.sol\":12738:12948  call(... */\n      call\n        /* \"lib/TokenTransferrer.sol\":13013:13020  success */\n      dup1\n        /* \"lib/TokenTransferrer.sol\":13003:16271  if iszero(success) {... */\n      tag_121\n      jumpi\n        /* \"lib/TokenTransferrer.sol\":13164:13180  returndatasize() */\n      returndatasize\n        /* \"lib/TokenTransferrer.sol\":13161:15489  if returndatasize() {... */\n      iszero\n      tag_122\n      jumpi\n        /* \"lib/TokenTransferrer.sol\":13606:13613  OneWord */\n      0x20\n        /* \"lib/TokenTransferrer.sol\":13566:13579  AlmostOneWord */\n      0x1f\n        /* \"lib/TokenTransferrer.sol\":13548:13564  returndatasize() */\n      returndatasize\n        /* \"lib/TokenTransferrer.sol\":13544:13580  add(returndatasize(), AlmostOneWord) */\n      add\n        /* \"lib/TokenTransferrer.sol\":13515:13635  div(... */\n      div\n        /* \"lib/TokenTransferrer.sol\":13917:13924  OneWord */\n      0x20\n        /* \"lib/TokenTransferrer.sol\":13905:13915  memPointer */\n      dup4\n        /* \"lib/TokenTransferrer.sol\":13901:13925  div(memPointer, OneWord) */\n      div\n        /* \"lib/TokenTransferrer.sol\":14045:14060  returnDataWords */\n      dup2\n        /* \"lib/TokenTransferrer.sol\":14032:14043  CostPerWord */\n      0x03\n        /* \"lib/TokenTransferrer.sol\":14028:14061  mul(CostPerWord, returnDataWords) */\n      mul\n        /* \"lib/TokenTransferrer.sol\":14174:14184  msizeWords */\n      dup2\n        /* \"lib/TokenTransferrer.sol\":14157:14172  returnDataWords */\n      dup4\n        /* \"lib/TokenTransferrer.sol\":14154:14185  gt(returnDataWords, msizeWords) */\n      gt\n        /* \"lib/TokenTransferrer.sol\":14151:14920  if gt(returnDataWords, msizeWords) {... */\n      iszero\n      tag_123\n      jumpi\n        /* \"lib/TokenTransferrer.sol\":14782:14808  MemoryExpansionCoefficient */\n      0x0200\n        /* \"lib/TokenTransferrer.sol\":14695:14705  msizeWords */\n      dup3\n        /* \"lib/TokenTransferrer.sol\":14683:14693  msizeWords */\n      dup4\n        /* \"lib/TokenTransferrer.sol\":14679:14706  mul(msizeWords, msizeWords) */\n      mul\n        /* \"lib/TokenTransferrer.sol\":14621:14636  returnDataWords */\n      dup5\n        /* \"lib/TokenTransferrer.sol\":14604:14619  returnDataWords */\n      dup6\n        /* \"lib/TokenTransferrer.sol\":14600:14637  mul(returnDataWords, returnDataWords) */\n      mul\n        /* \"lib/TokenTransferrer.sol\":14555:14744  sub(... */\n      sub\n        /* \"lib/TokenTransferrer.sol\":14514:14842  div(... */\n      div\n        /* \"lib/TokenTransferrer.sol\":14435:14446  CostPerWord */\n      0x03\n        /* \"lib/TokenTransferrer.sol\":14386:14396  msizeWords */\n      dup4\n        /* \"lib/TokenTransferrer.sol\":14369:14384  returnDataWords */\n      dup6\n        /* \"lib/TokenTransferrer.sol\":14365:14397  sub(returnDataWords, msizeWords) */\n      sub\n        /* \"lib/TokenTransferrer.sol\":14324:14480  mul(... */\n      mul\n        /* \"lib/TokenTransferrer.sol\":14287:14872  add(... */\n      add\n        /* \"lib/TokenTransferrer.sol\":14253:14257  cost */\n      dup2\n        /* \"lib/TokenTransferrer.sol\":14220:14898  add(... */\n      add\n        /* \"lib/TokenTransferrer.sol\":14212:14898  cost := add(... */\n      swap1\n      pop\n        /* \"lib/TokenTransferrer.sol\":14151:14920  if gt(returnDataWords, msizeWords) {... */\n    tag_123:\n        /* \"lib/TokenTransferrer.sol\":15164:15169  gas() */\n      gas\n        /* \"lib/TokenTransferrer.sol\":15147:15161  ExtraGasBuffer */\n      0x20\n        /* \"lib/TokenTransferrer.sol\":15141:15145  cost */\n      dup3\n        /* \"lib/TokenTransferrer.sol\":15137:15162  add(cost, ExtraGasBuffer) */\n      add\n        /* \"lib/TokenTransferrer.sol\":15134:15170  lt(add(cost, ExtraGasBuffer), gas()) */\n      lt\n        /* \"lib/TokenTransferrer.sol\":15131:15471  if lt(add(cost, ExtraGasBuffer), gas()) {... */\n      iszero\n      tag_124\n      jumpi\n        /* \"lib/TokenTransferrer.sol\":15299:15315  returndatasize() */\n      returndatasize\n        /* \"lib/TokenTransferrer.sol\":15296:15297  0 */\n      0x00\n        /* \"lib/TokenTransferrer.sol\":15293:15294  0 */\n      dup1\n        /* \"lib/TokenTransferrer.sol\":15278:15316  returndatacopy(0, 0, returndatasize()) */\n      returndatacopy\n        /* \"lib/TokenTransferrer.sol\":15432:15448  returndatasize() */\n      returndatasize\n        /* \"lib/TokenTransferrer.sol\":15429:15430  0 */\n      0x00\n        /* \"lib/TokenTransferrer.sol\":15422:15449  revert(0, returndatasize()) */\n      revert\n        /* \"lib/TokenTransferrer.sol\":15131:15471  if lt(add(cost, ExtraGasBuffer), gas()) {... */\n    tag_124:\n        /* \"lib/TokenTransferrer.sol\":13181:15489  {... */\n      pop\n      pop\n      pop\n        /* \"lib/TokenTransferrer.sol\":13161:15489  if returndatasize() {... */\n    tag_122:\n        /* \"lib/TokenTransferrer.sol\":15664:15707  TokenTransferGenericFailure_error_signature */\n      0xf486bc8700000000000000000000000000000000000000000000000000000000\n        /* \"lib/TokenTransferrer.sol\":15601:15642  TokenTransferGenericFailure_error_sig_ptr */\n      0x00\n        /* \"lib/TokenTransferrer.sol\":15573:15725  mstore(... */\n      mstore\n        /* \"lib/TokenTransferrer.sol\":15794:15799  token */\n      dup6\n        /* \"lib/TokenTransferrer.sol\":15749:15792  TokenTransferGenericFailure_error_token_ptr */\n      0x04\n        /* \"lib/TokenTransferrer.sol\":15742:15800  mstore(TokenTransferGenericFailure_error_token_ptr, token) */\n      mstore\n        /* \"lib/TokenTransferrer.sol\":15868:15872  from */\n      dup5\n        /* \"lib/TokenTransferrer.sol\":15824:15866  TokenTransferGenericFailure_error_from_ptr */\n      0x24\n        /* \"lib/TokenTransferrer.sol\":15817:15873  mstore(TokenTransferGenericFailure_error_from_ptr, from) */\n      mstore\n        /* \"lib/TokenTransferrer.sol\":15939:15941  to */\n      dup4\n        /* \"lib/TokenTransferrer.sol\":15897:15937  TokenTransferGenericFailure_error_to_ptr */\n      0x44\n        /* \"lib/TokenTransferrer.sol\":15890:15942  mstore(TokenTransferGenericFailure_error_to_ptr, to) */\n      mstore\n        /* \"lib/TokenTransferrer.sol\":16008:16018  identifier */\n      dup3\n        /* \"lib/TokenTransferrer.sol\":15966:16006  TokenTransferGenericFailure_error_id_ptr */\n      0x64\n        /* \"lib/TokenTransferrer.sol\":15959:16019  mstore(TokenTransferGenericFailure_error_id_ptr, identifier) */\n      mstore\n        /* \"lib/TokenTransferrer.sol\":16089:16090  1 */\n      0x01\n        /* \"lib/TokenTransferrer.sol\":16043:16087  TokenTransferGenericFailure_error_amount_ptr */\n      0x84\n        /* \"lib/TokenTransferrer.sol\":16036:16091  mstore(TokenTransferGenericFailure_error_amount_ptr, 1) */\n      mstore\n        /* \"lib/TokenTransferrer.sol\":16199:16239  TokenTransferGenericFailure_error_length */\n      0xa4\n        /* \"lib/TokenTransferrer.sol\":16136:16177  TokenTransferGenericFailure_error_sig_ptr */\n      0x00\n        /* \"lib/TokenTransferrer.sol\":16108:16257  revert(... */\n      revert\n        /* \"lib/TokenTransferrer.sol\":13003:16271  if iszero(success) {... */\n    tag_121:\n        /* \"lib/TokenTransferrer.sol\":16372:16382  memPointer */\n      dup2\n        /* \"lib/TokenTransferrer.sol\":16349:16370  FreeMemoryPointerSlot */\n      0x40\n        /* \"lib/TokenTransferrer.sol\":16342:16383  mstore(FreeMemoryPointerSlot, memPointer) */\n      mstore\n        /* \"lib/TokenTransferrer.sol\":16460:16461  0 */\n      0x00\n        /* \"lib/TokenTransferrer.sol\":16450:16458  ZeroSlot */\n      0x60\n        /* \"lib/TokenTransferrer.sol\":16443:16462  mstore(ZeroSlot, 0) */\n      mstore\n        /* \"lib/TokenTransferrer.sol\":11798:16472  {... */\n      pop\n      pop\n        /* \"lib/TokenTransferrer.sol\":11564:16478  function _performERC721Transfer(... */\n      pop\n      pop\n      pop\n      pop\n      jump\t// out\n        /* \"lib/TokenTransferrer.sol\":17126:22746  function _performERC1155Transfer(... */\n    tag_99:\n        /* \"lib/TokenTransferrer.sol\":17471:17476  token */\n      dup5\n        /* \"lib/TokenTransferrer.sol\":17459:17477  extcodesize(token) */\n      extcodesize\n        /* \"lib/TokenTransferrer.sol\":17449:17703  if iszero(extcodesize(token)) {... */\n      tag_126\n      jumpi\n        /* \"lib/TokenTransferrer.sol\":17530:17556  NoContract_error_signature */\n      0x5f15d67200000000000000000000000000000000000000000000000000000000\n        /* \"lib/TokenTransferrer.sol\":17504:17528  NoContract_error_sig_ptr */\n      0x00\n        /* \"lib/TokenTransferrer.sol\":17497:17557  mstore(NoContract_error_sig_ptr, NoContract_error_signature) */\n      mstore\n        /* \"lib/TokenTransferrer.sol\":17609:17614  token */\n      dup5\n        /* \"lib/TokenTransferrer.sol\":17581:17607  NoContract_error_token_ptr */\n      0x04\n        /* \"lib/TokenTransferrer.sol\":17574:17615  mstore(NoContract_error_token_ptr, token) */\n      mstore\n        /* \"lib/TokenTransferrer.sol\":17665:17688  NoContract_error_length */\n      0x24\n        /* \"lib/TokenTransferrer.sol\":17639:17663  NoContract_error_sig_ptr */\n      0x00\n        /* \"lib/TokenTransferrer.sol\":17632:17689  revert(NoContract_error_sig_ptr, NoContract_error_length) */\n      revert\n        /* \"lib/TokenTransferrer.sol\":17449:17703  if iszero(extcodesize(token)) {... */\n    tag_126:\n        /* \"lib/TokenTransferrer.sol\":17895:17916  FreeMemoryPointerSlot */\n      0x40\n        /* \"lib/TokenTransferrer.sol\":17889:17917  mload(FreeMemoryPointerSlot) */\n      mload\n        /* \"lib/TokenTransferrer.sol\":17952:17960  Slot0x80 */\n      0x80\n        /* \"lib/TokenTransferrer.sol\":17946:17961  mload(Slot0x80) */\n      mload\n        /* \"lib/TokenTransferrer.sol\":17996:18004  Slot0xA0 */\n      0xa0\n        /* \"lib/TokenTransferrer.sol\":17990:18005  mload(Slot0xA0) */\n      mload\n        /* \"lib/TokenTransferrer.sol\":18040:18048  Slot0xC0 */\n      0xc0\n        /* \"lib/TokenTransferrer.sol\":18034:18049  mload(Slot0xC0) */\n      mload\n        /* \"lib/TokenTransferrer.sol\":18215:18249  ERC1155_safeTransferFrom_signature */\n      0xf242432a00000000000000000000000000000000000000000000000000000000\n        /* \"lib/TokenTransferrer.sol\":18165:18197  ERC1155_safeTransferFrom_sig_ptr */\n      0x00\n        /* \"lib/TokenTransferrer.sol\":18141:18263  mstore(... */\n      mstore\n        /* \"lib/TokenTransferrer.sol\":18318:18322  from */\n      dup8\n        /* \"lib/TokenTransferrer.sol\":18283:18316  ERC1155_safeTransferFrom_from_ptr */\n      0x04\n        /* \"lib/TokenTransferrer.sol\":18276:18323  mstore(ERC1155_safeTransferFrom_from_ptr, from) */\n      mstore\n        /* \"lib/TokenTransferrer.sol\":18376:18378  to */\n      dup7\n        /* \"lib/TokenTransferrer.sol\":18343:18374  ERC1155_safeTransferFrom_to_ptr */\n      0x24\n        /* \"lib/TokenTransferrer.sol\":18336:18379  mstore(ERC1155_safeTransferFrom_to_ptr, to) */\n      mstore\n        /* \"lib/TokenTransferrer.sol\":18432:18442  identifier */\n      dup6\n        /* \"lib/TokenTransferrer.sol\":18399:18430  ERC1155_safeTransferFrom_id_ptr */\n      0x44\n        /* \"lib/TokenTransferrer.sol\":18392:18443  mstore(ERC1155_safeTransferFrom_id_ptr, identifier) */\n      mstore\n        /* \"lib/TokenTransferrer.sol\":18500:18506  amount */\n      dup5\n        /* \"lib/TokenTransferrer.sol\":18463:18498  ERC1155_safeTransferFrom_amount_ptr */\n      0x64\n        /* \"lib/TokenTransferrer.sol\":18456:18507  mstore(ERC1155_safeTransferFrom_amount_ptr, amount) */\n      mstore\n        /* \"lib/TokenTransferrer.sol\":18602:18645  ERC1155_safeTransferFrom_data_length_offset */\n      0xa0\n        /* \"lib/TokenTransferrer.sol\":18544:18584  ERC1155_safeTransferFrom_data_offset_ptr */\n      0x84\n        /* \"lib/TokenTransferrer.sol\":18520:18659  mstore(... */\n      mstore\n        /* \"lib/TokenTransferrer.sol\":18721:18722  0 */\n      0x00\n        /* \"lib/TokenTransferrer.sol\":18679:18719  ERC1155_safeTransferFrom_data_length_ptr */\n      0xa4\n        /* \"lib/TokenTransferrer.sol\":18672:18723  mstore(ERC1155_safeTransferFrom_data_length_ptr, 0) */\n      mstore\n        /* \"lib/TokenTransferrer.sol\":19012:19013  0 */\n      0x00\n        /* \"lib/TokenTransferrer.sol\":18993:18994  0 */\n      dup1\n        /* \"lib/TokenTransferrer.sol\":18944:18975  ERC1155_safeTransferFrom_length */\n      0xc4\n        /* \"lib/TokenTransferrer.sol\":18894:18926  ERC1155_safeTransferFrom_sig_ptr */\n      0x00\n        /* \"lib/TokenTransferrer.sol\":18875:18876  0 */\n      dup1\n        /* \"lib/TokenTransferrer.sol\":18852:18857  token */\n      dup14\n        /* \"lib/TokenTransferrer.sol\":18829:18834  gas() */\n      gas\n        /* \"lib/TokenTransferrer.sol\":18807:19027  call(... */\n      call\n        /* \"lib/TokenTransferrer.sol\":19092:19099  success */\n      dup1\n        /* \"lib/TokenTransferrer.sol\":19082:22355  if iszero(success) {... */\n      tag_127\n      jumpi\n        /* \"lib/TokenTransferrer.sol\":19243:19259  returndatasize() */\n      returndatasize\n        /* \"lib/TokenTransferrer.sol\":19240:21568  if returndatasize() {... */\n      iszero\n      tag_128\n      jumpi\n        /* \"lib/TokenTransferrer.sol\":19685:19692  OneWord */\n      0x20\n        /* \"lib/TokenTransferrer.sol\":19645:19658  AlmostOneWord */\n      0x1f\n        /* \"lib/TokenTransferrer.sol\":19627:19643  returndatasize() */\n      returndatasize\n        /* \"lib/TokenTransferrer.sol\":19623:19659  add(returndatasize(), AlmostOneWord) */\n      add\n        /* \"lib/TokenTransferrer.sol\":19594:19714  div(... */\n      div\n        /* \"lib/TokenTransferrer.sol\":19996:20003  OneWord */\n      0x20\n        /* \"lib/TokenTransferrer.sol\":19984:19994  memPointer */\n      dup7\n        /* \"lib/TokenTransferrer.sol\":19980:20004  div(memPointer, OneWord) */\n      div\n        /* \"lib/TokenTransferrer.sol\":20124:20139  returnDataWords */\n      dup2\n        /* \"lib/TokenTransferrer.sol\":20111:20122  CostPerWord */\n      0x03\n        /* \"lib/TokenTransferrer.sol\":20107:20140  mul(CostPerWord, returnDataWords) */\n      mul\n        /* \"lib/TokenTransferrer.sol\":20253:20263  msizeWords */\n      dup2\n        /* \"lib/TokenTransferrer.sol\":20236:20251  returnDataWords */\n      dup4\n        /* \"lib/TokenTransferrer.sol\":20233:20264  gt(returnDataWords, msizeWords) */\n      gt\n        /* \"lib/TokenTransferrer.sol\":20230:20999  if gt(returnDataWords, msizeWords) {... */\n      iszero\n      tag_129\n      jumpi\n        /* \"lib/TokenTransferrer.sol\":20861:20887  MemoryExpansionCoefficient */\n      0x0200\n        /* \"lib/TokenTransferrer.sol\":20774:20784  msizeWords */\n      dup3\n        /* \"lib/TokenTransferrer.sol\":20762:20772  msizeWords */\n      dup4\n        /* \"lib/TokenTransferrer.sol\":20758:20785  mul(msizeWords, msizeWords) */\n      mul\n        /* \"lib/TokenTransferrer.sol\":20700:20715  returnDataWords */\n      dup5\n        /* \"lib/TokenTransferrer.sol\":20683:20698  returnDataWords */\n      dup6\n        /* \"lib/TokenTransferrer.sol\":20679:20716  mul(returnDataWords, returnDataWords) */\n      mul\n        /* \"lib/TokenTransferrer.sol\":20634:20823  sub(... */\n      sub\n        /* \"lib/TokenTransferrer.sol\":20593:20921  div(... */\n      div\n        /* \"lib/TokenTransferrer.sol\":20514:20525  CostPerWord */\n      0x03\n        /* \"lib/TokenTransferrer.sol\":20465:20475  msizeWords */\n      dup4\n        /* \"lib/TokenTransferrer.sol\":20448:20463  returnDataWords */\n      dup6\n        /* \"lib/TokenTransferrer.sol\":20444:20476  sub(returnDataWords, msizeWords) */\n      sub\n        /* \"lib/TokenTransferrer.sol\":20403:20559  mul(... */\n      mul\n        /* \"lib/TokenTransferrer.sol\":20366:20951  add(... */\n      add\n        /* \"lib/TokenTransferrer.sol\":20332:20336  cost */\n      dup2\n        /* \"lib/TokenTransferrer.sol\":20299:20977  add(... */\n      add\n        /* \"lib/TokenTransferrer.sol\":20291:20977  cost := add(... */\n      swap1\n      pop\n        /* \"lib/TokenTransferrer.sol\":20230:20999  if gt(returnDataWords, msizeWords) {... */\n    tag_129:\n        /* \"lib/TokenTransferrer.sol\":21243:21248  gas() */\n      gas\n        /* \"lib/TokenTransferrer.sol\":21226:21240  ExtraGasBuffer */\n      0x20\n        /* \"lib/TokenTransferrer.sol\":21220:21224  cost */\n      dup3\n        /* \"lib/TokenTransferrer.sol\":21216:21241  add(cost, ExtraGasBuffer) */\n      add\n        /* \"lib/TokenTransferrer.sol\":21213:21249  lt(add(cost, ExtraGasBuffer), gas()) */\n      lt\n        /* \"lib/TokenTransferrer.sol\":21210:21550  if lt(add(cost, ExtraGasBuffer), gas()) {... */\n      iszero\n      tag_130\n      jumpi\n        /* \"lib/TokenTransferrer.sol\":21378:21394  returndatasize() */\n      returndatasize\n        /* \"lib/TokenTransferrer.sol\":21375:21376  0 */\n      0x00\n        /* \"lib/TokenTransferrer.sol\":21372:21373  0 */\n      dup1\n        /* \"lib/TokenTransferrer.sol\":21357:21395  returndatacopy(0, 0, returndatasize()) */\n      returndatacopy\n        /* \"lib/TokenTransferrer.sol\":21511:21527  returndatasize() */\n      returndatasize\n        /* \"lib/TokenTransferrer.sol\":21508:21509  0 */\n      0x00\n        /* \"lib/TokenTransferrer.sol\":21501:21528  revert(0, returndatasize()) */\n      revert\n        /* \"lib/TokenTransferrer.sol\":21210:21550  if lt(add(cost, ExtraGasBuffer), gas()) {... */\n    tag_130:\n        /* \"lib/TokenTransferrer.sol\":19260:21568  {... */\n      pop\n      pop\n      pop\n        /* \"lib/TokenTransferrer.sol\":19240:21568  if returndatasize() {... */\n    tag_128:\n        /* \"lib/TokenTransferrer.sol\":21743:21786  TokenTransferGenericFailure_error_signature */\n      0xf486bc8700000000000000000000000000000000000000000000000000000000\n        /* \"lib/TokenTransferrer.sol\":21680:21721  TokenTransferGenericFailure_error_sig_ptr */\n      0x00\n        /* \"lib/TokenTransferrer.sol\":21652:21804  mstore(... */\n      mstore\n        /* \"lib/TokenTransferrer.sol\":21873:21878  token */\n      dup10\n        /* \"lib/TokenTransferrer.sol\":21828:21871  TokenTransferGenericFailure_error_token_ptr */\n      0x04\n        /* \"lib/TokenTransferrer.sol\":21821:21879  mstore(TokenTransferGenericFailure_error_token_ptr, token) */\n      mstore\n        /* \"lib/TokenTransferrer.sol\":21947:21951  from */\n      dup9\n        /* \"lib/TokenTransferrer.sol\":21903:21945  TokenTransferGenericFailure_error_from_ptr */\n      0x24\n        /* \"lib/TokenTransferrer.sol\":21896:21952  mstore(TokenTransferGenericFailure_error_from_ptr, from) */\n      mstore\n        /* \"lib/TokenTransferrer.sol\":22018:22020  to */\n      dup8\n        /* \"lib/TokenTransferrer.sol\":21976:22016  TokenTransferGenericFailure_error_to_ptr */\n      0x44\n        /* \"lib/TokenTransferrer.sol\":21969:22021  mstore(TokenTransferGenericFailure_error_to_ptr, to) */\n      mstore\n        /* \"lib/TokenTransferrer.sol\":22087:22097  identifier */\n      dup7\n        /* \"lib/TokenTransferrer.sol\":22045:22085  TokenTransferGenericFailure_error_id_ptr */\n      0x64\n        /* \"lib/TokenTransferrer.sol\":22038:22098  mstore(TokenTransferGenericFailure_error_id_ptr, identifier) */\n      mstore\n        /* \"lib/TokenTransferrer.sol\":22168:22174  amount */\n      dup6\n        /* \"lib/TokenTransferrer.sol\":22122:22166  TokenTransferGenericFailure_error_amount_ptr */\n      0x84\n        /* \"lib/TokenTransferrer.sol\":22115:22175  mstore(TokenTransferGenericFailure_error_amount_ptr, amount) */\n      mstore\n        /* \"lib/TokenTransferrer.sol\":22283:22323  TokenTransferGenericFailure_error_length */\n      0xa4\n        /* \"lib/TokenTransferrer.sol\":22220:22261  TokenTransferGenericFailure_error_sig_ptr */\n      0x00\n        /* \"lib/TokenTransferrer.sol\":22192:22341  revert(... */\n      revert\n        /* \"lib/TokenTransferrer.sol\":19082:22355  if iszero(success) {... */\n    tag_127:\n        /* \"lib/TokenTransferrer.sol\":22386:22394  slot0x80 */\n      dup4\n        /* \"lib/TokenTransferrer.sol\":22376:22384  Slot0x80 */\n      0x80\n        /* \"lib/TokenTransferrer.sol\":22369:22395  mstore(Slot0x80, slot0x80) */\n      mstore\n        /* \"lib/TokenTransferrer.sol\":22447:22455  slot0xA0 */\n      dup3\n        /* \"lib/TokenTransferrer.sol\":22437:22445  Slot0xA0 */\n      0xa0\n        /* \"lib/TokenTransferrer.sol\":22430:22456  mstore(Slot0xA0, slot0xA0) */\n      mstore\n        /* \"lib/TokenTransferrer.sol\":22508:22516  slot0xC0 */\n      dup2\n        /* \"lib/TokenTransferrer.sol\":22498:22506  Slot0xC0 */\n      0xc0\n        /* \"lib/TokenTransferrer.sol\":22491:22517  mstore(Slot0xC0, slot0xC0) */\n      mstore\n        /* \"lib/TokenTransferrer.sol\":22640:22650  memPointer */\n      dup5\n        /* \"lib/TokenTransferrer.sol\":22617:22638  FreeMemoryPointerSlot */\n      0x40\n        /* \"lib/TokenTransferrer.sol\":22610:22651  mstore(FreeMemoryPointerSlot, memPointer) */\n      mstore\n        /* \"lib/TokenTransferrer.sol\":22728:22729  0 */\n      0x00\n        /* \"lib/TokenTransferrer.sol\":22718:22726  ZeroSlot */\n      0x60\n        /* \"lib/TokenTransferrer.sol\":22711:22730  mstore(ZeroSlot, 0) */\n      mstore\n        /* \"lib/TokenTransferrer.sol\":17386:22740  {... */\n      pop\n      pop\n      pop\n      pop\n      pop\n        /* \"lib/TokenTransferrer.sol\":17126:22746  function _performERC1155Transfer(... */\n      pop\n      pop\n      pop\n      pop\n      pop\n      jump\t// out\n        /* \"#utility.yul\":88:205   */\n    tag_132:\n        /* \"#utility.yul\":197:198   */\n      0x00\n        /* \"#utility.yul\":194:195   */\n      dup1\n        /* \"#utility.yul\":187:199   */\n      revert\n        /* \"#utility.yul\":211:328   */\n    tag_133:\n        /* \"#utility.yul\":320:321   */\n      0x00\n        /* \"#utility.yul\":317:318   */\n      dup1\n        /* \"#utility.yul\":310:322   */\n      revert\n        /* \"#utility.yul\":334:451   */\n    tag_134:\n        /* \"#utility.yul\":443:444   */\n      0x00\n        /* \"#utility.yul\":440:441   */\n      dup1\n        /* \"#utility.yul\":433:445   */\n      revert\n        /* \"#utility.yul\":457:574   */\n    tag_135:\n        /* \"#utility.yul\":566:567   */\n      0x00\n        /* \"#utility.yul\":563:564   */\n      dup1\n        /* \"#utility.yul\":556:568   */\n      revert\n        /* \"#utility.yul\":580:697   */\n    tag_136:\n        /* \"#utility.yul\":689:690   */\n      0x00\n        /* \"#utility.yul\":686:687   */\n      dup1\n        /* \"#utility.yul\":679:691   */\n      revert\n        /* \"#utility.yul\":735:1338   */\n    tag_137:\n        /* \"#utility.yul\":843:851   */\n      0x00\n        /* \"#utility.yul\":853:859   */\n      dup1\n        /* \"#utility.yul\":903:906   */\n      dup4\n        /* \"#utility.yul\":896:900   */\n      0x1f\n        /* \"#utility.yul\":888:894   */\n      dup5\n        /* \"#utility.yul\":884:901   */\n      add\n        /* \"#utility.yul\":880:907   */\n      slt\n        /* \"#utility.yul\":870:992   */\n      tag_160\n      jumpi\n        /* \"#utility.yul\":911:990   */\n      tag_161\n      tag_134\n      jump\t// in\n    tag_161:\n        /* \"#utility.yul\":870:992   */\n    tag_160:\n        /* \"#utility.yul\":1024:1030   */\n      dup3\n        /* \"#utility.yul\":1011:1031   */\n      calldataload\n        /* \"#utility.yul\":1001:1031   */\n      swap1\n      pop\n        /* \"#utility.yul\":1054:1072   */\n      0xffffffffffffffff\n        /* \"#utility.yul\":1046:1052   */\n      dup2\n        /* \"#utility.yul\":1043:1073   */\n      gt\n        /* \"#utility.yul\":1040:1157   */\n      iszero\n      tag_162\n      jumpi\n        /* \"#utility.yul\":1076:1155   */\n      tag_163\n      tag_135\n      jump\t// in\n    tag_163:\n        /* \"#utility.yul\":1040:1157   */\n    tag_162:\n        /* \"#utility.yul\":1190:1194   */\n      0x20\n        /* \"#utility.yul\":1182:1188   */\n      dup4\n        /* \"#utility.yul\":1178:1195   */\n      add\n        /* \"#utility.yul\":1166:1195   */\n      swap2\n      pop\n        /* \"#utility.yul\":1244:1247   */\n      dup4\n        /* \"#utility.yul\":1236:1240   */\n      0xc0\n        /* \"#utility.yul\":1228:1234   */\n      dup3\n        /* \"#utility.yul\":1224:1241   */\n      mul\n        /* \"#utility.yul\":1214:1222   */\n      dup4\n        /* \"#utility.yul\":1210:1242   */\n      add\n        /* \"#utility.yul\":1207:1248   */\n      gt\n        /* \"#utility.yul\":1204:1332   */\n      iszero\n      tag_164\n      jumpi\n        /* \"#utility.yul\":1251:1330   */\n      tag_165\n      tag_136\n      jump\t// in\n    tag_165:\n        /* \"#utility.yul\":1204:1332   */\n    tag_164:\n        /* \"#utility.yul\":735:1338   */\n      swap3\n      pop\n      swap3\n      swap1\n      pop\n      jump\t// out\n        /* \"#utility.yul\":1344:1973   */\n    tag_9:\n        /* \"#utility.yul\":1465:1471   */\n      0x00\n        /* \"#utility.yul\":1473:1479   */\n      dup1\n        /* \"#utility.yul\":1522:1524   */\n      0x20\n        /* \"#utility.yul\":1510:1519   */\n      dup4\n        /* \"#utility.yul\":1501:1508   */\n      dup6\n        /* \"#utility.yul\":1497:1520   */\n      sub\n        /* \"#utility.yul\":1493:1525   */\n      slt\n        /* \"#utility.yul\":1490:1609   */\n      iszero\n      tag_167\n      jumpi\n        /* \"#utility.yul\":1528:1607   */\n      tag_168\n      tag_132\n      jump\t// in\n    tag_168:\n        /* \"#utility.yul\":1490:1609   */\n    tag_167:\n        /* \"#utility.yul\":1676:1677   */\n      0x00\n        /* \"#utility.yul\":1665:1674   */\n      dup4\n        /* \"#utility.yul\":1661:1678   */\n      add\n        /* \"#utility.yul\":1648:1679   */\n      calldataload\n        /* \"#utility.yul\":1706:1724   */\n      0xffffffffffffffff\n        /* \"#utility.yul\":1698:1704   */\n      dup2\n        /* \"#utility.yul\":1695:1725   */\n      gt\n        /* \"#utility.yul\":1692:1809   */\n      iszero\n      tag_169\n      jumpi\n        /* \"#utility.yul\":1728:1807   */\n      tag_170\n      tag_133\n      jump\t// in\n    tag_170:\n        /* \"#utility.yul\":1692:1809   */\n    tag_169:\n        /* \"#utility.yul\":1841:1956   */\n      tag_171\n        /* \"#utility.yul\":1948:1955   */\n      dup6\n        /* \"#utility.yul\":1939:1945   */\n      dup3\n        /* \"#utility.yul\":1928:1937   */\n      dup7\n        /* \"#utility.yul\":1924:1946   */\n      add\n        /* \"#utility.yul\":1841:1956   */\n      tag_137\n      jump\t// in\n    tag_171:\n        /* \"#utility.yul\":1823:1956   */\n      swap3\n      pop\n      swap3\n      pop\n        /* \"#utility.yul\":1619:1966   */\n      pop\n        /* \"#utility.yul\":1344:1973   */\n      swap3\n      pop\n      swap3\n      swap1\n      pop\n      jump\t// out\n        /* \"#utility.yul\":1979:2128   */\n    tag_138:\n        /* \"#utility.yul\":2015:2022   */\n      0x00\n        /* \"#utility.yul\":2055:2121   */\n      0xffffffff00000000000000000000000000000000000000000000000000000000\n        /* \"#utility.yul\":2048:2053   */\n      dup3\n        /* \"#utility.yul\":2044:2122   */\n      and\n        /* \"#utility.yul\":2033:2122   */\n      swap1\n      pop\n        /* \"#utility.yul\":1979:2128   */\n      swap2\n      swap1\n      pop\n      jump\t// out\n        /* \"#utility.yul\":2134:2249   */\n    tag_139:\n        /* \"#utility.yul\":2219:2242   */\n      tag_174\n        /* \"#utility.yul\":2236:2241   */\n      dup2\n        /* \"#utility.yul\":2219:2242   */\n      tag_138\n      jump\t// in\n    tag_174:\n        /* \"#utility.yul\":2214:2217   */\n      dup3\n        /* \"#utility.yul\":2207:2243   */\n      mstore\n        /* \"#utility.yul\":2134:2249   */\n      pop\n      pop\n      jump\t// out\n        /* \"#utility.yul\":2255:2473   */\n    tag_12:\n        /* \"#utility.yul\":2346:2350   */\n      0x00\n        /* \"#utility.yul\":2384:2386   */\n      0x20\n        /* \"#utility.yul\":2373:2382   */\n      dup3\n        /* \"#utility.yul\":2369:2387   */\n      add\n        /* \"#utility.yul\":2361:2387   */\n      swap1\n      pop\n        /* \"#utility.yul\":2397:2466   */\n      tag_176\n        /* \"#utility.yul\":2463:2464   */\n      0x00\n        /* \"#utility.yul\":2452:2461   */\n      dup4\n        /* \"#utility.yul\":2448:2465   */\n      add\n        /* \"#utility.yul\":2439:2445   */\n      dup5\n        /* \"#utility.yul\":2397:2466   */\n      tag_139\n      jump\t// in\n    tag_176:\n        /* \"#utility.yul\":2255:2473   */\n      swap3\n      swap2\n      pop\n      pop\n      jump\t// out\n        /* \"#utility.yul\":2520:3132   */\n    tag_140:\n        /* \"#utility.yul\":2637:2645   */\n      0x00\n        /* \"#utility.yul\":2647:2653   */\n      dup1\n        /* \"#utility.yul\":2697:2700   */\n      dup4\n        /* \"#utility.yul\":2690:2694   */\n      0x1f\n        /* \"#utility.yul\":2682:2688   */\n      dup5\n        /* \"#utility.yul\":2678:2695   */\n      add\n        /* \"#utility.yul\":2674:2701   */\n      slt\n        /* \"#utility.yul\":2664:2786   */\n      tag_178\n      jumpi\n        /* \"#utility.yul\":2705:2784   */\n      tag_179\n      tag_134\n      jump\t// in\n    tag_179:\n        /* \"#utility.yul\":2664:2786   */\n    tag_178:\n        /* \"#utility.yul\":2818:2824   */\n      dup3\n        /* \"#utility.yul\":2805:2825   */\n      calldataload\n        /* \"#utility.yul\":2795:2825   */\n      swap1\n      pop\n        /* \"#utility.yul\":2848:2866   */\n      0xffffffffffffffff\n        /* \"#utility.yul\":2840:2846   */\n      dup2\n        /* \"#utility.yul\":2837:2867   */\n      gt\n        /* \"#utility.yul\":2834:2951   */\n      iszero\n      tag_180\n      jumpi\n        /* \"#utility.yul\":2870:2949   */\n      tag_181\n      tag_135\n      jump\t// in\n    tag_181:\n        /* \"#utility.yul\":2834:2951   */\n    tag_180:\n        /* \"#utility.yul\":2984:2988   */\n      0x20\n        /* \"#utility.yul\":2976:2982   */\n      dup4\n        /* \"#utility.yul\":2972:2989   */\n      add\n        /* \"#utility.yul\":2960:2989   */\n      swap2\n      pop\n        /* \"#utility.yul\":3038:3041   */\n      dup4\n        /* \"#utility.yul\":3030:3034   */\n      0x20\n        /* \"#utility.yul\":3022:3028   */\n      dup3\n        /* \"#utility.yul\":3018:3035   */\n      mul\n        /* \"#utility.yul\":3008:3016   */\n      dup4\n        /* \"#utility.yul\":3004:3036   */\n      add\n        /* \"#utility.yul\":3001:3042   */\n      gt\n        /* \"#utility.yul\":2998:3126   */\n      iszero\n      tag_182\n      jumpi\n        /* \"#utility.yul\":3045:3124   */\n      tag_183\n      tag_136\n      jump\t// in\n    tag_183:\n        /* \"#utility.yul\":2998:3126   */\n    tag_182:\n        /* \"#utility.yul\":2520:3132   */\n      swap3\n      pop\n      swap3\n      swap1\n      pop\n      jump\t// out\n        /* \"#utility.yul\":3138:4230   */\n    tag_15:\n        /* \"#utility.yul\":3339:3345   */\n      0x00\n        /* \"#utility.yul\":3347:3353   */\n      dup1\n        /* \"#utility.yul\":3355:3361   */\n      0x00\n        /* \"#utility.yul\":3363:3369   */\n      dup1\n        /* \"#utility.yul\":3412:3414   */\n      0x40\n        /* \"#utility.yul\":3400:3409   */\n      dup6\n        /* \"#utility.yul\":3391:3398   */\n      dup8\n        /* \"#utility.yul\":3387:3410   */\n      sub\n        /* \"#utility.yul\":3383:3415   */\n      slt\n        /* \"#utility.yul\":3380:3499   */\n      iszero\n      tag_185\n      jumpi\n        /* \"#utility.yul\":3418:3497   */\n      tag_186\n      tag_132\n      jump\t// in\n    tag_186:\n        /* \"#utility.yul\":3380:3499   */\n    tag_185:\n        /* \"#utility.yul\":3566:3567   */\n      0x00\n        /* \"#utility.yul\":3555:3564   */\n      dup6\n        /* \"#utility.yul\":3551:3568   */\n      add\n        /* \"#utility.yul\":3538:3569   */\n      calldataload\n        /* \"#utility.yul\":3596:3614   */\n      0xffffffffffffffff\n        /* \"#utility.yul\":3588:3594   */\n      dup2\n        /* \"#utility.yul\":3585:3615   */\n      gt\n        /* \"#utility.yul\":3582:3699   */\n      iszero\n      tag_187\n      jumpi\n        /* \"#utility.yul\":3618:3697   */\n      tag_188\n      tag_133\n      jump\t// in\n    tag_188:\n        /* \"#utility.yul\":3582:3699   */\n    tag_187:\n        /* \"#utility.yul\":3731:3846   */\n      tag_189\n        /* \"#utility.yul\":3838:3845   */\n      dup8\n        /* \"#utility.yul\":3829:3835   */\n      dup3\n        /* \"#utility.yul\":3818:3827   */\n      dup9\n        /* \"#utility.yul\":3814:3836   */\n      add\n        /* \"#utility.yul\":3731:3846   */\n      tag_137\n      jump\t// in\n    tag_189:\n        /* \"#utility.yul\":3713:3846   */\n      swap5\n      pop\n      swap5\n      pop\n        /* \"#utility.yul\":3509:3856   */\n      pop\n        /* \"#utility.yul\":3923:3925   */\n      0x20\n        /* \"#utility.yul\":3912:3921   */\n      dup6\n        /* \"#utility.yul\":3908:3926   */\n      add\n        /* \"#utility.yul\":3895:3927   */\n      calldataload\n        /* \"#utility.yul\":3954:3972   */\n      0xffffffffffffffff\n        /* \"#utility.yul\":3946:3952   */\n      dup2\n        /* \"#utility.yul\":3943:3973   */\n      gt\n        /* \"#utility.yul\":3940:4057   */\n      iszero\n      tag_190\n      jumpi\n        /* \"#utility.yul\":3976:4055   */\n      tag_191\n      tag_133\n      jump\t// in\n    tag_191:\n        /* \"#utility.yul\":3940:4057   */\n    tag_190:\n        /* \"#utility.yul\":4089:4213   */\n      tag_192\n        /* \"#utility.yul\":4205:4212   */\n      dup8\n        /* \"#utility.yul\":4196:4202   */\n      dup3\n        /* \"#utility.yul\":4185:4194   */\n      dup9\n        /* \"#utility.yul\":4181:4203   */\n      add\n        /* \"#utility.yul\":4089:4213   */\n      tag_140\n      jump\t// in\n    tag_192:\n        /* \"#utility.yul\":4071:4213   */\n      swap3\n      pop\n      swap3\n      pop\n        /* \"#utility.yul\":3866:4223   */\n      pop\n        /* \"#utility.yul\":3138:4230   */\n      swap3\n      swap6\n      swap2\n      swap5\n      pop\n      swap3\n      pop\n      jump\t// out\n        /* \"#utility.yul\":4236:4883   */\n    tag_20:\n        /* \"#utility.yul\":4366:4372   */\n      0x00\n        /* \"#utility.yul\":4374:4380   */\n      dup1\n        /* \"#utility.yul\":4423:4425   */\n      0x20\n        /* \"#utility.yul\":4411:4420   */\n      dup4\n        /* \"#utility.yul\":4402:4409   */\n      dup6\n        /* \"#utility.yul\":4398:4421   */\n      sub\n        /* \"#utility.yul\":4394:4426   */\n      slt\n        /* \"#utility.yul\":4391:4510   */\n      iszero\n      tag_194\n      jumpi\n        /* \"#utility.yul\":4429:4508   */\n      tag_195\n      tag_132\n      jump\t// in\n    tag_195:\n        /* \"#utility.yul\":4391:4510   */\n    tag_194:\n        /* \"#utility.yul\":4577:4578   */\n      0x00\n        /* \"#utility.yul\":4566:4575   */\n      dup4\n        /* \"#utility.yul\":4562:4579   */\n      add\n        /* \"#utility.yul\":4549:4580   */\n      calldataload\n        /* \"#utility.yul\":4607:4625   */\n      0xffffffffffffffff\n        /* \"#utility.yul\":4599:4605   */\n      dup2\n        /* \"#utility.yul\":4596:4626   */\n      gt\n        /* \"#utility.yul\":4593:4710   */\n      iszero\n      tag_196\n      jumpi\n        /* \"#utility.yul\":4629:4708   */\n      tag_197\n      tag_133\n      jump\t// in\n    tag_197:\n        /* \"#utility.yul\":4593:4710   */\n    tag_196:\n        /* \"#utility.yul\":4742:4866   */\n      tag_198\n        /* \"#utility.yul\":4858:4865   */\n      dup6\n        /* \"#utility.yul\":4849:4855   */\n      dup3\n        /* \"#utility.yul\":4838:4847   */\n      dup7\n        /* \"#utility.yul\":4834:4856   */\n      add\n        /* \"#utility.yul\":4742:4866   */\n      tag_140\n      jump\t// in\n    tag_198:\n        /* \"#utility.yul\":4724:4866   */\n      swap3\n      pop\n      swap3\n      pop\n        /* \"#utility.yul\":4520:4876   */\n      pop\n        /* \"#utility.yul\":4236:4883   */\n      swap3\n      pop\n      swap3\n      swap1\n      pop\n      jump\t// out\n        /* \"#utility.yul\":4889:5015   */\n    tag_141:\n        /* \"#utility.yul\":4926:4933   */\n      0x00\n        /* \"#utility.yul\":4966:5008   */\n      0xffffffffffffffffffffffffffffffffffffffff\n        /* \"#utility.yul\":4959:4964   */\n      dup3\n        /* \"#utility.yul\":4955:5009   */\n      and\n        /* \"#utility.yul\":4944:5009   */\n      swap1\n      pop\n        /* \"#utility.yul\":4889:5015   */\n      swap2\n      swap1\n      pop\n      jump\t// out\n        /* \"#utility.yul\":5021:5117   */\n    tag_142:\n        /* \"#utility.yul\":5058:5065   */\n      0x00\n        /* \"#utility.yul\":5087:5111   */\n      tag_201\n        /* \"#utility.yul\":5105:5110   */\n      dup3\n        /* \"#utility.yul\":5087:5111   */\n      tag_141\n      jump\t// in\n    tag_201:\n        /* \"#utility.yul\":5076:5111   */\n      swap1\n      pop\n        /* \"#utility.yul\":5021:5117   */\n      swap2\n      swap1\n      pop\n      jump\t// out\n        /* \"#utility.yul\":5123:5245   */\n    tag_143:\n        /* \"#utility.yul\":5196:5220   */\n      tag_203\n        /* \"#utility.yul\":5214:5219   */\n      dup2\n        /* \"#utility.yul\":5196:5220   */\n      tag_142\n      jump\t// in\n    tag_203:\n        /* \"#utility.yul\":5189:5194   */\n      dup2\n        /* \"#utility.yul\":5186:5221   */\n      eq\n        /* \"#utility.yul\":5176:5239   */\n      tag_204\n      jumpi\n        /* \"#utility.yul\":5235:5236   */\n      0x00\n        /* \"#utility.yul\":5232:5233   */\n      dup1\n        /* \"#utility.yul\":5225:5237   */\n      revert\n        /* \"#utility.yul\":5176:5239   */\n    tag_204:\n        /* \"#utility.yul\":5123:5245   */\n      pop\n      jump\t// out\n        /* \"#utility.yul\":5251:5390   */\n    tag_144:\n        /* \"#utility.yul\":5297:5302   */\n      0x00\n        /* \"#utility.yul\":5335:5341   */\n      dup2\n        /* \"#utility.yul\":5322:5342   */\n      calldataload\n        /* \"#utility.yul\":5313:5342   */\n      swap1\n      pop\n        /* \"#utility.yul\":5351:5384   */\n      tag_206\n        /* \"#utility.yul\":5378:5383   */\n      dup2\n        /* \"#utility.yul\":5351:5384   */\n      tag_143\n      jump\t// in\n    tag_206:\n        /* \"#utility.yul\":5251:5390   */\n      swap3\n      swap2\n      pop\n      pop\n      jump\t// out\n        /* \"#utility.yul\":5396:5486   */\n    tag_145:\n        /* \"#utility.yul\":5430:5437   */\n      0x00\n        /* \"#utility.yul\":5473:5478   */\n      dup2\n        /* \"#utility.yul\":5466:5479   */\n      iszero\n        /* \"#utility.yul\":5459:5480   */\n      iszero\n        /* \"#utility.yul\":5448:5480   */\n      swap1\n      pop\n        /* \"#utility.yul\":5396:5486   */\n      swap2\n      swap1\n      pop\n      jump\t// out\n        /* \"#utility.yul\":5492:5608   */\n    tag_146:\n        /* \"#utility.yul\":5562:5583   */\n      tag_209\n        /* \"#utility.yul\":5577:5582   */\n      dup2\n        /* \"#utility.yul\":5562:5583   */\n      tag_145\n      jump\t// in\n    tag_209:\n        /* \"#utility.yul\":5555:5560   */\n      dup2\n        /* \"#utility.yul\":5552:5584   */\n      eq\n        /* \"#utility.yul\":5542:5602   */\n      tag_210\n      jumpi\n        /* \"#utility.yul\":5598:5599   */\n      0x00\n        /* \"#utility.yul\":5595:5596   */\n      dup1\n        /* \"#utility.yul\":5588:5600   */\n      revert\n        /* \"#utility.yul\":5542:5602   */\n    tag_210:\n        /* \"#utility.yul\":5492:5608   */\n      pop\n      jump\t// out\n        /* \"#utility.yul\":5614:5747   */\n    tag_147:\n        /* \"#utility.yul\":5657:5662   */\n      0x00\n        /* \"#utility.yul\":5695:5701   */\n      dup2\n        /* \"#utility.yul\":5682:5702   */\n      calldataload\n        /* \"#utility.yul\":5673:5702   */\n      swap1\n      pop\n        /* \"#utility.yul\":5711:5741   */\n      tag_212\n        /* \"#utility.yul\":5735:5740   */\n      dup2\n        /* \"#utility.yul\":5711:5741   */\n      tag_146\n      jump\t// in\n    tag_212:\n        /* \"#utility.yul\":5614:5747   */\n      swap3\n      swap2\n      pop\n      pop\n      jump\t// out\n        /* \"#utility.yul\":5753:6221   */\n    tag_25:\n        /* \"#utility.yul\":5818:5824   */\n      0x00\n        /* \"#utility.yul\":5826:5832   */\n      dup1\n        /* \"#utility.yul\":5875:5877   */\n      0x40\n        /* \"#utility.yul\":5863:5872   */\n      dup4\n        /* \"#utility.yul\":5854:5861   */\n      dup6\n        /* \"#utility.yul\":5850:5873   */\n      sub\n        /* \"#utility.yul\":5846:5878   */\n      slt\n        /* \"#utility.yul\":5843:5962   */\n      iszero\n      tag_214\n      jumpi\n        /* \"#utility.yul\":5881:5960   */\n      tag_215\n      tag_132\n      jump\t// in\n    tag_215:\n        /* \"#utility.yul\":5843:5962   */\n    tag_214:\n        /* \"#utility.yul\":6001:6002   */\n      0x00\n        /* \"#utility.yul\":6026:6079   */\n      tag_216\n        /* \"#utility.yul\":6071:6078   */\n      dup6\n        /* \"#utility.yul\":6062:6068   */\n      dup3\n        /* \"#utility.yul\":6051:6060   */\n      dup7\n        /* \"#utility.yul\":6047:6069   */\n      add\n        /* \"#utility.yul\":6026:6079   */\n      tag_144\n      jump\t// in\n    tag_216:\n        /* \"#utility.yul\":6016:6079   */\n      swap3\n      pop\n        /* \"#utility.yul\":5972:6089   */\n      pop\n        /* \"#utility.yul\":6128:6130   */\n      0x20\n        /* \"#utility.yul\":6154:6204   */\n      tag_217\n        /* \"#utility.yul\":6196:6203   */\n      dup6\n        /* \"#utility.yul\":6187:6193   */\n      dup3\n        /* \"#utility.yul\":6176:6185   */\n      dup7\n        /* \"#utility.yul\":6172:6194   */\n      add\n        /* \"#utility.yul\":6154:6204   */\n      tag_147\n      jump\t// in\n    tag_217:\n        /* \"#utility.yul\":6144:6204   */\n      swap2\n      pop\n        /* \"#utility.yul\":6099:6214   */\n      pop\n        /* \"#utility.yul\":5753:6221   */\n      swap3\n      pop\n      swap3\n      swap1\n      pop\n      jump\t// out\n        /* \"#utility.yul\":6227:6407   */\n    tag_36:\n        /* \"#utility.yul\":6275:6352   */\n      0x4e487b7100000000000000000000000000000000000000000000000000000000\n        /* \"#utility.yul\":6272:6273   */\n      0x00\n        /* \"#utility.yul\":6265:6353   */\n      mstore\n        /* \"#utility.yul\":6372:6376   */\n      0x32\n        /* \"#utility.yul\":6369:6370   */\n      0x04\n        /* \"#utility.yul\":6362:6377   */\n      mstore\n        /* \"#utility.yul\":6396:6400   */\n      0x24\n        /* \"#utility.yul\":6393:6394   */\n      0x00\n        /* \"#utility.yul\":6386:6401   */\n      revert\n        /* \"#utility.yul\":6413:6531   */\n    tag_148:\n        /* \"#utility.yul\":6500:6524   */\n      tag_220\n        /* \"#utility.yul\":6518:6523   */\n      dup2\n        /* \"#utility.yul\":6500:6524   */\n      tag_142\n      jump\t// in\n    tag_220:\n        /* \"#utility.yul\":6495:6498   */\n      dup3\n        /* \"#utility.yul\":6488:6525   */\n      mstore\n        /* \"#utility.yul\":6413:6531   */\n      pop\n      pop\n      jump\t// out\n        /* \"#utility.yul\":6537:6646   */\n    tag_149:\n        /* \"#utility.yul\":6618:6639   */\n      tag_222\n        /* \"#utility.yul\":6633:6638   */\n      dup2\n        /* \"#utility.yul\":6618:6639   */\n      tag_145\n      jump\t// in\n    tag_222:\n        /* \"#utility.yul\":6613:6616   */\n      dup3\n        /* \"#utility.yul\":6606:6640   */\n      mstore\n        /* \"#utility.yul\":6537:6646   */\n      pop\n      pop\n      jump\t// out\n        /* \"#utility.yul\":6652:6972   */\n    tag_57:\n        /* \"#utility.yul\":6767:6771   */\n      0x00\n        /* \"#utility.yul\":6805:6807   */\n      0x40\n        /* \"#utility.yul\":6794:6803   */\n      dup3\n        /* \"#utility.yul\":6790:6808   */\n      add\n        /* \"#utility.yul\":6782:6808   */\n      swap1\n      pop\n        /* \"#utility.yul\":6818:6889   */\n      tag_224\n        /* \"#utility.yul\":6886:6887   */\n      0x00\n        /* \"#utility.yul\":6875:6884   */\n      dup4\n        /* \"#utility.yul\":6871:6888   */\n      add\n        /* \"#utility.yul\":6862:6868   */\n      dup6\n        /* \"#utility.yul\":6818:6889   */\n      tag_148\n      jump\t// in\n    tag_224:\n        /* \"#utility.yul\":6899:6965   */\n      tag_225\n        /* \"#utility.yul\":6961:6963   */\n      0x20\n        /* \"#utility.yul\":6950:6959   */\n      dup4\n        /* \"#utility.yul\":6946:6964   */\n      add\n        /* \"#utility.yul\":6937:6943   */\n      dup5\n        /* \"#utility.yul\":6899:6965   */\n      tag_149\n      jump\t// in\n    tag_225:\n        /* \"#utility.yul\":6652:6972   */\n      swap4\n      swap3\n      pop\n      pop\n      pop\n      jump\t// out\n        /* \"#utility.yul\":6978:7188   */\n    tag_59:\n        /* \"#utility.yul\":7065:7069   */\n      0x00\n        /* \"#utility.yul\":7103:7105   */\n      0x20\n        /* \"#utility.yul\":7092:7101   */\n      dup3\n        /* \"#utility.yul\":7088:7106   */\n      add\n        /* \"#utility.yul\":7080:7106   */\n      swap1\n      pop\n        /* \"#utility.yul\":7116:7181   */\n      tag_227\n        /* \"#utility.yul\":7178:7179   */\n      0x00\n        /* \"#utility.yul\":7167:7176   */\n      dup4\n        /* \"#utility.yul\":7163:7180   */\n      add\n        /* \"#utility.yul\":7154:7160   */\n      dup5\n        /* \"#utility.yul\":7116:7181   */\n      tag_149\n      jump\t// in\n    tag_227:\n        /* \"#utility.yul\":6978:7188   */\n      swap3\n      swap2\n      pop\n      pop\n      jump\t// out\n        /* \"#utility.yul\":7194:7374   */\n    tag_63:\n        /* \"#utility.yul\":7242:7319   */\n      0x4e487b7100000000000000000000000000000000000000000000000000000000\n        /* \"#utility.yul\":7239:7240   */\n      0x00\n        /* \"#utility.yul\":7232:7320   */\n      mstore\n        /* \"#utility.yul\":7339:7343   */\n      0x21\n        /* \"#utility.yul\":7336:7337   */\n      0x04\n        /* \"#utility.yul\":7329:7344   */\n      mstore\n        /* \"#utility.yul\":7363:7367   */\n      0x24\n        /* \"#utility.yul\":7360:7361   */\n      0x00\n        /* \"#utility.yul\":7353:7368   */\n      revert\n        /* \"#utility.yul\":7380:7499   */\n    tag_150:\n        /* \"#utility.yul\":7473:7474   */\n      0x04\n        /* \"#utility.yul\":7466:7471   */\n      dup2\n        /* \"#utility.yul\":7463:7475   */\n      lt\n        /* \"#utility.yul\":7453:7493   */\n      tag_230\n      jumpi\n        /* \"#utility.yul\":7489:7490   */\n      0x00\n        /* \"#utility.yul\":7486:7487   */\n      dup1\n        /* \"#utility.yul\":7479:7491   */\n      revert\n        /* \"#utility.yul\":7453:7493   */\n    tag_230:\n        /* \"#utility.yul\":7380:7499   */\n      pop\n      jump\t// out\n        /* \"#utility.yul\":7505:7684   */\n    tag_151:\n        /* \"#utility.yul\":7571:7576   */\n      0x00\n        /* \"#utility.yul\":7609:7615   */\n      dup2\n        /* \"#utility.yul\":7596:7616   */\n      calldataload\n        /* \"#utility.yul\":7587:7616   */\n      swap1\n      pop\n        /* \"#utility.yul\":7625:7678   */\n      tag_232\n        /* \"#utility.yul\":7672:7677   */\n      dup2\n        /* \"#utility.yul\":7625:7678   */\n      tag_150\n      jump\t// in\n    tag_232:\n        /* \"#utility.yul\":7505:7684   */\n      swap3\n      swap2\n      pop\n      pop\n      jump\t// out\n        /* \"#utility.yul\":7690:8059   */\n    tag_65:\n        /* \"#utility.yul\":7769:7775   */\n      0x00\n        /* \"#utility.yul\":7818:7820   */\n      0x20\n        /* \"#utility.yul\":7806:7815   */\n      dup3\n        /* \"#utility.yul\":7797:7804   */\n      dup5\n        /* \"#utility.yul\":7793:7816   */\n      sub\n        /* \"#utility.yul\":7789:7821   */\n      slt\n        /* \"#utility.yul\":7786:7905   */\n      iszero\n      tag_234\n      jumpi\n        /* \"#utility.yul\":7824:7903   */\n      tag_235\n      tag_132\n      jump\t// in\n    tag_235:\n        /* \"#utility.yul\":7786:7905   */\n    tag_234:\n        /* \"#utility.yul\":7944:7945   */\n      0x00\n        /* \"#utility.yul\":7969:8042   */\n      tag_236\n        /* \"#utility.yul\":8034:8041   */\n      dup5\n        /* \"#utility.yul\":8025:8031   */\n      dup3\n        /* \"#utility.yul\":8014:8023   */\n      dup6\n        /* \"#utility.yul\":8010:8032   */\n      add\n        /* \"#utility.yul\":7969:8042   */\n      tag_151\n      jump\t// in\n    tag_236:\n        /* \"#utility.yul\":7959:8042   */\n      swap2\n      pop\n        /* \"#utility.yul\":7915:8052   */\n      pop\n        /* \"#utility.yul\":7690:8059   */\n      swap3\n      swap2\n      pop\n      pop\n      jump\t// out\n        /* \"#utility.yul\":8065:8394   */\n    tag_71:\n        /* \"#utility.yul\":8124:8130   */\n      0x00\n        /* \"#utility.yul\":8173:8175   */\n      0x20\n        /* \"#utility.yul\":8161:8170   */\n      dup3\n        /* \"#utility.yul\":8152:8159   */\n      dup5\n        /* \"#utility.yul\":8148:8171   */\n      sub\n        /* \"#utility.yul\":8144:8176   */\n      slt\n        /* \"#utility.yul\":8141:8260   */\n      iszero\n      tag_238\n      jumpi\n        /* \"#utility.yul\":8179:8258   */\n      tag_239\n      tag_132\n      jump\t// in\n    tag_239:\n        /* \"#utility.yul\":8141:8260   */\n    tag_238:\n        /* \"#utility.yul\":8299:8300   */\n      0x00\n        /* \"#utility.yul\":8324:8377   */\n      tag_240\n        /* \"#utility.yul\":8369:8376   */\n      dup5\n        /* \"#utility.yul\":8360:8366   */\n      dup3\n        /* \"#utility.yul\":8349:8358   */\n      dup6\n        /* \"#utility.yul\":8345:8367   */\n      add\n        /* \"#utility.yul\":8324:8377   */\n      tag_144\n      jump\t// in\n    tag_240:\n        /* \"#utility.yul\":8314:8377   */\n      swap2\n      pop\n        /* \"#utility.yul\":8270:8387   */\n      pop\n        /* \"#utility.yul\":8065:8394   */\n      swap3\n      swap2\n      pop\n      pop\n      jump\t// out\n\n    auxdata: 0xa26469706673582212205136924f4dbbfe79561a1fc04e45947433c8fcba59787ffd458bb59436aa022264736f6c63430008110033\n}\n",
				"bytecode": {
					"linkReferences": {},
					"object": "60a060405234801561001057600080fd5b503373ffffffffffffffffffffffffffffffffffffffff1660808173ffffffffffffffffffffffffffffffffffffffff168152505060805161104e6100606000396000610290015261104e6000f3fe608060405234801561001057600080fd5b506004361061004c5760003560e01c80634ce34aa214610051578063899e104c146100815780638df25d92146100b1578063c4e8fcb5146100e1575b600080fd5b61006b60048036038101906100669190610c3c565b6100fd565b6040516100789190610cc4565b60405180910390f35b61009b60048036038101906100969190610d35565b610191565b6040516100a89190610cc4565b60405180910390f35b6100cb60048036038101906100c69190610db6565b610231565b6040516100d89190610cc4565b60405180910390f35b6100fb60048036038101906100f69190610e99565b61028e565b005b6000336000526000602052604060002054610140577f93daadf2000000000000000000000000000000000000000000000000000000006000523360045260246000fd5b600083839050905060005b8181101561017f5761017485858381811061016957610168610ed9565b5b905060c00201610450565b80600101905061014b565b50634ce34aa260e01b91505092915050565b60003360005260006020526040600020546101d4577f93daadf2000000000000000000000000000000000000000000000000000000006000523360045260246000fd5b600085859050905060005b81811015610213576102088787838181106101fd576101fc610ed9565b5b905060c00201610450565b8060010190506101df565b5061021e8484610664565b63899e104c60e01b915050949350505050565b6000336000526000602052604060002054610274577f93daadf2000000000000000000000000000000000000000000000000000000006000523360045260246000fd5b61027e8383610664565b638df25d9260e01b905092915050565b7f000000000000000000000000000000000000000000000000000000000000000073ffffffffffffffffffffffffffffffffffffffff163373ffffffffffffffffffffffffffffffffffffffff1614610313576040517f6d5769be00000000000000000000000000000000000000000000000000000000815260040160405180910390fd5b8015156000808473ffffffffffffffffffffffffffffffffffffffff1673ffffffffffffffffffffffffffffffffffffffff16815260200190815260200160002060009054906101000a900460ff161515036103a85781816040517f924e341e00000000000000000000000000000000000000000000000000000000815260040161039f929190610f26565b60405180910390fd5b806000808473ffffffffffffffffffffffffffffffffffffffff1673ffffffffffffffffffffffffffffffffffffffff16815260200190815260200160002060006101000a81548160ff0219169083151502179055508173ffffffffffffffffffffffffffffffffffffffff167fae63067d43ac07563b7eb8db6595635fc77f1578a2a5ea06ba91b63e2afa37e2826040516104449190610f4f565b60405180910390a25050565b6001600381111561046457610463610f6a565b5b8160000160208101906104779190610fbe565b600381111561048957610488610f6a565b5b036104d9576104d48160200160208101906104a49190610feb565b8260400160208101906104b79190610feb565b8360600160208101906104ca9190610feb565b8460a0013561080c565b610661565b600260038111156104ed576104ec610f6a565b5b8160000160208101906105009190610fbe565b600381111561051257610511610f6a565b5b036105a05760018160a0013514610555576040517fefcc00b100000000000000000000000000000000000000000000000000000000815260040160405180910390fd5b61059b81602001602081019061056b9190610feb565b82604001602081019061057e9190610feb565b8360600160208101906105919190610feb565b846080013561097f565b610660565b6003808111156105b3576105b2610f6a565b5b8160000160208101906105c69190610fbe565b60038111156105d8576105d7610f6a565b5b0361062d576106288160200160208101906105f39190610feb565b8260400160208101906106069190610feb565b8360600160208101906106199190610feb565b84608001358560a00135610a93565b61065f565b6040517f7932f1fc00000000000000000000000000000000000000000000000000000000815260040160405180910390fd5b5b5b50565b8082807f2eb2c2d60000000000000000000000000000000000000000000000000000000060205260005b838110156107ff57823582018035803b6106d0577f5f15d672000000000000000000000000000000000000000000000000000000006000528060045260246000fd5b60a08201356020810260c0018060808501351460a06060860135141681850135831416158015610724577feba2084c0000000000000000000000000000000000000000000000000000000060005260046000fd5b602088019750608060208601602437604083026040018060a00160a45260008160c401528060c4018160a0880160c43760008082602060008a5af1806107ec573d156107b1576020601f3d010460208304816003028183111561079857610200828302848502030460038385030201810190505b5a6020820110156107ad573d6000803e3d6000fd5b5050505b7fafc445e2000000000000000000000000000000000000000000000000000000006000528660045260c0606452608451602001608452816000fd5b505050505050505060018101905061068e565b5060806040525050505050565b6040517f23b872dd00000000000000000000000000000000000000000000000000000000600052836004528260245281604452602060006064600080895af1803d15601f3d116001600051141617163d1515811661096d5780873b15151661096c578061093e5781610904573d156108c5576020601f3d01046020840481600302818311156108ac57610200828302848502030460038385030201810190505b5a6020820110156108c1573d6000803e3d6000fd5b5050505b7ff486bc870000000000000000000000000000000000000000000000000000000060005286600452856024528460445260006064528360845260a46000fd5b7f98891923000000000000000000000000000000000000000000000000000000006000528660045285602452846044528360645260846000fd5b7f5f15d672000000000000000000000000000000000000000000000000000000006000528660045260246000fd5b5b82604052600060605250505050505050565b833b6109b3577f5f15d672000000000000000000000000000000000000000000000000000000006000528360045260246000fd5b6040517f23b872dd000000000000000000000000000000000000000000000000000000006000528360045282602452816044526000806064600080895af180610a82573d15610a43576020601f3d0104602083048160030281831115610a2a57610200828302848502030460038385030201810190505b5a602082011015610a3f573d6000803e3d6000fd5b5050505b7ff486bc870000000000000000000000000000000000000000000000000000000060005285600452846024528360445282606452600160845260a46000fd5b816040526000606052505050505050565b843b610ac7577f5f15d672000000000000000000000000000000000000000000000000000000006000528460045260246000fd5b60405160805160a05160c0517ff242432a000000000000000000000000000000000000000000000000000000006000528760045286602452856044528460645260a0608452600060a45260008060c46000808d5af180610bac573d15610b6e576020601f3d0104602086048160030281831115610b5557610200828302848502030460038385030201810190505b5a602082011015610b6a573d6000803e3d6000fd5b5050505b7ff486bc8700000000000000000000000000000000000000000000000000000000600052896004528860245287604452866064528560845260a46000fd5b836080528260a0528160c05284604052600060605250505050505050505050565b600080fd5b600080fd5b600080fd5b600080fd5b600080fd5b60008083601f840112610bfc57610bfb610bd7565b5b8235905067ffffffffffffffff811115610c1957610c18610bdc565b5b6020830191508360c0820283011115610c3557610c34610be1565b5b9250929050565b60008060208385031215610c5357610c52610bcd565b5b600083013567ffffffffffffffff811115610c7157610c70610bd2565b5b610c7d85828601610be6565b92509250509250929050565b60007fffffffff0000000000000000000000000000000000000000000000000000000082169050919050565b610cbe81610c89565b82525050565b6000602082019050610cd96000830184610cb5565b92915050565b60008083601f840112610cf557610cf4610bd7565b5b8235905067ffffffffffffffff811115610d1257610d11610bdc565b5b602083019150836020820283011115610d2e57610d2d610be1565b5b9250929050565b60008060008060408587031215610d4f57610d4e610bcd565b5b600085013567ffffffffffffffff811115610d6d57610d6c610bd2565b5b610d7987828801610be6565b9450945050602085013567ffffffffffffffff811115610d9c57610d9b610bd2565b5b610da887828801610cdf565b925092505092959194509250565b60008060208385031215610dcd57610dcc610bcd565b5b600083013567ffffffffffffffff811115610deb57610dea610bd2565b5b610df785828601610cdf565b92509250509250929050565b600073ffffffffffffffffffffffffffffffffffffffff82169050919050565b6000610e2e82610e03565b9050919050565b610e3e81610e23565b8114610e4957600080fd5b50565b600081359050610e5b81610e35565b92915050565b60008115159050919050565b610e7681610e61565b8114610e8157600080fd5b50565b600081359050610e9381610e6d565b92915050565b60008060408385031215610eb057610eaf610bcd565b5b6000610ebe85828601610e4c565b9250506020610ecf85828601610e84565b9150509250929050565b7f4e487b7100000000000000000000000000000000000000000000000000000000600052603260045260246000fd5b610f1181610e23565b82525050565b610f2081610e61565b82525050565b6000604082019050610f3b6000830185610f08565b610f486020830184610f17565b9392505050565b6000602082019050610f646000830184610f17565b92915050565b7f4e487b7100000000000000000000000000000000000000000000000000000000600052602160045260246000fd5b60048110610fa657600080fd5b50565b600081359050610fb881610f99565b92915050565b600060208284031215610fd457610fd3610bcd565b5b6000610fe284828501610fa9565b91505092915050565b60006020828403121561100157611000610bcd565b5b600061100f84828501610e4c565b9150509291505056fea26469706673582212205136924f4dbbfe79561a1fc04e45947433c8fcba59787ffd458bb59436aa022264736f6c63430008110033",
					"opcodes": "PUSH1 0xA0 PUSH1 0x40 MSTORE CALLVALUE DUP1 ISZERO PUSH2 0x10 JUMPI PUSH1 0x0 DUP1 REVERT JUMPDEST POP CALLER PUSH20 0xFFFFFFFFFFFFFFFFFFFFFFFFFFFFFFFFFFFFFFFF AND PUSH1 0x80 DUP2 PUSH20 0xFFFFFFFFFFFFFFFFFFFFFFFFFFFFFFFFFFFFFFFF AND DUP2 MSTORE POP POP PUSH1 0x80 MLOAD PUSH2 0x104E PUSH2 0x60 PUSH1 0x0 CODECOPY PUSH1 0x0 PUSH2 0x290 ADD MSTORE PUSH2 0x104E PUSH1 0x0 RETURN INVALID PUSH1 0x80 PUSH1 0x40 MSTORE CALLVALUE DUP1 ISZERO PUSH2 0x10 JUMPI PUSH1 0x0 DUP1 REVERT JUMPDEST POP PUSH1 0x4 CALLDATASIZE LT PUSH2 0x4C JUMPI PUSH1 0x0 CALLDATALOAD PUSH1 0xE0 SHR DUP1 PUSH4 0x4CE34AA2 EQ PUSH2 0x51 JUMPI DUP1 PUSH4 0x899E104C EQ PUSH2 0x81 JUMPI DUP1 PUSH4 0x8DF25D92 EQ PUSH2 0xB1 JUMPI DUP1 PUSH4 0xC4E8FCB5 EQ PUSH2 0xE1 JUMPI JUMPDEST PUSH1 0x0 DUP1 REVERT JUMPDEST PUSH2 0x6B PUSH1 0x4 DUP1 CALLDATASIZE SUB DUP2 ADD SWAP1 PUSH2 0x66 SWAP2 SWAP1 PUSH2 0xC3C JUMP JUMPDEST PUSH2 0xFD JUMP JUMPDEST PUSH1 0x40 MLOAD PUSH2 0x78 SWAP2 SWAP1 PUSH2 0xCC4 JUMP JUMPDEST PUSH1 0x40 MLOAD DUP1 SWAP2 SUB SWAP1 RETURN JUMPDEST PUSH2 0x9B PUSH1 0x4 DUP1 CALLDATASIZE SUB DUP2 ADD SWAP1 PUSH2 0x96 SWAP2 SWAP1 PUSH2 0xD35 JUMP JUMPDEST PUSH2 0x191 JUMP JUMPDEST PUSH1 0x40 MLOAD PUSH2 0xA8 SWAP2 SWAP1 PUSH2 0xCC4 JUMP JUMPDEST PUSH1 0x40 MLOAD DUP1 SWAP2 SUB SWAP1 RETURN JUMPDEST PUSH2 0xCB PUSH1 0x4 DUP1 CALLDATASIZE SUB DUP2 ADD SWAP1 PUSH2 0xC6 SWAP2 SWAP1 PUSH2 0xDB6 JUMP JUMPDEST PUSH2 0x231 JUMP JUMPDEST PUSH1 0x40 MLOAD PUSH2 0xD8 SWAP2 SWAP1 PUSH2 0xCC4 JUMP JUMPDEST PUSH1 0x40 MLOAD DUP1 SWAP2 SUB SWAP1 RETURN JUMPDEST PUSH2 0xFB PUSH1 0x4 DUP1 CALLDATASIZE SUB DUP2 ADD SWAP1 PUSH2 0xF6 SWAP2 SWAP1 PUSH2 0xE99 JUMP JUMPDEST PUSH2 0x28E JUMP JUMPDEST STOP JUMPDEST PUSH1 0x0 CALLER PUSH1 0x0 MSTORE PUSH1 0x0 PUSH1 0x20 MSTORE PUSH1 0x40 PUSH1 0x0 KECCAK256 SLOAD PUSH2 0x140 JUMPI PUSH32 0x93DAADF200000000000000000000000000000000000000000000000000000000 PUSH1 0x0 MSTORE CALLER PUSH1 0x4 MSTORE PUSH1 0x24 PUSH1 0x0 REVERT JUMPDEST PUSH1 0x0 DUP4 DUP4 SWAP1 POP SWAP1 POP PUSH1 0x0 JUMPDEST DUP2 DUP2 LT ISZERO PUSH2 0x17F JUMPI PUSH2 0x174 DUP6 DUP6 DUP4 DUP2 DUP2 LT PUSH2 0x169 JUMPI PUSH2 0x168 PUSH2 0xED9 JUMP JUMPDEST JUMPDEST SWAP1 POP PUSH1 0xC0 MUL ADD PUSH2 0x450 JUMP JUMPDEST DUP1 PUSH1 0x1 ADD SWAP1 POP PUSH2 0x14B JUMP JUMPDEST POP PUSH4 0x4CE34AA2 PUSH1 0xE0 SHL SWAP2 POP POP SWAP3 SWAP2 POP POP JUMP JUMPDEST PUSH1 0x0 CALLER PUSH1 0x0 MSTORE PUSH1 0x0 PUSH1 0x20 MSTORE PUSH1 0x40 PUSH1 0x0 KECCAK256 SLOAD PUSH2 0x1D4 JUMPI PUSH32 0x93DAADF200000000000000000000000000000000000000000000000000000000 PUSH1 0x0 MSTORE CALLER PUSH1 0x4 MSTORE PUSH1 0x24 PUSH1 0x0 REVERT JUMPDEST PUSH1 0x0 DUP6 DUP6 SWAP1 POP SWAP1 POP PUSH1 0x0 JUMPDEST DUP2 DUP2 LT ISZERO PUSH2 0x213 JUMPI PUSH2 0x208 DUP8 DUP8 DUP4 DUP2 DUP2 LT PUSH2 0x1FD JUMPI PUSH2 0x1FC PUSH2 0xED9 JUMP JUMPDEST JUMPDEST SWAP1 POP PUSH1 0xC0 MUL ADD PUSH2 0x450 JUMP JUMPDEST DUP1 PUSH1 0x1 ADD SWAP1 POP PUSH2 0x1DF JUMP JUMPDEST POP PUSH2 0x21E DUP5 DUP5 PUSH2 0x664 JUMP JUMPDEST PUSH4 0x899E104C PUSH1 0xE0 SHL SWAP2 POP POP SWAP5 SWAP4 POP POP POP POP JUMP JUMPDEST PUSH1 0x0 CALLER PUSH1 0x0 MSTORE PUSH1 0x0 PUSH1 0x20 MSTORE PUSH1 0x40 PUSH1 0x0 KECCAK256 SLOAD PUSH2 0x274 JUMPI PUSH32 0x93DAADF200000000000000000000000000000000000000000000000000000000 PUSH1 0x0 MSTORE CALLER PUSH1 0x4 MSTORE PUSH1 0x24 PUSH1 0x0 REVERT JUMPDEST PUSH2 0x27E DUP4 DUP4 PUSH2 0x664 JUMP JUMPDEST PUSH4 0x8DF25D92 PUSH1 0xE0 SHL SWAP1 POP SWAP3 SWAP2 POP POP JUMP JUMPDEST PUSH32 0x0 PUSH20 0xFFFFFFFFFFFFFFFFFFFFFFFFFFFFFFFFFFFFFFFF AND CALLER PUSH20 0xFFFFFFFFFFFFFFFFFFFFFFFFFFFFFFFFFFFFFFFF AND EQ PUSH2 0x313 JUMPI PUSH1 0x40 MLOAD PUSH32 0x6D5769BE00000000000000000000000000000000000000000000000000000000 DUP2 MSTORE PUSH1 0x4 ADD PUSH1 0x40 MLOAD DUP1 SWAP2 SUB SWAP1 REVERT JUMPDEST DUP1 ISZERO ISZERO PUSH1 0x0 DUP1 DUP5 PUSH20 0xFFFFFFFFFFFFFFFFFFFFFFFFFFFFFFFFFFFFFFFF AND PUSH20 0xFFFFFFFFFFFFFFFFFFFFFFFFFFFFFFFFFFFFFFFF AND DUP2 MSTORE PUSH1 0x20 ADD SWAP1 DUP2 MSTORE PUSH1 0x20 ADD PUSH1 0x0 KECCAK256 PUSH1 0x0 SWAP1 SLOAD SWAP1 PUSH2 0x100 EXP SWAP1 DIV PUSH1 0xFF AND ISZERO ISZERO SUB PUSH2 0x3A8 JUMPI DUP2 DUP2 PUSH1 0x40 MLOAD PUSH32 0x924E341E00000000000000000000000000000000000000000000000000000000 DUP2 MSTORE PUSH1 0x4 ADD PUSH2 0x39F SWAP3 SWAP2 SWAP1 PUSH2 0xF26 JUMP JUMPDEST PUSH1 0x40 MLOAD DUP1 SWAP2 SUB SWAP1 REVERT JUMPDEST DUP1 PUSH1 0x0 DUP1 DUP5 PUSH20 0xFFFFFFFFFFFFFFFFFFFFFFFFFFFFFFFFFFFFFFFF AND PUSH20 0xFFFFFFFFFFFFFFFFFFFFFFFFFFFFFFFFFFFFFFFF AND DUP2 MSTORE PUSH1 0x20 ADD SWAP1 DUP2 MSTORE PUSH1 0x20 ADD PUSH1 0x0 KECCAK256 PUSH1 0x0 PUSH2 0x100 EXP DUP2 SLOAD DUP2 PUSH1 0xFF MUL NOT AND SWAP1 DUP4 ISZERO ISZERO MUL OR SWAP1 SSTORE POP DUP2 PUSH20 0xFFFFFFFFFFFFFFFFFFFFFFFFFFFFFFFFFFFFFFFF AND PUSH32 0xAE63067D43AC07563B7EB8DB6595635FC77F1578A2A5EA06BA91B63E2AFA37E2 DUP3 PUSH1 0x40 MLOAD PUSH2 0x444 SWAP2 SWAP1 PUSH2 0xF4F JUMP JUMPDEST PUSH1 0x40 MLOAD DUP1 SWAP2 SUB SWAP1 LOG2 POP POP JUMP JUMPDEST PUSH1 0x1 PUSH1 0x3 DUP2 GT ISZERO PUSH2 0x464 JUMPI PUSH2 0x463 PUSH2 0xF6A JUMP JUMPDEST JUMPDEST DUP2 PUSH1 0x0 ADD PUSH1 0x20 DUP2 ADD SWAP1 PUSH2 0x477 SWAP2 SWAP1 PUSH2 0xFBE JUMP JUMPDEST PUSH1 0x3 DUP2 GT ISZERO PUSH2 0x489 JUMPI PUSH2 0x488 PUSH2 0xF6A JUMP JUMPDEST JUMPDEST SUB PUSH2 0x4D9 JUMPI PUSH2 0x4D4 DUP2 PUSH1 0x20 ADD PUSH1 0x20 DUP2 ADD SWAP1 PUSH2 0x4A4 SWAP2 SWAP1 PUSH2 0xFEB JUMP JUMPDEST DUP3 PUSH1 0x40 ADD PUSH1 0x20 DUP2 ADD SWAP1 PUSH2 0x4B7 SWAP2 SWAP1 PUSH2 0xFEB JUMP JUMPDEST DUP4 PUSH1 0x60 ADD PUSH1 0x20 DUP2 ADD SWAP1 PUSH2 0x4CA SWAP2 SWAP1 PUSH2 0xFEB JUMP JUMPDEST DUP5 PUSH1 0xA0 ADD CALLDATALOAD PUSH2 0x80C JUMP JUMPDEST PUSH2 0x661 JUMP JUMPDEST PUSH1 0x2 PUSH1 0x3 DUP2 GT ISZERO PUSH2 0x4ED JUMPI PUSH2 0x4EC PUSH2 0xF6A JUMP JUMPDEST JUMPDEST DUP2 PUSH1 0x0 ADD PUSH1 0x20 DUP2 ADD SWAP1 PUSH2 0x500 SWAP2 SWAP1 PUSH2 0xFBE JUMP JUMPDEST PUSH1 0x3 DUP2 GT ISZERO PUSH2 0x512 JUMPI PUSH2 0x511 PUSH2 0xF6A JUMP JUMPDEST JUMPDEST SUB PUSH2 0x5A0 JUMPI PUSH1 0x1 DUP2 PUSH1 0xA0 ADD CALLDATALOAD EQ PUSH2 0x555 JUMPI PUSH1 0x40 MLOAD PUSH32 0xEFCC00B100000000000000000000000000000000000000000000000000000000 DUP2 MSTORE PUSH1 0x4 ADD PUSH1 0x40 MLOAD DUP1 SWAP2 SUB SWAP1 REVERT JUMPDEST PUSH2 0x59B DUP2 PUSH1 0x20 ADD PUSH1 0x20 DUP2 ADD SWAP1 PUSH2 0x56B SWAP2 SWAP1 PUSH2 0xFEB JUMP JUMPDEST DUP3 PUSH1 0x40 ADD PUSH1 0x20 DUP2 ADD SWAP1 PUSH2 0x57E SWAP2 SWAP1 PUSH2 0xFEB JUMP JUMPDEST DUP4 PUSH1 0x60 ADD PUSH1 0x20 DUP2 ADD SWAP1 PUSH2 0x591 SWAP2 SWAP1 PUSH2 0xFEB JUMP JUMPDEST DUP5 PUSH1 0x80 ADD CALLDATALOAD PUSH2 0x97F JUMP JUMPDEST PUSH2 0x660 JUMP JUMPDEST PUSH1 0x3 DUP1 DUP2 GT ISZERO PUSH2 0x5B3 JUMPI PUSH2 0x5B2 PUSH2 0xF6A JUMP JUMPDEST JUMPDEST DUP2 PUSH1 0x0 ADD PUSH1 0x20 DUP2 ADD SWAP1 PUSH2 0x5C6 SWAP2 SWAP1 PUSH2 0xFBE JUMP JUMPDEST PUSH1 0x3 DUP2 GT ISZERO PUSH2 0x5D8 JUMPI PUSH2 0x5D7 PUSH2 0xF6A JUMP JUMPDEST JUMPDEST SUB PUSH2 0x62D JUMPI PUSH2 0x628 DUP2 PUSH1 0x20 ADD PUSH1 0x20 DUP2 ADD SWAP1 PUSH2 0x5F3 SWAP2 SWAP1 PUSH2 0xFEB JUMP JUMPDEST DUP3 PUSH1 0x40 ADD PUSH1 0x20 DUP2 ADD SWAP1 PUSH2 0x606 SWAP2 SWAP1 PUSH2 0xFEB JUMP JUMPDEST DUP4 PUSH1 0x60 ADD PUSH1 0x20 DUP2 ADD SWAP1 PUSH2 0x619 SWAP2 SWAP1 PUSH2 0xFEB JUMP JUMPDEST DUP5 PUSH1 0x80 ADD CALLDATALOAD DUP6 PUSH1 0xA0 ADD CALLDATALOAD PUSH2 0xA93 JUMP JUMPDEST PUSH2 0x65F JUMP JUMPDEST PUSH1 0x40 MLOAD PUSH32 0x7932F1FC00000000000000000000000000000000000000000000000000000000 DUP2 MSTORE PUSH1 0x4 ADD PUSH1 0x40 MLOAD DUP1 SWAP2 SUB SWAP1 REVERT JUMPDEST JUMPDEST JUMPDEST POP JUMP JUMPDEST DUP1 DUP3 DUP1 PUSH32 0x2EB2C2D600000000000000000000000000000000000000000000000000000000 PUSH1 0x20 MSTORE PUSH1 0x0 JUMPDEST DUP4 DUP2 LT ISZERO PUSH2 0x7FF JUMPI DUP3 CALLDATALOAD DUP3 ADD DUP1 CALLDATALOAD DUP1 EXTCODESIZE PUSH2 0x6D0 JUMPI PUSH32 0x5F15D67200000000000000000000000000000000000000000000000000000000 PUSH1 0x0 MSTORE DUP1 PUSH1 0x4 MSTORE PUSH1 0x24 PUSH1 0x0 REVERT JUMPDEST PUSH1 0xA0 DUP3 ADD CALLDATALOAD PUSH1 0x20 DUP2 MUL PUSH1 0xC0 ADD DUP1 PUSH1 0x80 DUP6 ADD CALLDATALOAD EQ PUSH1 0xA0 PUSH1 0x60 DUP7 ADD CALLDATALOAD EQ AND DUP2 DUP6 ADD CALLDATALOAD DUP4 EQ AND ISZERO DUP1 ISZERO PUSH2 0x724 JUMPI PUSH32 0xEBA2084C00000000000000000000000000000000000000000000000000000000 PUSH1 0x0 MSTORE PUSH1 0x4 PUSH1 0x0 REVERT JUMPDEST PUSH1 0x20 DUP9 ADD SWAP8 POP PUSH1 0x80 PUSH1 0x20 DUP7 ADD PUSH1 0x24 CALLDATACOPY PUSH1 0x40 DUP4 MUL PUSH1 0x40 ADD DUP1 PUSH1 0xA0 ADD PUSH1 0xA4 MSTORE PUSH1 0x0 DUP2 PUSH1 0xC4 ADD MSTORE DUP1 PUSH1 0xC4 ADD DUP2 PUSH1 0xA0 DUP9 ADD PUSH1 0xC4 CALLDATACOPY PUSH1 0x0 DUP1 DUP3 PUSH1 0x20 PUSH1 0x0 DUP11 GAS CALL DUP1 PUSH2 0x7EC JUMPI RETURNDATASIZE ISZERO PUSH2 0x7B1 JUMPI PUSH1 0x20 PUSH1 0x1F RETURNDATASIZE ADD DIV PUSH1 0x20 DUP4 DIV DUP2 PUSH1 0x3 MUL DUP2 DUP4 GT ISZERO PUSH2 0x798 JUMPI PUSH2 0x200 DUP3 DUP4 MUL DUP5 DUP6 MUL SUB DIV PUSH1 0x3 DUP4 DUP6 SUB MUL ADD DUP2 ADD SWAP1 POP JUMPDEST GAS PUSH1 0x20 DUP3 ADD LT ISZERO PUSH2 0x7AD JUMPI RETURNDATASIZE PUSH1 0x0 DUP1 RETURNDATACOPY RETURNDATASIZE PUSH1 0x0 REVERT JUMPDEST POP POP POP JUMPDEST PUSH32 0xAFC445E200000000000000000000000000000000000000000000000000000000 PUSH1 0x0 MSTORE DUP7 PUSH1 0x4 MSTORE PUSH1 0xC0 PUSH1 0x64 MSTORE PUSH1 0x84 MLOAD PUSH1 0x20 ADD PUSH1 0x84 MSTORE DUP2 PUSH1 0x0 REVERT JUMPDEST POP POP POP POP POP POP POP POP PUSH1 0x1 DUP2 ADD SWAP1 POP PUSH2 0x68E JUMP JUMPDEST POP PUSH1 0x80 PUSH1 0x40 MSTORE POP POP POP POP POP JUMP JUMPDEST PUSH1 0x40 MLOAD PUSH32 0x23B872DD00000000000000000000000000000000000000000000000000000000 PUSH1 0x0 MSTORE DUP4 PUSH1 0x4 MSTORE DUP3 PUSH1 0x24 MSTORE DUP2 PUSH1 0x44 MSTORE PUSH1 0x20 PUSH1 0x0 PUSH1 0x64 PUSH1 0x0 DUP1 DUP10 GAS CALL DUP1 RETURNDATASIZE ISZERO PUSH1 0x1F RETURNDATASIZE GT PUSH1 0x1 PUSH1 0x0 MLOAD EQ AND OR AND RETURNDATASIZE ISZERO ISZERO DUP2 AND PUSH2 0x96D JUMPI DUP1 DUP8 EXTCODESIZE ISZERO ISZERO AND PUSH2 0x96C JUMPI DUP1 PUSH2 0x93E JUMPI DUP2 PUSH2 0x904 JUMPI RETURNDATASIZE ISZERO PUSH2 0x8C5 JUMPI PUSH1 0x20 PUSH1 0x1F RETURNDATASIZE ADD DIV PUSH1 0x20 DUP5 DIV DUP2 PUSH1 0x3 MUL DUP2 DUP4 GT ISZERO PUSH2 0x8AC JUMPI PUSH2 0x200 DUP3 DUP4 MUL DUP5 DUP6 MUL SUB DIV PUSH1 0x3 DUP4 DUP6 SUB MUL ADD DUP2 ADD SWAP1 POP JUMPDEST GAS PUSH1 0x20 DUP3 ADD LT ISZERO PUSH2 0x8C1 JUMPI RETURNDATASIZE PUSH1 0x0 DUP1 RETURNDATACOPY RETURNDATASIZE PUSH1 0x0 REVERT JUMPDEST POP POP POP JUMPDEST PUSH32 0xF486BC8700000000000000000000000000000000000000000000000000000000 PUSH1 0x0 MSTORE DUP7 PUSH1 0x4 MSTORE DUP6 PUSH1 0x24 MSTORE DUP5 PUSH1 0x44 MSTORE PUSH1 0x0 PUSH1 0x64 MSTORE DUP4 PUSH1 0x84 MSTORE PUSH1 0xA4 PUSH1 0x0 REVERT JUMPDEST PUSH32 0x9889192300000000000000000000000000000000000000000000000000000000 PUSH1 0x0 MSTORE DUP7 PUSH1 0x4 MSTORE DUP6 PUSH1 0x24 MSTORE DUP5 PUSH1 0x44 MSTORE DUP4 PUSH1 0x64 MSTORE PUSH1 0x84 PUSH1 0x0 REVERT JUMPDEST PUSH32 0x5F15D67200000000000000000000000000000000000000000000000000000000 PUSH1 0x0 MSTORE DUP7 PUSH1 0x4 MSTORE PUSH1 0x24 PUSH1 0x0 REVERT JUMPDEST JUMPDEST DUP3 PUSH1 0x40 MSTORE PUSH1 0x0 PUSH1 0x60 MSTORE POP POP POP POP POP POP POP JUMP JUMPDEST DUP4 EXTCODESIZE PUSH2 0x9B3 JUMPI PUSH32 0x5F15D67200000000000000000000000000000000000000000000000000000000 PUSH1 0x0 MSTORE DUP4 PUSH1 0x4 MSTORE PUSH1 0x24 PUSH1 0x0 REVERT JUMPDEST PUSH1 0x40 MLOAD PUSH32 0x23B872DD00000000000000000000000000000000000000000000000000000000 PUSH1 0x0 MSTORE DUP4 PUSH1 0x4 MSTORE DUP3 PUSH1 0x24 MSTORE DUP2 PUSH1 0x44 MSTORE PUSH1 0x0 DUP1 PUSH1 0x64 PUSH1 0x0 DUP1 DUP10 GAS CALL DUP1 PUSH2 0xA82 JUMPI RETURNDATASIZE ISZERO PUSH2 0xA43 JUMPI PUSH1 0x20 PUSH1 0x1F RETURNDATASIZE ADD DIV PUSH1 0x20 DUP4 DIV DUP2 PUSH1 0x3 MUL DUP2 DUP4 GT ISZERO PUSH2 0xA2A JUMPI PUSH2 0x200 DUP3 DUP4 MUL DUP5 DUP6 MUL SUB DIV PUSH1 0x3 DUP4 DUP6 SUB MUL ADD DUP2 ADD SWAP1 POP JUMPDEST GAS PUSH1 0x20 DUP3 ADD LT ISZERO PUSH2 0xA3F JUMPI RETURNDATASIZE PUSH1 0x0 DUP1 RETURNDATACOPY RETURNDATASIZE PUSH1 0x0 REVERT JUMPDEST POP POP POP JUMPDEST PUSH32 0xF486BC8700000000000000000000000000000000000000000000000000000000 PUSH1 0x0 MSTORE DUP6 PUSH1 0x4 MSTORE DUP5 PUSH1 0x24 MSTORE DUP4 PUSH1 0x44 MSTORE DUP3 PUSH1 0x64 MSTORE PUSH1 0x1 PUSH1 0x84 MSTORE PUSH1 0xA4 PUSH1 0x0 REVERT JUMPDEST DUP2 PUSH1 0x40 MSTORE PUSH1 0x0 PUSH1 0x60 MSTORE POP POP POP POP POP POP JUMP JUMPDEST DUP5 EXTCODESIZE PUSH2 0xAC7 JUMPI PUSH32 0x5F15D67200000000000000000000000000000000000000000000000000000000 PUSH1 0x0 MSTORE DUP5 PUSH1 0x4 MSTORE PUSH1 0x24 PUSH1 0x0 REVERT JUMPDEST PUSH1 0x40 MLOAD PUSH1 0x80 MLOAD PUSH1 0xA0 MLOAD PUSH1 0xC0 MLOAD PUSH32 0xF242432A00000000000000000000000000000000000000000000000000000000 PUSH1 0x0 MSTORE DUP8 PUSH1 0x4 MSTORE DUP7 PUSH1 0x24 MSTORE DUP6 PUSH1 0x44 MSTORE DUP5 PUSH1 0x64 MSTORE PUSH1 0xA0 PUSH1 0x84 MSTORE PUSH1 0x0 PUSH1 0xA4 MSTORE PUSH1 0x0 DUP1 PUSH1 0xC4 PUSH1 0x0 DUP1 DUP14 GAS CALL DUP1 PUSH2 0xBAC JUMPI RETURNDATASIZE ISZERO PUSH2 0xB6E JUMPI PUSH1 0x20 PUSH1 0x1F RETURNDATASIZE ADD DIV PUSH1 0x20 DUP7 DIV DUP2 PUSH1 0x3 MUL DUP2 DUP4 GT ISZERO PUSH2 0xB55 JUMPI PUSH2 0x200 DUP3 DUP4 MUL DUP5 DUP6 MUL SUB DIV PUSH1 0x3 DUP4 DUP6 SUB MUL ADD DUP2 ADD SWAP1 POP JUMPDEST GAS PUSH1 0x20 DUP3 ADD LT ISZERO PUSH2 0xB6A JUMPI RETURNDATASIZE PUSH1 0x0 DUP1 RETURNDATACOPY RETURNDATASIZE PUSH1 0x0 REVERT JUMPDEST POP POP POP JUMPDEST PUSH32 0xF486BC8700000000000000000000000000000000000000000000000000000000 PUSH1 0x0 MSTORE DUP10 PUSH1 0x4 MSTORE DUP9 PUSH1 0x24 MSTORE DUP8 PUSH1 0x44 MSTORE DUP7 PUSH1 0x64 MSTORE DUP6 PUSH1 0x84 MSTORE PUSH1 0xA4 PUSH1 0x0 REVERT JUMPDEST DUP4 PUSH1 0x80 MSTORE DUP3 PUSH1 0xA0 MSTORE DUP2 PUSH1 0xC0 MSTORE DUP5 PUSH1 0x40 MSTORE PUSH1 0x0 PUSH1 0x60 MSTORE POP POP POP POP POP POP POP POP POP POP JUMP JUMPDEST PUSH1 0x0 DUP1 REVERT JUMPDEST PUSH1 0x0 DUP1 REVERT JUMPDEST PUSH1 0x0 DUP1 REVERT JUMPDEST PUSH1 0x0 DUP1 REVERT JUMPDEST PUSH1 0x0 DUP1 REVERT JUMPDEST PUSH1 0x0 DUP1 DUP4 PUSH1 0x1F DUP5 ADD SLT PUSH2 0xBFC JUMPI PUSH2 0xBFB PUSH2 0xBD7 JUMP JUMPDEST JUMPDEST DUP3 CALLDATALOAD SWAP1 POP PUSH8 0xFFFFFFFFFFFFFFFF DUP2 GT ISZERO PUSH2 0xC19 JUMPI PUSH2 0xC18 PUSH2 0xBDC JUMP JUMPDEST JUMPDEST PUSH1 0x20 DUP4 ADD SWAP2 POP DUP4 PUSH1 0xC0 DUP3 MUL DUP4 ADD GT ISZERO PUSH2 0xC35 JUMPI PUSH2 0xC34 PUSH2 0xBE1 JUMP JUMPDEST JUMPDEST SWAP3 POP SWAP3 SWAP1 POP JUMP JUMPDEST PUSH1 0x0 DUP1 PUSH1 0x20 DUP4 DUP6 SUB SLT ISZERO PUSH2 0xC53 JUMPI PUSH2 0xC52 PUSH2 0xBCD JUMP JUMPDEST JUMPDEST PUSH1 0x0 DUP4 ADD CALLDATALOAD PUSH8 0xFFFFFFFFFFFFFFFF DUP2 GT ISZERO PUSH2 0xC71 JUMPI PUSH2 0xC70 PUSH2 0xBD2 JUMP JUMPDEST JUMPDEST PUSH2 0xC7D DUP6 DUP3 DUP7 ADD PUSH2 0xBE6 JUMP JUMPDEST SWAP3 POP SWAP3 POP POP SWAP3 POP SWAP3 SWAP1 POP JUMP JUMPDEST PUSH1 0x0 PUSH32 0xFFFFFFFF00000000000000000000000000000000000000000000000000000000 DUP3 AND SWAP1 POP SWAP2 SWAP1 POP JUMP JUMPDEST PUSH2 0xCBE DUP2 PUSH2 0xC89 JUMP JUMPDEST DUP3 MSTORE POP POP JUMP JUMPDEST PUSH1 0x0 PUSH1 0x20 DUP3 ADD SWAP1 POP PUSH2 0xCD9 PUSH1 0x0 DUP4 ADD DUP5 PUSH2 0xCB5 JUMP JUMPDEST SWAP3 SWAP2 POP POP JUMP JUMPDEST PUSH1 0x0 DUP1 DUP4 PUSH1 0x1F DUP5 ADD SLT PUSH2 0xCF5 JUMPI PUSH2 0xCF4 PUSH2 0xBD7 JUMP JUMPDEST JUMPDEST DUP3 CALLDATALOAD SWAP1 POP PUSH8 0xFFFFFFFFFFFFFFFF DUP2 GT ISZERO PUSH2 0xD12 JUMPI PUSH2 0xD11 PUSH2 0xBDC JUMP JUMPDEST JUMPDEST PUSH1 0x20 DUP4 ADD SWAP2 POP DUP4 PUSH1 0x20 DUP3 MUL DUP4 ADD GT ISZERO PUSH2 0xD2E JUMPI PUSH2 0xD2D PUSH2 0xBE1 JUMP JUMPDEST JUMPDEST SWAP3 POP SWAP3 SWAP1 POP JUMP JUMPDEST PUSH1 0x0 DUP1 PUSH1 0x0 DUP1 PUSH1 0x40 DUP6 DUP8 SUB SLT ISZERO PUSH2 0xD4F JUMPI PUSH2 0xD4E PUSH2 0xBCD JUMP JUMPDEST JUMPDEST PUSH1 0x0 DUP6 ADD CALLDATALOAD PUSH8 0xFFFFFFFFFFFFFFFF DUP2 GT ISZERO PUSH2 0xD6D JUMPI PUSH2 0xD6C PUSH2 0xBD2 JUMP JUMPDEST JUMPDEST PUSH2 0xD79 DUP8 DUP3 DUP9 ADD PUSH2 0xBE6 JUMP JUMPDEST SWAP5 POP SWAP5 POP POP PUSH1 0x20 DUP6 ADD CALLDATALOAD PUSH8 0xFFFFFFFFFFFFFFFF DUP2 GT ISZERO PUSH2 0xD9C JUMPI PUSH2 0xD9B PUSH2 0xBD2 JUMP JUMPDEST JUMPDEST PUSH2 0xDA8 DUP8 DUP3 DUP9 ADD PUSH2 0xCDF JUMP JUMPDEST SWAP3 POP SWAP3 POP POP SWAP3 SWAP6 SWAP2 SWAP5 POP SWAP3 POP JUMP JUMPDEST PUSH1 0x0 DUP1 PUSH1 0x20 DUP4 DUP6 SUB SLT ISZERO PUSH2 0xDCD JUMPI PUSH2 0xDCC PUSH2 0xBCD JUMP JUMPDEST JUMPDEST PUSH1 0x0 DUP4 ADD CALLDATALOAD PUSH8 0xFFFFFFFFFFFFFFFF DUP2 GT ISZERO PUSH2 0xDEB JUMPI PUSH2 0xDEA PUSH2 0xBD2 JUMP JUMPDEST JUMPDEST PUSH2 0xDF7 DUP6 DUP3 DUP7 ADD PUSH2 0xCDF JUMP JUMPDEST SWAP3 POP SWAP3 POP POP SWAP3 POP SWAP3 SWAP1 POP JUMP JUMPDEST PUSH1 0x0 PUSH20 0xFFFFFFFFFFFFFFFFFFFFFFFFFFFFFFFFFFFFFFFF DUP3 AND SWAP1 POP SWAP2 SWAP1 POP JUMP JUMPDEST PUSH1 0x0 PUSH2 0xE2E DUP3 PUSH2 0xE03 JUMP JUMPDEST SWAP1 POP SWAP2 SWAP1 POP JUMP JUMPDEST PUSH2 0xE3E DUP2 PUSH2 0xE23 JUMP JUMPDEST DUP2 EQ PUSH2 0xE49 JUMPI PUSH1 0x0 DUP1 REVERT JUMPDEST POP JUMP JUMPDEST PUSH1 0x0 DUP2 CALLDATALOAD SWAP1 POP PUSH2 0xE5B DUP2 PUSH2 0xE35 JUMP JUMPDEST SWAP3 SWAP2 POP POP JUMP JUMPDEST PUSH1 0x0 DUP2 ISZERO ISZERO SWAP1 POP SWAP2 SWAP1 POP JUMP JUMPDEST PUSH2 0xE76 DUP2 PUSH2 0xE61 JUMP JUMPDEST DUP2 EQ PUSH2 0xE81 JUMPI PUSH1 0x0 DUP1 REVERT JUMPDEST POP JUMP JUMPDEST PUSH1 0x0 DUP2 CALLDATALOAD SWAP1 POP PUSH2 0xE93 DUP2 PUSH2 0xE6D JUMP JUMPDEST SWAP3 SWAP2 POP POP JUMP JUMPDEST PUSH1 0x0 DUP1 PUSH1 0x40 DUP4 DUP6 SUB SLT ISZERO PUSH2 0xEB0 JUMPI PUSH2 0xEAF PUSH2 0xBCD JUMP JUMPDEST JUMPDEST PUSH1 0x0 PUSH2 0xEBE DUP6 DUP3 DUP7 ADD PUSH2 0xE4C JUMP JUMPDEST SWAP3 POP POP PUSH1 0x20 PUSH2 0xECF DUP6 DUP3 DUP7 ADD PUSH2 0xE84 JUMP JUMPDEST SWAP2 POP POP SWAP3 POP SWAP3 SWAP1 POP JUMP JUMPDEST PUSH32 0x4E487B7100000000000000000000000000000000000000000000000000000000 PUSH1 0x0 MSTORE PUSH1 0x32 PUSH1 0x4 MSTORE PUSH1 0x24 PUSH1 0x0 REVERT JUMPDEST PUSH2 0xF11 DUP2 PUSH2 0xE23 JUMP JUMPDEST DUP3 MSTORE POP POP JUMP JUMPDEST PUSH2 0xF20 DUP2 PUSH2 0xE61 JUMP JUMPDEST DUP3 MSTORE POP POP JUMP JUMPDEST PUSH1 0x0 PUSH1 0x40 DUP3 ADD SWAP1 POP PUSH2 0xF3B PUSH1 0x0 DUP4 ADD DUP6 PUSH2 0xF08 JUMP JUMPDEST PUSH2 0xF48 PUSH1 0x20 DUP4 ADD DUP5 PUSH2 0xF17 JUMP JUMPDEST SWAP4 SWAP3 POP POP POP JUMP JUMPDEST PUSH1 0x0 PUSH1 0x20 DUP3 ADD SWAP1 POP PUSH2 0xF64 PUSH1 0x0 DUP4 ADD DUP5 PUSH2 0xF17 JUMP JUMPDEST SWAP3 SWAP2 POP POP JUMP JUMPDEST PUSH32 0x4E487B7100000000000000000000000000000000000000000000000000000000 PUSH1 0x0 MSTORE PUSH1 0x21 PUSH1 0x4 MSTORE PUSH1 0x24 PUSH1 0x0 REVERT JUMPDEST PUSH1 0x4 DUP2 LT PUSH2 0xFA6 JUMPI PUSH1 0x0 DUP1 REVERT JUMPDEST POP JUMP JUMPDEST PUSH1 0x0 DUP2 CALLDATALOAD SWAP1 POP PUSH2 0xFB8 DUP2 PUSH2 0xF99 JUMP JUMPDEST SWAP3 SWAP2 POP POP JUMP JUMPDEST PUSH1 0x0 PUSH1 0x20 DUP3 DUP5 SUB SLT ISZERO PUSH2 0xFD4 JUMPI PUSH2 0xFD3 PUSH2 0xBCD JUMP JUMPDEST JUMPDEST PUSH1 0x0 PUSH2 0xFE2 DUP5 DUP3 DUP6 ADD PUSH2 0xFA9 JUMP JUMPDEST SWAP2 POP POP SWAP3 SWAP2 POP POP JUMP JUMPDEST PUSH1 0x0 PUSH1 0x20 DUP3 DUP5 SUB SLT ISZERO PUSH2 0x1001 JUMPI PUSH2 0x1000 PUSH2 0xBCD JUMP JUMPDEST JUMPDEST PUSH1 0x0 PUSH2 0x100F DUP5 DUP3 DUP6 ADD PUSH2 0xE4C JUMP JUMPDEST SWAP2 POP POP SWAP3 SWAP2 POP POP JUMP INVALID LOG2 PUSH5 0x6970667358 0x22 SLT KECCAK256 MLOAD CALLDATASIZE SWAP3 0x4F 0x4D 0xBB INVALID PUSH26 0x561A1FC04E45947433C8FCBA59787FFD458BB59436AA02226473 PUSH16 0x6C634300081100330000000000000000 "
				},
				"gasEstimates": {
					"creation": {
						"codeDepositCost": "834800",
						"executionCost": "infinite",
						"totalCost": "infinite"
					},
					"external": {
						"execute((uint8,address,address,address,uint256,uint256)[])": "infinite",
						"executeBatch1155((address,address,address,uint256[],uint256[])[])": "infinite",
						"executeWithBatch1155((uint8,address,address,address,uint256,uint256)[],(address,address,address,uint256[],uint256[])[])": "infinite",
						"updateChannel(address,bool)": "infinite"
					},
					"internal": {
						"_transfer(struct ConduitTransfer calldata)": "infinite"
					}
				},
				"methodIdentifiers": {
					"execute((uint8,address,address,address,uint256,uint256)[])": "4ce34aa2",
					"executeBatch1155((address,address,address,uint256[],uint256[])[])": "8df25d92",
					"executeWithBatch1155((uint8,address,address,address,uint256,uint256)[],(address,address,address,uint256[],uint256[])[])": "899e104c",
					"updateChannel(address,bool)": "c4e8fcb5"
				}
			},
			"storageLayout": {
				"storage": [
					{
						"astId": 22,
						"contract": "conduit/Conduit.sol:Conduit",
						"label": "_channels",
						"offset": 0,
						"slot": "0",
						"type": "t_mapping(t_address,t_bool)"
					}
				],
				"types": {
					"t_address": {
						"encoding": "inplace",
						"label": "address",
						"numberOfBytes": "20"
					},
					"t_bool": {
						"encoding": "inplace",
						"label": "bool",
						"numberOfBytes": "1"
					},
					"t_mapping(t_address,t_bool)": {
						"encoding": "mapping",
						"key": "t_address",
						"label": "mapping(address => bool)",
						"numberOfBytes": "32",
						"value": "t_bool"
					}
				}
			},
			"userdoc": {
				"kind": "user",
				"methods": {
					"constructor": {
						"notice": "In the constructor, set the deployer as the controller."
					},
					"execute((uint8,address,address,address,uint256,uint256)[])": {
						"notice": "Execute a sequence of ERC20/721/1155 transfers. Only a caller         with an open channel can call this function. Note that channels         are expected to implement reentrancy protection if desired, and         that cross-channel reentrancy may be possible if the conduit has         multiple open channels at once. Also note that channels are         expected to implement checks against transferring any zero-amount         items if that constraint is desired."
					},
					"executeBatch1155((address,address,address,uint256[],uint256[])[])": {
						"notice": "Execute a sequence of batch 1155 item transfers. Only a caller         with an open channel can call this function. Note that channels         are expected to implement reentrancy protection if desired, and         that cross-channel reentrancy may be possible if the conduit has         multiple open channels at once. Also note that channels are         expected to implement checks against transferring any zero-amount         items if that constraint is desired."
					},
					"executeWithBatch1155((uint8,address,address,address,uint256,uint256)[],(address,address,address,uint256[],uint256[])[])": {
						"notice": "Execute a sequence of transfers, both single ERC20/721/1155 item         transfers as well as batch 1155 item transfers. Only a caller         with an open channel can call this function. Note that channels         are expected to implement reentrancy protection if desired, and         that cross-channel reentrancy may be possible if the conduit has         multiple open channels at once. Also note that channels are         expected to implement checks against transferring any zero-amount         items if that constraint is desired."
					},
					"updateChannel(address,bool)": {
						"notice": "Open or close a given channel. Only callable by the controller."
					}
				},
				"notice": "This contract serves as an originator for \"proxied\" transfers. Each         conduit is deployed and controlled by a \"conduit controller\" that can         add and remove \"channels\" or contracts that can instruct the conduit         to transfer approved ERC20/721/1155 tokens. *IMPORTANT NOTE: each         conduit has an owner that can arbitrarily add or remove channels, and         a malicious or negligent owner can add a channel that allows for any         approved ERC20/721/1155 tokens to be taken immediately — be extremely         cautious with what conduits you give token approvals to!*",
				"version": 1
			}
		}
	}
}