{
	"conduit/ConduitController.sol": {
		"ConduitController": {
			"abi": [
				{
					"inputs": [],
					"stateMutability": "nonpayable",
					"type": "constructor"
				},
				{
					"inputs": [
						{
							"internalType": "address",
							"name": "conduit",
							"type": "address"
						}
					],
					"name": "CallerIsNotNewPotentialOwner",
					"type": "error"
				},
				{
					"inputs": [
						{
							"internalType": "address",
							"name": "conduit",
							"type": "address"
						}
					],
					"name": "CallerIsNotOwner",
					"type": "error"
				},
				{
					"inputs": [
						{
							"internalType": "address",
							"name": "conduit",
							"type": "address"
						}
					],
					"name": "ChannelOutOfRange",
					"type": "error"
				},
				{
					"inputs": [
						{
							"internalType": "address",
							"name": "conduit",
							"type": "address"
						}
					],
					"name": "ConduitAlreadyExists",
					"type": "error"
				},
				{
					"inputs": [],
					"name": "InvalidCreator",
					"type": "error"
				},
				{
					"inputs": [],
					"name": "InvalidInitialOwner",
					"type": "error"
				},
				{
					"inputs": [
						{
							"internalType": "address",
							"name": "conduit",
							"type": "address"
						},
						{
							"internalType": "address",
							"name": "newPotentialOwner",
							"type": "address"
						}
					],
					"name": "NewPotentialOwnerAlreadySet",
					"type": "error"
				},
				{
					"inputs": [
						{
							"internalType": "address",
							"name": "conduit",
							"type": "address"
						}
					],
					"name": "NewPotentialOwnerIsZeroAddress",
					"type": "error"
				},
				{
					"inputs": [],
					"name": "NoConduit",
					"type": "error"
				},
				{
					"inputs": [
						{
							"internalType": "address",
							"name": "conduit",
							"type": "address"
						}
					],
					"name": "NoPotentialOwnerCurrentlySet",
					"type": "error"
				},
				{
					"anonymous": false,
					"inputs": [
						{
							"indexed": false,
							"internalType": "address",
							"name": "conduit",
							"type": "address"
						},
						{
							"indexed": false,
							"internalType": "bytes32",
							"name": "conduitKey",
							"type": "bytes32"
						}
					],
					"name": "NewConduit",
					"type": "event"
				},
				{
					"anonymous": false,
					"inputs": [
						{
							"indexed": true,
							"internalType": "address",
							"name": "conduit",
							"type": "address"
						},
						{
							"indexed": true,
							"internalType": "address",
							"name": "previousOwner",
							"type": "address"
						},
						{
							"indexed": true,
							"internalType": "address",
							"name": "newOwner",
							"type": "address"
						}
					],
					"name": "OwnershipTransferred",
					"type": "event"
				},
				{
					"anonymous": false,
					"inputs": [
						{
							"indexed": true,
							"internalType": "address",
							"name": "newPotentialOwner",
							"type": "address"
						}
					],
					"name": "PotentialOwnerUpdated",
					"type": "event"
				},
				{
					"inputs": [
						{
							"internalType": "address",
							"name": "conduit",
							"type": "address"
						}
					],
					"name": "acceptOwnership",
					"outputs": [],
					"stateMutability": "nonpayable",
					"type": "function"
				},
				{
					"inputs": [
						{
							"internalType": "address",
							"name": "conduit",
							"type": "address"
						}
					],
					"name": "cancelOwnershipTransfer",
					"outputs": [],
					"stateMutability": "nonpayable",
					"type": "function"
				},
				{
					"inputs": [
						{
							"internalType": "bytes32",
							"name": "conduitKey",
							"type": "bytes32"
						},
						{
							"internalType": "address",
							"name": "initialOwner",
							"type": "address"
						}
					],
					"name": "createConduit",
					"outputs": [
						{
							"internalType": "address",
							"name": "conduit",
							"type": "address"
						}
					],
					"stateMutability": "nonpayable",
					"type": "function"
				},
				{
					"inputs": [
						{
							"internalType": "address",
							"name": "conduit",
							"type": "address"
						},
						{
							"internalType": "uint256",
							"name": "channelIndex",
							"type": "uint256"
						}
					],
					"name": "getChannel",
					"outputs": [
						{
							"internalType": "address",
							"name": "channel",
							"type": "address"
						}
					],
					"stateMutability": "view",
					"type": "function"
				},
				{
					"inputs": [
						{
							"internalType": "address",
							"name": "conduit",
							"type": "address"
						},
						{
							"internalType": "address",
							"name": "channel",
							"type": "address"
						}
					],
					"name": "getChannelStatus",
					"outputs": [
						{
							"internalType": "bool",
							"name": "isOpen",
							"type": "bool"
						}
					],
					"stateMutability": "view",
					"type": "function"
				},
				{
					"inputs": [
						{
							"internalType": "address",
							"name": "conduit",
							"type": "address"
						}
					],
					"name": "getChannels",
					"outputs": [
						{
							"internalType": "address[]",
							"name": "channels",
							"type": "address[]"
						}
					],
					"stateMutability": "view",
					"type": "function"
				},
				{
					"inputs": [
						{
							"internalType": "bytes32",
							"name": "conduitKey",
							"type": "bytes32"
						}
					],
					"name": "getConduit",
					"outputs": [
						{
							"internalType": "address",
							"name": "conduit",
							"type": "address"
						},
						{
							"internalType": "bool",
							"name": "exists",
							"type": "bool"
						}
					],
					"stateMutability": "view",
					"type": "function"
				},
				{
					"inputs": [],
					"name": "getConduitCodeHashes",
					"outputs": [
						{
							"internalType": "bytes32",
							"name": "creationCodeHash",
							"type": "bytes32"
						},
						{
							"internalType": "bytes32",
							"name": "runtimeCodeHash",
							"type": "bytes32"
						}
					],
					"stateMutability": "view",
					"type": "function"
				},
				{
					"inputs": [
						{
							"internalType": "address",
							"name": "conduit",
							"type": "address"
						}
					],
					"name": "getKey",
					"outputs": [
						{
							"internalType": "bytes32",
							"name": "conduitKey",
							"type": "bytes32"
						}
					],
					"stateMutability": "view",
					"type": "function"
				},
				{
					"inputs": [
						{
							"internalType": "address",
							"name": "conduit",
							"type": "address"
						}
					],
					"name": "getPotentialOwner",
					"outputs": [
						{
							"internalType": "address",
							"name": "potentialOwner",
							"type": "address"
						}
					],
					"stateMutability": "view",
					"type": "function"
				},
				{
					"inputs": [
						{
							"internalType": "address",
							"name": "conduit",
							"type": "address"
						}
					],
					"name": "getTotalChannels",
					"outputs": [
						{
							"internalType": "uint256",
							"name": "totalChannels",
							"type": "uint256"
						}
					],
					"stateMutability": "view",
					"type": "function"
				},
				{
					"inputs": [
						{
							"internalType": "address",
							"name": "conduit",
							"type": "address"
						}
					],
					"name": "ownerOf",
					"outputs": [
						{
							"internalType": "address",
							"name": "owner",
							"type": "address"
						}
					],
					"stateMutability": "view",
					"type": "function"
				},
				{
					"inputs": [
						{
							"internalType": "address",
							"name": "conduit",
							"type": "address"
						},
						{
							"internalType": "address",
							"name": "newPotentialOwner",
							"type": "address"
						}
					],
					"name": "transferOwnership",
					"outputs": [],
					"stateMutability": "nonpayable",
					"type": "function"
				},
				{
					"inputs": [
						{
							"internalType": "address",
							"name": "conduit",
							"type": "address"
						},
						{
							"internalType": "address",
							"name": "channel",
							"type": "address"
						},
						{
							"internalType": "bool",
							"name": "isOpen",
							"type": "bool"
						}
					],
					"name": "updateChannel",
					"outputs": [],
					"stateMutability": "nonpayable",
					"type": "function"
				}
			],
			"devdoc": {
				"author": "0age",
				"errors": {
					"CallerIsNotNewPotentialOwner(address)": [
						{
							"details": "Revert with an error when attempting to claim ownership of a conduit      with a caller that is not the current potential owner for the      conduit in question."
						}
					],
					"CallerIsNotOwner(address)": [
						{
							"details": "Revert with an error when attempting to update channels or transfer      ownership of a conduit when the caller is not the owner of the      conduit in question."
						}
					],
					"ChannelOutOfRange(address)": [
						{
							"details": "Revert with an error when attempting to retrieve a channel using an      index that is out of range."
						}
					],
					"ConduitAlreadyExists(address)": [
						{
							"details": "Revert with an error when attempting to create a conduit that      already exists."
						}
					],
					"InvalidCreator()": [
						{
							"details": "Revert with an error when attempting to create a new conduit using a      conduit key where the first twenty bytes of the key do not match the      address of the caller."
						}
					],
					"InvalidInitialOwner()": [
						{
							"details": "Revert with an error when attempting to create a new conduit when no      initial owner address is supplied."
						}
					],
					"NewPotentialOwnerAlreadySet(address,address)": [
						{
							"details": "Revert with an error when attempting to set a new potential owner      that is already set."
						}
					],
					"NewPotentialOwnerIsZeroAddress(address)": [
						{
							"details": "Revert with an error when attempting to register a new potential      owner and supplying the null address."
						}
					],
					"NoConduit()": [
						{
							"details": "Revert with an error when attempting to interact with a conduit that      does not yet exist."
						}
					],
					"NoPotentialOwnerCurrentlySet(address)": [
						{
							"details": "Revert with an error when attempting to cancel ownership transfer      when no new potential owner is currently set."
						}
					]
				},
				"kind": "dev",
				"methods": {
					"acceptOwnership(address)": {
						"params": {
							"conduit": "The conduit for which to accept ownership."
						}
					},
					"cancelOwnershipTransfer(address)": {
						"params": {
							"conduit": "The conduit for which to cancel ownership transfer."
						}
					},
					"constructor": {
						"details": "Initialize contract by deploying a conduit and setting the creation      code and runtime code hashes as immutable arguments."
					},
					"createConduit(bytes32,address)": {
						"params": {
							"conduitKey": "The conduit key used to deploy the conduit. Note that                     the first twenty bytes of the conduit key must match                     the caller of this contract.",
							"initialOwner": "The initial owner to set for the new conduit."
						},
						"returns": {
							"conduit": "The address of the newly deployed conduit."
						}
					},
					"getChannel(address,uint256)": {
						"params": {
							"channelIndex": "The index of the channel in question.",
							"conduit": "The conduit for which to retrieve the open channel."
						},
						"returns": {
							"channel": "The open channel, if any, at the specified channel index."
						}
					},
					"getChannelStatus(address,address)": {
						"params": {
							"channel": "The channel for which to retrieve the status.",
							"conduit": "The conduit for which to retrieve the channel status."
						},
						"returns": {
							"isOpen": "The status of the channel on the given conduit."
						}
					},
					"getChannels(address)": {
						"params": {
							"conduit": "The conduit for which to retrieve open channels."
						},
						"returns": {
							"channels": "An array of open channels on the given conduit."
						}
					},
					"getConduit(bytes32)": {
						"params": {
							"conduitKey": "The conduit key used to derive the conduit."
						},
						"returns": {
							"conduit": "The derived address of the conduit.",
							"exists": " A boolean indicating whether the derived conduit has been                 deployed or not."
						}
					},
					"getConduitCodeHashes()": {
						"details": "Retrieve the conduit creation code and runtime code hashes."
					},
					"getKey(address)": {
						"params": {
							"conduit": "The conduit for which to retrieve the associated conduit                key."
						},
						"returns": {
							"conduitKey": "The conduit key used to deploy the supplied conduit."
						}
					},
					"getPotentialOwner(address)": {
						"params": {
							"conduit": "The conduit for which to retrieve the potential owner."
						},
						"returns": {
							"potentialOwner": "The potential owner, if any, for the conduit."
						}
					},
					"getTotalChannels(address)": {
						"params": {
							"conduit": "The conduit for which to retrieve the total channel count."
						},
						"returns": {
							"totalChannels": "The total number of open channels for the conduit."
						}
					},
					"ownerOf(address)": {
						"params": {
							"conduit": "The conduit for which to retrieve the associated owner."
						},
						"returns": {
							"owner": "The owner of the supplied conduit."
						}
					},
					"transferOwnership(address,address)": {
						"params": {
							"conduit": "The conduit for which to initiate ownership transfer.",
							"newPotentialOwner": "The new potential owner of the conduit."
						}
					},
					"updateChannel(address,address,bool)": {
						"params": {
							"channel": "The channel to open or close on the conduit.",
							"conduit": "The conduit for which to open or close the channel.",
							"isOpen": "A boolean indicating whether to open or close the channel."
						}
					}
				},
				"title": "ConduitController",
				"version": 1
			},
			"evm": {
				"assembly": "    /* \"conduit/ConduitController.sol\":556:19978  contract ConduitController is ConduitControllerInterface {... */\n  mstore(0x40, 0xc0)\n    /* \"conduit/ConduitController.sol\":1121:1569  constructor() {... */\n  callvalue\n  dup1\n  iszero\n  tag_1\n  jumpi\n  0x00\n  dup1\n  revert\ntag_1:\n  pop\n    /* \"conduit/ConduitController.sol\":1262:1288  type(Conduit).creationCode */\n  mload(0x40)\n  dup1\n  0x20\n  add\n  tag_4\n  swap1\n  tag_5\n  jump\t// in\ntag_4:\n  0x20\n  dup3\n  add\n  dup2\n  sub\n  dup3\n  mstore\n  not(0x1f)\n  0x1f\n  dup3\n  add\n  and\n  0x40\n  mstore\n  pop\n    /* \"conduit/ConduitController.sol\":1252:1289  keccak256(type(Conduit).creationCode) */\n  dup1\n  mload\n  swap1\n  0x20\n  add\n  keccak256\n    /* \"conduit/ConduitController.sol\":1222:1289  _CONDUIT_CREATION_CODE_HASH = keccak256(type(Conduit).creationCode) */\n  0x80\n  dup2\n  dup2\n  mstore\n  pop\n  pop\n    /* \"conduit/ConduitController.sol\":1360:1379  Conduit zeroConduit */\n  0x00\n    /* \"conduit/ConduitController.sol\":1409:1410  0 */\n  dup1\n    /* \"conduit/ConduitController.sol\":1401:1411  bytes32(0) */\n  0x00\n  shl\n    /* \"conduit/ConduitController.sol\":1382:1415  new Conduit{ salt: bytes32(0) }() */\n  mload(0x40)\n  tag_6\n  swap1\n  tag_5\n  jump\t// in\ntag_6:\n  dup2\n  swap1\n  mload(0x40)\n  dup1\n  swap2\n  sub\n  swap1\n  0x00\n  create2\n  swap1\n  pop\n  dup1\n  iszero\n  dup1\n  iszero\n  tag_7\n  jumpi\n  returndatasize\n  0x00\n  dup1\n  returndatacopy\n  revert(0x00, returndatasize)\ntag_7:\n  pop\n    /* \"conduit/ConduitController.sol\":1360:1415  Conduit zeroConduit = new Conduit{ salt: bytes32(0) }() */\n  swap1\n  pop\n    /* \"conduit/ConduitController.sol\":1541:1552  zeroConduit */\n  dup1\n    /* \"conduit/ConduitController.sol\":1533:1562  address(zeroConduit).codehash */\n  0xffffffffffffffffffffffffffffffffffffffff\n  and\n  extcodehash\n    /* \"conduit/ConduitController.sol\":1504:1562  _CONDUIT_RUNTIME_CODE_HASH = address(zeroConduit).codehash */\n  0xa0\n  dup2\n  dup2\n  mstore\n  pop\n  pop\n    /* \"conduit/ConduitController.sol\":1135:1569  {... */\n  pop\n    /* \"conduit/ConduitController.sol\":556:19978  contract ConduitController is ConduitControllerInterface {... */\n  jump(tag_8)\ntag_5:\n  dataSize(sub_1)\n  dup1\n  dataOffset(sub_1)\n  dup4\n  codecopy\n  add\n  swap1\n  jump\t// out\ntag_8:\n  mload(0x80)\n  mload(0xa0)\n  codecopy(0x00, dataOffset(sub_0), dataSize(sub_0))\n  0x00\n  assignImmutable(\"0xb5ec0f20465329e13a2d85270cb78f65c575ccff472e4a205299224e150cb7e2\")\n  0x00\n  assignImmutable(\"0x5123ab44a95b9e316b860f114ea520934458fa7bff216e60c6945263bff2b6f8\")\n  return(0x00, dataSize(sub_0))\nstop\n\nsub_0: assembly {\n        /* \"conduit/ConduitController.sol\":556:19978  contract ConduitController is ConduitControllerInterface {... */\n      mstore(0x40, 0x80)\n      callvalue\n      dup1\n      iszero\n      tag_1\n      jumpi\n      0x00\n      dup1\n      revert\n    tag_1:\n      pop\n      jumpi(tag_2, lt(calldatasize, 0x04))\n      shr(0xe0, calldataload(0x00))\n      dup1\n      0x6d435421\n      gt\n      tag_17\n      jumpi\n      dup1\n      0x7b37e561\n      gt\n      tag_18\n      jumpi\n      dup1\n      0x7b37e561\n      eq\n      tag_13\n      jumpi\n      dup1\n      0x8b9e028b\n      eq\n      tag_14\n      jumpi\n      dup1\n      0x906c87cc\n      eq\n      tag_15\n      jumpi\n      dup1\n      0x93790f44\n      eq\n      tag_16\n      jumpi\n      jump(tag_2)\n    tag_18:\n      dup1\n      0x6d435421\n      eq\n      tag_10\n      jumpi\n      dup1\n      0x6e9bfd9f\n      eq\n      tag_11\n      jumpi\n      dup1\n      0x794593bc\n      eq\n      tag_12\n      jumpi\n      jump(tag_2)\n    tag_17:\n      dup1\n      0x14afd79e\n      gt\n      tag_19\n      jumpi\n      dup1\n      0x14afd79e\n      eq\n      tag_6\n      jumpi\n      dup1\n      0x33bc8572\n      eq\n      tag_7\n      jumpi\n      dup1\n      0x4e3f9580\n      eq\n      tag_8\n      jumpi\n      dup1\n      0x51710e45\n      eq\n      tag_9\n      jumpi\n      jump(tag_2)\n    tag_19:\n      dup1\n      0x027cc764\n      eq\n      tag_3\n      jumpi\n      dup1\n      0x0a96ad39\n      eq\n      tag_4\n      jumpi\n      dup1\n      0x13ad9cab\n      eq\n      tag_5\n      jumpi\n    tag_2:\n      0x00\n      dup1\n      revert\n        /* \"conduit/ConduitController.sol\":17000:17668  function getChannel(address conduit, uint256 channelIndex)... */\n    tag_3:\n      tag_20\n      0x04\n      dup1\n      calldatasize\n      sub\n      dup2\n      add\n      swap1\n      tag_21\n      swap2\n      swap1\n      tag_22\n      jump\t// in\n    tag_21:\n      tag_23\n      jump\t// in\n    tag_20:\n      mload(0x40)\n      tag_24\n      swap2\n      swap1\n      tag_25\n      jump\t// in\n    tag_24:\n      mload(0x40)\n      dup1\n      swap2\n      sub\n      swap1\n      return\n        /* \"conduit/ConduitController.sol\":18493:18891  function getConduitCodeHashes()... */\n    tag_4:\n      tag_26\n      tag_27\n      jump\t// in\n    tag_26:\n      mload(0x40)\n      tag_28\n      swap3\n      swap2\n      swap1\n      tag_29\n      jump\t// in\n    tag_28:\n      mload(0x40)\n      dup1\n      swap2\n      sub\n      swap1\n      return\n        /* \"conduit/ConduitController.sol\":5181:8161  function updateChannel(... */\n    tag_5:\n      tag_30\n      0x04\n      dup1\n      calldatasize\n      sub\n      dup2\n      add\n      swap1\n      tag_31\n      swap2\n      swap1\n      tag_32\n      jump\t// in\n    tag_31:\n      tag_33\n      jump\t// in\n    tag_30:\n      stop\n        /* \"conduit/ConduitController.sol\":12008:12335  function ownerOf(address conduit)... */\n    tag_6:\n      tag_34\n      0x04\n      dup1\n      calldatasize\n      sub\n      dup2\n      add\n      swap1\n      tag_35\n      swap2\n      swap1\n      tag_36\n      jump\t// in\n    tag_35:\n      tag_37\n      jump\t// in\n    tag_34:\n      mload(0x40)\n      tag_38\n      swap2\n      swap1\n      tag_25\n      jump\t// in\n    tag_38:\n      mload(0x40)\n      dup1\n      swap2\n      sub\n      swap1\n      return\n        /* \"conduit/ConduitController.sol\":15483:15875  function getChannelStatus(address conduit, address channel)... */\n    tag_7:\n      tag_39\n      0x04\n      dup1\n      calldatasize\n      sub\n      dup2\n      add\n      swap1\n      tag_40\n      swap2\n      swap1\n      tag_41\n      jump\t// in\n    tag_40:\n      tag_42\n      jump\t// in\n    tag_39:\n      mload(0x40)\n      tag_43\n      swap2\n      swap1\n      tag_44\n      jump\t// in\n    tag_43:\n      mload(0x40)\n      dup1\n      swap2\n      sub\n      swap1\n      return\n        /* \"conduit/ConduitController.sol\":16151:16525  function getTotalChannels(address conduit)... */\n    tag_8:\n      tag_45\n      0x04\n      dup1\n      calldatasize\n      sub\n      dup2\n      add\n      swap1\n      tag_46\n      swap2\n      swap1\n      tag_36\n      jump\t// in\n    tag_46:\n      tag_47\n      jump\t// in\n    tag_45:\n      mload(0x40)\n      tag_48\n      swap2\n      swap1\n      tag_49\n      jump\t// in\n    tag_48:\n      mload(0x40)\n      dup1\n      swap2\n      sub\n      swap1\n      return\n        /* \"conduit/ConduitController.sol\":10764:11773  function acceptOwnership(address conduit) external override {... */\n    tag_9:\n      tag_50\n      0x04\n      dup1\n      calldatasize\n      sub\n      dup2\n      add\n      swap1\n      tag_51\n      swap2\n      swap1\n      tag_36\n      jump\t// in\n    tag_51:\n      tag_52\n      jump\t// in\n    tag_50:\n      stop\n        /* \"conduit/ConduitController.sol\":8654:9577  function transferOwnership(address conduit, address newPotentialOwner)... */\n    tag_10:\n      tag_53\n      0x04\n      dup1\n      calldatasize\n      sub\n      dup2\n      add\n      swap1\n      tag_54\n      swap2\n      swap1\n      tag_41\n      jump\t// in\n    tag_54:\n      tag_55\n      jump\t// in\n    tag_53:\n      stop\n        /* \"conduit/ConduitController.sol\":13497:14281  function getConduit(bytes32 conduitKey)... */\n    tag_11:\n      tag_56\n      0x04\n      dup1\n      calldatasize\n      sub\n      dup2\n      add\n      swap1\n      tag_57\n      swap2\n      swap1\n      tag_58\n      jump\t// in\n    tag_57:\n      tag_59\n      jump\t// in\n    tag_56:\n      mload(0x40)\n      tag_60\n      swap3\n      swap2\n      swap1\n      tag_61\n      jump\t// in\n    tag_60:\n      mload(0x40)\n      dup1\n      swap2\n      sub\n      swap1\n      return\n        /* \"conduit/ConduitController.sol\":2328:4454  function createConduit(bytes32 conduitKey, address initialOwner)... */\n    tag_12:\n      tag_62\n      0x04\n      dup1\n      calldatasize\n      sub\n      dup2\n      add\n      swap1\n      tag_63\n      swap2\n      swap1\n      tag_64\n      jump\t// in\n    tag_63:\n      tag_65\n      jump\t// in\n    tag_62:\n      mload(0x40)\n      tag_66\n      swap2\n      swap1\n      tag_25\n      jump\t// in\n    tag_66:\n      mload(0x40)\n      dup1\n      swap2\n      sub\n      swap1\n      return\n        /* \"conduit/ConduitController.sol\":9841:10489  function cancelOwnershipTransfer(address conduit) external override {... */\n    tag_13:\n      tag_67\n      0x04\n      dup1\n      calldatasize\n      sub\n      dup2\n      add\n      swap1\n      tag_68\n      swap2\n      swap1\n      tag_36\n      jump\t// in\n    tag_68:\n      tag_69\n      jump\t// in\n    tag_67:\n      stop\n        /* \"conduit/ConduitController.sol\":18043:18399  function getChannels(address conduit)... */\n    tag_14:\n      tag_70\n      0x04\n      dup1\n      calldatasize\n      sub\n      dup2\n      add\n      swap1\n      tag_71\n      swap2\n      swap1\n      tag_36\n      jump\t// in\n    tag_71:\n      tag_72\n      jump\t// in\n    tag_70:\n      mload(0x40)\n      tag_73\n      swap2\n      swap1\n      tag_74\n      jump\t// in\n    tag_73:\n      mload(0x40)\n      dup1\n      swap2\n      sub\n      swap1\n      return\n        /* \"conduit/ConduitController.sol\":14752:15126  function getPotentialOwner(address conduit)... */\n    tag_15:\n      tag_75\n      0x04\n      dup1\n      calldatasize\n      sub\n      dup2\n      add\n      swap1\n      tag_76\n      swap2\n      swap1\n      tag_36\n      jump\t// in\n    tag_76:\n      tag_77\n      jump\t// in\n    tag_75:\n      mload(0x40)\n      tag_78\n      swap2\n      swap1\n      tag_25\n      jump\t// in\n    tag_78:\n      mload(0x40)\n      dup1\n      swap2\n      sub\n      swap1\n      return\n        /* \"conduit/ConduitController.sol\":12654:13033  function getKey(address conduit)... */\n    tag_16:\n      tag_79\n      0x04\n      dup1\n      calldatasize\n      sub\n      dup2\n      add\n      swap1\n      tag_80\n      swap2\n      swap1\n      tag_36\n      jump\t// in\n    tag_80:\n      tag_81\n      jump\t// in\n    tag_79:\n      mload(0x40)\n      tag_82\n      swap2\n      swap1\n      tag_83\n      jump\t// in\n    tag_82:\n      mload(0x40)\n      dup1\n      swap2\n      sub\n      swap1\n      return\n        /* \"conduit/ConduitController.sol\":17000:17668  function getChannel(address conduit, uint256 channelIndex)... */\n    tag_23:\n        /* \"conduit/ConduitController.sol\":17123:17138  address channel */\n      0x00\n        /* \"conduit/ConduitController.sol\":17209:17238  _assertConduitExists(conduit) */\n      tag_85\n        /* \"conduit/ConduitController.sol\":17230:17237  conduit */\n      dup4\n        /* \"conduit/ConduitController.sol\":17209:17229  _assertConduitExists */\n      tag_86\n        /* \"conduit/ConduitController.sol\":17209:17238  _assertConduitExists(conduit) */\n      jump\t// in\n    tag_85:\n        /* \"conduit/ConduitController.sol\":17327:17348  uint256 totalChannels */\n      0x00\n        /* \"conduit/ConduitController.sol\":17351:17360  _conduits */\n      dup1\n        /* \"conduit/ConduitController.sol\":17351:17369  _conduits[conduit] */\n      0x00\n        /* \"conduit/ConduitController.sol\":17361:17368  conduit */\n      dup6\n        /* \"conduit/ConduitController.sol\":17351:17369  _conduits[conduit] */\n      0xffffffffffffffffffffffffffffffffffffffff\n      and\n      0xffffffffffffffffffffffffffffffffffffffff\n      and\n      dup2\n      mstore\n      0x20\n      add\n      swap1\n      dup2\n      mstore\n      0x20\n      add\n      0x00\n      keccak256\n        /* \"conduit/ConduitController.sol\":17351:17378  _conduits[conduit].channels */\n      0x03\n      add\n        /* \"conduit/ConduitController.sol\":17351:17385  _conduits[conduit].channels.length */\n      dup1\n      sload\n      swap1\n      pop\n        /* \"conduit/ConduitController.sol\":17327:17385  uint256 totalChannels = _conduits[conduit].channels.length */\n      swap1\n      pop\n        /* \"conduit/ConduitController.sol\":17475:17488  totalChannels */\n      dup1\n        /* \"conduit/ConduitController.sol\":17459:17471  channelIndex */\n      dup4\n        /* \"conduit/ConduitController.sol\":17459:17488  channelIndex >= totalChannels */\n      lt\n        /* \"conduit/ConduitController.sol\":17455:17548  if (channelIndex >= totalChannels) {... */\n      tag_87\n      jumpi\n        /* \"conduit/ConduitController.sol\":17529:17536  conduit */\n      dup4\n        /* \"conduit/ConduitController.sol\":17511:17537  ChannelOutOfRange(conduit) */\n      mload(0x40)\n      0x6ceb340b00000000000000000000000000000000000000000000000000000000\n      dup2\n      mstore\n      0x04\n      add\n      tag_88\n      swap2\n      swap1\n      tag_25\n      jump\t// in\n    tag_88:\n      mload(0x40)\n      dup1\n      swap2\n      sub\n      swap1\n      revert\n        /* \"conduit/ConduitController.sol\":17455:17548  if (channelIndex >= totalChannels) {... */\n    tag_87:\n        /* \"conduit/ConduitController.sol\":17620:17629  _conduits */\n      0x00\n        /* \"conduit/ConduitController.sol\":17620:17638  _conduits[conduit] */\n      dup1\n        /* \"conduit/ConduitController.sol\":17630:17637  conduit */\n      dup6\n        /* \"conduit/ConduitController.sol\":17620:17638  _conduits[conduit] */\n      0xffffffffffffffffffffffffffffffffffffffff\n      and\n      0xffffffffffffffffffffffffffffffffffffffff\n      and\n      dup2\n      mstore\n      0x20\n      add\n      swap1\n      dup2\n      mstore\n      0x20\n      add\n      0x00\n      keccak256\n        /* \"conduit/ConduitController.sol\":17620:17647  _conduits[conduit].channels */\n      0x03\n      add\n        /* \"conduit/ConduitController.sol\":17648:17660  channelIndex */\n      dup4\n        /* \"conduit/ConduitController.sol\":17620:17661  _conduits[conduit].channels[channelIndex] */\n      dup2\n      sload\n      dup2\n      lt\n      tag_89\n      jumpi\n      tag_90\n      tag_91\n      jump\t// in\n    tag_90:\n    tag_89:\n      swap1\n      0x00\n      mstore\n      keccak256(0x00, 0x20)\n      add\n      0x00\n      swap1\n      sload\n      swap1\n      0x0100\n      exp\n      swap1\n      div\n      0xffffffffffffffffffffffffffffffffffffffff\n      and\n        /* \"conduit/ConduitController.sol\":17610:17661  channel = _conduits[conduit].channels[channelIndex] */\n      swap2\n      pop\n        /* \"conduit/ConduitController.sol\":17144:17668  {... */\n      pop\n        /* \"conduit/ConduitController.sol\":17000:17668  function getChannel(address conduit, uint256 channelIndex)... */\n      swap3\n      swap2\n      pop\n      pop\n      jump\t// out\n        /* \"conduit/ConduitController.sol\":18493:18891  function getConduitCodeHashes()... */\n    tag_27:\n        /* \"conduit/ConduitController.sol\":18589:18613  bytes32 creationCodeHash */\n      0x00\n        /* \"conduit/ConduitController.sol\":18615:18638  bytes32 runtimeCodeHash */\n      dup1\n        /* \"conduit/ConduitController.sol\":18738:18765  _CONDUIT_CREATION_CODE_HASH */\n      immutable(\"0x5123ab44a95b9e316b860f114ea520934458fa7bff216e60c6945263bff2b6f8\")\n        /* \"conduit/ConduitController.sol\":18719:18765  creationCodeHash = _CONDUIT_CREATION_CODE_HASH */\n      swap2\n      pop\n        /* \"conduit/ConduitController.sol\":18858:18884  _CONDUIT_RUNTIME_CODE_HASH */\n      immutable(\"0xb5ec0f20465329e13a2d85270cb78f65c575ccff472e4a205299224e150cb7e2\")\n        /* \"conduit/ConduitController.sol\":18840:18884  runtimeCodeHash = _CONDUIT_RUNTIME_CODE_HASH */\n      swap1\n      pop\n        /* \"conduit/ConduitController.sol\":18493:18891  function getConduitCodeHashes()... */\n      swap1\n      swap2\n      jump\t// out\n        /* \"conduit/ConduitController.sol\":5181:8161  function updateChannel(... */\n    tag_33:\n        /* \"conduit/ConduitController.sol\":5387:5423  _assertCallerIsConduitOwner(conduit) */\n      tag_95\n        /* \"conduit/ConduitController.sol\":5415:5422  conduit */\n      dup4\n        /* \"conduit/ConduitController.sol\":5387:5414  _assertCallerIsConduitOwner */\n      tag_96\n        /* \"conduit/ConduitController.sol\":5387:5423  _assertCallerIsConduitOwner(conduit) */\n      jump\t// in\n    tag_95:\n        /* \"conduit/ConduitController.sol\":5502:5509  conduit */\n      dup3\n        /* \"conduit/ConduitController.sol\":5485:5524  ConduitInterface(conduit).updateChannel */\n      0xffffffffffffffffffffffffffffffffffffffff\n      and\n      0xc4e8fcb5\n        /* \"conduit/ConduitController.sol\":5525:5532  channel */\n      dup4\n        /* \"conduit/ConduitController.sol\":5534:5540  isOpen */\n      dup4\n        /* \"conduit/ConduitController.sol\":5485:5541  ConduitInterface(conduit).updateChannel(channel, isOpen) */\n      mload(0x40)\n      dup4\n      0xffffffff\n      and\n      0xe0\n      shl\n      dup2\n      mstore\n      0x04\n      add\n      tag_97\n      swap3\n      swap2\n      swap1\n      tag_61\n      jump\t// in\n    tag_97:\n      0x00\n      mload(0x40)\n      dup1\n      dup4\n      sub\n      dup2\n      0x00\n      dup8\n      dup1\n      extcodesize\n      iszero\n      dup1\n      iszero\n      tag_98\n      jumpi\n      0x00\n      dup1\n      revert\n    tag_98:\n      pop\n      gas\n      call\n      iszero\n      dup1\n      iszero\n      tag_100\n      jumpi\n      returndatasize\n      0x00\n      dup1\n      returndatacopy\n      revert(0x00, returndatasize)\n    tag_100:\n      pop\n      pop\n      pop\n      pop\n        /* \"conduit/ConduitController.sol\":5631:5674  ConduitProperties storage conduitProperties */\n      0x00\n        /* \"conduit/ConduitController.sol\":5677:5686  _conduits */\n      dup1\n        /* \"conduit/ConduitController.sol\":5677:5695  _conduits[conduit] */\n      0x00\n        /* \"conduit/ConduitController.sol\":5687:5694  conduit */\n      dup6\n        /* \"conduit/ConduitController.sol\":5677:5695  _conduits[conduit] */\n      0xffffffffffffffffffffffffffffffffffffffff\n      and\n      0xffffffffffffffffffffffffffffffffffffffff\n      and\n      dup2\n      mstore\n      0x20\n      add\n      swap1\n      dup2\n      mstore\n      0x20\n      add\n      0x00\n      keccak256\n        /* \"conduit/ConduitController.sol\":5631:5695  ConduitProperties storage conduitProperties = _conduits[conduit] */\n      swap1\n      pop\n        /* \"conduit/ConduitController.sol\":5787:5814  uint256 channelIndexPlusOne */\n      0x00\n        /* \"conduit/ConduitController.sol\":5831:5848  conduitProperties */\n      dup2\n        /* \"conduit/ConduitController.sol\":5831:5870  conduitProperties.channelIndexesPlusOne */\n      0x04\n      add\n        /* \"conduit/ConduitController.sol\":5831:5879  conduitProperties.channelIndexesPlusOne[channel] */\n      0x00\n        /* \"conduit/ConduitController.sol\":5871:5878  channel */\n      dup6\n        /* \"conduit/ConduitController.sol\":5831:5879  conduitProperties.channelIndexesPlusOne[channel] */\n      0xffffffffffffffffffffffffffffffffffffffff\n      and\n      0xffffffffffffffffffffffffffffffffffffffff\n      and\n      dup2\n      mstore\n      0x20\n      add\n      swap1\n      dup2\n      mstore\n      0x20\n      add\n      0x00\n      keccak256\n      sload\n        /* \"conduit/ConduitController.sol\":5787:5889  uint256 channelIndexPlusOne = (... */\n      swap1\n      pop\n        /* \"conduit/ConduitController.sol\":5977:6003  bool channelPreviouslyOpen */\n      0x00\n        /* \"conduit/ConduitController.sol\":6029:6030  0 */\n      dup1\n        /* \"conduit/ConduitController.sol\":6006:6025  channelIndexPlusOne */\n      dup3\n        /* \"conduit/ConduitController.sol\":6006:6030  channelIndexPlusOne != 0 */\n      eq\n      iszero\n        /* \"conduit/ConduitController.sol\":5977:6030  bool channelPreviouslyOpen = channelIndexPlusOne != 0 */\n      swap1\n      pop\n        /* \"conduit/ConduitController.sol\":6121:6127  isOpen */\n      dup4\n        /* \"conduit/ConduitController.sol\":6121:6153  isOpen && !channelPreviouslyOpen */\n      dup1\n      iszero\n      tag_101\n      jumpi\n      pop\n        /* \"conduit/ConduitController.sol\":6132:6153  channelPreviouslyOpen */\n      dup1\n        /* \"conduit/ConduitController.sol\":6131:6153  !channelPreviouslyOpen */\n      iszero\n        /* \"conduit/ConduitController.sol\":6121:6153  isOpen && !channelPreviouslyOpen */\n    tag_101:\n        /* \"conduit/ConduitController.sol\":6117:8155  if (isOpen && !channelPreviouslyOpen) {... */\n      iszero\n      tag_102\n      jumpi\n        /* \"conduit/ConduitController.sol\":6239:6256  conduitProperties */\n      dup3\n        /* \"conduit/ConduitController.sol\":6239:6265  conduitProperties.channels */\n      0x03\n      add\n        /* \"conduit/ConduitController.sol\":6271:6278  channel */\n      dup6\n        /* \"conduit/ConduitController.sol\":6239:6279  conduitProperties.channels.push(channel) */\n      swap1\n      dup1\n      0x01\n      dup2\n      sload\n      add\n      dup1\n      dup3\n      sstore\n      dup1\n      swap2\n      pop\n      pop\n      0x01\n      swap1\n      sub\n      swap1\n      0x00\n      mstore\n      keccak256(0x00, 0x20)\n      add\n      0x00\n      swap1\n      swap2\n      swap1\n      swap2\n      swap1\n      swap2\n      0x0100\n      exp\n      dup2\n      sload\n      dup2\n      0xffffffffffffffffffffffffffffffffffffffff\n      mul\n      not\n      and\n      swap1\n      dup4\n      0xffffffffffffffffffffffffffffffffffffffff\n      and\n      mul\n      or\n      swap1\n      sstore\n      pop\n        /* \"conduit/ConduitController.sol\":6442:6459  conduitProperties */\n      dup3\n        /* \"conduit/ConduitController.sol\":6442:6468  conduitProperties.channels */\n      0x03\n      add\n        /* \"conduit/ConduitController.sol\":6442:6475  conduitProperties.channels.length */\n      dup1\n      sload\n      swap1\n      pop\n        /* \"conduit/ConduitController.sol\":6373:6390  conduitProperties */\n      dup4\n        /* \"conduit/ConduitController.sol\":6373:6412  conduitProperties.channelIndexesPlusOne */\n      0x04\n      add\n        /* \"conduit/ConduitController.sol\":6373:6421  conduitProperties.channelIndexesPlusOne[channel] */\n      0x00\n        /* \"conduit/ConduitController.sol\":6413:6420  channel */\n      dup8\n        /* \"conduit/ConduitController.sol\":6373:6421  conduitProperties.channelIndexesPlusOne[channel] */\n      0xffffffffffffffffffffffffffffffffffffffff\n      and\n      0xffffffffffffffffffffffffffffffffffffffff\n      and\n      dup2\n      mstore\n      0x20\n      add\n      swap1\n      dup2\n      mstore\n      0x20\n      add\n      0x00\n      keccak256\n        /* \"conduit/ConduitController.sol\":6373:6489  conduitProperties.channelIndexesPlusOne[channel] = (... */\n      dup2\n      swap1\n      sstore\n      pop\n        /* \"conduit/ConduitController.sol\":6117:8155  if (isOpen && !channelPreviouslyOpen) {... */\n      jump(tag_104)\n    tag_102:\n        /* \"conduit/ConduitController.sol\":6511:6517  isOpen */\n      dup4\n        /* \"conduit/ConduitController.sol\":6510:6517  !isOpen */\n      iszero\n        /* \"conduit/ConduitController.sol\":6510:6542  !isOpen && channelPreviouslyOpen */\n      dup1\n      iszero\n      tag_105\n      jumpi\n      pop\n        /* \"conduit/ConduitController.sol\":6521:6542  channelPreviouslyOpen */\n      dup1\n        /* \"conduit/ConduitController.sol\":6510:6542  !isOpen && channelPreviouslyOpen */\n    tag_105:\n        /* \"conduit/ConduitController.sol\":6506:8155  if (!isOpen && channelPreviouslyOpen) {... */\n      iszero\n      tag_106\n      jumpi\n        /* \"conduit/ConduitController.sol\":6717:6744  uint256 removedChannelIndex */\n      0x00\n        /* \"conduit/ConduitController.sol\":6963:6964  1 */\n      0x01\n        /* \"conduit/ConduitController.sol\":6941:6960  channelIndexPlusOne */\n      dup4\n        /* \"conduit/ConduitController.sol\":6941:6964  channelIndexPlusOne - 1 */\n      sub\n        /* \"conduit/ConduitController.sol\":6919:6964  removedChannelIndex = channelIndexPlusOne - 1 */\n      swap1\n      pop\n        /* \"conduit/ConduitController.sol\":7073:7098  uint256 finalChannelIndex */\n      0x00\n        /* \"conduit/ConduitController.sol\":7137:7138  1 */\n      0x01\n        /* \"conduit/ConduitController.sol\":7101:7118  conduitProperties */\n      dup6\n        /* \"conduit/ConduitController.sol\":7101:7127  conduitProperties.channels */\n      0x03\n      add\n        /* \"conduit/ConduitController.sol\":7101:7134  conduitProperties.channels.length */\n      dup1\n      sload\n      swap1\n      pop\n        /* \"conduit/ConduitController.sol\":7101:7138  conduitProperties.channels.length - 1 */\n      tag_107\n      swap2\n      swap1\n      tag_108\n      jump\t// in\n    tag_107:\n        /* \"conduit/ConduitController.sol\":7073:7138  uint256 finalChannelIndex = conduitProperties.channels.length - 1 */\n      swap1\n      pop\n        /* \"conduit/ConduitController.sol\":7256:7275  removedChannelIndex */\n      dup2\n        /* \"conduit/ConduitController.sol\":7235:7252  finalChannelIndex */\n      dup2\n        /* \"conduit/ConduitController.sol\":7235:7275  finalChannelIndex != removedChannelIndex */\n      eq\n        /* \"conduit/ConduitController.sol\":7231:7871  if (finalChannelIndex != removedChannelIndex) {... */\n      tag_109\n      jumpi\n        /* \"conduit/ConduitController.sol\":7375:7395  address finalChannel */\n      0x00\n        /* \"conduit/ConduitController.sol\":7420:7437  conduitProperties */\n      dup6\n        /* \"conduit/ConduitController.sol\":7420:7446  conduitProperties.channels */\n      0x03\n      add\n        /* \"conduit/ConduitController.sol\":7447:7464  finalChannelIndex */\n      dup3\n        /* \"conduit/ConduitController.sol\":7420:7465  conduitProperties.channels[finalChannelIndex] */\n      dup2\n      sload\n      dup2\n      lt\n      tag_110\n      jumpi\n      tag_111\n      tag_91\n      jump\t// in\n    tag_111:\n    tag_110:\n      swap1\n      0x00\n      mstore\n      keccak256(0x00, 0x20)\n      add\n      0x00\n      swap1\n      sload\n      swap1\n      0x0100\n      exp\n      swap1\n      div\n      0xffffffffffffffffffffffffffffffffffffffff\n      and\n        /* \"conduit/ConduitController.sol\":7375:7483  address finalChannel = (... */\n      swap1\n      pop\n        /* \"conduit/ConduitController.sol\":7632:7644  finalChannel */\n      dup1\n        /* \"conduit/ConduitController.sol\":7582:7599  conduitProperties */\n      dup7\n        /* \"conduit/ConduitController.sol\":7582:7608  conduitProperties.channels */\n      0x03\n      add\n        /* \"conduit/ConduitController.sol\":7609:7628  removedChannelIndex */\n      dup5\n        /* \"conduit/ConduitController.sol\":7582:7629  conduitProperties.channels[removedChannelIndex] */\n      dup2\n      sload\n      dup2\n      lt\n      tag_113\n      jumpi\n      tag_114\n      tag_91\n      jump\t// in\n    tag_114:\n    tag_113:\n      swap1\n      0x00\n      mstore\n      keccak256(0x00, 0x20)\n      add\n      0x00\n        /* \"conduit/ConduitController.sol\":7582:7644  conduitProperties.channels[removedChannelIndex] = finalChannel */\n      0x0100\n      exp\n      dup2\n      sload\n      dup2\n      0xffffffffffffffffffffffffffffffffffffffff\n      mul\n      not\n      and\n      swap1\n      dup4\n      0xffffffffffffffffffffffffffffffffffffffff\n      and\n      mul\n      or\n      swap1\n      sstore\n      pop\n        /* \"conduit/ConduitController.sol\":7819:7838  channelIndexPlusOne */\n      dup5\n        /* \"conduit/ConduitController.sol\":7741:7758  conduitProperties */\n      dup7\n        /* \"conduit/ConduitController.sol\":7741:7780  conduitProperties.channelIndexesPlusOne */\n      0x04\n      add\n        /* \"conduit/ConduitController.sol\":7741:7794  conduitProperties.channelIndexesPlusOne[finalChannel] */\n      0x00\n        /* \"conduit/ConduitController.sol\":7781:7793  finalChannel */\n      dup4\n        /* \"conduit/ConduitController.sol\":7741:7794  conduitProperties.channelIndexesPlusOne[finalChannel] */\n      0xffffffffffffffffffffffffffffffffffffffff\n      and\n      0xffffffffffffffffffffffffffffffffffffffff\n      and\n      dup2\n      mstore\n      0x20\n      add\n      swap1\n      dup2\n      mstore\n      0x20\n      add\n      0x00\n      keccak256\n        /* \"conduit/ConduitController.sol\":7741:7856  conduitProperties.channelIndexesPlusOne[finalChannel] = (... */\n      dup2\n      swap1\n      sstore\n      pop\n        /* \"conduit/ConduitController.sol\":7277:7871  {... */\n      pop\n        /* \"conduit/ConduitController.sol\":7231:7871  if (finalChannelIndex != removedChannelIndex) {... */\n    tag_109:\n        /* \"conduit/ConduitController.sol\":7965:7982  conduitProperties */\n      dup5\n        /* \"conduit/ConduitController.sol\":7965:7991  conduitProperties.channels */\n      0x03\n      add\n        /* \"conduit/ConduitController.sol\":7965:7997  conduitProperties.channels.pop() */\n      dup1\n      sload\n      dup1\n      tag_116\n      jumpi\n      tag_117\n      tag_118\n      jump\t// in\n    tag_117:\n    tag_116:\n      0x01\n      swap1\n      sub\n      dup2\n      dup2\n      swap1\n      0x00\n      mstore\n      keccak256(0x00, 0x20)\n      add\n      exp(0x0100, 0x00)\n      dup2\n      sload\n      swap1\n      0xffffffffffffffffffffffffffffffffffffffff\n      mul\n      not\n      and\n      swap1\n      sstore\n      swap1\n      sstore\n        /* \"conduit/ConduitController.sol\":8096:8113  conduitProperties */\n      dup5\n        /* \"conduit/ConduitController.sol\":8096:8135  conduitProperties.channelIndexesPlusOne */\n      0x04\n      add\n        /* \"conduit/ConduitController.sol\":8096:8144  conduitProperties.channelIndexesPlusOne[channel] */\n      0x00\n        /* \"conduit/ConduitController.sol\":8136:8143  channel */\n      dup9\n        /* \"conduit/ConduitController.sol\":8096:8144  conduitProperties.channelIndexesPlusOne[channel] */\n      0xffffffffffffffffffffffffffffffffffffffff\n      and\n      0xffffffffffffffffffffffffffffffffffffffff\n      and\n      dup2\n      mstore\n      0x20\n      add\n      swap1\n      dup2\n      mstore\n      0x20\n      add\n      0x00\n      keccak256\n        /* \"conduit/ConduitController.sol\":8089:8144  delete conduitProperties.channelIndexesPlusOne[channel] */\n      0x00\n      swap1\n      sstore\n        /* \"conduit/ConduitController.sol\":6544:8155  {... */\n      pop\n      pop\n        /* \"conduit/ConduitController.sol\":6506:8155  if (!isOpen && channelPreviouslyOpen) {... */\n    tag_106:\n        /* \"conduit/ConduitController.sol\":6117:8155  if (isOpen && !channelPreviouslyOpen) {... */\n    tag_104:\n        /* \"conduit/ConduitController.sol\":5299:8161  {... */\n      pop\n      pop\n      pop\n        /* \"conduit/ConduitController.sol\":5181:8161  function updateChannel(... */\n      pop\n      pop\n      pop\n      jump\t// out\n        /* \"conduit/ConduitController.sol\":12008:12335  function ownerOf(address conduit)... */\n    tag_37:\n        /* \"conduit/ConduitController.sol\":12106:12119  address owner */\n      0x00\n        /* \"conduit/ConduitController.sol\":12190:12219  _assertConduitExists(conduit) */\n      tag_121\n        /* \"conduit/ConduitController.sol\":12211:12218  conduit */\n      dup3\n        /* \"conduit/ConduitController.sol\":12190:12210  _assertConduitExists */\n      tag_86\n        /* \"conduit/ConduitController.sol\":12190:12219  _assertConduitExists(conduit) */\n      jump\t// in\n    tag_121:\n        /* \"conduit/ConduitController.sol\":12304:12313  _conduits */\n      0x00\n        /* \"conduit/ConduitController.sol\":12304:12322  _conduits[conduit] */\n      dup1\n        /* \"conduit/ConduitController.sol\":12314:12321  conduit */\n      dup4\n        /* \"conduit/ConduitController.sol\":12304:12322  _conduits[conduit] */\n      0xffffffffffffffffffffffffffffffffffffffff\n      and\n      0xffffffffffffffffffffffffffffffffffffffff\n      and\n      dup2\n      mstore\n      0x20\n      add\n      swap1\n      dup2\n      mstore\n      0x20\n      add\n      0x00\n      keccak256\n        /* \"conduit/ConduitController.sol\":12304:12328  _conduits[conduit].owner */\n      0x01\n      add\n      0x00\n      swap1\n      sload\n      swap1\n      0x0100\n      exp\n      swap1\n      div\n      0xffffffffffffffffffffffffffffffffffffffff\n      and\n        /* \"conduit/ConduitController.sol\":12296:12328  owner = _conduits[conduit].owner */\n      swap1\n      pop\n        /* \"conduit/ConduitController.sol\":12008:12335  function ownerOf(address conduit)... */\n      swap2\n      swap1\n      pop\n      jump\t// out\n        /* \"conduit/ConduitController.sol\":15483:15875  function getChannelStatus(address conduit, address channel)... */\n    tag_42:\n        /* \"conduit/ConduitController.sol\":15607:15618  bool isOpen */\n      0x00\n        /* \"conduit/ConduitController.sol\":15689:15718  _assertConduitExists(conduit) */\n      tag_123\n        /* \"conduit/ConduitController.sol\":15710:15717  conduit */\n      dup4\n        /* \"conduit/ConduitController.sol\":15689:15709  _assertConduitExists */\n      tag_86\n        /* \"conduit/ConduitController.sol\":15689:15718  _assertConduitExists(conduit) */\n      jump\t// in\n    tag_123:\n        /* \"conduit/ConduitController.sol\":15867:15868  0 */\n      0x00\n        /* \"conduit/ConduitController.sol\":15814:15823  _conduits */\n      dup1\n        /* \"conduit/ConduitController.sol\":15814:15832  _conduits[conduit] */\n      0x00\n        /* \"conduit/ConduitController.sol\":15824:15831  conduit */\n      dup6\n        /* \"conduit/ConduitController.sol\":15814:15832  _conduits[conduit] */\n      0xffffffffffffffffffffffffffffffffffffffff\n      and\n      0xffffffffffffffffffffffffffffffffffffffff\n      and\n      dup2\n      mstore\n      0x20\n      add\n      swap1\n      dup2\n      mstore\n      0x20\n      add\n      0x00\n      keccak256\n        /* \"conduit/ConduitController.sol\":15814:15854  _conduits[conduit].channelIndexesPlusOne */\n      0x04\n      add\n        /* \"conduit/ConduitController.sol\":15814:15863  _conduits[conduit].channelIndexesPlusOne[channel] */\n      0x00\n        /* \"conduit/ConduitController.sol\":15855:15862  channel */\n      dup5\n        /* \"conduit/ConduitController.sol\":15814:15863  _conduits[conduit].channelIndexesPlusOne[channel] */\n      0xffffffffffffffffffffffffffffffffffffffff\n      and\n      0xffffffffffffffffffffffffffffffffffffffff\n      and\n      dup2\n      mstore\n      0x20\n      add\n      swap1\n      dup2\n      mstore\n      0x20\n      add\n      0x00\n      keccak256\n      sload\n        /* \"conduit/ConduitController.sol\":15814:15868  _conduits[conduit].channelIndexesPlusOne[channel] != 0 */\n      eq\n      iszero\n        /* \"conduit/ConduitController.sol\":15805:15868  isOpen = _conduits[conduit].channelIndexesPlusOne[channel] != 0 */\n      swap1\n      pop\n        /* \"conduit/ConduitController.sol\":15483:15875  function getChannelStatus(address conduit, address channel)... */\n      swap3\n      swap2\n      pop\n      pop\n      jump\t// out\n        /* \"conduit/ConduitController.sol\":16151:16525  function getTotalChannels(address conduit)... */\n    tag_47:\n        /* \"conduit/ConduitController.sol\":16258:16279  uint256 totalChannels */\n      0x00\n        /* \"conduit/ConduitController.sol\":16350:16379  _assertConduitExists(conduit) */\n      tag_125\n        /* \"conduit/ConduitController.sol\":16371:16378  conduit */\n      dup3\n        /* \"conduit/ConduitController.sol\":16350:16370  _assertConduitExists */\n      tag_86\n        /* \"conduit/ConduitController.sol\":16350:16379  _assertConduitExists(conduit) */\n      jump\t// in\n    tag_125:\n        /* \"conduit/ConduitController.sol\":16484:16493  _conduits */\n      0x00\n        /* \"conduit/ConduitController.sol\":16484:16502  _conduits[conduit] */\n      dup1\n        /* \"conduit/ConduitController.sol\":16494:16501  conduit */\n      dup4\n        /* \"conduit/ConduitController.sol\":16484:16502  _conduits[conduit] */\n      0xffffffffffffffffffffffffffffffffffffffff\n      and\n      0xffffffffffffffffffffffffffffffffffffffff\n      and\n      dup2\n      mstore\n      0x20\n      add\n      swap1\n      dup2\n      mstore\n      0x20\n      add\n      0x00\n      keccak256\n        /* \"conduit/ConduitController.sol\":16484:16511  _conduits[conduit].channels */\n      0x03\n      add\n        /* \"conduit/ConduitController.sol\":16484:16518  _conduits[conduit].channels.length */\n      dup1\n      sload\n      swap1\n      pop\n        /* \"conduit/ConduitController.sol\":16468:16518  totalChannels = _conduits[conduit].channels.length */\n      swap1\n      pop\n        /* \"conduit/ConduitController.sol\":16151:16525  function getTotalChannels(address conduit)... */\n      swap2\n      swap1\n      pop\n      jump\t// out\n        /* \"conduit/ConduitController.sol\":10764:11773  function acceptOwnership(address conduit) external override {... */\n    tag_52:\n        /* \"conduit/ConduitController.sol\":10889:10918  _assertConduitExists(conduit) */\n      tag_127\n        /* \"conduit/ConduitController.sol\":10910:10917  conduit */\n      dup2\n        /* \"conduit/ConduitController.sol\":10889:10909  _assertConduitExists */\n      tag_86\n        /* \"conduit/ConduitController.sol\":10889:10918  _assertConduitExists(conduit) */\n      jump\t// in\n    tag_127:\n        /* \"conduit/ConduitController.sol\":11025:11034  _conduits */\n      0x00\n        /* \"conduit/ConduitController.sol\":11025:11043  _conduits[conduit] */\n      dup1\n        /* \"conduit/ConduitController.sol\":11035:11042  conduit */\n      dup3\n        /* \"conduit/ConduitController.sol\":11025:11043  _conduits[conduit] */\n      0xffffffffffffffffffffffffffffffffffffffff\n      and\n      0xffffffffffffffffffffffffffffffffffffffff\n      and\n      dup2\n      mstore\n      0x20\n      add\n      swap1\n      dup2\n      mstore\n      0x20\n      add\n      0x00\n      keccak256\n        /* \"conduit/ConduitController.sol\":11025:11058  _conduits[conduit].potentialOwner */\n      0x02\n      add\n      0x00\n      swap1\n      sload\n      swap1\n      0x0100\n      exp\n      swap1\n      div\n      0xffffffffffffffffffffffffffffffffffffffff\n      and\n        /* \"conduit/ConduitController.sol\":11011:11058  msg.sender != _conduits[conduit].potentialOwner */\n      0xffffffffffffffffffffffffffffffffffffffff\n      and\n        /* \"conduit/ConduitController.sol\":11011:11021  msg.sender */\n      caller\n        /* \"conduit/ConduitController.sol\":11011:11058  msg.sender != _conduits[conduit].potentialOwner */\n      0xffffffffffffffffffffffffffffffffffffffff\n      and\n      eq\n        /* \"conduit/ConduitController.sol\":11007:11207  if (msg.sender != _conduits[conduit].potentialOwner) {... */\n      tag_128\n      jumpi\n        /* \"conduit/ConduitController.sol\":11188:11195  conduit */\n      dup1\n        /* \"conduit/ConduitController.sol\":11159:11196  CallerIsNotNewPotentialOwner(conduit) */\n      mload(0x40)\n      0x88c3a11500000000000000000000000000000000000000000000000000000000\n      dup2\n      mstore\n      0x04\n      add\n      tag_129\n      swap2\n      swap1\n      tag_25\n      jump\t// in\n    tag_129:\n      mload(0x40)\n      dup1\n      swap2\n      sub\n      swap1\n      revert\n        /* \"conduit/ConduitController.sol\":11007:11207  if (msg.sender != _conduits[conduit].potentialOwner) {... */\n    tag_128:\n        /* \"conduit/ConduitController.sol\":11331:11332  0 */\n      0x00\n        /* \"conduit/ConduitController.sol\":11301:11334  PotentialOwnerUpdated(address(0)) */\n      0xffffffffffffffffffffffffffffffffffffffff\n      and\n      0x11a3cf439fb225bfe74225716b6774765670ec1060e3796802e62139d69974da\n      mload(0x40)\n      mload(0x40)\n      dup1\n      swap2\n      sub\n      swap1\n      log2\n        /* \"conduit/ConduitController.sol\":11456:11457  0 */\n      0x00\n        /* \"conduit/ConduitController.sol\":11412:11421  _conduits */\n      dup1\n        /* \"conduit/ConduitController.sol\":11412:11430  _conduits[conduit] */\n      0x00\n        /* \"conduit/ConduitController.sol\":11422:11429  conduit */\n      dup4\n        /* \"conduit/ConduitController.sol\":11412:11430  _conduits[conduit] */\n      0xffffffffffffffffffffffffffffffffffffffff\n      and\n      0xffffffffffffffffffffffffffffffffffffffff\n      and\n      dup2\n      mstore\n      0x20\n      add\n      swap1\n      dup2\n      mstore\n      0x20\n      add\n      0x00\n      keccak256\n        /* \"conduit/ConduitController.sol\":11412:11445  _conduits[conduit].potentialOwner */\n      0x02\n      add\n      0x00\n        /* \"conduit/ConduitController.sol\":11412:11458  _conduits[conduit].potentialOwner = address(0) */\n      0x0100\n      exp\n      dup2\n      sload\n      dup2\n      0xffffffffffffffffffffffffffffffffffffffff\n      mul\n      not\n      and\n      swap1\n      dup4\n      0xffffffffffffffffffffffffffffffffffffffff\n      and\n      mul\n      or\n      swap1\n      sstore\n      pop\n        /* \"conduit/ConduitController.sol\":11643:11653  msg.sender */\n      caller\n        /* \"conduit/ConduitController.sol\":11550:11663  OwnershipTransferred(... */\n      0xffffffffffffffffffffffffffffffffffffffff\n      and\n        /* \"conduit/ConduitController.sol\":11605:11614  _conduits */\n      0x00\n        /* \"conduit/ConduitController.sol\":11605:11623  _conduits[conduit] */\n      dup1\n        /* \"conduit/ConduitController.sol\":11615:11622  conduit */\n      dup4\n        /* \"conduit/ConduitController.sol\":11605:11623  _conduits[conduit] */\n      0xffffffffffffffffffffffffffffffffffffffff\n      and\n      0xffffffffffffffffffffffffffffffffffffffff\n      and\n      dup2\n      mstore\n      0x20\n      add\n      swap1\n      dup2\n      mstore\n      0x20\n      add\n      0x00\n      keccak256\n        /* \"conduit/ConduitController.sol\":11605:11629  _conduits[conduit].owner */\n      0x01\n      add\n      0x00\n      swap1\n      sload\n      swap1\n      0x0100\n      exp\n      swap1\n      div\n      0xffffffffffffffffffffffffffffffffffffffff\n      and\n        /* \"conduit/ConduitController.sol\":11550:11663  OwnershipTransferred(... */\n      0xffffffffffffffffffffffffffffffffffffffff\n      and\n        /* \"conduit/ConduitController.sol\":11584:11591  conduit */\n      dup3\n        /* \"conduit/ConduitController.sol\":11550:11663  OwnershipTransferred(... */\n      0xffffffffffffffffffffffffffffffffffffffff\n      and\n      0xc8894f26f396ce8c004245c8b7cd1b92103a6e4302fcbab883987149ac01b7ec\n      mload(0x40)\n      mload(0x40)\n      dup1\n      swap2\n      sub\n      swap1\n      log4\n        /* \"conduit/ConduitController.sol\":11756:11766  msg.sender */\n      caller\n        /* \"conduit/ConduitController.sol\":11729:11738  _conduits */\n      0x00\n        /* \"conduit/ConduitController.sol\":11729:11747  _conduits[conduit] */\n      dup1\n        /* \"conduit/ConduitController.sol\":11739:11746  conduit */\n      dup4\n        /* \"conduit/ConduitController.sol\":11729:11747  _conduits[conduit] */\n      0xffffffffffffffffffffffffffffffffffffffff\n      and\n      0xffffffffffffffffffffffffffffffffffffffff\n      and\n      dup2\n      mstore\n      0x20\n      add\n      swap1\n      dup2\n      mstore\n      0x20\n      add\n      0x00\n      keccak256\n        /* \"conduit/ConduitController.sol\":11729:11753  _conduits[conduit].owner */\n      0x01\n      add\n      0x00\n        /* \"conduit/ConduitController.sol\":11729:11766  _conduits[conduit].owner = msg.sender */\n      0x0100\n      exp\n      dup2\n      sload\n      dup2\n      0xffffffffffffffffffffffffffffffffffffffff\n      mul\n      not\n      and\n      swap1\n      dup4\n      0xffffffffffffffffffffffffffffffffffffffff\n      and\n      mul\n      or\n      swap1\n      sstore\n      pop\n        /* \"conduit/ConduitController.sol\":10764:11773  function acceptOwnership(address conduit) external override {... */\n      pop\n      jump\t// out\n        /* \"conduit/ConduitController.sol\":8654:9577  function transferOwnership(address conduit, address newPotentialOwner)... */\n    tag_55:\n        /* \"conduit/ConduitController.sol\":8851:8887  _assertCallerIsConduitOwner(conduit) */\n      tag_131\n        /* \"conduit/ConduitController.sol\":8879:8886  conduit */\n      dup3\n        /* \"conduit/ConduitController.sol\":8851:8878  _assertCallerIsConduitOwner */\n      tag_96\n        /* \"conduit/ConduitController.sol\":8851:8887  _assertCallerIsConduitOwner(conduit) */\n      jump\t// in\n    tag_131:\n        /* \"conduit/ConduitController.sol\":9000:9001  0 */\n      0x00\n        /* \"conduit/ConduitController.sol\":8971:9002  newPotentialOwner == address(0) */\n      0xffffffffffffffffffffffffffffffffffffffff\n      and\n        /* \"conduit/ConduitController.sol\":8971:8988  newPotentialOwner */\n      dup2\n        /* \"conduit/ConduitController.sol\":8971:9002  newPotentialOwner == address(0) */\n      0xffffffffffffffffffffffffffffffffffffffff\n      and\n      sub\n        /* \"conduit/ConduitController.sol\":8967:9075  if (newPotentialOwner == address(0)) {... */\n      tag_132\n      jumpi\n        /* \"conduit/ConduitController.sol\":9056:9063  conduit */\n      dup2\n        /* \"conduit/ConduitController.sol\":9025:9064  NewPotentialOwnerIsZeroAddress(conduit) */\n      mload(0x40)\n      0xa388d26300000000000000000000000000000000000000000000000000000000\n      dup2\n      mstore\n      0x04\n      add\n      tag_133\n      swap2\n      swap1\n      tag_25\n      jump\t// in\n    tag_133:\n      mload(0x40)\n      dup1\n      swap2\n      sub\n      swap1\n      revert\n        /* \"conduit/ConduitController.sol\":8967:9075  if (newPotentialOwner == address(0)) {... */\n    tag_132:\n        /* \"conduit/ConduitController.sol\":9172:9181  _conduits */\n      0x00\n        /* \"conduit/ConduitController.sol\":9172:9190  _conduits[conduit] */\n      dup1\n        /* \"conduit/ConduitController.sol\":9182:9189  conduit */\n      dup4\n        /* \"conduit/ConduitController.sol\":9172:9190  _conduits[conduit] */\n      0xffffffffffffffffffffffffffffffffffffffff\n      and\n      0xffffffffffffffffffffffffffffffffffffffff\n      and\n      dup2\n      mstore\n      0x20\n      add\n      swap1\n      dup2\n      mstore\n      0x20\n      add\n      0x00\n      keccak256\n        /* \"conduit/ConduitController.sol\":9172:9205  _conduits[conduit].potentialOwner */\n      0x02\n      add\n      0x00\n      swap1\n      sload\n      swap1\n      0x0100\n      exp\n      swap1\n      div\n      0xffffffffffffffffffffffffffffffffffffffff\n      and\n        /* \"conduit/ConduitController.sol\":9151:9205  newPotentialOwner == _conduits[conduit].potentialOwner */\n      0xffffffffffffffffffffffffffffffffffffffff\n      and\n        /* \"conduit/ConduitController.sol\":9151:9168  newPotentialOwner */\n      dup2\n        /* \"conduit/ConduitController.sol\":9151:9205  newPotentialOwner == _conduits[conduit].potentialOwner */\n      0xffffffffffffffffffffffffffffffffffffffff\n      and\n      sub\n        /* \"conduit/ConduitController.sol\":9147:9294  if (newPotentialOwner == _conduits[conduit].potentialOwner) {... */\n      tag_134\n      jumpi\n        /* \"conduit/ConduitController.sol\":9256:9263  conduit */\n      dup2\n        /* \"conduit/ConduitController.sol\":9265:9282  newPotentialOwner */\n      dup2\n        /* \"conduit/ConduitController.sol\":9228:9283  NewPotentialOwnerAlreadySet(conduit, newPotentialOwner) */\n      mload(0x40)\n      0xcbc080ca00000000000000000000000000000000000000000000000000000000\n      dup2\n      mstore\n      0x04\n      add\n      tag_135\n      swap3\n      swap2\n      swap1\n      tag_136\n      jump\t// in\n    tag_135:\n      mload(0x40)\n      dup1\n      swap2\n      sub\n      swap1\n      revert\n        /* \"conduit/ConduitController.sol\":9147:9294  if (newPotentialOwner == _conduits[conduit].potentialOwner) {... */\n    tag_134:\n        /* \"conduit/ConduitController.sol\":9410:9427  newPotentialOwner */\n      dup1\n        /* \"conduit/ConduitController.sol\":9388:9428  PotentialOwnerUpdated(newPotentialOwner) */\n      0xffffffffffffffffffffffffffffffffffffffff\n      and\n      0x11a3cf439fb225bfe74225716b6774765670ec1060e3796802e62139d69974da\n      mload(0x40)\n      mload(0x40)\n      dup1\n      swap2\n      sub\n      swap1\n      log2\n        /* \"conduit/ConduitController.sol\":9553:9570  newPotentialOwner */\n      dup1\n        /* \"conduit/ConduitController.sol\":9517:9526  _conduits */\n      0x00\n        /* \"conduit/ConduitController.sol\":9517:9535  _conduits[conduit] */\n      dup1\n        /* \"conduit/ConduitController.sol\":9527:9534  conduit */\n      dup5\n        /* \"conduit/ConduitController.sol\":9517:9535  _conduits[conduit] */\n      0xffffffffffffffffffffffffffffffffffffffff\n      and\n      0xffffffffffffffffffffffffffffffffffffffff\n      and\n      dup2\n      mstore\n      0x20\n      add\n      swap1\n      dup2\n      mstore\n      0x20\n      add\n      0x00\n      keccak256\n        /* \"conduit/ConduitController.sol\":9517:9550  _conduits[conduit].potentialOwner */\n      0x02\n      add\n      0x00\n        /* \"conduit/ConduitController.sol\":9517:9570  _conduits[conduit].potentialOwner = newPotentialOwner */\n      0x0100\n      exp\n      dup2\n      sload\n      dup2\n      0xffffffffffffffffffffffffffffffffffffffff\n      mul\n      not\n      and\n      swap1\n      dup4\n      0xffffffffffffffffffffffffffffffffffffffff\n      and\n      mul\n      or\n      swap1\n      sstore\n      pop\n        /* \"conduit/ConduitController.sol\":8654:9577  function transferOwnership(address conduit, address newPotentialOwner)... */\n      pop\n      pop\n      jump\t// out\n        /* \"conduit/ConduitController.sol\":13497:14281  function getConduit(bytes32 conduitKey)... */\n    tag_59:\n        /* \"conduit/ConduitController.sol\":13601:13616  address conduit */\n      0x00\n        /* \"conduit/ConduitController.sol\":13618:13629  bool exists */\n      dup1\n        /* \"conduit/ConduitController.sol\":13895:13899  0xff */\n      0xff\n        /* \"conduit/ConduitController.sol\":13888:13900  bytes1(0xff) */\n      0xf8\n      shl\n        /* \"conduit/ConduitController.sol\":13938:13942  this */\n      address\n        /* \"conduit/ConduitController.sol\":13973:13983  conduitKey */\n      dup5\n        /* \"conduit/ConduitController.sol\":14013:14040  _CONDUIT_CREATION_CODE_HASH */\n      immutable(\"0x5123ab44a95b9e316b860f114ea520934458fa7bff216e60c6945263bff2b6f8\")\n        /* \"conduit/ConduitController.sol\":13842:14066  abi.encodePacked(... */\n      add(0x20, mload(0x40))\n      tag_138\n      swap5\n      swap4\n      swap3\n      swap2\n      swap1\n      tag_139\n      jump\t// in\n    tag_138:\n      mload(0x40)\n      0x20\n      dup2\n      dup4\n      sub\n      sub\n      dup2\n      mstore\n      swap1\n      0x40\n      mstore\n        /* \"conduit/ConduitController.sol\":13807:14088  keccak256(... */\n      dup1\n      mload\n      swap1\n      0x20\n      add\n      keccak256\n        /* \"conduit/ConduitController.sol\":13778:14106  uint256(... */\n      0x00\n      shr\n        /* \"conduit/ConduitController.sol\":13722:14130  conduit = address(... */\n      swap2\n      pop\n        /* \"conduit/ConduitController.sol\":14247:14273  _CONDUIT_RUNTIME_CODE_HASH */\n      immutable(\"0xb5ec0f20465329e13a2d85270cb78f65c575ccff472e4a205299224e150cb7e2\")\n        /* \"conduit/ConduitController.sol\":14227:14234  conduit */\n      dup3\n        /* \"conduit/ConduitController.sol\":14227:14243  conduit.codehash */\n      0xffffffffffffffffffffffffffffffffffffffff\n      and\n      extcodehash\n        /* \"conduit/ConduitController.sol\":14227:14273  conduit.codehash == _CONDUIT_RUNTIME_CODE_HASH */\n      eq\n        /* \"conduit/ConduitController.sol\":14217:14274  exists = (conduit.codehash == _CONDUIT_RUNTIME_CODE_HASH) */\n      swap1\n      pop\n        /* \"conduit/ConduitController.sol\":13497:14281  function getConduit(bytes32 conduitKey)... */\n      swap2\n      pop\n      swap2\n      jump\t// out\n        /* \"conduit/ConduitController.sol\":2328:4454  function createConduit(bytes32 conduitKey, address initialOwner)... */\n    tag_65:\n        /* \"conduit/ConduitController.sol\":2444:2459  address conduit */\n      0x00\n        /* \"conduit/ConduitController.sol\":2562:2563  0 */\n      dup1\n        /* \"conduit/ConduitController.sol\":2538:2564  initialOwner == address(0) */\n      0xffffffffffffffffffffffffffffffffffffffff\n      and\n        /* \"conduit/ConduitController.sol\":2538:2550  initialOwner */\n      dup3\n        /* \"conduit/ConduitController.sol\":2538:2564  initialOwner == address(0) */\n      0xffffffffffffffffffffffffffffffffffffffff\n      and\n      sub\n        /* \"conduit/ConduitController.sol\":2534:2619  if (initialOwner == address(0)) {... */\n      tag_141\n      jumpi\n        /* \"conduit/ConduitController.sol\":2587:2608  InvalidInitialOwner() */\n      mload(0x40)\n      0x99faaa0400000000000000000000000000000000000000000000000000000000\n      dup2\n      mstore\n      0x04\n      add\n      mload(0x40)\n      dup1\n      swap2\n      sub\n      swap1\n      revert\n        /* \"conduit/ConduitController.sol\":2534:2619  if (initialOwner == address(0)) {... */\n    tag_141:\n        /* \"conduit/ConduitController.sol\":2753:2763  msg.sender */\n      caller\n        /* \"conduit/ConduitController.sol\":2712:2763  address(uint160(bytes20(conduitKey))) != msg.sender */\n      0xffffffffffffffffffffffffffffffffffffffff\n      and\n        /* \"conduit/ConduitController.sol\":2736:2746  conduitKey */\n      dup4\n        /* \"conduit/ConduitController.sol\":2720:2748  uint160(bytes20(conduitKey)) */\n      0x60\n      shr\n        /* \"conduit/ConduitController.sol\":2712:2763  address(uint160(bytes20(conduitKey))) != msg.sender */\n      0xffffffffffffffffffffffffffffffffffffffff\n      and\n      eq\n        /* \"conduit/ConduitController.sol\":2708:2889  if (address(uint160(bytes20(conduitKey))) != msg.sender) {... */\n      tag_142\n      jumpi\n        /* \"conduit/ConduitController.sol\":2862:2878  InvalidCreator() */\n      mload(0x40)\n      0xcb6e534400000000000000000000000000000000000000000000000000000000\n      dup2\n      mstore\n      0x04\n      add\n      mload(0x40)\n      dup1\n      swap2\n      sub\n      swap1\n      revert\n        /* \"conduit/ConduitController.sol\":2708:2889  if (address(uint160(bytes20(conduitKey))) != msg.sender) {... */\n    tag_142:\n        /* \"conduit/ConduitController.sol\":3149:3153  0xff */\n      0xff\n        /* \"conduit/ConduitController.sol\":3142:3154  bytes1(0xff) */\n      0xf8\n      shl\n        /* \"conduit/ConduitController.sol\":3192:3196  this */\n      address\n        /* \"conduit/ConduitController.sol\":3227:3237  conduitKey */\n      dup5\n        /* \"conduit/ConduitController.sol\":3267:3294  _CONDUIT_CREATION_CODE_HASH */\n      immutable(\"0x5123ab44a95b9e316b860f114ea520934458fa7bff216e60c6945263bff2b6f8\")\n        /* \"conduit/ConduitController.sol\":3096:3320  abi.encodePacked(... */\n      add(0x20, mload(0x40))\n      tag_143\n      swap5\n      swap4\n      swap3\n      swap2\n      swap1\n      tag_139\n      jump\t// in\n    tag_143:\n      mload(0x40)\n      0x20\n      dup2\n      dup4\n      sub\n      sub\n      dup2\n      mstore\n      swap1\n      0x40\n      mstore\n        /* \"conduit/ConduitController.sol\":3061:3342  keccak256(... */\n      dup1\n      mload\n      swap1\n      0x20\n      add\n      keccak256\n        /* \"conduit/ConduitController.sol\":3032:3360  uint256(... */\n      0x00\n      shr\n        /* \"conduit/ConduitController.sol\":2976:3384  conduit = address(... */\n      swap1\n      pop\n        /* \"conduit/ConduitController.sol\":3499:3525  _CONDUIT_RUNTIME_CODE_HASH */\n      immutable(\"0xb5ec0f20465329e13a2d85270cb78f65c575ccff472e4a205299224e150cb7e2\")\n        /* \"conduit/ConduitController.sol\":3479:3486  conduit */\n      dup2\n        /* \"conduit/ConduitController.sol\":3479:3495  conduit.codehash */\n      0xffffffffffffffffffffffffffffffffffffffff\n      and\n      extcodehash\n        /* \"conduit/ConduitController.sol\":3479:3525  conduit.codehash == _CONDUIT_RUNTIME_CODE_HASH */\n      sub\n        /* \"conduit/ConduitController.sol\":3475:3668  if (conduit.codehash == _CONDUIT_RUNTIME_CODE_HASH) {... */\n      tag_144\n      jumpi\n        /* \"conduit/ConduitController.sol\":3649:3656  conduit */\n      dup1\n        /* \"conduit/ConduitController.sol\":3628:3657  ConduitAlreadyExists(conduit) */\n      mload(0x40)\n      0x6328ccb200000000000000000000000000000000000000000000000000000000\n      dup2\n      mstore\n      0x04\n      add\n      tag_145\n      swap2\n      swap1\n      tag_25\n      jump\t// in\n    tag_145:\n      mload(0x40)\n      dup1\n      swap2\n      sub\n      swap1\n      revert\n        /* \"conduit/ConduitController.sol\":3475:3668  if (conduit.codehash == _CONDUIT_RUNTIME_CODE_HASH) {... */\n    tag_144:\n        /* \"conduit/ConduitController.sol\":3774:3784  conduitKey */\n      dup3\n        /* \"conduit/ConduitController.sol\":3755:3788  new Conduit{ salt: conduitKey }() */\n      mload(0x40)\n      tag_146\n      swap1\n      tag_147\n      jump\t// in\n    tag_146:\n      dup2\n      swap1\n      mload(0x40)\n      dup1\n      swap2\n      sub\n      swap1\n      0x00\n      create2\n      swap1\n      pop\n      dup1\n      iszero\n      dup1\n      iszero\n      tag_148\n      jumpi\n      returndatasize\n      0x00\n      dup1\n      returndatacopy\n      revert(0x00, returndatasize)\n    tag_148:\n      pop\n      pop\n        /* \"conduit/ConduitController.sol\":3870:3913  ConduitProperties storage conduitProperties */\n      0x00\n        /* \"conduit/ConduitController.sol\":3916:3925  _conduits */\n      dup1\n        /* \"conduit/ConduitController.sol\":3916:3934  _conduits[conduit] */\n      0x00\n        /* \"conduit/ConduitController.sol\":3926:3933  conduit */\n      dup4\n        /* \"conduit/ConduitController.sol\":3916:3934  _conduits[conduit] */\n      0xffffffffffffffffffffffffffffffffffffffff\n      and\n      0xffffffffffffffffffffffffffffffffffffffff\n      and\n      dup2\n      mstore\n      0x20\n      add\n      swap1\n      dup2\n      mstore\n      0x20\n      add\n      0x00\n      keccak256\n        /* \"conduit/ConduitController.sol\":3870:3934  ConduitProperties storage conduitProperties = _conduits[conduit] */\n      swap1\n      pop\n        /* \"conduit/ConduitController.sol\":4042:4054  initialOwner */\n      dup3\n        /* \"conduit/ConduitController.sol\":4016:4033  conduitProperties */\n      dup2\n        /* \"conduit/ConduitController.sol\":4016:4039  conduitProperties.owner */\n      0x01\n      add\n      0x00\n        /* \"conduit/ConduitController.sol\":4016:4054  conduitProperties.owner = initialOwner */\n      0x0100\n      exp\n      dup2\n      sload\n      dup2\n      0xffffffffffffffffffffffffffffffffffffffff\n      mul\n      not\n      and\n      swap1\n      dup4\n      0xffffffffffffffffffffffffffffffffffffffff\n      and\n      mul\n      or\n      swap1\n      sstore\n      pop\n        /* \"conduit/ConduitController.sol\":4169:4179  conduitKey */\n      dup4\n        /* \"conduit/ConduitController.sol\":4145:4162  conduitProperties */\n      dup2\n        /* \"conduit/ConduitController.sol\":4145:4166  conduitProperties.key */\n      0x00\n      add\n        /* \"conduit/ConduitController.sol\":4145:4179  conduitProperties.key = conduitKey */\n      dup2\n      swap1\n      sstore\n      pop\n        /* \"conduit/ConduitController.sol\":4267:4298  NewConduit(conduit, conduitKey) */\n      0x4397af6128d529b8ae0442f99db1296d5136062597a15bbc61c1b2a6431a7d15\n        /* \"conduit/ConduitController.sol\":4278:4285  conduit */\n      dup3\n        /* \"conduit/ConduitController.sol\":4287:4297  conduitKey */\n      dup6\n        /* \"conduit/ConduitController.sol\":4267:4298  NewConduit(conduit, conduitKey) */\n      mload(0x40)\n      tag_149\n      swap3\n      swap2\n      swap1\n      tag_150\n      jump\t// in\n    tag_149:\n      mload(0x40)\n      dup1\n      swap2\n      sub\n      swap1\n      log1\n        /* \"conduit/ConduitController.sol\":4434:4446  initialOwner */\n      dup3\n        /* \"conduit/ConduitController.sol\":4392:4447  OwnershipTransferred(conduit, address(0), initialOwner) */\n      0xffffffffffffffffffffffffffffffffffffffff\n      and\n        /* \"conduit/ConduitController.sol\":4430:4431  0 */\n      0x00\n        /* \"conduit/ConduitController.sol\":4392:4447  OwnershipTransferred(conduit, address(0), initialOwner) */\n      0xffffffffffffffffffffffffffffffffffffffff\n      and\n        /* \"conduit/ConduitController.sol\":4413:4420  conduit */\n      dup4\n        /* \"conduit/ConduitController.sol\":4392:4447  OwnershipTransferred(conduit, address(0), initialOwner) */\n      0xffffffffffffffffffffffffffffffffffffffff\n      and\n      0xc8894f26f396ce8c004245c8b7cd1b92103a6e4302fcbab883987149ac01b7ec\n      mload(0x40)\n      mload(0x40)\n      dup1\n      swap2\n      sub\n      swap1\n      log4\n        /* \"conduit/ConduitController.sol\":2465:4454  {... */\n      pop\n        /* \"conduit/ConduitController.sol\":2328:4454  function createConduit(bytes32 conduitKey, address initialOwner)... */\n      swap3\n      swap2\n      pop\n      pop\n      jump\t// out\n        /* \"conduit/ConduitController.sol\":9841:10489  function cancelOwnershipTransfer(address conduit) external override {... */\n    tag_69:\n        /* \"conduit/ConduitController.sol\":9997:10033  _assertCallerIsConduitOwner(conduit) */\n      tag_152\n        /* \"conduit/ConduitController.sol\":10025:10032  conduit */\n      dup2\n        /* \"conduit/ConduitController.sol\":9997:10024  _assertCallerIsConduitOwner */\n      tag_96\n        /* \"conduit/ConduitController.sol\":9997:10033  _assertCallerIsConduitOwner(conduit) */\n      jump\t// in\n    tag_152:\n        /* \"conduit/ConduitController.sol\":10158:10159  0 */\n      0x00\n        /* \"conduit/ConduitController.sol\":10113:10160  _conduits[conduit].potentialOwner == address(0) */\n      0xffffffffffffffffffffffffffffffffffffffff\n      and\n        /* \"conduit/ConduitController.sol\":10113:10122  _conduits */\n      0x00\n        /* \"conduit/ConduitController.sol\":10113:10131  _conduits[conduit] */\n      dup1\n        /* \"conduit/ConduitController.sol\":10123:10130  conduit */\n      dup4\n        /* \"conduit/ConduitController.sol\":10113:10131  _conduits[conduit] */\n      0xffffffffffffffffffffffffffffffffffffffff\n      and\n      0xffffffffffffffffffffffffffffffffffffffff\n      and\n      dup2\n      mstore\n      0x20\n      add\n      swap1\n      dup2\n      mstore\n      0x20\n      add\n      0x00\n      keccak256\n        /* \"conduit/ConduitController.sol\":10113:10146  _conduits[conduit].potentialOwner */\n      0x02\n      add\n      0x00\n      swap1\n      sload\n      swap1\n      0x0100\n      exp\n      swap1\n      div\n      0xffffffffffffffffffffffffffffffffffffffff\n      and\n        /* \"conduit/ConduitController.sol\":10113:10160  _conduits[conduit].potentialOwner == address(0) */\n      0xffffffffffffffffffffffffffffffffffffffff\n      and\n      sub\n        /* \"conduit/ConduitController.sol\":10109:10231  if (_conduits[conduit].potentialOwner == address(0)) {... */\n      tag_153\n      jumpi\n        /* \"conduit/ConduitController.sol\":10212:10219  conduit */\n      dup1\n        /* \"conduit/ConduitController.sol\":10183:10220  NoPotentialOwnerCurrentlySet(conduit) */\n      mload(0x40)\n      0x6b01361600000000000000000000000000000000000000000000000000000000\n      dup2\n      mstore\n      0x04\n      add\n      tag_154\n      swap2\n      swap1\n      tag_25\n      jump\t// in\n    tag_154:\n      mload(0x40)\n      dup1\n      swap2\n      sub\n      swap1\n      revert\n        /* \"conduit/ConduitController.sol\":10109:10231  if (_conduits[conduit].potentialOwner == address(0)) {... */\n    tag_153:\n        /* \"conduit/ConduitController.sol\":10355:10356  0 */\n      0x00\n        /* \"conduit/ConduitController.sol\":10325:10358  PotentialOwnerUpdated(address(0)) */\n      0xffffffffffffffffffffffffffffffffffffffff\n      and\n      0x11a3cf439fb225bfe74225716b6774765670ec1060e3796802e62139d69974da\n      mload(0x40)\n      mload(0x40)\n      dup1\n      swap2\n      sub\n      swap1\n      log2\n        /* \"conduit/ConduitController.sol\":10480:10481  0 */\n      0x00\n        /* \"conduit/ConduitController.sol\":10436:10445  _conduits */\n      dup1\n        /* \"conduit/ConduitController.sol\":10436:10454  _conduits[conduit] */\n      0x00\n        /* \"conduit/ConduitController.sol\":10446:10453  conduit */\n      dup4\n        /* \"conduit/ConduitController.sol\":10436:10454  _conduits[conduit] */\n      0xffffffffffffffffffffffffffffffffffffffff\n      and\n      0xffffffffffffffffffffffffffffffffffffffff\n      and\n      dup2\n      mstore\n      0x20\n      add\n      swap1\n      dup2\n      mstore\n      0x20\n      add\n      0x00\n      keccak256\n        /* \"conduit/ConduitController.sol\":10436:10469  _conduits[conduit].potentialOwner */\n      0x02\n      add\n      0x00\n        /* \"conduit/ConduitController.sol\":10436:10482  _conduits[conduit].potentialOwner = address(0) */\n      0x0100\n      exp\n      dup2\n      sload\n      dup2\n      0xffffffffffffffffffffffffffffffffffffffff\n      mul\n      not\n      and\n      swap1\n      dup4\n      0xffffffffffffffffffffffffffffffffffffffff\n      and\n      mul\n      or\n      swap1\n      sstore\n      pop\n        /* \"conduit/ConduitController.sol\":9841:10489  function cancelOwnershipTransfer(address conduit) external override {... */\n      pop\n      jump\t// out\n        /* \"conduit/ConduitController.sol\":18043:18399  function getChannels(address conduit)... */\n    tag_72:\n        /* \"conduit/ConduitController.sol\":18145:18170  address[] memory channels */\n      0x60\n        /* \"conduit/ConduitController.sol\":18241:18270  _assertConduitExists(conduit) */\n      tag_156\n        /* \"conduit/ConduitController.sol\":18262:18269  conduit */\n      dup3\n        /* \"conduit/ConduitController.sol\":18241:18261  _assertConduitExists */\n      tag_86\n        /* \"conduit/ConduitController.sol\":18241:18270  _assertConduitExists(conduit) */\n      jump\t// in\n    tag_156:\n        /* \"conduit/ConduitController.sol\":18365:18374  _conduits */\n      0x00\n        /* \"conduit/ConduitController.sol\":18365:18383  _conduits[conduit] */\n      dup1\n        /* \"conduit/ConduitController.sol\":18375:18382  conduit */\n      dup4\n        /* \"conduit/ConduitController.sol\":18365:18383  _conduits[conduit] */\n      0xffffffffffffffffffffffffffffffffffffffff\n      and\n      0xffffffffffffffffffffffffffffffffffffffff\n      and\n      dup2\n      mstore\n      0x20\n      add\n      swap1\n      dup2\n      mstore\n      0x20\n      add\n      0x00\n      keccak256\n        /* \"conduit/ConduitController.sol\":18365:18392  _conduits[conduit].channels */\n      0x03\n      add\n        /* \"conduit/ConduitController.sol\":18354:18392  channels = _conduits[conduit].channels */\n      dup1\n      sload\n      dup1\n      0x20\n      mul\n      0x20\n      add\n      mload(0x40)\n      swap1\n      dup2\n      add\n      0x40\n      mstore\n      dup1\n      swap3\n      swap2\n      swap1\n      dup2\n      dup2\n      mstore\n      0x20\n      add\n      dup3\n      dup1\n      sload\n      dup1\n      iszero\n      tag_157\n      jumpi\n      0x20\n      mul\n      dup3\n      add\n      swap2\n      swap1\n      0x00\n      mstore\n      keccak256(0x00, 0x20)\n      swap1\n    tag_158:\n      dup2\n      0x00\n      swap1\n      sload\n      swap1\n      0x0100\n      exp\n      swap1\n      div\n      0xffffffffffffffffffffffffffffffffffffffff\n      and\n      0xffffffffffffffffffffffffffffffffffffffff\n      and\n      dup2\n      mstore\n      0x20\n      add\n      swap1\n      0x01\n      add\n      swap1\n      dup1\n      dup4\n      gt\n      tag_158\n      jumpi\n    tag_157:\n      pop\n      pop\n      pop\n      pop\n      pop\n      swap1\n      pop\n        /* \"conduit/ConduitController.sol\":18043:18399  function getChannels(address conduit)... */\n      swap2\n      swap1\n      pop\n      jump\t// out\n        /* \"conduit/ConduitController.sol\":14752:15126  function getPotentialOwner(address conduit)... */\n    tag_77:\n        /* \"conduit/ConduitController.sol\":14860:14882  address potentialOwner */\n      0x00\n        /* \"conduit/ConduitController.sol\":14953:14982  _assertConduitExists(conduit) */\n      tag_160\n        /* \"conduit/ConduitController.sol\":14974:14981  conduit */\n      dup3\n        /* \"conduit/ConduitController.sol\":14953:14973  _assertConduitExists */\n      tag_86\n        /* \"conduit/ConduitController.sol\":14953:14982  _assertConduitExists(conduit) */\n      jump\t// in\n    tag_160:\n        /* \"conduit/ConduitController.sol\":15086:15095  _conduits */\n      0x00\n        /* \"conduit/ConduitController.sol\":15086:15104  _conduits[conduit] */\n      dup1\n        /* \"conduit/ConduitController.sol\":15096:15103  conduit */\n      dup4\n        /* \"conduit/ConduitController.sol\":15086:15104  _conduits[conduit] */\n      0xffffffffffffffffffffffffffffffffffffffff\n      and\n      0xffffffffffffffffffffffffffffffffffffffff\n      and\n      dup2\n      mstore\n      0x20\n      add\n      swap1\n      dup2\n      mstore\n      0x20\n      add\n      0x00\n      keccak256\n        /* \"conduit/ConduitController.sol\":15086:15119  _conduits[conduit].potentialOwner */\n      0x02\n      add\n      0x00\n      swap1\n      sload\n      swap1\n      0x0100\n      exp\n      swap1\n      div\n      0xffffffffffffffffffffffffffffffffffffffff\n      and\n        /* \"conduit/ConduitController.sol\":15069:15119  potentialOwner = _conduits[conduit].potentialOwner */\n      swap1\n      pop\n        /* \"conduit/ConduitController.sol\":14752:15126  function getPotentialOwner(address conduit)... */\n      swap2\n      swap1\n      pop\n      jump\t// out\n        /* \"conduit/ConduitController.sol\":12654:13033  function getKey(address conduit)... */\n    tag_81:\n        /* \"conduit/ConduitController.sol\":12751:12769  bytes32 conduitKey */\n      0x00\n        /* \"conduit/ConduitController.sol\":12872:12881  _conduits */\n      dup1\n        /* \"conduit/ConduitController.sol\":12872:12890  _conduits[conduit] */\n      0x00\n        /* \"conduit/ConduitController.sol\":12882:12889  conduit */\n      dup4\n        /* \"conduit/ConduitController.sol\":12872:12890  _conduits[conduit] */\n      0xffffffffffffffffffffffffffffffffffffffff\n      and\n      0xffffffffffffffffffffffffffffffffffffffff\n      and\n      dup2\n      mstore\n      0x20\n      add\n      swap1\n      dup2\n      mstore\n      0x20\n      add\n      0x00\n      keccak256\n        /* \"conduit/ConduitController.sol\":12872:12894  _conduits[conduit].key */\n      0x00\n      add\n      sload\n        /* \"conduit/ConduitController.sol\":12859:12894  conduitKey = _conduits[conduit].key */\n      swap1\n      pop\n        /* \"conduit/ConduitController.sol\":12980:12981  0 */\n      0x00\n        /* \"conduit/ConduitController.sol\":12972:12982  bytes32(0) */\n      dup1\n      shl\n        /* \"conduit/ConduitController.sol\":12958:12968  conduitKey */\n      dup2\n        /* \"conduit/ConduitController.sol\":12958:12982  conduitKey == bytes32(0) */\n      sub\n        /* \"conduit/ConduitController.sol\":12954:13027  if (conduitKey == bytes32(0)) {... */\n      tag_162\n      jumpi\n        /* \"conduit/ConduitController.sol\":13005:13016  NoConduit() */\n      mload(0x40)\n      0x4ca8209000000000000000000000000000000000000000000000000000000000\n      dup2\n      mstore\n      0x04\n      add\n      mload(0x40)\n      dup1\n      swap2\n      sub\n      swap1\n      revert\n        /* \"conduit/ConduitController.sol\":12954:13027  if (conduitKey == bytes32(0)) {... */\n    tag_162:\n        /* \"conduit/ConduitController.sol\":12654:13033  function getKey(address conduit)... */\n      swap2\n      swap1\n      pop\n      jump\t// out\n        /* \"conduit/ConduitController.sol\":19688:19976  function _assertConduitExists(address conduit) private view {... */\n    tag_86:\n        /* \"conduit/ConduitController.sol\":19870:19871  0 */\n      0x00\n        /* \"conduit/ConduitController.sol\":19862:19872  bytes32(0) */\n      dup1\n      shl\n        /* \"conduit/ConduitController.sol\":19836:19845  _conduits */\n      0x00\n        /* \"conduit/ConduitController.sol\":19836:19854  _conduits[conduit] */\n      dup1\n        /* \"conduit/ConduitController.sol\":19846:19853  conduit */\n      dup4\n        /* \"conduit/ConduitController.sol\":19836:19854  _conduits[conduit] */\n      0xffffffffffffffffffffffffffffffffffffffff\n      and\n      0xffffffffffffffffffffffffffffffffffffffff\n      and\n      dup2\n      mstore\n      0x20\n      add\n      swap1\n      dup2\n      mstore\n      0x20\n      add\n      0x00\n      keccak256\n        /* \"conduit/ConduitController.sol\":19836:19858  _conduits[conduit].key */\n      0x00\n      add\n      sload\n        /* \"conduit/ConduitController.sol\":19836:19872  _conduits[conduit].key == bytes32(0) */\n      sub\n        /* \"conduit/ConduitController.sol\":19832:19970  if (_conduits[conduit].key == bytes32(0)) {... */\n      tag_164\n      jumpi\n        /* \"conduit/ConduitController.sol\":19948:19959  NoConduit() */\n      mload(0x40)\n      0x4ca8209000000000000000000000000000000000000000000000000000000000\n      dup2\n      mstore\n      0x04\n      add\n      mload(0x40)\n      dup1\n      swap2\n      sub\n      swap1\n      revert\n        /* \"conduit/ConduitController.sol\":19832:19970  if (_conduits[conduit].key == bytes32(0)) {... */\n    tag_164:\n        /* \"conduit/ConduitController.sol\":19688:19976  function _assertConduitExists(address conduit) private view {... */\n      pop\n      jump\t// out\n        /* \"conduit/ConduitController.sol\":19092:19515  function _assertCallerIsConduitOwner(address conduit) private view {... */\n    tag_96:\n        /* \"conduit/ConduitController.sol\":19224:19253  _assertConduitExists(conduit) */\n      tag_166\n        /* \"conduit/ConduitController.sol\":19245:19252  conduit */\n      dup2\n        /* \"conduit/ConduitController.sol\":19224:19244  _assertConduitExists */\n      tag_86\n        /* \"conduit/ConduitController.sol\":19224:19253  _assertConduitExists(conduit) */\n      jump\t// in\n    tag_166:\n        /* \"conduit/ConduitController.sol\":19358:19367  _conduits */\n      0x00\n        /* \"conduit/ConduitController.sol\":19358:19376  _conduits[conduit] */\n      dup1\n        /* \"conduit/ConduitController.sol\":19368:19375  conduit */\n      dup3\n        /* \"conduit/ConduitController.sol\":19358:19376  _conduits[conduit] */\n      0xffffffffffffffffffffffffffffffffffffffff\n      and\n      0xffffffffffffffffffffffffffffffffffffffff\n      and\n      dup2\n      mstore\n      0x20\n      add\n      swap1\n      dup2\n      mstore\n      0x20\n      add\n      0x00\n      keccak256\n        /* \"conduit/ConduitController.sol\":19358:19382  _conduits[conduit].owner */\n      0x01\n      add\n      0x00\n      swap1\n      sload\n      swap1\n      0x0100\n      exp\n      swap1\n      div\n      0xffffffffffffffffffffffffffffffffffffffff\n      and\n        /* \"conduit/ConduitController.sol\":19344:19382  msg.sender != _conduits[conduit].owner */\n      0xffffffffffffffffffffffffffffffffffffffff\n      and\n        /* \"conduit/ConduitController.sol\":19344:19354  msg.sender */\n      caller\n        /* \"conduit/ConduitController.sol\":19344:19382  msg.sender != _conduits[conduit].owner */\n      0xffffffffffffffffffffffffffffffffffffffff\n      and\n      eq\n        /* \"conduit/ConduitController.sol\":19340:19509  if (msg.sender != _conduits[conduit].owner) {... */\n      tag_167\n      jumpi\n        /* \"conduit/ConduitController.sol\":19490:19497  conduit */\n      dup1\n        /* \"conduit/ConduitController.sol\":19473:19498  CallerIsNotOwner(conduit) */\n      mload(0x40)\n      0xd4ed9a1700000000000000000000000000000000000000000000000000000000\n      dup2\n      mstore\n      0x04\n      add\n      tag_168\n      swap2\n      swap1\n      tag_25\n      jump\t// in\n    tag_168:\n      mload(0x40)\n      dup1\n      swap2\n      sub\n      swap1\n      revert\n        /* \"conduit/ConduitController.sol\":19340:19509  if (msg.sender != _conduits[conduit].owner) {... */\n    tag_167:\n        /* \"conduit/ConduitController.sol\":19092:19515  function _assertCallerIsConduitOwner(address conduit) private view {... */\n      pop\n      jump\t// out\n    tag_147:\n      dataSize(sub_0)\n      dup1\n      dataOffset(sub_0)\n      dup4\n      codecopy\n      add\n      swap1\n      jump\t// out\n        /* \"#utility.yul\":88:205   */\n    tag_170:\n        /* \"#utility.yul\":197:198   */\n      0x00\n        /* \"#utility.yul\":194:195   */\n      dup1\n        /* \"#utility.yul\":187:199   */\n      revert\n        /* \"#utility.yul\":334:460   */\n    tag_172:\n        /* \"#utility.yul\":371:378   */\n      0x00\n        /* \"#utility.yul\":411:453   */\n      0xffffffffffffffffffffffffffffffffffffffff\n        /* \"#utility.yul\":404:409   */\n      dup3\n        /* \"#utility.yul\":400:454   */\n      and\n        /* \"#utility.yul\":389:454   */\n      swap1\n      pop\n        /* \"#utility.yul\":334:460   */\n      swap2\n      swap1\n      pop\n      jump\t// out\n        /* \"#utility.yul\":466:562   */\n    tag_173:\n        /* \"#utility.yul\":503:510   */\n      0x00\n        /* \"#utility.yul\":532:556   */\n      tag_212\n        /* \"#utility.yul\":550:555   */\n      dup3\n        /* \"#utility.yul\":532:556   */\n      tag_172\n      jump\t// in\n    tag_212:\n        /* \"#utility.yul\":521:556   */\n      swap1\n      pop\n        /* \"#utility.yul\":466:562   */\n      swap2\n      swap1\n      pop\n      jump\t// out\n        /* \"#utility.yul\":568:690   */\n    tag_174:\n        /* \"#utility.yul\":641:665   */\n      tag_214\n        /* \"#utility.yul\":659:664   */\n      dup2\n        /* \"#utility.yul\":641:665   */\n      tag_173\n      jump\t// in\n    tag_214:\n        /* \"#utility.yul\":634:639   */\n      dup2\n        /* \"#utility.yul\":631:666   */\n      eq\n        /* \"#utility.yul\":621:684   */\n      tag_215\n      jumpi\n        /* \"#utility.yul\":680:681   */\n      0x00\n        /* \"#utility.yul\":677:678   */\n      dup1\n        /* \"#utility.yul\":670:682   */\n      revert\n        /* \"#utility.yul\":621:684   */\n    tag_215:\n        /* \"#utility.yul\":568:690   */\n      pop\n      jump\t// out\n        /* \"#utility.yul\":696:835   */\n    tag_175:\n        /* \"#utility.yul\":742:747   */\n      0x00\n        /* \"#utility.yul\":780:786   */\n      dup2\n        /* \"#utility.yul\":767:787   */\n      calldataload\n        /* \"#utility.yul\":758:787   */\n      swap1\n      pop\n        /* \"#utility.yul\":796:829   */\n      tag_217\n        /* \"#utility.yul\":823:828   */\n      dup2\n        /* \"#utility.yul\":796:829   */\n      tag_174\n      jump\t// in\n    tag_217:\n        /* \"#utility.yul\":696:835   */\n      swap3\n      swap2\n      pop\n      pop\n      jump\t// out\n        /* \"#utility.yul\":841:918   */\n    tag_176:\n        /* \"#utility.yul\":878:885   */\n      0x00\n        /* \"#utility.yul\":907:912   */\n      dup2\n        /* \"#utility.yul\":896:912   */\n      swap1\n      pop\n        /* \"#utility.yul\":841:918   */\n      swap2\n      swap1\n      pop\n      jump\t// out\n        /* \"#utility.yul\":924:1046   */\n    tag_177:\n        /* \"#utility.yul\":997:1021   */\n      tag_220\n        /* \"#utility.yul\":1015:1020   */\n      dup2\n        /* \"#utility.yul\":997:1021   */\n      tag_176\n      jump\t// in\n    tag_220:\n        /* \"#utility.yul\":990:995   */\n      dup2\n        /* \"#utility.yul\":987:1022   */\n      eq\n        /* \"#utility.yul\":977:1040   */\n      tag_221\n      jumpi\n        /* \"#utility.yul\":1036:1037   */\n      0x00\n        /* \"#utility.yul\":1033:1034   */\n      dup1\n        /* \"#utility.yul\":1026:1038   */\n      revert\n        /* \"#utility.yul\":977:1040   */\n    tag_221:\n        /* \"#utility.yul\":924:1046   */\n      pop\n      jump\t// out\n        /* \"#utility.yul\":1052:1191   */\n    tag_178:\n        /* \"#utility.yul\":1098:1103   */\n      0x00\n        /* \"#utility.yul\":1136:1142   */\n      dup2\n        /* \"#utility.yul\":1123:1143   */\n      calldataload\n        /* \"#utility.yul\":1114:1143   */\n      swap1\n      pop\n        /* \"#utility.yul\":1152:1185   */\n      tag_223\n        /* \"#utility.yul\":1179:1184   */\n      dup2\n        /* \"#utility.yul\":1152:1185   */\n      tag_177\n      jump\t// in\n    tag_223:\n        /* \"#utility.yul\":1052:1191   */\n      swap3\n      swap2\n      pop\n      pop\n      jump\t// out\n        /* \"#utility.yul\":1197:1671   */\n    tag_22:\n        /* \"#utility.yul\":1265:1271   */\n      0x00\n        /* \"#utility.yul\":1273:1279   */\n      dup1\n        /* \"#utility.yul\":1322:1324   */\n      0x40\n        /* \"#utility.yul\":1310:1319   */\n      dup4\n        /* \"#utility.yul\":1301:1308   */\n      dup6\n        /* \"#utility.yul\":1297:1320   */\n      sub\n        /* \"#utility.yul\":1293:1325   */\n      slt\n        /* \"#utility.yul\":1290:1409   */\n      iszero\n      tag_225\n      jumpi\n        /* \"#utility.yul\":1328:1407   */\n      tag_226\n      tag_170\n      jump\t// in\n    tag_226:\n        /* \"#utility.yul\":1290:1409   */\n    tag_225:\n        /* \"#utility.yul\":1448:1449   */\n      0x00\n        /* \"#utility.yul\":1473:1526   */\n      tag_227\n        /* \"#utility.yul\":1518:1525   */\n      dup6\n        /* \"#utility.yul\":1509:1515   */\n      dup3\n        /* \"#utility.yul\":1498:1507   */\n      dup7\n        /* \"#utility.yul\":1494:1516   */\n      add\n        /* \"#utility.yul\":1473:1526   */\n      tag_175\n      jump\t// in\n    tag_227:\n        /* \"#utility.yul\":1463:1526   */\n      swap3\n      pop\n        /* \"#utility.yul\":1419:1536   */\n      pop\n        /* \"#utility.yul\":1575:1577   */\n      0x20\n        /* \"#utility.yul\":1601:1654   */\n      tag_228\n        /* \"#utility.yul\":1646:1653   */\n      dup6\n        /* \"#utility.yul\":1637:1643   */\n      dup3\n        /* \"#utility.yul\":1626:1635   */\n      dup7\n        /* \"#utility.yul\":1622:1644   */\n      add\n        /* \"#utility.yul\":1601:1654   */\n      tag_178\n      jump\t// in\n    tag_228:\n        /* \"#utility.yul\":1591:1654   */\n      swap2\n      pop\n        /* \"#utility.yul\":1546:1664   */\n      pop\n        /* \"#utility.yul\":1197:1671   */\n      swap3\n      pop\n      swap3\n      swap1\n      pop\n      jump\t// out\n        /* \"#utility.yul\":1677:1795   */\n    tag_179:\n        /* \"#utility.yul\":1764:1788   */\n      tag_230\n        /* \"#utility.yul\":1782:1787   */\n      dup2\n        /* \"#utility.yul\":1764:1788   */\n      tag_173\n      jump\t// in\n    tag_230:\n        /* \"#utility.yul\":1759:1762   */\n      dup3\n        /* \"#utility.yul\":1752:1789   */\n      mstore\n        /* \"#utility.yul\":1677:1795   */\n      pop\n      pop\n      jump\t// out\n        /* \"#utility.yul\":1801:2023   */\n    tag_25:\n        /* \"#utility.yul\":1894:1898   */\n      0x00\n        /* \"#utility.yul\":1932:1934   */\n      0x20\n        /* \"#utility.yul\":1921:1930   */\n      dup3\n        /* \"#utility.yul\":1917:1935   */\n      add\n        /* \"#utility.yul\":1909:1935   */\n      swap1\n      pop\n        /* \"#utility.yul\":1945:2016   */\n      tag_232\n        /* \"#utility.yul\":2013:2014   */\n      0x00\n        /* \"#utility.yul\":2002:2011   */\n      dup4\n        /* \"#utility.yul\":1998:2015   */\n      add\n        /* \"#utility.yul\":1989:1995   */\n      dup5\n        /* \"#utility.yul\":1945:2016   */\n      tag_179\n      jump\t// in\n    tag_232:\n        /* \"#utility.yul\":1801:2023   */\n      swap3\n      swap2\n      pop\n      pop\n      jump\t// out\n        /* \"#utility.yul\":2029:2106   */\n    tag_180:\n        /* \"#utility.yul\":2066:2073   */\n      0x00\n        /* \"#utility.yul\":2095:2100   */\n      dup2\n        /* \"#utility.yul\":2084:2100   */\n      swap1\n      pop\n        /* \"#utility.yul\":2029:2106   */\n      swap2\n      swap1\n      pop\n      jump\t// out\n        /* \"#utility.yul\":2112:2230   */\n    tag_181:\n        /* \"#utility.yul\":2199:2223   */\n      tag_235\n        /* \"#utility.yul\":2217:2222   */\n      dup2\n        /* \"#utility.yul\":2199:2223   */\n      tag_180\n      jump\t// in\n    tag_235:\n        /* \"#utility.yul\":2194:2197   */\n      dup3\n        /* \"#utility.yul\":2187:2224   */\n      mstore\n        /* \"#utility.yul\":2112:2230   */\n      pop\n      pop\n      jump\t// out\n        /* \"#utility.yul\":2236:2568   */\n    tag_29:\n        /* \"#utility.yul\":2357:2361   */\n      0x00\n        /* \"#utility.yul\":2395:2397   */\n      0x40\n        /* \"#utility.yul\":2384:2393   */\n      dup3\n        /* \"#utility.yul\":2380:2398   */\n      add\n        /* \"#utility.yul\":2372:2398   */\n      swap1\n      pop\n        /* \"#utility.yul\":2408:2479   */\n      tag_237\n        /* \"#utility.yul\":2476:2477   */\n      0x00\n        /* \"#utility.yul\":2465:2474   */\n      dup4\n        /* \"#utility.yul\":2461:2478   */\n      add\n        /* \"#utility.yul\":2452:2458   */\n      dup6\n        /* \"#utility.yul\":2408:2479   */\n      tag_181\n      jump\t// in\n    tag_237:\n        /* \"#utility.yul\":2489:2561   */\n      tag_238\n        /* \"#utility.yul\":2557:2559   */\n      0x20\n        /* \"#utility.yul\":2546:2555   */\n      dup4\n        /* \"#utility.yul\":2542:2560   */\n      add\n        /* \"#utility.yul\":2533:2539   */\n      dup5\n        /* \"#utility.yul\":2489:2561   */\n      tag_181\n      jump\t// in\n    tag_238:\n        /* \"#utility.yul\":2236:2568   */\n      swap4\n      swap3\n      pop\n      pop\n      pop\n      jump\t// out\n        /* \"#utility.yul\":2574:2664   */\n    tag_182:\n        /* \"#utility.yul\":2608:2615   */\n      0x00\n        /* \"#utility.yul\":2651:2656   */\n      dup2\n        /* \"#utility.yul\":2644:2657   */\n      iszero\n        /* \"#utility.yul\":2637:2658   */\n      iszero\n        /* \"#utility.yul\":2626:2658   */\n      swap1\n      pop\n        /* \"#utility.yul\":2574:2664   */\n      swap2\n      swap1\n      pop\n      jump\t// out\n        /* \"#utility.yul\":2670:2786   */\n    tag_183:\n        /* \"#utility.yul\":2740:2761   */\n      tag_241\n        /* \"#utility.yul\":2755:2760   */\n      dup2\n        /* \"#utility.yul\":2740:2761   */\n      tag_182\n      jump\t// in\n    tag_241:\n        /* \"#utility.yul\":2733:2738   */\n      dup2\n        /* \"#utility.yul\":2730:2762   */\n      eq\n        /* \"#utility.yul\":2720:2780   */\n      tag_242\n      jumpi\n        /* \"#utility.yul\":2776:2777   */\n      0x00\n        /* \"#utility.yul\":2773:2774   */\n      dup1\n        /* \"#utility.yul\":2766:2778   */\n      revert\n        /* \"#utility.yul\":2720:2780   */\n    tag_242:\n        /* \"#utility.yul\":2670:2786   */\n      pop\n      jump\t// out\n        /* \"#utility.yul\":2792:2925   */\n    tag_184:\n        /* \"#utility.yul\":2835:2840   */\n      0x00\n        /* \"#utility.yul\":2873:2879   */\n      dup2\n        /* \"#utility.yul\":2860:2880   */\n      calldataload\n        /* \"#utility.yul\":2851:2880   */\n      swap1\n      pop\n        /* \"#utility.yul\":2889:2919   */\n      tag_244\n        /* \"#utility.yul\":2913:2918   */\n      dup2\n        /* \"#utility.yul\":2889:2919   */\n      tag_183\n      jump\t// in\n    tag_244:\n        /* \"#utility.yul\":2792:2925   */\n      swap3\n      swap2\n      pop\n      pop\n      jump\t// out\n        /* \"#utility.yul\":2931:3544   */\n    tag_32:\n        /* \"#utility.yul\":3005:3011   */\n      0x00\n        /* \"#utility.yul\":3013:3019   */\n      dup1\n        /* \"#utility.yul\":3021:3027   */\n      0x00\n        /* \"#utility.yul\":3070:3072   */\n      0x60\n        /* \"#utility.yul\":3058:3067   */\n      dup5\n        /* \"#utility.yul\":3049:3056   */\n      dup7\n        /* \"#utility.yul\":3045:3068   */\n      sub\n        /* \"#utility.yul\":3041:3073   */\n      slt\n        /* \"#utility.yul\":3038:3157   */\n      iszero\n      tag_246\n      jumpi\n        /* \"#utility.yul\":3076:3155   */\n      tag_247\n      tag_170\n      jump\t// in\n    tag_247:\n        /* \"#utility.yul\":3038:3157   */\n    tag_246:\n        /* \"#utility.yul\":3196:3197   */\n      0x00\n        /* \"#utility.yul\":3221:3274   */\n      tag_248\n        /* \"#utility.yul\":3266:3273   */\n      dup7\n        /* \"#utility.yul\":3257:3263   */\n      dup3\n        /* \"#utility.yul\":3246:3255   */\n      dup8\n        /* \"#utility.yul\":3242:3264   */\n      add\n        /* \"#utility.yul\":3221:3274   */\n      tag_175\n      jump\t// in\n    tag_248:\n        /* \"#utility.yul\":3211:3274   */\n      swap4\n      pop\n        /* \"#utility.yul\":3167:3284   */\n      pop\n        /* \"#utility.yul\":3323:3325   */\n      0x20\n        /* \"#utility.yul\":3349:3402   */\n      tag_249\n        /* \"#utility.yul\":3394:3401   */\n      dup7\n        /* \"#utility.yul\":3385:3391   */\n      dup3\n        /* \"#utility.yul\":3374:3383   */\n      dup8\n        /* \"#utility.yul\":3370:3392   */\n      add\n        /* \"#utility.yul\":3349:3402   */\n      tag_175\n      jump\t// in\n    tag_249:\n        /* \"#utility.yul\":3339:3402   */\n      swap3\n      pop\n        /* \"#utility.yul\":3294:3412   */\n      pop\n        /* \"#utility.yul\":3451:3453   */\n      0x40\n        /* \"#utility.yul\":3477:3527   */\n      tag_250\n        /* \"#utility.yul\":3519:3526   */\n      dup7\n        /* \"#utility.yul\":3510:3516   */\n      dup3\n        /* \"#utility.yul\":3499:3508   */\n      dup8\n        /* \"#utility.yul\":3495:3517   */\n      add\n        /* \"#utility.yul\":3477:3527   */\n      tag_184\n      jump\t// in\n    tag_250:\n        /* \"#utility.yul\":3467:3527   */\n      swap2\n      pop\n        /* \"#utility.yul\":3422:3537   */\n      pop\n        /* \"#utility.yul\":2931:3544   */\n      swap3\n      pop\n      swap3\n      pop\n      swap3\n      jump\t// out\n        /* \"#utility.yul\":3550:3879   */\n    tag_36:\n        /* \"#utility.yul\":3609:3615   */\n      0x00\n        /* \"#utility.yul\":3658:3660   */\n      0x20\n        /* \"#utility.yul\":3646:3655   */\n      dup3\n        /* \"#utility.yul\":3637:3644   */\n      dup5\n        /* \"#utility.yul\":3633:3656   */\n      sub\n        /* \"#utility.yul\":3629:3661   */\n      slt\n        /* \"#utility.yul\":3626:3745   */\n      iszero\n      tag_252\n      jumpi\n        /* \"#utility.yul\":3664:3743   */\n      tag_253\n      tag_170\n      jump\t// in\n    tag_253:\n        /* \"#utility.yul\":3626:3745   */\n    tag_252:\n        /* \"#utility.yul\":3784:3785   */\n      0x00\n        /* \"#utility.yul\":3809:3862   */\n      tag_254\n        /* \"#utility.yul\":3854:3861   */\n      dup5\n        /* \"#utility.yul\":3845:3851   */\n      dup3\n        /* \"#utility.yul\":3834:3843   */\n      dup6\n        /* \"#utility.yul\":3830:3852   */\n      add\n        /* \"#utility.yul\":3809:3862   */\n      tag_175\n      jump\t// in\n    tag_254:\n        /* \"#utility.yul\":3799:3862   */\n      swap2\n      pop\n        /* \"#utility.yul\":3755:3872   */\n      pop\n        /* \"#utility.yul\":3550:3879   */\n      swap3\n      swap2\n      pop\n      pop\n      jump\t// out\n        /* \"#utility.yul\":3885:4359   */\n    tag_41:\n        /* \"#utility.yul\":3953:3959   */\n      0x00\n        /* \"#utility.yul\":3961:3967   */\n      dup1\n        /* \"#utility.yul\":4010:4012   */\n      0x40\n        /* \"#utility.yul\":3998:4007   */\n      dup4\n        /* \"#utility.yul\":3989:3996   */\n      dup6\n        /* \"#utility.yul\":3985:4008   */\n      sub\n        /* \"#utility.yul\":3981:4013   */\n      slt\n        /* \"#utility.yul\":3978:4097   */\n      iszero\n      tag_256\n      jumpi\n        /* \"#utility.yul\":4016:4095   */\n      tag_257\n      tag_170\n      jump\t// in\n    tag_257:\n        /* \"#utility.yul\":3978:4097   */\n    tag_256:\n        /* \"#utility.yul\":4136:4137   */\n      0x00\n        /* \"#utility.yul\":4161:4214   */\n      tag_258\n        /* \"#utility.yul\":4206:4213   */\n      dup6\n        /* \"#utility.yul\":4197:4203   */\n      dup3\n        /* \"#utility.yul\":4186:4195   */\n      dup7\n        /* \"#utility.yul\":4182:4204   */\n      add\n        /* \"#utility.yul\":4161:4214   */\n      tag_175\n      jump\t// in\n    tag_258:\n        /* \"#utility.yul\":4151:4214   */\n      swap3\n      pop\n        /* \"#utility.yul\":4107:4224   */\n      pop\n        /* \"#utility.yul\":4263:4265   */\n      0x20\n        /* \"#utility.yul\":4289:4342   */\n      tag_259\n        /* \"#utility.yul\":4334:4341   */\n      dup6\n        /* \"#utility.yul\":4325:4331   */\n      dup3\n        /* \"#utility.yul\":4314:4323   */\n      dup7\n        /* \"#utility.yul\":4310:4332   */\n      add\n        /* \"#utility.yul\":4289:4342   */\n      tag_175\n      jump\t// in\n    tag_259:\n        /* \"#utility.yul\":4279:4342   */\n      swap2\n      pop\n        /* \"#utility.yul\":4234:4352   */\n      pop\n        /* \"#utility.yul\":3885:4359   */\n      swap3\n      pop\n      swap3\n      swap1\n      pop\n      jump\t// out\n        /* \"#utility.yul\":4365:4474   */\n    tag_185:\n        /* \"#utility.yul\":4446:4467   */\n      tag_261\n        /* \"#utility.yul\":4461:4466   */\n      dup2\n        /* \"#utility.yul\":4446:4467   */\n      tag_182\n      jump\t// in\n    tag_261:\n        /* \"#utility.yul\":4441:4444   */\n      dup3\n        /* \"#utility.yul\":4434:4468   */\n      mstore\n        /* \"#utility.yul\":4365:4474   */\n      pop\n      pop\n      jump\t// out\n        /* \"#utility.yul\":4480:4690   */\n    tag_44:\n        /* \"#utility.yul\":4567:4571   */\n      0x00\n        /* \"#utility.yul\":4605:4607   */\n      0x20\n        /* \"#utility.yul\":4594:4603   */\n      dup3\n        /* \"#utility.yul\":4590:4608   */\n      add\n        /* \"#utility.yul\":4582:4608   */\n      swap1\n      pop\n        /* \"#utility.yul\":4618:4683   */\n      tag_263\n        /* \"#utility.yul\":4680:4681   */\n      0x00\n        /* \"#utility.yul\":4669:4678   */\n      dup4\n        /* \"#utility.yul\":4665:4682   */\n      add\n        /* \"#utility.yul\":4656:4662   */\n      dup5\n        /* \"#utility.yul\":4618:4683   */\n      tag_185\n      jump\t// in\n    tag_263:\n        /* \"#utility.yul\":4480:4690   */\n      swap3\n      swap2\n      pop\n      pop\n      jump\t// out\n        /* \"#utility.yul\":4696:4814   */\n    tag_186:\n        /* \"#utility.yul\":4783:4807   */\n      tag_265\n        /* \"#utility.yul\":4801:4806   */\n      dup2\n        /* \"#utility.yul\":4783:4807   */\n      tag_176\n      jump\t// in\n    tag_265:\n        /* \"#utility.yul\":4778:4781   */\n      dup3\n        /* \"#utility.yul\":4771:4808   */\n      mstore\n        /* \"#utility.yul\":4696:4814   */\n      pop\n      pop\n      jump\t// out\n        /* \"#utility.yul\":4820:5042   */\n    tag_49:\n        /* \"#utility.yul\":4913:4917   */\n      0x00\n        /* \"#utility.yul\":4951:4953   */\n      0x20\n        /* \"#utility.yul\":4940:4949   */\n      dup3\n        /* \"#utility.yul\":4936:4954   */\n      add\n        /* \"#utility.yul\":4928:4954   */\n      swap1\n      pop\n        /* \"#utility.yul\":4964:5035   */\n      tag_267\n        /* \"#utility.yul\":5032:5033   */\n      0x00\n        /* \"#utility.yul\":5021:5030   */\n      dup4\n        /* \"#utility.yul\":5017:5034   */\n      add\n        /* \"#utility.yul\":5008:5014   */\n      dup5\n        /* \"#utility.yul\":4964:5035   */\n      tag_186\n      jump\t// in\n    tag_267:\n        /* \"#utility.yul\":4820:5042   */\n      swap3\n      swap2\n      pop\n      pop\n      jump\t// out\n        /* \"#utility.yul\":5048:5170   */\n    tag_187:\n        /* \"#utility.yul\":5121:5145   */\n      tag_269\n        /* \"#utility.yul\":5139:5144   */\n      dup2\n        /* \"#utility.yul\":5121:5145   */\n      tag_180\n      jump\t// in\n    tag_269:\n        /* \"#utility.yul\":5114:5119   */\n      dup2\n        /* \"#utility.yul\":5111:5146   */\n      eq\n        /* \"#utility.yul\":5101:5164   */\n      tag_270\n      jumpi\n        /* \"#utility.yul\":5160:5161   */\n      0x00\n        /* \"#utility.yul\":5157:5158   */\n      dup1\n        /* \"#utility.yul\":5150:5162   */\n      revert\n        /* \"#utility.yul\":5101:5164   */\n    tag_270:\n        /* \"#utility.yul\":5048:5170   */\n      pop\n      jump\t// out\n        /* \"#utility.yul\":5176:5315   */\n    tag_188:\n        /* \"#utility.yul\":5222:5227   */\n      0x00\n        /* \"#utility.yul\":5260:5266   */\n      dup2\n        /* \"#utility.yul\":5247:5267   */\n      calldataload\n        /* \"#utility.yul\":5238:5267   */\n      swap1\n      pop\n        /* \"#utility.yul\":5276:5309   */\n      tag_272\n        /* \"#utility.yul\":5303:5308   */\n      dup2\n        /* \"#utility.yul\":5276:5309   */\n      tag_187\n      jump\t// in\n    tag_272:\n        /* \"#utility.yul\":5176:5315   */\n      swap3\n      swap2\n      pop\n      pop\n      jump\t// out\n        /* \"#utility.yul\":5321:5650   */\n    tag_58:\n        /* \"#utility.yul\":5380:5386   */\n      0x00\n        /* \"#utility.yul\":5429:5431   */\n      0x20\n        /* \"#utility.yul\":5417:5426   */\n      dup3\n        /* \"#utility.yul\":5408:5415   */\n      dup5\n        /* \"#utility.yul\":5404:5427   */\n      sub\n        /* \"#utility.yul\":5400:5432   */\n      slt\n        /* \"#utility.yul\":5397:5516   */\n      iszero\n      tag_274\n      jumpi\n        /* \"#utility.yul\":5435:5514   */\n      tag_275\n      tag_170\n      jump\t// in\n    tag_275:\n        /* \"#utility.yul\":5397:5516   */\n    tag_274:\n        /* \"#utility.yul\":5555:5556   */\n      0x00\n        /* \"#utility.yul\":5580:5633   */\n      tag_276\n        /* \"#utility.yul\":5625:5632   */\n      dup5\n        /* \"#utility.yul\":5616:5622   */\n      dup3\n        /* \"#utility.yul\":5605:5614   */\n      dup6\n        /* \"#utility.yul\":5601:5623   */\n      add\n        /* \"#utility.yul\":5580:5633   */\n      tag_188\n      jump\t// in\n    tag_276:\n        /* \"#utility.yul\":5570:5633   */\n      swap2\n      pop\n        /* \"#utility.yul\":5526:5643   */\n      pop\n        /* \"#utility.yul\":5321:5650   */\n      swap3\n      swap2\n      pop\n      pop\n      jump\t// out\n        /* \"#utility.yul\":5656:5976   */\n    tag_61:\n        /* \"#utility.yul\":5771:5775   */\n      0x00\n        /* \"#utility.yul\":5809:5811   */\n      0x40\n        /* \"#utility.yul\":5798:5807   */\n      dup3\n        /* \"#utility.yul\":5794:5812   */\n      add\n        /* \"#utility.yul\":5786:5812   */\n      swap1\n      pop\n        /* \"#utility.yul\":5822:5893   */\n      tag_278\n        /* \"#utility.yul\":5890:5891   */\n      0x00\n        /* \"#utility.yul\":5879:5888   */\n      dup4\n        /* \"#utility.yul\":5875:5892   */\n      add\n        /* \"#utility.yul\":5866:5872   */\n      dup6\n        /* \"#utility.yul\":5822:5893   */\n      tag_179\n      jump\t// in\n    tag_278:\n        /* \"#utility.yul\":5903:5969   */\n      tag_279\n        /* \"#utility.yul\":5965:5967   */\n      0x20\n        /* \"#utility.yul\":5954:5963   */\n      dup4\n        /* \"#utility.yul\":5950:5968   */\n      add\n        /* \"#utility.yul\":5941:5947   */\n      dup5\n        /* \"#utility.yul\":5903:5969   */\n      tag_185\n      jump\t// in\n    tag_279:\n        /* \"#utility.yul\":5656:5976   */\n      swap4\n      swap3\n      pop\n      pop\n      pop\n      jump\t// out\n        /* \"#utility.yul\":5982:6456   */\n    tag_64:\n        /* \"#utility.yul\":6050:6056   */\n      0x00\n        /* \"#utility.yul\":6058:6064   */\n      dup1\n        /* \"#utility.yul\":6107:6109   */\n      0x40\n        /* \"#utility.yul\":6095:6104   */\n      dup4\n        /* \"#utility.yul\":6086:6093   */\n      dup6\n        /* \"#utility.yul\":6082:6105   */\n      sub\n        /* \"#utility.yul\":6078:6110   */\n      slt\n        /* \"#utility.yul\":6075:6194   */\n      iszero\n      tag_281\n      jumpi\n        /* \"#utility.yul\":6113:6192   */\n      tag_282\n      tag_170\n      jump\t// in\n    tag_282:\n        /* \"#utility.yul\":6075:6194   */\n    tag_281:\n        /* \"#utility.yul\":6233:6234   */\n      0x00\n        /* \"#utility.yul\":6258:6311   */\n      tag_283\n        /* \"#utility.yul\":6303:6310   */\n      dup6\n        /* \"#utility.yul\":6294:6300   */\n      dup3\n        /* \"#utility.yul\":6283:6292   */\n      dup7\n        /* \"#utility.yul\":6279:6301   */\n      add\n        /* \"#utility.yul\":6258:6311   */\n      tag_188\n      jump\t// in\n    tag_283:\n        /* \"#utility.yul\":6248:6311   */\n      swap3\n      pop\n        /* \"#utility.yul\":6204:6321   */\n      pop\n        /* \"#utility.yul\":6360:6362   */\n      0x20\n        /* \"#utility.yul\":6386:6439   */\n      tag_284\n        /* \"#utility.yul\":6431:6438   */\n      dup6\n        /* \"#utility.yul\":6422:6428   */\n      dup3\n        /* \"#utility.yul\":6411:6420   */\n      dup7\n        /* \"#utility.yul\":6407:6429   */\n      add\n        /* \"#utility.yul\":6386:6439   */\n      tag_175\n      jump\t// in\n    tag_284:\n        /* \"#utility.yul\":6376:6439   */\n      swap2\n      pop\n        /* \"#utility.yul\":6331:6449   */\n      pop\n        /* \"#utility.yul\":5982:6456   */\n      swap3\n      pop\n      swap3\n      swap1\n      pop\n      jump\t// out\n        /* \"#utility.yul\":6462:6576   */\n    tag_189:\n        /* \"#utility.yul\":6529:6535   */\n      0x00\n        /* \"#utility.yul\":6563:6568   */\n      dup2\n        /* \"#utility.yul\":6557:6569   */\n      mload\n        /* \"#utility.yul\":6547:6569   */\n      swap1\n      pop\n        /* \"#utility.yul\":6462:6576   */\n      swap2\n      swap1\n      pop\n      jump\t// out\n        /* \"#utility.yul\":6582:6766   */\n    tag_190:\n        /* \"#utility.yul\":6681:6692   */\n      0x00\n        /* \"#utility.yul\":6715:6721   */\n      dup3\n        /* \"#utility.yul\":6710:6713   */\n      dup3\n        /* \"#utility.yul\":6703:6722   */\n      mstore\n        /* \"#utility.yul\":6755:6759   */\n      0x20\n        /* \"#utility.yul\":6750:6753   */\n      dup3\n        /* \"#utility.yul\":6746:6760   */\n      add\n        /* \"#utility.yul\":6731:6760   */\n      swap1\n      pop\n        /* \"#utility.yul\":6582:6766   */\n      swap3\n      swap2\n      pop\n      pop\n      jump\t// out\n        /* \"#utility.yul\":6772:6904   */\n    tag_191:\n        /* \"#utility.yul\":6839:6843   */\n      0x00\n        /* \"#utility.yul\":6862:6865   */\n      dup2\n        /* \"#utility.yul\":6854:6865   */\n      swap1\n      pop\n        /* \"#utility.yul\":6892:6896   */\n      0x20\n        /* \"#utility.yul\":6887:6890   */\n      dup3\n        /* \"#utility.yul\":6883:6897   */\n      add\n        /* \"#utility.yul\":6875:6897   */\n      swap1\n      pop\n        /* \"#utility.yul\":6772:6904   */\n      swap2\n      swap1\n      pop\n      jump\t// out\n        /* \"#utility.yul\":6910:7018   */\n    tag_192:\n        /* \"#utility.yul\":6987:7011   */\n      tag_289\n        /* \"#utility.yul\":7005:7010   */\n      dup2\n        /* \"#utility.yul\":6987:7011   */\n      tag_173\n      jump\t// in\n    tag_289:\n        /* \"#utility.yul\":6982:6985   */\n      dup3\n        /* \"#utility.yul\":6975:7012   */\n      mstore\n        /* \"#utility.yul\":6910:7018   */\n      pop\n      pop\n      jump\t// out\n        /* \"#utility.yul\":7024:7203   */\n    tag_193:\n        /* \"#utility.yul\":7093:7103   */\n      0x00\n        /* \"#utility.yul\":7114:7160   */\n      tag_291\n        /* \"#utility.yul\":7156:7159   */\n      dup4\n        /* \"#utility.yul\":7148:7154   */\n      dup4\n        /* \"#utility.yul\":7114:7160   */\n      tag_192\n      jump\t// in\n    tag_291:\n        /* \"#utility.yul\":7192:7196   */\n      0x20\n        /* \"#utility.yul\":7187:7190   */\n      dup4\n        /* \"#utility.yul\":7183:7197   */\n      add\n        /* \"#utility.yul\":7169:7197   */\n      swap1\n      pop\n        /* \"#utility.yul\":7024:7203   */\n      swap3\n      swap2\n      pop\n      pop\n      jump\t// out\n        /* \"#utility.yul\":7209:7322   */\n    tag_194:\n        /* \"#utility.yul\":7279:7283   */\n      0x00\n        /* \"#utility.yul\":7311:7315   */\n      0x20\n        /* \"#utility.yul\":7306:7309   */\n      dup3\n        /* \"#utility.yul\":7302:7316   */\n      add\n        /* \"#utility.yul\":7294:7316   */\n      swap1\n      pop\n        /* \"#utility.yul\":7209:7322   */\n      swap2\n      swap1\n      pop\n      jump\t// out\n        /* \"#utility.yul\":7358:8090   */\n    tag_195:\n        /* \"#utility.yul\":7477:7480   */\n      0x00\n        /* \"#utility.yul\":7506:7560   */\n      tag_294\n        /* \"#utility.yul\":7554:7559   */\n      dup3\n        /* \"#utility.yul\":7506:7560   */\n      tag_189\n      jump\t// in\n    tag_294:\n        /* \"#utility.yul\":7576:7662   */\n      tag_295\n        /* \"#utility.yul\":7655:7661   */\n      dup2\n        /* \"#utility.yul\":7650:7653   */\n      dup6\n        /* \"#utility.yul\":7576:7662   */\n      tag_190\n      jump\t// in\n    tag_295:\n        /* \"#utility.yul\":7569:7662   */\n      swap4\n      pop\n        /* \"#utility.yul\":7686:7742   */\n      tag_296\n        /* \"#utility.yul\":7736:7741   */\n      dup4\n        /* \"#utility.yul\":7686:7742   */\n      tag_191\n      jump\t// in\n    tag_296:\n        /* \"#utility.yul\":7765:7772   */\n      dup1\n        /* \"#utility.yul\":7796:7797   */\n      0x00\n        /* \"#utility.yul\":7781:8065   */\n    tag_297:\n        /* \"#utility.yul\":7806:7812   */\n      dup4\n        /* \"#utility.yul\":7803:7804   */\n      dup2\n        /* \"#utility.yul\":7800:7813   */\n      lt\n        /* \"#utility.yul\":7781:8065   */\n      iszero\n      tag_299\n      jumpi\n        /* \"#utility.yul\":7882:7888   */\n      dup2\n        /* \"#utility.yul\":7876:7889   */\n      mload\n        /* \"#utility.yul\":7909:7972   */\n      tag_300\n        /* \"#utility.yul\":7968:7971   */\n      dup9\n        /* \"#utility.yul\":7953:7966   */\n      dup3\n        /* \"#utility.yul\":7909:7972   */\n      tag_193\n      jump\t// in\n    tag_300:\n        /* \"#utility.yul\":7902:7972   */\n      swap8\n      pop\n        /* \"#utility.yul\":7995:8055   */\n      tag_301\n        /* \"#utility.yul\":8048:8054   */\n      dup4\n        /* \"#utility.yul\":7995:8055   */\n      tag_194\n      jump\t// in\n    tag_301:\n        /* \"#utility.yul\":7985:8055   */\n      swap3\n      pop\n        /* \"#utility.yul\":7841:8065   */\n      pop\n        /* \"#utility.yul\":7828:7829   */\n      0x01\n        /* \"#utility.yul\":7825:7826   */\n      dup2\n        /* \"#utility.yul\":7821:7830   */\n      add\n        /* \"#utility.yul\":7816:7830   */\n      swap1\n      pop\n        /* \"#utility.yul\":7781:8065   */\n      jump(tag_297)\n    tag_299:\n        /* \"#utility.yul\":7785:7799   */\n      pop\n        /* \"#utility.yul\":8081:8084   */\n      dup6\n        /* \"#utility.yul\":8074:8084   */\n      swap4\n      pop\n        /* \"#utility.yul\":7482:8090   */\n      pop\n      pop\n      pop\n        /* \"#utility.yul\":7358:8090   */\n      swap3\n      swap2\n      pop\n      pop\n      jump\t// out\n        /* \"#utility.yul\":8096:8469   */\n    tag_74:\n        /* \"#utility.yul\":8239:8243   */\n      0x00\n        /* \"#utility.yul\":8277:8279   */\n      0x20\n        /* \"#utility.yul\":8266:8275   */\n      dup3\n        /* \"#utility.yul\":8262:8280   */\n      add\n        /* \"#utility.yul\":8254:8280   */\n      swap1\n      pop\n        /* \"#utility.yul\":8326:8335   */\n      dup2\n        /* \"#utility.yul\":8320:8324   */\n      dup2\n        /* \"#utility.yul\":8316:8336   */\n      sub\n        /* \"#utility.yul\":8312:8313   */\n      0x00\n        /* \"#utility.yul\":8301:8310   */\n      dup4\n        /* \"#utility.yul\":8297:8314   */\n      add\n        /* \"#utility.yul\":8290:8337   */\n      mstore\n        /* \"#utility.yul\":8354:8462   */\n      tag_303\n        /* \"#utility.yul\":8457:8461   */\n      dup2\n        /* \"#utility.yul\":8448:8454   */\n      dup5\n        /* \"#utility.yul\":8354:8462   */\n      tag_195\n      jump\t// in\n    tag_303:\n        /* \"#utility.yul\":8346:8462   */\n      swap1\n      pop\n        /* \"#utility.yul\":8096:8469   */\n      swap3\n      swap2\n      pop\n      pop\n      jump\t// out\n        /* \"#utility.yul\":8475:8697   */\n    tag_83:\n        /* \"#utility.yul\":8568:8572   */\n      0x00\n        /* \"#utility.yul\":8606:8608   */\n      0x20\n        /* \"#utility.yul\":8595:8604   */\n      dup3\n        /* \"#utility.yul\":8591:8609   */\n      add\n        /* \"#utility.yul\":8583:8609   */\n      swap1\n      pop\n        /* \"#utility.yul\":8619:8690   */\n      tag_305\n        /* \"#utility.yul\":8687:8688   */\n      0x00\n        /* \"#utility.yul\":8676:8685   */\n      dup4\n        /* \"#utility.yul\":8672:8689   */\n      add\n        /* \"#utility.yul\":8663:8669   */\n      dup5\n        /* \"#utility.yul\":8619:8690   */\n      tag_181\n      jump\t// in\n    tag_305:\n        /* \"#utility.yul\":8475:8697   */\n      swap3\n      swap2\n      pop\n      pop\n      jump\t// out\n        /* \"#utility.yul\":8703:8883   */\n    tag_91:\n        /* \"#utility.yul\":8751:8828   */\n      0x4e487b7100000000000000000000000000000000000000000000000000000000\n        /* \"#utility.yul\":8748:8749   */\n      0x00\n        /* \"#utility.yul\":8741:8829   */\n      mstore\n        /* \"#utility.yul\":8848:8852   */\n      0x32\n        /* \"#utility.yul\":8845:8846   */\n      0x04\n        /* \"#utility.yul\":8838:8853   */\n      mstore\n        /* \"#utility.yul\":8872:8876   */\n      0x24\n        /* \"#utility.yul\":8869:8870   */\n      0x00\n        /* \"#utility.yul\":8862:8877   */\n      revert\n        /* \"#utility.yul\":8889:9069   */\n    tag_196:\n        /* \"#utility.yul\":8937:9014   */\n      0x4e487b7100000000000000000000000000000000000000000000000000000000\n        /* \"#utility.yul\":8934:8935   */\n      0x00\n        /* \"#utility.yul\":8927:9015   */\n      mstore\n        /* \"#utility.yul\":9034:9038   */\n      0x11\n        /* \"#utility.yul\":9031:9032   */\n      0x04\n        /* \"#utility.yul\":9024:9039   */\n      mstore\n        /* \"#utility.yul\":9058:9062   */\n      0x24\n        /* \"#utility.yul\":9055:9056   */\n      0x00\n        /* \"#utility.yul\":9048:9063   */\n      revert\n        /* \"#utility.yul\":9075:9269   */\n    tag_108:\n        /* \"#utility.yul\":9115:9119   */\n      0x00\n        /* \"#utility.yul\":9135:9155   */\n      tag_309\n        /* \"#utility.yul\":9153:9154   */\n      dup3\n        /* \"#utility.yul\":9135:9155   */\n      tag_176\n      jump\t// in\n    tag_309:\n        /* \"#utility.yul\":9130:9155   */\n      swap2\n      pop\n        /* \"#utility.yul\":9169:9189   */\n      tag_310\n        /* \"#utility.yul\":9187:9188   */\n      dup4\n        /* \"#utility.yul\":9169:9189   */\n      tag_176\n      jump\t// in\n    tag_310:\n        /* \"#utility.yul\":9164:9189   */\n      swap3\n      pop\n        /* \"#utility.yul\":9213:9214   */\n      dup3\n        /* \"#utility.yul\":9210:9211   */\n      dup3\n        /* \"#utility.yul\":9206:9215   */\n      sub\n        /* \"#utility.yul\":9198:9215   */\n      swap1\n      pop\n        /* \"#utility.yul\":9237:9238   */\n      dup2\n        /* \"#utility.yul\":9231:9235   */\n      dup2\n        /* \"#utility.yul\":9228:9239   */\n      gt\n        /* \"#utility.yul\":9225:9262   */\n      iszero\n      tag_311\n      jumpi\n        /* \"#utility.yul\":9242:9260   */\n      tag_312\n      tag_196\n      jump\t// in\n    tag_312:\n        /* \"#utility.yul\":9225:9262   */\n    tag_311:\n        /* \"#utility.yul\":9075:9269   */\n      swap3\n      swap2\n      pop\n      pop\n      jump\t// out\n        /* \"#utility.yul\":9275:9455   */\n    tag_118:\n        /* \"#utility.yul\":9323:9400   */\n      0x4e487b7100000000000000000000000000000000000000000000000000000000\n        /* \"#utility.yul\":9320:9321   */\n      0x00\n        /* \"#utility.yul\":9313:9401   */\n      mstore\n        /* \"#utility.yul\":9420:9424   */\n      0x31\n        /* \"#utility.yul\":9417:9418   */\n      0x04\n        /* \"#utility.yul\":9410:9425   */\n      mstore\n        /* \"#utility.yul\":9444:9448   */\n      0x24\n        /* \"#utility.yul\":9441:9442   */\n      0x00\n        /* \"#utility.yul\":9434:9449   */\n      revert\n        /* \"#utility.yul\":9461:9793   */\n    tag_136:\n        /* \"#utility.yul\":9582:9586   */\n      0x00\n        /* \"#utility.yul\":9620:9622   */\n      0x40\n        /* \"#utility.yul\":9609:9618   */\n      dup3\n        /* \"#utility.yul\":9605:9623   */\n      add\n        /* \"#utility.yul\":9597:9623   */\n      swap1\n      pop\n        /* \"#utility.yul\":9633:9704   */\n      tag_315\n        /* \"#utility.yul\":9701:9702   */\n      0x00\n        /* \"#utility.yul\":9690:9699   */\n      dup4\n        /* \"#utility.yul\":9686:9703   */\n      add\n        /* \"#utility.yul\":9677:9683   */\n      dup6\n        /* \"#utility.yul\":9633:9704   */\n      tag_179\n      jump\t// in\n    tag_315:\n        /* \"#utility.yul\":9714:9786   */\n      tag_316\n        /* \"#utility.yul\":9782:9784   */\n      0x20\n        /* \"#utility.yul\":9771:9780   */\n      dup4\n        /* \"#utility.yul\":9767:9785   */\n      add\n        /* \"#utility.yul\":9758:9764   */\n      dup5\n        /* \"#utility.yul\":9714:9786   */\n      tag_179\n      jump\t// in\n    tag_316:\n        /* \"#utility.yul\":9461:9793   */\n      swap4\n      swap3\n      pop\n      pop\n      pop\n      jump\t// out\n        /* \"#utility.yul\":9799:9948   */\n    tag_197:\n        /* \"#utility.yul\":9835:9842   */\n      0x00\n        /* \"#utility.yul\":9875:9941   */\n      0xff00000000000000000000000000000000000000000000000000000000000000\n        /* \"#utility.yul\":9868:9873   */\n      dup3\n        /* \"#utility.yul\":9864:9942   */\n      and\n        /* \"#utility.yul\":9853:9942   */\n      swap1\n      pop\n        /* \"#utility.yul\":9799:9948   */\n      swap2\n      swap1\n      pop\n      jump\t// out\n        /* \"#utility.yul\":9954:10032   */\n    tag_198:\n        /* \"#utility.yul\":9992:9999   */\n      0x00\n        /* \"#utility.yul\":10021:10026   */\n      dup2\n        /* \"#utility.yul\":10010:10026   */\n      swap1\n      pop\n        /* \"#utility.yul\":9954:10032   */\n      swap2\n      swap1\n      pop\n      jump\t// out\n        /* \"#utility.yul\":10038:10191   */\n    tag_199:\n        /* \"#utility.yul\":10141:10184   */\n      tag_320\n        /* \"#utility.yul\":10160:10183   */\n      tag_321\n        /* \"#utility.yul\":10177:10182   */\n      dup3\n        /* \"#utility.yul\":10160:10183   */\n      tag_197\n      jump\t// in\n    tag_321:\n        /* \"#utility.yul\":10141:10184   */\n      tag_198\n      jump\t// in\n    tag_320:\n        /* \"#utility.yul\":10136:10139   */\n      dup3\n        /* \"#utility.yul\":10129:10185   */\n      mstore\n        /* \"#utility.yul\":10038:10191   */\n      pop\n      pop\n      jump\t// out\n        /* \"#utility.yul\":10197:10291   */\n    tag_200:\n        /* \"#utility.yul\":10230:10238   */\n      0x00\n        /* \"#utility.yul\":10278:10283   */\n      dup2\n        /* \"#utility.yul\":10274:10276   */\n      0x60\n        /* \"#utility.yul\":10270:10284   */\n      shl\n        /* \"#utility.yul\":10249:10284   */\n      swap1\n      pop\n        /* \"#utility.yul\":10197:10291   */\n      swap2\n      swap1\n      pop\n      jump\t// out\n        /* \"#utility.yul\":10297:10391   */\n    tag_201:\n        /* \"#utility.yul\":10336:10343   */\n      0x00\n        /* \"#utility.yul\":10365:10385   */\n      tag_324\n        /* \"#utility.yul\":10379:10384   */\n      dup3\n        /* \"#utility.yul\":10365:10385   */\n      tag_200\n      jump\t// in\n    tag_324:\n        /* \"#utility.yul\":10354:10385   */\n      swap1\n      pop\n        /* \"#utility.yul\":10297:10391   */\n      swap2\n      swap1\n      pop\n      jump\t// out\n        /* \"#utility.yul\":10397:10497   */\n    tag_202:\n        /* \"#utility.yul\":10436:10443   */\n      0x00\n        /* \"#utility.yul\":10465:10491   */\n      tag_326\n        /* \"#utility.yul\":10485:10490   */\n      dup3\n        /* \"#utility.yul\":10465:10491   */\n      tag_201\n      jump\t// in\n    tag_326:\n        /* \"#utility.yul\":10454:10491   */\n      swap1\n      pop\n        /* \"#utility.yul\":10397:10497   */\n      swap2\n      swap1\n      pop\n      jump\t// out\n        /* \"#utility.yul\":10503:10660   */\n    tag_203:\n        /* \"#utility.yul\":10608:10653   */\n      tag_328\n        /* \"#utility.yul\":10628:10652   */\n      tag_329\n        /* \"#utility.yul\":10646:10651   */\n      dup3\n        /* \"#utility.yul\":10628:10652   */\n      tag_173\n      jump\t// in\n    tag_329:\n        /* \"#utility.yul\":10608:10653   */\n      tag_202\n      jump\t// in\n    tag_328:\n        /* \"#utility.yul\":10603:10606   */\n      dup3\n        /* \"#utility.yul\":10596:10654   */\n      mstore\n        /* \"#utility.yul\":10503:10660   */\n      pop\n      pop\n      jump\t// out\n        /* \"#utility.yul\":10666:10745   */\n    tag_204:\n        /* \"#utility.yul\":10705:10712   */\n      0x00\n        /* \"#utility.yul\":10734:10739   */\n      dup2\n        /* \"#utility.yul\":10723:10739   */\n      swap1\n      pop\n        /* \"#utility.yul\":10666:10745   */\n      swap2\n      swap1\n      pop\n      jump\t// out\n        /* \"#utility.yul\":10751:10908   */\n    tag_205:\n        /* \"#utility.yul\":10856:10901   */\n      tag_332\n        /* \"#utility.yul\":10876:10900   */\n      tag_333\n        /* \"#utility.yul\":10894:10899   */\n      dup3\n        /* \"#utility.yul\":10876:10900   */\n      tag_180\n      jump\t// in\n    tag_333:\n        /* \"#utility.yul\":10856:10901   */\n      tag_204\n      jump\t// in\n    tag_332:\n        /* \"#utility.yul\":10851:10854   */\n      dup3\n        /* \"#utility.yul\":10844:10902   */\n      mstore\n        /* \"#utility.yul\":10751:10908   */\n      pop\n      pop\n      jump\t// out\n        /* \"#utility.yul\":10914:11588   */\n    tag_139:\n        /* \"#utility.yul\":11108:11111   */\n      0x00\n        /* \"#utility.yul\":11123:11196   */\n      tag_335\n        /* \"#utility.yul\":11192:11195   */\n      dup3\n        /* \"#utility.yul\":11183:11189   */\n      dup8\n        /* \"#utility.yul\":11123:11196   */\n      tag_199\n      jump\t// in\n    tag_335:\n        /* \"#utility.yul\":11221:11222   */\n      0x01\n        /* \"#utility.yul\":11216:11219   */\n      dup3\n        /* \"#utility.yul\":11212:11223   */\n      add\n        /* \"#utility.yul\":11205:11223   */\n      swap2\n      pop\n        /* \"#utility.yul\":11233:11308   */\n      tag_336\n        /* \"#utility.yul\":11304:11307   */\n      dup3\n        /* \"#utility.yul\":11295:11301   */\n      dup7\n        /* \"#utility.yul\":11233:11308   */\n      tag_203\n      jump\t// in\n    tag_336:\n        /* \"#utility.yul\":11333:11335   */\n      0x14\n        /* \"#utility.yul\":11328:11331   */\n      dup3\n        /* \"#utility.yul\":11324:11336   */\n      add\n        /* \"#utility.yul\":11317:11336   */\n      swap2\n      pop\n        /* \"#utility.yul\":11346:11421   */\n      tag_337\n        /* \"#utility.yul\":11417:11420   */\n      dup3\n        /* \"#utility.yul\":11408:11414   */\n      dup6\n        /* \"#utility.yul\":11346:11421   */\n      tag_205\n      jump\t// in\n    tag_337:\n        /* \"#utility.yul\":11446:11448   */\n      0x20\n        /* \"#utility.yul\":11441:11444   */\n      dup3\n        /* \"#utility.yul\":11437:11449   */\n      add\n        /* \"#utility.yul\":11430:11449   */\n      swap2\n      pop\n        /* \"#utility.yul\":11459:11534   */\n      tag_338\n        /* \"#utility.yul\":11530:11533   */\n      dup3\n        /* \"#utility.yul\":11521:11527   */\n      dup5\n        /* \"#utility.yul\":11459:11534   */\n      tag_205\n      jump\t// in\n    tag_338:\n        /* \"#utility.yul\":11559:11561   */\n      0x20\n        /* \"#utility.yul\":11554:11557   */\n      dup3\n        /* \"#utility.yul\":11550:11562   */\n      add\n        /* \"#utility.yul\":11543:11562   */\n      swap2\n      pop\n        /* \"#utility.yul\":11579:11582   */\n      dup2\n        /* \"#utility.yul\":11572:11582   */\n      swap1\n      pop\n        /* \"#utility.yul\":10914:11588   */\n      swap6\n      swap5\n      pop\n      pop\n      pop\n      pop\n      pop\n      jump\t// out\n        /* \"#utility.yul\":11594:11926   */\n    tag_150:\n        /* \"#utility.yul\":11715:11719   */\n      0x00\n        /* \"#utility.yul\":11753:11755   */\n      0x40\n        /* \"#utility.yul\":11742:11751   */\n      dup3\n        /* \"#utility.yul\":11738:11756   */\n      add\n        /* \"#utility.yul\":11730:11756   */\n      swap1\n      pop\n        /* \"#utility.yul\":11766:11837   */\n      tag_340\n        /* \"#utility.yul\":11834:11835   */\n      0x00\n        /* \"#utility.yul\":11823:11832   */\n      dup4\n        /* \"#utility.yul\":11819:11836   */\n      add\n        /* \"#utility.yul\":11810:11816   */\n      dup6\n        /* \"#utility.yul\":11766:11837   */\n      tag_179\n      jump\t// in\n    tag_340:\n        /* \"#utility.yul\":11847:11919   */\n      tag_341\n        /* \"#utility.yul\":11915:11917   */\n      0x20\n        /* \"#utility.yul\":11904:11913   */\n      dup4\n        /* \"#utility.yul\":11900:11918   */\n      add\n        /* \"#utility.yul\":11891:11897   */\n      dup5\n        /* \"#utility.yul\":11847:11919   */\n      tag_181\n      jump\t// in\n    tag_341:\n        /* \"#utility.yul\":11594:11926   */\n      swap4\n      swap3\n      pop\n      pop\n      pop\n      jump\t// out\n    stop\n\n    sub_0: assembly {\n            /* \"conduit/Conduit.sol\":1078:10213  contract Conduit is ConduitInterface, TokenTransferrer {... */\n          mstore(0x40, 0xa0)\n            /* \"conduit/Conduit.sol\":2751:2853  constructor() {... */\n          callvalue\n          dup1\n          iszero\n          tag_1\n          jumpi\n          0x00\n          dup1\n          revert\n        tag_1:\n          pop\n            /* \"conduit/Conduit.sol\":2836:2846  msg.sender */\n          caller\n            /* \"conduit/Conduit.sol\":2822:2846  _controller = msg.sender */\n          0xffffffffffffffffffffffffffffffffffffffff\n          and\n          0x80\n          dup2\n          0xffffffffffffffffffffffffffffffffffffffff\n          and\n          dup2\n          mstore\n          pop\n          pop\n            /* \"conduit/Conduit.sol\":1078:10213  contract Conduit is ConduitInterface, TokenTransferrer {... */\n          mload(0x80)\n          codecopy(0x00, dataOffset(sub_0), dataSize(sub_0))\n          0x00\n          assignImmutable(\"0x8fef2229291b68be841adf029e58b87f39ba144b2d3b0af1760243d0a9bc6a1c\")\n          return(0x00, dataSize(sub_0))\n        stop\n\n        sub_0: assembly {\n                /* \"conduit/Conduit.sol\":1078:10213  contract Conduit is ConduitInterface, TokenTransferrer {... */\n              mstore(0x40, 0x80)\n              callvalue\n              dup1\n              iszero\n              tag_1\n              jumpi\n              0x00\n              dup1\n              revert\n            tag_1:\n              pop\n              jumpi(tag_2, lt(calldatasize, 0x04))\n              shr(0xe0, calldataload(0x00))\n              dup1\n              0x4ce34aa2\n              eq\n              tag_3\n              jumpi\n              dup1\n              0x899e104c\n              eq\n              tag_4\n              jumpi\n              dup1\n              0x8df25d92\n              eq\n              tag_5\n              jumpi\n              dup1\n              0xc4e8fcb5\n              eq\n              tag_6\n              jumpi\n            tag_2:\n              0x00\n              dup1\n              revert\n                /* \"conduit/Conduit.sol\":3602:4376  function execute(ConduitTransfer[] calldata transfers)... */\n            tag_3:\n              tag_7\n              0x04\n              dup1\n              calldatasize\n              sub\n              dup2\n              add\n              swap1\n              tag_8\n              swap2\n              swap1\n              tag_9\n              jump\t// in\n            tag_8:\n              tag_10\n              jump\t// in\n            tag_7:\n              mload(0x40)\n              tag_11\n              swap2\n              swap1\n              tag_12\n              jump\t// in\n            tag_11:\n              mload(0x40)\n              dup1\n              swap2\n              sub\n              swap1\n              return\n                /* \"conduit/Conduit.sol\":6540:7672  function executeWithBatch1155(... */\n            tag_4:\n              tag_13\n              0x04\n              dup1\n              calldatasize\n              sub\n              dup2\n              add\n              swap1\n              tag_14\n              swap2\n              swap1\n              tag_15\n              jump\t// in\n            tag_14:\n              tag_16\n              jump\t// in\n            tag_13:\n              mload(0x40)\n              tag_17\n              swap2\n              swap1\n              tag_12\n              jump\t// in\n            tag_17:\n              mload(0x40)\n              dup1\n              swap2\n              sub\n              swap1\n              return\n                /* \"conduit/Conduit.sol\":5137:5619  function executeBatch1155(... */\n            tag_5:\n              tag_18\n              0x04\n              dup1\n              calldatasize\n              sub\n              dup2\n              add\n              swap1\n              tag_19\n              swap2\n              swap1\n              tag_20\n              jump\t// in\n            tag_19:\n              tag_21\n              jump\t// in\n            tag_18:\n              mload(0x40)\n              tag_22\n              swap2\n              swap1\n              tag_12\n              jump\t// in\n            tag_22:\n              mload(0x40)\n              dup1\n              swap2\n              sub\n              swap1\n              return\n                /* \"conduit/Conduit.sol\":7905:8508  function updateChannel(address channel, bool isOpen) external override {... */\n            tag_6:\n              tag_23\n              0x04\n              dup1\n              calldatasize\n              sub\n              dup2\n              add\n              swap1\n              tag_24\n              swap2\n              swap1\n              tag_25\n              jump\t// in\n            tag_24:\n              tag_26\n              jump\t// in\n            tag_23:\n              stop\n                /* \"conduit/Conduit.sol\":3602:4376  function execute(ConduitTransfer[] calldata transfers)... */\n            tag_10:\n                /* \"conduit/Conduit.sol\":3732:3749  bytes4 magicValue */\n              0x00\n                /* \"conduit/Conduit.sol\":1695:1703  caller() */\n              caller\n                /* \"conduit/Conduit.sol\":1671:1693  ChannelKey_channel_ptr */\n              0x00\n                /* \"conduit/Conduit.sol\":1664:1704  mstore(ChannelKey_channel_ptr, caller()) */\n              mstore\n                /* \"conduit/Conduit.sol\":1816:1830  _channels.slot */\n              0x00\n                /* \"conduit/Conduit.sol\":1795:1814  ChannelKey_slot_ptr */\n              0x20\n                /* \"conduit/Conduit.sol\":1788:1831  mstore(ChannelKey_slot_ptr, _channels.slot) */\n              mstore\n                /* \"conduit/Conduit.sol\":2037:2054  ChannelKey_length */\n              0x40\n                /* \"conduit/Conduit.sol\":2013:2035  ChannelKey_channel_ptr */\n              0x00\n                /* \"conduit/Conduit.sol\":2003:2055  keccak256(ChannelKey_channel_ptr, ChannelKey_length) */\n              keccak256\n                /* \"conduit/Conduit.sol\":1997:2056  sload(keccak256(ChannelKey_channel_ptr, ChannelKey_length)) */\n              sload\n                /* \"conduit/Conduit.sol\":1970:2585  if iszero(... */\n              tag_28\n              jumpi\n                /* \"conduit/Conduit.sol\":2267:2296  ChannelClosed_error_signature */\n              0x93daadf200000000000000000000000000000000000000000000000000000000\n                /* \"conduit/Conduit.sol\":2242:2265  ChannelClosed_error_ptr */\n              0x00\n                /* \"conduit/Conduit.sol\":2235:2297  mstore(ChannelClosed_error_ptr, ChannelClosed_error_signature) */\n              mstore\n                /* \"conduit/Conduit.sol\":2406:2414  caller() */\n              caller\n                /* \"conduit/Conduit.sol\":2379:2404  ChannelClosed_channel_ptr */\n              0x04\n                /* \"conduit/Conduit.sol\":2372:2415  mstore(ChannelClosed_channel_ptr, caller()) */\n              mstore\n                /* \"conduit/Conduit.sol\":2544:2570  ChannelClosed_error_length */\n              0x24\n                /* \"conduit/Conduit.sol\":2519:2542  ChannelClosed_error_ptr */\n              0x00\n                /* \"conduit/Conduit.sol\":2512:2571  revert(ChannelClosed_error_ptr, ChannelClosed_error_length) */\n              revert\n                /* \"conduit/Conduit.sol\":1970:2585  if iszero(... */\n            tag_28:\n                /* \"conduit/Conduit.sol\":3839:3869  uint256 totalStandardTransfers */\n              0x00\n                /* \"conduit/Conduit.sol\":3872:3881  transfers */\n              dup4\n              dup4\n                /* \"conduit/Conduit.sol\":3872:3888  transfers.length */\n              swap1\n              pop\n                /* \"conduit/Conduit.sol\":3839:3888  uint256 totalStandardTransfers = transfers.length */\n              swap1\n              pop\n                /* \"conduit/Conduit.sol\":3943:3952  uint256 i */\n              0x00\n                /* \"conduit/Conduit.sol\":3938:4247  for (uint256 i = 0; i < totalStandardTransfers; ) {... */\n            tag_30:\n                /* \"conduit/Conduit.sol\":3962:3984  totalStandardTransfers */\n              dup2\n                /* \"conduit/Conduit.sol\":3958:3959  i */\n              dup2\n                /* \"conduit/Conduit.sol\":3958:3984  i < totalStandardTransfers */\n              lt\n                /* \"conduit/Conduit.sol\":3938:4247  for (uint256 i = 0; i < totalStandardTransfers; ) {... */\n              iszero\n              tag_31\n              jumpi\n                /* \"conduit/Conduit.sol\":4077:4100  _transfer(transfers[i]) */\n              tag_33\n                /* \"conduit/Conduit.sol\":4087:4096  transfers */\n              dup6\n              dup6\n                /* \"conduit/Conduit.sol\":4097:4098  i */\n              dup4\n                /* \"conduit/Conduit.sol\":4087:4099  transfers[i] */\n              dup2\n              dup2\n              lt\n              tag_34\n              jumpi\n              tag_35\n              tag_36\n              jump\t// in\n            tag_35:\n            tag_34:\n              swap1\n              pop\n              0xc0\n              mul\n              add\n                /* \"conduit/Conduit.sol\":4077:4086  _transfer */\n              tag_37\n                /* \"conduit/Conduit.sol\":4077:4100  _transfer(transfers[i]) */\n              jump\t// in\n            tag_33:\n                /* \"conduit/Conduit.sol\":4219:4222  ++i */\n              dup1\n              0x01\n              add\n              swap1\n              pop\n                /* \"conduit/Conduit.sol\":3938:4247  for (uint256 i = 0; i < totalStandardTransfers; ) {... */\n              jump(tag_30)\n            tag_31:\n              pop\n                /* \"conduit/Conduit.sol\":4348:4369  this.execute.selector */\n              shl(0xe0, 0x4ce34aa2)\n                /* \"conduit/Conduit.sol\":4335:4369  magicValue = this.execute.selector */\n              swap2\n              pop\n                /* \"conduit/Conduit.sol\":3755:4376  {... */\n              pop\n                /* \"conduit/Conduit.sol\":3602:4376  function execute(ConduitTransfer[] calldata transfers)... */\n              swap3\n              swap2\n              pop\n              pop\n              jump\t// out\n                /* \"conduit/Conduit.sol\":6540:7672  function executeWithBatch1155(... */\n            tag_16:\n                /* \"conduit/Conduit.sol\":6733:6750  bytes4 magicValue */\n              0x00\n                /* \"conduit/Conduit.sol\":1695:1703  caller() */\n              caller\n                /* \"conduit/Conduit.sol\":1671:1693  ChannelKey_channel_ptr */\n              0x00\n                /* \"conduit/Conduit.sol\":1664:1704  mstore(ChannelKey_channel_ptr, caller()) */\n              mstore\n                /* \"conduit/Conduit.sol\":1816:1830  _channels.slot */\n              0x00\n                /* \"conduit/Conduit.sol\":1795:1814  ChannelKey_slot_ptr */\n              0x20\n                /* \"conduit/Conduit.sol\":1788:1831  mstore(ChannelKey_slot_ptr, _channels.slot) */\n              mstore\n                /* \"conduit/Conduit.sol\":2037:2054  ChannelKey_length */\n              0x40\n                /* \"conduit/Conduit.sol\":2013:2035  ChannelKey_channel_ptr */\n              0x00\n                /* \"conduit/Conduit.sol\":2003:2055  keccak256(ChannelKey_channel_ptr, ChannelKey_length) */\n              keccak256\n                /* \"conduit/Conduit.sol\":1997:2056  sload(keccak256(ChannelKey_channel_ptr, ChannelKey_length)) */\n              sload\n                /* \"conduit/Conduit.sol\":1970:2585  if iszero(... */\n              tag_39\n              jumpi\n                /* \"conduit/Conduit.sol\":2267:2296  ChannelClosed_error_signature */\n              0x93daadf200000000000000000000000000000000000000000000000000000000\n                /* \"conduit/Conduit.sol\":2242:2265  ChannelClosed_error_ptr */\n              0x00\n                /* \"conduit/Conduit.sol\":2235:2297  mstore(ChannelClosed_error_ptr, ChannelClosed_error_signature) */\n              mstore\n                /* \"conduit/Conduit.sol\":2406:2414  caller() */\n              caller\n                /* \"conduit/Conduit.sol\":2379:2404  ChannelClosed_channel_ptr */\n              0x04\n                /* \"conduit/Conduit.sol\":2372:2415  mstore(ChannelClosed_channel_ptr, caller()) */\n              mstore\n                /* \"conduit/Conduit.sol\":2544:2570  ChannelClosed_error_length */\n              0x24\n                /* \"conduit/Conduit.sol\":2519:2542  ChannelClosed_error_ptr */\n              0x00\n                /* \"conduit/Conduit.sol\":2512:2571  revert(ChannelClosed_error_ptr, ChannelClosed_error_length) */\n              revert\n                /* \"conduit/Conduit.sol\":1970:2585  if iszero(... */\n            tag_39:\n                /* \"conduit/Conduit.sol\":6836:6866  uint256 totalStandardTransfers */\n              0x00\n                /* \"conduit/Conduit.sol\":6869:6886  standardTransfers */\n              dup6\n              dup6\n                /* \"conduit/Conduit.sol\":6869:6893  standardTransfers.length */\n              swap1\n              pop\n                /* \"conduit/Conduit.sol\":6836:6893  uint256 totalStandardTransfers = standardTransfers.length */\n              swap1\n              pop\n                /* \"conduit/Conduit.sol\":6957:6966  uint256 i */\n              0x00\n                /* \"conduit/Conduit.sol\":6952:7269  for (uint256 i = 0; i < totalStandardTransfers; ) {... */\n            tag_41:\n                /* \"conduit/Conduit.sol\":6976:6998  totalStandardTransfers */\n              dup2\n                /* \"conduit/Conduit.sol\":6972:6973  i */\n              dup2\n                /* \"conduit/Conduit.sol\":6972:6998  i < totalStandardTransfers */\n              lt\n                /* \"conduit/Conduit.sol\":6952:7269  for (uint256 i = 0; i < totalStandardTransfers; ) {... */\n              iszero\n              tag_42\n              jumpi\n                /* \"conduit/Conduit.sol\":7091:7122  _transfer(standardTransfers[i]) */\n              tag_44\n                /* \"conduit/Conduit.sol\":7101:7118  standardTransfers */\n              dup8\n              dup8\n                /* \"conduit/Conduit.sol\":7119:7120  i */\n              dup4\n                /* \"conduit/Conduit.sol\":7101:7121  standardTransfers[i] */\n              dup2\n              dup2\n              lt\n              tag_45\n              jumpi\n              tag_46\n              tag_36\n              jump\t// in\n            tag_46:\n            tag_45:\n              swap1\n              pop\n              0xc0\n              mul\n              add\n                /* \"conduit/Conduit.sol\":7091:7100  _transfer */\n              tag_37\n                /* \"conduit/Conduit.sol\":7091:7122  _transfer(standardTransfers[i]) */\n              jump\t// in\n            tag_44:\n                /* \"conduit/Conduit.sol\":7241:7244  ++i */\n              dup1\n              0x01\n              add\n              swap1\n              pop\n                /* \"conduit/Conduit.sol\":6952:7269  for (uint256 i = 0; i < totalStandardTransfers; ) {... */\n              jump(tag_41)\n            tag_42:\n              pop\n                /* \"conduit/Conduit.sol\":7484:7529  _performERC1155BatchTransfers(batchTransfers) */\n              tag_47\n                /* \"conduit/Conduit.sol\":7514:7528  batchTransfers */\n              dup5\n              dup5\n                /* \"conduit/Conduit.sol\":7484:7513  _performERC1155BatchTransfers */\n              tag_48\n                /* \"conduit/Conduit.sol\":7484:7529  _performERC1155BatchTransfers(batchTransfers) */\n              jump\t// in\n            tag_47:\n                /* \"conduit/Conduit.sol\":7631:7665  this.executeWithBatch1155.selector */\n              shl(0xe0, 0x899e104c)\n                /* \"conduit/Conduit.sol\":7618:7665  magicValue = this.executeWithBatch1155.selector */\n              swap2\n              pop\n                /* \"conduit/Conduit.sol\":6752:7672  {... */\n              pop\n                /* \"conduit/Conduit.sol\":6540:7672  function executeWithBatch1155(... */\n              swap5\n              swap4\n              pop\n              pop\n              pop\n              pop\n              jump\t// out\n                /* \"conduit/Conduit.sol\":5137:5619  function executeBatch1155(... */\n            tag_21:\n                /* \"conduit/Conduit.sol\":5272:5289  bytes4 magicValue */\n              0x00\n                /* \"conduit/Conduit.sol\":1695:1703  caller() */\n              caller\n                /* \"conduit/Conduit.sol\":1671:1693  ChannelKey_channel_ptr */\n              0x00\n                /* \"conduit/Conduit.sol\":1664:1704  mstore(ChannelKey_channel_ptr, caller()) */\n              mstore\n                /* \"conduit/Conduit.sol\":1816:1830  _channels.slot */\n              0x00\n                /* \"conduit/Conduit.sol\":1795:1814  ChannelKey_slot_ptr */\n              0x20\n                /* \"conduit/Conduit.sol\":1788:1831  mstore(ChannelKey_slot_ptr, _channels.slot) */\n              mstore\n                /* \"conduit/Conduit.sol\":2037:2054  ChannelKey_length */\n              0x40\n                /* \"conduit/Conduit.sol\":2013:2035  ChannelKey_channel_ptr */\n              0x00\n                /* \"conduit/Conduit.sol\":2003:2055  keccak256(ChannelKey_channel_ptr, ChannelKey_length) */\n              keccak256\n                /* \"conduit/Conduit.sol\":1997:2056  sload(keccak256(ChannelKey_channel_ptr, ChannelKey_length)) */\n              sload\n                /* \"conduit/Conduit.sol\":1970:2585  if iszero(... */\n              tag_50\n              jumpi\n                /* \"conduit/Conduit.sol\":2267:2296  ChannelClosed_error_signature */\n              0x93daadf200000000000000000000000000000000000000000000000000000000\n                /* \"conduit/Conduit.sol\":2242:2265  ChannelClosed_error_ptr */\n              0x00\n                /* \"conduit/Conduit.sol\":2235:2297  mstore(ChannelClosed_error_ptr, ChannelClosed_error_signature) */\n              mstore\n                /* \"conduit/Conduit.sol\":2406:2414  caller() */\n              caller\n                /* \"conduit/Conduit.sol\":2379:2404  ChannelClosed_channel_ptr */\n              0x04\n                /* \"conduit/Conduit.sol\":2372:2415  mstore(ChannelClosed_channel_ptr, caller()) */\n              mstore\n                /* \"conduit/Conduit.sol\":2544:2570  ChannelClosed_error_length */\n              0x24\n                /* \"conduit/Conduit.sol\":2519:2542  ChannelClosed_error_ptr */\n              0x00\n                /* \"conduit/Conduit.sol\":2512:2571  revert(ChannelClosed_error_ptr, ChannelClosed_error_length) */\n              revert\n                /* \"conduit/Conduit.sol\":1970:2585  if iszero(... */\n            tag_50:\n                /* \"conduit/Conduit.sol\":5435:5480  _performERC1155BatchTransfers(batchTransfers) */\n              tag_52\n                /* \"conduit/Conduit.sol\":5465:5479  batchTransfers */\n              dup4\n              dup4\n                /* \"conduit/Conduit.sol\":5435:5464  _performERC1155BatchTransfers */\n              tag_48\n                /* \"conduit/Conduit.sol\":5435:5480  _performERC1155BatchTransfers(batchTransfers) */\n              jump\t// in\n            tag_52:\n                /* \"conduit/Conduit.sol\":5582:5612  this.executeBatch1155.selector */\n              shl(0xe0, 0x8df25d92)\n                /* \"conduit/Conduit.sol\":5569:5612  magicValue = this.executeBatch1155.selector */\n              swap1\n              pop\n                /* \"conduit/Conduit.sol\":5137:5619  function executeBatch1155(... */\n              swap3\n              swap2\n              pop\n              pop\n              jump\t// out\n                /* \"conduit/Conduit.sol\":7905:8508  function updateChannel(address channel, bool isOpen) external override {... */\n            tag_26:\n                /* \"conduit/Conduit.sol\":8074:8085  _controller */\n              immutable(\"0x8fef2229291b68be841adf029e58b87f39ba144b2d3b0af1760243d0a9bc6a1c\")\n                /* \"conduit/Conduit.sol\":8060:8085  msg.sender != _controller */\n              0xffffffffffffffffffffffffffffffffffffffff\n              and\n                /* \"conduit/Conduit.sol\":8060:8070  msg.sender */\n              caller\n                /* \"conduit/Conduit.sol\":8060:8085  msg.sender != _controller */\n              0xffffffffffffffffffffffffffffffffffffffff\n              and\n              eq\n                /* \"conduit/Conduit.sol\":8056:8138  if (msg.sender != _controller) {... */\n              tag_54\n              jumpi\n                /* \"conduit/Conduit.sol\":8108:8127  InvalidController() */\n              mload(0x40)\n              0x6d5769be00000000000000000000000000000000000000000000000000000000\n              dup2\n              mstore\n              0x04\n              add\n              mload(0x40)\n              dup1\n              swap2\n              sub\n              swap1\n              revert\n                /* \"conduit/Conduit.sol\":8056:8138  if (msg.sender != _controller) {... */\n            tag_54:\n                /* \"conduit/Conduit.sol\":8253:8259  isOpen */\n              dup1\n                /* \"conduit/Conduit.sol\":8231:8259  _channels[channel] == isOpen */\n              iszero\n              iszero\n                /* \"conduit/Conduit.sol\":8231:8240  _channels */\n              0x00\n                /* \"conduit/Conduit.sol\":8231:8249  _channels[channel] */\n              dup1\n                /* \"conduit/Conduit.sol\":8241:8248  channel */\n              dup5\n                /* \"conduit/Conduit.sol\":8231:8249  _channels[channel] */\n              0xffffffffffffffffffffffffffffffffffffffff\n              and\n              0xffffffffffffffffffffffffffffffffffffffff\n              and\n              dup2\n              mstore\n              0x20\n              add\n              swap1\n              dup2\n              mstore\n              0x20\n              add\n              0x00\n              keccak256\n              0x00\n              swap1\n              sload\n              swap1\n              0x0100\n              exp\n              swap1\n              div\n              0xff\n              and\n                /* \"conduit/Conduit.sol\":8231:8259  _channels[channel] == isOpen */\n              iszero\n              iszero\n              sub\n                /* \"conduit/Conduit.sol\":8227:8333  if (_channels[channel] == isOpen) {... */\n              tag_55\n              jumpi\n                /* \"conduit/Conduit.sol\":8306:8313  channel */\n              dup2\n                /* \"conduit/Conduit.sol\":8315:8321  isOpen */\n              dup2\n                /* \"conduit/Conduit.sol\":8282:8322  ChannelStatusAlreadySet(channel, isOpen) */\n              mload(0x40)\n              0x924e341e00000000000000000000000000000000000000000000000000000000\n              dup2\n              mstore\n              0x04\n              add\n              tag_56\n              swap3\n              swap2\n              swap1\n              tag_57\n              jump\t// in\n            tag_56:\n              mload(0x40)\n              dup1\n              swap2\n              sub\n              swap1\n              revert\n                /* \"conduit/Conduit.sol\":8227:8333  if (_channels[channel] == isOpen) {... */\n            tag_55:\n                /* \"conduit/Conduit.sol\":8409:8415  isOpen */\n              dup1\n                /* \"conduit/Conduit.sol\":8388:8397  _channels */\n              0x00\n                /* \"conduit/Conduit.sol\":8388:8406  _channels[channel] */\n              dup1\n                /* \"conduit/Conduit.sol\":8398:8405  channel */\n              dup5\n                /* \"conduit/Conduit.sol\":8388:8406  _channels[channel] */\n              0xffffffffffffffffffffffffffffffffffffffff\n              and\n              0xffffffffffffffffffffffffffffffffffffffff\n              and\n              dup2\n              mstore\n              0x20\n              add\n              swap1\n              dup2\n              mstore\n              0x20\n              add\n              0x00\n              keccak256\n              0x00\n                /* \"conduit/Conduit.sol\":8388:8415  _channels[channel] = isOpen */\n              0x0100\n              exp\n              dup2\n              sload\n              dup2\n              0xff\n              mul\n              not\n              and\n              swap1\n              dup4\n              iszero\n              iszero\n              mul\n              or\n              swap1\n              sstore\n              pop\n                /* \"conduit/Conduit.sol\":8485:8492  channel */\n              dup2\n                /* \"conduit/Conduit.sol\":8470:8501  ChannelUpdated(channel, isOpen) */\n              0xffffffffffffffffffffffffffffffffffffffff\n              and\n              0xae63067d43ac07563b7eb8db6595635fc77f1578a2a5ea06ba91b63e2afa37e2\n                /* \"conduit/Conduit.sol\":8494:8500  isOpen */\n              dup3\n                /* \"conduit/Conduit.sol\":8470:8501  ChannelUpdated(channel, isOpen) */\n              mload(0x40)\n              tag_58\n              swap2\n              swap1\n              tag_59\n              jump\t// in\n            tag_58:\n              mload(0x40)\n              dup1\n              swap2\n              sub\n              swap1\n              log2\n                /* \"conduit/Conduit.sol\":7905:8508  function updateChannel(address channel, bool isOpen) external override {... */\n              pop\n              pop\n              jump\t// out\n                /* \"conduit/Conduit.sol\":8814:10211  function _transfer(ConduitTransfer calldata item) internal {... */\n            tag_37:\n                /* \"conduit/Conduit.sol\":8980:9001  ConduitItemType.ERC20 */\n              0x01\n                /* \"conduit/Conduit.sol\":8963:9001  item.itemType == ConduitItemType.ERC20 */\n              0x03\n              dup2\n              gt\n              iszero\n              tag_61\n              jumpi\n              tag_62\n              tag_63\n              jump\t// in\n            tag_62:\n            tag_61:\n                /* \"conduit/Conduit.sol\":8963:8967  item */\n              dup2\n                /* \"conduit/Conduit.sol\":8963:8976  item.itemType */\n              0x00\n              add\n              0x20\n              dup2\n              add\n              swap1\n              tag_64\n              swap2\n              swap1\n              tag_65\n              jump\t// in\n            tag_64:\n                /* \"conduit/Conduit.sol\":8963:9001  item.itemType == ConduitItemType.ERC20 */\n              0x03\n              dup2\n              gt\n              iszero\n              tag_66\n              jumpi\n              tag_67\n              tag_63\n              jump\t// in\n            tag_67:\n            tag_66:\n              sub\n                /* \"conduit/Conduit.sol\":8959:10205  if (item.itemType == ConduitItemType.ERC20) {... */\n              tag_68\n              jumpi\n                /* \"conduit/Conduit.sol\":9304:9370  _performERC20Transfer(item.token, item.from, item.to, item.amount) */\n              tag_69\n                /* \"conduit/Conduit.sol\":9326:9330  item */\n              dup2\n                /* \"conduit/Conduit.sol\":9326:9336  item.token */\n              0x20\n              add\n              0x20\n              dup2\n              add\n              swap1\n              tag_70\n              swap2\n              swap1\n              tag_71\n              jump\t// in\n            tag_70:\n                /* \"conduit/Conduit.sol\":9338:9342  item */\n              dup3\n                /* \"conduit/Conduit.sol\":9338:9347  item.from */\n              0x40\n              add\n              0x20\n              dup2\n              add\n              swap1\n              tag_72\n              swap2\n              swap1\n              tag_71\n              jump\t// in\n            tag_72:\n                /* \"conduit/Conduit.sol\":9349:9353  item */\n              dup4\n                /* \"conduit/Conduit.sol\":9349:9356  item.to */\n              0x60\n              add\n              0x20\n              dup2\n              add\n              swap1\n              tag_73\n              swap2\n              swap1\n              tag_71\n              jump\t// in\n            tag_73:\n                /* \"conduit/Conduit.sol\":9358:9362  item */\n              dup5\n                /* \"conduit/Conduit.sol\":9358:9369  item.amount */\n              0xa0\n              add\n              calldataload\n                /* \"conduit/Conduit.sol\":9304:9325  _performERC20Transfer */\n              tag_74\n                /* \"conduit/Conduit.sol\":9304:9370  _performERC20Transfer(item.token, item.from, item.to, item.amount) */\n              jump\t// in\n            tag_69:\n                /* \"conduit/Conduit.sol\":8959:10205  if (item.itemType == ConduitItemType.ERC20) {... */\n              jump(tag_75)\n            tag_68:\n                /* \"conduit/Conduit.sol\":9408:9430  ConduitItemType.ERC721 */\n              0x02\n                /* \"conduit/Conduit.sol\":9391:9430  item.itemType == ConduitItemType.ERC721 */\n              0x03\n              dup2\n              gt\n              iszero\n              tag_76\n              jumpi\n              tag_77\n              tag_63\n              jump\t// in\n            tag_77:\n            tag_76:\n                /* \"conduit/Conduit.sol\":9391:9395  item */\n              dup2\n                /* \"conduit/Conduit.sol\":9391:9404  item.itemType */\n              0x00\n              add\n              0x20\n              dup2\n              add\n              swap1\n              tag_78\n              swap2\n              swap1\n              tag_65\n              jump\t// in\n            tag_78:\n                /* \"conduit/Conduit.sol\":9391:9430  item.itemType == ConduitItemType.ERC721 */\n              0x03\n              dup2\n              gt\n              iszero\n              tag_79\n              jumpi\n              tag_80\n              tag_63\n              jump\t// in\n            tag_80:\n            tag_79:\n              sub\n                /* \"conduit/Conduit.sol\":9387:10205  if (item.itemType == ConduitItemType.ERC721) {... */\n              tag_81\n              jumpi\n                /* \"conduit/Conduit.sol\":9535:9536  1 */\n              0x01\n                /* \"conduit/Conduit.sol\":9520:9524  item */\n              dup2\n                /* \"conduit/Conduit.sol\":9520:9531  item.amount */\n              0xa0\n              add\n              calldataload\n                /* \"conduit/Conduit.sol\":9520:9536  item.amount != 1 */\n              eq\n                /* \"conduit/Conduit.sol\":9516:9607  if (item.amount != 1) {... */\n              tag_82\n              jumpi\n                /* \"conduit/Conduit.sol\":9563:9592  InvalidERC721TransferAmount() */\n              mload(0x40)\n              0xefcc00b100000000000000000000000000000000000000000000000000000000\n              dup2\n              mstore\n              0x04\n              add\n              mload(0x40)\n              dup1\n              swap2\n              sub\n              swap1\n              revert\n                /* \"conduit/Conduit.sol\":9516:9607  if (item.amount != 1) {... */\n            tag_82:\n                /* \"conduit/Conduit.sol\":9659:9808  _performERC721Transfer(... */\n              tag_83\n                /* \"conduit/Conduit.sol\":9699:9703  item */\n              dup2\n                /* \"conduit/Conduit.sol\":9699:9709  item.token */\n              0x20\n              add\n              0x20\n              dup2\n              add\n              swap1\n              tag_84\n              swap2\n              swap1\n              tag_71\n              jump\t// in\n            tag_84:\n                /* \"conduit/Conduit.sol\":9727:9731  item */\n              dup3\n                /* \"conduit/Conduit.sol\":9727:9736  item.from */\n              0x40\n              add\n              0x20\n              dup2\n              add\n              swap1\n              tag_85\n              swap2\n              swap1\n              tag_71\n              jump\t// in\n            tag_85:\n                /* \"conduit/Conduit.sol\":9754:9758  item */\n              dup4\n                /* \"conduit/Conduit.sol\":9754:9761  item.to */\n              0x60\n              add\n              0x20\n              dup2\n              add\n              swap1\n              tag_86\n              swap2\n              swap1\n              tag_71\n              jump\t// in\n            tag_86:\n                /* \"conduit/Conduit.sol\":9779:9783  item */\n              dup5\n                /* \"conduit/Conduit.sol\":9779:9794  item.identifier */\n              0x80\n              add\n              calldataload\n                /* \"conduit/Conduit.sol\":9659:9681  _performERC721Transfer */\n              tag_87\n                /* \"conduit/Conduit.sol\":9659:9808  _performERC721Transfer(... */\n              jump\t// in\n            tag_83:\n                /* \"conduit/Conduit.sol\":9387:10205  if (item.itemType == ConduitItemType.ERC721) {... */\n              jump(tag_88)\n            tag_81:\n                /* \"conduit/Conduit.sol\":9846:9869  ConduitItemType.ERC1155 */\n              0x03\n                /* \"conduit/Conduit.sol\":9829:9869  item.itemType == ConduitItemType.ERC1155 */\n              dup1\n              dup2\n              gt\n              iszero\n              tag_89\n              jumpi\n              tag_90\n              tag_63\n              jump\t// in\n            tag_90:\n            tag_89:\n                /* \"conduit/Conduit.sol\":9829:9833  item */\n              dup2\n                /* \"conduit/Conduit.sol\":9829:9842  item.itemType */\n              0x00\n              add\n              0x20\n              dup2\n              add\n              swap1\n              tag_91\n              swap2\n              swap1\n              tag_65\n              jump\t// in\n            tag_91:\n                /* \"conduit/Conduit.sol\":9829:9869  item.itemType == ConduitItemType.ERC1155 */\n              0x03\n              dup2\n              gt\n              iszero\n              tag_92\n              jumpi\n              tag_93\n              tag_63\n              jump\t// in\n            tag_93:\n            tag_92:\n              sub\n                /* \"conduit/Conduit.sol\":9825:10205  if (item.itemType == ConduitItemType.ERC1155) {... */\n              tag_94\n              jumpi\n                /* \"conduit/Conduit.sol\":9924:10103  _performERC1155Transfer(... */\n              tag_95\n                /* \"conduit/Conduit.sol\":9965:9969  item */\n              dup2\n                /* \"conduit/Conduit.sol\":9965:9975  item.token */\n              0x20\n              add\n              0x20\n              dup2\n              add\n              swap1\n              tag_96\n              swap2\n              swap1\n              tag_71\n              jump\t// in\n            tag_96:\n                /* \"conduit/Conduit.sol\":9993:9997  item */\n              dup3\n                /* \"conduit/Conduit.sol\":9993:10002  item.from */\n              0x40\n              add\n              0x20\n              dup2\n              add\n              swap1\n              tag_97\n              swap2\n              swap1\n              tag_71\n              jump\t// in\n            tag_97:\n                /* \"conduit/Conduit.sol\":10020:10024  item */\n              dup4\n                /* \"conduit/Conduit.sol\":10020:10027  item.to */\n              0x60\n              add\n              0x20\n              dup2\n              add\n              swap1\n              tag_98\n              swap2\n              swap1\n              tag_71\n              jump\t// in\n            tag_98:\n                /* \"conduit/Conduit.sol\":10045:10049  item */\n              dup5\n                /* \"conduit/Conduit.sol\":10045:10060  item.identifier */\n              0x80\n              add\n              calldataload\n                /* \"conduit/Conduit.sol\":10078:10082  item */\n              dup6\n                /* \"conduit/Conduit.sol\":10078:10089  item.amount */\n              0xa0\n              add\n              calldataload\n                /* \"conduit/Conduit.sol\":9924:9947  _performERC1155Transfer */\n              tag_99\n                /* \"conduit/Conduit.sol\":9924:10103  _performERC1155Transfer(... */\n              jump\t// in\n            tag_95:\n                /* \"conduit/Conduit.sol\":9825:10205  if (item.itemType == ConduitItemType.ERC1155) {... */\n              jump(tag_100)\n            tag_94:\n                /* \"conduit/Conduit.sol\":10177:10194  InvalidItemType() */\n              mload(0x40)\n              0x7932f1fc00000000000000000000000000000000000000000000000000000000\n              dup2\n              mstore\n              0x04\n              add\n              mload(0x40)\n              dup1\n              swap2\n              sub\n              swap1\n              revert\n                /* \"conduit/Conduit.sol\":9825:10205  if (item.itemType == ConduitItemType.ERC1155) {... */\n            tag_100:\n                /* \"conduit/Conduit.sol\":9387:10205  if (item.itemType == ConduitItemType.ERC721) {... */\n            tag_88:\n                /* \"conduit/Conduit.sol\":8959:10205  if (item.itemType == ConduitItemType.ERC20) {... */\n            tag_75:\n                /* \"conduit/Conduit.sol\":8814:10211  function _transfer(ConduitTransfer calldata item) internal {... */\n              pop\n              jump\t// out\n                /* \"lib/TokenTransferrer.sol\":23697:35180  function _performERC1155BatchTransfers(... */\n            tag_48:\n                /* \"lib/TokenTransferrer.sol\":23926:23947  batchTransfers.length */\n              dup1\n                /* \"lib/TokenTransferrer.sol\":24213:24234  batchTransfers.offset */\n              dup3\n                /* \"lib/TokenTransferrer.sol\":24493:24511  nextElementHeadPtr */\n              dup1\n                /* \"lib/TokenTransferrer.sol\":24763:24802  ERC1155_safeBatchTransferFrom_signature */\n              0x2eb2c2d600000000000000000000000000000000000000000000000000000000\n                /* \"lib/TokenTransferrer.sol\":24709:24745  ConduitBatch1155Transfer_from_offset */\n              0x20\n                /* \"lib/TokenTransferrer.sol\":24685:24816  mstore(... */\n              mstore\n                /* \"lib/TokenTransferrer.sol\":24910:24911  0 */\n              0x00\n                /* \"lib/TokenTransferrer.sol\":24879:34775  for {... */\n            tag_102:\n                /* \"lib/TokenTransferrer.sol\":24932:24935  len */\n              dup4\n                /* \"lib/TokenTransferrer.sol\":24929:24930  i */\n              dup2\n                /* \"lib/TokenTransferrer.sol\":24926:24936  lt(i, len) */\n              lt\n                /* \"lib/TokenTransferrer.sol\":24879:34775  for {... */\n              iszero\n              tag_104\n              jumpi\n                /* \"lib/TokenTransferrer.sol\":25311:25329  nextElementHeadPtr */\n              dup3\n                /* \"lib/TokenTransferrer.sol\":25298:25330  calldataload(nextElementHeadPtr) */\n              calldataload\n                /* \"lib/TokenTransferrer.sol\":25264:25276  arrayHeadPtr */\n              dup3\n                /* \"lib/TokenTransferrer.sol\":25239:25348  add(... */\n              add\n                /* \"lib/TokenTransferrer.sol\":25445:25455  elementPtr */\n              dup1\n                /* \"lib/TokenTransferrer.sol\":25432:25456  calldataload(elementPtr) */\n              calldataload\n                /* \"lib/TokenTransferrer.sol\":25549:25554  token */\n              dup1\n                /* \"lib/TokenTransferrer.sol\":25537:25555  extcodesize(token) */\n              extcodesize\n                /* \"lib/TokenTransferrer.sol\":25527:25797  if iszero(extcodesize(token)) {... */\n              tag_105\n              jumpi\n                /* \"lib/TokenTransferrer.sol\":25612:25638  NoContract_error_signature */\n              0x5f15d67200000000000000000000000000000000000000000000000000000000\n                /* \"lib/TokenTransferrer.sol\":25586:25610  NoContract_error_sig_ptr */\n              0x00\n                /* \"lib/TokenTransferrer.sol\":25579:25639  mstore(NoContract_error_sig_ptr, NoContract_error_signature) */\n              mstore\n                /* \"lib/TokenTransferrer.sol\":25695:25700  token */\n              dup1\n                /* \"lib/TokenTransferrer.sol\":25667:25693  NoContract_error_token_ptr */\n              0x04\n                /* \"lib/TokenTransferrer.sol\":25660:25701  mstore(NoContract_error_token_ptr, token) */\n              mstore\n                /* \"lib/TokenTransferrer.sol\":25755:25778  NoContract_error_length */\n              0x24\n                /* \"lib/TokenTransferrer.sol\":25729:25753  NoContract_error_sig_ptr */\n              0x00\n                /* \"lib/TokenTransferrer.sol\":25722:25779  revert(NoContract_error_sig_ptr, NoContract_error_length) */\n              revert\n                /* \"lib/TokenTransferrer.sol\":25527:25797  if iszero(extcodesize(token)) {... */\n            tag_105:\n                /* \"lib/TokenTransferrer.sol\":25939:25981  ConduitBatch1155Transfer_ids_length_offset */\n              0xa0\n                /* \"lib/TokenTransferrer.sol\":25927:25937  elementPtr */\n              dup3\n                /* \"lib/TokenTransferrer.sol\":25923:25982  add(elementPtr, ConduitBatch1155Transfer_ids_length_offset) */\n              add\n                /* \"lib/TokenTransferrer.sol\":25889:26000  calldataload(... */\n              calldataload\n                /* \"lib/TokenTransferrer.sol\":26231:26238  OneWord */\n              0x20\n                /* \"lib/TokenTransferrer.sol\":26220:26229  idsLength */\n              dup2\n                /* \"lib/TokenTransferrer.sol\":26216:26239  mul(idsLength, OneWord) */\n              mul\n                /* \"lib/TokenTransferrer.sol\":26144:26194  ConduitBatch1155Transfer_amounts_length_baseOffset */\n              0xc0\n                /* \"lib/TokenTransferrer.sol\":26119:26257  add(... */\n              add\n                /* \"lib/TokenTransferrer.sol\":27544:27565  expectedAmountsOffset */\n              dup1\n                /* \"lib/TokenTransferrer.sol\":27398:27438  ConduitBatchTransfer_amounts_head_offset */\n              0x80\n                /* \"lib/TokenTransferrer.sol\":27346:27356  elementPtr */\n              dup6\n                /* \"lib/TokenTransferrer.sol\":27301:27476  add(... */\n              add\n                /* \"lib/TokenTransferrer.sol\":27251:27510  calldataload(... */\n              calldataload\n                /* \"lib/TokenTransferrer.sol\":27215:27595  eq(... */\n              eq\n                /* \"lib/TokenTransferrer.sol\":27043:27085  ConduitBatch1155Transfer_ids_length_offset */\n              0xa0\n                /* \"lib/TokenTransferrer.sol\":26897:26937  ConduitBatch1155Transfer_ids_head_offset */\n              0x60\n                /* \"lib/TokenTransferrer.sol\":26845:26855  elementPtr */\n              dup7\n                /* \"lib/TokenTransferrer.sol\":26800:26975  add(... */\n              add\n                /* \"lib/TokenTransferrer.sol\":26750:27009  calldataload(... */\n              calldataload\n                /* \"lib/TokenTransferrer.sol\":26714:27115  eq(... */\n              eq\n                /* \"lib/TokenTransferrer.sol\":26631:27621  and(... */\n              and\n                /* \"lib/TokenTransferrer.sol\":26556:26577  expectedAmountsOffset */\n              dup2\n                /* \"lib/TokenTransferrer.sol\":26544:26554  elementPtr */\n              dup6\n                /* \"lib/TokenTransferrer.sol\":26540:26578  add(elementPtr, expectedAmountsOffset) */\n              add\n                /* \"lib/TokenTransferrer.sol\":26527:26579  calldataload(add(elementPtr, expectedAmountsOffset)) */\n              calldataload\n                /* \"lib/TokenTransferrer.sol\":26488:26497  idsLength */\n              dup4\n                /* \"lib/TokenTransferrer.sol\":26456:26605  eq(... */\n              eq\n                /* \"lib/TokenTransferrer.sol\":26371:27643  and(... */\n              and\n                /* \"lib/TokenTransferrer.sol\":26343:27661  iszero(... */\n              iszero\n                /* \"lib/TokenTransferrer.sol\":27752:27767  invalidEncoding */\n              dup1\n                /* \"lib/TokenTransferrer.sol\":27749:28141  if invalidEncoding {... */\n              iszero\n              tag_106\n              jumpi\n                /* \"lib/TokenTransferrer.sol\":27884:27925  Invalid1155BatchTransferEncoding_selector */\n              0xeba2084c00000000000000000000000000000000000000000000000000000000\n                /* \"lib/TokenTransferrer.sol\":27822:27858  Invalid1155BatchTransferEncoding_ptr */\n              0x00\n                /* \"lib/TokenTransferrer.sol\":27790:27947  mstore(... */\n              mstore\n                /* \"lib/TokenTransferrer.sol\":28062:28101  Invalid1155BatchTransferEncoding_length */\n              0x04\n                /* \"lib/TokenTransferrer.sol\":28000:28036  Invalid1155BatchTransferEncoding_ptr */\n              0x00\n                /* \"lib/TokenTransferrer.sol\":27968:28123  revert(... */\n              revert\n                /* \"lib/TokenTransferrer.sol\":27749:28141  if invalidEncoding {... */\n            tag_106:\n                /* \"lib/TokenTransferrer.sol\":28269:28276  OneWord */\n              0x20\n                /* \"lib/TokenTransferrer.sol\":28249:28267  nextElementHeadPtr */\n              dup9\n                /* \"lib/TokenTransferrer.sol\":28245:28277  add(nextElementHeadPtr, OneWord) */\n              add\n                /* \"lib/TokenTransferrer.sol\":28223:28277  nextElementHeadPtr := add(nextElementHeadPtr, OneWord) */\n              swap8\n              pop\n                /* \"lib/TokenTransferrer.sol\":28532:28573  ConduitBatch1155Transfer_usable_head_size */\n              0x80\n                /* \"lib/TokenTransferrer.sol\":28473:28509  ConduitBatch1155Transfer_from_offset */\n              0x20\n                /* \"lib/TokenTransferrer.sol\":28461:28471  elementPtr */\n              dup7\n                /* \"lib/TokenTransferrer.sol\":28457:28510  add(elementPtr, ConduitBatch1155Transfer_from_offset) */\n              add\n                /* \"lib/TokenTransferrer.sol\":28408:28435  BatchTransfer1155Params_ptr */\n              0x24\n                /* \"lib/TokenTransferrer.sol\":28374:28591  calldatacopy(... */\n              calldatacopy\n                /* \"lib/TokenTransferrer.sol\":28820:28828  TwoWords */\n              0x40\n                /* \"lib/TokenTransferrer.sol\":28809:28818  idsLength */\n              dup4\n                /* \"lib/TokenTransferrer.sol\":28805:28829  mul(idsLength, TwoWords) */\n              mul\n                /* \"lib/TokenTransferrer.sol\":28795:28803  TwoWords */\n              0x40\n                /* \"lib/TokenTransferrer.sol\":28791:28830  add(TwoWords, mul(idsLength, TwoWords)) */\n              add\n                /* \"lib/TokenTransferrer.sol\":29098:29115  idsAndAmountsSize */\n              dup1\n                /* \"lib/TokenTransferrer.sol\":29031:29072  BatchTransfer1155Params_ids_length_offset */\n              0xa0\n                /* \"lib/TokenTransferrer.sol\":29002:29137  add(... */\n              add\n                /* \"lib/TokenTransferrer.sol\":28943:28980  BatchTransfer1155Params_data_head_ptr */\n              0xa4\n                /* \"lib/TokenTransferrer.sol\":28915:29155  mstore(... */\n              mstore\n                /* \"lib/TokenTransferrer.sol\":29431:29432  0 */\n              0x00\n                /* \"lib/TokenTransferrer.sol\":29370:29387  idsAndAmountsSize */\n              dup2\n                /* \"lib/TokenTransferrer.sol\":29301:29344  BatchTransfer1155Params_data_length_basePtr */\n              0xc4\n                /* \"lib/TokenTransferrer.sol\":29272:29409  add(... */\n              add\n                /* \"lib/TokenTransferrer.sol\":29244:29450  mstore(... */\n              mstore\n                /* \"lib/TokenTransferrer.sol\":29659:29676  idsAndAmountsSize */\n              dup1\n                /* \"lib/TokenTransferrer.sol\":29596:29637  BatchTransfer1155Params_calldata_baseSize */\n              0xc4\n                /* \"lib/TokenTransferrer.sol\":29571:29694  add(... */\n              add\n                /* \"lib/TokenTransferrer.sol\":29966:29983  idsAndAmountsSize */\n              dup2\n                /* \"lib/TokenTransferrer.sol\":29901:29943  ConduitBatch1155Transfer_ids_length_offset */\n              0xa0\n                /* \"lib/TokenTransferrer.sol\":29889:29899  elementPtr */\n              dup9\n                /* \"lib/TokenTransferrer.sol\":29885:29944  add(elementPtr, ConduitBatch1155Transfer_ids_length_offset) */\n              add\n                /* \"lib/TokenTransferrer.sol\":29825:29863  BatchTransfer1155Params_ids_length_ptr */\n              0xc4\n                /* \"lib/TokenTransferrer.sol\":29791:30001  calldatacopy(... */\n              calldatacopy\n                /* \"lib/TokenTransferrer.sol\":30379:30380  0 */\n              0x00\n                /* \"lib/TokenTransferrer.sol\":30356:30357  0 */\n              dup1\n                /* \"lib/TokenTransferrer.sol\":30279:30295  transferDataSize */\n              dup3\n                /* \"lib/TokenTransferrer.sol\":30198:30234  ConduitBatch1155Transfer_from_offset */\n              0x20\n                /* \"lib/TokenTransferrer.sol\":30175:30176  0 */\n              0x00\n                /* \"lib/TokenTransferrer.sol\":30148:30153  token */\n              dup11\n                /* \"lib/TokenTransferrer.sol\":30121:30126  gas() */\n              gas\n                /* \"lib/TokenTransferrer.sol\":30095:30398  call(... */\n              call\n                /* \"lib/TokenTransferrer.sol\":30471:30478  success */\n              dup1\n                /* \"lib/TokenTransferrer.sol\":30461:34761  if iszero(success) {... */\n              tag_107\n              jumpi\n                /* \"lib/TokenTransferrer.sol\":30634:30650  returndatasize() */\n              returndatasize\n                /* \"lib/TokenTransferrer.sol\":30631:33627  if returndatasize() {... */\n              iszero\n              tag_108\n              jumpi\n                /* \"lib/TokenTransferrer.sol\":31106:31113  OneWord */\n              0x20\n                /* \"lib/TokenTransferrer.sol\":31062:31075  AlmostOneWord */\n              0x1f\n                /* \"lib/TokenTransferrer.sol\":31044:31060  returndatasize() */\n              returndatasize\n                /* \"lib/TokenTransferrer.sol\":31040:31076  add(returndatasize(), AlmostOneWord) */\n              add\n                /* \"lib/TokenTransferrer.sol\":31007:31139  div(... */\n              div\n                /* \"lib/TokenTransferrer.sol\":31800:31807  OneWord */\n              0x20\n                /* \"lib/TokenTransferrer.sol\":31782:31798  transferDataSize */\n              dup4\n                /* \"lib/TokenTransferrer.sol\":31778:31808  div(transferDataSize, OneWord) */\n              div\n                /* \"lib/TokenTransferrer.sol\":31936:31951  returnDataWords */\n              dup2\n                /* \"lib/TokenTransferrer.sol\":31923:31934  CostPerWord */\n              0x03\n                /* \"lib/TokenTransferrer.sol\":31919:31952  mul(CostPerWord, returnDataWords) */\n              mul\n                /* \"lib/TokenTransferrer.sol\":32073:32083  msizeWords */\n              dup2\n                /* \"lib/TokenTransferrer.sol\":32056:32071  returnDataWords */\n              dup4\n                /* \"lib/TokenTransferrer.sol\":32053:32084  gt(returnDataWords, msizeWords) */\n              gt\n                /* \"lib/TokenTransferrer.sol\":32050:33029  if gt(returnDataWords, msizeWords) {... */\n              iszero\n              tag_109\n              jumpi\n                /* \"lib/TokenTransferrer.sol\":32875:32901  MemoryExpansionCoefficient */\n              0x0200\n                /* \"lib/TokenTransferrer.sol\":32780:32790  msizeWords */\n              dup3\n                /* \"lib/TokenTransferrer.sol\":32768:32778  msizeWords */\n              dup4\n                /* \"lib/TokenTransferrer.sol\":32764:32791  mul(msizeWords, msizeWords) */\n              mul\n                /* \"lib/TokenTransferrer.sol\":32657:32672  returnDataWords */\n              dup5\n                /* \"lib/TokenTransferrer.sol\":32592:32607  returnDataWords */\n              dup6\n                /* \"lib/TokenTransferrer.sol\":32539:32718  mul(... */\n              mul\n                /* \"lib/TokenTransferrer.sol\":32490:32833  sub(... */\n              sub\n                /* \"lib/TokenTransferrer.sol\":32445:32939  div(... */\n              div\n                /* \"lib/TokenTransferrer.sol\":32358:32369  CostPerWord */\n              0x03\n                /* \"lib/TokenTransferrer.sol\":32305:32315  msizeWords */\n              dup4\n                /* \"lib/TokenTransferrer.sol\":32288:32303  returnDataWords */\n              dup6\n                /* \"lib/TokenTransferrer.sol\":32284:32316  sub(returnDataWords, msizeWords) */\n              sub\n                /* \"lib/TokenTransferrer.sol\":32239:32407  mul(... */\n              mul\n                /* \"lib/TokenTransferrer.sol\":32198:32973  add(... */\n              add\n                /* \"lib/TokenTransferrer.sol\":32160:32164  cost */\n              dup2\n                /* \"lib/TokenTransferrer.sol\":32123:33003  add(... */\n              add\n                /* \"lib/TokenTransferrer.sol\":32115:33003  cost := add(... */\n              swap1\n              pop\n                /* \"lib/TokenTransferrer.sol\":32050:33029  if gt(returnDataWords, msizeWords) {... */\n            tag_109:\n                /* \"lib/TokenTransferrer.sol\":33289:33294  gas() */\n              gas\n                /* \"lib/TokenTransferrer.sol\":33272:33286  ExtraGasBuffer */\n              0x20\n                /* \"lib/TokenTransferrer.sol\":33266:33270  cost */\n              dup3\n                /* \"lib/TokenTransferrer.sol\":33262:33287  add(cost, ExtraGasBuffer) */\n              add\n                /* \"lib/TokenTransferrer.sol\":33259:33295  lt(add(cost, ExtraGasBuffer), gas()) */\n              lt\n                /* \"lib/TokenTransferrer.sol\":33256:33605  if lt(add(cost, ExtraGasBuffer), gas()) {... */\n              iszero\n              tag_110\n              jumpi\n                /* \"lib/TokenTransferrer.sol\":33425:33441  returndatasize() */\n              returndatasize\n                /* \"lib/TokenTransferrer.sol\":33422:33423  0 */\n              0x00\n                /* \"lib/TokenTransferrer.sol\":33419:33420  0 */\n              dup1\n                /* \"lib/TokenTransferrer.sol\":33404:33442  returndatacopy(0, 0, returndatasize()) */\n              returndatacopy\n                /* \"lib/TokenTransferrer.sol\":33562:33578  returndatasize() */\n              returndatasize\n                /* \"lib/TokenTransferrer.sol\":33559:33560  0 */\n              0x00\n                /* \"lib/TokenTransferrer.sol\":33552:33579  revert(0, returndatasize()) */\n              revert\n                /* \"lib/TokenTransferrer.sol\":33256:33605  if lt(add(cost, ExtraGasBuffer), gas()) {... */\n            tag_110:\n                /* \"lib/TokenTransferrer.sol\":30651:33627  {... */\n              pop\n              pop\n              pop\n                /* \"lib/TokenTransferrer.sol\":30631:33627  if returndatasize() {... */\n            tag_108:\n                /* \"lib/TokenTransferrer.sol\":33756:33806  ERC1155BatchTransferGenericFailure_error_signature */\n              0xafc445e200000000000000000000000000000000000000000000000000000000\n                /* \"lib/TokenTransferrer.sol\":33729:33730  0 */\n              0x00\n                /* \"lib/TokenTransferrer.sol\":33697:33828  mstore(... */\n              mstore\n                /* \"lib/TokenTransferrer.sol\":33943:33948  token */\n              dup7\n                /* \"lib/TokenTransferrer.sol\":33897:33941  ERC1155BatchTransferGenericFailure_token_ptr */\n              0x04\n                /* \"lib/TokenTransferrer.sol\":33890:33949  mstore(ERC1155BatchTransferGenericFailure_token_ptr, token) */\n              mstore\n                /* \"lib/TokenTransferrer.sol\":34122:34167  ERC1155BatchTransferGenericFailure_ids_offset */\n              0xc0\n                /* \"lib/TokenTransferrer.sol\":34060:34096  BatchTransfer1155Params_ids_head_ptr */\n              0x64\n                /* \"lib/TokenTransferrer.sol\":34028:34189  mstore(... */\n              mstore\n                /* \"lib/TokenTransferrer.sol\":34446:34486  BatchTransfer1155Params_amounts_head_ptr */\n              0x84\n                /* \"lib/TokenTransferrer.sol\":34440:34487  mload(BatchTransfer1155Params_amounts_head_ptr) */\n              mload\n                /* \"lib/TokenTransferrer.sol\":34403:34410  OneWord */\n              0x20\n                /* \"lib/TokenTransferrer.sol\":34370:34513  add(... */\n              add\n                /* \"lib/TokenTransferrer.sol\":34304:34344  BatchTransfer1155Params_amounts_head_ptr */\n              0x84\n                /* \"lib/TokenTransferrer.sol\":34272:34535  mstore(... */\n              mstore\n                /* \"lib/TokenTransferrer.sol\":34726:34742  transferDataSize */\n              dup2\n                /* \"lib/TokenTransferrer.sol\":34723:34724  0 */\n              0x00\n                /* \"lib/TokenTransferrer.sol\":34716:34743  revert(0, transferDataSize) */\n              revert\n                /* \"lib/TokenTransferrer.sol\":30461:34761  if iszero(success) {... */\n            tag_107:\n                /* \"lib/TokenTransferrer.sol\":24984:34775  {... */\n              pop\n              pop\n              pop\n              pop\n              pop\n              pop\n              pop\n              pop\n                /* \"lib/TokenTransferrer.sol\":24967:24968  1 */\n              0x01\n                /* \"lib/TokenTransferrer.sol\":24964:24965  i */\n              dup2\n                /* \"lib/TokenTransferrer.sol\":24960:24969  add(i, 1) */\n              add\n                /* \"lib/TokenTransferrer.sol\":24955:24969  i := add(i, 1) */\n              swap1\n              pop\n                /* \"lib/TokenTransferrer.sol\":24879:34775  for {... */\n              jump(tag_102)\n            tag_104:\n                /* \"lib/TokenTransferrer.sol\":24883:24925  {... */\n              pop\n                /* \"lib/TokenTransferrer.sol\":35139:35163  DefaultFreeMemoryPointer */\n              0x80\n                /* \"lib/TokenTransferrer.sol\":35116:35137  FreeMemoryPointerSlot */\n              0x40\n                /* \"lib/TokenTransferrer.sol\":35109:35164  mstore(FreeMemoryPointerSlot, DefaultFreeMemoryPointer) */\n              mstore\n                /* \"lib/TokenTransferrer.sol\":23901:35174  {... */\n              pop\n              pop\n              pop\n                /* \"lib/TokenTransferrer.sol\":23697:35180  function _performERC1155BatchTransfers(... */\n              pop\n              pop\n              jump\t// out\n                /* \"lib/TokenTransferrer.sol\":1345:10960  function _performERC20Transfer(... */\n            tag_74:\n                /* \"lib/TokenTransferrer.sol\":1771:1792  FreeMemoryPointerSlot */\n              0x40\n                /* \"lib/TokenTransferrer.sol\":1765:1793  mload(FreeMemoryPointerSlot) */\n              mload\n                /* \"lib/TokenTransferrer.sol\":1919:1947  ERC20_transferFrom_signature */\n              0x23b872dd00000000000000000000000000000000000000000000000000000000\n                /* \"lib/TokenTransferrer.sol\":1891:1917  ERC20_transferFrom_sig_ptr */\n              0x00\n                /* \"lib/TokenTransferrer.sol\":1884:1948  mstore(ERC20_transferFrom_sig_ptr, ERC20_transferFrom_signature) */\n              mstore\n                /* \"lib/TokenTransferrer.sol\":1997:2001  from */\n              dup4\n                /* \"lib/TokenTransferrer.sol\":1968:1995  ERC20_transferFrom_from_ptr */\n              0x04\n                /* \"lib/TokenTransferrer.sol\":1961:2002  mstore(ERC20_transferFrom_from_ptr, from) */\n              mstore\n                /* \"lib/TokenTransferrer.sol\":2049:2051  to */\n              dup3\n                /* \"lib/TokenTransferrer.sol\":2022:2047  ERC20_transferFrom_to_ptr */\n              0x24\n                /* \"lib/TokenTransferrer.sol\":2015:2052  mstore(ERC20_transferFrom_to_ptr, to) */\n              mstore\n                /* \"lib/TokenTransferrer.sol\":2103:2109  amount */\n              dup2\n                /* \"lib/TokenTransferrer.sol\":2072:2101  ERC20_transferFrom_amount_ptr */\n              0x44\n                /* \"lib/TokenTransferrer.sol\":2065:2110  mstore(ERC20_transferFrom_amount_ptr, amount) */\n              mstore\n                /* \"lib/TokenTransferrer.sol\":2797:2804  OneWord */\n              0x20\n                /* \"lib/TokenTransferrer.sol\":2778:2779  0 */\n              0x00\n                /* \"lib/TokenTransferrer.sol\":2735:2760  ERC20_transferFrom_length */\n              0x64\n                /* \"lib/TokenTransferrer.sol\":2691:2717  ERC20_transferFrom_sig_ptr */\n              0x00\n                /* \"lib/TokenTransferrer.sol\":2672:2673  0 */\n              dup1\n                /* \"lib/TokenTransferrer.sol\":2649:2654  token */\n              dup10\n                /* \"lib/TokenTransferrer.sol\":2626:2631  gas() */\n              gas\n                /* \"lib/TokenTransferrer.sol\":2604:2818  call(... */\n              call\n                /* \"lib/TokenTransferrer.sol\":3295:3305  callStatus */\n              dup1\n                /* \"lib/TokenTransferrer.sol\":3242:3258  returndatasize() */\n              returndatasize\n                /* \"lib/TokenTransferrer.sol\":3235:3259  iszero(returndatasize()) */\n              iszero\n                /* \"lib/TokenTransferrer.sol\":3209:3211  31 */\n              0x1f\n                /* \"lib/TokenTransferrer.sol\":3191:3207  returndatasize() */\n              returndatasize\n                /* \"lib/TokenTransferrer.sol\":3188:3212  gt(returndatasize(), 31) */\n              gt\n                /* \"lib/TokenTransferrer.sol\":3184:3185  1 */\n              0x01\n                /* \"lib/TokenTransferrer.sol\":3180:3181  0 */\n              0x00\n                /* \"lib/TokenTransferrer.sol\":3174:3182  mload(0) */\n              mload\n                /* \"lib/TokenTransferrer.sol\":3171:3186  eq(mload(0), 1) */\n              eq\n                /* \"lib/TokenTransferrer.sol\":3167:3213  and(eq(mload(0), 1), gt(returndatasize(), 31)) */\n              and\n                /* \"lib/TokenTransferrer.sol\":3143:3277  or(... */\n              or\n                /* \"lib/TokenTransferrer.sol\":2927:3319  and(... */\n              and\n                /* \"lib/TokenTransferrer.sol\":3680:3696  returndatasize() */\n              returndatasize\n                /* \"lib/TokenTransferrer.sol\":3673:3697  iszero(returndatasize()) */\n              iszero\n                /* \"lib/TokenTransferrer.sol\":3666:3698  iszero(iszero(returndatasize())) */\n              iszero\n                /* \"lib/TokenTransferrer.sol\":3657:3664  success */\n              dup2\n                /* \"lib/TokenTransferrer.sol\":3653:3699  and(success, iszero(iszero(returndatasize()))) */\n              and\n                /* \"lib/TokenTransferrer.sol\":3643:10753  if iszero(and(success, iszero(iszero(returndatasize())))) {... */\n              tag_112\n              jumpi\n                /* \"lib/TokenTransferrer.sol\":4001:4008  success */\n              dup1\n                /* \"lib/TokenTransferrer.sol\":3991:3996  token */\n              dup8\n                /* \"lib/TokenTransferrer.sol\":3979:3997  extcodesize(token) */\n              extcodesize\n                /* \"lib/TokenTransferrer.sol\":3972:3998  iszero(extcodesize(token)) */\n              iszero\n                /* \"lib/TokenTransferrer.sol\":3965:3999  iszero(iszero(extcodesize(token))) */\n              iszero\n                /* \"lib/TokenTransferrer.sol\":3961:4009  and(iszero(iszero(extcodesize(token))), success) */\n              and\n                /* \"lib/TokenTransferrer.sol\":3951:10533  if iszero(and(iszero(iszero(extcodesize(token))), success)) {... */\n              tag_113\n              jumpi\n                /* \"lib/TokenTransferrer.sol\":4090:4097  success */\n              dup1\n                /* \"lib/TokenTransferrer.sol\":4080:10212  if iszero(success) {... */\n              tag_114\n              jumpi\n                /* \"lib/TokenTransferrer.sol\":4189:4199  callStatus */\n              dup2\n                /* \"lib/TokenTransferrer.sol\":4179:8938  if iszero(callStatus) {... */\n              tag_115\n              jumpi\n                /* \"lib/TokenTransferrer.sol\":4379:4395  returndatasize() */\n              returndatasize\n                /* \"lib/TokenTransferrer.sol\":4376:7698  if returndatasize() {... */\n              iszero\n              tag_116\n              jumpi\n                /* \"lib/TokenTransferrer.sol\":4946:4953  OneWord */\n              0x20\n                /* \"lib/TokenTransferrer.sol\":4894:4907  AlmostOneWord */\n              0x1f\n                /* \"lib/TokenTransferrer.sol\":4876:4892  returndatasize() */\n              returndatasize\n                /* \"lib/TokenTransferrer.sol\":4872:4908  add(returndatasize(), AlmostOneWord) */\n              add\n                /* \"lib/TokenTransferrer.sol\":4831:4987  div(... */\n              div\n                /* \"lib/TokenTransferrer.sol\":5352:5359  OneWord */\n              0x20\n                /* \"lib/TokenTransferrer.sol\":5340:5350  memPointer */\n              dup5\n                /* \"lib/TokenTransferrer.sol\":5336:5360  div(memPointer, OneWord) */\n              div\n                /* \"lib/TokenTransferrer.sol\":5504:5519  returnDataWords */\n              dup2\n                /* \"lib/TokenTransferrer.sol\":5491:5502  CostPerWord */\n              0x03\n                /* \"lib/TokenTransferrer.sol\":5487:5520  mul(CostPerWord, returnDataWords) */\n              mul\n                /* \"lib/TokenTransferrer.sol\":5657:5667  msizeWords */\n              dup2\n                /* \"lib/TokenTransferrer.sol\":5640:5655  returnDataWords */\n              dup4\n                /* \"lib/TokenTransferrer.sol\":5637:5668  gt(returnDataWords, msizeWords) */\n              gt\n                /* \"lib/TokenTransferrer.sol\":5634:6927  if gt(returnDataWords, msizeWords) {... */\n              iszero\n              tag_117\n              jumpi\n                /* \"lib/TokenTransferrer.sol\":6741:6767  MemoryExpansionCoefficient */\n              0x0200\n                /* \"lib/TokenTransferrer.sol\":6630:6640  msizeWords */\n              dup3\n                /* \"lib/TokenTransferrer.sol\":6618:6628  msizeWords */\n              dup4\n                /* \"lib/TokenTransferrer.sol\":6614:6641  mul(msizeWords, msizeWords) */\n              mul\n                /* \"lib/TokenTransferrer.sol\":6491:6506  returnDataWords */\n              dup5\n                /* \"lib/TokenTransferrer.sol\":6418:6433  returnDataWords */\n              dup6\n                /* \"lib/TokenTransferrer.sol\":6357:6560  mul(... */\n              mul\n                /* \"lib/TokenTransferrer.sol\":6300:6691  sub(... */\n              sub\n                /* \"lib/TokenTransferrer.sol\":6247:6813  div(... */\n              div\n                /* \"lib/TokenTransferrer.sol\":6144:6155  CostPerWord */\n              0x03\n                /* \"lib/TokenTransferrer.sol\":6034:6044  msizeWords */\n              dup4\n                /* \"lib/TokenTransferrer.sol\":5965:5980  returnDataWords */\n              dup6\n                /* \"lib/TokenTransferrer.sol\":5908:6094  sub(... */\n              sub\n                /* \"lib/TokenTransferrer.sol\":5855:6201  mul(... */\n              mul\n                /* \"lib/TokenTransferrer.sol\":5806:6855  add(... */\n              add\n                /* \"lib/TokenTransferrer.sol\":5760:5764  cost */\n              dup2\n                /* \"lib/TokenTransferrer.sol\":5715:6893  add(... */\n              add\n                /* \"lib/TokenTransferrer.sol\":5707:6893  cost := add(... */\n              swap1\n              pop\n                /* \"lib/TokenTransferrer.sol\":5634:6927  if gt(returnDataWords, msizeWords) {... */\n            tag_117:\n                /* \"lib/TokenTransferrer.sol\":7219:7224  gas() */\n              gas\n                /* \"lib/TokenTransferrer.sol\":7202:7216  ExtraGasBuffer */\n              0x20\n                /* \"lib/TokenTransferrer.sol\":7196:7200  cost */\n              dup3\n                /* \"lib/TokenTransferrer.sol\":7192:7217  add(cost, ExtraGasBuffer) */\n              add\n                /* \"lib/TokenTransferrer.sol\":7189:7225  lt(add(cost, ExtraGasBuffer), gas()) */\n              lt\n                /* \"lib/TokenTransferrer.sol\":7186:7668  if lt(add(cost, ExtraGasBuffer), gas()) {... */\n              iszero\n              tag_118\n              jumpi\n                /* \"lib/TokenTransferrer.sol\":7417:7433  returndatasize() */\n              returndatasize\n                /* \"lib/TokenTransferrer.sol\":7414:7415  0 */\n              0x00\n                /* \"lib/TokenTransferrer.sol\":7411:7412  0 */\n              dup1\n                /* \"lib/TokenTransferrer.sol\":7396:7434  returndatacopy(0, 0, returndatasize()) */\n              returndatacopy\n                /* \"lib/TokenTransferrer.sol\":7617:7633  returndatasize() */\n              returndatasize\n                /* \"lib/TokenTransferrer.sol\":7614:7615  0 */\n              0x00\n                /* \"lib/TokenTransferrer.sol\":7607:7634  revert(0, returndatasize()) */\n              revert\n                /* \"lib/TokenTransferrer.sol\":7186:7668  if lt(add(cost, ExtraGasBuffer), gas()) {... */\n            tag_118:\n                /* \"lib/TokenTransferrer.sol\":4396:7698  {... */\n              pop\n              pop\n              pop\n                /* \"lib/TokenTransferrer.sol\":4376:7698  if returndatasize() {... */\n            tag_116:\n                /* \"lib/TokenTransferrer.sol\":7921:7964  TokenTransferGenericFailure_error_signature */\n              0xf486bc8700000000000000000000000000000000000000000000000000000000\n                /* \"lib/TokenTransferrer.sol\":7846:7887  TokenTransferGenericFailure_error_sig_ptr */\n              0x00\n                /* \"lib/TokenTransferrer.sol\":7806:7994  mstore(... */\n              mstore\n                /* \"lib/TokenTransferrer.sol\":8140:8145  token */\n              dup7\n                /* \"lib/TokenTransferrer.sol\":8063:8106  TokenTransferGenericFailure_error_token_ptr */\n              0x04\n                /* \"lib/TokenTransferrer.sol\":8023:8175  mstore(... */\n              mstore\n                /* \"lib/TokenTransferrer.sol\":8320:8324  from */\n              dup6\n                /* \"lib/TokenTransferrer.sol\":8244:8286  TokenTransferGenericFailure_error_from_ptr */\n              0x24\n                /* \"lib/TokenTransferrer.sol\":8204:8354  mstore(... */\n              mstore\n                /* \"lib/TokenTransferrer.sol\":8432:8434  to */\n              dup5\n                /* \"lib/TokenTransferrer.sol\":8390:8430  TokenTransferGenericFailure_error_to_ptr */\n              0x44\n                /* \"lib/TokenTransferrer.sol\":8383:8435  mstore(TokenTransferGenericFailure_error_to_ptr, to) */\n              mstore\n                /* \"lib/TokenTransferrer.sol\":8513:8514  0 */\n              0x00\n                /* \"lib/TokenTransferrer.sol\":8471:8511  TokenTransferGenericFailure_error_id_ptr */\n              0x64\n                /* \"lib/TokenTransferrer.sol\":8464:8515  mstore(TokenTransferGenericFailure_error_id_ptr, 0) */\n              mstore\n                /* \"lib/TokenTransferrer.sol\":8662:8668  amount */\n              dup4\n                /* \"lib/TokenTransferrer.sol\":8584:8628  TokenTransferGenericFailure_error_amount_ptr */\n              0x84\n                /* \"lib/TokenTransferrer.sol\":8544:8698  mstore(... */\n              mstore\n                /* \"lib/TokenTransferrer.sol\":8842:8882  TokenTransferGenericFailure_error_length */\n              0xa4\n                /* \"lib/TokenTransferrer.sol\":8767:8808  TokenTransferGenericFailure_error_sig_ptr */\n              0x00\n                /* \"lib/TokenTransferrer.sol\":8727:8912  revert(... */\n              revert\n                /* \"lib/TokenTransferrer.sol\":4179:8938  if iszero(callStatus) {... */\n            tag_115:\n                /* \"lib/TokenTransferrer.sol\":9227:9276  BadReturnValueFromERC20OnTransfer_error_signature */\n              0x9889192300000000000000000000000000000000000000000000000000000000\n                /* \"lib/TokenTransferrer.sol\":9150:9197  BadReturnValueFromERC20OnTransfer_error_sig_ptr */\n              0x00\n                /* \"lib/TokenTransferrer.sol\":9114:9302  mstore(... */\n              mstore\n                /* \"lib/TokenTransferrer.sol\":9442:9447  token */\n              dup7\n                /* \"lib/TokenTransferrer.sol\":9363:9412  BadReturnValueFromERC20OnTransfer_error_token_ptr */\n              0x04\n                /* \"lib/TokenTransferrer.sol\":9327:9473  mstore(... */\n              mstore\n                /* \"lib/TokenTransferrer.sol\":9612:9616  from */\n              dup6\n                /* \"lib/TokenTransferrer.sol\":9534:9582  BadReturnValueFromERC20OnTransfer_error_from_ptr */\n              0x24\n                /* \"lib/TokenTransferrer.sol\":9498:9642  mstore(... */\n              mstore\n                /* \"lib/TokenTransferrer.sol\":9779:9781  to */\n              dup5\n                /* \"lib/TokenTransferrer.sol\":9703:9749  BadReturnValueFromERC20OnTransfer_error_to_ptr */\n              0x44\n                /* \"lib/TokenTransferrer.sol\":9667:9807  mstore(... */\n              mstore\n                /* \"lib/TokenTransferrer.sol\":9948:9954  amount */\n              dup4\n                /* \"lib/TokenTransferrer.sol\":9868:9918  BadReturnValueFromERC20OnTransfer_error_amount_ptr */\n              0x64\n                /* \"lib/TokenTransferrer.sol\":9832:9980  mstore(... */\n              mstore\n                /* \"lib/TokenTransferrer.sol\":10118:10164  BadReturnValueFromERC20OnTransfer_error_length */\n              0x84\n                /* \"lib/TokenTransferrer.sol\":10041:10088  BadReturnValueFromERC20OnTransfer_error_sig_ptr */\n              0x00\n                /* \"lib/TokenTransferrer.sol\":10005:10190  revert(... */\n              revert\n                /* \"lib/TokenTransferrer.sol\":4080:10212  if iszero(success) {... */\n            tag_114:\n                /* \"lib/TokenTransferrer.sol\":10348:10374  NoContract_error_signature */\n              0x5f15d67200000000000000000000000000000000000000000000000000000000\n                /* \"lib/TokenTransferrer.sol\":10322:10346  NoContract_error_sig_ptr */\n              0x00\n                /* \"lib/TokenTransferrer.sol\":10315:10375  mstore(NoContract_error_sig_ptr, NoContract_error_signature) */\n              mstore\n                /* \"lib/TokenTransferrer.sol\":10431:10436  token */\n              dup7\n                /* \"lib/TokenTransferrer.sol\":10403:10429  NoContract_error_token_ptr */\n              0x04\n                /* \"lib/TokenTransferrer.sol\":10396:10437  mstore(NoContract_error_token_ptr, token) */\n              mstore\n                /* \"lib/TokenTransferrer.sol\":10491:10514  NoContract_error_length */\n              0x24\n                /* \"lib/TokenTransferrer.sol\":10465:10489  NoContract_error_sig_ptr */\n              0x00\n                /* \"lib/TokenTransferrer.sol\":10458:10515  revert(NoContract_error_sig_ptr, NoContract_error_length) */\n              revert\n                /* \"lib/TokenTransferrer.sol\":3951:10533  if iszero(and(iszero(iszero(extcodesize(token))), success)) {... */\n            tag_113:\n                /* \"lib/TokenTransferrer.sol\":3643:10753  if iszero(and(success, iszero(iszero(returndatasize())))) {... */\n            tag_112:\n                /* \"lib/TokenTransferrer.sol\":10854:10864  memPointer */\n              dup3\n                /* \"lib/TokenTransferrer.sol\":10831:10852  FreeMemoryPointerSlot */\n              0x40\n                /* \"lib/TokenTransferrer.sol\":10824:10865  mstore(FreeMemoryPointerSlot, memPointer) */\n              mstore\n                /* \"lib/TokenTransferrer.sol\":10942:10943  0 */\n              0x00\n                /* \"lib/TokenTransferrer.sol\":10932:10940  ZeroSlot */\n              0x60\n                /* \"lib/TokenTransferrer.sol\":10925:10944  mstore(ZeroSlot, 0) */\n              mstore\n                /* \"lib/TokenTransferrer.sol\":1573:10954  {... */\n              pop\n              pop\n              pop\n                /* \"lib/TokenTransferrer.sol\":1345:10960  function _performERC20Transfer(... */\n              pop\n              pop\n              pop\n              pop\n              jump\t// out\n                /* \"lib/TokenTransferrer.sol\":11564:16478  function _performERC721Transfer(... */\n            tag_87:\n                /* \"lib/TokenTransferrer.sol\":11883:11888  token */\n              dup4\n                /* \"lib/TokenTransferrer.sol\":11871:11889  extcodesize(token) */\n              extcodesize\n                /* \"lib/TokenTransferrer.sol\":11861:12115  if iszero(extcodesize(token)) {... */\n              tag_120\n              jumpi\n                /* \"lib/TokenTransferrer.sol\":11942:11968  NoContract_error_signature */\n              0x5f15d67200000000000000000000000000000000000000000000000000000000\n                /* \"lib/TokenTransferrer.sol\":11916:11940  NoContract_error_sig_ptr */\n              0x00\n                /* \"lib/TokenTransferrer.sol\":11909:11969  mstore(NoContract_error_sig_ptr, NoContract_error_signature) */\n              mstore\n                /* \"lib/TokenTransferrer.sol\":12021:12026  token */\n              dup4\n                /* \"lib/TokenTransferrer.sol\":11993:12019  NoContract_error_token_ptr */\n              0x04\n                /* \"lib/TokenTransferrer.sol\":11986:12027  mstore(NoContract_error_token_ptr, token) */\n              mstore\n                /* \"lib/TokenTransferrer.sol\":12077:12100  NoContract_error_length */\n              0x24\n                /* \"lib/TokenTransferrer.sol\":12051:12075  NoContract_error_sig_ptr */\n              0x00\n                /* \"lib/TokenTransferrer.sol\":12044:12101  revert(NoContract_error_sig_ptr, NoContract_error_length) */\n              revert\n                /* \"lib/TokenTransferrer.sol\":11861:12115  if iszero(extcodesize(token)) {... */\n            tag_120:\n                /* \"lib/TokenTransferrer.sol\":12313:12334  FreeMemoryPointerSlot */\n              0x40\n                /* \"lib/TokenTransferrer.sol\":12307:12335  mload(FreeMemoryPointerSlot) */\n              mload\n                /* \"lib/TokenTransferrer.sol\":12459:12488  ERC721_transferFrom_signature */\n              0x23b872dd00000000000000000000000000000000000000000000000000000000\n                /* \"lib/TokenTransferrer.sol\":12430:12457  ERC721_transferFrom_sig_ptr */\n              0x00\n                /* \"lib/TokenTransferrer.sol\":12423:12489  mstore(ERC721_transferFrom_sig_ptr, ERC721_transferFrom_signature) */\n              mstore\n                /* \"lib/TokenTransferrer.sol\":12539:12543  from */\n              dup4\n                /* \"lib/TokenTransferrer.sol\":12509:12537  ERC721_transferFrom_from_ptr */\n              0x04\n                /* \"lib/TokenTransferrer.sol\":12502:12544  mstore(ERC721_transferFrom_from_ptr, from) */\n              mstore\n                /* \"lib/TokenTransferrer.sol\":12592:12594  to */\n              dup3\n                /* \"lib/TokenTransferrer.sol\":12564:12590  ERC721_transferFrom_to_ptr */\n              0x24\n                /* \"lib/TokenTransferrer.sol\":12557:12595  mstore(ERC721_transferFrom_to_ptr, to) */\n              mstore\n                /* \"lib/TokenTransferrer.sol\":12643:12653  identifier */\n              dup2\n                /* \"lib/TokenTransferrer.sol\":12615:12641  ERC721_transferFrom_id_ptr */\n              0x44\n                /* \"lib/TokenTransferrer.sol\":12608:12654  mstore(ERC721_transferFrom_id_ptr, identifier) */\n              mstore\n                /* \"lib/TokenTransferrer.sol\":12933:12934  0 */\n              0x00\n                /* \"lib/TokenTransferrer.sol\":12914:12915  0 */\n              dup1\n                /* \"lib/TokenTransferrer.sol\":12870:12896  ERC721_transferFrom_length */\n              0x64\n                /* \"lib/TokenTransferrer.sol\":12825:12852  ERC721_transferFrom_sig_ptr */\n              0x00\n                /* \"lib/TokenTransferrer.sol\":12806:12807  0 */\n              dup1\n                /* \"lib/TokenTransferrer.sol\":12783:12788  token */\n              dup10\n                /* \"lib/TokenTransferrer.sol\":12760:12765  gas() */\n              gas\n                /* \"lib/TokenTransferrer.sol\":12738:12948  call(... */\n              call\n                /* \"lib/TokenTransferrer.sol\":13013:13020  success */\n              dup1\n                /* \"lib/TokenTransferrer.sol\":13003:16271  if iszero(success) {... */\n              tag_121\n              jumpi\n                /* \"lib/TokenTransferrer.sol\":13164:13180  returndatasize() */\n              returndatasize\n                /* \"lib/TokenTransferrer.sol\":13161:15489  if returndatasize() {... */\n              iszero\n              tag_122\n              jumpi\n                /* \"lib/TokenTransferrer.sol\":13606:13613  OneWord */\n              0x20\n                /* \"lib/TokenTransferrer.sol\":13566:13579  AlmostOneWord */\n              0x1f\n                /* \"lib/TokenTransferrer.sol\":13548:13564  returndatasize() */\n              returndatasize\n                /* \"lib/TokenTransferrer.sol\":13544:13580  add(returndatasize(), AlmostOneWord) */\n              add\n                /* \"lib/TokenTransferrer.sol\":13515:13635  div(... */\n              div\n                /* \"lib/TokenTransferrer.sol\":13917:13924  OneWord */\n              0x20\n                /* \"lib/TokenTransferrer.sol\":13905:13915  memPointer */\n              dup4\n                /* \"lib/TokenTransferrer.sol\":13901:13925  div(memPointer, OneWord) */\n              div\n                /* \"lib/TokenTransferrer.sol\":14045:14060  returnDataWords */\n              dup2\n                /* \"lib/TokenTransferrer.sol\":14032:14043  CostPerWord */\n              0x03\n                /* \"lib/TokenTransferrer.sol\":14028:14061  mul(CostPerWord, returnDataWords) */\n              mul\n                /* \"lib/TokenTransferrer.sol\":14174:14184  msizeWords */\n              dup2\n                /* \"lib/TokenTransferrer.sol\":14157:14172  returnDataWords */\n              dup4\n                /* \"lib/TokenTransferrer.sol\":14154:14185  gt(returnDataWords, msizeWords) */\n              gt\n                /* \"lib/TokenTransferrer.sol\":14151:14920  if gt(returnDataWords, msizeWords) {... */\n              iszero\n              tag_123\n              jumpi\n                /* \"lib/TokenTransferrer.sol\":14782:14808  MemoryExpansionCoefficient */\n              0x0200\n                /* \"lib/TokenTransferrer.sol\":14695:14705  msizeWords */\n              dup3\n                /* \"lib/TokenTransferrer.sol\":14683:14693  msizeWords */\n              dup4\n                /* \"lib/TokenTransferrer.sol\":14679:14706  mul(msizeWords, msizeWords) */\n              mul\n                /* \"lib/TokenTransferrer.sol\":14621:14636  returnDataWords */\n              dup5\n                /* \"lib/TokenTransferrer.sol\":14604:14619  returnDataWords */\n              dup6\n                /* \"lib/TokenTransferrer.sol\":14600:14637  mul(returnDataWords, returnDataWords) */\n              mul\n                /* \"lib/TokenTransferrer.sol\":14555:14744  sub(... */\n              sub\n                /* \"lib/TokenTransferrer.sol\":14514:14842  div(... */\n              div\n                /* \"lib/TokenTransferrer.sol\":14435:14446  CostPerWord */\n              0x03\n                /* \"lib/TokenTransferrer.sol\":14386:14396  msizeWords */\n              dup4\n                /* \"lib/TokenTransferrer.sol\":14369:14384  returnDataWords */\n              dup6\n                /* \"lib/TokenTransferrer.sol\":14365:14397  sub(returnDataWords, msizeWords) */\n              sub\n                /* \"lib/TokenTransferrer.sol\":14324:14480  mul(... */\n              mul\n                /* \"lib/TokenTransferrer.sol\":14287:14872  add(... */\n              add\n                /* \"lib/TokenTransferrer.sol\":14253:14257  cost */\n              dup2\n                /* \"lib/TokenTransferrer.sol\":14220:14898  add(... */\n              add\n                /* \"lib/TokenTransferrer.sol\":14212:14898  cost := add(... */\n              swap1\n              pop\n                /* \"lib/TokenTransferrer.sol\":14151:14920  if gt(returnDataWords, msizeWords) {... */\n            tag_123:\n                /* \"lib/TokenTransferrer.sol\":15164:15169  gas() */\n              gas\n                /* \"lib/TokenTransferrer.sol\":15147:15161  ExtraGasBuffer */\n              0x20\n                /* \"lib/TokenTransferrer.sol\":15141:15145  cost */\n              dup3\n                /* \"lib/TokenTransferrer.sol\":15137:15162  add(cost, ExtraGasBuffer) */\n              add\n                /* \"lib/TokenTransferrer.sol\":15134:15170  lt(add(cost, ExtraGasBuffer), gas()) */\n              lt\n                /* \"lib/TokenTransferrer.sol\":15131:15471  if lt(add(cost, ExtraGasBuffer), gas()) {... */\n              iszero\n              tag_124\n              jumpi\n                /* \"lib/TokenTransferrer.sol\":15299:15315  returndatasize() */\n              returndatasize\n                /* \"lib/TokenTransferrer.sol\":15296:15297  0 */\n              0x00\n                /* \"lib/TokenTransferrer.sol\":15293:15294  0 */\n              dup1\n                /* \"lib/TokenTransferrer.sol\":15278:15316  returndatacopy(0, 0, returndatasize()) */\n              returndatacopy\n                /* \"lib/TokenTransferrer.sol\":15432:15448  returndatasize() */\n              returndatasize\n                /* \"lib/TokenTransferrer.sol\":15429:15430  0 */\n              0x00\n                /* \"lib/TokenTransferrer.sol\":15422:15449  revert(0, returndatasize()) */\n              revert\n                /* \"lib/TokenTransferrer.sol\":15131:15471  if lt(add(cost, ExtraGasBuffer), gas()) {... */\n            tag_124:\n                /* \"lib/TokenTransferrer.sol\":13181:15489  {... */\n              pop\n              pop\n              pop\n                /* \"lib/TokenTransferrer.sol\":13161:15489  if returndatasize() {... */\n            tag_122:\n                /* \"lib/TokenTransferrer.sol\":15664:15707  TokenTransferGenericFailure_error_signature */\n              0xf486bc8700000000000000000000000000000000000000000000000000000000\n                /* \"lib/TokenTransferrer.sol\":15601:15642  TokenTransferGenericFailure_error_sig_ptr */\n              0x00\n                /* \"lib/TokenTransferrer.sol\":15573:15725  mstore(... */\n              mstore\n                /* \"lib/TokenTransferrer.sol\":15794:15799  token */\n              dup6\n                /* \"lib/TokenTransferrer.sol\":15749:15792  TokenTransferGenericFailure_error_token_ptr */\n              0x04\n                /* \"lib/TokenTransferrer.sol\":15742:15800  mstore(TokenTransferGenericFailure_error_token_ptr, token) */\n              mstore\n                /* \"lib/TokenTransferrer.sol\":15868:15872  from */\n              dup5\n                /* \"lib/TokenTransferrer.sol\":15824:15866  TokenTransferGenericFailure_error_from_ptr */\n              0x24\n                /* \"lib/TokenTransferrer.sol\":15817:15873  mstore(TokenTransferGenericFailure_error_from_ptr, from) */\n              mstore\n                /* \"lib/TokenTransferrer.sol\":15939:15941  to */\n              dup4\n                /* \"lib/TokenTransferrer.sol\":15897:15937  TokenTransferGenericFailure_error_to_ptr */\n              0x44\n                /* \"lib/TokenTransferrer.sol\":15890:15942  mstore(TokenTransferGenericFailure_error_to_ptr, to) */\n              mstore\n                /* \"lib/TokenTransferrer.sol\":16008:16018  identifier */\n              dup3\n                /* \"lib/TokenTransferrer.sol\":15966:16006  TokenTransferGenericFailure_error_id_ptr */\n              0x64\n                /* \"lib/TokenTransferrer.sol\":15959:16019  mstore(TokenTransferGenericFailure_error_id_ptr, identifier) */\n              mstore\n                /* \"lib/TokenTransferrer.sol\":16089:16090  1 */\n              0x01\n                /* \"lib/TokenTransferrer.sol\":16043:16087  TokenTransferGenericFailure_error_amount_ptr */\n              0x84\n                /* \"lib/TokenTransferrer.sol\":16036:16091  mstore(TokenTransferGenericFailure_error_amount_ptr, 1) */\n              mstore\n                /* \"lib/TokenTransferrer.sol\":16199:16239  TokenTransferGenericFailure_error_length */\n              0xa4\n                /* \"lib/TokenTransferrer.sol\":16136:16177  TokenTransferGenericFailure_error_sig_ptr */\n              0x00\n                /* \"lib/TokenTransferrer.sol\":16108:16257  revert(... */\n              revert\n                /* \"lib/TokenTransferrer.sol\":13003:16271  if iszero(success) {... */\n            tag_121:\n                /* \"lib/TokenTransferrer.sol\":16372:16382  memPointer */\n              dup2\n                /* \"lib/TokenTransferrer.sol\":16349:16370  FreeMemoryPointerSlot */\n              0x40\n                /* \"lib/TokenTransferrer.sol\":16342:16383  mstore(FreeMemoryPointerSlot, memPointer) */\n              mstore\n                /* \"lib/TokenTransferrer.sol\":16460:16461  0 */\n              0x00\n                /* \"lib/TokenTransferrer.sol\":16450:16458  ZeroSlot */\n              0x60\n                /* \"lib/TokenTransferrer.sol\":16443:16462  mstore(ZeroSlot, 0) */\n              mstore\n                /* \"lib/TokenTransferrer.sol\":11798:16472  {... */\n              pop\n              pop\n                /* \"lib/TokenTransferrer.sol\":11564:16478  function _performERC721Transfer(... */\n              pop\n              pop\n              pop\n              pop\n              jump\t// out\n                /* \"lib/TokenTransferrer.sol\":17126:22746  function _performERC1155Transfer(... */\n            tag_99:\n                /* \"lib/TokenTransferrer.sol\":17471:17476  token */\n              dup5\n                /* \"lib/TokenTransferrer.sol\":17459:17477  extcodesize(token) */\n              extcodesize\n                /* \"lib/TokenTransferrer.sol\":17449:17703  if iszero(extcodesize(token)) {... */\n              tag_126\n              jumpi\n                /* \"lib/TokenTransferrer.sol\":17530:17556  NoContract_error_signature */\n              0x5f15d67200000000000000000000000000000000000000000000000000000000\n                /* \"lib/TokenTransferrer.sol\":17504:17528  NoContract_error_sig_ptr */\n              0x00\n                /* \"lib/TokenTransferrer.sol\":17497:17557  mstore(NoContract_error_sig_ptr, NoContract_error_signature) */\n              mstore\n                /* \"lib/TokenTransferrer.sol\":17609:17614  token */\n              dup5\n                /* \"lib/TokenTransferrer.sol\":17581:17607  NoContract_error_token_ptr */\n              0x04\n                /* \"lib/TokenTransferrer.sol\":17574:17615  mstore(NoContract_error_token_ptr, token) */\n              mstore\n                /* \"lib/TokenTransferrer.sol\":17665:17688  NoContract_error_length */\n              0x24\n                /* \"lib/TokenTransferrer.sol\":17639:17663  NoContract_error_sig_ptr */\n              0x00\n                /* \"lib/TokenTransferrer.sol\":17632:17689  revert(NoContract_error_sig_ptr, NoContract_error_length) */\n              revert\n                /* \"lib/TokenTransferrer.sol\":17449:17703  if iszero(extcodesize(token)) {... */\n            tag_126:\n                /* \"lib/TokenTransferrer.sol\":17895:17916  FreeMemoryPointerSlot */\n              0x40\n                /* \"lib/TokenTransferrer.sol\":17889:17917  mload(FreeMemoryPointerSlot) */\n              mload\n                /* \"lib/TokenTransferrer.sol\":17952:17960  Slot0x80 */\n              0x80\n                /* \"lib/TokenTransferrer.sol\":17946:17961  mload(Slot0x80) */\n              mload\n                /* \"lib/TokenTransferrer.sol\":17996:18004  Slot0xA0 */\n              0xa0\n                /* \"lib/TokenTransferrer.sol\":17990:18005  mload(Slot0xA0) */\n              mload\n                /* \"lib/TokenTransferrer.sol\":18040:18048  Slot0xC0 */\n              0xc0\n                /* \"lib/TokenTransferrer.sol\":18034:18049  mload(Slot0xC0) */\n              mload\n                /* \"lib/TokenTransferrer.sol\":18215:18249  ERC1155_safeTransferFrom_signature */\n              0xf242432a00000000000000000000000000000000000000000000000000000000\n                /* \"lib/TokenTransferrer.sol\":18165:18197  ERC1155_safeTransferFrom_sig_ptr */\n              0x00\n                /* \"lib/TokenTransferrer.sol\":18141:18263  mstore(... */\n              mstore\n                /* \"lib/TokenTransferrer.sol\":18318:18322  from */\n              dup8\n                /* \"lib/TokenTransferrer.sol\":18283:18316  ERC1155_safeTransferFrom_from_ptr */\n              0x04\n                /* \"lib/TokenTransferrer.sol\":18276:18323  mstore(ERC1155_safeTransferFrom_from_ptr, from) */\n              mstore\n                /* \"lib/TokenTransferrer.sol\":18376:18378  to */\n              dup7\n                /* \"lib/TokenTransferrer.sol\":18343:18374  ERC1155_safeTransferFrom_to_ptr */\n              0x24\n                /* \"lib/TokenTransferrer.sol\":18336:18379  mstore(ERC1155_safeTransferFrom_to_ptr, to) */\n              mstore\n                /* \"lib/TokenTransferrer.sol\":18432:18442  identifier */\n              dup6\n                /* \"lib/TokenTransferrer.sol\":18399:18430  ERC1155_safeTransferFrom_id_ptr */\n              0x44\n                /* \"lib/TokenTransferrer.sol\":18392:18443  mstore(ERC1155_safeTransferFrom_id_ptr, identifier) */\n              mstore\n                /* \"lib/TokenTransferrer.sol\":18500:18506  amount */\n              dup5\n                /* \"lib/TokenTransferrer.sol\":18463:18498  ERC1155_safeTransferFrom_amount_ptr */\n              0x64\n                /* \"lib/TokenTransferrer.sol\":18456:18507  mstore(ERC1155_safeTransferFrom_amount_ptr, amount) */\n              mstore\n                /* \"lib/TokenTransferrer.sol\":18602:18645  ERC1155_safeTransferFrom_data_length_offset */\n              0xa0\n                /* \"lib/TokenTransferrer.sol\":18544:18584  ERC1155_safeTransferFrom_data_offset_ptr */\n              0x84\n                /* \"lib/TokenTransferrer.sol\":18520:18659  mstore(... */\n              mstore\n                /* \"lib/TokenTransferrer.sol\":18721:18722  0 */\n              0x00\n                /* \"lib/TokenTransferrer.sol\":18679:18719  ERC1155_safeTransferFrom_data_length_ptr */\n              0xa4\n                /* \"lib/TokenTransferrer.sol\":18672:18723  mstore(ERC1155_safeTransferFrom_data_length_ptr, 0) */\n              mstore\n                /* \"lib/TokenTransferrer.sol\":19012:19013  0 */\n              0x00\n                /* \"lib/TokenTransferrer.sol\":18993:18994  0 */\n              dup1\n                /* \"lib/TokenTransferrer.sol\":18944:18975  ERC1155_safeTransferFrom_length */\n              0xc4\n                /* \"lib/TokenTransferrer.sol\":18894:18926  ERC1155_safeTransferFrom_sig_ptr */\n              0x00\n                /* \"lib/TokenTransferrer.sol\":18875:18876  0 */\n              dup1\n                /* \"lib/TokenTransferrer.sol\":18852:18857  token */\n              dup14\n                /* \"lib/TokenTransferrer.sol\":18829:18834  gas() */\n              gas\n                /* \"lib/TokenTransferrer.sol\":18807:19027  call(... */\n              call\n                /* \"lib/TokenTransferrer.sol\":19092:19099  success */\n              dup1\n                /* \"lib/TokenTransferrer.sol\":19082:22355  if iszero(success) {... */\n              tag_127\n              jumpi\n                /* \"lib/TokenTransferrer.sol\":19243:19259  returndatasize() */\n              returndatasize\n                /* \"lib/TokenTransferrer.sol\":19240:21568  if returndatasize() {... */\n              iszero\n              tag_128\n              jumpi\n                /* \"lib/TokenTransferrer.sol\":19685:19692  OneWord */\n              0x20\n                /* \"lib/TokenTransferrer.sol\":19645:19658  AlmostOneWord */\n              0x1f\n                /* \"lib/TokenTransferrer.sol\":19627:19643  returndatasize() */\n              returndatasize\n                /* \"lib/TokenTransferrer.sol\":19623:19659  add(returndatasize(), AlmostOneWord) */\n              add\n                /* \"lib/TokenTransferrer.sol\":19594:19714  div(... */\n              div\n                /* \"lib/TokenTransferrer.sol\":19996:20003  OneWord */\n              0x20\n                /* \"lib/TokenTransferrer.sol\":19984:19994  memPointer */\n              dup7\n                /* \"lib/TokenTransferrer.sol\":19980:20004  div(memPointer, OneWord) */\n              div\n                /* \"lib/TokenTransferrer.sol\":20124:20139  returnDataWords */\n              dup2\n                /* \"lib/TokenTransferrer.sol\":20111:20122  CostPerWord */\n              0x03\n                /* \"lib/TokenTransferrer.sol\":20107:20140  mul(CostPerWord, returnDataWords) */\n              mul\n                /* \"lib/TokenTransferrer.sol\":20253:20263  msizeWords */\n              dup2\n                /* \"lib/TokenTransferrer.sol\":20236:20251  returnDataWords */\n              dup4\n                /* \"lib/TokenTransferrer.sol\":20233:20264  gt(returnDataWords, msizeWords) */\n              gt\n                /* \"lib/TokenTransferrer.sol\":20230:20999  if gt(returnDataWords, msizeWords) {... */\n              iszero\n              tag_129\n              jumpi\n                /* \"lib/TokenTransferrer.sol\":20861:20887  MemoryExpansionCoefficient */\n              0x0200\n                /* \"lib/TokenTransferrer.sol\":20774:20784  msizeWords */\n              dup3\n                /* \"lib/TokenTransferrer.sol\":20762:20772  msizeWords */\n              dup4\n                /* \"lib/TokenTransferrer.sol\":20758:20785  mul(msizeWords, msizeWords) */\n              mul\n                /* \"lib/TokenTransferrer.sol\":20700:20715  returnDataWords */\n              dup5\n                /* \"lib/TokenTransferrer.sol\":20683:20698  returnDataWords */\n              dup6\n                /* \"lib/TokenTransferrer.sol\":20679:20716  mul(returnDataWords, returnDataWords) */\n              mul\n                /* \"lib/TokenTransferrer.sol\":20634:20823  sub(... */\n              sub\n                /* \"lib/TokenTransferrer.sol\":20593:20921  div(... */\n              div\n                /* \"lib/TokenTransferrer.sol\":20514:20525  CostPerWord */\n              0x03\n                /* \"lib/TokenTransferrer.sol\":20465:20475  msizeWords */\n              dup4\n                /* \"lib/TokenTransferrer.sol\":20448:20463  returnDataWords */\n              dup6\n                /* \"lib/TokenTransferrer.sol\":20444:20476  sub(returnDataWords, msizeWords) */\n              sub\n                /* \"lib/TokenTransferrer.sol\":20403:20559  mul(... */\n              mul\n                /* \"lib/TokenTransferrer.sol\":20366:20951  add(... */\n              add\n                /* \"lib/TokenTransferrer.sol\":20332:20336  cost */\n              dup2\n                /* \"lib/TokenTransferrer.sol\":20299:20977  add(... */\n              add\n                /* \"lib/TokenTransferrer.sol\":20291:20977  cost := add(... */\n              swap1\n              pop\n                /* \"lib/TokenTransferrer.sol\":20230:20999  if gt(returnDataWords, msizeWords) {... */\n            tag_129:\n                /* \"lib/TokenTransferrer.sol\":21243:21248  gas() */\n              gas\n                /* \"lib/TokenTransferrer.sol\":21226:21240  ExtraGasBuffer */\n              0x20\n                /* \"lib/TokenTransferrer.sol\":21220:21224  cost */\n              dup3\n                /* \"lib/TokenTransferrer.sol\":21216:21241  add(cost, ExtraGasBuffer) */\n              add\n                /* \"lib/TokenTransferrer.sol\":21213:21249  lt(add(cost, ExtraGasBuffer), gas()) */\n              lt\n                /* \"lib/TokenTransferrer.sol\":21210:21550  if lt(add(cost, ExtraGasBuffer), gas()) {... */\n              iszero\n              tag_130\n              jumpi\n                /* \"lib/TokenTransferrer.sol\":21378:21394  returndatasize() */\n              returndatasize\n                /* \"lib/TokenTransferrer.sol\":21375:21376  0 */\n              0x00\n                /* \"lib/TokenTransferrer.sol\":21372:21373  0 */\n              dup1\n                /* \"lib/TokenTransferrer.sol\":21357:21395  returndatacopy(0, 0, returndatasize()) */\n              returndatacopy\n                /* \"lib/TokenTransferrer.sol\":21511:21527  returndatasize() */\n              returndatasize\n                /* \"lib/TokenTransferrer.sol\":21508:21509  0 */\n              0x00\n                /* \"lib/TokenTransferrer.sol\":21501:21528  revert(0, returndatasize()) */\n              revert\n                /* \"lib/TokenTransferrer.sol\":21210:21550  if lt(add(cost, ExtraGasBuffer), gas()) {... */\n            tag_130:\n                /* \"lib/TokenTransferrer.sol\":19260:21568  {... */\n              pop\n              pop\n              pop\n                /* \"lib/TokenTransferrer.sol\":19240:21568  if returndatasize() {... */\n            tag_128:\n                /* \"lib/TokenTransferrer.sol\":21743:21786  TokenTransferGenericFailure_error_signature */\n              0xf486bc8700000000000000000000000000000000000000000000000000000000\n                /* \"lib/TokenTransferrer.sol\":21680:21721  TokenTransferGenericFailure_error_sig_ptr */\n              0x00\n                /* \"lib/TokenTransferrer.sol\":21652:21804  mstore(... */\n              mstore\n                /* \"lib/TokenTransferrer.sol\":21873:21878  token */\n              dup10\n                /* \"lib/TokenTransferrer.sol\":21828:21871  TokenTransferGenericFailure_error_token_ptr */\n              0x04\n                /* \"lib/TokenTransferrer.sol\":21821:21879  mstore(TokenTransferGenericFailure_error_token_ptr, token) */\n              mstore\n                /* \"lib/TokenTransferrer.sol\":21947:21951  from */\n              dup9\n                /* \"lib/TokenTransferrer.sol\":21903:21945  TokenTransferGenericFailure_error_from_ptr */\n              0x24\n                /* \"lib/TokenTransferrer.sol\":21896:21952  mstore(TokenTransferGenericFailure_error_from_ptr, from) */\n              mstore\n                /* \"lib/TokenTransferrer.sol\":22018:22020  to */\n              dup8\n                /* \"lib/TokenTransferrer.sol\":21976:22016  TokenTransferGenericFailure_error_to_ptr */\n              0x44\n                /* \"lib/TokenTransferrer.sol\":21969:22021  mstore(TokenTransferGenericFailure_error_to_ptr, to) */\n              mstore\n                /* \"lib/TokenTransferrer.sol\":22087:22097  identifier */\n              dup7\n                /* \"lib/TokenTransferrer.sol\":22045:22085  TokenTransferGenericFailure_error_id_ptr */\n              0x64\n                /* \"lib/TokenTransferrer.sol\":22038:22098  mstore(TokenTransferGenericFailure_error_id_ptr, identifier) */\n              mstore\n                /* \"lib/TokenTransferrer.sol\":22168:22174  amount */\n              dup6\n                /* \"lib/TokenTransferrer.sol\":22122:22166  TokenTransferGenericFailure_error_amount_ptr */\n              0x84\n                /* \"lib/TokenTransferrer.sol\":22115:22175  mstore(TokenTransferGenericFailure_error_amount_ptr, amount) */\n              mstore\n                /* \"lib/TokenTransferrer.sol\":22283:22323  TokenTransferGenericFailure_error_length */\n              0xa4\n                /* \"lib/TokenTransferrer.sol\":22220:22261  TokenTransferGenericFailure_error_sig_ptr */\n              0x00\n                /* \"lib/TokenTransferrer.sol\":22192:22341  revert(... */\n              revert\n                /* \"lib/TokenTransferrer.sol\":19082:22355  if iszero(success) {... */\n            tag_127:\n                /* \"lib/TokenTransferrer.sol\":22386:22394  slot0x80 */\n              dup4\n                /* \"lib/TokenTransferrer.sol\":22376:22384  Slot0x80 */\n              0x80\n                /* \"lib/TokenTransferrer.sol\":22369:22395  mstore(Slot0x80, slot0x80) */\n              mstore\n                /* \"lib/TokenTransferrer.sol\":22447:22455  slot0xA0 */\n              dup3\n                /* \"lib/TokenTransferrer.sol\":22437:22445  Slot0xA0 */\n              0xa0\n                /* \"lib/TokenTransferrer.sol\":22430:22456  mstore(Slot0xA0, slot0xA0) */\n              mstore\n                /* \"lib/TokenTransferrer.sol\":22508:22516  slot0xC0 */\n              dup2\n                /* \"lib/TokenTransferrer.sol\":22498:22506  Slot0xC0 */\n              0xc0\n                /* \"lib/TokenTransferrer.sol\":22491:22517  mstore(Slot0xC0, slot0xC0) */\n              mstore\n                /* \"lib/TokenTransferrer.sol\":22640:22650  memPointer */\n              dup5\n                /* \"lib/TokenTransferrer.sol\":22617:22638  FreeMemoryPointerSlot */\n              0x40\n                /* \"lib/TokenTransferrer.sol\":22610:22651  mstore(FreeMemoryPointerSlot, memPointer) */\n              mstore\n                /* \"lib/TokenTransferrer.sol\":22728:22729  0 */\n              0x00\n                /* \"lib/TokenTransferrer.sol\":22718:22726  ZeroSlot */\n              0x60\n                /* \"lib/TokenTransferrer.sol\":22711:22730  mstore(ZeroSlot, 0) */\n              mstore\n                /* \"lib/TokenTransferrer.sol\":17386:22740  {... */\n              pop\n              pop\n              pop\n              pop\n              pop\n                /* \"lib/TokenTransferrer.sol\":17126:22746  function _performERC1155Transfer(... */\n              pop\n              pop\n              pop\n              pop\n              pop\n              jump\t// out\n                /* \"#utility.yul\":88:205   */\n            tag_132:\n                /* \"#utility.yul\":197:198   */\n              0x00\n                /* \"#utility.yul\":194:195   */\n              dup1\n                /* \"#utility.yul\":187:199   */\n              revert\n                /* \"#utility.yul\":211:328   */\n            tag_133:\n                /* \"#utility.yul\":320:321   */\n              0x00\n                /* \"#utility.yul\":317:318   */\n              dup1\n                /* \"#utility.yul\":310:322   */\n              revert\n                /* \"#utility.yul\":334:451   */\n            tag_134:\n                /* \"#utility.yul\":443:444   */\n              0x00\n                /* \"#utility.yul\":440:441   */\n              dup1\n                /* \"#utility.yul\":433:445   */\n              revert\n                /* \"#utility.yul\":457:574   */\n            tag_135:\n                /* \"#utility.yul\":566:567   */\n              0x00\n                /* \"#utility.yul\":563:564   */\n              dup1\n                /* \"#utility.yul\":556:568   */\n              revert\n                /* \"#utility.yul\":580:697   */\n            tag_136:\n                /* \"#utility.yul\":689:690   */\n              0x00\n                /* \"#utility.yul\":686:687   */\n              dup1\n                /* \"#utility.yul\":679:691   */\n              revert\n                /* \"#utility.yul\":735:1338   */\n            tag_137:\n                /* \"#utility.yul\":843:851   */\n              0x00\n                /* \"#utility.yul\":853:859   */\n              dup1\n                /* \"#utility.yul\":903:906   */\n              dup4\n                /* \"#utility.yul\":896:900   */\n              0x1f\n                /* \"#utility.yul\":888:894   */\n              dup5\n                /* \"#utility.yul\":884:901   */\n              add\n                /* \"#utility.yul\":880:907   */\n              slt\n                /* \"#utility.yul\":870:992   */\n              tag_160\n              jumpi\n                /* \"#utility.yul\":911:990   */\n              tag_161\n              tag_134\n              jump\t// in\n            tag_161:\n                /* \"#utility.yul\":870:992   */\n            tag_160:\n                /* \"#utility.yul\":1024:1030   */\n              dup3\n                /* \"#utility.yul\":1011:1031   */\n              calldataload\n                /* \"#utility.yul\":1001:1031   */\n              swap1\n              pop\n                /* \"#utility.yul\":1054:1072   */\n              0xffffffffffffffff\n                /* \"#utility.yul\":1046:1052   */\n              dup2\n                /* \"#utility.yul\":1043:1073   */\n              gt\n                /* \"#utility.yul\":1040:1157   */\n              iszero\n              tag_162\n              jumpi\n                /* \"#utility.yul\":1076:1155   */\n              tag_163\n              tag_135\n              jump\t// in\n            tag_163:\n                /* \"#utility.yul\":1040:1157   */\n            tag_162:\n                /* \"#utility.yul\":1190:1194   */\n              0x20\n                /* \"#utility.yul\":1182:1188   */\n              dup4\n                /* \"#utility.yul\":1178:1195   */\n              add\n                /* \"#utility.yul\":1166:1195   */\n              swap2\n              pop\n                /* \"#utility.yul\":1244:1247   */\n              dup4\n                /* \"#utility.yul\":1236:1240   */\n              0xc0\n                /* \"#utility.yul\":1228:1234   */\n              dup3\n                /* \"#utility.yul\":1224:1241   */\n              mul\n                /* \"#utility.yul\":1214:1222   */\n              dup4\n                /* \"#utility.yul\":1210:1242   */\n              add\n                /* \"#utility.yul\":1207:1248   */\n              gt\n                /* \"#utility.yul\":1204:1332   */\n              iszero\n              tag_164\n              jumpi\n                /* \"#utility.yul\":1251:1330   */\n              tag_165\n              tag_136\n              jump\t// in\n            tag_165:\n                /* \"#utility.yul\":1204:1332   */\n            tag_164:\n                /* \"#utility.yul\":735:1338   */\n              swap3\n              pop\n              swap3\n              swap1\n              pop\n              jump\t// out\n                /* \"#utility.yul\":1344:1973   */\n            tag_9:\n                /* \"#utility.yul\":1465:1471   */\n              0x00\n                /* \"#utility.yul\":1473:1479   */\n              dup1\n                /* \"#utility.yul\":1522:1524   */\n              0x20\n                /* \"#utility.yul\":1510:1519   */\n              dup4\n                /* \"#utility.yul\":1501:1508   */\n              dup6\n                /* \"#utility.yul\":1497:1520   */\n              sub\n                /* \"#utility.yul\":1493:1525   */\n              slt\n                /* \"#utility.yul\":1490:1609   */\n              iszero\n              tag_167\n              jumpi\n                /* \"#utility.yul\":1528:1607   */\n              tag_168\n              tag_132\n              jump\t// in\n            tag_168:\n                /* \"#utility.yul\":1490:1609   */\n            tag_167:\n                /* \"#utility.yul\":1676:1677   */\n              0x00\n                /* \"#utility.yul\":1665:1674   */\n              dup4\n                /* \"#utility.yul\":1661:1678   */\n              add\n                /* \"#utility.yul\":1648:1679   */\n              calldataload\n                /* \"#utility.yul\":1706:1724   */\n              0xffffffffffffffff\n                /* \"#utility.yul\":1698:1704   */\n              dup2\n                /* \"#utility.yul\":1695:1725   */\n              gt\n                /* \"#utility.yul\":1692:1809   */\n              iszero\n              tag_169\n              jumpi\n                /* \"#utility.yul\":1728:1807   */\n              tag_170\n              tag_133\n              jump\t// in\n            tag_170:\n                /* \"#utility.yul\":1692:1809   */\n            tag_169:\n                /* \"#utility.yul\":1841:1956   */\n              tag_171\n                /* \"#utility.yul\":1948:1955   */\n              dup6\n                /* \"#utility.yul\":1939:1945   */\n              dup3\n                /* \"#utility.yul\":1928:1937   */\n              dup7\n                /* \"#utility.yul\":1924:1946   */\n              add\n                /* \"#utility.yul\":1841:1956   */\n              tag_137\n              jump\t// in\n            tag_171:\n                /* \"#utility.yul\":1823:1956   */\n              swap3\n              pop\n              swap3\n              pop\n                /* \"#utility.yul\":1619:1966   */\n              pop\n                /* \"#utility.yul\":1344:1973   */\n              swap3\n              pop\n              swap3\n              swap1\n              pop\n              jump\t// out\n                /* \"#utility.yul\":1979:2128   */\n            tag_138:\n                /* \"#utility.yul\":2015:2022   */\n              0x00\n                /* \"#utility.yul\":2055:2121   */\n              0xffffffff00000000000000000000000000000000000000000000000000000000\n                /* \"#utility.yul\":2048:2053   */\n              dup3\n                /* \"#utility.yul\":2044:2122   */\n              and\n                /* \"#utility.yul\":2033:2122   */\n              swap1\n              pop\n                /* \"#utility.yul\":1979:2128   */\n              swap2\n              swap1\n              pop\n              jump\t// out\n                /* \"#utility.yul\":2134:2249   */\n            tag_139:\n                /* \"#utility.yul\":2219:2242   */\n              tag_174\n                /* \"#utility.yul\":2236:2241   */\n              dup2\n                /* \"#utility.yul\":2219:2242   */\n              tag_138\n              jump\t// in\n            tag_174:\n                /* \"#utility.yul\":2214:2217   */\n              dup3\n                /* \"#utility.yul\":2207:2243   */\n              mstore\n                /* \"#utility.yul\":2134:2249   */\n              pop\n              pop\n              jump\t// out\n                /* \"#utility.yul\":2255:2473   */\n            tag_12:\n                /* \"#utility.yul\":2346:2350   */\n              0x00\n                /* \"#utility.yul\":2384:2386   */\n              0x20\n                /* \"#utility.yul\":2373:2382   */\n              dup3\n                /* \"#utility.yul\":2369:2387   */\n              add\n                /* \"#utility.yul\":2361:2387   */\n              swap1\n              pop\n                /* \"#utility.yul\":2397:2466   */\n              tag_176\n                /* \"#utility.yul\":2463:2464   */\n              0x00\n                /* \"#utility.yul\":2452:2461   */\n              dup4\n                /* \"#utility.yul\":2448:2465   */\n              add\n                /* \"#utility.yul\":2439:2445   */\n              dup5\n                /* \"#utility.yul\":2397:2466   */\n              tag_139\n              jump\t// in\n            tag_176:\n                /* \"#utility.yul\":2255:2473   */\n              swap3\n              swap2\n              pop\n              pop\n              jump\t// out\n                /* \"#utility.yul\":2520:3132   */\n            tag_140:\n                /* \"#utility.yul\":2637:2645   */\n              0x00\n                /* \"#utility.yul\":2647:2653   */\n              dup1\n                /* \"#utility.yul\":2697:2700   */\n              dup4\n                /* \"#utility.yul\":2690:2694   */\n              0x1f\n                /* \"#utility.yul\":2682:2688   */\n              dup5\n                /* \"#utility.yul\":2678:2695   */\n              add\n                /* \"#utility.yul\":2674:2701   */\n              slt\n                /* \"#utility.yul\":2664:2786   */\n              tag_178\n              jumpi\n                /* \"#utility.yul\":2705:2784   */\n              tag_179\n              tag_134\n              jump\t// in\n            tag_179:\n                /* \"#utility.yul\":2664:2786   */\n            tag_178:\n                /* \"#utility.yul\":2818:2824   */\n              dup3\n                /* \"#utility.yul\":2805:2825   */\n              calldataload\n                /* \"#utility.yul\":2795:2825   */\n              swap1\n              pop\n                /* \"#utility.yul\":2848:2866   */\n              0xffffffffffffffff\n                /* \"#utility.yul\":2840:2846   */\n              dup2\n                /* \"#utility.yul\":2837:2867   */\n              gt\n                /* \"#utility.yul\":2834:2951   */\n              iszero\n              tag_180\n              jumpi\n                /* \"#utility.yul\":2870:2949   */\n              tag_181\n              tag_135\n              jump\t// in\n            tag_181:\n                /* \"#utility.yul\":2834:2951   */\n            tag_180:\n                /* \"#utility.yul\":2984:2988   */\n              0x20\n                /* \"#utility.yul\":2976:2982   */\n              dup4\n                /* \"#utility.yul\":2972:2989   */\n              add\n                /* \"#utility.yul\":2960:2989   */\n              swap2\n              pop\n                /* \"#utility.yul\":3038:3041   */\n              dup4\n                /* \"#utility.yul\":3030:3034   */\n              0x20\n                /* \"#utility.yul\":3022:3028   */\n              dup3\n                /* \"#utility.yul\":3018:3035   */\n              mul\n                /* \"#utility.yul\":3008:3016   */\n              dup4\n                /* \"#utility.yul\":3004:3036   */\n              add\n                /* \"#utility.yul\":3001:3042   */\n              gt\n                /* \"#utility.yul\":2998:3126   */\n              iszero\n              tag_182\n              jumpi\n                /* \"#utility.yul\":3045:3124   */\n              tag_183\n              tag_136\n              jump\t// in\n            tag_183:\n                /* \"#utility.yul\":2998:3126   */\n            tag_182:\n                /* \"#utility.yul\":2520:3132   */\n              swap3\n              pop\n              swap3\n              swap1\n              pop\n              jump\t// out\n                /* \"#utility.yul\":3138:4230   */\n            tag_15:\n                /* \"#utility.yul\":3339:3345   */\n              0x00\n                /* \"#utility.yul\":3347:3353   */\n              dup1\n                /* \"#utility.yul\":3355:3361   */\n              0x00\n                /* \"#utility.yul\":3363:3369   */\n              dup1\n                /* \"#utility.yul\":3412:3414   */\n              0x40\n                /* \"#utility.yul\":3400:3409   */\n              dup6\n                /* \"#utility.yul\":3391:3398   */\n              dup8\n                /* \"#utility.yul\":3387:3410   */\n              sub\n                /* \"#utility.yul\":3383:3415   */\n              slt\n                /* \"#utility.yul\":3380:3499   */\n              iszero\n              tag_185\n              jumpi\n                /* \"#utility.yul\":3418:3497   */\n              tag_186\n              tag_132\n              jump\t// in\n            tag_186:\n                /* \"#utility.yul\":3380:3499   */\n            tag_185:\n                /* \"#utility.yul\":3566:3567   */\n              0x00\n                /* \"#utility.yul\":3555:3564   */\n              dup6\n                /* \"#utility.yul\":3551:3568   */\n              add\n                /* \"#utility.yul\":3538:3569   */\n              calldataload\n                /* \"#utility.yul\":3596:3614   */\n              0xffffffffffffffff\n                /* \"#utility.yul\":3588:3594   */\n              dup2\n                /* \"#utility.yul\":3585:3615   */\n              gt\n                /* \"#utility.yul\":3582:3699   */\n              iszero\n              tag_187\n              jumpi\n                /* \"#utility.yul\":3618:3697   */\n              tag_188\n              tag_133\n              jump\t// in\n            tag_188:\n                /* \"#utility.yul\":3582:3699   */\n            tag_187:\n                /* \"#utility.yul\":3731:3846   */\n              tag_189\n                /* \"#utility.yul\":3838:3845   */\n              dup8\n                /* \"#utility.yul\":3829:3835   */\n              dup3\n                /* \"#utility.yul\":3818:3827   */\n              dup9\n                /* \"#utility.yul\":3814:3836   */\n              add\n                /* \"#utility.yul\":3731:3846   */\n              tag_137\n              jump\t// in\n            tag_189:\n                /* \"#utility.yul\":3713:3846   */\n              swap5\n              pop\n              swap5\n              pop\n                /* \"#utility.yul\":3509:3856   */\n              pop\n                /* \"#utility.yul\":3923:3925   */\n              0x20\n                /* \"#utility.yul\":3912:3921   */\n              dup6\n                /* \"#utility.yul\":3908:3926   */\n              add\n                /* \"#utility.yul\":3895:3927   */\n              calldataload\n                /* \"#utility.yul\":3954:3972   */\n              0xffffffffffffffff\n                /* \"#utility.yul\":3946:3952   */\n              dup2\n                /* \"#utility.yul\":3943:3973   */\n              gt\n                /* \"#utility.yul\":3940:4057   */\n              iszero\n              tag_190\n              jumpi\n                /* \"#utility.yul\":3976:4055   */\n              tag_191\n              tag_133\n              jump\t// in\n            tag_191:\n                /* \"#utility.yul\":3940:4057   */\n            tag_190:\n                /* \"#utility.yul\":4089:4213   */\n              tag_192\n                /* \"#utility.yul\":4205:4212   */\n              dup8\n                /* \"#utility.yul\":4196:4202   */\n              dup3\n                /* \"#utility.yul\":4185:4194   */\n              dup9\n                /* \"#utility.yul\":4181:4203   */\n              add\n                /* \"#utility.yul\":4089:4213   */\n              tag_140\n              jump\t// in\n            tag_192:\n                /* \"#utility.yul\":4071:4213   */\n              swap3\n              pop\n              swap3\n              pop\n                /* \"#utility.yul\":3866:4223   */\n              pop\n                /* \"#utility.yul\":3138:4230   */\n              swap3\n              swap6\n              swap2\n              swap5\n              pop\n              swap3\n              pop\n              jump\t// out\n                /* \"#utility.yul\":4236:4883   */\n            tag_20:\n                /* \"#utility.yul\":4366:4372   */\n              0x00\n                /* \"#utility.yul\":4374:4380   */\n              dup1\n                /* \"#utility.yul\":4423:4425   */\n              0x20\n                /* \"#utility.yul\":4411:4420   */\n              dup4\n                /* \"#utility.yul\":4402:4409   */\n              dup6\n                /* \"#utility.yul\":4398:4421   */\n              sub\n                /* \"#utility.yul\":4394:4426   */\n              slt\n                /* \"#utility.yul\":4391:4510   */\n              iszero\n              tag_194\n              jumpi\n                /* \"#utility.yul\":4429:4508   */\n              tag_195\n              tag_132\n              jump\t// in\n            tag_195:\n                /* \"#utility.yul\":4391:4510   */\n            tag_194:\n                /* \"#utility.yul\":4577:4578   */\n              0x00\n                /* \"#utility.yul\":4566:4575   */\n              dup4\n                /* \"#utility.yul\":4562:4579   */\n              add\n                /* \"#utility.yul\":4549:4580   */\n              calldataload\n                /* \"#utility.yul\":4607:4625   */\n              0xffffffffffffffff\n                /* \"#utility.yul\":4599:4605   */\n              dup2\n                /* \"#utility.yul\":4596:4626   */\n              gt\n                /* \"#utility.yul\":4593:4710   */\n              iszero\n              tag_196\n              jumpi\n                /* \"#utility.yul\":4629:4708   */\n              tag_197\n              tag_133\n              jump\t// in\n            tag_197:\n                /* \"#utility.yul\":4593:4710   */\n            tag_196:\n                /* \"#utility.yul\":4742:4866   */\n              tag_198\n                /* \"#utility.yul\":4858:4865   */\n              dup6\n                /* \"#utility.yul\":4849:4855   */\n              dup3\n                /* \"#utility.yul\":4838:4847   */\n              dup7\n                /* \"#utility.yul\":4834:4856   */\n              add\n                /* \"#utility.yul\":4742:4866   */\n              tag_140\n              jump\t// in\n            tag_198:\n                /* \"#utility.yul\":4724:4866   */\n              swap3\n              pop\n              swap3\n              pop\n                /* \"#utility.yul\":4520:4876   */\n              pop\n                /* \"#utility.yul\":4236:4883   */\n              swap3\n              pop\n              swap3\n              swap1\n              pop\n              jump\t// out\n                /* \"#utility.yul\":4889:5015   */\n            tag_141:\n                /* \"#utility.yul\":4926:4933   */\n              0x00\n                /* \"#utility.yul\":4966:5008   */\n              0xffffffffffffffffffffffffffffffffffffffff\n                /* \"#utility.yul\":4959:4964   */\n              dup3\n                /* \"#utility.yul\":4955:5009   */\n              and\n                /* \"#utility.yul\":4944:5009   */\n              swap1\n              pop\n                /* \"#utility.yul\":4889:5015   */\n              swap2\n              swap1\n              pop\n              jump\t// out\n                /* \"#utility.yul\":5021:5117   */\n            tag_142:\n                /* \"#utility.yul\":5058:5065   */\n              0x00\n                /* \"#utility.yul\":5087:5111   */\n              tag_201\n                /* \"#utility.yul\":5105:5110   */\n              dup3\n                /* \"#utility.yul\":5087:5111   */\n              tag_141\n              jump\t// in\n            tag_201:\n                /* \"#utility.yul\":5076:5111   */\n              swap1\n              pop\n                /* \"#utility.yul\":5021:5117   */\n              swap2\n              swap1\n              pop\n              jump\t// out\n                /* \"#utility.yul\":5123:5245   */\n            tag_143:\n                /* \"#utility.yul\":5196:5220   */\n              tag_203\n                /* \"#utility.yul\":5214:5219   */\n              dup2\n                /* \"#utility.yul\":5196:5220   */\n              tag_142\n              jump\t// in\n            tag_203:\n                /* \"#utility.yul\":5189:5194   */\n              dup2\n                /* \"#utility.yul\":5186:5221   */\n              eq\n                /* \"#utility.yul\":5176:5239   */\n              tag_204\n              jumpi\n                /* \"#utility.yul\":5235:5236   */\n              0x00\n                /* \"#utility.yul\":5232:5233   */\n              dup1\n                /* \"#utility.yul\":5225:5237   */\n              revert\n                /* \"#utility.yul\":5176:5239   */\n            tag_204:\n                /* \"#utility.yul\":5123:5245   */\n              pop\n              jump\t// out\n                /* \"#utility.yul\":5251:5390   */\n            tag_144:\n                /* \"#utility.yul\":5297:5302   */\n              0x00\n                /* \"#utility.yul\":5335:5341   */\n              dup2\n                /* \"#utility.yul\":5322:5342   */\n              calldataload\n                /* \"#utility.yul\":5313:5342   */\n              swap1\n              pop\n                /* \"#utility.yul\":5351:5384   */\n              tag_206\n                /* \"#utility.yul\":5378:5383   */\n              dup2\n                /* \"#utility.yul\":5351:5384   */\n              tag_143\n              jump\t// in\n            tag_206:\n                /* \"#utility.yul\":5251:5390   */\n              swap3\n              swap2\n              pop\n              pop\n              jump\t// out\n                /* \"#utility.yul\":5396:5486   */\n            tag_145:\n                /* \"#utility.yul\":5430:5437   */\n              0x00\n                /* \"#utility.yul\":5473:5478   */\n              dup2\n                /* \"#utility.yul\":5466:5479   */\n              iszero\n                /* \"#utility.yul\":5459:5480   */\n              iszero\n                /* \"#utility.yul\":5448:5480   */\n              swap1\n              pop\n                /* \"#utility.yul\":5396:5486   */\n              swap2\n              swap1\n              pop\n              jump\t// out\n                /* \"#utility.yul\":5492:5608   */\n            tag_146:\n                /* \"#utility.yul\":5562:5583   */\n              tag_209\n                /* \"#utility.yul\":5577:5582   */\n              dup2\n                /* \"#utility.yul\":5562:5583   */\n              tag_145\n              jump\t// in\n            tag_209:\n                /* \"#utility.yul\":5555:5560   */\n              dup2\n                /* \"#utility.yul\":5552:5584   */\n              eq\n                /* \"#utility.yul\":5542:5602   */\n              tag_210\n              jumpi\n                /* \"#utility.yul\":5598:5599   */\n              0x00\n                /* \"#utility.yul\":5595:5596   */\n              dup1\n                /* \"#utility.yul\":5588:5600   */\n              revert\n                /* \"#utility.yul\":5542:5602   */\n            tag_210:\n                /* \"#utility.yul\":5492:5608   */\n              pop\n              jump\t// out\n                /* \"#utility.yul\":5614:5747   */\n            tag_147:\n                /* \"#utility.yul\":5657:5662   */\n              0x00\n                /* \"#utility.yul\":5695:5701   */\n              dup2\n                /* \"#utility.yul\":5682:5702   */\n              calldataload\n                /* \"#utility.yul\":5673:5702   */\n              swap1\n              pop\n                /* \"#utility.yul\":5711:5741   */\n              tag_212\n                /* \"#utility.yul\":5735:5740   */\n              dup2\n                /* \"#utility.yul\":5711:5741   */\n              tag_146\n              jump\t// in\n            tag_212:\n                /* \"#utility.yul\":5614:5747   */\n              swap3\n              swap2\n              pop\n              pop\n              jump\t// out\n                /* \"#utility.yul\":5753:6221   */\n            tag_25:\n                /* \"#utility.yul\":5818:5824   */\n              0x00\n                /* \"#utility.yul\":5826:5832   */\n              dup1\n                /* \"#utility.yul\":5875:5877   */\n              0x40\n                /* \"#utility.yul\":5863:5872   */\n              dup4\n                /* \"#utility.yul\":5854:5861   */\n              dup6\n                /* \"#utility.yul\":5850:5873   */\n              sub\n                /* \"#utility.yul\":5846:5878   */\n              slt\n                /* \"#utility.yul\":5843:5962   */\n              iszero\n              tag_214\n              jumpi\n                /* \"#utility.yul\":5881:5960   */\n              tag_215\n              tag_132\n              jump\t// in\n            tag_215:\n                /* \"#utility.yul\":5843:5962   */\n            tag_214:\n                /* \"#utility.yul\":6001:6002   */\n              0x00\n                /* \"#utility.yul\":6026:6079   */\n              tag_216\n                /* \"#utility.yul\":6071:6078   */\n              dup6\n                /* \"#utility.yul\":6062:6068   */\n              dup3\n                /* \"#utility.yul\":6051:6060   */\n              dup7\n                /* \"#utility.yul\":6047:6069   */\n              add\n                /* \"#utility.yul\":6026:6079   */\n              tag_144\n              jump\t// in\n            tag_216:\n                /* \"#utility.yul\":6016:6079   */\n              swap3\n              pop\n                /* \"#utility.yul\":5972:6089   */\n              pop\n                /* \"#utility.yul\":6128:6130   */\n              0x20\n                /* \"#utility.yul\":6154:6204   */\n              tag_217\n                /* \"#utility.yul\":6196:6203   */\n              dup6\n                /* \"#utility.yul\":6187:6193   */\n              dup3\n                /* \"#utility.yul\":6176:6185   */\n              dup7\n                /* \"#utility.yul\":6172:6194   */\n              add\n                /* \"#utility.yul\":6154:6204   */\n              tag_147\n              jump\t// in\n            tag_217:\n                /* \"#utility.yul\":6144:6204   */\n              swap2\n              pop\n                /* \"#utility.yul\":6099:6214   */\n              pop\n                /* \"#utility.yul\":5753:6221   */\n              swap3\n              pop\n              swap3\n              swap1\n              pop\n              jump\t// out\n                /* \"#utility.yul\":6227:6407   */\n            tag_36:\n                /* \"#utility.yul\":6275:6352   */\n              0x4e487b7100000000000000000000000000000000000000000000000000000000\n                /* \"#utility.yul\":6272:6273   */\n              0x00\n                /* \"#utility.yul\":6265:6353   */\n              mstore\n                /* \"#utility.yul\":6372:6376   */\n              0x32\n                /* \"#utility.yul\":6369:6370   */\n              0x04\n                /* \"#utility.yul\":6362:6377   */\n              mstore\n                /* \"#utility.yul\":6396:6400   */\n              0x24\n                /* \"#utility.yul\":6393:6394   */\n              0x00\n                /* \"#utility.yul\":6386:6401   */\n              revert\n                /* \"#utility.yul\":6413:6531   */\n            tag_148:\n                /* \"#utility.yul\":6500:6524   */\n              tag_220\n                /* \"#utility.yul\":6518:6523   */\n              dup2\n                /* \"#utility.yul\":6500:6524   */\n              tag_142\n              jump\t// in\n            tag_220:\n                /* \"#utility.yul\":6495:6498   */\n              dup3\n                /* \"#utility.yul\":6488:6525   */\n              mstore\n                /* \"#utility.yul\":6413:6531   */\n              pop\n              pop\n              jump\t// out\n                /* \"#utility.yul\":6537:6646   */\n            tag_149:\n                /* \"#utility.yul\":6618:6639   */\n              tag_222\n                /* \"#utility.yul\":6633:6638   */\n              dup2\n                /* \"#utility.yul\":6618:6639   */\n              tag_145\n              jump\t// in\n            tag_222:\n                /* \"#utility.yul\":6613:6616   */\n              dup3\n                /* \"#utility.yul\":6606:6640   */\n              mstore\n                /* \"#utility.yul\":6537:6646   */\n              pop\n              pop\n              jump\t// out\n                /* \"#utility.yul\":6652:6972   */\n            tag_57:\n                /* \"#utility.yul\":6767:6771   */\n              0x00\n                /* \"#utility.yul\":6805:6807   */\n              0x40\n                /* \"#utility.yul\":6794:6803   */\n              dup3\n                /* \"#utility.yul\":6790:6808   */\n              add\n                /* \"#utility.yul\":6782:6808   */\n              swap1\n              pop\n                /* \"#utility.yul\":6818:6889   */\n              tag_224\n                /* \"#utility.yul\":6886:6887   */\n              0x00\n                /* \"#utility.yul\":6875:6884   */\n              dup4\n                /* \"#utility.yul\":6871:6888   */\n              add\n                /* \"#utility.yul\":6862:6868   */\n              dup6\n                /* \"#utility.yul\":6818:6889   */\n              tag_148\n              jump\t// in\n            tag_224:\n                /* \"#utility.yul\":6899:6965   */\n              tag_225\n                /* \"#utility.yul\":6961:6963   */\n              0x20\n                /* \"#utility.yul\":6950:6959   */\n              dup4\n                /* \"#utility.yul\":6946:6964   */\n              add\n                /* \"#utility.yul\":6937:6943   */\n              dup5\n                /* \"#utility.yul\":6899:6965   */\n              tag_149\n              jump\t// in\n            tag_225:\n                /* \"#utility.yul\":6652:6972   */\n              swap4\n              swap3\n              pop\n              pop\n              pop\n              jump\t// out\n                /* \"#utility.yul\":6978:7188   */\n            tag_59:\n                /* \"#utility.yul\":7065:7069   */\n              0x00\n                /* \"#utility.yul\":7103:7105   */\n              0x20\n                /* \"#utility.yul\":7092:7101   */\n              dup3\n                /* \"#utility.yul\":7088:7106   */\n              add\n                /* \"#utility.yul\":7080:7106   */\n              swap1\n              pop\n                /* \"#utility.yul\":7116:7181   */\n              tag_227\n                /* \"#utility.yul\":7178:7179   */\n              0x00\n                /* \"#utility.yul\":7167:7176   */\n              dup4\n                /* \"#utility.yul\":7163:7180   */\n              add\n                /* \"#utility.yul\":7154:7160   */\n              dup5\n                /* \"#utility.yul\":7116:7181   */\n              tag_149\n              jump\t// in\n            tag_227:\n                /* \"#utility.yul\":6978:7188   */\n              swap3\n              swap2\n              pop\n              pop\n              jump\t// out\n                /* \"#utility.yul\":7194:7374   */\n            tag_63:\n                /* \"#utility.yul\":7242:7319   */\n              0x4e487b7100000000000000000000000000000000000000000000000000000000\n                /* \"#utility.yul\":7239:7240   */\n              0x00\n                /* \"#utility.yul\":7232:7320   */\n              mstore\n                /* \"#utility.yul\":7339:7343   */\n              0x21\n                /* \"#utility.yul\":7336:7337   */\n              0x04\n                /* \"#utility.yul\":7329:7344   */\n              mstore\n                /* \"#utility.yul\":7363:7367   */\n              0x24\n                /* \"#utility.yul\":7360:7361   */\n              0x00\n                /* \"#utility.yul\":7353:7368   */\n              revert\n                /* \"#utility.yul\":7380:7499   */\n            tag_150:\n                /* \"#utility.yul\":7473:7474   */\n              0x04\n                /* \"#utility.yul\":7466:7471   */\n              dup2\n                /* \"#utility.yul\":7463:7475   */\n              lt\n                /* \"#utility.yul\":7453:7493   */\n              tag_230\n              jumpi\n                /* \"#utility.yul\":7489:7490   */\n              0x00\n                /* \"#utility.yul\":7486:7487   */\n              dup1\n                /* \"#utility.yul\":7479:7491   */\n              revert\n                /* \"#utility.yul\":7453:7493   */\n            tag_230:\n                /* \"#utility.yul\":7380:7499   */\n              pop\n              jump\t// out\n                /* \"#utility.yul\":7505:7684   */\n            tag_151:\n                /* \"#utility.yul\":7571:7576   */\n              0x00\n                /* \"#utility.yul\":7609:7615   */\n              dup2\n                /* \"#utility.yul\":7596:7616   */\n              calldataload\n                /* \"#utility.yul\":7587:7616   */\n              swap1\n              pop\n                /* \"#utility.yul\":7625:7678   */\n              tag_232\n                /* \"#utility.yul\":7672:7677   */\n              dup2\n                /* \"#utility.yul\":7625:7678   */\n              tag_150\n              jump\t// in\n            tag_232:\n                /* \"#utility.yul\":7505:7684   */\n              swap3\n              swap2\n              pop\n              pop\n              jump\t// out\n                /* \"#utility.yul\":7690:8059   */\n            tag_65:\n                /* \"#utility.yul\":7769:7775   */\n              0x00\n                /* \"#utility.yul\":7818:7820   */\n              0x20\n                /* \"#utility.yul\":7806:7815   */\n              dup3\n                /* \"#utility.yul\":7797:7804   */\n              dup5\n                /* \"#utility.yul\":7793:7816   */\n              sub\n                /* \"#utility.yul\":7789:7821   */\n              slt\n                /* \"#utility.yul\":7786:7905   */\n              iszero\n              tag_234\n              jumpi\n                /* \"#utility.yul\":7824:7903   */\n              tag_235\n              tag_132\n              jump\t// in\n            tag_235:\n                /* \"#utility.yul\":7786:7905   */\n            tag_234:\n                /* \"#utility.yul\":7944:7945   */\n              0x00\n                /* \"#utility.yul\":7969:8042   */\n              tag_236\n                /* \"#utility.yul\":8034:8041   */\n              dup5\n                /* \"#utility.yul\":8025:8031   */\n              dup3\n                /* \"#utility.yul\":8014:8023   */\n              dup6\n                /* \"#utility.yul\":8010:8032   */\n              add\n                /* \"#utility.yul\":7969:8042   */\n              tag_151\n              jump\t// in\n            tag_236:\n                /* \"#utility.yul\":7959:8042   */\n              swap2\n              pop\n                /* \"#utility.yul\":7915:8052   */\n              pop\n                /* \"#utility.yul\":7690:8059   */\n              swap3\n              swap2\n              pop\n              pop\n              jump\t// out\n                /* \"#utility.yul\":8065:8394   */\n            tag_71:\n                /* \"#utility.yul\":8124:8130   */\n              0x00\n                /* \"#utility.yul\":8173:8175   */\n              0x20\n                /* \"#utility.yul\":8161:8170   */\n              dup3\n                /* \"#utility.yul\":8152:8159   */\n              dup5\n                /* \"#utility.yul\":8148:8171   */\n              sub\n                /* \"#utility.yul\":8144:8176   */\n              slt\n                /* \"#utility.yul\":8141:8260   */\n              iszero\n              tag_238\n              jumpi\n                /* \"#utility.yul\":8179:8258   */\n              tag_239\n              tag_132\n              jump\t// in\n            tag_239:\n                /* \"#utility.yul\":8141:8260   */\n            tag_238:\n                /* \"#utility.yul\":8299:8300   */\n              0x00\n                /* \"#utility.yul\":8324:8377   */\n              tag_240\n                /* \"#utility.yul\":8369:8376   */\n              dup5\n                /* \"#utility.yul\":8360:8366   */\n              dup3\n                /* \"#utility.yul\":8349:8358   */\n              dup6\n                /* \"#utility.yul\":8345:8367   */\n              add\n                /* \"#utility.yul\":8324:8377   */\n              tag_144\n              jump\t// in\n            tag_240:\n                /* \"#utility.yul\":8314:8377   */\n              swap2\n              pop\n                /* \"#utility.yul\":8270:8387   */\n              pop\n                /* \"#utility.yul\":8065:8394   */\n              swap3\n              swap2\n              pop\n              pop\n              jump\t// out\n\n            auxdata: 0xa26469706673582212205136924f4dbbfe79561a1fc04e45947433c8fcba59787ffd458bb59436aa022264736f6c63430008110033\n        }\n    }\n\n    auxdata: 0xa2646970667358221220761bc6711f0af030e64e4344395b1ef19179448b9d129d2b16bfafae043b55cd64736f6c63430008110033\n}\n\nsub_1: assembly {\n        /* \"conduit/Conduit.sol\":1078:10213  contract Conduit is ConduitInterface, TokenTransferrer {... */\n      mstore(0x40, 0xa0)\n        /* \"conduit/Conduit.sol\":2751:2853  constructor() {... */\n      callvalue\n      dup1\n      iszero\n      tag_1\n      jumpi\n      0x00\n      dup1\n      revert\n    tag_1:\n      pop\n        /* \"conduit/Conduit.sol\":2836:2846  msg.sender */\n      caller\n        /* \"conduit/Conduit.sol\":2822:2846  _controller = msg.sender */\n      0xffffffffffffffffffffffffffffffffffffffff\n      and\n      0x80\n      dup2\n      0xffffffffffffffffffffffffffffffffffffffff\n      and\n      dup2\n      mstore\n      pop\n      pop\n        /* \"conduit/Conduit.sol\":1078:10213  contract Conduit is ConduitInterface, TokenTransferrer {... */\n      mload(0x80)\n      codecopy(0x00, dataOffset(sub_0), dataSize(sub_0))\n      0x00\n      assignImmutable(\"0x8fef2229291b68be841adf029e58b87f39ba144b2d3b0af1760243d0a9bc6a1c\")\n      return(0x00, dataSize(sub_0))\n    stop\n\n    sub_0: assembly {\n            /* \"conduit/Conduit.sol\":1078:10213  contract Conduit is ConduitInterface, TokenTransferrer {... */\n          mstore(0x40, 0x80)\n          callvalue\n          dup1\n          iszero\n          tag_1\n          jumpi\n          0x00\n          dup1\n          revert\n        tag_1:\n          pop\n          jumpi(tag_2, lt(calldatasize, 0x04))\n          shr(0xe0, calldataload(0x00))\n          dup1\n          0x4ce34aa2\n          eq\n          tag_3\n          jumpi\n          dup1\n          0x899e104c\n          eq\n          tag_4\n          jumpi\n          dup1\n          0x8df25d92\n          eq\n          tag_5\n          jumpi\n          dup1\n          0xc4e8fcb5\n          eq\n          tag_6\n          jumpi\n        tag_2:\n          0x00\n          dup1\n          revert\n            /* \"conduit/Conduit.sol\":3602:4376  function execute(ConduitTransfer[] calldata transfers)... */\n        tag_3:\n          tag_7\n          0x04\n          dup1\n          calldatasize\n          sub\n          dup2\n          add\n          swap1\n          tag_8\n          swap2\n          swap1\n          tag_9\n          jump\t// in\n        tag_8:\n          tag_10\n          jump\t// in\n        tag_7:\n          mload(0x40)\n          tag_11\n          swap2\n          swap1\n          tag_12\n          jump\t// in\n        tag_11:\n          mload(0x40)\n          dup1\n          swap2\n          sub\n          swap1\n          return\n            /* \"conduit/Conduit.sol\":6540:7672  function executeWithBatch1155(... */\n        tag_4:\n          tag_13\n          0x04\n          dup1\n          calldatasize\n          sub\n          dup2\n          add\n          swap1\n          tag_14\n          swap2\n          swap1\n          tag_15\n          jump\t// in\n        tag_14:\n          tag_16\n          jump\t// in\n        tag_13:\n          mload(0x40)\n          tag_17\n          swap2\n          swap1\n          tag_12\n          jump\t// in\n        tag_17:\n          mload(0x40)\n          dup1\n          swap2\n          sub\n          swap1\n          return\n            /* \"conduit/Conduit.sol\":5137:5619  function executeBatch1155(... */\n        tag_5:\n          tag_18\n          0x04\n          dup1\n          calldatasize\n          sub\n          dup2\n          add\n          swap1\n          tag_19\n          swap2\n          swap1\n          tag_20\n          jump\t// in\n        tag_19:\n          tag_21\n          jump\t// in\n        tag_18:\n          mload(0x40)\n          tag_22\n          swap2\n          swap1\n          tag_12\n          jump\t// in\n        tag_22:\n          mload(0x40)\n          dup1\n          swap2\n          sub\n          swap1\n          return\n            /* \"conduit/Conduit.sol\":7905:8508  function updateChannel(address channel, bool isOpen) external override {... */\n        tag_6:\n          tag_23\n          0x04\n          dup1\n          calldatasize\n          sub\n          dup2\n          add\n          swap1\n          tag_24\n          swap2\n          swap1\n          tag_25\n          jump\t// in\n        tag_24:\n          tag_26\n          jump\t// in\n        tag_23:\n          stop\n            /* \"conduit/Conduit.sol\":3602:4376  function execute(ConduitTransfer[] calldata transfers)... */\n        tag_10:\n            /* \"conduit/Conduit.sol\":3732:3749  bytes4 magicValue */\n          0x00\n            /* \"conduit/Conduit.sol\":1695:1703  caller() */\n          caller\n            /* \"conduit/Conduit.sol\":1671:1693  ChannelKey_channel_ptr */\n          0x00\n            /* \"conduit/Conduit.sol\":1664:1704  mstore(ChannelKey_channel_ptr, caller()) */\n          mstore\n            /* \"conduit/Conduit.sol\":1816:1830  _channels.slot */\n          0x00\n            /* \"conduit/Conduit.sol\":1795:1814  ChannelKey_slot_ptr */\n          0x20\n            /* \"conduit/Conduit.sol\":1788:1831  mstore(ChannelKey_slot_ptr, _channels.slot) */\n          mstore\n            /* \"conduit/Conduit.sol\":2037:2054  ChannelKey_length */\n          0x40\n            /* \"conduit/Conduit.sol\":2013:2035  ChannelKey_channel_ptr */\n          0x00\n            /* \"conduit/Conduit.sol\":2003:2055  keccak256(ChannelKey_channel_ptr, ChannelKey_length) */\n          keccak256\n            /* \"conduit/Conduit.sol\":1997:2056  sload(keccak256(ChannelKey_channel_ptr, ChannelKey_length)) */\n          sload\n            /* \"conduit/Conduit.sol\":1970:2585  if iszero(... */\n          tag_28\n          jumpi\n            /* \"conduit/Conduit.sol\":2267:2296  ChannelClosed_error_signature */\n          0x93daadf200000000000000000000000000000000000000000000000000000000\n            /* \"conduit/Conduit.sol\":2242:2265  ChannelClosed_error_ptr */\n          0x00\n            /* \"conduit/Conduit.sol\":2235:2297  mstore(ChannelClosed_error_ptr, ChannelClosed_error_signature) */\n          mstore\n            /* \"conduit/Conduit.sol\":2406:2414  caller() */\n          caller\n            /* \"conduit/Conduit.sol\":2379:2404  ChannelClosed_channel_ptr */\n          0x04\n            /* \"conduit/Conduit.sol\":2372:2415  mstore(ChannelClosed_channel_ptr, caller()) */\n          mstore\n            /* \"conduit/Conduit.sol\":2544:2570  ChannelClosed_error_length */\n          0x24\n            /* \"conduit/Conduit.sol\":2519:2542  ChannelClosed_error_ptr */\n          0x00\n            /* \"conduit/Conduit.sol\":2512:2571  revert(ChannelClosed_error_ptr, ChannelClosed_error_length) */\n          revert\n            /* \"conduit/Conduit.sol\":1970:2585  if iszero(... */\n        tag_28:\n            /* \"conduit/Conduit.sol\":3839:3869  uint256 totalStandardTransfers */\n          0x00\n            /* \"conduit/Conduit.sol\":3872:3881  transfers */\n          dup4\n          dup4\n            /* \"conduit/Conduit.sol\":3872:3888  transfers.length */\n          swap1\n          pop\n            /* \"conduit/Conduit.sol\":3839:3888  uint256 totalStandardTransfers = transfers.length */\n          swap1\n          pop\n            /* \"conduit/Conduit.sol\":3943:3952  uint256 i */\n          0x00\n            /* \"conduit/Conduit.sol\":3938:4247  for (uint256 i = 0; i < totalStandardTransfers; ) {... */\n        tag_30:\n            /* \"conduit/Conduit.sol\":3962:3984  totalStandardTransfers */\n          dup2\n            /* \"conduit/Conduit.sol\":3958:3959  i */\n          dup2\n            /* \"conduit/Conduit.sol\":3958:3984  i < totalStandardTransfers */\n          lt\n            /* \"conduit/Conduit.sol\":3938:4247  for (uint256 i = 0; i < totalStandardTransfers; ) {... */\n          iszero\n          tag_31\n          jumpi\n            /* \"conduit/Conduit.sol\":4077:4100  _transfer(transfers[i]) */\n          tag_33\n            /* \"conduit/Conduit.sol\":4087:4096  transfers */\n          dup6\n          dup6\n            /* \"conduit/Conduit.sol\":4097:4098  i */\n          dup4\n            /* \"conduit/Conduit.sol\":4087:4099  transfers[i] */\n          dup2\n          dup2\n          lt\n          tag_34\n          jumpi\n          tag_35\n          tag_36\n          jump\t// in\n        tag_35:\n        tag_34:\n          swap1\n          pop\n          0xc0\n          mul\n          add\n            /* \"conduit/Conduit.sol\":4077:4086  _transfer */\n          tag_37\n            /* \"conduit/Conduit.sol\":4077:4100  _transfer(transfers[i]) */\n          jump\t// in\n        tag_33:\n            /* \"conduit/Conduit.sol\":4219:4222  ++i */\n          dup1\n          0x01\n          add\n          swap1\n          pop\n            /* \"conduit/Conduit.sol\":3938:4247  for (uint256 i = 0; i < totalStandardTransfers; ) {... */\n          jump(tag_30)\n        tag_31:\n          pop\n            /* \"conduit/Conduit.sol\":4348:4369  this.execute.selector */\n          shl(0xe0, 0x4ce34aa2)\n            /* \"conduit/Conduit.sol\":4335:4369  magicValue = this.execute.selector */\n          swap2\n          pop\n            /* \"conduit/Conduit.sol\":3755:4376  {... */\n          pop\n            /* \"conduit/Conduit.sol\":3602:4376  function execute(ConduitTransfer[] calldata transfers)... */\n          swap3\n          swap2\n          pop\n          pop\n          jump\t// out\n            /* \"conduit/Conduit.sol\":6540:7672  function executeWithBatch1155(... */\n        tag_16:\n            /* \"conduit/Conduit.sol\":6733:6750  bytes4 magicValue */\n          0x00\n            /* \"conduit/Conduit.sol\":1695:1703  caller() */\n          caller\n            /* \"conduit/Conduit.sol\":1671:1693  ChannelKey_channel_ptr */\n          0x00\n            /* \"conduit/Conduit.sol\":1664:1704  mstore(ChannelKey_channel_ptr, caller()) */\n          mstore\n            /* \"conduit/Conduit.sol\":1816:1830  _channels.slot */\n          0x00\n            /* \"conduit/Conduit.sol\":1795:1814  ChannelKey_slot_ptr */\n          0x20\n            /* \"conduit/Conduit.sol\":1788:1831  mstore(ChannelKey_slot_ptr, _channels.slot) */\n          mstore\n            /* \"conduit/Conduit.sol\":2037:2054  ChannelKey_length */\n          0x40\n            /* \"conduit/Conduit.sol\":2013:2035  ChannelKey_channel_ptr */\n          0x00\n            /* \"conduit/Conduit.sol\":2003:2055  keccak256(ChannelKey_channel_ptr, ChannelKey_length) */\n          keccak256\n            /* \"conduit/Conduit.sol\":1997:2056  sload(keccak256(ChannelKey_channel_ptr, ChannelKey_length)) */\n          sload\n            /* \"conduit/Conduit.sol\":1970:2585  if iszero(... */\n          tag_39\n          jumpi\n            /* \"conduit/Conduit.sol\":2267:2296  ChannelClosed_error_signature */\n          0x93daadf200000000000000000000000000000000000000000000000000000000\n            /* \"conduit/Conduit.sol\":2242:2265  ChannelClosed_error_ptr */\n          0x00\n            /* \"conduit/Conduit.sol\":2235:2297  mstore(ChannelClosed_error_ptr, ChannelClosed_error_signature) */\n          mstore\n            /* \"conduit/Conduit.sol\":2406:2414  caller() */\n          caller\n            /* \"conduit/Conduit.sol\":2379:2404  ChannelClosed_channel_ptr */\n          0x04\n            /* \"conduit/Conduit.sol\":2372:2415  mstore(ChannelClosed_channel_ptr, caller()) */\n          mstore\n            /* \"conduit/Conduit.sol\":2544:2570  ChannelClosed_error_length */\n          0x24\n            /* \"conduit/Conduit.sol\":2519:2542  ChannelClosed_error_ptr */\n          0x00\n            /* \"conduit/Conduit.sol\":2512:2571  revert(ChannelClosed_error_ptr, ChannelClosed_error_length) */\n          revert\n            /* \"conduit/Conduit.sol\":1970:2585  if iszero(... */\n        tag_39:\n            /* \"conduit/Conduit.sol\":6836:6866  uint256 totalStandardTransfers */\n          0x00\n            /* \"conduit/Conduit.sol\":6869:6886  standardTransfers */\n          dup6\n          dup6\n            /* \"conduit/Conduit.sol\":6869:6893  standardTransfers.length */\n          swap1\n          pop\n            /* \"conduit/Conduit.sol\":6836:6893  uint256 totalStandardTransfers = standardTransfers.length */\n          swap1\n          pop\n            /* \"conduit/Conduit.sol\":6957:6966  uint256 i */\n          0x00\n            /* \"conduit/Conduit.sol\":6952:7269  for (uint256 i = 0; i < totalStandardTransfers; ) {... */\n        tag_41:\n            /* \"conduit/Conduit.sol\":6976:6998  totalStandardTransfers */\n          dup2\n            /* \"conduit/Conduit.sol\":6972:6973  i */\n          dup2\n            /* \"conduit/Conduit.sol\":6972:6998  i < totalStandardTransfers */\n          lt\n            /* \"conduit/Conduit.sol\":6952:7269  for (uint256 i = 0; i < totalStandardTransfers; ) {... */\n          iszero\n          tag_42\n          jumpi\n            /* \"conduit/Conduit.sol\":7091:7122  _transfer(standardTransfers[i]) */\n          tag_44\n            /* \"conduit/Conduit.sol\":7101:7118  standardTransfers */\n          dup8\n          dup8\n            /* \"conduit/Conduit.sol\":7119:7120  i */\n          dup4\n            /* \"conduit/Conduit.sol\":7101:7121  standardTransfers[i] */\n          dup2\n          dup2\n          lt\n          tag_45\n          jumpi\n          tag_46\n          tag_36\n          jump\t// in\n        tag_46:\n        tag_45:\n          swap1\n          pop\n          0xc0\n          mul\n          add\n            /* \"conduit/Conduit.sol\":7091:7100  _transfer */\n          tag_37\n            /* \"conduit/Conduit.sol\":7091:7122  _transfer(standardTransfers[i]) */\n          jump\t// in\n        tag_44:\n            /* \"conduit/Conduit.sol\":7241:7244  ++i */\n          dup1\n          0x01\n          add\n          swap1\n          pop\n            /* \"conduit/Conduit.sol\":6952:7269  for (uint256 i = 0; i < totalStandardTransfers; ) {... */\n          jump(tag_41)\n        tag_42:\n          pop\n            /* \"conduit/Conduit.sol\":7484:7529  _performERC1155BatchTransfers(batchTransfers) */\n          tag_47\n            /* \"conduit/Conduit.sol\":7514:7528  batchTransfers */\n          dup5\n          dup5\n            /* \"conduit/Conduit.sol\":7484:7513  _performERC1155BatchTransfers */\n          tag_48\n            /* \"conduit/Conduit.sol\":7484:7529  _performERC1155BatchTransfers(batchTransfers) */\n          jump\t// in\n        tag_47:\n            /* \"conduit/Conduit.sol\":7631:7665  this.executeWithBatch1155.selector */\n          shl(0xe0, 0x899e104c)\n            /* \"conduit/Conduit.sol\":7618:7665  magicValue = this.executeWithBatch1155.selector */\n          swap2\n          pop\n            /* \"conduit/Conduit.sol\":6752:7672  {... */\n          pop\n            /* \"conduit/Conduit.sol\":6540:7672  function executeWithBatch1155(... */\n          swap5\n          swap4\n          pop\n          pop\n          pop\n          pop\n          jump\t// out\n            /* \"conduit/Conduit.sol\":5137:5619  function executeBatch1155(... */\n        tag_21:\n            /* \"conduit/Conduit.sol\":5272:5289  bytes4 magicValue */\n          0x00\n            /* \"conduit/Conduit.sol\":1695:1703  caller() */\n          caller\n            /* \"conduit/Conduit.sol\":1671:1693  ChannelKey_channel_ptr */\n          0x00\n            /* \"conduit/Conduit.sol\":1664:1704  mstore(ChannelKey_channel_ptr, caller()) */\n          mstore\n            /* \"conduit/Conduit.sol\":1816:1830  _channels.slot */\n          0x00\n            /* \"conduit/Conduit.sol\":1795:1814  ChannelKey_slot_ptr */\n          0x20\n            /* \"conduit/Conduit.sol\":1788:1831  mstore(ChannelKey_slot_ptr, _channels.slot) */\n          mstore\n            /* \"conduit/Conduit.sol\":2037:2054  ChannelKey_length */\n          0x40\n            /* \"conduit/Conduit.sol\":2013:2035  ChannelKey_channel_ptr */\n          0x00\n            /* \"conduit/Conduit.sol\":2003:2055  keccak256(ChannelKey_channel_ptr, ChannelKey_length) */\n          keccak256\n            /* \"conduit/Conduit.sol\":1997:2056  sload(keccak256(ChannelKey_channel_ptr, ChannelKey_length)) */\n          sload\n            /* \"conduit/Conduit.sol\":1970:2585  if iszero(... */\n          tag_50\n          jumpi\n            /* \"conduit/Conduit.sol\":2267:2296  ChannelClosed_error_signature */\n          0x93daadf200000000000000000000000000000000000000000000000000000000\n            /* \"conduit/Conduit.sol\":2242:2265  ChannelClosed_error_ptr */\n          0x00\n            /* \"conduit/Conduit.sol\":2235:2297  mstore(ChannelClosed_error_ptr, ChannelClosed_error_signature) */\n          mstore\n            /* \"conduit/Conduit.sol\":2406:2414  caller() */\n          caller\n            /* \"conduit/Conduit.sol\":2379:2404  ChannelClosed_channel_ptr */\n          0x04\n            /* \"conduit/Conduit.sol\":2372:2415  mstore(ChannelClosed_channel_ptr, caller()) */\n          mstore\n            /* \"conduit/Conduit.sol\":2544:2570  ChannelClosed_error_length */\n          0x24\n            /* \"conduit/Conduit.sol\":2519:2542  ChannelClosed_error_ptr */\n          0x00\n            /* \"conduit/Conduit.sol\":2512:2571  revert(ChannelClosed_error_ptr, ChannelClosed_error_length) */\n          revert\n            /* \"conduit/Conduit.sol\":1970:2585  if iszero(... */\n        tag_50:\n            /* \"conduit/Conduit.sol\":5435:5480  _performERC1155BatchTransfers(batchTransfers) */\n          tag_52\n            /* \"conduit/Conduit.sol\":5465:5479  batchTransfers */\n          dup4\n          dup4\n            /* \"conduit/Conduit.sol\":5435:5464  _performERC1155BatchTransfers */\n          tag_48\n            /* \"conduit/Conduit.sol\":5435:5480  _performERC1155BatchTransfers(batchTransfers) */\n          jump\t// in\n        tag_52:\n            /* \"conduit/Conduit.sol\":5582:5612  this.executeBatch1155.selector */\n          shl(0xe0, 0x8df25d92)\n            /* \"conduit/Conduit.sol\":5569:5612  magicValue = this.executeBatch1155.selector */\n          swap1\n          pop\n            /* \"conduit/Conduit.sol\":5137:5619  function executeBatch1155(... */\n          swap3\n          swap2\n          pop\n          pop\n          jump\t// out\n            /* \"conduit/Conduit.sol\":7905:8508  function updateChannel(address channel, bool isOpen) external override {... */\n        tag_26:\n            /* \"conduit/Conduit.sol\":8074:8085  _controller */\n          immutable(\"0x8fef2229291b68be841adf029e58b87f39ba144b2d3b0af1760243d0a9bc6a1c\")\n            /* \"conduit/Conduit.sol\":8060:8085  msg.sender != _controller */\n          0xffffffffffffffffffffffffffffffffffffffff\n          and\n            /* \"conduit/Conduit.sol\":8060:8070  msg.sender */\n          caller\n            /* \"conduit/Conduit.sol\":8060:8085  msg.sender != _controller */\n          0xffffffffffffffffffffffffffffffffffffffff\n          and\n          eq\n            /* \"conduit/Conduit.sol\":8056:8138  if (msg.sender != _controller) {... */\n          tag_54\n          jumpi\n            /* \"conduit/Conduit.sol\":8108:8127  InvalidController() */\n          mload(0x40)\n          0x6d5769be00000000000000000000000000000000000000000000000000000000\n          dup2\n          mstore\n          0x04\n          add\n          mload(0x40)\n          dup1\n          swap2\n          sub\n          swap1\n          revert\n            /* \"conduit/Conduit.sol\":8056:8138  if (msg.sender != _controller) {... */\n        tag_54:\n            /* \"conduit/Conduit.sol\":8253:8259  isOpen */\n          dup1\n            /* \"conduit/Conduit.sol\":8231:8259  _channels[channel] == isOpen */\n          iszero\n          iszero\n            /* \"conduit/Conduit.sol\":8231:8240  _channels */\n          0x00\n            /* \"conduit/Conduit.sol\":8231:8249  _channels[channel] */\n          dup1\n            /* \"conduit/Conduit.sol\":8241:8248  channel */\n          dup5\n            /* \"conduit/Conduit.sol\":8231:8249  _channels[channel] */\n          0xffffffffffffffffffffffffffffffffffffffff\n          and\n          0xffffffffffffffffffffffffffffffffffffffff\n          and\n          dup2\n          mstore\n          0x20\n          add\n          swap1\n          dup2\n          mstore\n          0x20\n          add\n          0x00\n          keccak256\n          0x00\n          swap1\n          sload\n          swap1\n          0x0100\n          exp\n          swap1\n          div\n          0xff\n          and\n            /* \"conduit/Conduit.sol\":8231:8259  _channels[channel] == isOpen */\n          iszero\n          iszero\n          sub\n            /* \"conduit/Conduit.sol\":8227:8333  if (_channels[channel] == isOpen) {... */\n          tag_55\n          jumpi\n            /* \"conduit/Conduit.sol\":8306:8313  channel */\n          dup2\n            /* \"conduit/Conduit.sol\":8315:8321  isOpen */\n          dup2\n            /* \"conduit/Conduit.sol\":8282:8322  ChannelStatusAlreadySet(channel, isOpen) */\n          mload(0x40)\n          0x924e341e00000000000000000000000000000000000000000000000000000000\n          dup2\n          mstore\n          0x04\n          add\n          tag_56\n          swap3\n          swap2\n          swap1\n          tag_57\n          jump\t// in\n        tag_56:\n          mload(0x40)\n          dup1\n          swap2\n          sub\n          swap1\n          revert\n            /* \"conduit/Conduit.sol\":8227:8333  if (_channels[channel] == isOpen) {... */\n        tag_55:\n            /* \"conduit/Conduit.sol\":8409:8415  isOpen */\n          dup1\n            /* \"conduit/Conduit.sol\":8388:8397  _channels */\n          0x00\n            /* \"conduit/Conduit.sol\":8388:8406  _channels[channel] */\n          dup1\n            /* \"conduit/Conduit.sol\":8398:8405  channel */\n          dup5\n            /* \"conduit/Conduit.sol\":8388:8406  _channels[channel] */\n          0xffffffffffffffffffffffffffffffffffffffff\n          and\n          0xffffffffffffffffffffffffffffffffffffffff\n          and\n          dup2\n          mstore\n          0x20\n          add\n          swap1\n          dup2\n          mstore\n          0x20\n          add\n          0x00\n          keccak256\n          0x00\n            /* \"conduit/Conduit.sol\":8388:8415  _channels[channel] = isOpen */\n          0x0100\n          exp\n          dup2\n          sload\n          dup2\n          0xff\n          mul\n          not\n          and\n          swap1\n          dup4\n          iszero\n          iszero\n          mul\n          or\n          swap1\n          sstore\n          pop\n            /* \"conduit/Conduit.sol\":8485:8492  channel */\n          dup2\n            /* \"conduit/Conduit.sol\":8470:8501  ChannelUpdated(channel, isOpen) */\n          0xffffffffffffffffffffffffffffffffffffffff\n          and\n          0xae63067d43ac07563b7eb8db6595635fc77f1578a2a5ea06ba91b63e2afa37e2\n            /* \"conduit/Conduit.sol\":8494:8500  isOpen */\n          dup3\n            /* \"conduit/Conduit.sol\":8470:8501  ChannelUpdated(channel, isOpen) */\n          mload(0x40)\n          tag_58\n          swap2\n          swap1\n          tag_59\n          jump\t// in\n        tag_58:\n          mload(0x40)\n          dup1\n          swap2\n          sub\n          swap1\n          log2\n            /* \"conduit/Conduit.sol\":7905:8508  function updateChannel(address channel, bool isOpen) external override {... */\n          pop\n          pop\n          jump\t// out\n            /* \"conduit/Conduit.sol\":8814:10211  function _transfer(ConduitTransfer calldata item) internal {... */\n        tag_37:\n            /* \"conduit/Conduit.sol\":8980:9001  ConduitItemType.ERC20 */\n          0x01\n            /* \"conduit/Conduit.sol\":8963:9001  item.itemType == ConduitItemType.ERC20 */\n          0x03\n          dup2\n          gt\n          iszero\n          tag_61\n          jumpi\n          tag_62\n          tag_63\n          jump\t// in\n        tag_62:\n        tag_61:\n            /* \"conduit/Conduit.sol\":8963:8967  item */\n          dup2\n            /* \"conduit/Conduit.sol\":8963:8976  item.itemType */\n          0x00\n          add\n          0x20\n          dup2\n          add\n          swap1\n          tag_64\n          swap2\n          swap1\n          tag_65\n          jump\t// in\n        tag_64:\n            /* \"conduit/Conduit.sol\":8963:9001  item.itemType == ConduitItemType.ERC20 */\n          0x03\n          dup2\n          gt\n          iszero\n          tag_66\n          jumpi\n          tag_67\n          tag_63\n          jump\t// in\n        tag_67:\n        tag_66:\n          sub\n            /* \"conduit/Conduit.sol\":8959:10205  if (item.itemType == ConduitItemType.ERC20) {... */\n          tag_68\n          jumpi\n            /* \"conduit/Conduit.sol\":9304:9370  _performERC20Transfer(item.token, item.from, item.to, item.amount) */\n          tag_69\n            /* \"conduit/Conduit.sol\":9326:9330  item */\n          dup2\n            /* \"conduit/Conduit.sol\":9326:9336  item.token */\n          0x20\n          add\n          0x20\n          dup2\n          add\n          swap1\n          tag_70\n          swap2\n          swap1\n          tag_71\n          jump\t// in\n        tag_70:\n            /* \"conduit/Conduit.sol\":9338:9342  item */\n          dup3\n            /* \"conduit/Conduit.sol\":9338:9347  item.from */\n          0x40\n          add\n          0x20\n          dup2\n          add\n          swap1\n          tag_72\n          swap2\n          swap1\n          tag_71\n          jump\t// in\n        tag_72:\n            /* \"conduit/Conduit.sol\":9349:9353  item */\n          dup4\n            /* \"conduit/Conduit.sol\":9349:9356  item.to */\n          0x60\n          add\n          0x20\n          dup2\n          add\n          swap1\n          tag_73\n          swap2\n          swap1\n          tag_71\n          jump\t// in\n        tag_73:\n            /* \"conduit/Conduit.sol\":9358:9362  item */\n          dup5\n            /* \"conduit/Conduit.sol\":9358:9369  item.amount */\n          0xa0\n          add\n          calldataload\n            /* \"conduit/Conduit.sol\":9304:9325  _performERC20Transfer */\n          tag_74\n            /* \"conduit/Conduit.sol\":9304:9370  _performERC20Transfer(item.token, item.from, item.to, item.amount) */\n          jump\t// in\n        tag_69:\n            /* \"conduit/Conduit.sol\":8959:10205  if (item.itemType == ConduitItemType.ERC20) {... */\n          jump(tag_75)\n        tag_68:\n            /* \"conduit/Conduit.sol\":9408:9430  ConduitItemType.ERC721 */\n          0x02\n            /* \"conduit/Conduit.sol\":9391:9430  item.itemType == ConduitItemType.ERC721 */\n          0x03\n          dup2\n          gt\n          iszero\n          tag_76\n          jumpi\n          tag_77\n          tag_63\n          jump\t// in\n        tag_77:\n        tag_76:\n            /* \"conduit/Conduit.sol\":9391:9395  item */\n          dup2\n            /* \"conduit/Conduit.sol\":9391:9404  item.itemType */\n          0x00\n          add\n          0x20\n          dup2\n          add\n          swap1\n          tag_78\n          swap2\n          swap1\n          tag_65\n          jump\t// in\n        tag_78:\n            /* \"conduit/Conduit.sol\":9391:9430  item.itemType == ConduitItemType.ERC721 */\n          0x03\n          dup2\n          gt\n          iszero\n          tag_79\n          jumpi\n          tag_80\n          tag_63\n          jump\t// in\n        tag_80:\n        tag_79:\n          sub\n            /* \"conduit/Conduit.sol\":9387:10205  if (item.itemType == ConduitItemType.ERC721) {... */\n          tag_81\n          jumpi\n            /* \"conduit/Conduit.sol\":9535:9536  1 */\n          0x01\n            /* \"conduit/Conduit.sol\":9520:9524  item */\n          dup2\n            /* \"conduit/Conduit.sol\":9520:9531  item.amount */\n          0xa0\n          add\n          calldataload\n            /* \"conduit/Conduit.sol\":9520:9536  item.amount != 1 */\n          eq\n            /* \"conduit/Conduit.sol\":9516:9607  if (item.amount != 1) {... */\n          tag_82\n          jumpi\n            /* \"conduit/Conduit.sol\":9563:9592  InvalidERC721TransferAmount() */\n          mload(0x40)\n          0xefcc00b100000000000000000000000000000000000000000000000000000000\n          dup2\n          mstore\n          0x04\n          add\n          mload(0x40)\n          dup1\n          swap2\n          sub\n          swap1\n          revert\n            /* \"conduit/Conduit.sol\":9516:9607  if (item.amount != 1) {... */\n        tag_82:\n            /* \"conduit/Conduit.sol\":9659:9808  _performERC721Transfer(... */\n          tag_83\n            /* \"conduit/Conduit.sol\":9699:9703  item */\n          dup2\n            /* \"conduit/Conduit.sol\":9699:9709  item.token */\n          0x20\n          add\n          0x20\n          dup2\n          add\n          swap1\n          tag_84\n          swap2\n          swap1\n          tag_71\n          jump\t// in\n        tag_84:\n            /* \"conduit/Conduit.sol\":9727:9731  item */\n          dup3\n            /* \"conduit/Conduit.sol\":9727:9736  item.from */\n          0x40\n          add\n          0x20\n          dup2\n          add\n          swap1\n          tag_85\n          swap2\n          swap1\n          tag_71\n          jump\t// in\n        tag_85:\n            /* \"conduit/Conduit.sol\":9754:9758  item */\n          dup4\n            /* \"conduit/Conduit.sol\":9754:9761  item.to */\n          0x60\n          add\n          0x20\n          dup2\n          add\n          swap1\n          tag_86\n          swap2\n          swap1\n          tag_71\n          jump\t// in\n        tag_86:\n            /* \"conduit/Conduit.sol\":9779:9783  item */\n          dup5\n            /* \"conduit/Conduit.sol\":9779:9794  item.identifier */\n          0x80\n          add\n          calldataload\n            /* \"conduit/Conduit.sol\":9659:9681  _performERC721Transfer */\n          tag_87\n            /* \"conduit/Conduit.sol\":9659:9808  _performERC721Transfer(... */\n          jump\t// in\n        tag_83:\n            /* \"conduit/Conduit.sol\":9387:10205  if (item.itemType == ConduitItemType.ERC721) {... */\n          jump(tag_88)\n        tag_81:\n            /* \"conduit/Conduit.sol\":9846:9869  ConduitItemType.ERC1155 */\n          0x03\n            /* \"conduit/Conduit.sol\":9829:9869  item.itemType == ConduitItemType.ERC1155 */\n          dup1\n          dup2\n          gt\n          iszero\n          tag_89\n          jumpi\n          tag_90\n          tag_63\n          jump\t// in\n        tag_90:\n        tag_89:\n            /* \"conduit/Conduit.sol\":9829:9833  item */\n          dup2\n            /* \"conduit/Conduit.sol\":9829:9842  item.itemType */\n          0x00\n          add\n          0x20\n          dup2\n          add\n          swap1\n          tag_91\n          swap2\n          swap1\n          tag_65\n          jump\t// in\n        tag_91:\n            /* \"conduit/Conduit.sol\":9829:9869  item.itemType == ConduitItemType.ERC1155 */\n          0x03\n          dup2\n          gt\n          iszero\n          tag_92\n          jumpi\n          tag_93\n          tag_63\n          jump\t// in\n        tag_93:\n        tag_92:\n          sub\n            /* \"conduit/Conduit.sol\":9825:10205  if (item.itemType == ConduitItemType.ERC1155) {... */\n          tag_94\n          jumpi\n            /* \"conduit/Conduit.sol\":9924:10103  _performERC1155Transfer(... */\n          tag_95\n            /* \"conduit/Conduit.sol\":9965:9969  item */\n          dup2\n            /* \"conduit/Conduit.sol\":9965:9975  item.token */\n          0x20\n          add\n          0x20\n          dup2\n          add\n          swap1\n          tag_96\n          swap2\n          swap1\n          tag_71\n          jump\t// in\n        tag_96:\n            /* \"conduit/Conduit.sol\":9993:9997  item */\n          dup3\n            /* \"conduit/Conduit.sol\":9993:10002  item.from */\n          0x40\n          add\n          0x20\n          dup2\n          add\n          swap1\n          tag_97\n          swap2\n          swap1\n          tag_71\n          jump\t// in\n        tag_97:\n            /* \"conduit/Conduit.sol\":10020:10024  item */\n          dup4\n            /* \"conduit/Conduit.sol\":10020:10027  item.to */\n          0x60\n          add\n          0x20\n          dup2\n          add\n          swap1\n          tag_98\n          swap2\n          swap1\n          tag_71\n          jump\t// in\n        tag_98:\n            /* \"conduit/Conduit.sol\":10045:10049  item */\n          dup5\n            /* \"conduit/Conduit.sol\":10045:10060  item.identifier */\n          0x80\n          add\n          calldataload\n            /* \"conduit/Conduit.sol\":10078:10082  item */\n          dup6\n            /* \"conduit/Conduit.sol\":10078:10089  item.amount */\n          0xa0\n          add\n          calldataload\n            /* \"conduit/Conduit.sol\":9924:9947  _performERC1155Transfer */\n          tag_99\n            /* \"conduit/Conduit.sol\":9924:10103  _performERC1155Transfer(... */\n          jump\t// in\n        tag_95:\n            /* \"conduit/Conduit.sol\":9825:10205  if (item.itemType == ConduitItemType.ERC1155) {... */\n          jump(tag_100)\n        tag_94:\n            /* \"conduit/Conduit.sol\":10177:10194  InvalidItemType() */\n          mload(0x40)\n          0x7932f1fc00000000000000000000000000000000000000000000000000000000\n          dup2\n          mstore\n          0x04\n          add\n          mload(0x40)\n          dup1\n          swap2\n          sub\n          swap1\n          revert\n            /* \"conduit/Conduit.sol\":9825:10205  if (item.itemType == ConduitItemType.ERC1155) {... */\n        tag_100:\n            /* \"conduit/Conduit.sol\":9387:10205  if (item.itemType == ConduitItemType.ERC721) {... */\n        tag_88:\n            /* \"conduit/Conduit.sol\":8959:10205  if (item.itemType == ConduitItemType.ERC20) {... */\n        tag_75:\n            /* \"conduit/Conduit.sol\":8814:10211  function _transfer(ConduitTransfer calldata item) internal {... */\n          pop\n          jump\t// out\n            /* \"lib/TokenTransferrer.sol\":23697:35180  function _performERC1155BatchTransfers(... */\n        tag_48:\n            /* \"lib/TokenTransferrer.sol\":23926:23947  batchTransfers.length */\n          dup1\n            /* \"lib/TokenTransferrer.sol\":24213:24234  batchTransfers.offset */\n          dup3\n            /* \"lib/TokenTransferrer.sol\":24493:24511  nextElementHeadPtr */\n          dup1\n            /* \"lib/TokenTransferrer.sol\":24763:24802  ERC1155_safeBatchTransferFrom_signature */\n          0x2eb2c2d600000000000000000000000000000000000000000000000000000000\n            /* \"lib/TokenTransferrer.sol\":24709:24745  ConduitBatch1155Transfer_from_offset */\n          0x20\n            /* \"lib/TokenTransferrer.sol\":24685:24816  mstore(... */\n          mstore\n            /* \"lib/TokenTransferrer.sol\":24910:24911  0 */\n          0x00\n            /* \"lib/TokenTransferrer.sol\":24879:34775  for {... */\n        tag_102:\n            /* \"lib/TokenTransferrer.sol\":24932:24935  len */\n          dup4\n            /* \"lib/TokenTransferrer.sol\":24929:24930  i */\n          dup2\n            /* \"lib/TokenTransferrer.sol\":24926:24936  lt(i, len) */\n          lt\n            /* \"lib/TokenTransferrer.sol\":24879:34775  for {... */\n          iszero\n          tag_104\n          jumpi\n            /* \"lib/TokenTransferrer.sol\":25311:25329  nextElementHeadPtr */\n          dup3\n            /* \"lib/TokenTransferrer.sol\":25298:25330  calldataload(nextElementHeadPtr) */\n          calldataload\n            /* \"lib/TokenTransferrer.sol\":25264:25276  arrayHeadPtr */\n          dup3\n            /* \"lib/TokenTransferrer.sol\":25239:25348  add(... */\n          add\n            /* \"lib/TokenTransferrer.sol\":25445:25455  elementPtr */\n          dup1\n            /* \"lib/TokenTransferrer.sol\":25432:25456  calldataload(elementPtr) */\n          calldataload\n            /* \"lib/TokenTransferrer.sol\":25549:25554  token */\n          dup1\n            /* \"lib/TokenTransferrer.sol\":25537:25555  extcodesize(token) */\n          extcodesize\n            /* \"lib/TokenTransferrer.sol\":25527:25797  if iszero(extcodesize(token)) {... */\n          tag_105\n          jumpi\n            /* \"lib/TokenTransferrer.sol\":25612:25638  NoContract_error_signature */\n          0x5f15d67200000000000000000000000000000000000000000000000000000000\n            /* \"lib/TokenTransferrer.sol\":25586:25610  NoContract_error_sig_ptr */\n          0x00\n            /* \"lib/TokenTransferrer.sol\":25579:25639  mstore(NoContract_error_sig_ptr, NoContract_error_signature) */\n          mstore\n            /* \"lib/TokenTransferrer.sol\":25695:25700  token */\n          dup1\n            /* \"lib/TokenTransferrer.sol\":25667:25693  NoContract_error_token_ptr */\n          0x04\n            /* \"lib/TokenTransferrer.sol\":25660:25701  mstore(NoContract_error_token_ptr, token) */\n          mstore\n            /* \"lib/TokenTransferrer.sol\":25755:25778  NoContract_error_length */\n          0x24\n            /* \"lib/TokenTransferrer.sol\":25729:25753  NoContract_error_sig_ptr */\n          0x00\n            /* \"lib/TokenTransferrer.sol\":25722:25779  revert(NoContract_error_sig_ptr, NoContract_error_length) */\n          revert\n            /* \"lib/TokenTransferrer.sol\":25527:25797  if iszero(extcodesize(token)) {... */\n        tag_105:\n            /* \"lib/TokenTransferrer.sol\":25939:25981  ConduitBatch1155Transfer_ids_length_offset */\n          0xa0\n            /* \"lib/TokenTransferrer.sol\":25927:25937  elementPtr */\n          dup3\n            /* \"lib/TokenTransferrer.sol\":25923:25982  add(elementPtr, ConduitBatch1155Transfer_ids_length_offset) */\n          add\n            /* \"lib/TokenTransferrer.sol\":25889:26000  calldataload(... */\n          calldataload\n            /* \"lib/TokenTransferrer.sol\":26231:26238  OneWord */\n          0x20\n            /* \"lib/TokenTransferrer.sol\":26220:26229  idsLength */\n          dup2\n            /* \"lib/TokenTransferrer.sol\":26216:26239  mul(idsLength, OneWord) */\n          mul\n            /* \"lib/TokenTransferrer.sol\":26144:26194  ConduitBatch1155Transfer_amounts_length_baseOffset */\n          0xc0\n            /* \"lib/TokenTransferrer.sol\":26119:26257  add(... */\n          add\n            /* \"lib/TokenTransferrer.sol\":27544:27565  expectedAmountsOffset */\n          dup1\n            /* \"lib/TokenTransferrer.sol\":27398:27438  ConduitBatchTransfer_amounts_head_offset */\n          0x80\n            /* \"lib/TokenTransferrer.sol\":27346:27356  elementPtr */\n          dup6\n            /* \"lib/TokenTransferrer.sol\":27301:27476  add(... */\n          add\n            /* \"lib/TokenTransferrer.sol\":27251:27510  calldataload(... */\n          calldataload\n            /* \"lib/TokenTransferrer.sol\":27215:27595  eq(... */\n          eq\n            /* \"lib/TokenTransferrer.sol\":27043:27085  ConduitBatch1155Transfer_ids_length_offset */\n          0xa0\n            /* \"lib/TokenTransferrer.sol\":26897:26937  ConduitBatch1155Transfer_ids_head_offset */\n          0x60\n            /* \"lib/TokenTransferrer.sol\":26845:26855  elementPtr */\n          dup7\n            /* \"lib/TokenTransferrer.sol\":26800:26975  add(... */\n          add\n            /* \"lib/TokenTransferrer.sol\":26750:27009  calldataload(... */\n          calldataload\n            /* \"lib/TokenTransferrer.sol\":26714:27115  eq(... */\n          eq\n            /* \"lib/TokenTransferrer.sol\":26631:27621  and(... */\n          and\n            /* \"lib/TokenTransferrer.sol\":26556:26577  expectedAmountsOffset */\n          dup2\n            /* \"lib/TokenTransferrer.sol\":26544:26554  elementPtr */\n          dup6\n            /* \"lib/TokenTransferrer.sol\":26540:26578  add(elementPtr, expectedAmountsOffset) */\n          add\n            /* \"lib/TokenTransferrer.sol\":26527:26579  calldataload(add(elementPtr, expectedAmountsOffset)) */\n          calldataload\n            /* \"lib/TokenTransferrer.sol\":26488:26497  idsLength */\n          dup4\n            /* \"lib/TokenTransferrer.sol\":26456:26605  eq(... */\n          eq\n            /* \"lib/TokenTransferrer.sol\":26371:27643  and(... */\n          and\n            /* \"lib/TokenTransferrer.sol\":26343:27661  iszero(... */\n          iszero\n            /* \"lib/TokenTransferrer.sol\":27752:27767  invalidEncoding */\n          dup1\n            /* \"lib/TokenTransferrer.sol\":27749:28141  if invalidEncoding {... */\n          iszero\n          tag_106\n          jumpi\n            /* \"lib/TokenTransferrer.sol\":27884:27925  Invalid1155BatchTransferEncoding_selector */\n          0xeba2084c00000000000000000000000000000000000000000000000000000000\n            /* \"lib/TokenTransferrer.sol\":27822:27858  Invalid1155BatchTransferEncoding_ptr */\n          0x00\n            /* \"lib/TokenTransferrer.sol\":27790:27947  mstore(... */\n          mstore\n            /* \"lib/TokenTransferrer.sol\":28062:28101  Invalid1155BatchTransferEncoding_length */\n          0x04\n            /* \"lib/TokenTransferrer.sol\":28000:28036  Invalid1155BatchTransferEncoding_ptr */\n          0x00\n            /* \"lib/TokenTransferrer.sol\":27968:28123  revert(... */\n          revert\n            /* \"lib/TokenTransferrer.sol\":27749:28141  if invalidEncoding {... */\n        tag_106:\n            /* \"lib/TokenTransferrer.sol\":28269:28276  OneWord */\n          0x20\n            /* \"lib/TokenTransferrer.sol\":28249:28267  nextElementHeadPtr */\n          dup9\n            /* \"lib/TokenTransferrer.sol\":28245:28277  add(nextElementHeadPtr, OneWord) */\n          add\n            /* \"lib/TokenTransferrer.sol\":28223:28277  nextElementHeadPtr := add(nextElementHeadPtr, OneWord) */\n          swap8\n          pop\n            /* \"lib/TokenTransferrer.sol\":28532:28573  ConduitBatch1155Transfer_usable_head_size */\n          0x80\n            /* \"lib/TokenTransferrer.sol\":28473:28509  ConduitBatch1155Transfer_from_offset */\n          0x20\n            /* \"lib/TokenTransferrer.sol\":28461:28471  elementPtr */\n          dup7\n            /* \"lib/TokenTransferrer.sol\":28457:28510  add(elementPtr, ConduitBatch1155Transfer_from_offset) */\n          add\n            /* \"lib/TokenTransferrer.sol\":28408:28435  BatchTransfer1155Params_ptr */\n          0x24\n            /* \"lib/TokenTransferrer.sol\":28374:28591  calldatacopy(... */\n          calldatacopy\n            /* \"lib/TokenTransferrer.sol\":28820:28828  TwoWords */\n          0x40\n            /* \"lib/TokenTransferrer.sol\":28809:28818  idsLength */\n          dup4\n            /* \"lib/TokenTransferrer.sol\":28805:28829  mul(idsLength, TwoWords) */\n          mul\n            /* \"lib/TokenTransferrer.sol\":28795:28803  TwoWords */\n          0x40\n            /* \"lib/TokenTransferrer.sol\":28791:28830  add(TwoWords, mul(idsLength, TwoWords)) */\n          add\n            /* \"lib/TokenTransferrer.sol\":29098:29115  idsAndAmountsSize */\n          dup1\n            /* \"lib/TokenTransferrer.sol\":29031:29072  BatchTransfer1155Params_ids_length_offset */\n          0xa0\n            /* \"lib/TokenTransferrer.sol\":29002:29137  add(... */\n          add\n            /* \"lib/TokenTransferrer.sol\":28943:28980  BatchTransfer1155Params_data_head_ptr */\n          0xa4\n            /* \"lib/TokenTransferrer.sol\":28915:29155  mstore(... */\n          mstore\n            /* \"lib/TokenTransferrer.sol\":29431:29432  0 */\n          0x00\n            /* \"lib/TokenTransferrer.sol\":29370:29387  idsAndAmountsSize */\n          dup2\n            /* \"lib/TokenTransferrer.sol\":29301:29344  BatchTransfer1155Params_data_length_basePtr */\n          0xc4\n            /* \"lib/TokenTransferrer.sol\":29272:29409  add(... */\n          add\n            /* \"lib/TokenTransferrer.sol\":29244:29450  mstore(... */\n          mstore\n            /* \"lib/TokenTransferrer.sol\":29659:29676  idsAndAmountsSize */\n          dup1\n            /* \"lib/TokenTransferrer.sol\":29596:29637  BatchTransfer1155Params_calldata_baseSize */\n          0xc4\n            /* \"lib/TokenTransferrer.sol\":29571:29694  add(... */\n          add\n            /* \"lib/TokenTransferrer.sol\":29966:29983  idsAndAmountsSize */\n          dup2\n            /* \"lib/TokenTransferrer.sol\":29901:29943  ConduitBatch1155Transfer_ids_length_offset */\n          0xa0\n            /* \"lib/TokenTransferrer.sol\":29889:29899  elementPtr */\n          dup9\n            /* \"lib/TokenTransferrer.sol\":29885:29944  add(elementPtr, ConduitBatch1155Transfer_ids_length_offset) */\n          add\n            /* \"lib/TokenTransferrer.sol\":29825:29863  BatchTransfer1155Params_ids_length_ptr */\n          0xc4\n            /* \"lib/TokenTransferrer.sol\":29791:30001  calldatacopy(... */\n          calldatacopy\n            /* \"lib/TokenTransferrer.sol\":30379:30380  0 */\n          0x00\n            /* \"lib/TokenTransferrer.sol\":30356:30357  0 */\n          dup1\n            /* \"lib/TokenTransferrer.sol\":30279:30295  transferDataSize */\n          dup3\n            /* \"lib/TokenTransferrer.sol\":30198:30234  ConduitBatch1155Transfer_from_offset */\n          0x20\n            /* \"lib/TokenTransferrer.sol\":30175:30176  0 */\n          0x00\n            /* \"lib/TokenTransferrer.sol\":30148:30153  token */\n          dup11\n            /* \"lib/TokenTransferrer.sol\":30121:30126  gas() */\n          gas\n            /* \"lib/TokenTransferrer.sol\":30095:30398  call(... */\n          call\n            /* \"lib/TokenTransferrer.sol\":30471:30478  success */\n          dup1\n            /* \"lib/TokenTransferrer.sol\":30461:34761  if iszero(success) {... */\n          tag_107\n          jumpi\n            /* \"lib/TokenTransferrer.sol\":30634:30650  returndatasize() */\n          returndatasize\n            /* \"lib/TokenTransferrer.sol\":30631:33627  if returndatasize() {... */\n          iszero\n          tag_108\n          jumpi\n            /* \"lib/TokenTransferrer.sol\":31106:31113  OneWord */\n          0x20\n            /* \"lib/TokenTransferrer.sol\":31062:31075  AlmostOneWord */\n          0x1f\n            /* \"lib/TokenTransferrer.sol\":31044:31060  returndatasize() */\n          returndatasize\n            /* \"lib/TokenTransferrer.sol\":31040:31076  add(returndatasize(), AlmostOneWord) */\n          add\n            /* \"lib/TokenTransferrer.sol\":31007:31139  div(... */\n          div\n            /* \"lib/TokenTransferrer.sol\":31800:31807  OneWord */\n          0x20\n            /* \"lib/TokenTransferrer.sol\":31782:31798  transferDataSize */\n          dup4\n            /* \"lib/TokenTransferrer.sol\":31778:31808  div(transferDataSize, OneWord) */\n          div\n            /* \"lib/TokenTransferrer.sol\":31936:31951  returnDataWords */\n          dup2\n            /* \"lib/TokenTransferrer.sol\":31923:31934  CostPerWord */\n          0x03\n            /* \"lib/TokenTransferrer.sol\":31919:31952  mul(CostPerWord, returnDataWords) */\n          mul\n            /* \"lib/TokenTransferrer.sol\":32073:32083  msizeWords */\n          dup2\n            /* \"lib/TokenTransferrer.sol\":32056:32071  returnDataWords */\n          dup4\n            /* \"lib/TokenTransferrer.sol\":32053:32084  gt(returnDataWords, msizeWords) */\n          gt\n            /* \"lib/TokenTransferrer.sol\":32050:33029  if gt(returnDataWords, msizeWords) {... */\n          iszero\n          tag_109\n          jumpi\n            /* \"lib/TokenTransferrer.sol\":32875:32901  MemoryExpansionCoefficient */\n          0x0200\n            /* \"lib/TokenTransferrer.sol\":32780:32790  msizeWords */\n          dup3\n            /* \"lib/TokenTransferrer.sol\":32768:32778  msizeWords */\n          dup4\n            /* \"lib/TokenTransferrer.sol\":32764:32791  mul(msizeWords, msizeWords) */\n          mul\n            /* \"lib/TokenTransferrer.sol\":32657:32672  returnDataWords */\n          dup5\n            /* \"lib/TokenTransferrer.sol\":32592:32607  returnDataWords */\n          dup6\n            /* \"lib/TokenTransferrer.sol\":32539:32718  mul(... */\n          mul\n            /* \"lib/TokenTransferrer.sol\":32490:32833  sub(... */\n          sub\n            /* \"lib/TokenTransferrer.sol\":32445:32939  div(... */\n          div\n            /* \"lib/TokenTransferrer.sol\":32358:32369  CostPerWord */\n          0x03\n            /* \"lib/TokenTransferrer.sol\":32305:32315  msizeWords */\n          dup4\n            /* \"lib/TokenTransferrer.sol\":32288:32303  returnDataWords */\n          dup6\n            /* \"lib/TokenTransferrer.sol\":32284:32316  sub(returnDataWords, msizeWords) */\n          sub\n            /* \"lib/TokenTransferrer.sol\":32239:32407  mul(... */\n          mul\n            /* \"lib/TokenTransferrer.sol\":32198:32973  add(... */\n          add\n            /* \"lib/TokenTransferrer.sol\":32160:32164  cost */\n          dup2\n            /* \"lib/TokenTransferrer.sol\":32123:33003  add(... */\n          add\n            /* \"lib/TokenTransferrer.sol\":32115:33003  cost := add(... */\n          swap1\n          pop\n            /* \"lib/TokenTransferrer.sol\":32050:33029  if gt(returnDataWords, msizeWords) {... */\n        tag_109:\n            /* \"lib/TokenTransferrer.sol\":33289:33294  gas() */\n          gas\n            /* \"lib/TokenTransferrer.sol\":33272:33286  ExtraGasBuffer */\n          0x20\n            /* \"lib/TokenTransferrer.sol\":33266:33270  cost */\n          dup3\n            /* \"lib/TokenTransferrer.sol\":33262:33287  add(cost, ExtraGasBuffer) */\n          add\n            /* \"lib/TokenTransferrer.sol\":33259:33295  lt(add(cost, ExtraGasBuffer), gas()) */\n          lt\n            /* \"lib/TokenTransferrer.sol\":33256:33605  if lt(add(cost, ExtraGasBuffer), gas()) {... */\n          iszero\n          tag_110\n          jumpi\n            /* \"lib/TokenTransferrer.sol\":33425:33441  returndatasize() */\n          returndatasize\n            /* \"lib/TokenTransferrer.sol\":33422:33423  0 */\n          0x00\n            /* \"lib/TokenTransferrer.sol\":33419:33420  0 */\n          dup1\n            /* \"lib/TokenTransferrer.sol\":33404:33442  returndatacopy(0, 0, returndatasize()) */\n          returndatacopy\n            /* \"lib/TokenTransferrer.sol\":33562:33578  returndatasize() */\n          returndatasize\n            /* \"lib/TokenTransferrer.sol\":33559:33560  0 */\n          0x00\n            /* \"lib/TokenTransferrer.sol\":33552:33579  revert(0, returndatasize()) */\n          revert\n            /* \"lib/TokenTransferrer.sol\":33256:33605  if lt(add(cost, ExtraGasBuffer), gas()) {... */\n        tag_110:\n            /* \"lib/TokenTransferrer.sol\":30651:33627  {... */\n          pop\n          pop\n          pop\n            /* \"lib/TokenTransferrer.sol\":30631:33627  if returndatasize() {... */\n        tag_108:\n            /* \"lib/TokenTransferrer.sol\":33756:33806  ERC1155BatchTransferGenericFailure_error_signature */\n          0xafc445e200000000000000000000000000000000000000000000000000000000\n            /* \"lib/TokenTransferrer.sol\":33729:33730  0 */\n          0x00\n            /* \"lib/TokenTransferrer.sol\":33697:33828  mstore(... */\n          mstore\n            /* \"lib/TokenTransferrer.sol\":33943:33948  token */\n          dup7\n            /* \"lib/TokenTransferrer.sol\":33897:33941  ERC1155BatchTransferGenericFailure_token_ptr */\n          0x04\n            /* \"lib/TokenTransferrer.sol\":33890:33949  mstore(ERC1155BatchTransferGenericFailure_token_ptr, token) */\n          mstore\n            /* \"lib/TokenTransferrer.sol\":34122:34167  ERC1155BatchTransferGenericFailure_ids_offset */\n          0xc0\n            /* \"lib/TokenTransferrer.sol\":34060:34096  BatchTransfer1155Params_ids_head_ptr */\n          0x64\n            /* \"lib/TokenTransferrer.sol\":34028:34189  mstore(... */\n          mstore\n            /* \"lib/TokenTransferrer.sol\":34446:34486  BatchTransfer1155Params_amounts_head_ptr */\n          0x84\n            /* \"lib/TokenTransferrer.sol\":34440:34487  mload(BatchTransfer1155Params_amounts_head_ptr) */\n          mload\n            /* \"lib/TokenTransferrer.sol\":34403:34410  OneWord */\n          0x20\n            /* \"lib/TokenTransferrer.sol\":34370:34513  add(... */\n          add\n            /* \"lib/TokenTransferrer.sol\":34304:34344  BatchTransfer1155Params_amounts_head_ptr */\n          0x84\n            /* \"lib/TokenTransferrer.sol\":34272:34535  mstore(... */\n          mstore\n            /* \"lib/TokenTransferrer.sol\":34726:34742  transferDataSize */\n          dup2\n            /* \"lib/TokenTransferrer.sol\":34723:34724  0 */\n          0x00\n            /* \"lib/TokenTransferrer.sol\":34716:34743  revert(0, transferDataSize) */\n          revert\n            /* \"lib/TokenTransferrer.sol\":30461:34761  if iszero(success) {... */\n        tag_107:\n            /* \"lib/TokenTransferrer.sol\":24984:34775  {... */\n          pop\n          pop\n          pop\n          pop\n          pop\n          pop\n          pop\n          pop\n            /* \"lib/TokenTransferrer.sol\":24967:24968  1 */\n          0x01\n            /* \"lib/TokenTransferrer.sol\":24964:24965  i */\n          dup2\n            /* \"lib/TokenTransferrer.sol\":24960:24969  add(i, 1) */\n          add\n            /* \"lib/TokenTransferrer.sol\":24955:24969  i := add(i, 1) */\n          swap1\n          pop\n            /* \"lib/TokenTransferrer.sol\":24879:34775  for {... */\n          jump(tag_102)\n        tag_104:\n            /* \"lib/TokenTransferrer.sol\":24883:24925  {... */\n          pop\n            /* \"lib/TokenTransferrer.sol\":35139:35163  DefaultFreeMemoryPointer */\n          0x80\n            /* \"lib/TokenTransferrer.sol\":35116:35137  FreeMemoryPointerSlot */\n          0x40\n            /* \"lib/TokenTransferrer.sol\":35109:35164  mstore(FreeMemoryPointerSlot, DefaultFreeMemoryPointer) */\n          mstore\n            /* \"lib/TokenTransferrer.sol\":23901:35174  {... */\n          pop\n          pop\n          pop\n            /* \"lib/TokenTransferrer.sol\":23697:35180  function _performERC1155BatchTransfers(... */\n          pop\n          pop\n          jump\t// out\n            /* \"lib/TokenTransferrer.sol\":1345:10960  function _performERC20Transfer(... */\n        tag_74:\n            /* \"lib/TokenTransferrer.sol\":1771:1792  FreeMemoryPointerSlot */\n          0x40\n            /* \"lib/TokenTransferrer.sol\":1765:1793  mload(FreeMemoryPointerSlot) */\n          mload\n            /* \"lib/TokenTransferrer.sol\":1919:1947  ERC20_transferFrom_signature */\n          0x23b872dd00000000000000000000000000000000000000000000000000000000\n            /* \"lib/TokenTransferrer.sol\":1891:1917  ERC20_transferFrom_sig_ptr */\n          0x00\n            /* \"lib/TokenTransferrer.sol\":1884:1948  mstore(ERC20_transferFrom_sig_ptr, ERC20_transferFrom_signature) */\n          mstore\n            /* \"lib/TokenTransferrer.sol\":1997:2001  from */\n          dup4\n            /* \"lib/TokenTransferrer.sol\":1968:1995  ERC20_transferFrom_from_ptr */\n          0x04\n            /* \"lib/TokenTransferrer.sol\":1961:2002  mstore(ERC20_transferFrom_from_ptr, from) */\n          mstore\n            /* \"lib/TokenTransferrer.sol\":2049:2051  to */\n          dup3\n            /* \"lib/TokenTransferrer.sol\":2022:2047  ERC20_transferFrom_to_ptr */\n          0x24\n            /* \"lib/TokenTransferrer.sol\":2015:2052  mstore(ERC20_transferFrom_to_ptr, to) */\n          mstore\n            /* \"lib/TokenTransferrer.sol\":2103:2109  amount */\n          dup2\n            /* \"lib/TokenTransferrer.sol\":2072:2101  ERC20_transferFrom_amount_ptr */\n          0x44\n            /* \"lib/TokenTransferrer.sol\":2065:2110  mstore(ERC20_transferFrom_amount_ptr, amount) */\n          mstore\n            /* \"lib/TokenTransferrer.sol\":2797:2804  OneWord */\n          0x20\n            /* \"lib/TokenTransferrer.sol\":2778:2779  0 */\n          0x00\n            /* \"lib/TokenTransferrer.sol\":2735:2760  ERC20_transferFrom_length */\n          0x64\n            /* \"lib/TokenTransferrer.sol\":2691:2717  ERC20_transferFrom_sig_ptr */\n          0x00\n            /* \"lib/TokenTransferrer.sol\":2672:2673  0 */\n          dup1\n            /* \"lib/TokenTransferrer.sol\":2649:2654  token */\n          dup10\n            /* \"lib/TokenTransferrer.sol\":2626:2631  gas() */\n          gas\n            /* \"lib/TokenTransferrer.sol\":2604:2818  call(... */\n          call\n            /* \"lib/TokenTransferrer.sol\":3295:3305  callStatus */\n          dup1\n            /* \"lib/TokenTransferrer.sol\":3242:3258  returndatasize() */\n          returndatasize\n            /* \"lib/TokenTransferrer.sol\":3235:3259  iszero(returndatasize()) */\n          iszero\n            /* \"lib/TokenTransferrer.sol\":3209:3211  31 */\n          0x1f\n            /* \"lib/TokenTransferrer.sol\":3191:3207  returndatasize() */\n          returndatasize\n            /* \"lib/TokenTransferrer.sol\":3188:3212  gt(returndatasize(), 31) */\n          gt\n            /* \"lib/TokenTransferrer.sol\":3184:3185  1 */\n          0x01\n            /* \"lib/TokenTransferrer.sol\":3180:3181  0 */\n          0x00\n            /* \"lib/TokenTransferrer.sol\":3174:3182  mload(0) */\n          mload\n            /* \"lib/TokenTransferrer.sol\":3171:3186  eq(mload(0), 1) */\n          eq\n            /* \"lib/TokenTransferrer.sol\":3167:3213  and(eq(mload(0), 1), gt(returndatasize(), 31)) */\n          and\n            /* \"lib/TokenTransferrer.sol\":3143:3277  or(... */\n          or\n            /* \"lib/TokenTransferrer.sol\":2927:3319  and(... */\n          and\n            /* \"lib/TokenTransferrer.sol\":3680:3696  returndatasize() */\n          returndatasize\n            /* \"lib/TokenTransferrer.sol\":3673:3697  iszero(returndatasize()) */\n          iszero\n            /* \"lib/TokenTransferrer.sol\":3666:3698  iszero(iszero(returndatasize())) */\n          iszero\n            /* \"lib/TokenTransferrer.sol\":3657:3664  success */\n          dup2\n            /* \"lib/TokenTransferrer.sol\":3653:3699  and(success, iszero(iszero(returndatasize()))) */\n          and\n            /* \"lib/TokenTransferrer.sol\":3643:10753  if iszero(and(success, iszero(iszero(returndatasize())))) {... */\n          tag_112\n          jumpi\n            /* \"lib/TokenTransferrer.sol\":4001:4008  success */\n          dup1\n            /* \"lib/TokenTransferrer.sol\":3991:3996  token */\n          dup8\n            /* \"lib/TokenTransferrer.sol\":3979:3997  extcodesize(token) */\n          extcodesize\n            /* \"lib/TokenTransferrer.sol\":3972:3998  iszero(extcodesize(token)) */\n          iszero\n            /* \"lib/TokenTransferrer.sol\":3965:3999  iszero(iszero(extcodesize(token))) */\n          iszero\n            /* \"lib/TokenTransferrer.sol\":3961:4009  and(iszero(iszero(extcodesize(token))), success) */\n          and\n            /* \"lib/TokenTransferrer.sol\":3951:10533  if iszero(and(iszero(iszero(extcodesize(token))), success)) {... */\n          tag_113\n          jumpi\n            /* \"lib/TokenTransferrer.sol\":4090:4097  success */\n          dup1\n            /* \"lib/TokenTransferrer.sol\":4080:10212  if iszero(success) {... */\n          tag_114\n          jumpi\n            /* \"lib/TokenTransferrer.sol\":4189:4199  callStatus */\n          dup2\n            /* \"lib/TokenTransferrer.sol\":4179:8938  if iszero(callStatus) {... */\n          tag_115\n          jumpi\n            /* \"lib/TokenTransferrer.sol\":4379:4395  returndatasize() */\n          returndatasize\n            /* \"lib/TokenTransferrer.sol\":4376:7698  if returndatasize() {... */\n          iszero\n          tag_116\n          jumpi\n            /* \"lib/TokenTransferrer.sol\":4946:4953  OneWord */\n          0x20\n            /* \"lib/TokenTransferrer.sol\":4894:4907  AlmostOneWord */\n          0x1f\n            /* \"lib/TokenTransferrer.sol\":4876:4892  returndatasize() */\n          returndatasize\n            /* \"lib/TokenTransferrer.sol\":4872:4908  add(returndatasize(), AlmostOneWord) */\n          add\n            /* \"lib/TokenTransferrer.sol\":4831:4987  div(... */\n          div\n            /* \"lib/TokenTransferrer.sol\":5352:5359  OneWord */\n          0x20\n            /* \"lib/TokenTransferrer.sol\":5340:5350  memPointer */\n          dup5\n            /* \"lib/TokenTransferrer.sol\":5336:5360  div(memPointer, OneWord) */\n          div\n            /* \"lib/TokenTransferrer.sol\":5504:5519  returnDataWords */\n          dup2\n            /* \"lib/TokenTransferrer.sol\":5491:5502  CostPerWord */\n          0x03\n            /* \"lib/TokenTransferrer.sol\":5487:5520  mul(CostPerWord, returnDataWords) */\n          mul\n            /* \"lib/TokenTransferrer.sol\":5657:5667  msizeWords */\n          dup2\n            /* \"lib/TokenTransferrer.sol\":5640:5655  returnDataWords */\n          dup4\n            /* \"lib/TokenTransferrer.sol\":5637:5668  gt(returnDataWords, msizeWords) */\n          gt\n            /* \"lib/TokenTransferrer.sol\":5634:6927  if gt(returnDataWords, msizeWords) {... */\n          iszero\n          tag_117\n          jumpi\n            /* \"lib/TokenTransferrer.sol\":6741:6767  MemoryExpansionCoefficient */\n          0x0200\n            /* \"lib/TokenTransferrer.sol\":6630:6640  msizeWords */\n          dup3\n            /* \"lib/TokenTransferrer.sol\":6618:6628  msizeWords */\n          dup4\n            /* \"lib/TokenTransferrer.sol\":6614:6641  mul(msizeWords, msizeWords) */\n          mul\n            /* \"lib/TokenTransferrer.sol\":6491:6506  returnDataWords */\n          dup5\n            /* \"lib/TokenTransferrer.sol\":6418:6433  returnDataWords */\n          dup6\n            /* \"lib/TokenTransferrer.sol\":6357:6560  mul(... */\n          mul\n            /* \"lib/TokenTransferrer.sol\":6300:6691  sub(... */\n          sub\n            /* \"lib/TokenTransferrer.sol\":6247:6813  div(... */\n          div\n            /* \"lib/TokenTransferrer.sol\":6144:6155  CostPerWord */\n          0x03\n            /* \"lib/TokenTransferrer.sol\":6034:6044  msizeWords */\n          dup4\n            /* \"lib/TokenTransferrer.sol\":5965:5980  returnDataWords */\n          dup6\n            /* \"lib/TokenTransferrer.sol\":5908:6094  sub(... */\n          sub\n            /* \"lib/TokenTransferrer.sol\":5855:6201  mul(... */\n          mul\n            /* \"lib/TokenTransferrer.sol\":5806:6855  add(... */\n          add\n            /* \"lib/TokenTransferrer.sol\":5760:5764  cost */\n          dup2\n            /* \"lib/TokenTransferrer.sol\":5715:6893  add(... */\n          add\n            /* \"lib/TokenTransferrer.sol\":5707:6893  cost := add(... */\n          swap1\n          pop\n            /* \"lib/TokenTransferrer.sol\":5634:6927  if gt(returnDataWords, msizeWords) {... */\n        tag_117:\n            /* \"lib/TokenTransferrer.sol\":7219:7224  gas() */\n          gas\n            /* \"lib/TokenTransferrer.sol\":7202:7216  ExtraGasBuffer */\n          0x20\n            /* \"lib/TokenTransferrer.sol\":7196:7200  cost */\n          dup3\n            /* \"lib/TokenTransferrer.sol\":7192:7217  add(cost, ExtraGasBuffer) */\n          add\n            /* \"lib/TokenTransferrer.sol\":7189:7225  lt(add(cost, ExtraGasBuffer), gas()) */\n          lt\n            /* \"lib/TokenTransferrer.sol\":7186:7668  if lt(add(cost, ExtraGasBuffer), gas()) {... */\n          iszero\n          tag_118\n          jumpi\n            /* \"lib/TokenTransferrer.sol\":7417:7433  returndatasize() */\n          returndatasize\n            /* \"lib/TokenTransferrer.sol\":7414:7415  0 */\n          0x00\n            /* \"lib/TokenTransferrer.sol\":7411:7412  0 */\n          dup1\n            /* \"lib/TokenTransferrer.sol\":7396:7434  returndatacopy(0, 0, returndatasize()) */\n          returndatacopy\n            /* \"lib/TokenTransferrer.sol\":7617:7633  returndatasize() */\n          returndatasize\n            /* \"lib/TokenTransferrer.sol\":7614:7615  0 */\n          0x00\n            /* \"lib/TokenTransferrer.sol\":7607:7634  revert(0, returndatasize()) */\n          revert\n            /* \"lib/TokenTransferrer.sol\":7186:7668  if lt(add(cost, ExtraGasBuffer), gas()) {... */\n        tag_118:\n            /* \"lib/TokenTransferrer.sol\":4396:7698  {... */\n          pop\n          pop\n          pop\n            /* \"lib/TokenTransferrer.sol\":4376:7698  if returndatasize() {... */\n        tag_116:\n            /* \"lib/TokenTransferrer.sol\":7921:7964  TokenTransferGenericFailure_error_signature */\n          0xf486bc8700000000000000000000000000000000000000000000000000000000\n            /* \"lib/TokenTransferrer.sol\":7846:7887  TokenTransferGenericFailure_error_sig_ptr */\n          0x00\n            /* \"lib/TokenTransferrer.sol\":7806:7994  mstore(... */\n          mstore\n            /* \"lib/TokenTransferrer.sol\":8140:8145  token */\n          dup7\n            /* \"lib/TokenTransferrer.sol\":8063:8106  TokenTransferGenericFailure_error_token_ptr */\n          0x04\n            /* \"lib/TokenTransferrer.sol\":8023:8175  mstore(... */\n          mstore\n            /* \"lib/TokenTransferrer.sol\":8320:8324  from */\n          dup6\n            /* \"lib/TokenTransferrer.sol\":8244:8286  TokenTransferGenericFailure_error_from_ptr */\n          0x24\n            /* \"lib/TokenTransferrer.sol\":8204:8354  mstore(... */\n          mstore\n            /* \"lib/TokenTransferrer.sol\":8432:8434  to */\n          dup5\n            /* \"lib/TokenTransferrer.sol\":8390:8430  TokenTransferGenericFailure_error_to_ptr */\n          0x44\n            /* \"lib/TokenTransferrer.sol\":8383:8435  mstore(TokenTransferGenericFailure_error_to_ptr, to) */\n          mstore\n            /* \"lib/TokenTransferrer.sol\":8513:8514  0 */\n          0x00\n            /* \"lib/TokenTransferrer.sol\":8471:8511  TokenTransferGenericFailure_error_id_ptr */\n          0x64\n            /* \"lib/TokenTransferrer.sol\":8464:8515  mstore(TokenTransferGenericFailure_error_id_ptr, 0) */\n          mstore\n            /* \"lib/TokenTransferrer.sol\":8662:8668  amount */\n          dup4\n            /* \"lib/TokenTransferrer.sol\":8584:8628  TokenTransferGenericFailure_error_amount_ptr */\n          0x84\n            /* \"lib/TokenTransferrer.sol\":8544:8698  mstore(... */\n          mstore\n            /* \"lib/TokenTransferrer.sol\":8842:8882  TokenTransferGenericFailure_error_length */\n          0xa4\n            /* \"lib/TokenTransferrer.sol\":8767:8808  TokenTransferGenericFailure_error_sig_ptr */\n          0x00\n            /* \"lib/TokenTransferrer.sol\":8727:8912  revert(... */\n          revert\n            /* \"lib/TokenTransferrer.sol\":4179:8938  if iszero(callStatus) {... */\n        tag_115:\n            /* \"lib/TokenTransferrer.sol\":9227:9276  BadReturnValueFromERC20OnTransfer_error_signature */\n          0x9889192300000000000000000000000000000000000000000000000000000000\n            /* \"lib/TokenTransferrer.sol\":9150:9197  BadReturnValueFromERC20OnTransfer_error_sig_ptr */\n          0x00\n            /* \"lib/TokenTransferrer.sol\":9114:9302  mstore(... */\n          mstore\n            /* \"lib/TokenTransferrer.sol\":9442:9447  token */\n          dup7\n            /* \"lib/TokenTransferrer.sol\":9363:9412  BadReturnValueFromERC20OnTransfer_error_token_ptr */\n          0x04\n            /* \"lib/TokenTransferrer.sol\":9327:9473  mstore(... */\n          mstore\n            /* \"lib/TokenTransferrer.sol\":9612:9616  from */\n          dup6\n            /* \"lib/TokenTransferrer.sol\":9534:9582  BadReturnValueFromERC20OnTransfer_error_from_ptr */\n          0x24\n            /* \"lib/TokenTransferrer.sol\":9498:9642  mstore(... */\n          mstore\n            /* \"lib/TokenTransferrer.sol\":9779:9781  to */\n          dup5\n            /* \"lib/TokenTransferrer.sol\":9703:9749  BadReturnValueFromERC20OnTransfer_error_to_ptr */\n          0x44\n            /* \"lib/TokenTransferrer.sol\":9667:9807  mstore(... */\n          mstore\n            /* \"lib/TokenTransferrer.sol\":9948:9954  amount */\n          dup4\n            /* \"lib/TokenTransferrer.sol\":9868:9918  BadReturnValueFromERC20OnTransfer_error_amount_ptr */\n          0x64\n            /* \"lib/TokenTransferrer.sol\":9832:9980  mstore(... */\n          mstore\n            /* \"lib/TokenTransferrer.sol\":10118:10164  BadReturnValueFromERC20OnTransfer_error_length */\n          0x84\n            /* \"lib/TokenTransferrer.sol\":10041:10088  BadReturnValueFromERC20OnTransfer_error_sig_ptr */\n          0x00\n            /* \"lib/TokenTransferrer.sol\":10005:10190  revert(... */\n          revert\n            /* \"lib/TokenTransferrer.sol\":4080:10212  if iszero(success) {... */\n        tag_114:\n            /* \"lib/TokenTransferrer.sol\":10348:10374  NoContract_error_signature */\n          0x5f15d67200000000000000000000000000000000000000000000000000000000\n            /* \"lib/TokenTransferrer.sol\":10322:10346  NoContract_error_sig_ptr */\n          0x00\n            /* \"lib/TokenTransferrer.sol\":10315:10375  mstore(NoContract_error_sig_ptr, NoContract_error_signature) */\n          mstore\n            /* \"lib/TokenTransferrer.sol\":10431:10436  token */\n          dup7\n            /* \"lib/TokenTransferrer.sol\":10403:10429  NoContract_error_token_ptr */\n          0x04\n            /* \"lib/TokenTransferrer.sol\":10396:10437  mstore(NoContract_error_token_ptr, token) */\n          mstore\n            /* \"lib/TokenTransferrer.sol\":10491:10514  NoContract_error_length */\n          0x24\n            /* \"lib/TokenTransferrer.sol\":10465:10489  NoContract_error_sig_ptr */\n          0x00\n            /* \"lib/TokenTransferrer.sol\":10458:10515  revert(NoContract_error_sig_ptr, NoContract_error_length) */\n          revert\n            /* \"lib/TokenTransferrer.sol\":3951:10533  if iszero(and(iszero(iszero(extcodesize(token))), success)) {... */\n        tag_113:\n            /* \"lib/TokenTransferrer.sol\":3643:10753  if iszero(and(success, iszero(iszero(returndatasize())))) {... */\n        tag_112:\n            /* \"lib/TokenTransferrer.sol\":10854:10864  memPointer */\n          dup3\n            /* \"lib/TokenTransferrer.sol\":10831:10852  FreeMemoryPointerSlot */\n          0x40\n            /* \"lib/TokenTransferrer.sol\":10824:10865  mstore(FreeMemoryPointerSlot, memPointer) */\n          mstore\n            /* \"lib/TokenTransferrer.sol\":10942:10943  0 */\n          0x00\n            /* \"lib/TokenTransferrer.sol\":10932:10940  ZeroSlot */\n          0x60\n            /* \"lib/TokenTransferrer.sol\":10925:10944  mstore(ZeroSlot, 0) */\n          mstore\n            /* \"lib/TokenTransferrer.sol\":1573:10954  {... */\n          pop\n          pop\n          pop\n            /* \"lib/TokenTransferrer.sol\":1345:10960  function _performERC20Transfer(... */\n          pop\n          pop\n          pop\n          pop\n          jump\t// out\n            /* \"lib/TokenTransferrer.sol\":11564:16478  function _performERC721Transfer(... */\n        tag_87:\n            /* \"lib/TokenTransferrer.sol\":11883:11888  token */\n          dup4\n            /* \"lib/TokenTransferrer.sol\":11871:11889  extcodesize(token) */\n          extcodesize\n            /* \"lib/TokenTransferrer.sol\":11861:12115  if iszero(extcodesize(token)) {... */\n          tag_120\n          jumpi\n            /* \"lib/TokenTransferrer.sol\":11942:11968  NoContract_error_signature */\n          0x5f15d67200000000000000000000000000000000000000000000000000000000\n            /* \"lib/TokenTransferrer.sol\":11916:11940  NoContract_error_sig_ptr */\n          0x00\n            /* \"lib/TokenTransferrer.sol\":11909:11969  mstore(NoContract_error_sig_ptr, NoContract_error_signature) */\n          mstore\n            /* \"lib/TokenTransferrer.sol\":12021:12026  token */\n          dup4\n            /* \"lib/TokenTransferrer.sol\":11993:12019  NoContract_error_token_ptr */\n          0x04\n            /* \"lib/TokenTransferrer.sol\":11986:12027  mstore(NoContract_error_token_ptr, token) */\n          mstore\n            /* \"lib/TokenTransferrer.sol\":12077:12100  NoContract_error_length */\n          0x24\n            /* \"lib/TokenTransferrer.sol\":12051:12075  NoContract_error_sig_ptr */\n          0x00\n            /* \"lib/TokenTransferrer.sol\":12044:12101  revert(NoContract_error_sig_ptr, NoContract_error_length) */\n          revert\n            /* \"lib/TokenTransferrer.sol\":11861:12115  if iszero(extcodesize(token)) {... */\n        tag_120:\n            /* \"lib/TokenTransferrer.sol\":12313:12334  FreeMemoryPointerSlot */\n          0x40\n            /* \"lib/TokenTransferrer.sol\":12307:12335  mload(FreeMemoryPointerSlot) */\n          mload\n            /* \"lib/TokenTransferrer.sol\":12459:12488  ERC721_transferFrom_signature */\n          0x23b872dd00000000000000000000000000000000000000000000000000000000\n            /* \"lib/TokenTransferrer.sol\":12430:12457  ERC721_transferFrom_sig_ptr */\n          0x00\n            /* \"lib/TokenTransferrer.sol\":12423:12489  mstore(ERC721_transferFrom_sig_ptr, ERC721_transferFrom_signature) */\n          mstore\n            /* \"lib/TokenTransferrer.sol\":12539:12543  from */\n          dup4\n            /* \"lib/TokenTransferrer.sol\":12509:12537  ERC721_transferFrom_from_ptr */\n          0x04\n            /* \"lib/TokenTransferrer.sol\":12502:12544  mstore(ERC721_transferFrom_from_ptr, from) */\n          mstore\n            /* \"lib/TokenTransferrer.sol\":12592:12594  to */\n          dup3\n            /* \"lib/TokenTransferrer.sol\":12564:12590  ERC721_transferFrom_to_ptr */\n          0x24\n            /* \"lib/TokenTransferrer.sol\":12557:12595  mstore(ERC721_transferFrom_to_ptr, to) */\n          mstore\n            /* \"lib/TokenTransferrer.sol\":12643:12653  identifier */\n          dup2\n            /* \"lib/TokenTransferrer.sol\":12615:12641  ERC721_transferFrom_id_ptr */\n          0x44\n            /* \"lib/TokenTransferrer.sol\":12608:12654  mstore(ERC721_transferFrom_id_ptr, identifier) */\n          mstore\n            /* \"lib/TokenTransferrer.sol\":12933:12934  0 */\n          0x00\n            /* \"lib/TokenTransferrer.sol\":12914:12915  0 */\n          dup1\n            /* \"lib/TokenTransferrer.sol\":12870:12896  ERC721_transferFrom_length */\n          0x64\n            /* \"lib/TokenTransferrer.sol\":12825:12852  ERC721_transferFrom_sig_ptr */\n          0x00\n            /* \"lib/TokenTransferrer.sol\":12806:12807  0 */\n          dup1\n            /* \"lib/TokenTransferrer.sol\":12783:12788  token */\n          dup10\n            /* \"lib/TokenTransferrer.sol\":12760:12765  gas() */\n          gas\n            /* \"lib/TokenTransferrer.sol\":12738:12948  call(... */\n          call\n            /* \"lib/TokenTransferrer.sol\":13013:13020  success */\n          dup1\n            /* \"lib/TokenTransferrer.sol\":13003:16271  if iszero(success) {... */\n          tag_121\n          jumpi\n            /* \"lib/TokenTransferrer.sol\":13164:13180  returndatasize() */\n          returndatasize\n            /* \"lib/TokenTransferrer.sol\":13161:15489  if returndatasize() {... */\n          iszero\n          tag_122\n          jumpi\n            /* \"lib/TokenTransferrer.sol\":13606:13613  OneWord */\n          0x20\n            /* \"lib/TokenTransferrer.sol\":13566:13579  AlmostOneWord */\n          0x1f\n            /* \"lib/TokenTransferrer.sol\":13548:13564  returndatasize() */\n          returndatasize\n            /* \"lib/TokenTransferrer.sol\":13544:13580  add(returndatasize(), AlmostOneWord) */\n          add\n            /* \"lib/TokenTransferrer.sol\":13515:13635  div(... */\n          div\n            /* \"lib/TokenTransferrer.sol\":13917:13924  OneWord */\n          0x20\n            /* \"lib/TokenTransferrer.sol\":13905:13915  memPointer */\n          dup4\n            /* \"lib/TokenTransferrer.sol\":13901:13925  div(memPointer, OneWord) */\n          div\n            /* \"lib/TokenTransferrer.sol\":14045:14060  returnDataWords */\n          dup2\n            /* \"lib/TokenTransferrer.sol\":14032:14043  CostPerWord */\n          0x03\n            /* \"lib/TokenTransferrer.sol\":14028:14061  mul(CostPerWord, returnDataWords) */\n          mul\n            /* \"lib/TokenTransferrer.sol\":14174:14184  msizeWords */\n          dup2\n            /* \"lib/TokenTransferrer.sol\":14157:14172  returnDataWords */\n          dup4\n            /* \"lib/TokenTransferrer.sol\":14154:14185  gt(returnDataWords, msizeWords) */\n          gt\n            /* \"lib/TokenTransferrer.sol\":14151:14920  if gt(returnDataWords, msizeWords) {... */\n          iszero\n          tag_123\n          jumpi\n            /* \"lib/TokenTransferrer.sol\":14782:14808  MemoryExpansionCoefficient */\n          0x0200\n            /* \"lib/TokenTransferrer.sol\":14695:14705  msizeWords */\n          dup3\n            /* \"lib/TokenTransferrer.sol\":14683:14693  msizeWords */\n          dup4\n            /* \"lib/TokenTransferrer.sol\":14679:14706  mul(msizeWords, msizeWords) */\n          mul\n            /* \"lib/TokenTransferrer.sol\":14621:14636  returnDataWords */\n          dup5\n            /* \"lib/TokenTransferrer.sol\":14604:14619  returnDataWords */\n          dup6\n            /* \"lib/TokenTransferrer.sol\":14600:14637  mul(returnDataWords, returnDataWords) */\n          mul\n            /* \"lib/TokenTransferrer.sol\":14555:14744  sub(... */\n          sub\n            /* \"lib/TokenTransferrer.sol\":14514:14842  div(... */\n          div\n            /* \"lib/TokenTransferrer.sol\":14435:14446  CostPerWord */\n          0x03\n            /* \"lib/TokenTransferrer.sol\":14386:14396  msizeWords */\n          dup4\n            /* \"lib/TokenTransferrer.sol\":14369:14384  returnDataWords */\n          dup6\n            /* \"lib/TokenTransferrer.sol\":14365:14397  sub(returnDataWords, msizeWords) */\n          sub\n            /* \"lib/TokenTransferrer.sol\":14324:14480  mul(... */\n          mul\n            /* \"lib/TokenTransferrer.sol\":14287:14872  add(... */\n          add\n            /* \"lib/TokenTransferrer.sol\":14253:14257  cost */\n          dup2\n            /* \"lib/TokenTransferrer.sol\":14220:14898  add(... */\n          add\n            /* \"lib/TokenTransferrer.sol\":14212:14898  cost := add(... */\n          swap1\n          pop\n            /* \"lib/TokenTransferrer.sol\":14151:14920  if gt(returnDataWords, msizeWords) {... */\n        tag_123:\n            /* \"lib/TokenTransferrer.sol\":15164:15169  gas() */\n          gas\n            /* \"lib/TokenTransferrer.sol\":15147:15161  ExtraGasBuffer */\n          0x20\n            /* \"lib/TokenTransferrer.sol\":15141:15145  cost */\n          dup3\n            /* \"lib/TokenTransferrer.sol\":15137:15162  add(cost, ExtraGasBuffer) */\n          add\n            /* \"lib/TokenTransferrer.sol\":15134:15170  lt(add(cost, ExtraGasBuffer), gas()) */\n          lt\n            /* \"lib/TokenTransferrer.sol\":15131:15471  if lt(add(cost, ExtraGasBuffer), gas()) {... */\n          iszero\n          tag_124\n          jumpi\n            /* \"lib/TokenTransferrer.sol\":15299:15315  returndatasize() */\n          returndatasize\n            /* \"lib/TokenTransferrer.sol\":15296:15297  0 */\n          0x00\n            /* \"lib/TokenTransferrer.sol\":15293:15294  0 */\n          dup1\n            /* \"lib/TokenTransferrer.sol\":15278:15316  returndatacopy(0, 0, returndatasize()) */\n          returndatacopy\n            /* \"lib/TokenTransferrer.sol\":15432:15448  returndatasize() */\n          returndatasize\n            /* \"lib/TokenTransferrer.sol\":15429:15430  0 */\n          0x00\n            /* \"lib/TokenTransferrer.sol\":15422:15449  revert(0, returndatasize()) */\n          revert\n            /* \"lib/TokenTransferrer.sol\":15131:15471  if lt(add(cost, ExtraGasBuffer), gas()) {... */\n        tag_124:\n            /* \"lib/TokenTransferrer.sol\":13181:15489  {... */\n          pop\n          pop\n          pop\n            /* \"lib/TokenTransferrer.sol\":13161:15489  if returndatasize() {... */\n        tag_122:\n            /* \"lib/TokenTransferrer.sol\":15664:15707  TokenTransferGenericFailure_error_signature */\n          0xf486bc8700000000000000000000000000000000000000000000000000000000\n            /* \"lib/TokenTransferrer.sol\":15601:15642  TokenTransferGenericFailure_error_sig_ptr */\n          0x00\n            /* \"lib/TokenTransferrer.sol\":15573:15725  mstore(... */\n          mstore\n            /* \"lib/TokenTransferrer.sol\":15794:15799  token */\n          dup6\n            /* \"lib/TokenTransferrer.sol\":15749:15792  TokenTransferGenericFailure_error_token_ptr */\n          0x04\n            /* \"lib/TokenTransferrer.sol\":15742:15800  mstore(TokenTransferGenericFailure_error_token_ptr, token) */\n          mstore\n            /* \"lib/TokenTransferrer.sol\":15868:15872  from */\n          dup5\n            /* \"lib/TokenTransferrer.sol\":15824:15866  TokenTransferGenericFailure_error_from_ptr */\n          0x24\n            /* \"lib/TokenTransferrer.sol\":15817:15873  mstore(TokenTransferGenericFailure_error_from_ptr, from) */\n          mstore\n            /* \"lib/TokenTransferrer.sol\":15939:15941  to */\n          dup4\n            /* \"lib/TokenTransferrer.sol\":15897:15937  TokenTransferGenericFailure_error_to_ptr */\n          0x44\n            /* \"lib/TokenTransferrer.sol\":15890:15942  mstore(TokenTransferGenericFailure_error_to_ptr, to) */\n          mstore\n            /* \"lib/TokenTransferrer.sol\":16008:16018  identifier */\n          dup3\n            /* \"lib/TokenTransferrer.sol\":15966:16006  TokenTransferGenericFailure_error_id_ptr */\n          0x64\n            /* \"lib/TokenTransferrer.sol\":15959:16019  mstore(TokenTransferGenericFailure_error_id_ptr, identifier) */\n          mstore\n            /* \"lib/TokenTransferrer.sol\":16089:16090  1 */\n          0x01\n            /* \"lib/TokenTransferrer.sol\":16043:16087  TokenTransferGenericFailure_error_amount_ptr */\n          0x84\n            /* \"lib/TokenTransferrer.sol\":16036:16091  mstore(TokenTransferGenericFailure_error_amount_ptr, 1) */\n          mstore\n            /* \"lib/TokenTransferrer.sol\":16199:16239  TokenTransferGenericFailure_error_length */\n          0xa4\n            /* \"lib/TokenTransferrer.sol\":16136:16177  TokenTransferGenericFailure_error_sig_ptr */\n          0x00\n            /* \"lib/TokenTransferrer.sol\":16108:16257  revert(... */\n          revert\n            /* \"lib/TokenTransferrer.sol\":13003:16271  if iszero(success) {... */\n        tag_121:\n            /* \"lib/TokenTransferrer.sol\":16372:16382  memPointer */\n          dup2\n            /* \"lib/TokenTransferrer.sol\":16349:16370  FreeMemoryPointerSlot */\n          0x40\n            /* \"lib/TokenTransferrer.sol\":16342:16383  mstore(FreeMemoryPointerSlot, memPointer) */\n          mstore\n            /* \"lib/TokenTransferrer.sol\":16460:16461  0 */\n          0x00\n            /* \"lib/TokenTransferrer.sol\":16450:16458  ZeroSlot */\n          0x60\n            /* \"lib/TokenTransferrer.sol\":16443:16462  mstore(ZeroSlot, 0) */\n          mstore\n            /* \"lib/TokenTransferrer.sol\":11798:16472  {... */\n          pop\n          pop\n            /* \"lib/TokenTransferrer.sol\":11564:16478  function _performERC721Transfer(... */\n          pop\n          pop\n          pop\n          pop\n          jump\t// out\n            /* \"lib/TokenTransferrer.sol\":17126:22746  function _performERC1155Transfer(... */\n        tag_99:\n            /* \"lib/TokenTransferrer.sol\":17471:17476  token */\n          dup5\n            /* \"lib/TokenTransferrer.sol\":17459:17477  extcodesize(token) */\n          extcodesize\n            /* \"lib/TokenTransferrer.sol\":17449:17703  if iszero(extcodesize(token)) {... */\n          tag_126\n          jumpi\n            /* \"lib/TokenTransferrer.sol\":17530:17556  NoContract_error_signature */\n          0x5f15d67200000000000000000000000000000000000000000000000000000000\n            /* \"lib/TokenTransferrer.sol\":17504:17528  NoContract_error_sig_ptr */\n          0x00\n            /* \"lib/TokenTransferrer.sol\":17497:17557  mstore(NoContract_error_sig_ptr, NoContract_error_signature) */\n          mstore\n            /* \"lib/TokenTransferrer.sol\":17609:17614  token */\n          dup5\n            /* \"lib/TokenTransferrer.sol\":17581:17607  NoContract_error_token_ptr */\n          0x04\n            /* \"lib/TokenTransferrer.sol\":17574:17615  mstore(NoContract_error_token_ptr, token) */\n          mstore\n            /* \"lib/TokenTransferrer.sol\":17665:17688  NoContract_error_length */\n          0x24\n            /* \"lib/TokenTransferrer.sol\":17639:17663  NoContract_error_sig_ptr */\n          0x00\n            /* \"lib/TokenTransferrer.sol\":17632:17689  revert(NoContract_error_sig_ptr, NoContract_error_length) */\n          revert\n            /* \"lib/TokenTransferrer.sol\":17449:17703  if iszero(extcodesize(token)) {... */\n        tag_126:\n            /* \"lib/TokenTransferrer.sol\":17895:17916  FreeMemoryPointerSlot */\n          0x40\n            /* \"lib/TokenTransferrer.sol\":17889:17917  mload(FreeMemoryPointerSlot) */\n          mload\n            /* \"lib/TokenTransferrer.sol\":17952:17960  Slot0x80 */\n          0x80\n            /* \"lib/TokenTransferrer.sol\":17946:17961  mload(Slot0x80) */\n          mload\n            /* \"lib/TokenTransferrer.sol\":17996:18004  Slot0xA0 */\n          0xa0\n            /* \"lib/TokenTransferrer.sol\":17990:18005  mload(Slot0xA0) */\n          mload\n            /* \"lib/TokenTransferrer.sol\":18040:18048  Slot0xC0 */\n          0xc0\n            /* \"lib/TokenTransferrer.sol\":18034:18049  mload(Slot0xC0) */\n          mload\n            /* \"lib/TokenTransferrer.sol\":18215:18249  ERC1155_safeTransferFrom_signature */\n          0xf242432a00000000000000000000000000000000000000000000000000000000\n            /* \"lib/TokenTransferrer.sol\":18165:18197  ERC1155_safeTransferFrom_sig_ptr */\n          0x00\n            /* \"lib/TokenTransferrer.sol\":18141:18263  mstore(... */\n          mstore\n            /* \"lib/TokenTransferrer.sol\":18318:18322  from */\n          dup8\n            /* \"lib/TokenTransferrer.sol\":18283:18316  ERC1155_safeTransferFrom_from_ptr */\n          0x04\n            /* \"lib/TokenTransferrer.sol\":18276:18323  mstore(ERC1155_safeTransferFrom_from_ptr, from) */\n          mstore\n            /* \"lib/TokenTransferrer.sol\":18376:18378  to */\n          dup7\n            /* \"lib/TokenTransferrer.sol\":18343:18374  ERC1155_safeTransferFrom_to_ptr */\n          0x24\n            /* \"lib/TokenTransferrer.sol\":18336:18379  mstore(ERC1155_safeTransferFrom_to_ptr, to) */\n          mstore\n            /* \"lib/TokenTransferrer.sol\":18432:18442  identifier */\n          dup6\n            /* \"lib/TokenTransferrer.sol\":18399:18430  ERC1155_safeTransferFrom_id_ptr */\n          0x44\n            /* \"lib/TokenTransferrer.sol\":18392:18443  mstore(ERC1155_safeTransferFrom_id_ptr, identifier) */\n          mstore\n            /* \"lib/TokenTransferrer.sol\":18500:18506  amount */\n          dup5\n            /* \"lib/TokenTransferrer.sol\":18463:18498  ERC1155_safeTransferFrom_amount_ptr */\n          0x64\n            /* \"lib/TokenTransferrer.sol\":18456:18507  mstore(ERC1155_safeTransferFrom_amount_ptr, amount) */\n          mstore\n            /* \"lib/TokenTransferrer.sol\":18602:18645  ERC1155_safeTransferFrom_data_length_offset */\n          0xa0\n            /* \"lib/TokenTransferrer.sol\":18544:18584  ERC1155_safeTransferFrom_data_offset_ptr */\n          0x84\n            /* \"lib/TokenTransferrer.sol\":18520:18659  mstore(... */\n          mstore\n            /* \"lib/TokenTransferrer.sol\":18721:18722  0 */\n          0x00\n            /* \"lib/TokenTransferrer.sol\":18679:18719  ERC1155_safeTransferFrom_data_length_ptr */\n          0xa4\n            /* \"lib/TokenTransferrer.sol\":18672:18723  mstore(ERC1155_safeTransferFrom_data_length_ptr, 0) */\n          mstore\n            /* \"lib/TokenTransferrer.sol\":19012:19013  0 */\n          0x00\n            /* \"lib/TokenTransferrer.sol\":18993:18994  0 */\n          dup1\n            /* \"lib/TokenTransferrer.sol\":18944:18975  ERC1155_safeTransferFrom_length */\n          0xc4\n            /* \"lib/TokenTransferrer.sol\":18894:18926  ERC1155_safeTransferFrom_sig_ptr */\n          0x00\n            /* \"lib/TokenTransferrer.sol\":18875:18876  0 */\n          dup1\n            /* \"lib/TokenTransferrer.sol\":18852:18857  token */\n          dup14\n            /* \"lib/TokenTransferrer.sol\":18829:18834  gas() */\n          gas\n            /* \"lib/TokenTransferrer.sol\":18807:19027  call(... */\n          call\n            /* \"lib/TokenTransferrer.sol\":19092:19099  success */\n          dup1\n            /* \"lib/TokenTransferrer.sol\":19082:22355  if iszero(success) {... */\n          tag_127\n          jumpi\n            /* \"lib/TokenTransferrer.sol\":19243:19259  returndatasize() */\n          returndatasize\n            /* \"lib/TokenTransferrer.sol\":19240:21568  if returndatasize() {... */\n          iszero\n          tag_128\n          jumpi\n            /* \"lib/TokenTransferrer.sol\":19685:19692  OneWord */\n          0x20\n            /* \"lib/TokenTransferrer.sol\":19645:19658  AlmostOneWord */\n          0x1f\n            /* \"lib/TokenTransferrer.sol\":19627:19643  returndatasize() */\n          returndatasize\n            /* \"lib/TokenTransferrer.sol\":19623:19659  add(returndatasize(), AlmostOneWord) */\n          add\n            /* \"lib/TokenTransferrer.sol\":19594:19714  div(... */\n          div\n            /* \"lib/TokenTransferrer.sol\":19996:20003  OneWord */\n          0x20\n            /* \"lib/TokenTransferrer.sol\":19984:19994  memPointer */\n          dup7\n            /* \"lib/TokenTransferrer.sol\":19980:20004  div(memPointer, OneWord) */\n          div\n            /* \"lib/TokenTransferrer.sol\":20124:20139  returnDataWords */\n          dup2\n            /* \"lib/TokenTransferrer.sol\":20111:20122  CostPerWord */\n          0x03\n            /* \"lib/TokenTransferrer.sol\":20107:20140  mul(CostPerWord, returnDataWords) */\n          mul\n            /* \"lib/TokenTransferrer.sol\":20253:20263  msizeWords */\n          dup2\n            /* \"lib/TokenTransferrer.sol\":20236:20251  returnDataWords */\n          dup4\n            /* \"lib/TokenTransferrer.sol\":20233:20264  gt(returnDataWords, msizeWords) */\n          gt\n            /* \"lib/TokenTransferrer.sol\":20230:20999  if gt(returnDataWords, msizeWords) {... */\n          iszero\n          tag_129\n          jumpi\n            /* \"lib/TokenTransferrer.sol\":20861:20887  MemoryExpansionCoefficient */\n          0x0200\n            /* \"lib/TokenTransferrer.sol\":20774:20784  msizeWords */\n          dup3\n            /* \"lib/TokenTransferrer.sol\":20762:20772  msizeWords */\n          dup4\n            /* \"lib/TokenTransferrer.sol\":20758:20785  mul(msizeWords, msizeWords) */\n          mul\n            /* \"lib/TokenTransferrer.sol\":20700:20715  returnDataWords */\n          dup5\n            /* \"lib/TokenTransferrer.sol\":20683:20698  returnDataWords */\n          dup6\n            /* \"lib/TokenTransferrer.sol\":20679:20716  mul(returnDataWords, returnDataWords) */\n          mul\n            /* \"lib/TokenTransferrer.sol\":20634:20823  sub(... */\n          sub\n            /* \"lib/TokenTransferrer.sol\":20593:20921  div(... */\n          div\n            /* \"lib/TokenTransferrer.sol\":20514:20525  CostPerWord */\n          0x03\n            /* \"lib/TokenTransferrer.sol\":20465:20475  msizeWords */\n          dup4\n            /* \"lib/TokenTransferrer.sol\":20448:20463  returnDataWords */\n          dup6\n            /* \"lib/TokenTransferrer.sol\":20444:20476  sub(returnDataWords, msizeWords) */\n          sub\n            /* \"lib/TokenTransferrer.sol\":20403:20559  mul(... */\n          mul\n            /* \"lib/TokenTransferrer.sol\":20366:20951  add(... */\n          add\n            /* \"lib/TokenTransferrer.sol\":20332:20336  cost */\n          dup2\n            /* \"lib/TokenTransferrer.sol\":20299:20977  add(... */\n          add\n            /* \"lib/TokenTransferrer.sol\":20291:20977  cost := add(... */\n          swap1\n          pop\n            /* \"lib/TokenTransferrer.sol\":20230:20999  if gt(returnDataWords, msizeWords) {... */\n        tag_129:\n            /* \"lib/TokenTransferrer.sol\":21243:21248  gas() */\n          gas\n            /* \"lib/TokenTransferrer.sol\":21226:21240  ExtraGasBuffer */\n          0x20\n            /* \"lib/TokenTransferrer.sol\":21220:21224  cost */\n          dup3\n            /* \"lib/TokenTransferrer.sol\":21216:21241  add(cost, ExtraGasBuffer) */\n          add\n            /* \"lib/TokenTransferrer.sol\":21213:21249  lt(add(cost, ExtraGasBuffer), gas()) */\n          lt\n            /* \"lib/TokenTransferrer.sol\":21210:21550  if lt(add(cost, ExtraGasBuffer), gas()) {... */\n          iszero\n          tag_130\n          jumpi\n            /* \"lib/TokenTransferrer.sol\":21378:21394  returndatasize() */\n          returndatasize\n            /* \"lib/TokenTransferrer.sol\":21375:21376  0 */\n          0x00\n            /* \"lib/TokenTransferrer.sol\":21372:21373  0 */\n          dup1\n            /* \"lib/TokenTransferrer.sol\":21357:21395  returndatacopy(0, 0, returndatasize()) */\n          returndatacopy\n            /* \"lib/TokenTransferrer.sol\":21511:21527  returndatasize() */\n          returndatasize\n            /* \"lib/TokenTransferrer.sol\":21508:21509  0 */\n          0x00\n            /* \"lib/TokenTransferrer.sol\":21501:21528  revert(0, returndatasize()) */\n          revert\n            /* \"lib/TokenTransferrer.sol\":21210:21550  if lt(add(cost, ExtraGasBuffer), gas()) {... */\n        tag_130:\n            /* \"lib/TokenTransferrer.sol\":19260:21568  {... */\n          pop\n          pop\n          pop\n            /* \"lib/TokenTransferrer.sol\":19240:21568  if returndatasize() {... */\n        tag_128:\n            /* \"lib/TokenTransferrer.sol\":21743:21786  TokenTransferGenericFailure_error_signature */\n          0xf486bc8700000000000000000000000000000000000000000000000000000000\n            /* \"lib/TokenTransferrer.sol\":21680:21721  TokenTransferGenericFailure_error_sig_ptr */\n          0x00\n            /* \"lib/TokenTransferrer.sol\":21652:21804  mstore(... */\n          mstore\n            /* \"lib/TokenTransferrer.sol\":21873:21878  token */\n          dup10\n            /* \"lib/TokenTransferrer.sol\":21828:21871  TokenTransferGenericFailure_error_token_ptr */\n          0x04\n            /* \"lib/TokenTransferrer.sol\":21821:21879  mstore(TokenTransferGenericFailure_error_token_ptr, token) */\n          mstore\n            /* \"lib/TokenTransferrer.sol\":21947:21951  from */\n          dup9\n            /* \"lib/TokenTransferrer.sol\":21903:21945  TokenTransferGenericFailure_error_from_ptr */\n          0x24\n            /* \"lib/TokenTransferrer.sol\":21896:21952  mstore(TokenTransferGenericFailure_error_from_ptr, from) */\n          mstore\n            /* \"lib/TokenTransferrer.sol\":22018:22020  to */\n          dup8\n            /* \"lib/TokenTransferrer.sol\":21976:22016  TokenTransferGenericFailure_error_to_ptr */\n          0x44\n            /* \"lib/TokenTransferrer.sol\":21969:22021  mstore(TokenTransferGenericFailure_error_to_ptr, to) */\n          mstore\n            /* \"lib/TokenTransferrer.sol\":22087:22097  identifier */\n          dup7\n            /* \"lib/TokenTransferrer.sol\":22045:22085  TokenTransferGenericFailure_error_id_ptr */\n          0x64\n            /* \"lib/TokenTransferrer.sol\":22038:22098  mstore(TokenTransferGenericFailure_error_id_ptr, identifier) */\n          mstore\n            /* \"lib/TokenTransferrer.sol\":22168:22174  amount */\n          dup6\n            /* \"lib/TokenTransferrer.sol\":22122:22166  TokenTransferGenericFailure_error_amount_ptr */\n          0x84\n            /* \"lib/TokenTransferrer.sol\":22115:22175  mstore(TokenTransferGenericFailure_error_amount_ptr, amount) */\n          mstore\n            /* \"lib/TokenTransferrer.sol\":22283:22323  TokenTransferGenericFailure_error_length */\n          0xa4\n            /* \"lib/TokenTransferrer.sol\":22220:22261  TokenTransferGenericFailure_error_sig_ptr */\n          0x00\n            /* \"lib/TokenTransferrer.sol\":22192:22341  revert(... */\n          revert\n            /* \"lib/TokenTransferrer.sol\":19082:22355  if iszero(success) {... */\n        tag_127:\n            /* \"lib/TokenTransferrer.sol\":22386:22394  slot0x80 */\n          dup4\n            /* \"lib/TokenTransferrer.sol\":22376:22384  Slot0x80 */\n          0x80\n            /* \"lib/TokenTransferrer.sol\":22369:22395  mstore(Slot0x80, slot0x80) */\n          mstore\n            /* \"lib/TokenTransferrer.sol\":22447:22455  slot0xA0 */\n          dup3\n            /* \"lib/TokenTransferrer.sol\":22437:22445  Slot0xA0 */\n          0xa0\n            /* \"lib/TokenTransferrer.sol\":22430:22456  mstore(Slot0xA0, slot0xA0) */\n          mstore\n            /* \"lib/TokenTransferrer.sol\":22508:22516  slot0xC0 */\n          dup2\n            /* \"lib/TokenTransferrer.sol\":22498:22506  Slot0xC0 */\n          0xc0\n            /* \"lib/TokenTransferrer.sol\":22491:22517  mstore(Slot0xC0, slot0xC0) */\n          mstore\n            /* \"lib/TokenTransferrer.sol\":22640:22650  memPointer */\n          dup5\n            /* \"lib/TokenTransferrer.sol\":22617:22638  FreeMemoryPointerSlot */\n          0x40\n            /* \"lib/TokenTransferrer.sol\":22610:22651  mstore(FreeMemoryPointerSlot, memPointer) */\n          mstore\n            /* \"lib/TokenTransferrer.sol\":22728:22729  0 */\n          0x00\n            /* \"lib/TokenTransferrer.sol\":22718:22726  ZeroSlot */\n          0x60\n            /* \"lib/TokenTransferrer.sol\":22711:22730  mstore(ZeroSlot, 0) */\n          mstore\n            /* \"lib/TokenTransferrer.sol\":17386:22740  {... */\n          pop\n          pop\n          pop\n          pop\n          pop\n            /* \"lib/TokenTransferrer.sol\":17126:22746  function _performERC1155Transfer(... */\n          pop\n          pop\n          pop\n          pop\n          pop\n          jump\t// out\n            /* \"#utility.yul\":88:205   */\n        tag_132:\n            /* \"#utility.yul\":197:198   */\n          0x00\n            /* \"#utility.yul\":194:195   */\n          dup1\n            /* \"#utility.yul\":187:199   */\n          revert\n            /* \"#utility.yul\":211:328   */\n        tag_133:\n            /* \"#utility.yul\":320:321   */\n          0x00\n            /* \"#utility.yul\":317:318   */\n          dup1\n            /* \"#utility.yul\":310:322   */\n          revert\n            /* \"#utility.yul\":334:451   */\n        tag_134:\n            /* \"#utility.yul\":443:444   */\n          0x00\n            /* \"#utility.yul\":440:441   */\n          dup1\n            /* \"#utility.yul\":433:445   */\n          revert\n            /* \"#utility.yul\":457:574   */\n        tag_135:\n            /* \"#utility.yul\":566:567   */\n          0x00\n            /* \"#utility.yul\":563:564   */\n          dup1\n            /* \"#utility.yul\":556:568   */\n          revert\n            /* \"#utility.yul\":580:697   */\n        tag_136:\n            /* \"#utility.yul\":689:690   */\n          0x00\n            /* \"#utility.yul\":686:687   */\n          dup1\n            /* \"#utility.yul\":679:691   */\n          revert\n            /* \"#utility.yul\":735:1338   */\n        tag_137:\n            /* \"#utility.yul\":843:851   */\n          0x00\n            /* \"#utility.yul\":853:859   */\n          dup1\n            /* \"#utility.yul\":903:906   */\n          dup4\n            /* \"#utility.yul\":896:900   */\n          0x1f\n            /* \"#utility.yul\":888:894   */\n          dup5\n            /* \"#utility.yul\":884:901   */\n          add\n            /* \"#utility.yul\":880:907   */\n          slt\n            /* \"#utility.yul\":870:992   */\n          tag_160\n          jumpi\n            /* \"#utility.yul\":911:990   */\n          tag_161\n          tag_134\n          jump\t// in\n        tag_161:\n            /* \"#utility.yul\":870:992   */\n        tag_160:\n            /* \"#utility.yul\":1024:1030   */\n          dup3\n            /* \"#utility.yul\":1011:1031   */\n          calldataload\n            /* \"#utility.yul\":1001:1031   */\n          swap1\n          pop\n            /* \"#utility.yul\":1054:1072   */\n          0xffffffffffffffff\n            /* \"#utility.yul\":1046:1052   */\n          dup2\n            /* \"#utility.yul\":1043:1073   */\n          gt\n            /* \"#utility.yul\":1040:1157   */\n          iszero\n          tag_162\n          jumpi\n            /* \"#utility.yul\":1076:1155   */\n          tag_163\n          tag_135\n          jump\t// in\n        tag_163:\n            /* \"#utility.yul\":1040:1157   */\n        tag_162:\n            /* \"#utility.yul\":1190:1194   */\n          0x20\n            /* \"#utility.yul\":1182:1188   */\n          dup4\n            /* \"#utility.yul\":1178:1195   */\n          add\n            /* \"#utility.yul\":1166:1195   */\n          swap2\n          pop\n            /* \"#utility.yul\":1244:1247   */\n          dup4\n            /* \"#utility.yul\":1236:1240   */\n          0xc0\n            /* \"#utility.yul\":1228:1234   */\n          dup3\n            /* \"#utility.yul\":1224:1241   */\n          mul\n            /* \"#utility.yul\":1214:1222   */\n          dup4\n            /* \"#utility.yul\":1210:1242   */\n          add\n            /* \"#utility.yul\":1207:1248   */\n          gt\n            /* \"#utility.yul\":1204:1332   */\n          iszero\n          tag_164\n          jumpi\n            /* \"#utility.yul\":1251:1330   */\n          tag_165\n          tag_136\n          jump\t// in\n        tag_165:\n            /* \"#utility.yul\":1204:1332   */\n        tag_164:\n            /* \"#utility.yul\":735:1338   */\n          swap3\n          pop\n          swap3\n          swap1\n          pop\n          jump\t// out\n            /* \"#utility.yul\":1344:1973   */\n        tag_9:\n            /* \"#utility.yul\":1465:1471   */\n          0x00\n            /* \"#utility.yul\":1473:1479   */\n          dup1\n            /* \"#utility.yul\":1522:1524   */\n          0x20\n            /* \"#utility.yul\":1510:1519   */\n          dup4\n            /* \"#utility.yul\":1501:1508   */\n          dup6\n            /* \"#utility.yul\":1497:1520   */\n          sub\n            /* \"#utility.yul\":1493:1525   */\n          slt\n            /* \"#utility.yul\":1490:1609   */\n          iszero\n          tag_167\n          jumpi\n            /* \"#utility.yul\":1528:1607   */\n          tag_168\n          tag_132\n          jump\t// in\n        tag_168:\n            /* \"#utility.yul\":1490:1609   */\n        tag_167:\n            /* \"#utility.yul\":1676:1677   */\n          0x00\n            /* \"#utility.yul\":1665:1674   */\n          dup4\n            /* \"#utility.yul\":1661:1678   */\n          add\n            /* \"#utility.yul\":1648:1679   */\n          calldataload\n            /* \"#utility.yul\":1706:1724   */\n          0xffffffffffffffff\n            /* \"#utility.yul\":1698:1704   */\n          dup2\n            /* \"#utility.yul\":1695:1725   */\n          gt\n            /* \"#utility.yul\":1692:1809   */\n          iszero\n          tag_169\n          jumpi\n            /* \"#utility.yul\":1728:1807   */\n          tag_170\n          tag_133\n          jump\t// in\n        tag_170:\n            /* \"#utility.yul\":1692:1809   */\n        tag_169:\n            /* \"#utility.yul\":1841:1956   */\n          tag_171\n            /* \"#utility.yul\":1948:1955   */\n          dup6\n            /* \"#utility.yul\":1939:1945   */\n          dup3\n            /* \"#utility.yul\":1928:1937   */\n          dup7\n            /* \"#utility.yul\":1924:1946   */\n          add\n            /* \"#utility.yul\":1841:1956   */\n          tag_137\n          jump\t// in\n        tag_171:\n            /* \"#utility.yul\":1823:1956   */\n          swap3\n          pop\n          swap3\n          pop\n            /* \"#utility.yul\":1619:1966   */\n          pop\n            /* \"#utility.yul\":1344:1973   */\n          swap3\n          pop\n          swap3\n          swap1\n          pop\n          jump\t// out\n            /* \"#utility.yul\":1979:2128   */\n        tag_138:\n            /* \"#utility.yul\":2015:2022   */\n          0x00\n            /* \"#utility.yul\":2055:2121   */\n          0xffffffff00000000000000000000000000000000000000000000000000000000\n            /* \"#utility.yul\":2048:2053   */\n          dup3\n            /* \"#utility.yul\":2044:2122   */\n          and\n            /* \"#utility.yul\":2033:2122   */\n          swap1\n          pop\n            /* \"#utility.yul\":1979:2128   */\n          swap2\n          swap1\n          pop\n          jump\t// out\n            /* \"#utility.yul\":2134:2249   */\n        tag_139:\n            /* \"#utility.yul\":2219:2242   */\n          tag_174\n            /* \"#utility.yul\":2236:2241   */\n          dup2\n            /* \"#utility.yul\":2219:2242   */\n          tag_138\n          jump\t// in\n        tag_174:\n            /* \"#utility.yul\":2214:2217   */\n          dup3\n            /* \"#utility.yul\":2207:2243   */\n          mstore\n            /* \"#utility.yul\":2134:2249   */\n          pop\n          pop\n          jump\t// out\n            /* \"#utility.yul\":2255:2473   */\n        tag_12:\n            /* \"#utility.yul\":2346:2350   */\n          0x00\n            /* \"#utility.yul\":2384:2386   */\n          0x20\n            /* \"#utility.yul\":2373:2382   */\n          dup3\n            /* \"#utility.yul\":2369:2387   */\n          add\n            /* \"#utility.yul\":2361:2387   */\n          swap1\n          pop\n            /* \"#utility.yul\":2397:2466   */\n          tag_176\n            /* \"#utility.yul\":2463:2464   */\n          0x00\n            /* \"#utility.yul\":2452:2461   */\n          dup4\n            /* \"#utility.yul\":2448:2465   */\n          add\n            /* \"#utility.yul\":2439:2445   */\n          dup5\n            /* \"#utility.yul\":2397:2466   */\n          tag_139\n          jump\t// in\n        tag_176:\n            /* \"#utility.yul\":2255:2473   */\n          swap3\n          swap2\n          pop\n          pop\n          jump\t// out\n            /* \"#utility.yul\":2520:3132   */\n        tag_140:\n            /* \"#utility.yul\":2637:2645   */\n          0x00\n            /* \"#utility.yul\":2647:2653   */\n          dup1\n            /* \"#utility.yul\":2697:2700   */\n          dup4\n            /* \"#utility.yul\":2690:2694   */\n          0x1f\n            /* \"#utility.yul\":2682:2688   */\n          dup5\n            /* \"#utility.yul\":2678:2695   */\n          add\n            /* \"#utility.yul\":2674:2701   */\n          slt\n            /* \"#utility.yul\":2664:2786   */\n          tag_178\n          jumpi\n            /* \"#utility.yul\":2705:2784   */\n          tag_179\n          tag_134\n          jump\t// in\n        tag_179:\n            /* \"#utility.yul\":2664:2786   */\n        tag_178:\n            /* \"#utility.yul\":2818:2824   */\n          dup3\n            /* \"#utility.yul\":2805:2825   */\n          calldataload\n            /* \"#utility.yul\":2795:2825   */\n          swap1\n          pop\n            /* \"#utility.yul\":2848:2866   */\n          0xffffffffffffffff\n            /* \"#utility.yul\":2840:2846   */\n          dup2\n            /* \"#utility.yul\":2837:2867   */\n          gt\n            /* \"#utility.yul\":2834:2951   */\n          iszero\n          tag_180\n          jumpi\n            /* \"#utility.yul\":2870:2949   */\n          tag_181\n          tag_135\n          jump\t// in\n        tag_181:\n            /* \"#utility.yul\":2834:2951   */\n        tag_180:\n            /* \"#utility.yul\":2984:2988   */\n          0x20\n            /* \"#utility.yul\":2976:2982   */\n          dup4\n            /* \"#utility.yul\":2972:2989   */\n          add\n            /* \"#utility.yul\":2960:2989   */\n          swap2\n          pop\n            /* \"#utility.yul\":3038:3041   */\n          dup4\n            /* \"#utility.yul\":3030:3034   */\n          0x20\n            /* \"#utility.yul\":3022:3028   */\n          dup3\n            /* \"#utility.yul\":3018:3035   */\n          mul\n            /* \"#utility.yul\":3008:3016   */\n          dup4\n            /* \"#utility.yul\":3004:3036   */\n          add\n            /* \"#utility.yul\":3001:3042   */\n          gt\n            /* \"#utility.yul\":2998:3126   */\n          iszero\n          tag_182\n          jumpi\n            /* \"#utility.yul\":3045:3124   */\n          tag_183\n          tag_136\n          jump\t// in\n        tag_183:\n            /* \"#utility.yul\":2998:3126   */\n        tag_182:\n            /* \"#utility.yul\":2520:3132   */\n          swap3\n          pop\n          swap3\n          swap1\n          pop\n          jump\t// out\n            /* \"#utility.yul\":3138:4230   */\n        tag_15:\n            /* \"#utility.yul\":3339:3345   */\n          0x00\n            /* \"#utility.yul\":3347:3353   */\n          dup1\n            /* \"#utility.yul\":3355:3361   */\n          0x00\n            /* \"#utility.yul\":3363:3369   */\n          dup1\n            /* \"#utility.yul\":3412:3414   */\n          0x40\n            /* \"#utility.yul\":3400:3409   */\n          dup6\n            /* \"#utility.yul\":3391:3398   */\n          dup8\n            /* \"#utility.yul\":3387:3410   */\n          sub\n            /* \"#utility.yul\":3383:3415   */\n          slt\n            /* \"#utility.yul\":3380:3499   */\n          iszero\n          tag_185\n          jumpi\n            /* \"#utility.yul\":3418:3497   */\n          tag_186\n          tag_132\n          jump\t// in\n        tag_186:\n            /* \"#utility.yul\":3380:3499   */\n        tag_185:\n            /* \"#utility.yul\":3566:3567   */\n          0x00\n            /* \"#utility.yul\":3555:3564   */\n          dup6\n            /* \"#utility.yul\":3551:3568   */\n          add\n            /* \"#utility.yul\":3538:3569   */\n          calldataload\n            /* \"#utility.yul\":3596:3614   */\n          0xffffffffffffffff\n            /* \"#utility.yul\":3588:3594   */\n          dup2\n            /* \"#utility.yul\":3585:3615   */\n          gt\n            /* \"#utility.yul\":3582:3699   */\n          iszero\n          tag_187\n          jumpi\n            /* \"#utility.yul\":3618:3697   */\n          tag_188\n          tag_133\n          jump\t// in\n        tag_188:\n            /* \"#utility.yul\":3582:3699   */\n        tag_187:\n            /* \"#utility.yul\":3731:3846   */\n          tag_189\n            /* \"#utility.yul\":3838:3845   */\n          dup8\n            /* \"#utility.yul\":3829:3835   */\n          dup3\n            /* \"#utility.yul\":3818:3827   */\n          dup9\n            /* \"#utility.yul\":3814:3836   */\n          add\n            /* \"#utility.yul\":3731:3846   */\n          tag_137\n          jump\t// in\n        tag_189:\n            /* \"#utility.yul\":3713:3846   */\n          swap5\n          pop\n          swap5\n          pop\n            /* \"#utility.yul\":3509:3856   */\n          pop\n            /* \"#utility.yul\":3923:3925   */\n          0x20\n            /* \"#utility.yul\":3912:3921   */\n          dup6\n            /* \"#utility.yul\":3908:3926   */\n          add\n            /* \"#utility.yul\":3895:3927   */\n          calldataload\n            /* \"#utility.yul\":3954:3972   */\n          0xffffffffffffffff\n            /* \"#utility.yul\":3946:3952   */\n          dup2\n            /* \"#utility.yul\":3943:3973   */\n          gt\n            /* \"#utility.yul\":3940:4057   */\n          iszero\n          tag_190\n          jumpi\n            /* \"#utility.yul\":3976:4055   */\n          tag_191\n          tag_133\n          jump\t// in\n        tag_191:\n            /* \"#utility.yul\":3940:4057   */\n        tag_190:\n            /* \"#utility.yul\":4089:4213   */\n          tag_192\n            /* \"#utility.yul\":4205:4212   */\n          dup8\n            /* \"#utility.yul\":4196:4202   */\n          dup3\n            /* \"#utility.yul\":4185:4194   */\n          dup9\n            /* \"#utility.yul\":4181:4203   */\n          add\n            /* \"#utility.yul\":4089:4213   */\n          tag_140\n          jump\t// in\n        tag_192:\n            /* \"#utility.yul\":4071:4213   */\n          swap3\n          pop\n          swap3\n          pop\n            /* \"#utility.yul\":3866:4223   */\n          pop\n            /* \"#utility.yul\":3138:4230   */\n          swap3\n          swap6\n          swap2\n          swap5\n          pop\n          swap3\n          pop\n          jump\t// out\n            /* \"#utility.yul\":4236:4883   */\n        tag_20:\n            /* \"#utility.yul\":4366:4372   */\n          0x00\n            /* \"#utility.yul\":4374:4380   */\n          dup1\n            /* \"#utility.yul\":4423:4425   */\n          0x20\n            /* \"#utility.yul\":4411:4420   */\n          dup4\n            /* \"#utility.yul\":4402:4409   */\n          dup6\n            /* \"#utility.yul\":4398:4421   */\n          sub\n            /* \"#utility.yul\":4394:4426   */\n          slt\n            /* \"#utility.yul\":4391:4510   */\n          iszero\n          tag_194\n          jumpi\n            /* \"#utility.yul\":4429:4508   */\n          tag_195\n          tag_132\n          jump\t// in\n        tag_195:\n            /* \"#utility.yul\":4391:4510   */\n        tag_194:\n            /* \"#utility.yul\":4577:4578   */\n          0x00\n            /* \"#utility.yul\":4566:4575   */\n          dup4\n            /* \"#utility.yul\":4562:4579   */\n          add\n            /* \"#utility.yul\":4549:4580   */\n          calldataload\n            /* \"#utility.yul\":4607:4625   */\n          0xffffffffffffffff\n            /* \"#utility.yul\":4599:4605   */\n          dup2\n            /* \"#utility.yul\":4596:4626   */\n          gt\n            /* \"#utility.yul\":4593:4710   */\n          iszero\n          tag_196\n          jumpi\n            /* \"#utility.yul\":4629:4708   */\n          tag_197\n          tag_133\n          jump\t// in\n        tag_197:\n            /* \"#utility.yul\":4593:4710   */\n        tag_196:\n            /* \"#utility.yul\":4742:4866   */\n          tag_198\n            /* \"#utility.yul\":4858:4865   */\n          dup6\n            /* \"#utility.yul\":4849:4855   */\n          dup3\n            /* \"#utility.yul\":4838:4847   */\n          dup7\n            /* \"#utility.yul\":4834:4856   */\n          add\n            /* \"#utility.yul\":4742:4866   */\n          tag_140\n          jump\t// in\n        tag_198:\n            /* \"#utility.yul\":4724:4866   */\n          swap3\n          pop\n          swap3\n          pop\n            /* \"#utility.yul\":4520:4876   */\n          pop\n            /* \"#utility.yul\":4236:4883   */\n          swap3\n          pop\n          swap3\n          swap1\n          pop\n          jump\t// out\n            /* \"#utility.yul\":4889:5015   */\n        tag_141:\n            /* \"#utility.yul\":4926:4933   */\n          0x00\n            /* \"#utility.yul\":4966:5008   */\n          0xffffffffffffffffffffffffffffffffffffffff\n            /* \"#utility.yul\":4959:4964   */\n          dup3\n            /* \"#utility.yul\":4955:5009   */\n          and\n            /* \"#utility.yul\":4944:5009   */\n          swap1\n          pop\n            /* \"#utility.yul\":4889:5015   */\n          swap2\n          swap1\n          pop\n          jump\t// out\n            /* \"#utility.yul\":5021:5117   */\n        tag_142:\n            /* \"#utility.yul\":5058:5065   */\n          0x00\n            /* \"#utility.yul\":5087:5111   */\n          tag_201\n            /* \"#utility.yul\":5105:5110   */\n          dup3\n            /* \"#utility.yul\":5087:5111   */\n          tag_141\n          jump\t// in\n        tag_201:\n            /* \"#utility.yul\":5076:5111   */\n          swap1\n          pop\n            /* \"#utility.yul\":5021:5117   */\n          swap2\n          swap1\n          pop\n          jump\t// out\n            /* \"#utility.yul\":5123:5245   */\n        tag_143:\n            /* \"#utility.yul\":5196:5220   */\n          tag_203\n            /* \"#utility.yul\":5214:5219   */\n          dup2\n            /* \"#utility.yul\":5196:5220   */\n          tag_142\n          jump\t// in\n        tag_203:\n            /* \"#utility.yul\":5189:5194   */\n          dup2\n            /* \"#utility.yul\":5186:5221   */\n          eq\n            /* \"#utility.yul\":5176:5239   */\n          tag_204\n          jumpi\n            /* \"#utility.yul\":5235:5236   */\n          0x00\n            /* \"#utility.yul\":5232:5233   */\n          dup1\n            /* \"#utility.yul\":5225:5237   */\n          revert\n            /* \"#utility.yul\":5176:5239   */\n        tag_204:\n            /* \"#utility.yul\":5123:5245   */\n          pop\n          jump\t// out\n            /* \"#utility.yul\":5251:5390   */\n        tag_144:\n            /* \"#utility.yul\":5297:5302   */\n          0x00\n            /* \"#utility.yul\":5335:5341   */\n          dup2\n            /* \"#utility.yul\":5322:5342   */\n          calldataload\n            /* \"#utility.yul\":5313:5342   */\n          swap1\n          pop\n            /* \"#utility.yul\":5351:5384   */\n          tag_206\n            /* \"#utility.yul\":5378:5383   */\n          dup2\n            /* \"#utility.yul\":5351:5384   */\n          tag_143\n          jump\t// in\n        tag_206:\n            /* \"#utility.yul\":5251:5390   */\n          swap3\n          swap2\n          pop\n          pop\n          jump\t// out\n            /* \"#utility.yul\":5396:5486   */\n        tag_145:\n            /* \"#utility.yul\":5430:5437   */\n          0x00\n            /* \"#utility.yul\":5473:5478   */\n          dup2\n            /* \"#utility.yul\":5466:5479   */\n          iszero\n            /* \"#utility.yul\":5459:5480   */\n          iszero\n            /* \"#utility.yul\":5448:5480   */\n          swap1\n          pop\n            /* \"#utility.yul\":5396:5486   */\n          swap2\n          swap1\n          pop\n          jump\t// out\n            /* \"#utility.yul\":5492:5608   */\n        tag_146:\n            /* \"#utility.yul\":5562:5583   */\n          tag_209\n            /* \"#utility.yul\":5577:5582   */\n          dup2\n            /* \"#utility.yul\":5562:5583   */\n          tag_145\n          jump\t// in\n        tag_209:\n            /* \"#utility.yul\":5555:5560   */\n          dup2\n            /* \"#utility.yul\":5552:5584   */\n          eq\n            /* \"#utility.yul\":5542:5602   */\n          tag_210\n          jumpi\n            /* \"#utility.yul\":5598:5599   */\n          0x00\n            /* \"#utility.yul\":5595:5596   */\n          dup1\n            /* \"#utility.yul\":5588:5600   */\n          revert\n            /* \"#utility.yul\":5542:5602   */\n        tag_210:\n            /* \"#utility.yul\":5492:5608   */\n          pop\n          jump\t// out\n            /* \"#utility.yul\":5614:5747   */\n        tag_147:\n            /* \"#utility.yul\":5657:5662   */\n          0x00\n            /* \"#utility.yul\":5695:5701   */\n          dup2\n            /* \"#utility.yul\":5682:5702   */\n          calldataload\n            /* \"#utility.yul\":5673:5702   */\n          swap1\n          pop\n            /* \"#utility.yul\":5711:5741   */\n          tag_212\n            /* \"#utility.yul\":5735:5740   */\n          dup2\n            /* \"#utility.yul\":5711:5741   */\n          tag_146\n          jump\t// in\n        tag_212:\n            /* \"#utility.yul\":5614:5747   */\n          swap3\n          swap2\n          pop\n          pop\n          jump\t// out\n            /* \"#utility.yul\":5753:6221   */\n        tag_25:\n            /* \"#utility.yul\":5818:5824   */\n          0x00\n            /* \"#utility.yul\":5826:5832   */\n          dup1\n            /* \"#utility.yul\":5875:5877   */\n          0x40\n            /* \"#utility.yul\":5863:5872   */\n          dup4\n            /* \"#utility.yul\":5854:5861   */\n          dup6\n            /* \"#utility.yul\":5850:5873   */\n          sub\n            /* \"#utility.yul\":5846:5878   */\n          slt\n            /* \"#utility.yul\":5843:5962   */\n          iszero\n          tag_214\n          jumpi\n            /* \"#utility.yul\":5881:5960   */\n          tag_215\n          tag_132\n          jump\t// in\n        tag_215:\n            /* \"#utility.yul\":5843:5962   */\n        tag_214:\n            /* \"#utility.yul\":6001:6002   */\n          0x00\n            /* \"#utility.yul\":6026:6079   */\n          tag_216\n            /* \"#utility.yul\":6071:6078   */\n          dup6\n            /* \"#utility.yul\":6062:6068   */\n          dup3\n            /* \"#utility.yul\":6051:6060   */\n          dup7\n            /* \"#utility.yul\":6047:6069   */\n          add\n            /* \"#utility.yul\":6026:6079   */\n          tag_144\n          jump\t// in\n        tag_216:\n            /* \"#utility.yul\":6016:6079   */\n          swap3\n          pop\n            /* \"#utility.yul\":5972:6089   */\n          pop\n            /* \"#utility.yul\":6128:6130   */\n          0x20\n            /* \"#utility.yul\":6154:6204   */\n          tag_217\n            /* \"#utility.yul\":6196:6203   */\n          dup6\n            /* \"#utility.yul\":6187:6193   */\n          dup3\n            /* \"#utility.yul\":6176:6185   */\n          dup7\n            /* \"#utility.yul\":6172:6194   */\n          add\n            /* \"#utility.yul\":6154:6204   */\n          tag_147\n          jump\t// in\n        tag_217:\n            /* \"#utility.yul\":6144:6204   */\n          swap2\n          pop\n            /* \"#utility.yul\":6099:6214   */\n          pop\n            /* \"#utility.yul\":5753:6221   */\n          swap3\n          pop\n          swap3\n          swap1\n          pop\n          jump\t// out\n            /* \"#utility.yul\":6227:6407   */\n        tag_36:\n            /* \"#utility.yul\":6275:6352   */\n          0x4e487b7100000000000000000000000000000000000000000000000000000000\n            /* \"#utility.yul\":6272:6273   */\n          0x00\n            /* \"#utility.yul\":6265:6353   */\n          mstore\n            /* \"#utility.yul\":6372:6376   */\n          0x32\n            /* \"#utility.yul\":6369:6370   */\n          0x04\n            /* \"#utility.yul\":6362:6377   */\n          mstore\n            /* \"#utility.yul\":6396:6400   */\n          0x24\n            /* \"#utility.yul\":6393:6394   */\n          0x00\n            /* \"#utility.yul\":6386:6401   */\n          revert\n            /* \"#utility.yul\":6413:6531   */\n        tag_148:\n            /* \"#utility.yul\":6500:6524   */\n          tag_220\n            /* \"#utility.yul\":6518:6523   */\n          dup2\n            /* \"#utility.yul\":6500:6524   */\n          tag_142\n          jump\t// in\n        tag_220:\n            /* \"#utility.yul\":6495:6498   */\n          dup3\n            /* \"#utility.yul\":6488:6525   */\n          mstore\n            /* \"#utility.yul\":6413:6531   */\n          pop\n          pop\n          jump\t// out\n            /* \"#utility.yul\":6537:6646   */\n        tag_149:\n            /* \"#utility.yul\":6618:6639   */\n          tag_222\n            /* \"#utility.yul\":6633:6638   */\n          dup2\n            /* \"#utility.yul\":6618:6639   */\n          tag_145\n          jump\t// in\n        tag_222:\n            /* \"#utility.yul\":6613:6616   */\n          dup3\n            /* \"#utility.yul\":6606:6640   */\n          mstore\n            /* \"#utility.yul\":6537:6646   */\n          pop\n          pop\n          jump\t// out\n            /* \"#utility.yul\":6652:6972   */\n        tag_57:\n            /* \"#utility.yul\":6767:6771   */\n          0x00\n            /* \"#utility.yul\":6805:6807   */\n          0x40\n            /* \"#utility.yul\":6794:6803   */\n          dup3\n            /* \"#utility.yul\":6790:6808   */\n          add\n            /* \"#utility.yul\":6782:6808   */\n          swap1\n          pop\n            /* \"#utility.yul\":6818:6889   */\n          tag_224\n            /* \"#utility.yul\":6886:6887   */\n          0x00\n            /* \"#utility.yul\":6875:6884   */\n          dup4\n            /* \"#utility.yul\":6871:6888   */\n          add\n            /* \"#utility.yul\":6862:6868   */\n          dup6\n            /* \"#utility.yul\":6818:6889   */\n          tag_148\n          jump\t// in\n        tag_224:\n            /* \"#utility.yul\":6899:6965   */\n          tag_225\n            /* \"#utility.yul\":6961:6963   */\n          0x20\n            /* \"#utility.yul\":6950:6959   */\n          dup4\n            /* \"#utility.yul\":6946:6964   */\n          add\n            /* \"#utility.yul\":6937:6943   */\n          dup5\n            /* \"#utility.yul\":6899:6965   */\n          tag_149\n          jump\t// in\n        tag_225:\n            /* \"#utility.yul\":6652:6972   */\n          swap4\n          swap3\n          pop\n          pop\n          pop\n          jump\t// out\n            /* \"#utility.yul\":6978:7188   */\n        tag_59:\n            /* \"#utility.yul\":7065:7069   */\n          0x00\n            /* \"#utility.yul\":7103:7105   */\n          0x20\n            /* \"#utility.yul\":7092:7101   */\n          dup3\n            /* \"#utility.yul\":7088:7106   */\n          add\n            /* \"#utility.yul\":7080:7106   */\n          swap1\n          pop\n            /* \"#utility.yul\":7116:7181   */\n          tag_227\n            /* \"#utility.yul\":7178:7179   */\n          0x00\n            /* \"#utility.yul\":7167:7176   */\n          dup4\n            /* \"#utility.yul\":7163:7180   */\n          add\n            /* \"#utility.yul\":7154:7160   */\n          dup5\n            /* \"#utility.yul\":7116:7181   */\n          tag_149\n          jump\t// in\n        tag_227:\n            /* \"#utility.yul\":6978:7188   */\n          swap3\n          swap2\n          pop\n          pop\n          jump\t// out\n            /* \"#utility.yul\":7194:7374   */\n        tag_63:\n            /* \"#utility.yul\":7242:7319   */\n          0x4e487b7100000000000000000000000000000000000000000000000000000000\n            /* \"#utility.yul\":7239:7240   */\n          0x00\n            /* \"#utility.yul\":7232:7320   */\n          mstore\n            /* \"#utility.yul\":7339:7343   */\n          0x21\n            /* \"#utility.yul\":7336:7337   */\n          0x04\n            /* \"#utility.yul\":7329:7344   */\n          mstore\n            /* \"#utility.yul\":7363:7367   */\n          0x24\n            /* \"#utility.yul\":7360:7361   */\n          0x00\n            /* \"#utility.yul\":7353:7368   */\n          revert\n            /* \"#utility.yul\":7380:7499   */\n        tag_150:\n            /* \"#utility.yul\":7473:7474   */\n          0x04\n            /* \"#utility.yul\":7466:7471   */\n          dup2\n            /* \"#utility.yul\":7463:7475   */\n          lt\n            /* \"#utility.yul\":7453:7493   */\n          tag_230\n          jumpi\n            /* \"#utility.yul\":7489:7490   */\n          0x00\n            /* \"#utility.yul\":7486:7487   */\n          dup1\n            /* \"#utility.yul\":7479:7491   */\n          revert\n            /* \"#utility.yul\":7453:7493   */\n        tag_230:\n            /* \"#utility.yul\":7380:7499   */\n          pop\n          jump\t// out\n            /* \"#utility.yul\":7505:7684   */\n        tag_151:\n            /* \"#utility.yul\":7571:7576   */\n          0x00\n            /* \"#utility.yul\":7609:7615   */\n          dup2\n            /* \"#utility.yul\":7596:7616   */\n          calldataload\n            /* \"#utility.yul\":7587:7616   */\n          swap1\n          pop\n            /* \"#utility.yul\":7625:7678   */\n          tag_232\n            /* \"#utility.yul\":7672:7677   */\n          dup2\n            /* \"#utility.yul\":7625:7678   */\n          tag_150\n          jump\t// in\n        tag_232:\n            /* \"#utility.yul\":7505:7684   */\n          swap3\n          swap2\n          pop\n          pop\n          jump\t// out\n            /* \"#utility.yul\":7690:8059   */\n        tag_65:\n            /* \"#utility.yul\":7769:7775   */\n          0x00\n            /* \"#utility.yul\":7818:7820   */\n          0x20\n            /* \"#utility.yul\":7806:7815   */\n          dup3\n            /* \"#utility.yul\":7797:7804   */\n          dup5\n            /* \"#utility.yul\":7793:7816   */\n          sub\n            /* \"#utility.yul\":7789:7821   */\n          slt\n            /* \"#utility.yul\":7786:7905   */\n          iszero\n          tag_234\n          jumpi\n            /* \"#utility.yul\":7824:7903   */\n          tag_235\n          tag_132\n          jump\t// in\n        tag_235:\n            /* \"#utility.yul\":7786:7905   */\n        tag_234:\n            /* \"#utility.yul\":7944:7945   */\n          0x00\n            /* \"#utility.yul\":7969:8042   */\n          tag_236\n            /* \"#utility.yul\":8034:8041   */\n          dup5\n            /* \"#utility.yul\":8025:8031   */\n          dup3\n            /* \"#utility.yul\":8014:8023   */\n          dup6\n            /* \"#utility.yul\":8010:8032   */\n          add\n            /* \"#utility.yul\":7969:8042   */\n          tag_151\n          jump\t// in\n        tag_236:\n            /* \"#utility.yul\":7959:8042   */\n          swap2\n          pop\n            /* \"#utility.yul\":7915:8052   */\n          pop\n            /* \"#utility.yul\":7690:8059   */\n          swap3\n          swap2\n          pop\n          pop\n          jump\t// out\n            /* \"#utility.yul\":8065:8394   */\n        tag_71:\n            /* \"#utility.yul\":8124:8130   */\n          0x00\n            /* \"#utility.yul\":8173:8175   */\n          0x20\n            /* \"#utility.yul\":8161:8170   */\n          dup3\n            /* \"#utility.yul\":8152:8159   */\n          dup5\n            /* \"#utility.yul\":8148:8171   */\n          sub\n            /* \"#utility.yul\":8144:8176   */\n          slt\n            /* \"#utility.yul\":8141:8260   */\n          iszero\n          tag_238\n          jumpi\n            /* \"#utility.yul\":8179:8258   */\n          tag_239\n          tag_132\n          jump\t// in\n        tag_239:\n            /* \"#utility.yul\":8141:8260   */\n        tag_238:\n            /* \"#utility.yul\":8299:8300   */\n          0x00\n            /* \"#utility.yul\":8324:8377   */\n          tag_240\n            /* \"#utility.yul\":8369:8376   */\n          dup5\n            /* \"#utility.yul\":8360:8366   */\n          dup3\n            /* \"#utility.yul\":8349:8358   */\n          dup6\n            /* \"#utility.yul\":8345:8367   */\n          add\n            /* \"#utility.yul\":8324:8377   */\n          tag_144\n          jump\t// in\n        tag_240:\n            /* \"#utility.yul\":8314:8377   */\n          swap2\n          pop\n            /* \"#utility.yul\":8270:8387   */\n          pop\n            /* \"#utility.yul\":8065:8394   */\n          swap3\n          swap2\n          pop\n          pop\n          jump\t// out\n\n        auxdata: 0xa26469706673582212205136924f4dbbfe79561a1fc04e45947433c8fcba59787ffd458bb59436aa022264736f6c63430008110033\n    }\n}\n",
				"bytecode": {
					"linkReferences": {},
					"object": "60c06040523480156200001157600080fd5b50604051806020016200002490620000a4565b6020820181038252601f19601f82011660405250805190602001206080818152505060008060001b6040516200005a90620000a4565b8190604051809103906000f59050801580156200007b573d6000803e3d6000fd5b5090508073ffffffffffffffffffffffffffffffffffffffff163f60a0818152505050620000b2565b6110ae8062002f5483390190565b60805160a051612e60620000f46000396000818161047601528181610ee9015261104f01526000818161045301528181610e9a01526110000152612e606000f3fe608060405234801561001057600080fd5b50600436106100ea5760003560e01c80636d4354211161008c5780637b37e561116100665780637b37e561146102835780638b9e028b1461029f578063906c87cc146102cf57806393790f44146102ff576100ea565b80636d435421146102065780636e9bfd9f14610222578063794593bc14610253576100ea565b806314afd79e116100c857806314afd79e1461015a57806333bc85721461018a5780634e3f9580146101ba57806351710e45146101ea576100ea565b8063027cc764146100ef5780630a96ad391461011f57806313ad9cab1461013e575b600080fd5b610109600480360381019061010491906117b0565b61032f565b60405161011691906117ff565b60405180910390f35b61012761044e565b604051610135929190611833565b60405180910390f35b61015860048036038101906101539190611894565b61049b565b005b610174600480360381019061016f91906118e7565b610825565b60405161018191906117ff565b60405180910390f35b6101a4600480360381019061019f9190611914565b610899565b6040516101b19190611963565b60405180910390f35b6101d460048036038101906101cf91906118e7565b61092f565b6040516101e1919061198d565b60405180910390f35b61020460048036038101906101ff91906118e7565b610986565b005b610220600480360381019061021b9190611914565b610c7a565b005b61023c600480360381019061023791906119d4565b610e8e565b60405161024a929190611a01565b60405180910390f35b61026d60048036038101906102689190611a2a565b610f28565b60405161027a91906117ff565b60405180910390f35b61029d600480360381019061029891906118e7565b611237565b005b6102b960048036038101906102b491906118e7565b6113da565b6040516102c69190611b28565b60405180910390f35b6102e960048036038101906102e491906118e7565b6114b2565b6040516102f691906117ff565b60405180910390f35b610319600480360381019061031491906118e7565b611526565b6040516103269190611b4a565b60405180910390f35b600061033a836115ad565b60008060008573ffffffffffffffffffffffffffffffffffffffff1673ffffffffffffffffffffffffffffffffffffffff1681526020019081526020016000206003018054905090508083106103c757836040517f6ceb340b0000000000000000000000000000000000000000000000000000000081526004016103be91906117ff565b60405180910390fd5b6000808573ffffffffffffffffffffffffffffffffffffffff1673ffffffffffffffffffffffffffffffffffffffff168152602001908152602001600020600301838154811061041a57610419611b65565b5b9060005260206000200160009054906101000a900473ffffffffffffffffffffffffffffffffffffffff1691505092915050565b6000807f000000000000000000000000000000000000000000000000000000000000000091507f000000000000000000000000000000000000000000000000000000000000000090509091565b6104a48361162d565b8273ffffffffffffffffffffffffffffffffffffffff1663c4e8fcb583836040518363ffffffff1660e01b81526004016104df929190611a01565b600060405180830381600087803b1580156104f957600080fd5b505af115801561050d573d6000803e3d6000fd5b5050505060008060008573ffffffffffffffffffffffffffffffffffffffff1673ffffffffffffffffffffffffffffffffffffffff168152602001908152602001600020905060008160040160008573ffffffffffffffffffffffffffffffffffffffff1673ffffffffffffffffffffffffffffffffffffffff16815260200190815260200160002054905060008082141590508380156105ac575080155b156106685782600301859080600181540180825580915050600190039060005260206000200160009091909190916101000a81548173ffffffffffffffffffffffffffffffffffffffff021916908373ffffffffffffffffffffffffffffffffffffffff16021790555082600301805490508360040160008773ffffffffffffffffffffffffffffffffffffffff1673ffffffffffffffffffffffffffffffffffffffff1681526020019081526020016000208190555061081d565b831580156106735750805b1561081c5760006001830390506000600185600301805490506106969190611bc3565b905081811461078b5760008560030182815481106106b7576106b6611b65565b5b9060005260206000200160009054906101000a900473ffffffffffffffffffffffffffffffffffffffff169050808660030184815481106106fb576106fa611b65565b5b9060005260206000200160006101000a81548173ffffffffffffffffffffffffffffffffffffffff021916908373ffffffffffffffffffffffffffffffffffffffff160217905550848660040160008373ffffffffffffffffffffffffffffffffffffffff1673ffffffffffffffffffffffffffffffffffffffff16815260200190815260200160002081905550505b8460030180548061079f5761079e611bf7565b5b6001900381819060005260206000200160006101000a81549073ffffffffffffffffffffffffffffffffffffffff021916905590558460040160008873ffffffffffffffffffffffffffffffffffffffff1673ffffffffffffffffffffffffffffffffffffffff1681526020019081526020016000206000905550505b5b505050505050565b6000610830826115ad565b6000808373ffffffffffffffffffffffffffffffffffffffff1673ffffffffffffffffffffffffffffffffffffffff16815260200190815260200160002060010160009054906101000a900473ffffffffffffffffffffffffffffffffffffffff169050919050565b60006108a4836115ad565b60008060008573ffffffffffffffffffffffffffffffffffffffff1673ffffffffffffffffffffffffffffffffffffffff16815260200190815260200160002060040160008473ffffffffffffffffffffffffffffffffffffffff1673ffffffffffffffffffffffffffffffffffffffff168152602001908152602001600020541415905092915050565b600061093a826115ad565b6000808373ffffffffffffffffffffffffffffffffffffffff1673ffffffffffffffffffffffffffffffffffffffff168152602001908152602001600020600301805490509050919050565b61098f816115ad565b6000808273ffffffffffffffffffffffffffffffffffffffff1673ffffffffffffffffffffffffffffffffffffffff16815260200190815260200160002060020160009054906101000a900473ffffffffffffffffffffffffffffffffffffffff1673ffffffffffffffffffffffffffffffffffffffff163373ffffffffffffffffffffffffffffffffffffffff1614610a6057806040517f88c3a115000000000000000000000000000000000000000000000000000000008152600401610a5791906117ff565b60405180910390fd5b600073ffffffffffffffffffffffffffffffffffffffff167f11a3cf439fb225bfe74225716b6774765670ec1060e3796802e62139d69974da60405160405180910390a260008060008373ffffffffffffffffffffffffffffffffffffffff1673ffffffffffffffffffffffffffffffffffffffff16815260200190815260200160002060020160006101000a81548173ffffffffffffffffffffffffffffffffffffffff021916908373ffffffffffffffffffffffffffffffffffffffff1602179055503373ffffffffffffffffffffffffffffffffffffffff166000808373ffffffffffffffffffffffffffffffffffffffff1673ffffffffffffffffffffffffffffffffffffffff16815260200190815260200160002060010160009054906101000a900473ffffffffffffffffffffffffffffffffffffffff1673ffffffffffffffffffffffffffffffffffffffff168273ffffffffffffffffffffffffffffffffffffffff167fc8894f26f396ce8c004245c8b7cd1b92103a6e4302fcbab883987149ac01b7ec60405160405180910390a4336000808373ffffffffffffffffffffffffffffffffffffffff1673ffffffffffffffffffffffffffffffffffffffff16815260200190815260200160002060010160006101000a81548173ffffffffffffffffffffffffffffffffffffffff021916908373ffffffffffffffffffffffffffffffffffffffff16021790555050565b610c838261162d565b600073ffffffffffffffffffffffffffffffffffffffff168173ffffffffffffffffffffffffffffffffffffffff1603610cf457816040517fa388d263000000000000000000000000000000000000000000000000000000008152600401610ceb91906117ff565b60405180910390fd5b6000808373ffffffffffffffffffffffffffffffffffffffff1673ffffffffffffffffffffffffffffffffffffffff16815260200190815260200160002060020160009054906101000a900473ffffffffffffffffffffffffffffffffffffffff1673ffffffffffffffffffffffffffffffffffffffff168173ffffffffffffffffffffffffffffffffffffffff1603610dc75781816040517fcbc080ca000000000000000000000000000000000000000000000000000000008152600401610dbe929190611c26565b60405180910390fd5b8073ffffffffffffffffffffffffffffffffffffffff167f11a3cf439fb225bfe74225716b6774765670ec1060e3796802e62139d69974da60405160405180910390a2806000808473ffffffffffffffffffffffffffffffffffffffff1673ffffffffffffffffffffffffffffffffffffffff16815260200190815260200160002060020160006101000a81548173ffffffffffffffffffffffffffffffffffffffff021916908373ffffffffffffffffffffffffffffffffffffffff1602179055505050565b60008060ff60f81b30847f0000000000000000000000000000000000000000000000000000000000000000604051602001610ecc9493929190611d05565b6040516020818303038152906040528051906020012060001c91507f00000000000000000000000000000000000000000000000000000000000000008273ffffffffffffffffffffffffffffffffffffffff163f149050915091565b60008073ffffffffffffffffffffffffffffffffffffffff168273ffffffffffffffffffffffffffffffffffffffff1603610f8f576040517f99faaa0400000000000000000000000000000000000000000000000000000000815260040160405180910390fd5b3373ffffffffffffffffffffffffffffffffffffffff168360601c73ffffffffffffffffffffffffffffffffffffffff1614610ff7576040517fcb6e534400000000000000000000000000000000000000000000000000000000815260040160405180910390fd5b60ff60f81b30847f00000000000000000000000000000000000000000000000000000000000000006040516020016110329493929190611d05565b6040516020818303038152906040528051906020012060001c90507f00000000000000000000000000000000000000000000000000000000000000008173ffffffffffffffffffffffffffffffffffffffff163f036110c857806040517f6328ccb20000000000000000000000000000000000000000000000000000000081526004016110bf91906117ff565b60405180910390fd5b826040516110d59061170a565b8190604051809103906000f59050801580156110f5573d6000803e3d6000fd5b505060008060008373ffffffffffffffffffffffffffffffffffffffff1673ffffffffffffffffffffffffffffffffffffffff1681526020019081526020016000209050828160010160006101000a81548173ffffffffffffffffffffffffffffffffffffffff021916908373ffffffffffffffffffffffffffffffffffffffff1602179055508381600001819055507f4397af6128d529b8ae0442f99db1296d5136062597a15bbc61c1b2a6431a7d1582856040516111b6929190611d53565b60405180910390a18273ffffffffffffffffffffffffffffffffffffffff16600073ffffffffffffffffffffffffffffffffffffffff168373ffffffffffffffffffffffffffffffffffffffff167fc8894f26f396ce8c004245c8b7cd1b92103a6e4302fcbab883987149ac01b7ec60405160405180910390a45092915050565b6112408161162d565b600073ffffffffffffffffffffffffffffffffffffffff166000808373ffffffffffffffffffffffffffffffffffffffff1673ffffffffffffffffffffffffffffffffffffffff16815260200190815260200160002060020160009054906101000a900473ffffffffffffffffffffffffffffffffffffffff1673ffffffffffffffffffffffffffffffffffffffff160361131257806040517f6b01361600000000000000000000000000000000000000000000000000000000815260040161130991906117ff565b60405180910390fd5b600073ffffffffffffffffffffffffffffffffffffffff167f11a3cf439fb225bfe74225716b6774765670ec1060e3796802e62139d69974da60405160405180910390a260008060008373ffffffffffffffffffffffffffffffffffffffff1673ffffffffffffffffffffffffffffffffffffffff16815260200190815260200160002060020160006101000a81548173ffffffffffffffffffffffffffffffffffffffff021916908373ffffffffffffffffffffffffffffffffffffffff16021790555050565b60606113e5826115ad565b6000808373ffffffffffffffffffffffffffffffffffffffff1673ffffffffffffffffffffffffffffffffffffffff1681526020019081526020016000206003018054806020026020016040519081016040528092919081815260200182805480156114a657602002820191906000526020600020905b8160009054906101000a900473ffffffffffffffffffffffffffffffffffffffff1673ffffffffffffffffffffffffffffffffffffffff168152602001906001019080831161145c575b50505050509050919050565b60006114bd826115ad565b6000808373ffffffffffffffffffffffffffffffffffffffff1673ffffffffffffffffffffffffffffffffffffffff16815260200190815260200160002060020160009054906101000a900473ffffffffffffffffffffffffffffffffffffffff169050919050565b60008060008373ffffffffffffffffffffffffffffffffffffffff1673ffffffffffffffffffffffffffffffffffffffff1681526020019081526020016000206000015490506000801b81036115a8576040517f4ca8209000000000000000000000000000000000000000000000000000000000815260040160405180910390fd5b919050565b6000801b6000808373ffffffffffffffffffffffffffffffffffffffff1673ffffffffffffffffffffffffffffffffffffffff168152602001908152602001600020600001540361162a576040517f4ca8209000000000000000000000000000000000000000000000000000000000815260040160405180910390fd5b50565b611636816115ad565b6000808273ffffffffffffffffffffffffffffffffffffffff1673ffffffffffffffffffffffffffffffffffffffff16815260200190815260200160002060010160009054906101000a900473ffffffffffffffffffffffffffffffffffffffff1673ffffffffffffffffffffffffffffffffffffffff163373ffffffffffffffffffffffffffffffffffffffff161461170757806040517fd4ed9a170000000000000000000000000000000000000000000000000000000081526004016116fe91906117ff565b60405180910390fd5b50565b6110ae80611d7d83390190565b600080fd5b600073ffffffffffffffffffffffffffffffffffffffff82169050919050565b60006117478261171c565b9050919050565b6117578161173c565b811461176257600080fd5b50565b6000813590506117748161174e565b92915050565b6000819050919050565b61178d8161177a565b811461179857600080fd5b50565b6000813590506117aa81611784565b92915050565b600080604083850312156117c7576117c6611717565b5b60006117d585828601611765565b92505060206117e68582860161179b565b9150509250929050565b6117f98161173c565b82525050565b600060208201905061181460008301846117f0565b92915050565b6000819050919050565b61182d8161181a565b82525050565b60006040820190506118486000830185611824565b6118556020830184611824565b9392505050565b60008115159050919050565b6118718161185c565b811461187c57600080fd5b50565b60008135905061188e81611868565b92915050565b6000806000606084860312156118ad576118ac611717565b5b60006118bb86828701611765565b93505060206118cc86828701611765565b92505060406118dd8682870161187f565b9150509250925092565b6000602082840312156118fd576118fc611717565b5b600061190b84828501611765565b91505092915050565b6000806040838503121561192b5761192a611717565b5b600061193985828601611765565b925050602061194a85828601611765565b9150509250929050565b61195d8161185c565b82525050565b60006020820190506119786000830184611954565b92915050565b6119878161177a565b82525050565b60006020820190506119a2600083018461197e565b92915050565b6119b18161181a565b81146119bc57600080fd5b50565b6000813590506119ce816119a8565b92915050565b6000602082840312156119ea576119e9611717565b5b60006119f8848285016119bf565b91505092915050565b6000604082019050611a1660008301856117f0565b611a236020830184611954565b9392505050565b60008060408385031215611a4157611a40611717565b5b6000611a4f858286016119bf565b9250506020611a6085828601611765565b9150509250929050565b600081519050919050565b600082825260208201905092915050565b6000819050602082019050919050565b611a9f8161173c565b82525050565b6000611ab18383611a96565b60208301905092915050565b6000602082019050919050565b6000611ad582611a6a565b611adf8185611a75565b9350611aea83611a86565b8060005b83811015611b1b578151611b028882611aa5565b9750611b0d83611abd565b925050600181019050611aee565b5085935050505092915050565b60006020820190508181036000830152611b428184611aca565b905092915050565b6000602082019050611b5f6000830184611824565b92915050565b7f4e487b7100000000000000000000000000000000000000000000000000000000600052603260045260246000fd5b7f4e487b7100000000000000000000000000000000000000000000000000000000600052601160045260246000fd5b6000611bce8261177a565b9150611bd98361177a565b9250828203905081811115611bf157611bf0611b94565b5b92915050565b7f4e487b7100000000000000000000000000000000000000000000000000000000600052603160045260246000fd5b6000604082019050611c3b60008301856117f0565b611c4860208301846117f0565b9392505050565b60007fff0000000000000000000000000000000000000000000000000000000000000082169050919050565b6000819050919050565b611c96611c9182611c4f565b611c7b565b82525050565b60008160601b9050919050565b6000611cb482611c9c565b9050919050565b6000611cc682611ca9565b9050919050565b611cde611cd98261173c565b611cbb565b82525050565b6000819050919050565b611cff611cfa8261181a565b611ce4565b82525050565b6000611d118287611c85565b600182019150611d218286611ccd565b601482019150611d318285611cee565b602082019150611d418284611cee565b60208201915081905095945050505050565b6000604082019050611d6860008301856117f0565b611d756020830184611824565b939250505056fe60a060405234801561001057600080fd5b503373ffffffffffffffffffffffffffffffffffffffff1660808173ffffffffffffffffffffffffffffffffffffffff168152505060805161104e6100606000396000610290015261104e6000f3fe608060405234801561001057600080fd5b506004361061004c5760003560e01c80634ce34aa214610051578063899e104c146100815780638df25d92146100b1578063c4e8fcb5146100e1575b600080fd5b61006b60048036038101906100669190610c3c565b6100fd565b6040516100789190610cc4565b60405180910390f35b61009b60048036038101906100969190610d35565b610191565b6040516100a89190610cc4565b60405180910390f35b6100cb60048036038101906100c69190610db6565b610231565b6040516100d89190610cc4565b60405180910390f35b6100fb60048036038101906100f69190610e99565b61028e565b005b6000336000526000602052604060002054610140577f93daadf2000000000000000000000000000000000000000000000000000000006000523360045260246000fd5b600083839050905060005b8181101561017f5761017485858381811061016957610168610ed9565b5b905060c00201610450565b80600101905061014b565b50634ce34aa260e01b91505092915050565b60003360005260006020526040600020546101d4577f93daadf2000000000000000000000000000000000000000000000000000000006000523360045260246000fd5b600085859050905060005b81811015610213576102088787838181106101fd576101fc610ed9565b5b905060c00201610450565b8060010190506101df565b5061021e8484610664565b63899e104c60e01b915050949350505050565b6000336000526000602052604060002054610274577f93daadf2000000000000000000000000000000000000000000000000000000006000523360045260246000fd5b61027e8383610664565b638df25d9260e01b905092915050565b7f000000000000000000000000000000000000000000000000000000000000000073ffffffffffffffffffffffffffffffffffffffff163373ffffffffffffffffffffffffffffffffffffffff1614610313576040517f6d5769be00000000000000000000000000000000000000000000000000000000815260040160405180910390fd5b8015156000808473ffffffffffffffffffffffffffffffffffffffff1673ffffffffffffffffffffffffffffffffffffffff16815260200190815260200160002060009054906101000a900460ff161515036103a85781816040517f924e341e00000000000000000000000000000000000000000000000000000000815260040161039f929190610f26565b60405180910390fd5b806000808473ffffffffffffffffffffffffffffffffffffffff1673ffffffffffffffffffffffffffffffffffffffff16815260200190815260200160002060006101000a81548160ff0219169083151502179055508173ffffffffffffffffffffffffffffffffffffffff167fae63067d43ac07563b7eb8db6595635fc77f1578a2a5ea06ba91b63e2afa37e2826040516104449190610f4f565b60405180910390a25050565b6001600381111561046457610463610f6a565b5b8160000160208101906104779190610fbe565b600381111561048957610488610f6a565b5b036104d9576104d48160200160208101906104a49190610feb565b8260400160208101906104b79190610feb565b8360600160208101906104ca9190610feb565b8460a0013561080c565b610661565b600260038111156104ed576104ec610f6a565b5b8160000160208101906105009190610fbe565b600381111561051257610511610f6a565b5b036105a05760018160a0013514610555576040517fefcc00b100000000000000000000000000000000000000000000000000000000815260040160405180910390fd5b61059b81602001602081019061056b9190610feb565b82604001602081019061057e9190610feb565b8360600160208101906105919190610feb565b846080013561097f565b610660565b6003808111156105b3576105b2610f6a565b5b8160000160208101906105c69190610fbe565b60038111156105d8576105d7610f6a565b5b0361062d576106288160200160208101906105f39190610feb565b8260400160208101906106069190610feb565b8360600160208101906106199190610feb565b84608001358560a00135610a93565b61065f565b6040517f7932f1fc00000000000000000000000000000000000000000000000000000000815260040160405180910390fd5b5b5b50565b8082807f2eb2c2d60000000000000000000000000000000000000000000000000000000060205260005b838110156107ff57823582018035803b6106d0577f5f15d672000000000000000000000000000000000000000000000000000000006000528060045260246000fd5b60a08201356020810260c0018060808501351460a06060860135141681850135831416158015610724577feba2084c0000000000000000000000000000000000000000000000000000000060005260046000fd5b602088019750608060208601602437604083026040018060a00160a45260008160c401528060c4018160a0880160c43760008082602060008a5af1806107ec573d156107b1576020601f3d010460208304816003028183111561079857610200828302848502030460038385030201810190505b5a6020820110156107ad573d6000803e3d6000fd5b5050505b7fafc445e2000000000000000000000000000000000000000000000000000000006000528660045260c0606452608451602001608452816000fd5b505050505050505060018101905061068e565b5060806040525050505050565b6040517f23b872dd00000000000000000000000000000000000000000000000000000000600052836004528260245281604452602060006064600080895af1803d15601f3d116001600051141617163d1515811661096d5780873b15151661096c578061093e5781610904573d156108c5576020601f3d01046020840481600302818311156108ac57610200828302848502030460038385030201810190505b5a6020820110156108c1573d6000803e3d6000fd5b5050505b7ff486bc870000000000000000000000000000000000000000000000000000000060005286600452856024528460445260006064528360845260a46000fd5b7f98891923000000000000000000000000000000000000000000000000000000006000528660045285602452846044528360645260846000fd5b7f5f15d672000000000000000000000000000000000000000000000000000000006000528660045260246000fd5b5b82604052600060605250505050505050565b833b6109b3577f5f15d672000000000000000000000000000000000000000000000000000000006000528360045260246000fd5b6040517f23b872dd000000000000000000000000000000000000000000000000000000006000528360045282602452816044526000806064600080895af180610a82573d15610a43576020601f3d0104602083048160030281831115610a2a57610200828302848502030460038385030201810190505b5a602082011015610a3f573d6000803e3d6000fd5b5050505b7ff486bc870000000000000000000000000000000000000000000000000000000060005285600452846024528360445282606452600160845260a46000fd5b816040526000606052505050505050565b843b610ac7577f5f15d672000000000000000000000000000000000000000000000000000000006000528460045260246000fd5b60405160805160a05160c0517ff242432a000000000000000000000000000000000000000000000000000000006000528760045286602452856044528460645260a0608452600060a45260008060c46000808d5af180610bac573d15610b6e576020601f3d0104602086048160030281831115610b5557610200828302848502030460038385030201810190505b5a602082011015610b6a573d6000803e3d6000fd5b5050505b7ff486bc8700000000000000000000000000000000000000000000000000000000600052896004528860245287604452866064528560845260a46000fd5b836080528260a0528160c05284604052600060605250505050505050505050565b600080fd5b600080fd5b600080fd5b600080fd5b600080fd5b60008083601f840112610bfc57610bfb610bd7565b5b8235905067ffffffffffffffff811115610c1957610c18610bdc565b5b6020830191508360c0820283011115610c3557610c34610be1565b5b9250929050565b60008060208385031215610c5357610c52610bcd565b5b600083013567ffffffffffffffff811115610c7157610c70610bd2565b5b610c7d85828601610be6565b92509250509250929050565b60007fffffffff0000000000000000000000000000000000000000000000000000000082169050919050565b610cbe81610c89565b82525050565b6000602082019050610cd96000830184610cb5565b92915050565b60008083601f840112610cf557610cf4610bd7565b5b8235905067ffffffffffffffff811115610d1257610d11610bdc565b5b602083019150836020820283011115610d2e57610d2d610be1565b5b9250929050565b60008060008060408587031215610d4f57610d4e610bcd565b5b600085013567ffffffffffffffff811115610d6d57610d6c610bd2565b5b610d7987828801610be6565b9450945050602085013567ffffffffffffffff811115610d9c57610d9b610bd2565b5b610da887828801610cdf565b925092505092959194509250565b60008060208385031215610dcd57610dcc610bcd565b5b600083013567ffffffffffffffff811115610deb57610dea610bd2565b5b610df785828601610cdf565b92509250509250929050565b600073ffffffffffffffffffffffffffffffffffffffff82169050919050565b6000610e2e82610e03565b9050919050565b610e3e81610e23565b8114610e4957600080fd5b50565b600081359050610e5b81610e35565b92915050565b60008115159050919050565b610e7681610e61565b8114610e8157600080fd5b50565b600081359050610e9381610e6d565b92915050565b60008060408385031215610eb057610eaf610bcd565b5b6000610ebe85828601610e4c565b9250506020610ecf85828601610e84565b9150509250929050565b7f4e487b7100000000000000000000000000000000000000000000000000000000600052603260045260246000fd5b610f1181610e23565b82525050565b610f2081610e61565b82525050565b6000604082019050610f3b6000830185610f08565b610f486020830184610f17565b9392505050565b6000602082019050610f646000830184610f17565b92915050565b7f4e487b7100000000000000000000000000000000000000000000000000000000600052602160045260246000fd5b60048110610fa657600080fd5b50565b600081359050610fb881610f99565b92915050565b600060208284031215610fd457610fd3610bcd565b5b6000610fe284828501610fa9565b91505092915050565b60006020828403121561100157611000610bcd565b5b600061100f84828501610e4c565b9150509291505056fea26469706673582212205136924f4dbbfe79561a1fc04e45947433c8fcba59787ffd458bb59436aa022264736f6c63430008110033a2646970667358221220761bc6711f0af030e64e4344395b1ef19179448b9d129d2b16bfafae043b55cd64736f6c6343000811003360a060405234801561001057600080fd5b503373ffffffffffffffffffffffffffffffffffffffff1660808173ffffffffffffffffffffffffffffffffffffffff168152505060805161104e6100606000396000610290015261104e6000f3fe608060405234801561001057600080fd5b506004361061004c5760003560e01c80634ce34aa214610051578063899e104c146100815780638df25d92146100b1578063c4e8fcb5146100e1575b600080fd5b61006b60048036038101906100669190610c3c565b6100fd565b6040516100789190610cc4565b60405180910390f35b61009b60048036038101906100969190610d35565b610191565b6040516100a89190610cc4565b60405180910390f35b6100cb60048036038101906100c69190610db6565b610231565b6040516100d89190610cc4565b60405180910390f35b6100fb60048036038101906100f69190610e99565b61028e565b005b6000336000526000602052604060002054610140577f93daadf2000000000000000000000000000000000000000000000000000000006000523360045260246000fd5b600083839050905060005b8181101561017f5761017485858381811061016957610168610ed9565b5b905060c00201610450565b80600101905061014b565b50634ce34aa260e01b91505092915050565b60003360005260006020526040600020546101d4577f93daadf2000000000000000000000000000000000000000000000000000000006000523360045260246000fd5b600085859050905060005b81811015610213576102088787838181106101fd576101fc610ed9565b5b905060c00201610450565b8060010190506101df565b5061021e8484610664565b63899e104c60e01b915050949350505050565b6000336000526000602052604060002054610274577f93daadf2000000000000000000000000000000000000000000000000000000006000523360045260246000fd5b61027e8383610664565b638df25d9260e01b905092915050565b7f000000000000000000000000000000000000000000000000000000000000000073ffffffffffffffffffffffffffffffffffffffff163373ffffffffffffffffffffffffffffffffffffffff1614610313576040517f6d5769be00000000000000000000000000000000000000000000000000000000815260040160405180910390fd5b8015156000808473ffffffffffffffffffffffffffffffffffffffff1673ffffffffffffffffffffffffffffffffffffffff16815260200190815260200160002060009054906101000a900460ff161515036103a85781816040517f924e341e00000000000000000000000000000000000000000000000000000000815260040161039f929190610f26565b60405180910390fd5b806000808473ffffffffffffffffffffffffffffffffffffffff1673ffffffffffffffffffffffffffffffffffffffff16815260200190815260200160002060006101000a81548160ff0219169083151502179055508173ffffffffffffffffffffffffffffffffffffffff167fae63067d43ac07563b7eb8db6595635fc77f1578a2a5ea06ba91b63e2afa37e2826040516104449190610f4f565b60405180910390a25050565b6001600381111561046457610463610f6a565b5b8160000160208101906104779190610fbe565b600381111561048957610488610f6a565b5b036104d9576104d48160200160208101906104a49190610feb565b8260400160208101906104b79190610feb565b8360600160208101906104ca9190610feb565b8460a0013561080c565b610661565b600260038111156104ed576104ec610f6a565b5b8160000160208101906105009190610fbe565b600381111561051257610511610f6a565b5b036105a05760018160a0013514610555576040517fefcc00b100000000000000000000000000000000000000000000000000000000815260040160405180910390fd5b61059b81602001602081019061056b9190610feb565b82604001602081019061057e9190610feb565b8360600160208101906105919190610feb565b846080013561097f565b610660565b6003808111156105b3576105b2610f6a565b5b8160000160208101906105c69190610fbe565b60038111156105d8576105d7610f6a565b5b0361062d576106288160200160208101906105f39190610feb565b8260400160208101906106069190610feb565b8360600160208101906106199190610feb565b84608001358560a00135610a93565b61065f565b6040517f7932f1fc00000000000000000000000000000000000000000000000000000000815260040160405180910390fd5b5b5b50565b8082807f2eb2c2d60000000000000000000000000000000000000000000000000000000060205260005b838110156107ff57823582018035803b6106d0577f5f15d672000000000000000000000000000000000000000000000000000000006000528060045260246000fd5b60a08201356020810260c0018060808501351460a06060860135141681850135831416158015610724577feba2084c0000000000000000000000000000000000000000000000000000000060005260046000fd5b602088019750608060208601602437604083026040018060a00160a45260008160c401528060c4018160a0880160c43760008082602060008a5af1806107ec573d156107b1576020601f3d010460208304816003028183111561079857610200828302848502030460038385030201810190505b5a6020820110156107ad573d6000803e3d6000fd5b5050505b7fafc445e2000000000000000000000000000000000000000000000000000000006000528660045260c0606452608451602001608452816000fd5b505050505050505060018101905061068e565b5060806040525050505050565b6040517f23b872dd00000000000000000000000000000000000000000000000000000000600052836004528260245281604452602060006064600080895af1803d15601f3d116001600051141617163d1515811661096d5780873b15151661096c578061093e5781610904573d156108c5576020601f3d01046020840481600302818311156108ac57610200828302848502030460038385030201810190505b5a6020820110156108c1573d6000803e3d6000fd5b5050505b7ff486bc870000000000000000000000000000000000000000000000000000000060005286600452856024528460445260006064528360845260a46000fd5b7f98891923000000000000000000000000000000000000000000000000000000006000528660045285602452846044528360645260846000fd5b7f5f15d672000000000000000000000000000000000000000000000000000000006000528660045260246000fd5b5b82604052600060605250505050505050565b833b6109b3577f5f15d672000000000000000000000000000000000000000000000000000000006000528360045260246000fd5b6040517f23b872dd000000000000000000000000000000000000000000000000000000006000528360045282602452816044526000806064600080895af180610a82573d15610a43576020601f3d0104602083048160030281831115610a2a57610200828302848502030460038385030201810190505b5a602082011015610a3f573d6000803e3d6000fd5b5050505b7ff486bc870000000000000000000000000000000000000000000000000000000060005285600452846024528360445282606452600160845260a46000fd5b816040526000606052505050505050565b843b610ac7577f5f15d672000000000000000000000000000000000000000000000000000000006000528460045260246000fd5b60405160805160a05160c0517ff242432a000000000000000000000000000000000000000000000000000000006000528760045286602452856044528460645260a0608452600060a45260008060c46000808d5af180610bac573d15610b6e576020601f3d0104602086048160030281831115610b5557610200828302848502030460038385030201810190505b5a602082011015610b6a573d6000803e3d6000fd5b5050505b7ff486bc8700000000000000000000000000000000000000000000000000000000600052896004528860245287604452866064528560845260a46000fd5b836080528260a0528160c05284604052600060605250505050505050505050565b600080fd5b600080fd5b600080fd5b600080fd5b600080fd5b60008083601f840112610bfc57610bfb610bd7565b5b8235905067ffffffffffffffff811115610c1957610c18610bdc565b5b6020830191508360c0820283011115610c3557610c34610be1565b5b9250929050565b60008060208385031215610c5357610c52610bcd565b5b600083013567ffffffffffffffff811115610c7157610c70610bd2565b5b610c7d85828601610be6565b92509250509250929050565b60007fffffffff0000000000000000000000000000000000000000000000000000000082169050919050565b610cbe81610c89565b82525050565b6000602082019050610cd96000830184610cb5565b92915050565b60008083601f840112610cf557610cf4610bd7565b5b8235905067ffffffffffffffff811115610d1257610d11610bdc565b5b602083019150836020820283011115610d2e57610d2d610be1565b5b9250929050565b60008060008060408587031215610d4f57610d4e610bcd565b5b600085013567ffffffffffffffff811115610d6d57610d6c610bd2565b5b610d7987828801610be6565b9450945050602085013567ffffffffffffffff811115610d9c57610d9b610bd2565b5b610da887828801610cdf565b925092505092959194509250565b60008060208385031215610dcd57610dcc610bcd565b5b600083013567ffffffffffffffff811115610deb57610dea610bd2565b5b610df785828601610cdf565b92509250509250929050565b600073ffffffffffffffffffffffffffffffffffffffff82169050919050565b6000610e2e82610e03565b9050919050565b610e3e81610e23565b8114610e4957600080fd5b50565b600081359050610e5b81610e35565b92915050565b60008115159050919050565b610e7681610e61565b8114610e8157600080fd5b50565b600081359050610e9381610e6d565b92915050565b60008060408385031215610eb057610eaf610bcd565b5b6000610ebe85828601610e4c565b9250506020610ecf85828601610e84565b9150509250929050565b7f4e487b7100000000000000000000000000000000000000000000000000000000600052603260045260246000fd5b610f1181610e23565b82525050565b610f2081610e61565b82525050565b6000604082019050610f3b6000830185610f08565b610f486020830184610f17565b9392505050565b6000602082019050610f646000830184610f17565b92915050565b7f4e487b7100000000000000000000000000000000000000000000000000000000600052602160045260246000fd5b60048110610fa657600080fd5b50565b600081359050610fb881610f99565b92915050565b600060208284031215610fd457610fd3610bcd565b5b6000610fe284828501610fa9565b91505092915050565b60006020828403121561100157611000610bcd565b5b600061100f84828501610e4c565b9150509291505056fea26469706673582212205136924f4dbbfe79561a1fc04e45947433c8fcba59787ffd458bb59436aa022264736f6c63430008110033",
					"opcodes": "PUSH1 0xC0 PUSH1 0x40 MSTORE CALLVALUE DUP1 ISZERO PUSH3 0x11 JUMPI PUSH1 0x0 DUP1 REVERT JUMPDEST POP PUSH1 0x40 MLOAD DUP1 PUSH1 0x20 ADD PUSH3 0x24 SWAP1 PUSH3 0xA4 JUMP JUMPDEST PUSH1 0x20 DUP3 ADD DUP2 SUB DUP3 MSTORE PUSH1 0x1F NOT PUSH1 0x1F DUP3 ADD AND PUSH1 0x40 MSTORE POP DUP1 MLOAD SWAP1 PUSH1 0x20 ADD KECCAK256 PUSH1 0x80 DUP2 DUP2 MSTORE POP POP PUSH1 0x0 DUP1 PUSH1 0x0 SHL PUSH1 0x40 MLOAD PUSH3 0x5A SWAP1 PUSH3 0xA4 JUMP JUMPDEST DUP2 SWAP1 PUSH1 0x40 MLOAD DUP1 SWAP2 SUB SWAP1 PUSH1 0x0 CREATE2 SWAP1 POP DUP1 ISZERO DUP1 ISZERO PUSH3 0x7B JUMPI RETURNDATASIZE PUSH1 0x0 DUP1 RETURNDATACOPY RETURNDATASIZE PUSH1 0x0 REVERT JUMPDEST POP SWAP1 POP DUP1 PUSH20 0xFFFFFFFFFFFFFFFFFFFFFFFFFFFFFFFFFFFFFFFF AND EXTCODEHASH PUSH1 0xA0 DUP2 DUP2 MSTORE POP POP POP PUSH3 0xB2 JUMP JUMPDEST PUSH2 0x10AE DUP1 PUSH3 0x2F54 DUP4 CODECOPY ADD SWAP1 JUMP JUMPDEST PUSH1 0x80 MLOAD PUSH1 0xA0 MLOAD PUSH2 0x2E60 PUSH3 0xF4 PUSH1 0x0 CODECOPY PUSH1 0x0 DUP2 DUP2 PUSH2 0x476 ADD MSTORE DUP2 DUP2 PUSH2 0xEE9 ADD MSTORE PUSH2 0x104F ADD MSTORE PUSH1 0x0 DUP2 DUP2 PUSH2 0x453 ADD MSTORE DUP2 DUP2 PUSH2 0xE9A ADD MSTORE PUSH2 0x1000 ADD MSTORE PUSH2 0x2E60 PUSH1 0x0 RETURN INVALID PUSH1 0x80 PUSH1 0x40 MSTORE CALLVALUE DUP1 ISZERO PUSH2 0x10 JUMPI PUSH1 0x0 DUP1 REVERT JUMPDEST POP PUSH1 0x4 CALLDATASIZE LT PUSH2 0xEA JUMPI PUSH1 0x0 CALLDATALOAD PUSH1 0xE0 SHR DUP1 PUSH4 0x6D435421 GT PUSH2 0x8C JUMPI DUP1 PUSH4 0x7B37E561 GT PUSH2 0x66 JUMPI DUP1 PUSH4 0x7B37E561 EQ PUSH2 0x283 JUMPI DUP1 PUSH4 0x8B9E028B EQ PUSH2 0x29F JUMPI DUP1 PUSH4 0x906C87CC EQ PUSH2 0x2CF JUMPI DUP1 PUSH4 0x93790F44 EQ PUSH2 0x2FF JUMPI PUSH2 0xEA JUMP JUMPDEST DUP1 PUSH4 0x6D435421 EQ PUSH2 0x206 JUMPI DUP1 PUSH4 0x6E9BFD9F EQ PUSH2 0x222 JUMPI DUP1 PUSH4 0x794593BC EQ PUSH2 0x253 JUMPI PUSH2 0xEA JUMP JUMPDEST DUP1 PUSH4 0x14AFD79E GT PUSH2 0xC8 JUMPI DUP1 PUSH4 0x14AFD79E EQ PUSH2 0x15A JUMPI DUP1 PUSH4 0x33BC8572 EQ PUSH2 0x18A JUMPI DUP1 PUSH4 0x4E3F9580 EQ PUSH2 0x1BA JUMPI DUP1 PUSH4 0x51710E45 EQ PUSH2 0x1EA JUMPI PUSH2 0xEA JUMP JUMPDEST DUP1 PUSH4 0x27CC764 EQ PUSH2 0xEF JUMPI DUP1 PUSH4 0xA96AD39 EQ PUSH2 0x11F JUMPI DUP1 PUSH4 0x13AD9CAB EQ PUSH2 0x13E JUMPI JUMPDEST PUSH1 0x0 DUP1 REVERT JUMPDEST PUSH2 0x109 PUSH1 0x4 DUP1 CALLDATASIZE SUB DUP2 ADD SWAP1 PUSH2 0x104 SWAP2 SWAP1 PUSH2 0x17B0 JUMP JUMPDEST PUSH2 0x32F JUMP JUMPDEST PUSH1 0x40 MLOAD PUSH2 0x116 SWAP2 SWAP1 PUSH2 0x17FF JUMP JUMPDEST PUSH1 0x40 MLOAD DUP1 SWAP2 SUB SWAP1 RETURN JUMPDEST PUSH2 0x127 PUSH2 0x44E JUMP JUMPDEST PUSH1 0x40 MLOAD PUSH2 0x135 SWAP3 SWAP2 SWAP1 PUSH2 0x1833 JUMP JUMPDEST PUSH1 0x40 MLOAD DUP1 SWAP2 SUB SWAP1 RETURN JUMPDEST PUSH2 0x158 PUSH1 0x4 DUP1 CALLDATASIZE SUB DUP2 ADD SWAP1 PUSH2 0x153 SWAP2 SWAP1 PUSH2 0x1894 JUMP JUMPDEST PUSH2 0x49B JUMP JUMPDEST STOP JUMPDEST PUSH2 0x174 PUSH1 0x4 DUP1 CALLDATASIZE SUB DUP2 ADD SWAP1 PUSH2 0x16F SWAP2 SWAP1 PUSH2 0x18E7 JUMP JUMPDEST PUSH2 0x825 JUMP JUMPDEST PUSH1 0x40 MLOAD PUSH2 0x181 SWAP2 SWAP1 PUSH2 0x17FF JUMP JUMPDEST PUSH1 0x40 MLOAD DUP1 SWAP2 SUB SWAP1 RETURN JUMPDEST PUSH2 0x1A4 PUSH1 0x4 DUP1 CALLDATASIZE SUB DUP2 ADD SWAP1 PUSH2 0x19F SWAP2 SWAP1 PUSH2 0x1914 JUMP JUMPDEST PUSH2 0x899 JUMP JUMPDEST PUSH1 0x40 MLOAD PUSH2 0x1B1 SWAP2 SWAP1 PUSH2 0x1963 JUMP JUMPDEST PUSH1 0x40 MLOAD DUP1 SWAP2 SUB SWAP1 RETURN JUMPDEST PUSH2 0x1D4 PUSH1 0x4 DUP1 CALLDATASIZE SUB DUP2 ADD SWAP1 PUSH2 0x1CF SWAP2 SWAP1 PUSH2 0x18E7 JUMP JUMPDEST PUSH2 0x92F JUMP JUMPDEST PUSH1 0x40 MLOAD PUSH2 0x1E1 SWAP2 SWAP1 PUSH2 0x198D JUMP JUMPDEST PUSH1 0x40 MLOAD DUP1 SWAP2 SUB SWAP1 RETURN JUMPDEST PUSH2 0x204 PUSH1 0x4 DUP1 CALLDATASIZE SUB DUP2 ADD SWAP1 PUSH2 0x1FF SWAP2 SWAP1 PUSH2 0x18E7 JUMP JUMPDEST PUSH2 0x986 JUMP JUMPDEST STOP JUMPDEST PUSH2 0x220 PUSH1 0x4 DUP1 CALLDATASIZE SUB DUP2 ADD SWAP1 PUSH2 0x21B SWAP2 SWAP1 PUSH2 0x1914 JUMP JUMPDEST PUSH2 0xC7A JUMP JUMPDEST STOP JUMPDEST PUSH2 0x23C PUSH1 0x4 DUP1 CALLDATASIZE SUB DUP2 ADD SWAP1 PUSH2 0x237 SWAP2 SWAP1 PUSH2 0x19D4 JUMP JUMPDEST PUSH2 0xE8E JUMP JUMPDEST PUSH1 0x40 MLOAD PUSH2 0x24A SWAP3 SWAP2 SWAP1 PUSH2 0x1A01 JUMP JUMPDEST PUSH1 0x40 MLOAD DUP1 SWAP2 SUB SWAP1 RETURN JUMPDEST PUSH2 0x26D PUSH1 0x4 DUP1 CALLDATASIZE SUB DUP2 ADD SWAP1 PUSH2 0x268 SWAP2 SWAP1 PUSH2 0x1A2A JUMP JUMPDEST PUSH2 0xF28 JUMP JUMPDEST PUSH1 0x40 MLOAD PUSH2 0x27A SWAP2 SWAP1 PUSH2 0x17FF JUMP JUMPDEST PUSH1 0x40 MLOAD DUP1 SWAP2 SUB SWAP1 RETURN JUMPDEST PUSH2 0x29D PUSH1 0x4 DUP1 CALLDATASIZE SUB DUP2 ADD SWAP1 PUSH2 0x298 SWAP2 SWAP1 PUSH2 0x18E7 JUMP JUMPDEST PUSH2 0x1237 JUMP JUMPDEST STOP JUMPDEST PUSH2 0x2B9 PUSH1 0x4 DUP1 CALLDATASIZE SUB DUP2 ADD SWAP1 PUSH2 0x2B4 SWAP2 SWAP1 PUSH2 0x18E7 JUMP JUMPDEST PUSH2 0x13DA JUMP JUMPDEST PUSH1 0x40 MLOAD PUSH2 0x2C6 SWAP2 SWAP1 PUSH2 0x1B28 JUMP JUMPDEST PUSH1 0x40 MLOAD DUP1 SWAP2 SUB SWAP1 RETURN JUMPDEST PUSH2 0x2E9 PUSH1 0x4 DUP1 CALLDATASIZE SUB DUP2 ADD SWAP1 PUSH2 0x2E4 SWAP2 SWAP1 PUSH2 0x18E7 JUMP JUMPDEST PUSH2 0x14B2 JUMP JUMPDEST PUSH1 0x40 MLOAD PUSH2 0x2F6 SWAP2 SWAP1 PUSH2 0x17FF JUMP JUMPDEST PUSH1 0x40 MLOAD DUP1 SWAP2 SUB SWAP1 RETURN JUMPDEST PUSH2 0x319 PUSH1 0x4 DUP1 CALLDATASIZE SUB DUP2 ADD SWAP1 PUSH2 0x314 SWAP2 SWAP1 PUSH2 0x18E7 JUMP JUMPDEST PUSH2 0x1526 JUMP JUMPDEST PUSH1 0x40 MLOAD PUSH2 0x326 SWAP2 SWAP1 PUSH2 0x1B4A JUMP JUMPDEST PUSH1 0x40 MLOAD DUP1 SWAP2 SUB SWAP1 RETURN JUMPDEST PUSH1 0x0 PUSH2 0x33A DUP4 PUSH2 0x15AD JUMP JUMPDEST PUSH1 0x0 DUP1 PUSH1 0x0 DUP6 PUSH20 0xFFFFFFFFFFFFFFFFFFFFFFFFFFFFFFFFFFFFFFFF AND PUSH20 0xFFFFFFFFFFFFFFFFFFFFFFFFFFFFFFFFFFFFFFFF AND DUP2 MSTORE PUSH1 0x20 ADD SWAP1 DUP2 MSTORE PUSH1 0x20 ADD PUSH1 0x0 KECCAK256 PUSH1 0x3 ADD DUP1 SLOAD SWAP1 POP SWAP1 POP DUP1 DUP4 LT PUSH2 0x3C7 JUMPI DUP4 PUSH1 0x40 MLOAD PUSH32 0x6CEB340B00000000000000000000000000000000000000000000000000000000 DUP2 MSTORE PUSH1 0x4 ADD PUSH2 0x3BE SWAP2 SWAP1 PUSH2 0x17FF JUMP JUMPDEST PUSH1 0x40 MLOAD DUP1 SWAP2 SUB SWAP1 REVERT JUMPDEST PUSH1 0x0 DUP1 DUP6 PUSH20 0xFFFFFFFFFFFFFFFFFFFFFFFFFFFFFFFFFFFFFFFF AND PUSH20 0xFFFFFFFFFFFFFFFFFFFFFFFFFFFFFFFFFFFFFFFF AND DUP2 MSTORE PUSH1 0x20 ADD SWAP1 DUP2 MSTORE PUSH1 0x20 ADD PUSH1 0x0 KECCAK256 PUSH1 0x3 ADD DUP4 DUP2 SLOAD DUP2 LT PUSH2 0x41A JUMPI PUSH2 0x419 PUSH2 0x1B65 JUMP JUMPDEST JUMPDEST SWAP1 PUSH1 0x0 MSTORE PUSH1 0x20 PUSH1 0x0 KECCAK256 ADD PUSH1 0x0 SWAP1 SLOAD SWAP1 PUSH2 0x100 EXP SWAP1 DIV PUSH20 0xFFFFFFFFFFFFFFFFFFFFFFFFFFFFFFFFFFFFFFFF AND SWAP2 POP POP SWAP3 SWAP2 POP POP JUMP JUMPDEST PUSH1 0x0 DUP1 PUSH32 0x0 SWAP2 POP PUSH32 0x0 SWAP1 POP SWAP1 SWAP2 JUMP JUMPDEST PUSH2 0x4A4 DUP4 PUSH2 0x162D JUMP JUMPDEST DUP3 PUSH20 0xFFFFFFFFFFFFFFFFFFFFFFFFFFFFFFFFFFFFFFFF AND PUSH4 0xC4E8FCB5 DUP4 DUP4 PUSH1 0x40 MLOAD DUP4 PUSH4 0xFFFFFFFF AND PUSH1 0xE0 SHL DUP2 MSTORE PUSH1 0x4 ADD PUSH2 0x4DF SWAP3 SWAP2 SWAP1 PUSH2 0x1A01 JUMP JUMPDEST PUSH1 0x0 PUSH1 0x40 MLOAD DUP1 DUP4 SUB DUP2 PUSH1 0x0 DUP8 DUP1 EXTCODESIZE ISZERO DUP1 ISZERO PUSH2 0x4F9 JUMPI PUSH1 0x0 DUP1 REVERT JUMPDEST POP GAS CALL ISZERO DUP1 ISZERO PUSH2 0x50D JUMPI RETURNDATASIZE PUSH1 0x0 DUP1 RETURNDATACOPY RETURNDATASIZE PUSH1 0x0 REVERT JUMPDEST POP POP POP POP PUSH1 0x0 DUP1 PUSH1 0x0 DUP6 PUSH20 0xFFFFFFFFFFFFFFFFFFFFFFFFFFFFFFFFFFFFFFFF AND PUSH20 0xFFFFFFFFFFFFFFFFFFFFFFFFFFFFFFFFFFFFFFFF AND DUP2 MSTORE PUSH1 0x20 ADD SWAP1 DUP2 MSTORE PUSH1 0x20 ADD PUSH1 0x0 KECCAK256 SWAP1 POP PUSH1 0x0 DUP2 PUSH1 0x4 ADD PUSH1 0x0 DUP6 PUSH20 0xFFFFFFFFFFFFFFFFFFFFFFFFFFFFFFFFFFFFFFFF AND PUSH20 0xFFFFFFFFFFFFFFFFFFFFFFFFFFFFFFFFFFFFFFFF AND DUP2 MSTORE PUSH1 0x20 ADD SWAP1 DUP2 MSTORE PUSH1 0x20 ADD PUSH1 0x0 KECCAK256 SLOAD SWAP1 POP PUSH1 0x0 DUP1 DUP3 EQ ISZERO SWAP1 POP DUP4 DUP1 ISZERO PUSH2 0x5AC JUMPI POP DUP1 ISZERO JUMPDEST ISZERO PUSH2 0x668 JUMPI DUP3 PUSH1 0x3 ADD DUP6 SWAP1 DUP1 PUSH1 0x1 DUP2 SLOAD ADD DUP1 DUP3 SSTORE DUP1 SWAP2 POP POP PUSH1 0x1 SWAP1 SUB SWAP1 PUSH1 0x0 MSTORE PUSH1 0x20 PUSH1 0x0 KECCAK256 ADD PUSH1 0x0 SWAP1 SWAP2 SWAP1 SWAP2 SWAP1 SWAP2 PUSH2 0x100 EXP DUP2 SLOAD DUP2 PUSH20 0xFFFFFFFFFFFFFFFFFFFFFFFFFFFFFFFFFFFFFFFF MUL NOT AND SWAP1 DUP4 PUSH20 0xFFFFFFFFFFFFFFFFFFFFFFFFFFFFFFFFFFFFFFFF AND MUL OR SWAP1 SSTORE POP DUP3 PUSH1 0x3 ADD DUP1 SLOAD SWAP1 POP DUP4 PUSH1 0x4 ADD PUSH1 0x0 DUP8 PUSH20 0xFFFFFFFFFFFFFFFFFFFFFFFFFFFFFFFFFFFFFFFF AND PUSH20 0xFFFFFFFFFFFFFFFFFFFFFFFFFFFFFFFFFFFFFFFF AND DUP2 MSTORE PUSH1 0x20 ADD SWAP1 DUP2 MSTORE PUSH1 0x20 ADD PUSH1 0x0 KECCAK256 DUP2 SWAP1 SSTORE POP PUSH2 0x81D JUMP JUMPDEST DUP4 ISZERO DUP1 ISZERO PUSH2 0x673 JUMPI POP DUP1 JUMPDEST ISZERO PUSH2 0x81C JUMPI PUSH1 0x0 PUSH1 0x1 DUP4 SUB SWAP1 POP PUSH1 0x0 PUSH1 0x1 DUP6 PUSH1 0x3 ADD DUP1 SLOAD SWAP1 POP PUSH2 0x696 SWAP2 SWAP1 PUSH2 0x1BC3 JUMP JUMPDEST SWAP1 POP DUP2 DUP2 EQ PUSH2 0x78B JUMPI PUSH1 0x0 DUP6 PUSH1 0x3 ADD DUP3 DUP2 SLOAD DUP2 LT PUSH2 0x6B7 JUMPI PUSH2 0x6B6 PUSH2 0x1B65 JUMP JUMPDEST JUMPDEST SWAP1 PUSH1 0x0 MSTORE PUSH1 0x20 PUSH1 0x0 KECCAK256 ADD PUSH1 0x0 SWAP1 SLOAD SWAP1 PUSH2 0x100 EXP SWAP1 DIV PUSH20 0xFFFFFFFFFFFFFFFFFFFFFFFFFFFFFFFFFFFFFFFF AND SWAP1 POP DUP1 DUP7 PUSH1 0x3 ADD DUP5 DUP2 SLOAD DUP2 LT PUSH2 0x6FB JUMPI PUSH2 0x6FA PUSH2 0x1B65 JUMP JUMPDEST JUMPDEST SWAP1 PUSH1 0x0 MSTORE PUSH1 0x20 PUSH1 0x0 KECCAK256 ADD PUSH1 0x0 PUSH2 0x100 EXP DUP2 SLOAD DUP2 PUSH20 0xFFFFFFFFFFFFFFFFFFFFFFFFFFFFFFFFFFFFFFFF MUL NOT AND SWAP1 DUP4 PUSH20 0xFFFFFFFFFFFFFFFFFFFFFFFFFFFFFFFFFFFFFFFF AND MUL OR SWAP1 SSTORE POP DUP5 DUP7 PUSH1 0x4 ADD PUSH1 0x0 DUP4 PUSH20 0xFFFFFFFFFFFFFFFFFFFFFFFFFFFFFFFFFFFFFFFF AND PUSH20 0xFFFFFFFFFFFFFFFFFFFFFFFFFFFFFFFFFFFFFFFF AND DUP2 MSTORE PUSH1 0x20 ADD SWAP1 DUP2 MSTORE PUSH1 0x20 ADD PUSH1 0x0 KECCAK256 DUP2 SWAP1 SSTORE POP POP JUMPDEST DUP5 PUSH1 0x3 ADD DUP1 SLOAD DUP1 PUSH2 0x79F JUMPI PUSH2 0x79E PUSH2 0x1BF7 JUMP JUMPDEST JUMPDEST PUSH1 0x1 SWAP1 SUB DUP2 DUP2 SWAP1 PUSH1 0x0 MSTORE PUSH1 0x20 PUSH1 0x0 KECCAK256 ADD PUSH1 0x0 PUSH2 0x100 EXP DUP2 SLOAD SWAP1 PUSH20 0xFFFFFFFFFFFFFFFFFFFFFFFFFFFFFFFFFFFFFFFF MUL NOT AND SWAP1 SSTORE SWAP1 SSTORE DUP5 PUSH1 0x4 ADD PUSH1 0x0 DUP9 PUSH20 0xFFFFFFFFFFFFFFFFFFFFFFFFFFFFFFFFFFFFFFFF AND PUSH20 0xFFFFFFFFFFFFFFFFFFFFFFFFFFFFFFFFFFFFFFFF AND DUP2 MSTORE PUSH1 0x20 ADD SWAP1 DUP2 MSTORE PUSH1 0x20 ADD PUSH1 0x0 KECCAK256 PUSH1 0x0 SWAP1 SSTORE POP POP JUMPDEST JUMPDEST POP POP POP POP POP POP JUMP JUMPDEST PUSH1 0x0 PUSH2 0x830 DUP3 PUSH2 0x15AD JUMP JUMPDEST PUSH1 0x0 DUP1 DUP4 PUSH20 0xFFFFFFFFFFFFFFFFFFFFFFFFFFFFFFFFFFFFFFFF AND PUSH20 0xFFFFFFFFFFFFFFFFFFFFFFFFFFFFFFFFFFFFFFFF AND DUP2 MSTORE PUSH1 0x20 ADD SWAP1 DUP2 MSTORE PUSH1 0x20 ADD PUSH1 0x0 KECCAK256 PUSH1 0x1 ADD PUSH1 0x0 SWAP1 SLOAD SWAP1 PUSH2 0x100 EXP SWAP1 DIV PUSH20 0xFFFFFFFFFFFFFFFFFFFFFFFFFFFFFFFFFFFFFFFF AND SWAP1 POP SWAP2 SWAP1 POP JUMP JUMPDEST PUSH1 0x0 PUSH2 0x8A4 DUP4 PUSH2 0x15AD JUMP JUMPDEST PUSH1 0x0 DUP1 PUSH1 0x0 DUP6 PUSH20 0xFFFFFFFFFFFFFFFFFFFFFFFFFFFFFFFFFFFFFFFF AND PUSH20 0xFFFFFFFFFFFFFFFFFFFFFFFFFFFFFFFFFFFFFFFF AND DUP2 MSTORE PUSH1 0x20 ADD SWAP1 DUP2 MSTORE PUSH1 0x20 ADD PUSH1 0x0 KECCAK256 PUSH1 0x4 ADD PUSH1 0x0 DUP5 PUSH20 0xFFFFFFFFFFFFFFFFFFFFFFFFFFFFFFFFFFFFFFFF AND PUSH20 0xFFFFFFFFFFFFFFFFFFFFFFFFFFFFFFFFFFFFFFFF AND DUP2 MSTORE PUSH1 0x20 ADD SWAP1 DUP2 MSTORE PUSH1 0x20 ADD PUSH1 0x0 KECCAK256 SLOAD EQ ISZERO SWAP1 POP SWAP3 SWAP2 POP POP JUMP JUMPDEST PUSH1 0x0 PUSH2 0x93A DUP3 PUSH2 0x15AD JUMP JUMPDEST PUSH1 0x0 DUP1 DUP4 PUSH20 0xFFFFFFFFFFFFFFFFFFFFFFFFFFFFFFFFFFFFFFFF AND PUSH20 0xFFFFFFFFFFFFFFFFFFFFFFFFFFFFFFFFFFFFFFFF AND DUP2 MSTORE PUSH1 0x20 ADD SWAP1 DUP2 MSTORE PUSH1 0x20 ADD PUSH1 0x0 KECCAK256 PUSH1 0x3 ADD DUP1 SLOAD SWAP1 POP SWAP1 POP SWAP2 SWAP1 POP JUMP JUMPDEST PUSH2 0x98F DUP2 PUSH2 0x15AD JUMP JUMPDEST PUSH1 0x0 DUP1 DUP3 PUSH20 0xFFFFFFFFFFFFFFFFFFFFFFFFFFFFFFFFFFFFFFFF AND PUSH20 0xFFFFFFFFFFFFFFFFFFFFFFFFFFFFFFFFFFFFFFFF AND DUP2 MSTORE PUSH1 0x20 ADD SWAP1 DUP2 MSTORE PUSH1 0x20 ADD PUSH1 0x0 KECCAK256 PUSH1 0x2 ADD PUSH1 0x0 SWAP1 SLOAD SWAP1 PUSH2 0x100 EXP SWAP1 DIV PUSH20 0xFFFFFFFFFFFFFFFFFFFFFFFFFFFFFFFFFFFFFFFF AND PUSH20 0xFFFFFFFFFFFFFFFFFFFFFFFFFFFFFFFFFFFFFFFF AND CALLER PUSH20 0xFFFFFFFFFFFFFFFFFFFFFFFFFFFFFFFFFFFFFFFF AND EQ PUSH2 0xA60 JUMPI DUP1 PUSH1 0x40 MLOAD PUSH32 0x88C3A11500000000000000000000000000000000000000000000000000000000 DUP2 MSTORE PUSH1 0x4 ADD PUSH2 0xA57 SWAP2 SWAP1 PUSH2 0x17FF JUMP JUMPDEST PUSH1 0x40 MLOAD DUP1 SWAP2 SUB SWAP1 REVERT JUMPDEST PUSH1 0x0 PUSH20 0xFFFFFFFFFFFFFFFFFFFFFFFFFFFFFFFFFFFFFFFF AND PUSH32 0x11A3CF439FB225BFE74225716B6774765670EC1060E3796802E62139D69974DA PUSH1 0x40 MLOAD PUSH1 0x40 MLOAD DUP1 SWAP2 SUB SWAP1 LOG2 PUSH1 0x0 DUP1 PUSH1 0x0 DUP4 PUSH20 0xFFFFFFFFFFFFFFFFFFFFFFFFFFFFFFFFFFFFFFFF AND PUSH20 0xFFFFFFFFFFFFFFFFFFFFFFFFFFFFFFFFFFFFFFFF AND DUP2 MSTORE PUSH1 0x20 ADD SWAP1 DUP2 MSTORE PUSH1 0x20 ADD PUSH1 0x0 KECCAK256 PUSH1 0x2 ADD PUSH1 0x0 PUSH2 0x100 EXP DUP2 SLOAD DUP2 PUSH20 0xFFFFFFFFFFFFFFFFFFFFFFFFFFFFFFFFFFFFFFFF MUL NOT AND SWAP1 DUP4 PUSH20 0xFFFFFFFFFFFFFFFFFFFFFFFFFFFFFFFFFFFFFFFF AND MUL OR SWAP1 SSTORE POP CALLER PUSH20 0xFFFFFFFFFFFFFFFFFFFFFFFFFFFFFFFFFFFFFFFF AND PUSH1 0x0 DUP1 DUP4 PUSH20 0xFFFFFFFFFFFFFFFFFFFFFFFFFFFFFFFFFFFFFFFF AND PUSH20 0xFFFFFFFFFFFFFFFFFFFFFFFFFFFFFFFFFFFFFFFF AND DUP2 MSTORE PUSH1 0x20 ADD SWAP1 DUP2 MSTORE PUSH1 0x20 ADD PUSH1 0x0 KECCAK256 PUSH1 0x1 ADD PUSH1 0x0 SWAP1 SLOAD SWAP1 PUSH2 0x100 EXP SWAP1 DIV PUSH20 0xFFFFFFFFFFFFFFFFFFFFFFFFFFFFFFFFFFFFFFFF AND PUSH20 0xFFFFFFFFFFFFFFFFFFFFFFFFFFFFFFFFFFFFFFFF AND DUP3 PUSH20 0xFFFFFFFFFFFFFFFFFFFFFFFFFFFFFFFFFFFFFFFF AND PUSH32 0xC8894F26F396CE8C004245C8B7CD1B92103A6E4302FCBAB883987149AC01B7EC PUSH1 0x40 MLOAD PUSH1 0x40 MLOAD DUP1 SWAP2 SUB SWAP1 LOG4 CALLER PUSH1 0x0 DUP1 DUP4 PUSH20 0xFFFFFFFFFFFFFFFFFFFFFFFFFFFFFFFFFFFFFFFF AND PUSH20 0xFFFFFFFFFFFFFFFFFFFFFFFFFFFFFFFFFFFFFFFF AND DUP2 MSTORE PUSH1 0x20 ADD SWAP1 DUP2 MSTORE PUSH1 0x20 ADD PUSH1 0x0 KECCAK256 PUSH1 0x1 ADD PUSH1 0x0 PUSH2 0x100 EXP DUP2 SLOAD DUP2 PUSH20 0xFFFFFFFFFFFFFFFFFFFFFFFFFFFFFFFFFFFFFFFF MUL NOT AND SWAP1 DUP4 PUSH20 0xFFFFFFFFFFFFFFFFFFFFFFFFFFFFFFFFFFFFFFFF AND MUL OR SWAP1 SSTORE POP POP JUMP JUMPDEST PUSH2 0xC83 DUP3 PUSH2 0x162D JUMP JUMPDEST PUSH1 0x0 PUSH20 0xFFFFFFFFFFFFFFFFFFFFFFFFFFFFFFFFFFFFFFFF AND DUP2 PUSH20 0xFFFFFFFFFFFFFFFFFFFFFFFFFFFFFFFFFFFFFFFF AND SUB PUSH2 0xCF4 JUMPI DUP2 PUSH1 0x40 MLOAD PUSH32 0xA388D26300000000000000000000000000000000000000000000000000000000 DUP2 MSTORE PUSH1 0x4 ADD PUSH2 0xCEB SWAP2 SWAP1 PUSH2 0x17FF JUMP JUMPDEST PUSH1 0x40 MLOAD DUP1 SWAP2 SUB SWAP1 REVERT JUMPDEST PUSH1 0x0 DUP1 DUP4 PUSH20 0xFFFFFFFFFFFFFFFFFFFFFFFFFFFFFFFFFFFFFFFF AND PUSH20 0xFFFFFFFFFFFFFFFFFFFFFFFFFFFFFFFFFFFFFFFF AND DUP2 MSTORE PUSH1 0x20 ADD SWAP1 DUP2 MSTORE PUSH1 0x20 ADD PUSH1 0x0 KECCAK256 PUSH1 0x2 ADD PUSH1 0x0 SWAP1 SLOAD SWAP1 PUSH2 0x100 EXP SWAP1 DIV PUSH20 0xFFFFFFFFFFFFFFFFFFFFFFFFFFFFFFFFFFFFFFFF AND PUSH20 0xFFFFFFFFFFFFFFFFFFFFFFFFFFFFFFFFFFFFFFFF AND DUP2 PUSH20 0xFFFFFFFFFFFFFFFFFFFFFFFFFFFFFFFFFFFFFFFF AND SUB PUSH2 0xDC7 JUMPI DUP2 DUP2 PUSH1 0x40 MLOAD PUSH32 0xCBC080CA00000000000000000000000000000000000000000000000000000000 DUP2 MSTORE PUSH1 0x4 ADD PUSH2 0xDBE SWAP3 SWAP2 SWAP1 PUSH2 0x1C26 JUMP JUMPDEST PUSH1 0x40 MLOAD DUP1 SWAP2 SUB SWAP1 REVERT JUMPDEST DUP1 PUSH20 0xFFFFFFFFFFFFFFFFFFFFFFFFFFFFFFFFFFFFFFFF AND PUSH32 0x11A3CF439FB225BFE74225716B6774765670EC1060E3796802E62139D69974DA PUSH1 0x40 MLOAD PUSH1 0x40 MLOAD DUP1 SWAP2 SUB SWAP1 LOG2 DUP1 PUSH1 0x0 DUP1 DUP5 PUSH20 0xFFFFFFFFFFFFFFFFFFFFFFFFFFFFFFFFFFFFFFFF AND PUSH20 0xFFFFFFFFFFFFFFFFFFFFFFFFFFFFFFFFFFFFFFFF AND DUP2 MSTORE PUSH1 0x20 ADD SWAP1 DUP2 MSTORE PUSH1 0x20 ADD PUSH1 0x0 KECCAK256 PUSH1 0x2 ADD PUSH1 0x0 PUSH2 0x100 EXP DUP2 SLOAD DUP2 PUSH20 0xFFFFFFFFFFFFFFFFFFFFFFFFFFFFFFFFFFFFFFFF MUL NOT AND SWAP1 DUP4 PUSH20 0xFFFFFFFFFFFFFFFFFFFFFFFFFFFFFFFFFFFFFFFF AND MUL OR SWAP1 SSTORE POP POP POP JUMP JUMPDEST PUSH1 0x0 DUP1 PUSH1 0xFF PUSH1 0xF8 SHL ADDRESS DUP5 PUSH32 0x0 PUSH1 0x40 MLOAD PUSH1 0x20 ADD PUSH2 0xECC SWAP5 SWAP4 SWAP3 SWAP2 SWAP1 PUSH2 0x1D05 JUMP JUMPDEST PUSH1 0x40 MLOAD PUSH1 0x20 DUP2 DUP4 SUB SUB DUP2 MSTORE SWAP1 PUSH1 0x40 MSTORE DUP1 MLOAD SWAP1 PUSH1 0x20 ADD KECCAK256 PUSH1 0x0 SHR SWAP2 POP PUSH32 0x0 DUP3 PUSH20 0xFFFFFFFFFFFFFFFFFFFFFFFFFFFFFFFFFFFFFFFF AND EXTCODEHASH EQ SWAP1 POP SWAP2 POP SWAP2 JUMP JUMPDEST PUSH1 0x0 DUP1 PUSH20 0xFFFFFFFFFFFFFFFFFFFFFFFFFFFFFFFFFFFFFFFF AND DUP3 PUSH20 0xFFFFFFFFFFFFFFFFFFFFFFFFFFFFFFFFFFFFFFFF AND SUB PUSH2 0xF8F JUMPI PUSH1 0x40 MLOAD PUSH32 0x99FAAA0400000000000000000000000000000000000000000000000000000000 DUP2 MSTORE PUSH1 0x4 ADD PUSH1 0x40 MLOAD DUP1 SWAP2 SUB SWAP1 REVERT JUMPDEST CALLER PUSH20 0xFFFFFFFFFFFFFFFFFFFFFFFFFFFFFFFFFFFFFFFF AND DUP4 PUSH1 0x60 SHR PUSH20 0xFFFFFFFFFFFFFFFFFFFFFFFFFFFFFFFFFFFFFFFF AND EQ PUSH2 0xFF7 JUMPI PUSH1 0x40 MLOAD PUSH32 0xCB6E534400000000000000000000000000000000000000000000000000000000 DUP2 MSTORE PUSH1 0x4 ADD PUSH1 0x40 MLOAD DUP1 SWAP2 SUB SWAP1 REVERT JUMPDEST PUSH1 0xFF PUSH1 0xF8 SHL ADDRESS DUP5 PUSH32 0x0 PUSH1 0x40 MLOAD PUSH1 0x20 ADD PUSH2 0x1032 SWAP5 SWAP4 SWAP3 SWAP2 SWAP1 PUSH2 0x1D05 JUMP JUMPDEST PUSH1 0x40 MLOAD PUSH1 0x20 DUP2 DUP4 SUB SUB DUP2 MSTORE SWAP1 PUSH1 0x40 MSTORE DUP1 MLOAD SWAP1 PUSH1 0x20 ADD KECCAK256 PUSH1 0x0 SHR SWAP1 POP PUSH32 0x0 DUP2 PUSH20 0xFFFFFFFFFFFFFFFFFFFFFFFFFFFFFFFFFFFFFFFF AND EXTCODEHASH SUB PUSH2 0x10C8 JUMPI DUP1 PUSH1 0x40 MLOAD PUSH32 0x6328CCB200000000000000000000000000000000000000000000000000000000 DUP2 MSTORE PUSH1 0x4 ADD PUSH2 0x10BF SWAP2 SWAP1 PUSH2 0x17FF JUMP JUMPDEST PUSH1 0x40 MLOAD DUP1 SWAP2 SUB SWAP1 REVERT JUMPDEST DUP3 PUSH1 0x40 MLOAD PUSH2 0x10D5 SWAP1 PUSH2 0x170A JUMP JUMPDEST DUP2 SWAP1 PUSH1 0x40 MLOAD DUP1 SWAP2 SUB SWAP1 PUSH1 0x0 CREATE2 SWAP1 POP DUP1 ISZERO DUP1 ISZERO PUSH2 0x10F5 JUMPI RETURNDATASIZE PUSH1 0x0 DUP1 RETURNDATACOPY RETURNDATASIZE PUSH1 0x0 REVERT JUMPDEST POP POP PUSH1 0x0 DUP1 PUSH1 0x0 DUP4 PUSH20 0xFFFFFFFFFFFFFFFFFFFFFFFFFFFFFFFFFFFFFFFF AND PUSH20 0xFFFFFFFFFFFFFFFFFFFFFFFFFFFFFFFFFFFFFFFF AND DUP2 MSTORE PUSH1 0x20 ADD SWAP1 DUP2 MSTORE PUSH1 0x20 ADD PUSH1 0x0 KECCAK256 SWAP1 POP DUP3 DUP2 PUSH1 0x1 ADD PUSH1 0x0 PUSH2 0x100 EXP DUP2 SLOAD DUP2 PUSH20 0xFFFFFFFFFFFFFFFFFFFFFFFFFFFFFFFFFFFFFFFF MUL NOT AND SWAP1 DUP4 PUSH20 0xFFFFFFFFFFFFFFFFFFFFFFFFFFFFFFFFFFFFFFFF AND MUL OR SWAP1 SSTORE POP DUP4 DUP2 PUSH1 0x0 ADD DUP2 SWAP1 SSTORE POP PUSH32 0x4397AF6128D529B8AE0442F99DB1296D5136062597A15BBC61C1B2A6431A7D15 DUP3 DUP6 PUSH1 0x40 MLOAD PUSH2 0x11B6 SWAP3 SWAP2 SWAP1 PUSH2 0x1D53 JUMP JUMPDEST PUSH1 0x40 MLOAD DUP1 SWAP2 SUB SWAP1 LOG1 DUP3 PUSH20 0xFFFFFFFFFFFFFFFFFFFFFFFFFFFFFFFFFFFFFFFF AND PUSH1 0x0 PUSH20 0xFFFFFFFFFFFFFFFFFFFFFFFFFFFFFFFFFFFFFFFF AND DUP4 PUSH20 0xFFFFFFFFFFFFFFFFFFFFFFFFFFFFFFFFFFFFFFFF AND PUSH32 0xC8894F26F396CE8C004245C8B7CD1B92103A6E4302FCBAB883987149AC01B7EC PUSH1 0x40 MLOAD PUSH1 0x40 MLOAD DUP1 SWAP2 SUB SWAP1 LOG4 POP SWAP3 SWAP2 POP POP JUMP JUMPDEST PUSH2 0x1240 DUP2 PUSH2 0x162D JUMP JUMPDEST PUSH1 0x0 PUSH20 0xFFFFFFFFFFFFFFFFFFFFFFFFFFFFFFFFFFFFFFFF AND PUSH1 0x0 DUP1 DUP4 PUSH20 0xFFFFFFFFFFFFFFFFFFFFFFFFFFFFFFFFFFFFFFFF AND PUSH20 0xFFFFFFFFFFFFFFFFFFFFFFFFFFFFFFFFFFFFFFFF AND DUP2 MSTORE PUSH1 0x20 ADD SWAP1 DUP2 MSTORE PUSH1 0x20 ADD PUSH1 0x0 KECCAK256 PUSH1 0x2 ADD PUSH1 0x0 SWAP1 SLOAD SWAP1 PUSH2 0x100 EXP SWAP1 DIV PUSH20 0xFFFFFFFFFFFFFFFFFFFFFFFFFFFFFFFFFFFFFFFF AND PUSH20 0xFFFFFFFFFFFFFFFFFFFFFFFFFFFFFFFFFFFFFFFF AND SUB PUSH2 0x1312 JUMPI DUP1 PUSH1 0x40 MLOAD PUSH32 0x6B01361600000000000000000000000000000000000000000000000000000000 DUP2 MSTORE PUSH1 0x4 ADD PUSH2 0x1309 SWAP2 SWAP1 PUSH2 0x17FF JUMP JUMPDEST PUSH1 0x40 MLOAD DUP1 SWAP2 SUB SWAP1 REVERT JUMPDEST PUSH1 0x0 PUSH20 0xFFFFFFFFFFFFFFFFFFFFFFFFFFFFFFFFFFFFFFFF AND PUSH32 0x11A3CF439FB225BFE74225716B6774765670EC1060E3796802E62139D69974DA PUSH1 0x40 MLOAD PUSH1 0x40 MLOAD DUP1 SWAP2 SUB SWAP1 LOG2 PUSH1 0x0 DUP1 PUSH1 0x0 DUP4 PUSH20 0xFFFFFFFFFFFFFFFFFFFFFFFFFFFFFFFFFFFFFFFF AND PUSH20 0xFFFFFFFFFFFFFFFFFFFFFFFFFFFFFFFFFFFFFFFF AND DUP2 MSTORE PUSH1 0x20 ADD SWAP1 DUP2 MSTORE PUSH1 0x20 ADD PUSH1 0x0 KECCAK256 PUSH1 0x2 ADD PUSH1 0x0 PUSH2 0x100 EXP DUP2 SLOAD DUP2 PUSH20 0xFFFFFFFFFFFFFFFFFFFFFFFFFFFFFFFFFFFFFFFF MUL NOT AND SWAP1 DUP4 PUSH20 0xFFFFFFFFFFFFFFFFFFFFFFFFFFFFFFFFFFFFFFFF AND MUL OR SWAP1 SSTORE POP POP JUMP JUMPDEST PUSH1 0x60 PUSH2 0x13E5 DUP3 PUSH2 0x15AD JUMP JUMPDEST PUSH1 0x0 DUP1 DUP4 PUSH20 0xFFFFFFFFFFFFFFFFFFFFFFFFFFFFFFFFFFFFFFFF AND PUSH20 0xFFFFFFFFFFFFFFFFFFFFFFFFFFFFFFFFFFFFFFFF AND DUP2 MSTORE PUSH1 0x20 ADD SWAP1 DUP2 MSTORE PUSH1 0x20 ADD PUSH1 0x0 KECCAK256 PUSH1 0x3 ADD DUP1 SLOAD DUP1 PUSH1 0x20 MUL PUSH1 0x20 ADD PUSH1 0x40 MLOAD SWAP1 DUP2 ADD PUSH1 0x40 MSTORE DUP1 SWAP3 SWAP2 SWAP1 DUP2 DUP2 MSTORE PUSH1 0x20 ADD DUP3 DUP1 SLOAD DUP1 ISZERO PUSH2 0x14A6 JUMPI PUSH1 0x20 MUL DUP3 ADD SWAP2 SWAP1 PUSH1 0x0 MSTORE PUSH1 0x20 PUSH1 0x0 KECCAK256 SWAP1 JUMPDEST DUP2 PUSH1 0x0 SWAP1 SLOAD SWAP1 PUSH2 0x100 EXP SWAP1 DIV PUSH20 0xFFFFFFFFFFFFFFFFFFFFFFFFFFFFFFFFFFFFFFFF AND PUSH20 0xFFFFFFFFFFFFFFFFFFFFFFFFFFFFFFFFFFFFFFFF AND DUP2 MSTORE PUSH1 0x20 ADD SWAP1 PUSH1 0x1 ADD SWAP1 DUP1 DUP4 GT PUSH2 0x145C JUMPI JUMPDEST POP POP POP POP POP SWAP1 POP SWAP2 SWAP1 POP JUMP JUMPDEST PUSH1 0x0 PUSH2 0x14BD DUP3 PUSH2 0x15AD JUMP JUMPDEST PUSH1 0x0 DUP1 DUP4 PUSH20 0xFFFFFFFFFFFFFFFFFFFFFFFFFFFFFFFFFFFFFFFF AND PUSH20 0xFFFFFFFFFFFFFFFFFFFFFFFFFFFFFFFFFFFFFFFF AND DUP2 MSTORE PUSH1 0x20 ADD SWAP1 DUP2 MSTORE PUSH1 0x20 ADD PUSH1 0x0 KECCAK256 PUSH1 0x2 ADD PUSH1 0x0 SWAP1 SLOAD SWAP1 PUSH2 0x100 EXP SWAP1 DIV PUSH20 0xFFFFFFFFFFFFFFFFFFFFFFFFFFFFFFFFFFFFFFFF AND SWAP1 POP SWAP2 SWAP1 POP JUMP JUMPDEST PUSH1 0x0 DUP1 PUSH1 0x0 DUP4 PUSH20 0xFFFFFFFFFFFFFFFFFFFFFFFFFFFFFFFFFFFFFFFF AND PUSH20 0xFFFFFFFFFFFFFFFFFFFFFFFFFFFFFFFFFFFFFFFF AND DUP2 MSTORE PUSH1 0x20 ADD SWAP1 DUP2 MSTORE PUSH1 0x20 ADD PUSH1 0x0 KECCAK256 PUSH1 0x0 ADD SLOAD SWAP1 POP PUSH1 0x0 DUP1 SHL DUP2 SUB PUSH2 0x15A8 JUMPI PUSH1 0x40 MLOAD PUSH32 0x4CA8209000000000000000000000000000000000000000000000000000000000 DUP2 MSTORE PUSH1 0x4 ADD PUSH1 0x40 MLOAD DUP1 SWAP2 SUB SWAP1 REVERT JUMPDEST SWAP2 SWAP1 POP JUMP JUMPDEST PUSH1 0x0 DUP1 SHL PUSH1 0x0 DUP1 DUP4 PUSH20 0xFFFFFFFFFFFFFFFFFFFFFFFFFFFFFFFFFFFFFFFF AND PUSH20 0xFFFFFFFFFFFFFFFFFFFFFFFFFFFFFFFFFFFFFFFF AND DUP2 MSTORE PUSH1 0x20 ADD SWAP1 DUP2 MSTORE PUSH1 0x20 ADD PUSH1 0x0 KECCAK256 PUSH1 0x0 ADD SLOAD SUB PUSH2 0x162A JUMPI PUSH1 0x40 MLOAD PUSH32 0x4CA8209000000000000000000000000000000000000000000000000000000000 DUP2 MSTORE PUSH1 0x4 ADD PUSH1 0x40 MLOAD DUP1 SWAP2 SUB SWAP1 REVERT JUMPDEST POP JUMP JUMPDEST PUSH2 0x1636 DUP2 PUSH2 0x15AD JUMP JUMPDEST PUSH1 0x0 DUP1 DUP3 PUSH20 0xFFFFFFFFFFFFFFFFFFFFFFFFFFFFFFFFFFFFFFFF AND PUSH20 0xFFFFFFFFFFFFFFFFFFFFFFFFFFFFFFFFFFFFFFFF AND DUP2 MSTORE PUSH1 0x20 ADD SWAP1 DUP2 MSTORE PUSH1 0x20 ADD PUSH1 0x0 KECCAK256 PUSH1 0x1 ADD PUSH1 0x0 SWAP1 SLOAD SWAP1 PUSH2 0x100 EXP SWAP1 DIV PUSH20 0xFFFFFFFFFFFFFFFFFFFFFFFFFFFFFFFFFFFFFFFF AND PUSH20 0xFFFFFFFFFFFFFFFFFFFFFFFFFFFFFFFFFFFFFFFF AND CALLER PUSH20 0xFFFFFFFFFFFFFFFFFFFFFFFFFFFFFFFFFFFFFFFF AND EQ PUSH2 0x1707 JUMPI DUP1 PUSH1 0x40 MLOAD PUSH32 0xD4ED9A1700000000000000000000000000000000000000000000000000000000 DUP2 MSTORE PUSH1 0x4 ADD PUSH2 0x16FE SWAP2 SWAP1 PUSH2 0x17FF JUMP JUMPDEST PUSH1 0x40 MLOAD DUP1 SWAP2 SUB SWAP1 REVERT JUMPDEST POP JUMP JUMPDEST PUSH2 0x10AE DUP1 PUSH2 0x1D7D DUP4 CODECOPY ADD SWAP1 JUMP JUMPDEST PUSH1 0x0 DUP1 REVERT JUMPDEST PUSH1 0x0 PUSH20 0xFFFFFFFFFFFFFFFFFFFFFFFFFFFFFFFFFFFFFFFF DUP3 AND SWAP1 POP SWAP2 SWAP1 POP JUMP JUMPDEST PUSH1 0x0 PUSH2 0x1747 DUP3 PUSH2 0x171C JUMP JUMPDEST SWAP1 POP SWAP2 SWAP1 POP JUMP JUMPDEST PUSH2 0x1757 DUP2 PUSH2 0x173C JUMP JUMPDEST DUP2 EQ PUSH2 0x1762 JUMPI PUSH1 0x0 DUP1 REVERT JUMPDEST POP JUMP JUMPDEST PUSH1 0x0 DUP2 CALLDATALOAD SWAP1 POP PUSH2 0x1774 DUP2 PUSH2 0x174E JUMP JUMPDEST SWAP3 SWAP2 POP POP JUMP JUMPDEST PUSH1 0x0 DUP2 SWAP1 POP SWAP2 SWAP1 POP JUMP JUMPDEST PUSH2 0x178D DUP2 PUSH2 0x177A JUMP JUMPDEST DUP2 EQ PUSH2 0x1798 JUMPI PUSH1 0x0 DUP1 REVERT JUMPDEST POP JUMP JUMPDEST PUSH1 0x0 DUP2 CALLDATALOAD SWAP1 POP PUSH2 0x17AA DUP2 PUSH2 0x1784 JUMP JUMPDEST SWAP3 SWAP2 POP POP JUMP JUMPDEST PUSH1 0x0 DUP1 PUSH1 0x40 DUP4 DUP6 SUB SLT ISZERO PUSH2 0x17C7 JUMPI PUSH2 0x17C6 PUSH2 0x1717 JUMP JUMPDEST JUMPDEST PUSH1 0x0 PUSH2 0x17D5 DUP6 DUP3 DUP7 ADD PUSH2 0x1765 JUMP JUMPDEST SWAP3 POP POP PUSH1 0x20 PUSH2 0x17E6 DUP6 DUP3 DUP7 ADD PUSH2 0x179B JUMP JUMPDEST SWAP2 POP POP SWAP3 POP SWAP3 SWAP1 POP JUMP JUMPDEST PUSH2 0x17F9 DUP2 PUSH2 0x173C JUMP JUMPDEST DUP3 MSTORE POP POP JUMP JUMPDEST PUSH1 0x0 PUSH1 0x20 DUP3 ADD SWAP1 POP PUSH2 0x1814 PUSH1 0x0 DUP4 ADD DUP5 PUSH2 0x17F0 JUMP JUMPDEST SWAP3 SWAP2 POP POP JUMP JUMPDEST PUSH1 0x0 DUP2 SWAP1 POP SWAP2 SWAP1 POP JUMP JUMPDEST PUSH2 0x182D DUP2 PUSH2 0x181A JUMP JUMPDEST DUP3 MSTORE POP POP JUMP JUMPDEST PUSH1 0x0 PUSH1 0x40 DUP3 ADD SWAP1 POP PUSH2 0x1848 PUSH1 0x0 DUP4 ADD DUP6 PUSH2 0x1824 JUMP JUMPDEST PUSH2 0x1855 PUSH1 0x20 DUP4 ADD DUP5 PUSH2 0x1824 JUMP JUMPDEST SWAP4 SWAP3 POP POP POP JUMP JUMPDEST PUSH1 0x0 DUP2 ISZERO ISZERO SWAP1 POP SWAP2 SWAP1 POP JUMP JUMPDEST PUSH2 0x1871 DUP2 PUSH2 0x185C JUMP JUMPDEST DUP2 EQ PUSH2 0x187C JUMPI PUSH1 0x0 DUP1 REVERT JUMPDEST POP JUMP JUMPDEST PUSH1 0x0 DUP2 CALLDATALOAD SWAP1 POP PUSH2 0x188E DUP2 PUSH2 0x1868 JUMP JUMPDEST SWAP3 SWAP2 POP POP JUMP JUMPDEST PUSH1 0x0 DUP1 PUSH1 0x0 PUSH1 0x60 DUP5 DUP7 SUB SLT ISZERO PUSH2 0x18AD JUMPI PUSH2 0x18AC PUSH2 0x1717 JUMP JUMPDEST JUMPDEST PUSH1 0x0 PUSH2 0x18BB DUP7 DUP3 DUP8 ADD PUSH2 0x1765 JUMP JUMPDEST SWAP4 POP POP PUSH1 0x20 PUSH2 0x18CC DUP7 DUP3 DUP8 ADD PUSH2 0x1765 JUMP JUMPDEST SWAP3 POP POP PUSH1 0x40 PUSH2 0x18DD DUP7 DUP3 DUP8 ADD PUSH2 0x187F JUMP JUMPDEST SWAP2 POP POP SWAP3 POP SWAP3 POP SWAP3 JUMP JUMPDEST PUSH1 0x0 PUSH1 0x20 DUP3 DUP5 SUB SLT ISZERO PUSH2 0x18FD JUMPI PUSH2 0x18FC PUSH2 0x1717 JUMP JUMPDEST JUMPDEST PUSH1 0x0 PUSH2 0x190B DUP5 DUP3 DUP6 ADD PUSH2 0x1765 JUMP JUMPDEST SWAP2 POP POP SWAP3 SWAP2 POP POP JUMP JUMPDEST PUSH1 0x0 DUP1 PUSH1 0x40 DUP4 DUP6 SUB SLT ISZERO PUSH2 0x192B JUMPI PUSH2 0x192A PUSH2 0x1717 JUMP JUMPDEST JUMPDEST PUSH1 0x0 PUSH2 0x1939 DUP6 DUP3 DUP7 ADD PUSH2 0x1765 JUMP JUMPDEST SWAP3 POP POP PUSH1 0x20 PUSH2 0x194A DUP6 DUP3 DUP7 ADD PUSH2 0x1765 JUMP JUMPDEST SWAP2 POP POP SWAP3 POP SWAP3 SWAP1 POP JUMP JUMPDEST PUSH2 0x195D DUP2 PUSH2 0x185C JUMP JUMPDEST DUP3 MSTORE POP POP JUMP JUMPDEST PUSH1 0x0 PUSH1 0x20 DUP3 ADD SWAP1 POP PUSH2 0x1978 PUSH1 0x0 DUP4 ADD DUP5 PUSH2 0x1954 JUMP JUMPDEST SWAP3 SWAP2 POP POP JUMP JUMPDEST PUSH2 0x1987 DUP2 PUSH2 0x177A JUMP JUMPDEST DUP3 MSTORE POP POP JUMP JUMPDEST PUSH1 0x0 PUSH1 0x20 DUP3 ADD SWAP1 POP PUSH2 0x19A2 PUSH1 0x0 DUP4 ADD DUP5 PUSH2 0x197E JUMP JUMPDEST SWAP3 SWAP2 POP POP JUMP JUMPDEST PUSH2 0x19B1 DUP2 PUSH2 0x181A JUMP JUMPDEST DUP2 EQ PUSH2 0x19BC JUMPI PUSH1 0x0 DUP1 REVERT JUMPDEST POP JUMP JUMPDEST PUSH1 0x0 DUP2 CALLDATALOAD SWAP1 POP PUSH2 0x19CE DUP2 PUSH2 0x19A8 JUMP JUMPDEST SWAP3 SWAP2 POP POP JUMP JUMPDEST PUSH1 0x0 PUSH1 0x20 DUP3 DUP5 SUB SLT ISZERO PUSH2 0x19EA JUMPI PUSH2 0x19E9 PUSH2 0x1717 JUMP JUMPDEST JUMPDEST PUSH1 0x0 PUSH2 0x19F8 DUP5 DUP3 DUP6 ADD PUSH2 0x19BF JUMP JUMPDEST SWAP2 POP POP SWAP3 SWAP2 POP POP JUMP JUMPDEST PUSH1 0x0 PUSH1 0x40 DUP3 ADD SWAP1 POP PUSH2 0x1A16 PUSH1 0x0 DUP4 ADD DUP6 PUSH2 0x17F0 JUMP JUMPDEST PUSH2 0x1A23 PUSH1 0x20 DUP4 ADD DUP5 PUSH2 0x1954 JUMP JUMPDEST SWAP4 SWAP3 POP POP POP JUMP JUMPDEST PUSH1 0x0 DUP1 PUSH1 0x40 DUP4 DUP6 SUB SLT ISZERO PUSH2 0x1A41 JUMPI PUSH2 0x1A40 PUSH2 0x1717 JUMP JUMPDEST JUMPDEST PUSH1 0x0 PUSH2 0x1A4F DUP6 DUP3 DUP7 ADD PUSH2 0x19BF JUMP JUMPDEST SWAP3 POP POP PUSH1 0x20 PUSH2 0x1A60 DUP6 DUP3 DUP7 ADD PUSH2 0x1765 JUMP JUMPDEST SWAP2 POP POP SWAP3 POP SWAP3 SWAP1 POP JUMP JUMPDEST PUSH1 0x0 DUP2 MLOAD SWAP1 POP SWAP2 SWAP1 POP JUMP JUMPDEST PUSH1 0x0 DUP3 DUP3 MSTORE PUSH1 0x20 DUP3 ADD SWAP1 POP SWAP3 SWAP2 POP POP JUMP JUMPDEST PUSH1 0x0 DUP2 SWAP1 POP PUSH1 0x20 DUP3 ADD SWAP1 POP SWAP2 SWAP1 POP JUMP JUMPDEST PUSH2 0x1A9F DUP2 PUSH2 0x173C JUMP JUMPDEST DUP3 MSTORE POP POP JUMP JUMPDEST PUSH1 0x0 PUSH2 0x1AB1 DUP4 DUP4 PUSH2 0x1A96 JUMP JUMPDEST PUSH1 0x20 DUP4 ADD SWAP1 POP SWAP3 SWAP2 POP POP JUMP JUMPDEST PUSH1 0x0 PUSH1 0x20 DUP3 ADD SWAP1 POP SWAP2 SWAP1 POP JUMP JUMPDEST PUSH1 0x0 PUSH2 0x1AD5 DUP3 PUSH2 0x1A6A JUMP JUMPDEST PUSH2 0x1ADF DUP2 DUP6 PUSH2 0x1A75 JUMP JUMPDEST SWAP4 POP PUSH2 0x1AEA DUP4 PUSH2 0x1A86 JUMP JUMPDEST DUP1 PUSH1 0x0 JUMPDEST DUP4 DUP2 LT ISZERO PUSH2 0x1B1B JUMPI DUP2 MLOAD PUSH2 0x1B02 DUP9 DUP3 PUSH2 0x1AA5 JUMP JUMPDEST SWAP8 POP PUSH2 0x1B0D DUP4 PUSH2 0x1ABD JUMP JUMPDEST SWAP3 POP POP PUSH1 0x1 DUP2 ADD SWAP1 POP PUSH2 0x1AEE JUMP JUMPDEST POP DUP6 SWAP4 POP POP POP POP SWAP3 SWAP2 POP POP JUMP JUMPDEST PUSH1 0x0 PUSH1 0x20 DUP3 ADD SWAP1 POP DUP2 DUP2 SUB PUSH1 0x0 DUP4 ADD MSTORE PUSH2 0x1B42 DUP2 DUP5 PUSH2 0x1ACA JUMP JUMPDEST SWAP1 POP SWAP3 SWAP2 POP POP JUMP JUMPDEST PUSH1 0x0 PUSH1 0x20 DUP3 ADD SWAP1 POP PUSH2 0x1B5F PUSH1 0x0 DUP4 ADD DUP5 PUSH2 0x1824 JUMP JUMPDEST SWAP3 SWAP2 POP POP JUMP JUMPDEST PUSH32 0x4E487B7100000000000000000000000000000000000000000000000000000000 PUSH1 0x0 MSTORE PUSH1 0x32 PUSH1 0x4 MSTORE PUSH1 0x24 PUSH1 0x0 REVERT JUMPDEST PUSH32 0x4E487B7100000000000000000000000000000000000000000000000000000000 PUSH1 0x0 MSTORE PUSH1 0x11 PUSH1 0x4 MSTORE PUSH1 0x24 PUSH1 0x0 REVERT JUMPDEST PUSH1 0x0 PUSH2 0x1BCE DUP3 PUSH2 0x177A JUMP JUMPDEST SWAP2 POP PUSH2 0x1BD9 DUP4 PUSH2 0x177A JUMP JUMPDEST SWAP3 POP DUP3 DUP3 SUB SWAP1 POP DUP2 DUP2 GT ISZERO PUSH2 0x1BF1 JUMPI PUSH2 0x1BF0 PUSH2 0x1B94 JUMP JUMPDEST JUMPDEST SWAP3 SWAP2 POP POP JUMP JUMPDEST PUSH32 0x4E487B7100000000000000000000000000000000000000000000000000000000 PUSH1 0x0 MSTORE PUSH1 0x31 PUSH1 0x4 MSTORE PUSH1 0x24 PUSH1 0x0 REVERT JUMPDEST PUSH1 0x0 PUSH1 0x40 DUP3 ADD SWAP1 POP PUSH2 0x1C3B PUSH1 0x0 DUP4 ADD DUP6 PUSH2 0x17F0 JUMP JUMPDEST PUSH2 0x1C48 PUSH1 0x20 DUP4 ADD DUP5 PUSH2 0x17F0 JUMP JUMPDEST SWAP4 SWAP3 POP POP POP JUMP JUMPDEST PUSH1 0x0 PUSH32 0xFF00000000000000000000000000000000000000000000000000000000000000 DUP3 AND SWAP1 POP SWAP2 SWAP1 POP JUMP JUMPDEST PUSH1 0x0 DUP2 SWAP1 POP SWAP2 SWAP1 POP JUMP JUMPDEST PUSH2 0x1C96 PUSH2 0x1C91 DUP3 PUSH2 0x1C4F JUMP JUMPDEST PUSH2 0x1C7B JUMP JUMPDEST DUP3 MSTORE POP POP JUMP JUMPDEST PUSH1 0x0 DUP2 PUSH1 0x60 SHL SWAP1 POP SWAP2 SWAP1 POP JUMP JUMPDEST PUSH1 0x0 PUSH2 0x1CB4 DUP3 PUSH2 0x1C9C JUMP JUMPDEST SWAP1 POP SWAP2 SWAP1 POP JUMP JUMPDEST PUSH1 0x0 PUSH2 0x1CC6 DUP3 PUSH2 0x1CA9 JUMP JUMPDEST SWAP1 POP SWAP2 SWAP1 POP JUMP JUMPDEST PUSH2 0x1CDE PUSH2 0x1CD9 DUP3 PUSH2 0x173C JUMP JUMPDEST PUSH2 0x1CBB JUMP JUMPDEST DUP3 MSTORE POP POP JUMP JUMPDEST PUSH1 0x0 DUP2 SWAP1 POP SWAP2 SWAP1 POP JUMP JUMPDEST PUSH2 0x1CFF PUSH2 0x1CFA DUP3 PUSH2 0x181A JUMP JUMPDEST PUSH2 0x1CE4 JUMP JUMPDEST DUP3 MSTORE POP POP JUMP JUMPDEST PUSH1 0x0 PUSH2 0x1D11 DUP3 DUP8 PUSH2 0x1C85 JUMP JUMPDEST PUSH1 0x1 DUP3 ADD SWAP2 POP PUSH2 0x1D21 DUP3 DUP7 PUSH2 0x1CCD JUMP JUMPDEST PUSH1 0x14 DUP3 ADD SWAP2 POP PUSH2 0x1D31 DUP3 DUP6 PUSH2 0x1CEE JUMP JUMPDEST PUSH1 0x20 DUP3 ADD SWAP2 POP PUSH2 0x1D41 DUP3 DUP5 PUSH2 0x1CEE JUMP JUMPDEST PUSH1 0x20 DUP3 ADD SWAP2 POP DUP2 SWAP1 POP SWAP6 SWAP5 POP POP POP POP POP JUMP JUMPDEST PUSH1 0x0 PUSH1 0x40 DUP3 ADD SWAP1 POP PUSH2 0x1D68 PUSH1 0x0 DUP4 ADD DUP6 PUSH2 0x17F0 JUMP JUMPDEST PUSH2 0x1D75 PUSH1 0x20 DUP4 ADD DUP5 PUSH2 0x1824 JUMP JUMPDEST SWAP4 SWAP3 POP POP POP JUMP INVALID PUSH1 0xA0 PUSH1 0x40 MSTORE CALLVALUE DUP1 ISZERO PUSH2 0x10 JUMPI PUSH1 0x0 DUP1 REVERT JUMPDEST POP CALLER PUSH20 0xFFFFFFFFFFFFFFFFFFFFFFFFFFFFFFFFFFFFFFFF AND PUSH1 0x80 DUP2 PUSH20 0xFFFFFFFFFFFFFFFFFFFFFFFFFFFFFFFFFFFFFFFF AND DUP2 MSTORE POP POP PUSH1 0x80 MLOAD PUSH2 0x104E PUSH2 0x60 PUSH1 0x0 CODECOPY PUSH1 0x0 PUSH2 0x290 ADD MSTORE PUSH2 0x104E PUSH1 0x0 RETURN INVALID PUSH1 0x80 PUSH1 0x40 MSTORE CALLVALUE DUP1 ISZERO PUSH2 0x10 JUMPI PUSH1 0x0 DUP1 REVERT JUMPDEST POP PUSH1 0x4 CALLDATASIZE LT PUSH2 0x4C JUMPI PUSH1 0x0 CALLDATALOAD PUSH1 0xE0 SHR DUP1 PUSH4 0x4CE34AA2 EQ PUSH2 0x51 JUMPI DUP1 PUSH4 0x899E104C EQ PUSH2 0x81 JUMPI DUP1 PUSH4 0x8DF25D92 EQ PUSH2 0xB1 JUMPI DUP1 PUSH4 0xC4E8FCB5 EQ PUSH2 0xE1 JUMPI JUMPDEST PUSH1 0x0 DUP1 REVERT JUMPDEST PUSH2 0x6B PUSH1 0x4 DUP1 CALLDATASIZE SUB DUP2 ADD SWAP1 PUSH2 0x66 SWAP2 SWAP1 PUSH2 0xC3C JUMP JUMPDEST PUSH2 0xFD JUMP JUMPDEST PUSH1 0x40 MLOAD PUSH2 0x78 SWAP2 SWAP1 PUSH2 0xCC4 JUMP JUMPDEST PUSH1 0x40 MLOAD DUP1 SWAP2 SUB SWAP1 RETURN JUMPDEST PUSH2 0x9B PUSH1 0x4 DUP1 CALLDATASIZE SUB DUP2 ADD SWAP1 PUSH2 0x96 SWAP2 SWAP1 PUSH2 0xD35 JUMP JUMPDEST PUSH2 0x191 JUMP JUMPDEST PUSH1 0x40 MLOAD PUSH2 0xA8 SWAP2 SWAP1 PUSH2 0xCC4 JUMP JUMPDEST PUSH1 0x40 MLOAD DUP1 SWAP2 SUB SWAP1 RETURN JUMPDEST PUSH2 0xCB PUSH1 0x4 DUP1 CALLDATASIZE SUB DUP2 ADD SWAP1 PUSH2 0xC6 SWAP2 SWAP1 PUSH2 0xDB6 JUMP JUMPDEST PUSH2 0x231 JUMP JUMPDEST PUSH1 0x40 MLOAD PUSH2 0xD8 SWAP2 SWAP1 PUSH2 0xCC4 JUMP JUMPDEST PUSH1 0x40 MLOAD DUP1 SWAP2 SUB SWAP1 RETURN JUMPDEST PUSH2 0xFB PUSH1 0x4 DUP1 CALLDATASIZE SUB DUP2 ADD SWAP1 PUSH2 0xF6 SWAP2 SWAP1 PUSH2 0xE99 JUMP JUMPDEST PUSH2 0x28E JUMP JUMPDEST STOP JUMPDEST PUSH1 0x0 CALLER PUSH1 0x0 MSTORE PUSH1 0x0 PUSH1 0x20 MSTORE PUSH1 0x40 PUSH1 0x0 KECCAK256 SLOAD PUSH2 0x140 JUMPI PUSH32 0x93DAADF200000000000000000000000000000000000000000000000000000000 PUSH1 0x0 MSTORE CALLER PUSH1 0x4 MSTORE PUSH1 0x24 PUSH1 0x0 REVERT JUMPDEST PUSH1 0x0 DUP4 DUP4 SWAP1 POP SWAP1 POP PUSH1 0x0 JUMPDEST DUP2 DUP2 LT ISZERO PUSH2 0x17F JUMPI PUSH2 0x174 DUP6 DUP6 DUP4 DUP2 DUP2 LT PUSH2 0x169 JUMPI PUSH2 0x168 PUSH2 0xED9 JUMP JUMPDEST JUMPDEST SWAP1 POP PUSH1 0xC0 MUL ADD PUSH2 0x450 JUMP JUMPDEST DUP1 PUSH1 0x1 ADD SWAP1 POP PUSH2 0x14B JUMP JUMPDEST POP PUSH4 0x4CE34AA2 PUSH1 0xE0 SHL SWAP2 POP POP SWAP3 SWAP2 POP POP JUMP JUMPDEST PUSH1 0x0 CALLER PUSH1 0x0 MSTORE PUSH1 0x0 PUSH1 0x20 MSTORE PUSH1 0x40 PUSH1 0x0 KECCAK256 SLOAD PUSH2 0x1D4 JUMPI PUSH32 0x93DAADF200000000000000000000000000000000000000000000000000000000 PUSH1 0x0 MSTORE CALLER PUSH1 0x4 MSTORE PUSH1 0x24 PUSH1 0x0 REVERT JUMPDEST PUSH1 0x0 DUP6 DUP6 SWAP1 POP SWAP1 POP PUSH1 0x0 JUMPDEST DUP2 DUP2 LT ISZERO PUSH2 0x213 JUMPI PUSH2 0x208 DUP8 DUP8 DUP4 DUP2 DUP2 LT PUSH2 0x1FD JUMPI PUSH2 0x1FC PUSH2 0xED9 JUMP JUMPDEST JUMPDEST SWAP1 POP PUSH1 0xC0 MUL ADD PUSH2 0x450 JUMP JUMPDEST DUP1 PUSH1 0x1 ADD SWAP1 POP PUSH2 0x1DF JUMP JUMPDEST POP PUSH2 0x21E DUP5 DUP5 PUSH2 0x664 JUMP JUMPDEST PUSH4 0x899E104C PUSH1 0xE0 SHL SWAP2 POP POP SWAP5 SWAP4 POP POP POP POP JUMP JUMPDEST PUSH1 0x0 CALLER PUSH1 0x0 MSTORE PUSH1 0x0 PUSH1 0x20 MSTORE PUSH1 0x40 PUSH1 0x0 KECCAK256 SLOAD PUSH2 0x274 JUMPI PUSH32 0x93DAADF200000000000000000000000000000000000000000000000000000000 PUSH1 0x0 MSTORE CALLER PUSH1 0x4 MSTORE PUSH1 0x24 PUSH1 0x0 REVERT JUMPDEST PUSH2 0x27E DUP4 DUP4 PUSH2 0x664 JUMP JUMPDEST PUSH4 0x8DF25D92 PUSH1 0xE0 SHL SWAP1 POP SWAP3 SWAP2 POP POP JUMP JUMPDEST PUSH32 0x0 PUSH20 0xFFFFFFFFFFFFFFFFFFFFFFFFFFFFFFFFFFFFFFFF AND CALLER PUSH20 0xFFFFFFFFFFFFFFFFFFFFFFFFFFFFFFFFFFFFFFFF AND EQ PUSH2 0x313 JUMPI PUSH1 0x40 MLOAD PUSH32 0x6D5769BE00000000000000000000000000000000000000000000000000000000 DUP2 MSTORE PUSH1 0x4 ADD PUSH1 0x40 MLOAD DUP1 SWAP2 SUB SWAP1 REVERT JUMPDEST DUP1 ISZERO ISZERO PUSH1 0x0 DUP1 DUP5 PUSH20 0xFFFFFFFFFFFFFFFFFFFFFFFFFFFFFFFFFFFFFFFF AND PUSH20 0xFFFFFFFFFFFFFFFFFFFFFFFFFFFFFFFFFFFFFFFF AND DUP2 MSTORE PUSH1 0x20 ADD SWAP1 DUP2 MSTORE PUSH1 0x20 ADD PUSH1 0x0 KECCAK256 PUSH1 0x0 SWAP1 SLOAD SWAP1 PUSH2 0x100 EXP SWAP1 DIV PUSH1 0xFF AND ISZERO ISZERO SUB PUSH2 0x3A8 JUMPI DUP2 DUP2 PUSH1 0x40 MLOAD PUSH32 0x924E341E00000000000000000000000000000000000000000000000000000000 DUP2 MSTORE PUSH1 0x4 ADD PUSH2 0x39F SWAP3 SWAP2 SWAP1 PUSH2 0xF26 JUMP JUMPDEST PUSH1 0x40 MLOAD DUP1 SWAP2 SUB SWAP1 REVERT JUMPDEST DUP1 PUSH1 0x0 DUP1 DUP5 PUSH20 0xFFFFFFFFFFFFFFFFFFFFFFFFFFFFFFFFFFFFFFFF AND PUSH20 0xFFFFFFFFFFFFFFFFFFFFFFFFFFFFFFFFFFFFFFFF AND DUP2 MSTORE PUSH1 0x20 ADD SWAP1 DUP2 MSTORE PUSH1 0x20 ADD PUSH1 0x0 KECCAK256 PUSH1 0x0 PUSH2 0x100 EXP DUP2 SLOAD DUP2 PUSH1 0xFF MUL NOT AND SWAP1 DUP4 ISZERO ISZERO MUL OR SWAP1 SSTORE POP DUP2 PUSH20 0xFFFFFFFFFFFFFFFFFFFFFFFFFFFFFFFFFFFFFFFF AND PUSH32 0xAE63067D43AC07563B7EB8DB6595635FC77F1578A2A5EA06BA91B63E2AFA37E2 DUP3 PUSH1 0x40 MLOAD PUSH2 0x444 SWAP2 SWAP1 PUSH2 0xF4F JUMP JUMPDEST PUSH1 0x40 MLOAD DUP1 SWAP2 SUB SWAP1 LOG2 POP POP JUMP JUMPDEST PUSH1 0x1 PUSH1 0x3 DUP2 GT ISZERO PUSH2 0x464 JUMPI PUSH2 0x463 PUSH2 0xF6A JUMP JUMPDEST JUMPDEST DUP2 PUSH1 0x0 ADD PUSH1 0x20 DUP2 ADD SWAP1 PUSH2 0x477 SWAP2 SWAP1 PUSH2 0xFBE JUMP JUMPDEST PUSH1 0x3 DUP2 GT ISZERO PUSH2 0x489 JUMPI PUSH2 0x488 PUSH2 0xF6A JUMP JUMPDEST JUMPDEST SUB PUSH2 0x4D9 JUMPI PUSH2 0x4D4 DUP2 PUSH1 0x20 ADD PUSH1 0x20 DUP2 ADD SWAP1 PUSH2 0x4A4 SWAP2 SWAP1 PUSH2 0xFEB JUMP JUMPDEST DUP3 PUSH1 0x40 ADD PUSH1 0x20 DUP2 ADD SWAP1 PUSH2 0x4B7 SWAP2 SWAP1 PUSH2 0xFEB JUMP JUMPDEST DUP4 PUSH1 0x60 ADD PUSH1 0x20 DUP2 ADD SWAP1 PUSH2 0x4CA SWAP2 SWAP1 PUSH2 0xFEB JUMP JUMPDEST DUP5 PUSH1 0xA0 ADD CALLDATALOAD PUSH2 0x80C JUMP JUMPDEST PUSH2 0x661 JUMP JUMPDEST PUSH1 0x2 PUSH1 0x3 DUP2 GT ISZERO PUSH2 0x4ED JUMPI PUSH2 0x4EC PUSH2 0xF6A JUMP JUMPDEST JUMPDEST DUP2 PUSH1 0x0 ADD PUSH1 0x20 DUP2 ADD SWAP1 PUSH2 0x500 SWAP2 SWAP1 PUSH2 0xFBE JUMP JUMPDEST PUSH1 0x3 DUP2 GT ISZERO PUSH2 0x512 JUMPI PUSH2 0x511 PUSH2 0xF6A JUMP JUMPDEST JUMPDEST SUB PUSH2 0x5A0 JUMPI PUSH1 0x1 DUP2 PUSH1 0xA0 ADD CALLDATALOAD EQ PUSH2 0x555 JUMPI PUSH1 0x40 MLOAD PUSH32 0xEFCC00B100000000000000000000000000000000000000000000000000000000 DUP2 MSTORE PUSH1 0x4 ADD PUSH1 0x40 MLOAD DUP1 SWAP2 SUB SWAP1 REVERT JUMPDEST PUSH2 0x59B DUP2 PUSH1 0x20 ADD PUSH1 0x20 DUP2 ADD SWAP1 PUSH2 0x56B SWAP2 SWAP1 PUSH2 0xFEB JUMP JUMPDEST DUP3 PUSH1 0x40 ADD PUSH1 0x20 DUP2 ADD SWAP1 PUSH2 0x57E SWAP2 SWAP1 PUSH2 0xFEB JUMP JUMPDEST DUP4 PUSH1 0x60 ADD PUSH1 0x20 DUP2 ADD SWAP1 PUSH2 0x591 SWAP2 SWAP1 PUSH2 0xFEB JUMP JUMPDEST DUP5 PUSH1 0x80 ADD CALLDATALOAD PUSH2 0x97F JUMP JUMPDEST PUSH2 0x660 JUMP JUMPDEST PUSH1 0x3 DUP1 DUP2 GT ISZERO PUSH2 0x5B3 JUMPI PUSH2 0x5B2 PUSH2 0xF6A JUMP JUMPDEST JUMPDEST DUP2 PUSH1 0x0 ADD PUSH1 0x20 DUP2 ADD SWAP1 PUSH2 0x5C6 SWAP2 SWAP1 PUSH2 0xFBE JUMP JUMPDEST PUSH1 0x3 DUP2 GT ISZERO PUSH2 0x5D8 JUMPI PUSH2 0x5D7 PUSH2 0xF6A JUMP JUMPDEST JUMPDEST SUB PUSH2 0x62D JUMPI PUSH2 0x628 DUP2 PUSH1 0x20 ADD PUSH1 0x20 DUP2 ADD SWAP1 PUSH2 0x5F3 SWAP2 SWAP1 PUSH2 0xFEB JUMP JUMPDEST DUP3 PUSH1 0x40 ADD PUSH1 0x20 DUP2 ADD SWAP1 PUSH2 0x606 SWAP2 SWAP1 PUSH2 0xFEB JUMP JUMPDEST DUP4 PUSH1 0x60 ADD PUSH1 0x20 DUP2 ADD SWAP1 PUSH2 0x619 SWAP2 SWAP1 PUSH2 0xFEB JUMP JUMPDEST DUP5 PUSH1 0x80 ADD CALLDATALOAD DUP6 PUSH1 0xA0 ADD CALLDATALOAD PUSH2 0xA93 JUMP JUMPDEST PUSH2 0x65F JUMP JUMPDEST PUSH1 0x40 MLOAD PUSH32 0x7932F1FC00000000000000000000000000000000000000000000000000000000 DUP2 MSTORE PUSH1 0x4 ADD PUSH1 0x40 MLOAD DUP1 SWAP2 SUB SWAP1 REVERT JUMPDEST JUMPDEST JUMPDEST POP JUMP JUMPDEST DUP1 DUP3 DUP1 PUSH32 0x2EB2C2D600000000000000000000000000000000000000000000000000000000 PUSH1 0x20 MSTORE PUSH1 0x0 JUMPDEST DUP4 DUP2 LT ISZERO PUSH2 0x7FF JUMPI DUP3 CALLDATALOAD DUP3 ADD DUP1 CALLDATALOAD DUP1 EXTCODESIZE PUSH2 0x6D0 JUMPI PUSH32 0x5F15D67200000000000000000000000000000000000000000000000000000000 PUSH1 0x0 MSTORE DUP1 PUSH1 0x4 MSTORE PUSH1 0x24 PUSH1 0x0 REVERT JUMPDEST PUSH1 0xA0 DUP3 ADD CALLDATALOAD PUSH1 0x20 DUP2 MUL PUSH1 0xC0 ADD DUP1 PUSH1 0x80 DUP6 ADD CALLDATALOAD EQ PUSH1 0xA0 PUSH1 0x60 DUP7 ADD CALLDATALOAD EQ AND DUP2 DUP6 ADD CALLDATALOAD DUP4 EQ AND ISZERO DUP1 ISZERO PUSH2 0x724 JUMPI PUSH32 0xEBA2084C00000000000000000000000000000000000000000000000000000000 PUSH1 0x0 MSTORE PUSH1 0x4 PUSH1 0x0 REVERT JUMPDEST PUSH1 0x20 DUP9 ADD SWAP8 POP PUSH1 0x80 PUSH1 0x20 DUP7 ADD PUSH1 0x24 CALLDATACOPY PUSH1 0x40 DUP4 MUL PUSH1 0x40 ADD DUP1 PUSH1 0xA0 ADD PUSH1 0xA4 MSTORE PUSH1 0x0 DUP2 PUSH1 0xC4 ADD MSTORE DUP1 PUSH1 0xC4 ADD DUP2 PUSH1 0xA0 DUP9 ADD PUSH1 0xC4 CALLDATACOPY PUSH1 0x0 DUP1 DUP3 PUSH1 0x20 PUSH1 0x0 DUP11 GAS CALL DUP1 PUSH2 0x7EC JUMPI RETURNDATASIZE ISZERO PUSH2 0x7B1 JUMPI PUSH1 0x20 PUSH1 0x1F RETURNDATASIZE ADD DIV PUSH1 0x20 DUP4 DIV DUP2 PUSH1 0x3 MUL DUP2 DUP4 GT ISZERO PUSH2 0x798 JUMPI PUSH2 0x200 DUP3 DUP4 MUL DUP5 DUP6 MUL SUB DIV PUSH1 0x3 DUP4 DUP6 SUB MUL ADD DUP2 ADD SWAP1 POP JUMPDEST GAS PUSH1 0x20 DUP3 ADD LT ISZERO PUSH2 0x7AD JUMPI RETURNDATASIZE PUSH1 0x0 DUP1 RETURNDATACOPY RETURNDATASIZE PUSH1 0x0 REVERT JUMPDEST POP POP POP JUMPDEST PUSH32 0xAFC445E200000000000000000000000000000000000000000000000000000000 PUSH1 0x0 MSTORE DUP7 PUSH1 0x4 MSTORE PUSH1 0xC0 PUSH1 0x64 MSTORE PUSH1 0x84 MLOAD PUSH1 0x20 ADD PUSH1 0x84 MSTORE DUP2 PUSH1 0x0 REVERT JUMPDEST POP POP POP POP POP POP POP POP PUSH1 0x1 DUP2 ADD SWAP1 POP PUSH2 0x68E JUMP JUMPDEST POP PUSH1 0x80 PUSH1 0x40 MSTORE POP POP POP POP POP JUMP JUMPDEST PUSH1 0x40 MLOAD PUSH32 0x23B872DD00000000000000000000000000000000000000000000000000000000 PUSH1 0x0 MSTORE DUP4 PUSH1 0x4 MSTORE DUP3 PUSH1 0x24 MSTORE DUP2 PUSH1 0x44 MSTORE PUSH1 0x20 PUSH1 0x0 PUSH1 0x64 PUSH1 0x0 DUP1 DUP10 GAS CALL DUP1 RETURNDATASIZE ISZERO PUSH1 0x1F RETURNDATASIZE GT PUSH1 0x1 PUSH1 0x0 MLOAD EQ AND OR AND RETURNDATASIZE ISZERO ISZERO DUP2 AND PUSH2 0x96D JUMPI DUP1 DUP8 EXTCODESIZE ISZERO ISZERO AND PUSH2 0x96C JUMPI DUP1 PUSH2 0x93E JUMPI DUP2 PUSH2 0x904 JUMPI RETURNDATASIZE ISZERO PUSH2 0x8C5 JUMPI PUSH1 0x20 PUSH1 0x1F RETURNDATASIZE ADD DIV PUSH1 0x20 DUP5 DIV DUP2 PUSH1 0x3 MUL DUP2 DUP4 GT ISZERO PUSH2 0x8AC JUMPI PUSH2 0x200 DUP3 DUP4 MUL DUP5 DUP6 MUL SUB DIV PUSH1 0x3 DUP4 DUP6 SUB MUL ADD DUP2 ADD SWAP1 POP JUMPDEST GAS PUSH1 0x20 DUP3 ADD LT ISZERO PUSH2 0x8C1 JUMPI RETURNDATASIZE PUSH1 0x0 DUP1 RETURNDATACOPY RETURNDATASIZE PUSH1 0x0 REVERT JUMPDEST POP POP POP JUMPDEST PUSH32 0xF486BC8700000000000000000000000000000000000000000000000000000000 PUSH1 0x0 MSTORE DUP7 PUSH1 0x4 MSTORE DUP6 PUSH1 0x24 MSTORE DUP5 PUSH1 0x44 MSTORE PUSH1 0x0 PUSH1 0x64 MSTORE DUP4 PUSH1 0x84 MSTORE PUSH1 0xA4 PUSH1 0x0 REVERT JUMPDEST PUSH32 0x9889192300000000000000000000000000000000000000000000000000000000 PUSH1 0x0 MSTORE DUP7 PUSH1 0x4 MSTORE DUP6 PUSH1 0x24 MSTORE DUP5 PUSH1 0x44 MSTORE DUP4 PUSH1 0x64 MSTORE PUSH1 0x84 PUSH1 0x0 REVERT JUMPDEST PUSH32 0x5F15D67200000000000000000000000000000000000000000000000000000000 PUSH1 0x0 MSTORE DUP7 PUSH1 0x4 MSTORE PUSH1 0x24 PUSH1 0x0 REVERT JUMPDEST JUMPDEST DUP3 PUSH1 0x40 MSTORE PUSH1 0x0 PUSH1 0x60 MSTORE POP POP POP POP POP POP POP JUMP JUMPDEST DUP4 EXTCODESIZE PUSH2 0x9B3 JUMPI PUSH32 0x5F15D67200000000000000000000000000000000000000000000000000000000 PUSH1 0x0 MSTORE DUP4 PUSH1 0x4 MSTORE PUSH1 0x24 PUSH1 0x0 REVERT JUMPDEST PUSH1 0x40 MLOAD PUSH32 0x23B872DD00000000000000000000000000000000000000000000000000000000 PUSH1 0x0 MSTORE DUP4 PUSH1 0x4 MSTORE DUP3 PUSH1 0x24 MSTORE DUP2 PUSH1 0x44 MSTORE PUSH1 0x0 DUP1 PUSH1 0x64 PUSH1 0x0 DUP1 DUP10 GAS CALL DUP1 PUSH2 0xA82 JUMPI RETURNDATASIZE ISZERO PUSH2 0xA43 JUMPI PUSH1 0x20 PUSH1 0x1F RETURNDATASIZE ADD DIV PUSH1 0x20 DUP4 DIV DUP2 PUSH1 0x3 MUL DUP2 DUP4 GT ISZERO PUSH2 0xA2A JUMPI PUSH2 0x200 DUP3 DUP4 MUL DUP5 DUP6 MUL SUB DIV PUSH1 0x3 DUP4 DUP6 SUB MUL ADD DUP2 ADD SWAP1 POP JUMPDEST GAS PUSH1 0x20 DUP3 ADD LT ISZERO PUSH2 0xA3F JUMPI RETURNDATASIZE PUSH1 0x0 DUP1 RETURNDATACOPY RETURNDATASIZE PUSH1 0x0 REVERT JUMPDEST POP POP POP JUMPDEST PUSH32 0xF486BC8700000000000000000000000000000000000000000000000000000000 PUSH1 0x0 MSTORE DUP6 PUSH1 0x4 MSTORE DUP5 PUSH1 0x24 MSTORE DUP4 PUSH1 0x44 MSTORE DUP3 PUSH1 0x64 MSTORE PUSH1 0x1 PUSH1 0x84 MSTORE PUSH1 0xA4 PUSH1 0x0 REVERT JUMPDEST DUP2 PUSH1 0x40 MSTORE PUSH1 0x0 PUSH1 0x60 MSTORE POP POP POP POP POP POP JUMP JUMPDEST DUP5 EXTCODESIZE PUSH2 0xAC7 JUMPI PUSH32 0x5F15D67200000000000000000000000000000000000000000000000000000000 PUSH1 0x0 MSTORE DUP5 PUSH1 0x4 MSTORE PUSH1 0x24 PUSH1 0x0 REVERT JUMPDEST PUSH1 0x40 MLOAD PUSH1 0x80 MLOAD PUSH1 0xA0 MLOAD PUSH1 0xC0 MLOAD PUSH32 0xF242432A00000000000000000000000000000000000000000000000000000000 PUSH1 0x0 MSTORE DUP8 PUSH1 0x4 MSTORE DUP7 PUSH1 0x24 MSTORE DUP6 PUSH1 0x44 MSTORE DUP5 PUSH1 0x64 MSTORE PUSH1 0xA0 PUSH1 0x84 MSTORE PUSH1 0x0 PUSH1 0xA4 MSTORE PUSH1 0x0 DUP1 PUSH1 0xC4 PUSH1 0x0 DUP1 DUP14 GAS CALL DUP1 PUSH2 0xBAC JUMPI RETURNDATASIZE ISZERO PUSH2 0xB6E JUMPI PUSH1 0x20 PUSH1 0x1F RETURNDATASIZE ADD DIV PUSH1 0x20 DUP7 DIV DUP2 PUSH1 0x3 MUL DUP2 DUP4 GT ISZERO PUSH2 0xB55 JUMPI PUSH2 0x200 DUP3 DUP4 MUL DUP5 DUP6 MUL SUB DIV PUSH1 0x3 DUP4 DUP6 SUB MUL ADD DUP2 ADD SWAP1 POP JUMPDEST GAS PUSH1 0x20 DUP3 ADD LT ISZERO PUSH2 0xB6A JUMPI RETURNDATASIZE PUSH1 0x0 DUP1 RETURNDATACOPY RETURNDATASIZE PUSH1 0x0 REVERT JUMPDEST POP POP POP JUMPDEST PUSH32 0xF486BC8700000000000000000000000000000000000000000000000000000000 PUSH1 0x0 MSTORE DUP10 PUSH1 0x4 MSTORE DUP9 PUSH1 0x24 MSTORE DUP8 PUSH1 0x44 MSTORE DUP7 PUSH1 0x64 MSTORE DUP6 PUSH1 0x84 MSTORE PUSH1 0xA4 PUSH1 0x0 REVERT JUMPDEST DUP4 PUSH1 0x80 MSTORE DUP3 PUSH1 0xA0 MSTORE DUP2 PUSH1 0xC0 MSTORE DUP5 PUSH1 0x40 MSTORE PUSH1 0x0 PUSH1 0x60 MSTORE POP POP POP POP POP POP POP POP POP POP JUMP JUMPDEST PUSH1 0x0 DUP1 REVERT JUMPDEST PUSH1 0x0 DUP1 REVERT JUMPDEST PUSH1 0x0 DUP1 REVERT JUMPDEST PUSH1 0x0 DUP1 REVERT JUMPDEST PUSH1 0x0 DUP1 REVERT JUMPDEST PUSH1 0x0 DUP1 DUP4 PUSH1 0x1F DUP5 ADD SLT PUSH2 0xBFC JUMPI PUSH2 0xBFB PUSH2 0xBD7 JUMP JUMPDEST JUMPDEST DUP3 CALLDATALOAD SWAP1 POP PUSH8 0xFFFFFFFFFFFFFFFF DUP2 GT ISZERO PUSH2 0xC19 JUMPI PUSH2 0xC18 PUSH2 0xBDC JUMP JUMPDEST JUMPDEST PUSH1 0x20 DUP4 ADD SWAP2 POP DUP4 PUSH1 0xC0 DUP3 MUL DUP4 ADD GT ISZERO PUSH2 0xC35 JUMPI PUSH2 0xC34 PUSH2 0xBE1 JUMP JUMPDEST JUMPDEST SWAP3 POP SWAP3 SWAP1 POP JUMP JUMPDEST PUSH1 0x0 DUP1 PUSH1 0x20 DUP4 DUP6 SUB SLT ISZERO PUSH2 0xC53 JUMPI PUSH2 0xC52 PUSH2 0xBCD JUMP JUMPDEST JUMPDEST PUSH1 0x0 DUP4 ADD CALLDATALOAD PUSH8 0xFFFFFFFFFFFFFFFF DUP2 GT ISZERO PUSH2 0xC71 JUMPI PUSH2 0xC70 PUSH2 0xBD2 JUMP JUMPDEST JUMPDEST PUSH2 0xC7D DUP6 DUP3 DUP7 ADD PUSH2 0xBE6 JUMP JUMPDEST SWAP3 POP SWAP3 POP POP SWAP3 POP SWAP3 SWAP1 POP JUMP JUMPDEST PUSH1 0x0 PUSH32 0xFFFFFFFF00000000000000000000000000000000000000000000000000000000 DUP3 AND SWAP1 POP SWAP2 SWAP1 POP JUMP JUMPDEST PUSH2 0xCBE DUP2 PUSH2 0xC89 JUMP JUMPDEST DUP3 MSTORE POP POP JUMP JUMPDEST PUSH1 0x0 PUSH1 0x20 DUP3 ADD SWAP1 POP PUSH2 0xCD9 PUSH1 0x0 DUP4 ADD DUP5 PUSH2 0xCB5 JUMP JUMPDEST SWAP3 SWAP2 POP POP JUMP JUMPDEST PUSH1 0x0 DUP1 DUP4 PUSH1 0x1F DUP5 ADD SLT PUSH2 0xCF5 JUMPI PUSH2 0xCF4 PUSH2 0xBD7 JUMP JUMPDEST JUMPDEST DUP3 CALLDATALOAD SWAP1 POP PUSH8 0xFFFFFFFFFFFFFFFF DUP2 GT ISZERO PUSH2 0xD12 JUMPI PUSH2 0xD11 PUSH2 0xBDC JUMP JUMPDEST JUMPDEST PUSH1 0x20 DUP4 ADD SWAP2 POP DUP4 PUSH1 0x20 DUP3 MUL DUP4 ADD GT ISZERO PUSH2 0xD2E JUMPI PUSH2 0xD2D PUSH2 0xBE1 JUMP JUMPDEST JUMPDEST SWAP3 POP SWAP3 SWAP1 POP JUMP JUMPDEST PUSH1 0x0 DUP1 PUSH1 0x0 DUP1 PUSH1 0x40 DUP6 DUP8 SUB SLT ISZERO PUSH2 0xD4F JUMPI PUSH2 0xD4E PUSH2 0xBCD JUMP JUMPDEST JUMPDEST PUSH1 0x0 DUP6 ADD CALLDATALOAD PUSH8 0xFFFFFFFFFFFFFFFF DUP2 GT ISZERO PUSH2 0xD6D JUMPI PUSH2 0xD6C PUSH2 0xBD2 JUMP JUMPDEST JUMPDEST PUSH2 0xD79 DUP8 DUP3 DUP9 ADD PUSH2 0xBE6 JUMP JUMPDEST SWAP5 POP SWAP5 POP POP PUSH1 0x20 DUP6 ADD CALLDATALOAD PUSH8 0xFFFFFFFFFFFFFFFF DUP2 GT ISZERO PUSH2 0xD9C JUMPI PUSH2 0xD9B PUSH2 0xBD2 JUMP JUMPDEST JUMPDEST PUSH2 0xDA8 DUP8 DUP3 DUP9 ADD PUSH2 0xCDF JUMP JUMPDEST SWAP3 POP SWAP3 POP POP SWAP3 SWAP6 SWAP2 SWAP5 POP SWAP3 POP JUMP JUMPDEST PUSH1 0x0 DUP1 PUSH1 0x20 DUP4 DUP6 SUB SLT ISZERO PUSH2 0xDCD JUMPI PUSH2 0xDCC PUSH2 0xBCD JUMP JUMPDEST JUMPDEST PUSH1 0x0 DUP4 ADD CALLDATALOAD PUSH8 0xFFFFFFFFFFFFFFFF DUP2 GT ISZERO PUSH2 0xDEB JUMPI PUSH2 0xDEA PUSH2 0xBD2 JUMP JUMPDEST JUMPDEST PUSH2 0xDF7 DUP6 DUP3 DUP7 ADD PUSH2 0xCDF JUMP JUMPDEST SWAP3 POP SWAP3 POP POP SWAP3 POP SWAP3 SWAP1 POP JUMP JUMPDEST PUSH1 0x0 PUSH20 0xFFFFFFFFFFFFFFFFFFFFFFFFFFFFFFFFFFFFFFFF DUP3 AND SWAP1 POP SWAP2 SWAP1 POP JUMP JUMPDEST PUSH1 0x0 PUSH2 0xE2E DUP3 PUSH2 0xE03 JUMP JUMPDEST SWAP1 POP SWAP2 SWAP1 POP JUMP JUMPDEST PUSH2 0xE3E DUP2 PUSH2 0xE23 JUMP JUMPDEST DUP2 EQ PUSH2 0xE49 JUMPI PUSH1 0x0 DUP1 REVERT JUMPDEST POP JUMP JUMPDEST PUSH1 0x0 DUP2 CALLDATALOAD SWAP1 POP PUSH2 0xE5B DUP2 PUSH2 0xE35 JUMP JUMPDEST SWAP3 SWAP2 POP POP JUMP JUMPDEST PUSH1 0x0 DUP2 ISZERO ISZERO SWAP1 POP SWAP2 SWAP1 POP JUMP JUMPDEST PUSH2 0xE76 DUP2 PUSH2 0xE61 JUMP JUMPDEST DUP2 EQ PUSH2 0xE81 JUMPI PUSH1 0x0 DUP1 REVERT JUMPDEST POP JUMP JUMPDEST PUSH1 0x0 DUP2 CALLDATALOAD SWAP1 POP PUSH2 0xE93 DUP2 PUSH2 0xE6D JUMP JUMPDEST SWAP3 SWAP2 POP POP JUMP JUMPDEST PUSH1 0x0 DUP1 PUSH1 0x40 DUP4 DUP6 SUB SLT ISZERO PUSH2 0xEB0 JUMPI PUSH2 0xEAF PUSH2 0xBCD JUMP JUMPDEST JUMPDEST PUSH1 0x0 PUSH2 0xEBE DUP6 DUP3 DUP7 ADD PUSH2 0xE4C JUMP JUMPDEST SWAP3 POP POP PUSH1 0x20 PUSH2 0xECF DUP6 DUP3 DUP7 ADD PUSH2 0xE84 JUMP JUMPDEST SWAP2 POP POP SWAP3 POP SWAP3 SWAP1 POP JUMP JUMPDEST PUSH32 0x4E487B7100000000000000000000000000000000000000000000000000000000 PUSH1 0x0 MSTORE PUSH1 0x32 PUSH1 0x4 MSTORE PUSH1 0x24 PUSH1 0x0 REVERT JUMPDEST PUSH2 0xF11 DUP2 PUSH2 0xE23 JUMP JUMPDEST DUP3 MSTORE POP POP JUMP JUMPDEST PUSH2 0xF20 DUP2 PUSH2 0xE61 JUMP JUMPDEST DUP3 MSTORE POP POP JUMP JUMPDEST PUSH1 0x0 PUSH1 0x40 DUP3 ADD SWAP1 POP PUSH2 0xF3B PUSH1 0x0 DUP4 ADD DUP6 PUSH2 0xF08 JUMP JUMPDEST PUSH2 0xF48 PUSH1 0x20 DUP4 ADD DUP5 PUSH2 0xF17 JUMP JUMPDEST SWAP4 SWAP3 POP POP POP JUMP JUMPDEST PUSH1 0x0 PUSH1 0x20 DUP3 ADD SWAP1 POP PUSH2 0xF64 PUSH1 0x0 DUP4 ADD DUP5 PUSH2 0xF17 JUMP JUMPDEST SWAP3 SWAP2 POP POP JUMP JUMPDEST PUSH32 0x4E487B7100000000000000000000000000000000000000000000000000000000 PUSH1 0x0 MSTORE PUSH1 0x21 PUSH1 0x4 MSTORE PUSH1 0x24 PUSH1 0x0 REVERT JUMPDEST PUSH1 0x4 DUP2 LT PUSH2 0xFA6 JUMPI PUSH1 0x0 DUP1 REVERT JUMPDEST POP JUMP JUMPDEST PUSH1 0x0 DUP2 CALLDATALOAD SWAP1 POP PUSH2 0xFB8 DUP2 PUSH2 0xF99 JUMP JUMPDEST SWAP3 SWAP2 POP POP JUMP JUMPDEST PUSH1 0x0 PUSH1 0x20 DUP3 DUP5 SUB SLT ISZERO PUSH2 0xFD4 JUMPI PUSH2 0xFD3 PUSH2 0xBCD JUMP JUMPDEST JUMPDEST PUSH1 0x0 PUSH2 0xFE2 DUP5 DUP3 DUP6 ADD PUSH2 0xFA9 JUMP JUMPDEST SWAP2 POP POP SWAP3 SWAP2 POP POP JUMP JUMPDEST PUSH1 0x0 PUSH1 0x20 DUP3 DUP5 SUB SLT ISZERO PUSH2 0x1001 JUMPI PUSH2 0x1000 PUSH2 0xBCD JUMP JUMPDEST JUMPDEST PUSH1 0x0 PUSH2 0x100F DUP5 DUP3 DUP6 ADD PUSH2 0xE4C JUMP JUMPDEST SWAP2 POP POP SWAP3 SWAP2 POP POP JUMP INVALID LOG2 PUSH5 0x6970667358 0x22 SLT KECCAK256 MLOAD CALLDATASIZE SWAP3 0x4F 0x4D 0xBB INVALID PUSH26 0x561A1FC04E45947433C8FCBA59787FFD458BB59436AA02226473 PUSH16 0x6C63430008110033A264697066735822 SLT KECCAK256 PUSH23 0x1BC6711F0AF030E64E4344395B1EF19179448B9D129D2B AND 0xBF 0xAF 0xAE DIV EXTCODESIZE SSTORE 0xCD PUSH5 0x736F6C6343 STOP ADDMOD GT STOP CALLER PUSH1 0xA0 PUSH1 0x40 MSTORE CALLVALUE DUP1 ISZERO PUSH2 0x10 JUMPI PUSH1 0x0 DUP1 REVERT JUMPDEST POP CALLER PUSH20 0xFFFFFFFFFFFFFFFFFFFFFFFFFFFFFFFFFFFFFFFF AND PUSH1 0x80 DUP2 PUSH20 0xFFFFFFFFFFFFFFFFFFFFFFFFFFFFFFFFFFFFFFFF AND DUP2 MSTORE POP POP PUSH1 0x80 MLOAD PUSH2 0x104E PUSH2 0x60 PUSH1 0x0 CODECOPY PUSH1 0x0 PUSH2 0x290 ADD MSTORE PUSH2 0x104E PUSH1 0x0 RETURN INVALID PUSH1 0x80 PUSH1 0x40 MSTORE CALLVALUE DUP1 ISZERO PUSH2 0x10 JUMPI PUSH1 0x0 DUP1 REVERT JUMPDEST POP PUSH1 0x4 CALLDATASIZE LT PUSH2 0x4C JUMPI PUSH1 0x0 CALLDATALOAD PUSH1 0xE0 SHR DUP1 PUSH4 0x4CE34AA2 EQ PUSH2 0x51 JUMPI DUP1 PUSH4 0x899E104C EQ PUSH2 0x81 JUMPI DUP1 PUSH4 0x8DF25D92 EQ PUSH2 0xB1 JUMPI DUP1 PUSH4 0xC4E8FCB5 EQ PUSH2 0xE1 JUMPI JUMPDEST PUSH1 0x0 DUP1 REVERT JUMPDEST PUSH2 0x6B PUSH1 0x4 DUP1 CALLDATASIZE SUB DUP2 ADD SWAP1 PUSH2 0x66 SWAP2 SWAP1 PUSH2 0xC3C JUMP JUMPDEST PUSH2 0xFD JUMP JUMPDEST PUSH1 0x40 MLOAD PUSH2 0x78 SWAP2 SWAP1 PUSH2 0xCC4 JUMP JUMPDEST PUSH1 0x40 MLOAD DUP1 SWAP2 SUB SWAP1 RETURN JUMPDEST PUSH2 0x9B PUSH1 0x4 DUP1 CALLDATASIZE SUB DUP2 ADD SWAP1 PUSH2 0x96 SWAP2 SWAP1 PUSH2 0xD35 JUMP JUMPDEST PUSH2 0x191 JUMP JUMPDEST PUSH1 0x40 MLOAD PUSH2 0xA8 SWAP2 SWAP1 PUSH2 0xCC4 JUMP JUMPDEST PUSH1 0x40 MLOAD DUP1 SWAP2 SUB SWAP1 RETURN JUMPDEST PUSH2 0xCB PUSH1 0x4 DUP1 CALLDATASIZE SUB DUP2 ADD SWAP1 PUSH2 0xC6 SWAP2 SWAP1 PUSH2 0xDB6 JUMP JUMPDEST PUSH2 0x231 JUMP JUMPDEST PUSH1 0x40 MLOAD PUSH2 0xD8 SWAP2 SWAP1 PUSH2 0xCC4 JUMP JUMPDEST PUSH1 0x40 MLOAD DUP1 SWAP2 SUB SWAP1 RETURN JUMPDEST PUSH2 0xFB PUSH1 0x4 DUP1 CALLDATASIZE SUB DUP2 ADD SWAP1 PUSH2 0xF6 SWAP2 SWAP1 PUSH2 0xE99 JUMP JUMPDEST PUSH2 0x28E JUMP JUMPDEST STOP JUMPDEST PUSH1 0x0 CALLER PUSH1 0x0 MSTORE PUSH1 0x0 PUSH1 0x20 MSTORE PUSH1 0x40 PUSH1 0x0 KECCAK256 SLOAD PUSH2 0x140 JUMPI PUSH32 0x93DAADF200000000000000000000000000000000000000000000000000000000 PUSH1 0x0 MSTORE CALLER PUSH1 0x4 MSTORE PUSH1 0x24 PUSH1 0x0 REVERT JUMPDEST PUSH1 0x0 DUP4 DUP4 SWAP1 POP SWAP1 POP PUSH1 0x0 JUMPDEST DUP2 DUP2 LT ISZERO PUSH2 0x17F JUMPI PUSH2 0x174 DUP6 DUP6 DUP4 DUP2 DUP2 LT PUSH2 0x169 JUMPI PUSH2 0x168 PUSH2 0xED9 JUMP JUMPDEST JUMPDEST SWAP1 POP PUSH1 0xC0 MUL ADD PUSH2 0x450 JUMP JUMPDEST DUP1 PUSH1 0x1 ADD SWAP1 POP PUSH2 0x14B JUMP JUMPDEST POP PUSH4 0x4CE34AA2 PUSH1 0xE0 SHL SWAP2 POP POP SWAP3 SWAP2 POP POP JUMP JUMPDEST PUSH1 0x0 CALLER PUSH1 0x0 MSTORE PUSH1 0x0 PUSH1 0x20 MSTORE PUSH1 0x40 PUSH1 0x0 KECCAK256 SLOAD PUSH2 0x1D4 JUMPI PUSH32 0x93DAADF200000000000000000000000000000000000000000000000000000000 PUSH1 0x0 MSTORE CALLER PUSH1 0x4 MSTORE PUSH1 0x24 PUSH1 0x0 REVERT JUMPDEST PUSH1 0x0 DUP6 DUP6 SWAP1 POP SWAP1 POP PUSH1 0x0 JUMPDEST DUP2 DUP2 LT ISZERO PUSH2 0x213 JUMPI PUSH2 0x208 DUP8 DUP8 DUP4 DUP2 DUP2 LT PUSH2 0x1FD JUMPI PUSH2 0x1FC PUSH2 0xED9 JUMP JUMPDEST JUMPDEST SWAP1 POP PUSH1 0xC0 MUL ADD PUSH2 0x450 JUMP JUMPDEST DUP1 PUSH1 0x1 ADD SWAP1 POP PUSH2 0x1DF JUMP JUMPDEST POP PUSH2 0x21E DUP5 DUP5 PUSH2 0x664 JUMP JUMPDEST PUSH4 0x899E104C PUSH1 0xE0 SHL SWAP2 POP POP SWAP5 SWAP4 POP POP POP POP JUMP JUMPDEST PUSH1 0x0 CALLER PUSH1 0x0 MSTORE PUSH1 0x0 PUSH1 0x20 MSTORE PUSH1 0x40 PUSH1 0x0 KECCAK256 SLOAD PUSH2 0x274 JUMPI PUSH32 0x93DAADF200000000000000000000000000000000000000000000000000000000 PUSH1 0x0 MSTORE CALLER PUSH1 0x4 MSTORE PUSH1 0x24 PUSH1 0x0 REVERT JUMPDEST PUSH2 0x27E DUP4 DUP4 PUSH2 0x664 JUMP JUMPDEST PUSH4 0x8DF25D92 PUSH1 0xE0 SHL SWAP1 POP SWAP3 SWAP2 POP POP JUMP JUMPDEST PUSH32 0x0 PUSH20 0xFFFFFFFFFFFFFFFFFFFFFFFFFFFFFFFFFFFFFFFF AND CALLER PUSH20 0xFFFFFFFFFFFFFFFFFFFFFFFFFFFFFFFFFFFFFFFF AND EQ PUSH2 0x313 JUMPI PUSH1 0x40 MLOAD PUSH32 0x6D5769BE00000000000000000000000000000000000000000000000000000000 DUP2 MSTORE PUSH1 0x4 ADD PUSH1 0x40 MLOAD DUP1 SWAP2 SUB SWAP1 REVERT JUMPDEST DUP1 ISZERO ISZERO PUSH1 0x0 DUP1 DUP5 PUSH20 0xFFFFFFFFFFFFFFFFFFFFFFFFFFFFFFFFFFFFFFFF AND PUSH20 0xFFFFFFFFFFFFFFFFFFFFFFFFFFFFFFFFFFFFFFFF AND DUP2 MSTORE PUSH1 0x20 ADD SWAP1 DUP2 MSTORE PUSH1 0x20 ADD PUSH1 0x0 KECCAK256 PUSH1 0x0 SWAP1 SLOAD SWAP1 PUSH2 0x100 EXP SWAP1 DIV PUSH1 0xFF AND ISZERO ISZERO SUB PUSH2 0x3A8 JUMPI DUP2 DUP2 PUSH1 0x40 MLOAD PUSH32 0x924E341E00000000000000000000000000000000000000000000000000000000 DUP2 MSTORE PUSH1 0x4 ADD PUSH2 0x39F SWAP3 SWAP2 SWAP1 PUSH2 0xF26 JUMP JUMPDEST PUSH1 0x40 MLOAD DUP1 SWAP2 SUB SWAP1 REVERT JUMPDEST DUP1 PUSH1 0x0 DUP1 DUP5 PUSH20 0xFFFFFFFFFFFFFFFFFFFFFFFFFFFFFFFFFFFFFFFF AND PUSH20 0xFFFFFFFFFFFFFFFFFFFFFFFFFFFFFFFFFFFFFFFF AND DUP2 MSTORE PUSH1 0x20 ADD SWAP1 DUP2 MSTORE PUSH1 0x20 ADD PUSH1 0x0 KECCAK256 PUSH1 0x0 PUSH2 0x100 EXP DUP2 SLOAD DUP2 PUSH1 0xFF MUL NOT AND SWAP1 DUP4 ISZERO ISZERO MUL OR SWAP1 SSTORE POP DUP2 PUSH20 0xFFFFFFFFFFFFFFFFFFFFFFFFFFFFFFFFFFFFFFFF AND PUSH32 0xAE63067D43AC07563B7EB8DB6595635FC77F1578A2A5EA06BA91B63E2AFA37E2 DUP3 PUSH1 0x40 MLOAD PUSH2 0x444 SWAP2 SWAP1 PUSH2 0xF4F JUMP JUMPDEST PUSH1 0x40 MLOAD DUP1 SWAP2 SUB SWAP1 LOG2 POP POP JUMP JUMPDEST PUSH1 0x1 PUSH1 0x3 DUP2 GT ISZERO PUSH2 0x464 JUMPI PUSH2 0x463 PUSH2 0xF6A JUMP JUMPDEST JUMPDEST DUP2 PUSH1 0x0 ADD PUSH1 0x20 DUP2 ADD SWAP1 PUSH2 0x477 SWAP2 SWAP1 PUSH2 0xFBE JUMP JUMPDEST PUSH1 0x3 DUP2 GT ISZERO PUSH2 0x489 JUMPI PUSH2 0x488 PUSH2 0xF6A JUMP JUMPDEST JUMPDEST SUB PUSH2 0x4D9 JUMPI PUSH2 0x4D4 DUP2 PUSH1 0x20 ADD PUSH1 0x20 DUP2 ADD SWAP1 PUSH2 0x4A4 SWAP2 SWAP1 PUSH2 0xFEB JUMP JUMPDEST DUP3 PUSH1 0x40 ADD PUSH1 0x20 DUP2 ADD SWAP1 PUSH2 0x4B7 SWAP2 SWAP1 PUSH2 0xFEB JUMP JUMPDEST DUP4 PUSH1 0x60 ADD PUSH1 0x20 DUP2 ADD SWAP1 PUSH2 0x4CA SWAP2 SWAP1 PUSH2 0xFEB JUMP JUMPDEST DUP5 PUSH1 0xA0 ADD CALLDATALOAD PUSH2 0x80C JUMP JUMPDEST PUSH2 0x661 JUMP JUMPDEST PUSH1 0x2 PUSH1 0x3 DUP2 GT ISZERO PUSH2 0x4ED JUMPI PUSH2 0x4EC PUSH2 0xF6A JUMP JUMPDEST JUMPDEST DUP2 PUSH1 0x0 ADD PUSH1 0x20 DUP2 ADD SWAP1 PUSH2 0x500 SWAP2 SWAP1 PUSH2 0xFBE JUMP JUMPDEST PUSH1 0x3 DUP2 GT ISZERO PUSH2 0x512 JUMPI PUSH2 0x511 PUSH2 0xF6A JUMP JUMPDEST JUMPDEST SUB PUSH2 0x5A0 JUMPI PUSH1 0x1 DUP2 PUSH1 0xA0 ADD CALLDATALOAD EQ PUSH2 0x555 JUMPI PUSH1 0x40 MLOAD PUSH32 0xEFCC00B100000000000000000000000000000000000000000000000000000000 DUP2 MSTORE PUSH1 0x4 ADD PUSH1 0x40 MLOAD DUP1 SWAP2 SUB SWAP1 REVERT JUMPDEST PUSH2 0x59B DUP2 PUSH1 0x20 ADD PUSH1 0x20 DUP2 ADD SWAP1 PUSH2 0x56B SWAP2 SWAP1 PUSH2 0xFEB JUMP JUMPDEST DUP3 PUSH1 0x40 ADD PUSH1 0x20 DUP2 ADD SWAP1 PUSH2 0x57E SWAP2 SWAP1 PUSH2 0xFEB JUMP JUMPDEST DUP4 PUSH1 0x60 ADD PUSH1 0x20 DUP2 ADD SWAP1 PUSH2 0x591 SWAP2 SWAP1 PUSH2 0xFEB JUMP JUMPDEST DUP5 PUSH1 0x80 ADD CALLDATALOAD PUSH2 0x97F JUMP JUMPDEST PUSH2 0x660 JUMP JUMPDEST PUSH1 0x3 DUP1 DUP2 GT ISZERO PUSH2 0x5B3 JUMPI PUSH2 0x5B2 PUSH2 0xF6A JUMP JUMPDEST JUMPDEST DUP2 PUSH1 0x0 ADD PUSH1 0x20 DUP2 ADD SWAP1 PUSH2 0x5C6 SWAP2 SWAP1 PUSH2 0xFBE JUMP JUMPDEST PUSH1 0x3 DUP2 GT ISZERO PUSH2 0x5D8 JUMPI PUSH2 0x5D7 PUSH2 0xF6A JUMP JUMPDEST JUMPDEST SUB PUSH2 0x62D JUMPI PUSH2 0x628 DUP2 PUSH1 0x20 ADD PUSH1 0x20 DUP2 ADD SWAP1 PUSH2 0x5F3 SWAP2 SWAP1 PUSH2 0xFEB JUMP JUMPDEST DUP3 PUSH1 0x40 ADD PUSH1 0x20 DUP2 ADD SWAP1 PUSH2 0x606 SWAP2 SWAP1 PUSH2 0xFEB JUMP JUMPDEST DUP4 PUSH1 0x60 ADD PUSH1 0x20 DUP2 ADD SWAP1 PUSH2 0x619 SWAP2 SWAP1 PUSH2 0xFEB JUMP JUMPDEST DUP5 PUSH1 0x80 ADD CALLDATALOAD DUP6 PUSH1 0xA0 ADD CALLDATALOAD PUSH2 0xA93 JUMP JUMPDEST PUSH2 0x65F JUMP JUMPDEST PUSH1 0x40 MLOAD PUSH32 0x7932F1FC00000000000000000000000000000000000000000000000000000000 DUP2 MSTORE PUSH1 0x4 ADD PUSH1 0x40 MLOAD DUP1 SWAP2 SUB SWAP1 REVERT JUMPDEST JUMPDEST JUMPDEST POP JUMP JUMPDEST DUP1 DUP3 DUP1 PUSH32 0x2EB2C2D600000000000000000000000000000000000000000000000000000000 PUSH1 0x20 MSTORE PUSH1 0x0 JUMPDEST DUP4 DUP2 LT ISZERO PUSH2 0x7FF JUMPI DUP3 CALLDATALOAD DUP3 ADD DUP1 CALLDATALOAD DUP1 EXTCODESIZE PUSH2 0x6D0 JUMPI PUSH32 0x5F15D67200000000000000000000000000000000000000000000000000000000 PUSH1 0x0 MSTORE DUP1 PUSH1 0x4 MSTORE PUSH1 0x24 PUSH1 0x0 REVERT JUMPDEST PUSH1 0xA0 DUP3 ADD CALLDATALOAD PUSH1 0x20 DUP2 MUL PUSH1 0xC0 ADD DUP1 PUSH1 0x80 DUP6 ADD CALLDATALOAD EQ PUSH1 0xA0 PUSH1 0x60 DUP7 ADD CALLDATALOAD EQ AND DUP2 DUP6 ADD CALLDATALOAD DUP4 EQ AND ISZERO DUP1 ISZERO PUSH2 0x724 JUMPI PUSH32 0xEBA2084C00000000000000000000000000000000000000000000000000000000 PUSH1 0x0 MSTORE PUSH1 0x4 PUSH1 0x0 REVERT JUMPDEST PUSH1 0x20 DUP9 ADD SWAP8 POP PUSH1 0x80 PUSH1 0x20 DUP7 ADD PUSH1 0x24 CALLDATACOPY PUSH1 0x40 DUP4 MUL PUSH1 0x40 ADD DUP1 PUSH1 0xA0 ADD PUSH1 0xA4 MSTORE PUSH1 0x0 DUP2 PUSH1 0xC4 ADD MSTORE DUP1 PUSH1 0xC4 ADD DUP2 PUSH1 0xA0 DUP9 ADD PUSH1 0xC4 CALLDATACOPY PUSH1 0x0 DUP1 DUP3 PUSH1 0x20 PUSH1 0x0 DUP11 GAS CALL DUP1 PUSH2 0x7EC JUMPI RETURNDATASIZE ISZERO PUSH2 0x7B1 JUMPI PUSH1 0x20 PUSH1 0x1F RETURNDATASIZE ADD DIV PUSH1 0x20 DUP4 DIV DUP2 PUSH1 0x3 MUL DUP2 DUP4 GT ISZERO PUSH2 0x798 JUMPI PUSH2 0x200 DUP3 DUP4 MUL DUP5 DUP6 MUL SUB DIV PUSH1 0x3 DUP4 DUP6 SUB MUL ADD DUP2 ADD SWAP1 POP JUMPDEST GAS PUSH1 0x20 DUP3 ADD LT ISZERO PUSH2 0x7AD JUMPI RETURNDATASIZE PUSH1 0x0 DUP1 RETURNDATACOPY RETURNDATASIZE PUSH1 0x0 REVERT JUMPDEST POP POP POP JUMPDEST PUSH32 0xAFC445E200000000000000000000000000000000000000000000000000000000 PUSH1 0x0 MSTORE DUP7 PUSH1 0x4 MSTORE PUSH1 0xC0 PUSH1 0x64 MSTORE PUSH1 0x84 MLOAD PUSH1 0x20 ADD PUSH1 0x84 MSTORE DUP2 PUSH1 0x0 REVERT JUMPDEST POP POP POP POP POP POP POP POP PUSH1 0x1 DUP2 ADD SWAP1 POP PUSH2 0x68E JUMP JUMPDEST POP PUSH1 0x80 PUSH1 0x40 MSTORE POP POP POP POP POP JUMP JUMPDEST PUSH1 0x40 MLOAD PUSH32 0x23B872DD00000000000000000000000000000000000000000000000000000000 PUSH1 0x0 MSTORE DUP4 PUSH1 0x4 MSTORE DUP3 PUSH1 0x24 MSTORE DUP2 PUSH1 0x44 MSTORE PUSH1 0x20 PUSH1 0x0 PUSH1 0x64 PUSH1 0x0 DUP1 DUP10 GAS CALL DUP1 RETURNDATASIZE ISZERO PUSH1 0x1F RETURNDATASIZE GT PUSH1 0x1 PUSH1 0x0 MLOAD EQ AND OR AND RETURNDATASIZE ISZERO ISZERO DUP2 AND PUSH2 0x96D JUMPI DUP1 DUP8 EXTCODESIZE ISZERO ISZERO AND PUSH2 0x96C JUMPI DUP1 PUSH2 0x93E JUMPI DUP2 PUSH2 0x904 JUMPI RETURNDATASIZE ISZERO PUSH2 0x8C5 JUMPI PUSH1 0x20 PUSH1 0x1F RETURNDATASIZE ADD DIV PUSH1 0x20 DUP5 DIV DUP2 PUSH1 0x3 MUL DUP2 DUP4 GT ISZERO PUSH2 0x8AC JUMPI PUSH2 0x200 DUP3 DUP4 MUL DUP5 DUP6 MUL SUB DIV PUSH1 0x3 DUP4 DUP6 SUB MUL ADD DUP2 ADD SWAP1 POP JUMPDEST GAS PUSH1 0x20 DUP3 ADD LT ISZERO PUSH2 0x8C1 JUMPI RETURNDATASIZE PUSH1 0x0 DUP1 RETURNDATACOPY RETURNDATASIZE PUSH1 0x0 REVERT JUMPDEST POP POP POP JUMPDEST PUSH32 0xF486BC8700000000000000000000000000000000000000000000000000000000 PUSH1 0x0 MSTORE DUP7 PUSH1 0x4 MSTORE DUP6 PUSH1 0x24 MSTORE DUP5 PUSH1 0x44 MSTORE PUSH1 0x0 PUSH1 0x64 MSTORE DUP4 PUSH1 0x84 MSTORE PUSH1 0xA4 PUSH1 0x0 REVERT JUMPDEST PUSH32 0x9889192300000000000000000000000000000000000000000000000000000000 PUSH1 0x0 MSTORE DUP7 PUSH1 0x4 MSTORE DUP6 PUSH1 0x24 MSTORE DUP5 PUSH1 0x44 MSTORE DUP4 PUSH1 0x64 MSTORE PUSH1 0x84 PUSH1 0x0 REVERT JUMPDEST PUSH32 0x5F15D67200000000000000000000000000000000000000000000000000000000 PUSH1 0x0 MSTORE DUP7 PUSH1 0x4 MSTORE PUSH1 0x24 PUSH1 0x0 REVERT JUMPDEST JUMPDEST DUP3 PUSH1 0x40 MSTORE PUSH1 0x0 PUSH1 0x60 MSTORE POP POP POP POP POP POP POP JUMP JUMPDEST DUP4 EXTCODESIZE PUSH2 0x9B3 JUMPI PUSH32 0x5F15D67200000000000000000000000000000000000000000000000000000000 PUSH1 0x0 MSTORE DUP4 PUSH1 0x4 MSTORE PUSH1 0x24 PUSH1 0x0 REVERT JUMPDEST PUSH1 0x40 MLOAD PUSH32 0x23B872DD00000000000000000000000000000000000000000000000000000000 PUSH1 0x0 MSTORE DUP4 PUSH1 0x4 MSTORE DUP3 PUSH1 0x24 MSTORE DUP2 PUSH1 0x44 MSTORE PUSH1 0x0 DUP1 PUSH1 0x64 PUSH1 0x0 DUP1 DUP10 GAS CALL DUP1 PUSH2 0xA82 JUMPI RETURNDATASIZE ISZERO PUSH2 0xA43 JUMPI PUSH1 0x20 PUSH1 0x1F RETURNDATASIZE ADD DIV PUSH1 0x20 DUP4 DIV DUP2 PUSH1 0x3 MUL DUP2 DUP4 GT ISZERO PUSH2 0xA2A JUMPI PUSH2 0x200 DUP3 DUP4 MUL DUP5 DUP6 MUL SUB DIV PUSH1 0x3 DUP4 DUP6 SUB MUL ADD DUP2 ADD SWAP1 POP JUMPDEST GAS PUSH1 0x20 DUP3 ADD LT ISZERO PUSH2 0xA3F JUMPI RETURNDATASIZE PUSH1 0x0 DUP1 RETURNDATACOPY RETURNDATASIZE PUSH1 0x0 REVERT JUMPDEST POP POP POP JUMPDEST PUSH32 0xF486BC8700000000000000000000000000000000000000000000000000000000 PUSH1 0x0 MSTORE DUP6 PUSH1 0x4 MSTORE DUP5 PUSH1 0x24 MSTORE DUP4 PUSH1 0x44 MSTORE DUP3 PUSH1 0x64 MSTORE PUSH1 0x1 PUSH1 0x84 MSTORE PUSH1 0xA4 PUSH1 0x0 REVERT JUMPDEST DUP2 PUSH1 0x40 MSTORE PUSH1 0x0 PUSH1 0x60 MSTORE POP POP POP POP POP POP JUMP JUMPDEST DUP5 EXTCODESIZE PUSH2 0xAC7 JUMPI PUSH32 0x5F15D67200000000000000000000000000000000000000000000000000000000 PUSH1 0x0 MSTORE DUP5 PUSH1 0x4 MSTORE PUSH1 0x24 PUSH1 0x0 REVERT JUMPDEST PUSH1 0x40 MLOAD PUSH1 0x80 MLOAD PUSH1 0xA0 MLOAD PUSH1 0xC0 MLOAD PUSH32 0xF242432A00000000000000000000000000000000000000000000000000000000 PUSH1 0x0 MSTORE DUP8 PUSH1 0x4 MSTORE DUP7 PUSH1 0x24 MSTORE DUP6 PUSH1 0x44 MSTORE DUP5 PUSH1 0x64 MSTORE PUSH1 0xA0 PUSH1 0x84 MSTORE PUSH1 0x0 PUSH1 0xA4 MSTORE PUSH1 0x0 DUP1 PUSH1 0xC4 PUSH1 0x0 DUP1 DUP14 GAS CALL DUP1 PUSH2 0xBAC JUMPI RETURNDATASIZE ISZERO PUSH2 0xB6E JUMPI PUSH1 0x20 PUSH1 0x1F RETURNDATASIZE ADD DIV PUSH1 0x20 DUP7 DIV DUP2 PUSH1 0x3 MUL DUP2 DUP4 GT ISZERO PUSH2 0xB55 JUMPI PUSH2 0x200 DUP3 DUP4 MUL DUP5 DUP6 MUL SUB DIV PUSH1 0x3 DUP4 DUP6 SUB MUL ADD DUP2 ADD SWAP1 POP JUMPDEST GAS PUSH1 0x20 DUP3 ADD LT ISZERO PUSH2 0xB6A JUMPI RETURNDATASIZE PUSH1 0x0 DUP1 RETURNDATACOPY RETURNDATASIZE PUSH1 0x0 REVERT JUMPDEST POP POP POP JUMPDEST PUSH32 0xF486BC8700000000000000000000000000000000000000000000000000000000 PUSH1 0x0 MSTORE DUP10 PUSH1 0x4 MSTORE DUP9 PUSH1 0x24 MSTORE DUP8 PUSH1 0x44 MSTORE DUP7 PUSH1 0x64 MSTORE DUP6 PUSH1 0x84 MSTORE PUSH1 0xA4 PUSH1 0x0 REVERT JUMPDEST DUP4 PUSH1 0x80 MSTORE DUP3 PUSH1 0xA0 MSTORE DUP2 PUSH1 0xC0 MSTORE DUP5 PUSH1 0x40 MSTORE PUSH1 0x0 PUSH1 0x60 MSTORE POP POP POP POP POP POP POP POP POP POP JUMP JUMPDEST PUSH1 0x0 DUP1 REVERT JUMPDEST PUSH1 0x0 DUP1 REVERT JUMPDEST PUSH1 0x0 DUP1 REVERT JUMPDEST PUSH1 0x0 DUP1 REVERT JUMPDEST PUSH1 0x0 DUP1 REVERT JUMPDEST PUSH1 0x0 DUP1 DUP4 PUSH1 0x1F DUP5 ADD SLT PUSH2 0xBFC JUMPI PUSH2 0xBFB PUSH2 0xBD7 JUMP JUMPDEST JUMPDEST DUP3 CALLDATALOAD SWAP1 POP PUSH8 0xFFFFFFFFFFFFFFFF DUP2 GT ISZERO PUSH2 0xC19 JUMPI PUSH2 0xC18 PUSH2 0xBDC JUMP JUMPDEST JUMPDEST PUSH1 0x20 DUP4 ADD SWAP2 POP DUP4 PUSH1 0xC0 DUP3 MUL DUP4 ADD GT ISZERO PUSH2 0xC35 JUMPI PUSH2 0xC34 PUSH2 0xBE1 JUMP JUMPDEST JUMPDEST SWAP3 POP SWAP3 SWAP1 POP JUMP JUMPDEST PUSH1 0x0 DUP1 PUSH1 0x20 DUP4 DUP6 SUB SLT ISZERO PUSH2 0xC53 JUMPI PUSH2 0xC52 PUSH2 0xBCD JUMP JUMPDEST JUMPDEST PUSH1 0x0 DUP4 ADD CALLDATALOAD PUSH8 0xFFFFFFFFFFFFFFFF DUP2 GT ISZERO PUSH2 0xC71 JUMPI PUSH2 0xC70 PUSH2 0xBD2 JUMP JUMPDEST JUMPDEST PUSH2 0xC7D DUP6 DUP3 DUP7 ADD PUSH2 0xBE6 JUMP JUMPDEST SWAP3 POP SWAP3 POP POP SWAP3 POP SWAP3 SWAP1 POP JUMP JUMPDEST PUSH1 0x0 PUSH32 0xFFFFFFFF00000000000000000000000000000000000000000000000000000000 DUP3 AND SWAP1 POP SWAP2 SWAP1 POP JUMP JUMPDEST PUSH2 0xCBE DUP2 PUSH2 0xC89 JUMP JUMPDEST DUP3 MSTORE POP POP JUMP JUMPDEST PUSH1 0x0 PUSH1 0x20 DUP3 ADD SWAP1 POP PUSH2 0xCD9 PUSH1 0x0 DUP4 ADD DUP5 PUSH2 0xCB5 JUMP JUMPDEST SWAP3 SWAP2 POP POP JUMP JUMPDEST PUSH1 0x0 DUP1 DUP4 PUSH1 0x1F DUP5 ADD SLT PUSH2 0xCF5 JUMPI PUSH2 0xCF4 PUSH2 0xBD7 JUMP JUMPDEST JUMPDEST DUP3 CALLDATALOAD SWAP1 POP PUSH8 0xFFFFFFFFFFFFFFFF DUP2 GT ISZERO PUSH2 0xD12 JUMPI PUSH2 0xD11 PUSH2 0xBDC JUMP JUMPDEST JUMPDEST PUSH1 0x20 DUP4 ADD SWAP2 POP DUP4 PUSH1 0x20 DUP3 MUL DUP4 ADD GT ISZERO PUSH2 0xD2E JUMPI PUSH2 0xD2D PUSH2 0xBE1 JUMP JUMPDEST JUMPDEST SWAP3 POP SWAP3 SWAP1 POP JUMP JUMPDEST PUSH1 0x0 DUP1 PUSH1 0x0 DUP1 PUSH1 0x40 DUP6 DUP8 SUB SLT ISZERO PUSH2 0xD4F JUMPI PUSH2 0xD4E PUSH2 0xBCD JUMP JUMPDEST JUMPDEST PUSH1 0x0 DUP6 ADD CALLDATALOAD PUSH8 0xFFFFFFFFFFFFFFFF DUP2 GT ISZERO PUSH2 0xD6D JUMPI PUSH2 0xD6C PUSH2 0xBD2 JUMP JUMPDEST JUMPDEST PUSH2 0xD79 DUP8 DUP3 DUP9 ADD PUSH2 0xBE6 JUMP JUMPDEST SWAP5 POP SWAP5 POP POP PUSH1 0x20 DUP6 ADD CALLDATALOAD PUSH8 0xFFFFFFFFFFFFFFFF DUP2 GT ISZERO PUSH2 0xD9C JUMPI PUSH2 0xD9B PUSH2 0xBD2 JUMP JUMPDEST JUMPDEST PUSH2 0xDA8 DUP8 DUP3 DUP9 ADD PUSH2 0xCDF JUMP JUMPDEST SWAP3 POP SWAP3 POP POP SWAP3 SWAP6 SWAP2 SWAP5 POP SWAP3 POP JUMP JUMPDEST PUSH1 0x0 DUP1 PUSH1 0x20 DUP4 DUP6 SUB SLT ISZERO PUSH2 0xDCD JUMPI PUSH2 0xDCC PUSH2 0xBCD JUMP JUMPDEST JUMPDEST PUSH1 0x0 DUP4 ADD CALLDATALOAD PUSH8 0xFFFFFFFFFFFFFFFF DUP2 GT ISZERO PUSH2 0xDEB JUMPI PUSH2 0xDEA PUSH2 0xBD2 JUMP JUMPDEST JUMPDEST PUSH2 0xDF7 DUP6 DUP3 DUP7 ADD PUSH2 0xCDF JUMP JUMPDEST SWAP3 POP SWAP3 POP POP SWAP3 POP SWAP3 SWAP1 POP JUMP JUMPDEST PUSH1 0x0 PUSH20 0xFFFFFFFFFFFFFFFFFFFFFFFFFFFFFFFFFFFFFFFF DUP3 AND SWAP1 POP SWAP2 SWAP1 POP JUMP JUMPDEST PUSH1 0x0 PUSH2 0xE2E DUP3 PUSH2 0xE03 JUMP JUMPDEST SWAP1 POP SWAP2 SWAP1 POP JUMP JUMPDEST PUSH2 0xE3E DUP2 PUSH2 0xE23 JUMP JUMPDEST DUP2 EQ PUSH2 0xE49 JUMPI PUSH1 0x0 DUP1 REVERT JUMPDEST POP JUMP JUMPDEST PUSH1 0x0 DUP2 CALLDATALOAD SWAP1 POP PUSH2 0xE5B DUP2 PUSH2 0xE35 JUMP JUMPDEST SWAP3 SWAP2 POP POP JUMP JUMPDEST PUSH1 0x0 DUP2 ISZERO ISZERO SWAP1 POP SWAP2 SWAP1 POP JUMP JUMPDEST PUSH2 0xE76 DUP2 PUSH2 0xE61 JUMP JUMPDEST DUP2 EQ PUSH2 0xE81 JUMPI PUSH1 0x0 DUP1 REVERT JUMPDEST POP JUMP JUMPDEST PUSH1 0x0 DUP2 CALLDATALOAD SWAP1 POP PUSH2 0xE93 DUP2 PUSH2 0xE6D JUMP JUMPDEST SWAP3 SWAP2 POP POP JUMP JUMPDEST PUSH1 0x0 DUP1 PUSH1 0x40 DUP4 DUP6 SUB SLT ISZERO PUSH2 0xEB0 JUMPI PUSH2 0xEAF PUSH2 0xBCD JUMP JUMPDEST JUMPDEST PUSH1 0x0 PUSH2 0xEBE DUP6 DUP3 DUP7 ADD PUSH2 0xE4C JUMP JUMPDEST SWAP3 POP POP PUSH1 0x20 PUSH2 0xECF DUP6 DUP3 DUP7 ADD PUSH2 0xE84 JUMP JUMPDEST SWAP2 POP POP SWAP3 POP SWAP3 SWAP1 POP JUMP JUMPDEST PUSH32 0x4E487B7100000000000000000000000000000000000000000000000000000000 PUSH1 0x0 MSTORE PUSH1 0x32 PUSH1 0x4 MSTORE PUSH1 0x24 PUSH1 0x0 REVERT JUMPDEST PUSH2 0xF11 DUP2 PUSH2 0xE23 JUMP JUMPDEST DUP3 MSTORE POP POP JUMP JUMPDEST PUSH2 0xF20 DUP2 PUSH2 0xE61 JUMP JUMPDEST DUP3 MSTORE POP POP JUMP JUMPDEST PUSH1 0x0 PUSH1 0x40 DUP3 ADD SWAP1 POP PUSH2 0xF3B PUSH1 0x0 DUP4 ADD DUP6 PUSH2 0xF08 JUMP JUMPDEST PUSH2 0xF48 PUSH1 0x20 DUP4 ADD DUP5 PUSH2 0xF17 JUMP JUMPDEST SWAP4 SWAP3 POP POP POP JUMP JUMPDEST PUSH1 0x0 PUSH1 0x20 DUP3 ADD SWAP1 POP PUSH2 0xF64 PUSH1 0x0 DUP4 ADD DUP5 PUSH2 0xF17 JUMP JUMPDEST SWAP3 SWAP2 POP POP JUMP JUMPDEST PUSH32 0x4E487B7100000000000000000000000000000000000000000000000000000000 PUSH1 0x0 MSTORE PUSH1 0x21 PUSH1 0x4 MSTORE PUSH1 0x24 PUSH1 0x0 REVERT JUMPDEST PUSH1 0x4 DUP2 LT PUSH2 0xFA6 JUMPI PUSH1 0x0 DUP1 REVERT JUMPDEST POP JUMP JUMPDEST PUSH1 0x0 DUP2 CALLDATALOAD SWAP1 POP PUSH2 0xFB8 DUP2 PUSH2 0xF99 JUMP JUMPDEST SWAP3 SWAP2 POP POP JUMP JUMPDEST PUSH1 0x0 PUSH1 0x20 DUP3 DUP5 SUB SLT ISZERO PUSH2 0xFD4 JUMPI PUSH2 0xFD3 PUSH2 0xBCD JUMP JUMPDEST JUMPDEST PUSH1 0x0 PUSH2 0xFE2 DUP5 DUP3 DUP6 ADD PUSH2 0xFA9 JUMP JUMPDEST SWAP2 POP POP SWAP3 SWAP2 POP POP JUMP JUMPDEST PUSH1 0x0 PUSH1 0x20 DUP3 DUP5 SUB SLT ISZERO PUSH2 0x1001 JUMPI PUSH2 0x1000 PUSH2 0xBCD JUMP JUMPDEST JUMPDEST PUSH1 0x0 PUSH2 0x100F DUP5 DUP3 DUP6 ADD PUSH2 0xE4C JUMP JUMPDEST SWAP2 POP POP SWAP3 SWAP2 POP POP JUMP INVALID LOG2 PUSH5 0x6970667358 0x22 SLT KECCAK256 MLOAD CALLDATASIZE SWAP3 0x4F 0x4D 0xBB INVALID PUSH26 0x561A1FC04E45947433C8FCBA59787FFD458BB59436AA02226473 PUSH16 0x6C634300081100330000000000000000 "
				},
				"gasEstimates": {
					"creation": {
						"codeDepositCost": "2374400",
						"executionCost": "infinite",
						"totalCost": "infinite"
					},
					"external": {
						"acceptOwnership(address)": "infinite",
						"cancelOwnershipTransfer(address)": "infinite",
						"createConduit(bytes32,address)": "infinite",
						"getChannel(address,uint256)": "infinite",
						"getChannelStatus(address,address)": "infinite",
						"getChannels(address)": "infinite",
						"getConduit(bytes32)": "infinite",
						"getConduitCodeHashes()": "infinite",
						"getKey(address)": "2964",
						"getPotentialOwner(address)": "infinite",
						"getTotalChannels(address)": "5176",
						"ownerOf(address)": "infinite",
						"transferOwnership(address,address)": "infinite",
						"updateChannel(address,address,bool)": "infinite"
					},
					"internal": {
						"_assertCallerIsConduitOwner(address)": "infinite",
						"_assertConduitExists(address)": "infinite"
					}
				},
				"methodIdentifiers": {
					"acceptOwnership(address)": "51710e45",
					"cancelOwnershipTransfer(address)": "7b37e561",
					"createConduit(bytes32,address)": "794593bc",
					"getChannel(address,uint256)": "027cc764",
					"getChannelStatus(address,address)": "33bc8572",
					"getChannels(address)": "8b9e028b",
					"getConduit(bytes32)": "6e9bfd9f",
					"getConduitCodeHashes()": "0a96ad39",
					"getKey(address)": "93790f44",
					"getPotentialOwner(address)": "906c87cc",
					"getTotalChannels(address)": "4e3f9580",
					"ownerOf(address)": "14afd79e",
					"transferOwnership(address,address)": "6d435421",
					"updateChannel(address,address,bool)": "13ad9cab"
				}
			},
			"storageLayout": {
				"storage": [
					{
						"astId": 294,
						"contract": "conduit/ConduitController.sol:ConduitController",
						"label": "_conduits",
						"offset": 0,
						"slot": "0",
						"type": "t_mapping(t_address,t_struct(ConduitProperties)1115_storage)"
					}
				],
				"types": {
					"t_address": {
						"encoding": "inplace",
						"label": "address",
						"numberOfBytes": "20"
					},
					"t_array(t_address)dyn_storage": {
						"base": "t_address",
						"encoding": "dynamic_array",
						"label": "address[]",
						"numberOfBytes": "32"
					},
					"t_bytes32": {
						"encoding": "inplace",
						"label": "bytes32",
						"numberOfBytes": "32"
					},
					"t_mapping(t_address,t_struct(ConduitProperties)1115_storage)": {
						"encoding": "mapping",
						"key": "t_address",
						"label": "mapping(address => struct ConduitControllerInterface.ConduitProperties)",
						"numberOfBytes": "32",
						"value": "t_struct(ConduitProperties)1115_storage"
					},
					"t_mapping(t_address,t_uint256)": {
						"encoding": "mapping",
						"key": "t_address",
						"label": "mapping(address => uint256)",
						"numberOfBytes": "32",
						"value": "t_uint256"
					},
					"t_struct(ConduitProperties)1115_storage": {
						"encoding": "inplace",
						"label": "struct ConduitControllerInterface.ConduitProperties",
						"members": [
							{
								"astId": 1103,
								"contract": "conduit/ConduitController.sol:ConduitController",
								"label": "key",
								"offset": 0,
								"slot": "0",
								"type": "t_bytes32"
							},
							{
								"astId": 1105,
								"contract": "conduit/ConduitController.sol:ConduitController",
								"label": "owner",
								"offset": 0,
								"slot": "1",
								"type": "t_address"
							},
							{
								"astId": 1107,
								"contract": "conduit/ConduitController.sol:ConduitController",
								"label": "potentialOwner",
								"offset": 0,
								"slot": "2",
								"type": "t_address"
							},
							{
								"astId": 1110,
								"contract": "conduit/ConduitController.sol:ConduitController",
								"label": "channels",
								"offset": 0,
								"slot": "3",
								"type": "t_array(t_address)dyn_storage"
							},
							{
								"astId": 1114,
								"contract": "conduit/ConduitController.sol:ConduitController",
								"label": "channelIndexesPlusOne",
								"offset": 0,
								"slot": "4",
								"type": "t_mapping(t_address,t_uint256)"
							}
						],
						"numberOfBytes": "160"
					},
					"t_uint256": {
						"encoding": "inplace",
						"label": "uint256",
						"numberOfBytes": "32"
					}
				}
			},
			"userdoc": {
				"kind": "user",
				"methods": {
					"acceptOwnership(address)": {
						"notice": "Accept ownership of a supplied conduit. Only accounts that the         current owner has set as the new potential owner may call this         function."
					},
					"cancelOwnershipTransfer(address)": {
						"notice": "Clear the currently set potential owner, if any, from a conduit.         Only the owner of the conduit in question may call this function."
					},
					"createConduit(bytes32,address)": {
						"notice": "Deploy a new conduit using a supplied conduit key and assigning         an initial owner for the deployed conduit. Note that the first         twenty bytes of the supplied conduit key must match the caller         and that a new conduit cannot be created if one has already been         deployed using the same conduit key."
					},
					"getChannel(address,uint256)": {
						"notice": "Retrieve an open channel at a specific index for a given conduit.         Note that the index of a channel can change as a result of other         channels being closed on the conduit."
					},
					"getChannelStatus(address,address)": {
						"notice": "Retrieve the status (either open or closed) of a given channel on         a conduit."
					},
					"getChannels(address)": {
						"notice": "Retrieve all open channels for a given conduit. Note that calling         this function for a conduit with many channels will revert with         an out-of-gas error."
					},
					"getConduit(bytes32)": {
						"notice": "Derive the conduit associated with a given conduit key and         determine whether that conduit exists (i.e. whether it has been         deployed)."
					},
					"getKey(address)": {
						"notice": "Retrieve the conduit key for a deployed conduit via reverse         lookup."
					},
					"getPotentialOwner(address)": {
						"notice": "Retrieve the potential owner, if any, for a given conduit. The         current owner may set a new potential owner via         `transferOwnership` and that owner may then accept ownership of         the conduit in question via `acceptOwnership`."
					},
					"getTotalChannels(address)": {
						"notice": "Retrieve the total number of open channels for a given conduit."
					},
					"ownerOf(address)": {
						"notice": "Retrieve the current owner of a deployed conduit."
					},
					"transferOwnership(address,address)": {
						"notice": "Initiate conduit ownership transfer by assigning a new potential         owner for the given conduit. Once set, the new potential owner         may call `acceptOwnership` to claim ownership of the conduit.         Only the owner of the conduit in question may call this function."
					},
					"updateChannel(address,address,bool)": {
						"notice": "Open or close a channel on a given conduit, thereby allowing the         specified account to execute transfers against that conduit.         Extreme care must be taken when updating channels, as malicious         or vulnerable channels can transfer any ERC20, ERC721 and ERC1155         tokens where the token holder has granted the conduit approval.         Only the owner of the conduit in question may call this function."
					}
				},
				"notice": "ConduitController enables deploying and managing new conduits, or         contracts that allow registered callers (or open \"channels\") to         transfer approved ERC20/721/1155 tokens on their behalf.",
				"version": 1
			}
		}
	}
}