{
  "_format": "hh-sol-artifact-1",
  "contractName": "ExcessReturnDataRecipient",
  "sourceName": "contracts/test/ExcessReturnDataRecipient.sol",
  "abi": [
    {
      "inputs": [
        {
          "internalType": "address",
          "name": "",
          "type": "address"
        },
        {
          "internalType": "address",
          "name": "",
          "type": "address"
        },
        {
          "internalType": "uint256",
          "name": "",
          "type": "uint256"
        },
        {
          "internalType": "uint256",
          "name": "",
          "type": "uint256"
        },
        {
          "internalType": "bytes",
          "name": "",
          "type": "bytes"
        }
      ],
      "name": "onERC1155Received",
      "outputs": [
        {
          "internalType": "bytes4",
          "name": "magic",
          "type": "bytes4"
        }
      ],
      "stateMutability": "view",
      "type": "function"
    },
    {
      "inputs": [
        {
          "internalType": "uint256",
          "name": "size",
          "type": "uint256"
        }
      ],
      "name": "setRevertDataSize",
      "outputs": [],
      "stateMutability": "nonpayable",
      "type": "function"
    },
    {
      "stateMutability": "payable",
      "type": "receive"
    }
  ],
  "bytecode": "0x608060405234801561001057600080fd5b5061051e806100206000396000f3fe60806040526004361061002d5760003560e01c8063e998da54146100bd578063f23a6e61146100dd57600080fd5b366100b857600054156100b65760006100455a61011a565b6100509060366103a8565b61005c906104b06103c5565b905060006002610c00610092845a61007491906103d8565b610080906108006103a8565b61008d90628fe8006103c5565b6102f1565b61009c91906103d8565b6100a691906103eb565b9050602081028060008037806000fd5b005b600080fd5b3480156100c957600080fd5b506100b66100d836600461040d565b600055565b3480156100e957600080fd5b506100fd6100f8366004610442565b61033d565b6040516001600160e01b0319909116815260200160405180910390f35b604080517ff8f9cbfae6cc78fbefe7cdc3a1793dfcf4f0e8bbd8cec470b6a28a7a5a3e1efd81527ff5ecf1b3e9debc68e1d9cfabc5997135bfb7a7a3938b7b606b5b4b3f2f1f0ffe60208201527ff6e4ed9ff2d6b458eadcdf97bd91692de2d4da8fd2d0ac50c6ae9a8272523616818301527fc8c0b887b0a8a4489c948c7f847c6125746c645c544c444038302820181008ff60608201527ff7cae577eec2a03cf3bad76fb589591debb2dd67e0aa9834bea6925f6a4a2e0e60808201527fe39ed557db96902cd38ed14fad815115c786af479b7e8324736353433727170760a08201527fc976c13bb96e881cb166a933a55e490d9d56952b8d4e801485467d236242260660c08201527f753a6d1b65325d0c552a4d1345224105391a310b29122104190a11030902010060e0820152610100818101909252600160f81b7e818283848586878898a8b8c8d8e8f929395969799a9b9d9e9faaeb6bedeeff600160801b68010000000000000000640100000000620100006010600460026000198c0190810417908104179081041788810417908104179081041790810417908104176001010281900460ff03909101516633413c26506520662386f26fc10000600160ff1b90951190930291900401919091020490565b6000600382116001811461030a57801561033257610337565b829150600260018401045b8281101561032c5791506002828404830104610315565b50610337565b600191505b50919050565b60005463f23a6e6160e01b90156103885760006103595a61011a565b6103649060366103a8565b610370906104b06103c5565b905060006004610c00610092845a61007491906103d8565b9695505050505050565b634e487b7160e01b600052601160045260246000fd5b80820281158282048414176103bf576103bf610392565b92915050565b808201808211156103bf576103bf610392565b818103818111156103bf576103bf610392565b60008261040857634e487b7160e01b600052601260045260246000fd5b500490565b60006020828403121561041f57600080fd5b5035919050565b80356001600160a01b038116811461043d57600080fd5b919050565b60008060008060008060a0878903121561045b57600080fd5b61046487610426565b955061047260208801610426565b94506040870135935060608701359250608087013567ffffffffffffffff8082111561049d57600080fd5b818901915089601f8301126104b157600080fd5b8135818111156104c057600080fd5b8a60208285010111156104d257600080fd5b602083019450809350505050929550929550929556fea2646970667358221220c3d25a770926dbf01f6b3a82398aac9e0ca4382aadb9f56d295e98e89f5699cb64736f6c63430008110033",
  "linkReferences": {},
  "deployedLinkReferences": {}
}