{
  "_format": "hh-sol-artifact-1",
  "contractName": "ERC1155BatchRecipient",
  "sourceName": "contracts/test/ERC1155BatchRecipient.sol",
  "abi": [
    {
      "inputs": [],
      "name": "UnexpectedBatchData",
      "type": "error"
    },
    {
      "inputs": [
        {
          "internalType": "address",
          "name": "",
          "type": "address"
        },
        {
          "internalType": "address",
          "name": "",
          "type": "address"
        },
        {
          "internalType": "uint256[]",
          "name": "",
          "type": "uint256[]"
        },
        {
          "internalType": "uint256[]",
          "name": "",
          "type": "uint256[]"
        },
        {
          "internalType": "bytes",
          "name": "data",
          "type": "bytes"
        }
      ],
      "name": "onERC1155BatchReceived",
      "outputs": [
        {
          "internalType": "bytes4",
          "name": "",
          "type": "bytes4"
        }
      ],
      "stateMutability": "pure",
      "type": "function"
    }
  ],
  "bytecode": "0x608060405234801561001057600080fd5b50610273806100206000396000f3fe608060405234801561001057600080fd5b506004361061002b5760003560e01c8063bc197c8114610030575b600080fd5b61004361003e366004610116565b610060565b6040516001600160e01b0319909116815260200160405180910390f35b6000815160001461008457604051631de805c760e31b815260040160405180910390fd5b5063bc197c8160e01b979650505050505050565b80356001600160a01b03811681146100af57600080fd5b919050565b60008083601f8401126100c657600080fd5b50813567ffffffffffffffff8111156100de57600080fd5b6020830191508360208260051b85010111156100f957600080fd5b9250929050565b634e487b7160e01b600052604160045260246000fd5b600080600080600080600060a0888a03121561013157600080fd5b61013a88610098565b965061014860208901610098565b9550604088013567ffffffffffffffff8082111561016557600080fd5b6101718b838c016100b4565b909750955060608a013591508082111561018a57600080fd5b6101968b838c016100b4565b909550935060808a01359150808211156101af57600080fd5b818a0191508a601f8301126101c357600080fd5b8135818111156101d5576101d5610100565b604051601f8201601f19908116603f011681019083821181831017156101fd576101fd610100565b816040528281528d602084870101111561021657600080fd5b8260208601602083013760006020848301015280955050505050509295989194975092955056fea26469706673582212205216d1452674fb99cff73b59e14c9caad1f5364f972b4aa120e4774e4bc4798c64736f6c63430008110033",
  "linkReferences": {},
  "deployedLinkReferences": {}
}