{
  "_format": "hh-sol-artifact-1",
  "contractName": "TestZone",
  "sourceName": "contracts/test/TestZone.sol",
  "abi": [
    {
      "inputs": [
        {
          "internalType": "bytes32",
          "name": "orderHash",
          "type": "bytes32"
        },
        {
          "internalType": "address",
          "name": "caller",
          "type": "address"
        },
        {
          "internalType": "address",
          "name": "offerer",
          "type": "address"
        },
        {
          "internalType": "bytes32",
          "name": "zoneHash",
          "type": "bytes32"
        }
      ],
      "name": "isValidOrder",
      "outputs": [
        {
          "internalType": "bytes4",
          "name": "validOrderMagicValue",
          "type": "bytes4"
        }
      ],
      "stateMutability": "pure",
      "type": "function"
    },
    {
      "inputs": [
        {
          "internalType": "bytes32",
          "name": "orderHash",
          "type": "bytes32"
        },
        {
          "internalType": "address",
          "name": "caller",
          "type": "address"
        },
        {
          "components": [
            {
              "components": [
                {
                  "internalType": "address",
                  "name": "offerer",
                  "type": "address"
                },
                {
                  "internalType": "address",
                  "name": "zone",
                  "type": "address"
                },
                {
                  "components": [
                    {
                      "internalType": "enum ItemType",
                      "name": "itemType",
                      "type": "uint8"
                    },
                    {
                      "internalType": "address",
                      "name": "token",
                      "type": "address"
                    },
                    {
                      "internalType": "uint256",
                      "name": "identifierOrCriteria",
                      "type": "uint256"
                    },
                    {
                      "internalType": "uint256",
                      "name": "startAmount",
                      "type": "uint256"
                    },
                    {
                      "internalType": "uint256",
                      "name": "endAmount",
                      "type": "uint256"
                    }
                  ],
                  "internalType": "struct OfferItem[]",
                  "name": "offer",
                  "type": "tuple[]"
                },
                {
                  "components": [
                    {
                      "internalType": "enum ItemType",
                      "name": "itemType",
                      "type": "uint8"
                    },
                    {
                      "internalType": "address",
                      "name": "token",
                      "type": "address"
                    },
                    {
                      "internalType": "uint256",
                      "name": "identifierOrCriteria",
                      "type": "uint256"
                    },
                    {
                      "internalType": "uint256",
                      "name": "startAmount",
                      "type": "uint256"
                    },
                    {
                      "internalType": "uint256",
                      "name": "endAmount",
                      "type": "uint256"
                    },
                    {
                      "internalType": "address payable",
                      "name": "recipient",
                      "type": "address"
                    }
                  ],
                  "internalType": "struct ConsiderationItem[]",
                  "name": "consideration",
                  "type": "tuple[]"
                },
                {
                  "internalType": "enum OrderType",
                  "name": "orderType",
                  "type": "uint8"
                },
                {
                  "internalType": "uint256",
                  "name": "startTime",
                  "type": "uint256"
                },
                {
                  "internalType": "uint256",
                  "name": "endTime",
                  "type": "uint256"
                },
                {
                  "internalType": "bytes32",
                  "name": "zoneHash",
                  "type": "bytes32"
                },
                {
                  "internalType": "uint256",
                  "name": "salt",
                  "type": "uint256"
                },
                {
                  "internalType": "bytes32",
                  "name": "conduitKey",
                  "type": "bytes32"
                },
                {
                  "internalType": "uint256",
                  "name": "totalOriginalConsiderationItems",
                  "type": "uint256"
                }
              ],
              "internalType": "struct OrderParameters",
              "name": "parameters",
              "type": "tuple"
            },
            {
              "internalType": "uint120",
              "name": "numerator",
              "type": "uint120"
            },
            {
              "internalType": "uint120",
              "name": "denominator",
              "type": "uint120"
            },
            {
              "internalType": "bytes",
              "name": "signature",
              "type": "bytes"
            },
            {
              "internalType": "bytes",
              "name": "extraData",
              "type": "bytes"
            }
          ],
          "internalType": "struct AdvancedOrder",
          "name": "order",
          "type": "tuple"
        },
        {
          "internalType": "bytes32[]",
          "name": "priorOrderHashes",
          "type": "bytes32[]"
        },
        {
          "components": [
            {
              "internalType": "uint256",
              "name": "orderIndex",
              "type": "uint256"
            },
            {
              "internalType": "enum Side",
              "name": "side",
              "type": "uint8"
            },
            {
              "internalType": "uint256",
              "name": "index",
              "type": "uint256"
            },
            {
              "internalType": "uint256",
              "name": "identifier",
              "type": "uint256"
            },
            {
              "internalType": "bytes32[]",
              "name": "criteriaProof",
              "type": "bytes32[]"
            }
          ],
          "internalType": "struct CriteriaResolver[]",
          "name": "criteriaResolvers",
          "type": "tuple[]"
        }
      ],
      "name": "isValidOrderIncludingExtraData",
      "outputs": [
        {
          "internalType": "bytes4",
          "name": "validOrderMagicValue",
          "type": "bytes4"
        }
      ],
      "stateMutability": "pure",
      "type": "function"
    }
  ],
  "bytecode": "0x608060405234801561001057600080fd5b506103b9806100206000396000f3fe608060405234801561001057600080fd5b50600436106100365760003560e01c80630e1d31dc1461003b578063331315701461006b575b600080fd5b61004e6100493660046101d4565b61007e565b6040516001600160e01b0319909116815260200160405180910390f35b61004e610079366004610264565b610105565b600060001982016100ce5760405162461bcd60e51b8152602060048201526015602482015274526576657274206f6e207a6f6e652068617368203160581b60448201526064015b60405180910390fd5b60011982016100dc57600080fd5b60021982016100f3576001600160e01b03196100fc565b6303874c7760e21b5b95945050505050565b6000610114608087018761031b565b90506004036101655760405162461bcd60e51b815260206004820152601c60248201527f526576657274206f6e20657874726144617461206c656e67746820340000000060448201526064016100c5565b610172608087018761031b565b905060050361018057600080fd5b600361018c8780610362565b60e00135036101a3576001600160e01b03196101ac565b6303874c7760e21b5b98975050505050505050565b80356001600160a01b03811681146101cf57600080fd5b919050565b600080600080608085870312156101ea57600080fd5b843593506101fa602086016101b8565b9250610208604086016101b8565b9396929550929360600135925050565b60008083601f84011261022a57600080fd5b50813567ffffffffffffffff81111561024257600080fd5b6020830191508360208260051b850101111561025d57600080fd5b9250929050565b600080600080600080600060a0888a03121561027f57600080fd5b8735965061028f602089016101b8565b9550604088013567ffffffffffffffff808211156102ac57600080fd5b9089019060a0828c0312156102c057600080fd5b909550606089013590808211156102d657600080fd5b6102e28b838c01610218565b909650945060808a01359150808211156102fb57600080fd5b506103088a828b01610218565b989b979a50959850939692959293505050565b6000808335601e1984360301811261033257600080fd5b83018035915067ffffffffffffffff82111561034d57600080fd5b60200191503681900382131561025d57600080fd5b6000823561015e1983360301811261037957600080fd5b919091019291505056fea26469706673582212209787ede43677173ab573f780331eaf85c547fde3097380eb4b9d5113a1e1487c64736f6c63430008110033",
  "linkReferences": {},
  "deployedLinkReferences": {}
}