{
	"data": {
		"bytecode": {
			"linkReferences": {},
			"object": "60c06040523480156200001157600080fd5b50604051806020016200002490620000a4565b6020820181038252601f19601f82011660405250805190602001206080818152505060008060001b6040516200005a90620000a4565b8190604051809103906000f59050801580156200007b573d6000803e3d6000fd5b5090508073ffffffffffffffffffffffffffffffffffffffff163f60a0818152505050620000b2565b6110ae8062002f5483390190565b60805160a051612e60620000f46000396000818161047601528181610ee9015261104f01526000818161045301528181610e9a01526110000152612e606000f3fe608060405234801561001057600080fd5b50600436106100ea5760003560e01c80636d4354211161008c5780637b37e561116100665780637b37e561146102835780638b9e028b1461029f578063906c87cc146102cf57806393790f44146102ff576100ea565b80636d435421146102065780636e9bfd9f14610222578063794593bc14610253576100ea565b806314afd79e116100c857806314afd79e1461015a57806333bc85721461018a5780634e3f9580146101ba57806351710e45146101ea576100ea565b8063027cc764146100ef5780630a96ad391461011f57806313ad9cab1461013e575b600080fd5b610109600480360381019061010491906117b0565b61032f565b60405161011691906117ff565b60405180910390f35b61012761044e565b604051610135929190611833565b60405180910390f35b61015860048036038101906101539190611894565b61049b565b005b610174600480360381019061016f91906118e7565b610825565b60405161018191906117ff565b60405180910390f35b6101a4600480360381019061019f9190611914565b610899565b6040516101b19190611963565b60405180910390f35b6101d460048036038101906101cf91906118e7565b61092f565b6040516101e1919061198d565b60405180910390f35b61020460048036038101906101ff91906118e7565b610986565b005b610220600480360381019061021b9190611914565b610c7a565b005b61023c600480360381019061023791906119d4565b610e8e565b60405161024a929190611a01565b60405180910390f35b61026d60048036038101906102689190611a2a565b610f28565b60405161027a91906117ff565b60405180910390f35b61029d600480360381019061029891906118e7565b611237565b005b6102b960048036038101906102b491906118e7565b6113da565b6040516102c69190611b28565b60405180910390f35b6102e960048036038101906102e491906118e7565b6114b2565b6040516102f691906117ff565b60405180910390f35b610319600480360381019061031491906118e7565b611526565b6040516103269190611b4a565b60405180910390f35b600061033a836115ad565b60008060008573ffffffffffffffffffffffffffffffffffffffff1673ffffffffffffffffffffffffffffffffffffffff1681526020019081526020016000206003018054905090508083106103c757836040517f6ceb340b0000000000000000000000000000000000000000000000000000000081526004016103be91906117ff565b60405180910390fd5b6000808573ffffffffffffffffffffffffffffffffffffffff1673ffffffffffffffffffffffffffffffffffffffff168152602001908152602001600020600301838154811061041a57610419611b65565b5b9060005260206000200160009054906101000a900473ffffffffffffffffffffffffffffffffffffffff1691505092915050565b6000807f000000000000000000000000000000000000000000000000000000000000000091507f000000000000000000000000000000000000000000000000000000000000000090509091565b6104a48361162d565b8273ffffffffffffffffffffffffffffffffffffffff1663c4e8fcb583836040518363ffffffff1660e01b81526004016104df929190611a01565b600060405180830381600087803b1580156104f957600080fd5b505af115801561050d573d6000803e3d6000fd5b5050505060008060008573ffffffffffffffffffffffffffffffffffffffff1673ffffffffffffffffffffffffffffffffffffffff168152602001908152602001600020905060008160040160008573ffffffffffffffffffffffffffffffffffffffff1673ffffffffffffffffffffffffffffffffffffffff16815260200190815260200160002054905060008082141590508380156105ac575080155b156106685782600301859080600181540180825580915050600190039060005260206000200160009091909190916101000a81548173ffffffffffffffffffffffffffffffffffffffff021916908373ffffffffffffffffffffffffffffffffffffffff16021790555082600301805490508360040160008773ffffffffffffffffffffffffffffffffffffffff1673ffffffffffffffffffffffffffffffffffffffff1681526020019081526020016000208190555061081d565b831580156106735750805b1561081c5760006001830390506000600185600301805490506106969190611bc3565b905081811461078b5760008560030182815481106106b7576106b6611b65565b5b9060005260206000200160009054906101000a900473ffffffffffffffffffffffffffffffffffffffff169050808660030184815481106106fb576106fa611b65565b5b9060005260206000200160006101000a81548173ffffffffffffffffffffffffffffffffffffffff021916908373ffffffffffffffffffffffffffffffffffffffff160217905550848660040160008373ffffffffffffffffffffffffffffffffffffffff1673ffffffffffffffffffffffffffffffffffffffff16815260200190815260200160002081905550505b8460030180548061079f5761079e611bf7565b5b6001900381819060005260206000200160006101000a81549073ffffffffffffffffffffffffffffffffffffffff021916905590558460040160008873ffffffffffffffffffffffffffffffffffffffff1673ffffffffffffffffffffffffffffffffffffffff1681526020019081526020016000206000905550505b5b505050505050565b6000610830826115ad565b6000808373ffffffffffffffffffffffffffffffffffffffff1673ffffffffffffffffffffffffffffffffffffffff16815260200190815260200160002060010160009054906101000a900473ffffffffffffffffffffffffffffffffffffffff169050919050565b60006108a4836115ad565b60008060008573ffffffffffffffffffffffffffffffffffffffff1673ffffffffffffffffffffffffffffffffffffffff16815260200190815260200160002060040160008473ffffffffffffffffffffffffffffffffffffffff1673ffffffffffffffffffffffffffffffffffffffff168152602001908152602001600020541415905092915050565b600061093a826115ad565b6000808373ffffffffffffffffffffffffffffffffffffffff1673ffffffffffffffffffffffffffffffffffffffff168152602001908152602001600020600301805490509050919050565b61098f816115ad565b6000808273ffffffffffffffffffffffffffffffffffffffff1673ffffffffffffffffffffffffffffffffffffffff16815260200190815260200160002060020160009054906101000a900473ffffffffffffffffffffffffffffffffffffffff1673ffffffffffffffffffffffffffffffffffffffff163373ffffffffffffffffffffffffffffffffffffffff1614610a6057806040517f88c3a115000000000000000000000000000000000000000000000000000000008152600401610a5791906117ff565b60405180910390fd5b600073ffffffffffffffffffffffffffffffffffffffff167f11a3cf439fb225bfe74225716b6774765670ec1060e3796802e62139d69974da60405160405180910390a260008060008373ffffffffffffffffffffffffffffffffffffffff1673ffffffffffffffffffffffffffffffffffffffff16815260200190815260200160002060020160006101000a81548173ffffffffffffffffffffffffffffffffffffffff021916908373ffffffffffffffffffffffffffffffffffffffff1602179055503373ffffffffffffffffffffffffffffffffffffffff166000808373ffffffffffffffffffffffffffffffffffffffff1673ffffffffffffffffffffffffffffffffffffffff16815260200190815260200160002060010160009054906101000a900473ffffffffffffffffffffffffffffffffffffffff1673ffffffffffffffffffffffffffffffffffffffff168273ffffffffffffffffffffffffffffffffffffffff167fc8894f26f396ce8c004245c8b7cd1b92103a6e4302fcbab883987149ac01b7ec60405160405180910390a4336000808373ffffffffffffffffffffffffffffffffffffffff1673ffffffffffffffffffffffffffffffffffffffff16815260200190815260200160002060010160006101000a81548173ffffffffffffffffffffffffffffffffffffffff021916908373ffffffffffffffffffffffffffffffffffffffff16021790555050565b610c838261162d565b600073ffffffffffffffffffffffffffffffffffffffff168173ffffffffffffffffffffffffffffffffffffffff1603610cf457816040517fa388d263000000000000000000000000000000000000000000000000000000008152600401610ceb91906117ff565b60405180910390fd5b6000808373ffffffffffffffffffffffffffffffffffffffff1673ffffffffffffffffffffffffffffffffffffffff16815260200190815260200160002060020160009054906101000a900473ffffffffffffffffffffffffffffffffffffffff1673ffffffffffffffffffffffffffffffffffffffff168173ffffffffffffffffffffffffffffffffffffffff1603610dc75781816040517fcbc080ca000000000000000000000000000000000000000000000000000000008152600401610dbe929190611c26565b60405180910390fd5b8073ffffffffffffffffffffffffffffffffffffffff167f11a3cf439fb225bfe74225716b6774765670ec1060e3796802e62139d69974da60405160405180910390a2806000808473ffffffffffffffffffffffffffffffffffffffff1673ffffffffffffffffffffffffffffffffffffffff16815260200190815260200160002060020160006101000a81548173ffffffffffffffffffffffffffffffffffffffff021916908373ffffffffffffffffffffffffffffffffffffffff1602179055505050565b60008060ff60f81b30847f0000000000000000000000000000000000000000000000000000000000000000604051602001610ecc9493929190611d05565b6040516020818303038152906040528051906020012060001c91507f00000000000000000000000000000000000000000000000000000000000000008273ffffffffffffffffffffffffffffffffffffffff163f149050915091565b60008073ffffffffffffffffffffffffffffffffffffffff168273ffffffffffffffffffffffffffffffffffffffff1603610f8f576040517f99faaa0400000000000000000000000000000000000000000000000000000000815260040160405180910390fd5b3373ffffffffffffffffffffffffffffffffffffffff168360601c73ffffffffffffffffffffffffffffffffffffffff1614610ff7576040517fcb6e534400000000000000000000000000000000000000000000000000000000815260040160405180910390fd5b60ff60f81b30847f00000000000000000000000000000000000000000000000000000000000000006040516020016110329493929190611d05565b6040516020818303038152906040528051906020012060001c90507f00000000000000000000000000000000000000000000000000000000000000008173ffffffffffffffffffffffffffffffffffffffff163f036110c857806040517f6328ccb20000000000000000000000000000000000000000000000000000000081526004016110bf91906117ff565b60405180910390fd5b826040516110d59061170a565b8190604051809103906000f59050801580156110f5573d6000803e3d6000fd5b505060008060008373ffffffffffffffffffffffffffffffffffffffff1673ffffffffffffffffffffffffffffffffffffffff1681526020019081526020016000209050828160010160006101000a81548173ffffffffffffffffffffffffffffffffffffffff021916908373ffffffffffffffffffffffffffffffffffffffff1602179055508381600001819055507f4397af6128d529b8ae0442f99db1296d5136062597a15bbc61c1b2a6431a7d1582856040516111b6929190611d53565b60405180910390a18273ffffffffffffffffffffffffffffffffffffffff16600073ffffffffffffffffffffffffffffffffffffffff168373ffffffffffffffffffffffffffffffffffffffff167fc8894f26f396ce8c004245c8b7cd1b92103a6e4302fcbab883987149ac01b7ec60405160405180910390a45092915050565b6112408161162d565b600073ffffffffffffffffffffffffffffffffffffffff166000808373ffffffffffffffffffffffffffffffffffffffff1673ffffffffffffffffffffffffffffffffffffffff16815260200190815260200160002060020160009054906101000a900473ffffffffffffffffffffffffffffffffffffffff1673ffffffffffffffffffffffffffffffffffffffff160361131257806040517f6b01361600000000000000000000000000000000000000000000000000000000815260040161130991906117ff565b60405180910390fd5b600073ffffffffffffffffffffffffffffffffffffffff167f11a3cf439fb225bfe74225716b6774765670ec1060e3796802e62139d69974da60405160405180910390a260008060008373ffffffffffffffffffffffffffffffffffffffff1673ffffffffffffffffffffffffffffffffffffffff16815260200190815260200160002060020160006101000a81548173ffffffffffffffffffffffffffffffffffffffff021916908373ffffffffffffffffffffffffffffffffffffffff16021790555050565b60606113e5826115ad565b6000808373ffffffffffffffffffffffffffffffffffffffff1673ffffffffffffffffffffffffffffffffffffffff1681526020019081526020016000206003018054806020026020016040519081016040528092919081815260200182805480156114a657602002820191906000526020600020905b8160009054906101000a900473ffffffffffffffffffffffffffffffffffffffff1673ffffffffffffffffffffffffffffffffffffffff168152602001906001019080831161145c575b50505050509050919050565b60006114bd826115ad565b6000808373ffffffffffffffffffffffffffffffffffffffff1673ffffffffffffffffffffffffffffffffffffffff16815260200190815260200160002060020160009054906101000a900473ffffffffffffffffffffffffffffffffffffffff169050919050565b60008060008373ffffffffffffffffffffffffffffffffffffffff1673ffffffffffffffffffffffffffffffffffffffff1681526020019081526020016000206000015490506000801b81036115a8576040517f4ca8209000000000000000000000000000000000000000000000000000000000815260040160405180910390fd5b919050565b6000801b6000808373ffffffffffffffffffffffffffffffffffffffff1673ffffffffffffffffffffffffffffffffffffffff168152602001908152602001600020600001540361162a576040517f4ca8209000000000000000000000000000000000000000000000000000000000815260040160405180910390fd5b50565b611636816115ad565b6000808273ffffffffffffffffffffffffffffffffffffffff1673ffffffffffffffffffffffffffffffffffffffff16815260200190815260200160002060010160009054906101000a900473ffffffffffffffffffffffffffffffffffffffff1673ffffffffffffffffffffffffffffffffffffffff163373ffffffffffffffffffffffffffffffffffffffff161461170757806040517fd4ed9a170000000000000000000000000000000000000000000000000000000081526004016116fe91906117ff565b60405180910390fd5b50565b6110ae80611d7d83390190565b600080fd5b600073ffffffffffffffffffffffffffffffffffffffff82169050919050565b60006117478261171c565b9050919050565b6117578161173c565b811461176257600080fd5b50565b6000813590506117748161174e565b92915050565b6000819050919050565b61178d8161177a565b811461179857600080fd5b50565b6000813590506117aa81611784565b92915050565b600080604083850312156117c7576117c6611717565b5b60006117d585828601611765565b92505060206117e68582860161179b565b9150509250929050565b6117f98161173c565b82525050565b600060208201905061181460008301846117f0565b92915050565b6000819050919050565b61182d8161181a565b82525050565b60006040820190506118486000830185611824565b6118556020830184611824565b9392505050565b60008115159050919050565b6118718161185c565b811461187c57600080fd5b50565b60008135905061188e81611868565b92915050565b6000806000606084860312156118ad576118ac611717565b5b60006118bb86828701611765565b93505060206118cc86828701611765565b92505060406118dd8682870161187f565b9150509250925092565b6000602082840312156118fd576118fc611717565b5b600061190b84828501611765565b91505092915050565b6000806040838503121561192b5761192a611717565b5b600061193985828601611765565b925050602061194a85828601611765565b9150509250929050565b61195d8161185c565b82525050565b60006020820190506119786000830184611954565b92915050565b6119878161177a565b82525050565b60006020820190506119a2600083018461197e565b92915050565b6119b18161181a565b81146119bc57600080fd5b50565b6000813590506119ce816119a8565b92915050565b6000602082840312156119ea576119e9611717565b5b60006119f8848285016119bf565b91505092915050565b6000604082019050611a1660008301856117f0565b611a236020830184611954565b9392505050565b60008060408385031215611a4157611a40611717565b5b6000611a4f858286016119bf565b9250506020611a6085828601611765565b9150509250929050565b600081519050919050565b600082825260208201905092915050565b6000819050602082019050919050565b611a9f8161173c565b82525050565b6000611ab18383611a96565b60208301905092915050565b6000602082019050919050565b6000611ad582611a6a565b611adf8185611a75565b9350611aea83611a86565b8060005b83811015611b1b578151611b028882611aa5565b9750611b0d83611abd565b925050600181019050611aee565b5085935050505092915050565b60006020820190508181036000830152611b428184611aca565b905092915050565b6000602082019050611b5f6000830184611824565b92915050565b7f4e487b7100000000000000000000000000000000000000000000000000000000600052603260045260246000fd5b7f4e487b7100000000000000000000000000000000000000000000000000000000600052601160045260246000fd5b6000611bce8261177a565b9150611bd98361177a565b9250828203905081811115611bf157611bf0611b94565b5b92915050565b7f4e487b7100000000000000000000000000000000000000000000000000000000600052603160045260246000fd5b6000604082019050611c3b60008301856117f0565b611c4860208301846117f0565b9392505050565b60007fff0000000000000000000000000000000000000000000000000000000000000082169050919050565b6000819050919050565b611c96611c9182611c4f565b611c7b565b82525050565b60008160601b9050919050565b6000611cb482611c9c565b9050919050565b6000611cc682611ca9565b9050919050565b611cde611cd98261173c565b611cbb565b82525050565b6000819050919050565b611cff611cfa8261181a565b611ce4565b82525050565b6000611d118287611c85565b600182019150611d218286611ccd565b601482019150611d318285611cee565b602082019150611d418284611cee565b60208201915081905095945050505050565b6000604082019050611d6860008301856117f0565b611d756020830184611824565b939250505056fe60a060405234801561001057600080fd5b503373ffffffffffffffffffffffffffffffffffffffff1660808173ffffffffffffffffffffffffffffffffffffffff168152505060805161104e6100606000396000610290015261104e6000f3fe608060405234801561001057600080fd5b506004361061004c5760003560e01c80634ce34aa214610051578063899e104c146100815780638df25d92146100b1578063c4e8fcb5146100e1575b600080fd5b61006b60048036038101906100669190610c3c565b6100fd565b6040516100789190610cc4565b60405180910390f35b61009b60048036038101906100969190610d35565b610191565b6040516100a89190610cc4565b60405180910390f35b6100cb60048036038101906100c69190610db6565b610231565b6040516100d89190610cc4565b60405180910390f35b6100fb60048036038101906100f69190610e99565b61028e565b005b6000336000526000602052604060002054610140577f93daadf2000000000000000000000000000000000000000000000000000000006000523360045260246000fd5b600083839050905060005b8181101561017f5761017485858381811061016957610168610ed9565b5b905060c00201610450565b80600101905061014b565b50634ce34aa260e01b91505092915050565b60003360005260006020526040600020546101d4577f93daadf2000000000000000000000000000000000000000000000000000000006000523360045260246000fd5b600085859050905060005b81811015610213576102088787838181106101fd576101fc610ed9565b5b905060c00201610450565b8060010190506101df565b5061021e8484610664565b63899e104c60e01b915050949350505050565b6000336000526000602052604060002054610274577f93daadf2000000000000000000000000000000000000000000000000000000006000523360045260246000fd5b61027e8383610664565b638df25d9260e01b905092915050565b7f000000000000000000000000000000000000000000000000000000000000000073ffffffffffffffffffffffffffffffffffffffff163373ffffffffffffffffffffffffffffffffffffffff1614610313576040517f6d5769be00000000000000000000000000000000000000000000000000000000815260040160405180910390fd5b8015156000808473ffffffffffffffffffffffffffffffffffffffff1673ffffffffffffffffffffffffffffffffffffffff16815260200190815260200160002060009054906101000a900460ff161515036103a85781816040517f924e341e00000000000000000000000000000000000000000000000000000000815260040161039f929190610f26565b60405180910390fd5b806000808473ffffffffffffffffffffffffffffffffffffffff1673ffffffffffffffffffffffffffffffffffffffff16815260200190815260200160002060006101000a81548160ff0219169083151502179055508173ffffffffffffffffffffffffffffffffffffffff167fae63067d43ac07563b7eb8db6595635fc77f1578a2a5ea06ba91b63e2afa37e2826040516104449190610f4f565b60405180910390a25050565b6001600381111561046457610463610f6a565b5b8160000160208101906104779190610fbe565b600381111561048957610488610f6a565b5b036104d9576104d48160200160208101906104a49190610feb565b8260400160208101906104b79190610feb565b8360600160208101906104ca9190610feb565b8460a0013561080c565b610661565b600260038111156104ed576104ec610f6a565b5b8160000160208101906105009190610fbe565b600381111561051257610511610f6a565b5b036105a05760018160a0013514610555576040517fefcc00b100000000000000000000000000000000000000000000000000000000815260040160405180910390fd5b61059b81602001602081019061056b9190610feb565b82604001602081019061057e9190610feb565b8360600160208101906105919190610feb565b846080013561097f565b610660565b6003808111156105b3576105b2610f6a565b5b8160000160208101906105c69190610fbe565b60038111156105d8576105d7610f6a565b5b0361062d576106288160200160208101906105f39190610feb565b8260400160208101906106069190610feb565b8360600160208101906106199190610feb565b84608001358560a00135610a93565b61065f565b6040517f7932f1fc00000000000000000000000000000000000000000000000000000000815260040160405180910390fd5b5b5b50565b8082807f2eb2c2d60000000000000000000000000000000000000000000000000000000060205260005b838110156107ff57823582018035803b6106d0577f5f15d672000000000000000000000000000000000000000000000000000000006000528060045260246000fd5b60a08201356020810260c0018060808501351460a06060860135141681850135831416158015610724577feba2084c0000000000000000000000000000000000000000000000000000000060005260046000fd5b602088019750608060208601602437604083026040018060a00160a45260008160c401528060c4018160a0880160c43760008082602060008a5af1806107ec573d156107b1576020601f3d010460208304816003028183111561079857610200828302848502030460038385030201810190505b5a6020820110156107ad573d6000803e3d6000fd5b5050505b7fafc445e2000000000000000000000000000000000000000000000000000000006000528660045260c0606452608451602001608452816000fd5b505050505050505060018101905061068e565b5060806040525050505050565b6040517f23b872dd00000000000000000000000000000000000000000000000000000000600052836004528260245281604452602060006064600080895af1803d15601f3d116001600051141617163d1515811661096d5780873b15151661096c578061093e5781610904573d156108c5576020601f3d01046020840481600302818311156108ac57610200828302848502030460038385030201810190505b5a6020820110156108c1573d6000803e3d6000fd5b5050505b7ff486bc870000000000000000000000000000000000000000000000000000000060005286600452856024528460445260006064528360845260a46000fd5b7f98891923000000000000000000000000000000000000000000000000000000006000528660045285602452846044528360645260846000fd5b7f5f15d672000000000000000000000000000000000000000000000000000000006000528660045260246000fd5b5b82604052600060605250505050505050565b833b6109b3577f5f15d672000000000000000000000000000000000000000000000000000000006000528360045260246000fd5b6040517f23b872dd000000000000000000000000000000000000000000000000000000006000528360045282602452816044526000806064600080895af180610a82573d15610a43576020601f3d0104602083048160030281831115610a2a57610200828302848502030460038385030201810190505b5a602082011015610a3f573d6000803e3d6000fd5b5050505b7ff486bc870000000000000000000000000000000000000000000000000000000060005285600452846024528360445282606452600160845260a46000fd5b816040526000606052505050505050565b843b610ac7577f5f15d672000000000000000000000000000000000000000000000000000000006000528460045260246000fd5b60405160805160a05160c0517ff242432a000000000000000000000000000000000000000000000000000000006000528760045286602452856044528460645260a0608452600060a45260008060c46000808d5af180610bac573d15610b6e576020601f3d0104602086048160030281831115610b5557610200828302848502030460038385030201810190505b5a602082011015610b6a573d6000803e3d6000fd5b5050505b7ff486bc8700000000000000000000000000000000000000000000000000000000600052896004528860245287604452866064528560845260a46000fd5b836080528260a0528160c05284604052600060605250505050505050505050565b600080fd5b600080fd5b600080fd5b600080fd5b600080fd5b60008083601f840112610bfc57610bfb610bd7565b5b8235905067ffffffffffffffff811115610c1957610c18610bdc565b5b6020830191508360c0820283011115610c3557610c34610be1565b5b9250929050565b60008060208385031215610c5357610c52610bcd565b5b600083013567ffffffffffffffff811115610c7157610c70610bd2565b5b610c7d85828601610be6565b92509250509250929050565b60007fffffffff0000000000000000000000000000000000000000000000000000000082169050919050565b610cbe81610c89565b82525050565b6000602082019050610cd96000830184610cb5565b92915050565b60008083601f840112610cf557610cf4610bd7565b5b8235905067ffffffffffffffff811115610d1257610d11610bdc565b5b602083019150836020820283011115610d2e57610d2d610be1565b5b9250929050565b60008060008060408587031215610d4f57610d4e610bcd565b5b600085013567ffffffffffffffff811115610d6d57610d6c610bd2565b5b610d7987828801610be6565b9450945050602085013567ffffffffffffffff811115610d9c57610d9b610bd2565b5b610da887828801610cdf565b925092505092959194509250565b60008060208385031215610dcd57610dcc610bcd565b5b600083013567ffffffffffffffff811115610deb57610dea610bd2565b5b610df785828601610cdf565b92509250509250929050565b600073ffffffffffffffffffffffffffffffffffffffff82169050919050565b6000610e2e82610e03565b9050919050565b610e3e81610e23565b8114610e4957600080fd5b50565b600081359050610e5b81610e35565b92915050565b60008115159050919050565b610e7681610e61565b8114610e8157600080fd5b50565b600081359050610e9381610e6d565b92915050565b60008060408385031215610eb057610eaf610bcd565b5b6000610ebe85828601610e4c565b9250506020610ecf85828601610e84565b9150509250929050565b7f4e487b7100000000000000000000000000000000000000000000000000000000600052603260045260246000fd5b610f1181610e23565b82525050565b610f2081610e61565b82525050565b6000604082019050610f3b6000830185610f08565b610f486020830184610f17565b9392505050565b6000602082019050610f646000830184610f17565b92915050565b7f4e487b7100000000000000000000000000000000000000000000000000000000600052602160045260246000fd5b60048110610fa657600080fd5b50565b600081359050610fb881610f99565b92915050565b600060208284031215610fd457610fd3610bcd565b5b6000610fe284828501610fa9565b91505092915050565b60006020828403121561100157611000610bcd565b5b600061100f84828501610e4c565b9150509291505056fea26469706673582212205136924f4dbbfe79561a1fc04e45947433c8fcba59787ffd458bb59436aa022264736f6c63430008110033a2646970667358221220761bc6711f0af030e64e4344395b1ef19179448b9d129d2b16bfafae043b55cd64736f6c6343000811003360a060405234801561001057600080fd5b503373ffffffffffffffffffffffffffffffffffffffff1660808173ffffffffffffffffffffffffffffffffffffffff168152505060805161104e6100606000396000610290015261104e6000f3fe608060405234801561001057600080fd5b506004361061004c5760003560e01c80634ce34aa214610051578063899e104c146100815780638df25d92146100b1578063c4e8fcb5146100e1575b600080fd5b61006b60048036038101906100669190610c3c565b6100fd565b6040516100789190610cc4565b60405180910390f35b61009b60048036038101906100969190610d35565b610191565b6040516100a89190610cc4565b60405180910390f35b6100cb60048036038101906100c69190610db6565b610231565b6040516100d89190610cc4565b60405180910390f35b6100fb60048036038101906100f69190610e99565b61028e565b005b6000336000526000602052604060002054610140577f93daadf2000000000000000000000000000000000000000000000000000000006000523360045260246000fd5b600083839050905060005b8181101561017f5761017485858381811061016957610168610ed9565b5b905060c00201610450565b80600101905061014b565b50634ce34aa260e01b91505092915050565b60003360005260006020526040600020546101d4577f93daadf2000000000000000000000000000000000000000000000000000000006000523360045260246000fd5b600085859050905060005b81811015610213576102088787838181106101fd576101fc610ed9565b5b905060c00201610450565b8060010190506101df565b5061021e8484610664565b63899e104c60e01b915050949350505050565b6000336000526000602052604060002054610274577f93daadf2000000000000000000000000000000000000000000000000000000006000523360045260246000fd5b61027e8383610664565b638df25d9260e01b905092915050565b7f000000000000000000000000000000000000000000000000000000000000000073ffffffffffffffffffffffffffffffffffffffff163373ffffffffffffffffffffffffffffffffffffffff1614610313576040517f6d5769be00000000000000000000000000000000000000000000000000000000815260040160405180910390fd5b8015156000808473ffffffffffffffffffffffffffffffffffffffff1673ffffffffffffffffffffffffffffffffffffffff16815260200190815260200160002060009054906101000a900460ff161515036103a85781816040517f924e341e00000000000000000000000000000000000000000000000000000000815260040161039f929190610f26565b60405180910390fd5b806000808473ffffffffffffffffffffffffffffffffffffffff1673ffffffffffffffffffffffffffffffffffffffff16815260200190815260200160002060006101000a81548160ff0219169083151502179055508173ffffffffffffffffffffffffffffffffffffffff167fae63067d43ac07563b7eb8db6595635fc77f1578a2a5ea06ba91b63e2afa37e2826040516104449190610f4f565b60405180910390a25050565b6001600381111561046457610463610f6a565b5b8160000160208101906104779190610fbe565b600381111561048957610488610f6a565b5b036104d9576104d48160200160208101906104a49190610feb565b8260400160208101906104b79190610feb565b8360600160208101906104ca9190610feb565b8460a0013561080c565b610661565b600260038111156104ed576104ec610f6a565b5b8160000160208101906105009190610fbe565b600381111561051257610511610f6a565b5b036105a05760018160a0013514610555576040517fefcc00b100000000000000000000000000000000000000000000000000000000815260040160405180910390fd5b61059b81602001602081019061056b9190610feb565b82604001602081019061057e9190610feb565b8360600160208101906105919190610feb565b846080013561097f565b610660565b6003808111156105b3576105b2610f6a565b5b8160000160208101906105c69190610fbe565b60038111156105d8576105d7610f6a565b5b0361062d576106288160200160208101906105f39190610feb565b8260400160208101906106069190610feb565b8360600160208101906106199190610feb565b84608001358560a00135610a93565b61065f565b6040517f7932f1fc00000000000000000000000000000000000000000000000000000000815260040160405180910390fd5b5b5b50565b8082807f2eb2c2d60000000000000000000000000000000000000000000000000000000060205260005b838110156107ff57823582018035803b6106d0577f5f15d672000000000000000000000000000000000000000000000000000000006000528060045260246000fd5b60a08201356020810260c0018060808501351460a06060860135141681850135831416158015610724577feba2084c0000000000000000000000000000000000000000000000000000000060005260046000fd5b602088019750608060208601602437604083026040018060a00160a45260008160c401528060c4018160a0880160c43760008082602060008a5af1806107ec573d156107b1576020601f3d010460208304816003028183111561079857610200828302848502030460038385030201810190505b5a6020820110156107ad573d6000803e3d6000fd5b5050505b7fafc445e2000000000000000000000000000000000000000000000000000000006000528660045260c0606452608451602001608452816000fd5b505050505050505060018101905061068e565b5060806040525050505050565b6040517f23b872dd00000000000000000000000000000000000000000000000000000000600052836004528260245281604452602060006064600080895af1803d15601f3d116001600051141617163d1515811661096d5780873b15151661096c578061093e5781610904573d156108c5576020601f3d01046020840481600302818311156108ac57610200828302848502030460038385030201810190505b5a6020820110156108c1573d6000803e3d6000fd5b5050505b7ff486bc870000000000000000000000000000000000000000000000000000000060005286600452856024528460445260006064528360845260a46000fd5b7f98891923000000000000000000000000000000000000000000000000000000006000528660045285602452846044528360645260846000fd5b7f5f15d672000000000000000000000000000000000000000000000000000000006000528660045260246000fd5b5b82604052600060605250505050505050565b833b6109b3577f5f15d672000000000000000000000000000000000000000000000000000000006000528360045260246000fd5b6040517f23b872dd000000000000000000000000000000000000000000000000000000006000528360045282602452816044526000806064600080895af180610a82573d15610a43576020601f3d0104602083048160030281831115610a2a57610200828302848502030460038385030201810190505b5a602082011015610a3f573d6000803e3d6000fd5b5050505b7ff486bc870000000000000000000000000000000000000000000000000000000060005285600452846024528360445282606452600160845260a46000fd5b816040526000606052505050505050565b843b610ac7577f5f15d672000000000000000000000000000000000000000000000000000000006000528460045260246000fd5b60405160805160a05160c0517ff242432a000000000000000000000000000000000000000000000000000000006000528760045286602452856044528460645260a0608452600060a45260008060c46000808d5af180610bac573d15610b6e576020601f3d0104602086048160030281831115610b5557610200828302848502030460038385030201810190505b5a602082011015610b6a573d6000803e3d6000fd5b5050505b7ff486bc8700000000000000000000000000000000000000000000000000000000600052896004528860245287604452866064528560845260a46000fd5b836080528260a0528160c05284604052600060605250505050505050505050565b600080fd5b600080fd5b600080fd5b600080fd5b600080fd5b60008083601f840112610bfc57610bfb610bd7565b5b8235905067ffffffffffffffff811115610c1957610c18610bdc565b5b6020830191508360c0820283011115610c3557610c34610be1565b5b9250929050565b60008060208385031215610c5357610c52610bcd565b5b600083013567ffffffffffffffff811115610c7157610c70610bd2565b5b610c7d85828601610be6565b92509250509250929050565b60007fffffffff0000000000000000000000000000000000000000000000000000000082169050919050565b610cbe81610c89565b82525050565b6000602082019050610cd96000830184610cb5565b92915050565b60008083601f840112610cf557610cf4610bd7565b5b8235905067ffffffffffffffff811115610d1257610d11610bdc565b5b602083019150836020820283011115610d2e57610d2d610be1565b5b9250929050565b60008060008060408587031215610d4f57610d4e610bcd565b5b600085013567ffffffffffffffff811115610d6d57610d6c610bd2565b5b610d7987828801610be6565b9450945050602085013567ffffffffffffffff811115610d9c57610d9b610bd2565b5b610da887828801610cdf565b925092505092959194509250565b60008060208385031215610dcd57610dcc610bcd565b5b600083013567ffffffffffffffff811115610deb57610dea610bd2565b5b610df785828601610cdf565b92509250509250929050565b600073ffffffffffffffffffffffffffffffffffffffff82169050919050565b6000610e2e82610e03565b9050919050565b610e3e81610e23565b8114610e4957600080fd5b50565b600081359050610e5b81610e35565b92915050565b60008115159050919050565b610e7681610e61565b8114610e8157600080fd5b50565b600081359050610e9381610e6d565b92915050565b60008060408385031215610eb057610eaf610bcd565b5b6000610ebe85828601610e4c565b9250506020610ecf85828601610e84565b9150509250929050565b7f4e487b7100000000000000000000000000000000000000000000000000000000600052603260045260246000fd5b610f1181610e23565b82525050565b610f2081610e61565b82525050565b6000604082019050610f3b6000830185610f08565b610f486020830184610f17565b9392505050565b6000602082019050610f646000830184610f17565b92915050565b7f4e487b7100000000000000000000000000000000000000000000000000000000600052602160045260246000fd5b60048110610fa657600080fd5b50565b600081359050610fb881610f99565b92915050565b600060208284031215610fd457610fd3610bcd565b5b6000610fe284828501610fa9565b91505092915050565b60006020828403121561100157611000610bcd565b5b600061100f84828501610e4c565b9150509291505056fea26469706673582212205136924f4dbbfe79561a1fc04e45947433c8fcba59787ffd458bb59436aa022264736f6c63430008110033",
			"opcodes": "PUSH1 0xC0 PUSH1 0x40 MSTORE CALLVALUE DUP1 ISZERO PUSH3 0x11 JUMPI PUSH1 0x0 DUP1 REVERT JUMPDEST POP PUSH1 0x40 MLOAD DUP1 PUSH1 0x20 ADD PUSH3 0x24 SWAP1 PUSH3 0xA4 JUMP JUMPDEST PUSH1 0x20 DUP3 ADD DUP2 SUB DUP3 MSTORE PUSH1 0x1F NOT PUSH1 0x1F DUP3 ADD AND PUSH1 0x40 MSTORE POP DUP1 MLOAD SWAP1 PUSH1 0x20 ADD KECCAK256 PUSH1 0x80 DUP2 DUP2 MSTORE POP POP PUSH1 0x0 DUP1 PUSH1 0x0 SHL PUSH1 0x40 MLOAD PUSH3 0x5A SWAP1 PUSH3 0xA4 JUMP JUMPDEST DUP2 SWAP1 PUSH1 0x40 MLOAD DUP1 SWAP2 SUB SWAP1 PUSH1 0x0 CREATE2 SWAP1 POP DUP1 ISZERO DUP1 ISZERO PUSH3 0x7B JUMPI RETURNDATASIZE PUSH1 0x0 DUP1 RETURNDATACOPY RETURNDATASIZE PUSH1 0x0 REVERT JUMPDEST POP SWAP1 POP DUP1 PUSH20 0xFFFFFFFFFFFFFFFFFFFFFFFFFFFFFFFFFFFFFFFF AND EXTCODEHASH PUSH1 0xA0 DUP2 DUP2 MSTORE POP POP POP PUSH3 0xB2 JUMP JUMPDEST PUSH2 0x10AE DUP1 PUSH3 0x2F54 DUP4 CODECOPY ADD SWAP1 JUMP JUMPDEST PUSH1 0x80 MLOAD PUSH1 0xA0 MLOAD PUSH2 0x2E60 PUSH3 0xF4 PUSH1 0x0 CODECOPY PUSH1 0x0 DUP2 DUP2 PUSH2 0x476 ADD MSTORE DUP2 DUP2 PUSH2 0xEE9 ADD MSTORE PUSH2 0x104F ADD MSTORE PUSH1 0x0 DUP2 DUP2 PUSH2 0x453 ADD MSTORE DUP2 DUP2 PUSH2 0xE9A ADD MSTORE PUSH2 0x1000 ADD MSTORE PUSH2 0x2E60 PUSH1 0x0 RETURN INVALID PUSH1 0x80 PUSH1 0x40 MSTORE CALLVALUE DUP1 ISZERO PUSH2 0x10 JUMPI PUSH1 0x0 DUP1 REVERT JUMPDEST POP PUSH1 0x4 CALLDATASIZE LT PUSH2 0xEA JUMPI PUSH1 0x0 CALLDATALOAD PUSH1 0xE0 SHR DUP1 PUSH4 0x6D435421 GT PUSH2 0x8C JUMPI DUP1 PUSH4 0x7B37E561 GT PUSH2 0x66 JUMPI DUP1 PUSH4 0x7B37E561 EQ PUSH2 0x283 JUMPI DUP1 PUSH4 0x8B9E028B EQ PUSH2 0x29F JUMPI DUP1 PUSH4 0x906C87CC EQ PUSH2 0x2CF JUMPI DUP1 PUSH4 0x93790F44 EQ PUSH2 0x2FF JUMPI PUSH2 0xEA JUMP JUMPDEST DUP1 PUSH4 0x6D435421 EQ PUSH2 0x206 JUMPI DUP1 PUSH4 0x6E9BFD9F EQ PUSH2 0x222 JUMPI DUP1 PUSH4 0x794593BC EQ PUSH2 0x253 JUMPI PUSH2 0xEA JUMP JUMPDEST DUP1 PUSH4 0x14AFD79E GT PUSH2 0xC8 JUMPI DUP1 PUSH4 0x14AFD79E EQ PUSH2 0x15A JUMPI DUP1 PUSH4 0x33BC8572 EQ PUSH2 0x18A JUMPI DUP1 PUSH4 0x4E3F9580 EQ PUSH2 0x1BA JUMPI DUP1 PUSH4 0x51710E45 EQ PUSH2 0x1EA JUMPI PUSH2 0xEA JUMP JUMPDEST DUP1 PUSH4 0x27CC764 EQ PUSH2 0xEF JUMPI DUP1 PUSH4 0xA96AD39 EQ PUSH2 0x11F JUMPI DUP1 PUSH4 0x13AD9CAB EQ PUSH2 0x13E JUMPI JUMPDEST PUSH1 0x0 DUP1 REVERT JUMPDEST PUSH2 0x109 PUSH1 0x4 DUP1 CALLDATASIZE SUB DUP2 ADD SWAP1 PUSH2 0x104 SWAP2 SWAP1 PUSH2 0x17B0 JUMP JUMPDEST PUSH2 0x32F JUMP JUMPDEST PUSH1 0x40 MLOAD PUSH2 0x116 SWAP2 SWAP1 PUSH2 0x17FF JUMP JUMPDEST PUSH1 0x40 MLOAD DUP1 SWAP2 SUB SWAP1 RETURN JUMPDEST PUSH2 0x127 PUSH2 0x44E JUMP JUMPDEST PUSH1 0x40 MLOAD PUSH2 0x135 SWAP3 SWAP2 SWAP1 PUSH2 0x1833 JUMP JUMPDEST PUSH1 0x40 MLOAD DUP1 SWAP2 SUB SWAP1 RETURN JUMPDEST PUSH2 0x158 PUSH1 0x4 DUP1 CALLDATASIZE SUB DUP2 ADD SWAP1 PUSH2 0x153 SWAP2 SWAP1 PUSH2 0x1894 JUMP JUMPDEST PUSH2 0x49B JUMP JUMPDEST STOP JUMPDEST PUSH2 0x174 PUSH1 0x4 DUP1 CALLDATASIZE SUB DUP2 ADD SWAP1 PUSH2 0x16F SWAP2 SWAP1 PUSH2 0x18E7 JUMP JUMPDEST PUSH2 0x825 JUMP JUMPDEST PUSH1 0x40 MLOAD PUSH2 0x181 SWAP2 SWAP1 PUSH2 0x17FF JUMP JUMPDEST PUSH1 0x40 MLOAD DUP1 SWAP2 SUB SWAP1 RETURN JUMPDEST PUSH2 0x1A4 PUSH1 0x4 DUP1 CALLDATASIZE SUB DUP2 ADD SWAP1 PUSH2 0x19F SWAP2 SWAP1 PUSH2 0x1914 JUMP JUMPDEST PUSH2 0x899 JUMP JUMPDEST PUSH1 0x40 MLOAD PUSH2 0x1B1 SWAP2 SWAP1 PUSH2 0x1963 JUMP JUMPDEST PUSH1 0x40 MLOAD DUP1 SWAP2 SUB SWAP1 RETURN JUMPDEST PUSH2 0x1D4 PUSH1 0x4 DUP1 CALLDATASIZE SUB DUP2 ADD SWAP1 PUSH2 0x1CF SWAP2 SWAP1 PUSH2 0x18E7 JUMP JUMPDEST PUSH2 0x92F JUMP JUMPDEST PUSH1 0x40 MLOAD PUSH2 0x1E1 SWAP2 SWAP1 PUSH2 0x198D JUMP JUMPDEST PUSH1 0x40 MLOAD DUP1 SWAP2 SUB SWAP1 RETURN JUMPDEST PUSH2 0x204 PUSH1 0x4 DUP1 CALLDATASIZE SUB DUP2 ADD SWAP1 PUSH2 0x1FF SWAP2 SWAP1 PUSH2 0x18E7 JUMP JUMPDEST PUSH2 0x986 JUMP JUMPDEST STOP JUMPDEST PUSH2 0x220 PUSH1 0x4 DUP1 CALLDATASIZE SUB DUP2 ADD SWAP1 PUSH2 0x21B SWAP2 SWAP1 PUSH2 0x1914 JUMP JUMPDEST PUSH2 0xC7A JUMP JUMPDEST STOP JUMPDEST PUSH2 0x23C PUSH1 0x4 DUP1 CALLDATASIZE SUB DUP2 ADD SWAP1 PUSH2 0x237 SWAP2 SWAP1 PUSH2 0x19D4 JUMP JUMPDEST PUSH2 0xE8E JUMP JUMPDEST PUSH1 0x40 MLOAD PUSH2 0x24A SWAP3 SWAP2 SWAP1 PUSH2 0x1A01 JUMP JUMPDEST PUSH1 0x40 MLOAD DUP1 SWAP2 SUB SWAP1 RETURN JUMPDEST PUSH2 0x26D PUSH1 0x4 DUP1 CALLDATASIZE SUB DUP2 ADD SWAP1 PUSH2 0x268 SWAP2 SWAP1 PUSH2 0x1A2A JUMP JUMPDEST PUSH2 0xF28 JUMP JUMPDEST PUSH1 0x40 MLOAD PUSH2 0x27A SWAP2 SWAP1 PUSH2 0x17FF JUMP JUMPDEST PUSH1 0x40 MLOAD DUP1 SWAP2 SUB SWAP1 RETURN JUMPDEST PUSH2 0x29D PUSH1 0x4 DUP1 CALLDATASIZE SUB DUP2 ADD SWAP1 PUSH2 0x298 SWAP2 SWAP1 PUSH2 0x18E7 JUMP JUMPDEST PUSH2 0x1237 JUMP JUMPDEST STOP JUMPDEST PUSH2 0x2B9 PUSH1 0x4 DUP1 CALLDATASIZE SUB DUP2 ADD SWAP1 PUSH2 0x2B4 SWAP2 SWAP1 PUSH2 0x18E7 JUMP JUMPDEST PUSH2 0x13DA JUMP JUMPDEST PUSH1 0x40 MLOAD PUSH2 0x2C6 SWAP2 SWAP1 PUSH2 0x1B28 JUMP JUMPDEST PUSH1 0x40 MLOAD DUP1 SWAP2 SUB SWAP1 RETURN JUMPDEST PUSH2 0x2E9 PUSH1 0x4 DUP1 CALLDATASIZE SUB DUP2 ADD SWAP1 PUSH2 0x2E4 SWAP2 SWAP1 PUSH2 0x18E7 JUMP JUMPDEST PUSH2 0x14B2 JUMP JUMPDEST PUSH1 0x40 MLOAD PUSH2 0x2F6 SWAP2 SWAP1 PUSH2 0x17FF JUMP JUMPDEST PUSH1 0x40 MLOAD DUP1 SWAP2 SUB SWAP1 RETURN JUMPDEST PUSH2 0x319 PUSH1 0x4 DUP1 CALLDATASIZE SUB DUP2 ADD SWAP1 PUSH2 0x314 SWAP2 SWAP1 PUSH2 0x18E7 JUMP JUMPDEST PUSH2 0x1526 JUMP JUMPDEST PUSH1 0x40 MLOAD PUSH2 0x326 SWAP2 SWAP1 PUSH2 0x1B4A JUMP JUMPDEST PUSH1 0x40 MLOAD DUP1 SWAP2 SUB SWAP1 RETURN JUMPDEST PUSH1 0x0 PUSH2 0x33A DUP4 PUSH2 0x15AD JUMP JUMPDEST PUSH1 0x0 DUP1 PUSH1 0x0 DUP6 PUSH20 0xFFFFFFFFFFFFFFFFFFFFFFFFFFFFFFFFFFFFFFFF AND PUSH20 0xFFFFFFFFFFFFFFFFFFFFFFFFFFFFFFFFFFFFFFFF AND DUP2 MSTORE PUSH1 0x20 ADD SWAP1 DUP2 MSTORE PUSH1 0x20 ADD PUSH1 0x0 KECCAK256 PUSH1 0x3 ADD DUP1 SLOAD SWAP1 POP SWAP1 POP DUP1 DUP4 LT PUSH2 0x3C7 JUMPI DUP4 PUSH1 0x40 MLOAD PUSH32 0x6CEB340B00000000000000000000000000000000000000000000000000000000 DUP2 MSTORE PUSH1 0x4 ADD PUSH2 0x3BE SWAP2 SWAP1 PUSH2 0x17FF JUMP JUMPDEST PUSH1 0x40 MLOAD DUP1 SWAP2 SUB SWAP1 REVERT JUMPDEST PUSH1 0x0 DUP1 DUP6 PUSH20 0xFFFFFFFFFFFFFFFFFFFFFFFFFFFFFFFFFFFFFFFF AND PUSH20 0xFFFFFFFFFFFFFFFFFFFFFFFFFFFFFFFFFFFFFFFF AND DUP2 MSTORE PUSH1 0x20 ADD SWAP1 DUP2 MSTORE PUSH1 0x20 ADD PUSH1 0x0 KECCAK256 PUSH1 0x3 ADD DUP4 DUP2 SLOAD DUP2 LT PUSH2 0x41A JUMPI PUSH2 0x419 PUSH2 0x1B65 JUMP JUMPDEST JUMPDEST SWAP1 PUSH1 0x0 MSTORE PUSH1 0x20 PUSH1 0x0 KECCAK256 ADD PUSH1 0x0 SWAP1 SLOAD SWAP1 PUSH2 0x100 EXP SWAP1 DIV PUSH20 0xFFFFFFFFFFFFFFFFFFFFFFFFFFFFFFFFFFFFFFFF AND SWAP2 POP POP SWAP3 SWAP2 POP POP JUMP JUMPDEST PUSH1 0x0 DUP1 PUSH32 0x0 SWAP2 POP PUSH32 0x0 SWAP1 POP SWAP1 SWAP2 JUMP JUMPDEST PUSH2 0x4A4 DUP4 PUSH2 0x162D JUMP JUMPDEST DUP3 PUSH20 0xFFFFFFFFFFFFFFFFFFFFFFFFFFFFFFFFFFFFFFFF AND PUSH4 0xC4E8FCB5 DUP4 DUP4 PUSH1 0x40 MLOAD DUP4 PUSH4 0xFFFFFFFF AND PUSH1 0xE0 SHL DUP2 MSTORE PUSH1 0x4 ADD PUSH2 0x4DF SWAP3 SWAP2 SWAP1 PUSH2 0x1A01 JUMP JUMPDEST PUSH1 0x0 PUSH1 0x40 MLOAD DUP1 DUP4 SUB DUP2 PUSH1 0x0 DUP8 DUP1 EXTCODESIZE ISZERO DUP1 ISZERO PUSH2 0x4F9 JUMPI PUSH1 0x0 DUP1 REVERT JUMPDEST POP GAS CALL ISZERO DUP1 ISZERO PUSH2 0x50D JUMPI RETURNDATASIZE PUSH1 0x0 DUP1 RETURNDATACOPY RETURNDATASIZE PUSH1 0x0 REVERT JUMPDEST POP POP POP POP PUSH1 0x0 DUP1 PUSH1 0x0 DUP6 PUSH20 0xFFFFFFFFFFFFFFFFFFFFFFFFFFFFFFFFFFFFFFFF AND PUSH20 0xFFFFFFFFFFFFFFFFFFFFFFFFFFFFFFFFFFFFFFFF AND DUP2 MSTORE PUSH1 0x20 ADD SWAP1 DUP2 MSTORE PUSH1 0x20 ADD PUSH1 0x0 KECCAK256 SWAP1 POP PUSH1 0x0 DUP2 PUSH1 0x4 ADD PUSH1 0x0 DUP6 PUSH20 0xFFFFFFFFFFFFFFFFFFFFFFFFFFFFFFFFFFFFFFFF AND PUSH20 0xFFFFFFFFFFFFFFFFFFFFFFFFFFFFFFFFFFFFFFFF AND DUP2 MSTORE PUSH1 0x20 ADD SWAP1 DUP2 MSTORE PUSH1 0x20 ADD PUSH1 0x0 KECCAK256 SLOAD SWAP1 POP PUSH1 0x0 DUP1 DUP3 EQ ISZERO SWAP1 POP DUP4 DUP1 ISZERO PUSH2 0x5AC JUMPI POP DUP1 ISZERO JUMPDEST ISZERO PUSH2 0x668 JUMPI DUP3 PUSH1 0x3 ADD DUP6 SWAP1 DUP1 PUSH1 0x1 DUP2 SLOAD ADD DUP1 DUP3 SSTORE DUP1 SWAP2 POP POP PUSH1 0x1 SWAP1 SUB SWAP1 PUSH1 0x0 MSTORE PUSH1 0x20 PUSH1 0x0 KECCAK256 ADD PUSH1 0x0 SWAP1 SWAP2 SWAP1 SWAP2 SWAP1 SWAP2 PUSH2 0x100 EXP DUP2 SLOAD DUP2 PUSH20 0xFFFFFFFFFFFFFFFFFFFFFFFFFFFFFFFFFFFFFFFF MUL NOT AND SWAP1 DUP4 PUSH20 0xFFFFFFFFFFFFFFFFFFFFFFFFFFFFFFFFFFFFFFFF AND MUL OR SWAP1 SSTORE POP DUP3 PUSH1 0x3 ADD DUP1 SLOAD SWAP1 POP DUP4 PUSH1 0x4 ADD PUSH1 0x0 DUP8 PUSH20 0xFFFFFFFFFFFFFFFFFFFFFFFFFFFFFFFFFFFFFFFF AND PUSH20 0xFFFFFFFFFFFFFFFFFFFFFFFFFFFFFFFFFFFFFFFF AND DUP2 MSTORE PUSH1 0x20 ADD SWAP1 DUP2 MSTORE PUSH1 0x20 ADD PUSH1 0x0 KECCAK256 DUP2 SWAP1 SSTORE POP PUSH2 0x81D JUMP JUMPDEST DUP4 ISZERO DUP1 ISZERO PUSH2 0x673 JUMPI POP DUP1 JUMPDEST ISZERO PUSH2 0x81C JUMPI PUSH1 0x0 PUSH1 0x1 DUP4 SUB SWAP1 POP PUSH1 0x0 PUSH1 0x1 DUP6 PUSH1 0x3 ADD DUP1 SLOAD SWAP1 POP PUSH2 0x696 SWAP2 SWAP1 PUSH2 0x1BC3 JUMP JUMPDEST SWAP1 POP DUP2 DUP2 EQ PUSH2 0x78B JUMPI PUSH1 0x0 DUP6 PUSH1 0x3 ADD DUP3 DUP2 SLOAD DUP2 LT PUSH2 0x6B7 JUMPI PUSH2 0x6B6 PUSH2 0x1B65 JUMP JUMPDEST JUMPDEST SWAP1 PUSH1 0x0 MSTORE PUSH1 0x20 PUSH1 0x0 KECCAK256 ADD PUSH1 0x0 SWAP1 SLOAD SWAP1 PUSH2 0x100 EXP SWAP1 DIV PUSH20 0xFFFFFFFFFFFFFFFFFFFFFFFFFFFFFFFFFFFFFFFF AND SWAP1 POP DUP1 DUP7 PUSH1 0x3 ADD DUP5 DUP2 SLOAD DUP2 LT PUSH2 0x6FB JUMPI PUSH2 0x6FA PUSH2 0x1B65 JUMP JUMPDEST JUMPDEST SWAP1 PUSH1 0x0 MSTORE PUSH1 0x20 PUSH1 0x0 KECCAK256 ADD PUSH1 0x0 PUSH2 0x100 EXP DUP2 SLOAD DUP2 PUSH20 0xFFFFFFFFFFFFFFFFFFFFFFFFFFFFFFFFFFFFFFFF MUL NOT AND SWAP1 DUP4 PUSH20 0xFFFFFFFFFFFFFFFFFFFFFFFFFFFFFFFFFFFFFFFF AND MUL OR SWAP1 SSTORE POP DUP5 DUP7 PUSH1 0x4 ADD PUSH1 0x0 DUP4 PUSH20 0xFFFFFFFFFFFFFFFFFFFFFFFFFFFFFFFFFFFFFFFF AND PUSH20 0xFFFFFFFFFFFFFFFFFFFFFFFFFFFFFFFFFFFFFFFF AND DUP2 MSTORE PUSH1 0x20 ADD SWAP1 DUP2 MSTORE PUSH1 0x20 ADD PUSH1 0x0 KECCAK256 DUP2 SWAP1 SSTORE POP POP JUMPDEST DUP5 PUSH1 0x3 ADD DUP1 SLOAD DUP1 PUSH2 0x79F JUMPI PUSH2 0x79E PUSH2 0x1BF7 JUMP JUMPDEST JUMPDEST PUSH1 0x1 SWAP1 SUB DUP2 DUP2 SWAP1 PUSH1 0x0 MSTORE PUSH1 0x20 PUSH1 0x0 KECCAK256 ADD PUSH1 0x0 PUSH2 0x100 EXP DUP2 SLOAD SWAP1 PUSH20 0xFFFFFFFFFFFFFFFFFFFFFFFFFFFFFFFFFFFFFFFF MUL NOT AND SWAP1 SSTORE SWAP1 SSTORE DUP5 PUSH1 0x4 ADD PUSH1 0x0 DUP9 PUSH20 0xFFFFFFFFFFFFFFFFFFFFFFFFFFFFFFFFFFFFFFFF AND PUSH20 0xFFFFFFFFFFFFFFFFFFFFFFFFFFFFFFFFFFFFFFFF AND DUP2 MSTORE PUSH1 0x20 ADD SWAP1 DUP2 MSTORE PUSH1 0x20 ADD PUSH1 0x0 KECCAK256 PUSH1 0x0 SWAP1 SSTORE POP POP JUMPDEST JUMPDEST POP POP POP POP POP POP JUMP JUMPDEST PUSH1 0x0 PUSH2 0x830 DUP3 PUSH2 0x15AD JUMP JUMPDEST PUSH1 0x0 DUP1 DUP4 PUSH20 0xFFFFFFFFFFFFFFFFFFFFFFFFFFFFFFFFFFFFFFFF AND PUSH20 0xFFFFFFFFFFFFFFFFFFFFFFFFFFFFFFFFFFFFFFFF AND DUP2 MSTORE PUSH1 0x20 ADD SWAP1 DUP2 MSTORE PUSH1 0x20 ADD PUSH1 0x0 KECCAK256 PUSH1 0x1 ADD PUSH1 0x0 SWAP1 SLOAD SWAP1 PUSH2 0x100 EXP SWAP1 DIV PUSH20 0xFFFFFFFFFFFFFFFFFFFFFFFFFFFFFFFFFFFFFFFF AND SWAP1 POP SWAP2 SWAP1 POP JUMP JUMPDEST PUSH1 0x0 PUSH2 0x8A4 DUP4 PUSH2 0x15AD JUMP JUMPDEST PUSH1 0x0 DUP1 PUSH1 0x0 DUP6 PUSH20 0xFFFFFFFFFFFFFFFFFFFFFFFFFFFFFFFFFFFFFFFF AND PUSH20 0xFFFFFFFFFFFFFFFFFFFFFFFFFFFFFFFFFFFFFFFF AND DUP2 MSTORE PUSH1 0x20 ADD SWAP1 DUP2 MSTORE PUSH1 0x20 ADD PUSH1 0x0 KECCAK256 PUSH1 0x4 ADD PUSH1 0x0 DUP5 PUSH20 0xFFFFFFFFFFFFFFFFFFFFFFFFFFFFFFFFFFFFFFFF AND PUSH20 0xFFFFFFFFFFFFFFFFFFFFFFFFFFFFFFFFFFFFFFFF AND DUP2 MSTORE PUSH1 0x20 ADD SWAP1 DUP2 MSTORE PUSH1 0x20 ADD PUSH1 0x0 KECCAK256 SLOAD EQ ISZERO SWAP1 POP SWAP3 SWAP2 POP POP JUMP JUMPDEST PUSH1 0x0 PUSH2 0x93A DUP3 PUSH2 0x15AD JUMP JUMPDEST PUSH1 0x0 DUP1 DUP4 PUSH20 0xFFFFFFFFFFFFFFFFFFFFFFFFFFFFFFFFFFFFFFFF AND PUSH20 0xFFFFFFFFFFFFFFFFFFFFFFFFFFFFFFFFFFFFFFFF AND DUP2 MSTORE PUSH1 0x20 ADD SWAP1 DUP2 MSTORE PUSH1 0x20 ADD PUSH1 0x0 KECCAK256 PUSH1 0x3 ADD DUP1 SLOAD SWAP1 POP SWAP1 POP SWAP2 SWAP1 POP JUMP JUMPDEST PUSH2 0x98F DUP2 PUSH2 0x15AD JUMP JUMPDEST PUSH1 0x0 DUP1 DUP3 PUSH20 0xFFFFFFFFFFFFFFFFFFFFFFFFFFFFFFFFFFFFFFFF AND PUSH20 0xFFFFFFFFFFFFFFFFFFFFFFFFFFFFFFFFFFFFFFFF AND DUP2 MSTORE PUSH1 0x20 ADD SWAP1 DUP2 MSTORE PUSH1 0x20 ADD PUSH1 0x0 KECCAK256 PUSH1 0x2 ADD PUSH1 0x0 SWAP1 SLOAD SWAP1 PUSH2 0x100 EXP SWAP1 DIV PUSH20 0xFFFFFFFFFFFFFFFFFFFFFFFFFFFFFFFFFFFFFFFF AND PUSH20 0xFFFFFFFFFFFFFFFFFFFFFFFFFFFFFFFFFFFFFFFF AND CALLER PUSH20 0xFFFFFFFFFFFFFFFFFFFFFFFFFFFFFFFFFFFFFFFF AND EQ PUSH2 0xA60 JUMPI DUP1 PUSH1 0x40 MLOAD PUSH32 0x88C3A11500000000000000000000000000000000000000000000000000000000 DUP2 MSTORE PUSH1 0x4 ADD PUSH2 0xA57 SWAP2 SWAP1 PUSH2 0x17FF JUMP JUMPDEST PUSH1 0x40 MLOAD DUP1 SWAP2 SUB SWAP1 REVERT JUMPDEST PUSH1 0x0 PUSH20 0xFFFFFFFFFFFFFFFFFFFFFFFFFFFFFFFFFFFFFFFF AND PUSH32 0x11A3CF439FB225BFE74225716B6774765670EC1060E3796802E62139D69974DA PUSH1 0x40 MLOAD PUSH1 0x40 MLOAD DUP1 SWAP2 SUB SWAP1 LOG2 PUSH1 0x0 DUP1 PUSH1 0x0 DUP4 PUSH20 0xFFFFFFFFFFFFFFFFFFFFFFFFFFFFFFFFFFFFFFFF AND PUSH20 0xFFFFFFFFFFFFFFFFFFFFFFFFFFFFFFFFFFFFFFFF AND DUP2 MSTORE PUSH1 0x20 ADD SWAP1 DUP2 MSTORE PUSH1 0x20 ADD PUSH1 0x0 KECCAK256 PUSH1 0x2 ADD PUSH1 0x0 PUSH2 0x100 EXP DUP2 SLOAD DUP2 PUSH20 0xFFFFFFFFFFFFFFFFFFFFFFFFFFFFFFFFFFFFFFFF MUL NOT AND SWAP1 DUP4 PUSH20 0xFFFFFFFFFFFFFFFFFFFFFFFFFFFFFFFFFFFFFFFF AND MUL OR SWAP1 SSTORE POP CALLER PUSH20 0xFFFFFFFFFFFFFFFFFFFFFFFFFFFFFFFFFFFFFFFF AND PUSH1 0x0 DUP1 DUP4 PUSH20 0xFFFFFFFFFFFFFFFFFFFFFFFFFFFFFFFFFFFFFFFF AND PUSH20 0xFFFFFFFFFFFFFFFFFFFFFFFFFFFFFFFFFFFFFFFF AND DUP2 MSTORE PUSH1 0x20 ADD SWAP1 DUP2 MSTORE PUSH1 0x20 ADD PUSH1 0x0 KECCAK256 PUSH1 0x1 ADD PUSH1 0x0 SWAP1 SLOAD SWAP1 PUSH2 0x100 EXP SWAP1 DIV PUSH20 0xFFFFFFFFFFFFFFFFFFFFFFFFFFFFFFFFFFFFFFFF AND PUSH20 0xFFFFFFFFFFFFFFFFFFFFFFFFFFFFFFFFFFFFFFFF AND DUP3 PUSH20 0xFFFFFFFFFFFFFFFFFFFFFFFFFFFFFFFFFFFFFFFF AND PUSH32 0xC8894F26F396CE8C004245C8B7CD1B92103A6E4302FCBAB883987149AC01B7EC PUSH1 0x40 MLOAD PUSH1 0x40 MLOAD DUP1 SWAP2 SUB SWAP1 LOG4 CALLER PUSH1 0x0 DUP1 DUP4 PUSH20 0xFFFFFFFFFFFFFFFFFFFFFFFFFFFFFFFFFFFFFFFF AND PUSH20 0xFFFFFFFFFFFFFFFFFFFFFFFFFFFFFFFFFFFFFFFF AND DUP2 MSTORE PUSH1 0x20 ADD SWAP1 DUP2 MSTORE PUSH1 0x20 ADD PUSH1 0x0 KECCAK256 PUSH1 0x1 ADD PUSH1 0x0 PUSH2 0x100 EXP DUP2 SLOAD DUP2 PUSH20 0xFFFFFFFFFFFFFFFFFFFFFFFFFFFFFFFFFFFFFFFF MUL NOT AND SWAP1 DUP4 PUSH20 0xFFFFFFFFFFFFFFFFFFFFFFFFFFFFFFFFFFFFFFFF AND MUL OR SWAP1 SSTORE POP POP JUMP JUMPDEST PUSH2 0xC83 DUP3 PUSH2 0x162D JUMP JUMPDEST PUSH1 0x0 PUSH20 0xFFFFFFFFFFFFFFFFFFFFFFFFFFFFFFFFFFFFFFFF AND DUP2 PUSH20 0xFFFFFFFFFFFFFFFFFFFFFFFFFFFFFFFFFFFFFFFF AND SUB PUSH2 0xCF4 JUMPI DUP2 PUSH1 0x40 MLOAD PUSH32 0xA388D26300000000000000000000000000000000000000000000000000000000 DUP2 MSTORE PUSH1 0x4 ADD PUSH2 0xCEB SWAP2 SWAP1 PUSH2 0x17FF JUMP JUMPDEST PUSH1 0x40 MLOAD DUP1 SWAP2 SUB SWAP1 REVERT JUMPDEST PUSH1 0x0 DUP1 DUP4 PUSH20 0xFFFFFFFFFFFFFFFFFFFFFFFFFFFFFFFFFFFFFFFF AND PUSH20 0xFFFFFFFFFFFFFFFFFFFFFFFFFFFFFFFFFFFFFFFF AND DUP2 MSTORE PUSH1 0x20 ADD SWAP1 DUP2 MSTORE PUSH1 0x20 ADD PUSH1 0x0 KECCAK256 PUSH1 0x2 ADD PUSH1 0x0 SWAP1 SLOAD SWAP1 PUSH2 0x100 EXP SWAP1 DIV PUSH20 0xFFFFFFFFFFFFFFFFFFFFFFFFFFFFFFFFFFFFFFFF AND PUSH20 0xFFFFFFFFFFFFFFFFFFFFFFFFFFFFFFFFFFFFFFFF AND DUP2 PUSH20 0xFFFFFFFFFFFFFFFFFFFFFFFFFFFFFFFFFFFFFFFF AND SUB PUSH2 0xDC7 JUMPI DUP2 DUP2 PUSH1 0x40 MLOAD PUSH32 0xCBC080CA00000000000000000000000000000000000000000000000000000000 DUP2 MSTORE PUSH1 0x4 ADD PUSH2 0xDBE SWAP3 SWAP2 SWAP1 PUSH2 0x1C26 JUMP JUMPDEST PUSH1 0x40 MLOAD DUP1 SWAP2 SUB SWAP1 REVERT JUMPDEST DUP1 PUSH20 0xFFFFFFFFFFFFFFFFFFFFFFFFFFFFFFFFFFFFFFFF AND PUSH32 0x11A3CF439FB225BFE74225716B6774765670EC1060E3796802E62139D69974DA PUSH1 0x40 MLOAD PUSH1 0x40 MLOAD DUP1 SWAP2 SUB SWAP1 LOG2 DUP1 PUSH1 0x0 DUP1 DUP5 PUSH20 0xFFFFFFFFFFFFFFFFFFFFFFFFFFFFFFFFFFFFFFFF AND PUSH20 0xFFFFFFFFFFFFFFFFFFFFFFFFFFFFFFFFFFFFFFFF AND DUP2 MSTORE PUSH1 0x20 ADD SWAP1 DUP2 MSTORE PUSH1 0x20 ADD PUSH1 0x0 KECCAK256 PUSH1 0x2 ADD PUSH1 0x0 PUSH2 0x100 EXP DUP2 SLOAD DUP2 PUSH20 0xFFFFFFFFFFFFFFFFFFFFFFFFFFFFFFFFFFFFFFFF MUL NOT AND SWAP1 DUP4 PUSH20 0xFFFFFFFFFFFFFFFFFFFFFFFFFFFFFFFFFFFFFFFF AND MUL OR SWAP1 SSTORE POP POP POP JUMP JUMPDEST PUSH1 0x0 DUP1 PUSH1 0xFF PUSH1 0xF8 SHL ADDRESS DUP5 PUSH32 0x0 PUSH1 0x40 MLOAD PUSH1 0x20 ADD PUSH2 0xECC SWAP5 SWAP4 SWAP3 SWAP2 SWAP1 PUSH2 0x1D05 JUMP JUMPDEST PUSH1 0x40 MLOAD PUSH1 0x20 DUP2 DUP4 SUB SUB DUP2 MSTORE SWAP1 PUSH1 0x40 MSTORE DUP1 MLOAD SWAP1 PUSH1 0x20 ADD KECCAK256 PUSH1 0x0 SHR SWAP2 POP PUSH32 0x0 DUP3 PUSH20 0xFFFFFFFFFFFFFFFFFFFFFFFFFFFFFFFFFFFFFFFF AND EXTCODEHASH EQ SWAP1 POP SWAP2 POP SWAP2 JUMP JUMPDEST PUSH1 0x0 DUP1 PUSH20 0xFFFFFFFFFFFFFFFFFFFFFFFFFFFFFFFFFFFFFFFF AND DUP3 PUSH20 0xFFFFFFFFFFFFFFFFFFFFFFFFFFFFFFFFFFFFFFFF AND SUB PUSH2 0xF8F JUMPI PUSH1 0x40 MLOAD PUSH32 0x99FAAA0400000000000000000000000000000000000000000000000000000000 DUP2 MSTORE PUSH1 0x4 ADD PUSH1 0x40 MLOAD DUP1 SWAP2 SUB SWAP1 REVERT JUMPDEST CALLER PUSH20 0xFFFFFFFFFFFFFFFFFFFFFFFFFFFFFFFFFFFFFFFF AND DUP4 PUSH1 0x60 SHR PUSH20 0xFFFFFFFFFFFFFFFFFFFFFFFFFFFFFFFFFFFFFFFF AND EQ PUSH2 0xFF7 JUMPI PUSH1 0x40 MLOAD PUSH32 0xCB6E534400000000000000000000000000000000000000000000000000000000 DUP2 MSTORE PUSH1 0x4 ADD PUSH1 0x40 MLOAD DUP1 SWAP2 SUB SWAP1 REVERT JUMPDEST PUSH1 0xFF PUSH1 0xF8 SHL ADDRESS DUP5 PUSH32 0x0 PUSH1 0x40 MLOAD PUSH1 0x20 ADD PUSH2 0x1032 SWAP5 SWAP4 SWAP3 SWAP2 SWAP1 PUSH2 0x1D05 JUMP JUMPDEST PUSH1 0x40 MLOAD PUSH1 0x20 DUP2 DUP4 SUB SUB DUP2 MSTORE SWAP1 PUSH1 0x40 MSTORE DUP1 MLOAD SWAP1 PUSH1 0x20 ADD KECCAK256 PUSH1 0x0 SHR SWAP1 POP PUSH32 0x0 DUP2 PUSH20 0xFFFFFFFFFFFFFFFFFFFFFFFFFFFFFFFFFFFFFFFF AND EXTCODEHASH SUB PUSH2 0x10C8 JUMPI DUP1 PUSH1 0x40 MLOAD PUSH32 0x6328CCB200000000000000000000000000000000000000000000000000000000 DUP2 MSTORE PUSH1 0x4 ADD PUSH2 0x10BF SWAP2 SWAP1 PUSH2 0x17FF JUMP JUMPDEST PUSH1 0x40 MLOAD DUP1 SWAP2 SUB SWAP1 REVERT JUMPDEST DUP3 PUSH1 0x40 MLOAD PUSH2 0x10D5 SWAP1 PUSH2 0x170A JUMP JUMPDEST DUP2 SWAP1 PUSH1 0x40 MLOAD DUP1 SWAP2 SUB SWAP1 PUSH1 0x0 CREATE2 SWAP1 POP DUP1 ISZERO DUP1 ISZERO PUSH2 0x10F5 JUMPI RETURNDATASIZE PUSH1 0x0 DUP1 RETURNDATACOPY RETURNDATASIZE PUSH1 0x0 REVERT JUMPDEST POP POP PUSH1 0x0 DUP1 PUSH1 0x0 DUP4 PUSH20 0xFFFFFFFFFFFFFFFFFFFFFFFFFFFFFFFFFFFFFFFF AND PUSH20 0xFFFFFFFFFFFFFFFFFFFFFFFFFFFFFFFFFFFFFFFF AND DUP2 MSTORE PUSH1 0x20 ADD SWAP1 DUP2 MSTORE PUSH1 0x20 ADD PUSH1 0x0 KECCAK256 SWAP1 POP DUP3 DUP2 PUSH1 0x1 ADD PUSH1 0x0 PUSH2 0x100 EXP DUP2 SLOAD DUP2 PUSH20 0xFFFFFFFFFFFFFFFFFFFFFFFFFFFFFFFFFFFFFFFF MUL NOT AND SWAP1 DUP4 PUSH20 0xFFFFFFFFFFFFFFFFFFFFFFFFFFFFFFFFFFFFFFFF AND MUL OR SWAP1 SSTORE POP DUP4 DUP2 PUSH1 0x0 ADD DUP2 SWAP1 SSTORE POP PUSH32 0x4397AF6128D529B8AE0442F99DB1296D5136062597A15BBC61C1B2A6431A7D15 DUP3 DUP6 PUSH1 0x40 MLOAD PUSH2 0x11B6 SWAP3 SWAP2 SWAP1 PUSH2 0x1D53 JUMP JUMPDEST PUSH1 0x40 MLOAD DUP1 SWAP2 SUB SWAP1 LOG1 DUP3 PUSH20 0xFFFFFFFFFFFFFFFFFFFFFFFFFFFFFFFFFFFFFFFF AND PUSH1 0x0 PUSH20 0xFFFFFFFFFFFFFFFFFFFFFFFFFFFFFFFFFFFFFFFF AND DUP4 PUSH20 0xFFFFFFFFFFFFFFFFFFFFFFFFFFFFFFFFFFFFFFFF AND PUSH32 0xC8894F26F396CE8C004245C8B7CD1B92103A6E4302FCBAB883987149AC01B7EC PUSH1 0x40 MLOAD PUSH1 0x40 MLOAD DUP1 SWAP2 SUB SWAP1 LOG4 POP SWAP3 SWAP2 POP POP JUMP JUMPDEST PUSH2 0x1240 DUP2 PUSH2 0x162D JUMP JUMPDEST PUSH1 0x0 PUSH20 0xFFFFFFFFFFFFFFFFFFFFFFFFFFFFFFFFFFFFFFFF AND PUSH1 0x0 DUP1 DUP4 PUSH20 0xFFFFFFFFFFFFFFFFFFFFFFFFFFFFFFFFFFFFFFFF AND PUSH20 0xFFFFFFFFFFFFFFFFFFFFFFFFFFFFFFFFFFFFFFFF AND DUP2 MSTORE PUSH1 0x20 ADD SWAP1 DUP2 MSTORE PUSH1 0x20 ADD PUSH1 0x0 KECCAK256 PUSH1 0x2 ADD PUSH1 0x0 SWAP1 SLOAD SWAP1 PUSH2 0x100 EXP SWAP1 DIV PUSH20 0xFFFFFFFFFFFFFFFFFFFFFFFFFFFFFFFFFFFFFFFF AND PUSH20 0xFFFFFFFFFFFFFFFFFFFFFFFFFFFFFFFFFFFFFFFF AND SUB PUSH2 0x1312 JUMPI DUP1 PUSH1 0x40 MLOAD PUSH32 0x6B01361600000000000000000000000000000000000000000000000000000000 DUP2 MSTORE PUSH1 0x4 ADD PUSH2 0x1309 SWAP2 SWAP1 PUSH2 0x17FF JUMP JUMPDEST PUSH1 0x40 MLOAD DUP1 SWAP2 SUB SWAP1 REVERT JUMPDEST PUSH1 0x0 PUSH20 0xFFFFFFFFFFFFFFFFFFFFFFFFFFFFFFFFFFFFFFFF AND PUSH32 0x11A3CF439FB225BFE74225716B6774765670EC1060E3796802E62139D69974DA PUSH1 0x40 MLOAD PUSH1 0x40 MLOAD DUP1 SWAP2 SUB SWAP1 LOG2 PUSH1 0x0 DUP1 PUSH1 0x0 DUP4 PUSH20 0xFFFFFFFFFFFFFFFFFFFFFFFFFFFFFFFFFFFFFFFF AND PUSH20 0xFFFFFFFFFFFFFFFFFFFFFFFFFFFFFFFFFFFFFFFF AND DUP2 MSTORE PUSH1 0x20 ADD SWAP1 DUP2 MSTORE PUSH1 0x20 ADD PUSH1 0x0 KECCAK256 PUSH1 0x2 ADD PUSH1 0x0 PUSH2 0x100 EXP DUP2 SLOAD DUP2 PUSH20 0xFFFFFFFFFFFFFFFFFFFFFFFFFFFFFFFFFFFFFFFF MUL NOT AND SWAP1 DUP4 PUSH20 0xFFFFFFFFFFFFFFFFFFFFFFFFFFFFFFFFFFFFFFFF AND MUL OR SWAP1 SSTORE POP POP JUMP JUMPDEST PUSH1 0x60 PUSH2 0x13E5 DUP3 PUSH2 0x15AD JUMP JUMPDEST PUSH1 0x0 DUP1 DUP4 PUSH20 0xFFFFFFFFFFFFFFFFFFFFFFFFFFFFFFFFFFFFFFFF AND PUSH20 0xFFFFFFFFFFFFFFFFFFFFFFFFFFFFFFFFFFFFFFFF AND DUP2 MSTORE PUSH1 0x20 ADD SWAP1 DUP2 MSTORE PUSH1 0x20 ADD PUSH1 0x0 KECCAK256 PUSH1 0x3 ADD DUP1 SLOAD DUP1 PUSH1 0x20 MUL PUSH1 0x20 ADD PUSH1 0x40 MLOAD SWAP1 DUP2 ADD PUSH1 0x40 MSTORE DUP1 SWAP3 SWAP2 SWAP1 DUP2 DUP2 MSTORE PUSH1 0x20 ADD DUP3 DUP1 SLOAD DUP1 ISZERO PUSH2 0x14A6 JUMPI PUSH1 0x20 MUL DUP3 ADD SWAP2 SWAP1 PUSH1 0x0 MSTORE PUSH1 0x20 PUSH1 0x0 KECCAK256 SWAP1 JUMPDEST DUP2 PUSH1 0x0 SWAP1 SLOAD SWAP1 PUSH2 0x100 EXP SWAP1 DIV PUSH20 0xFFFFFFFFFFFFFFFFFFFFFFFFFFFFFFFFFFFFFFFF AND PUSH20 0xFFFFFFFFFFFFFFFFFFFFFFFFFFFFFFFFFFFFFFFF AND DUP2 MSTORE PUSH1 0x20 ADD SWAP1 PUSH1 0x1 ADD SWAP1 DUP1 DUP4 GT PUSH2 0x145C JUMPI JUMPDEST POP POP POP POP POP SWAP1 POP SWAP2 SWAP1 POP JUMP JUMPDEST PUSH1 0x0 PUSH2 0x14BD DUP3 PUSH2 0x15AD JUMP JUMPDEST PUSH1 0x0 DUP1 DUP4 PUSH20 0xFFFFFFFFFFFFFFFFFFFFFFFFFFFFFFFFFFFFFFFF AND PUSH20 0xFFFFFFFFFFFFFFFFFFFFFFFFFFFFFFFFFFFFFFFF AND DUP2 MSTORE PUSH1 0x20 ADD SWAP1 DUP2 MSTORE PUSH1 0x20 ADD PUSH1 0x0 KECCAK256 PUSH1 0x2 ADD PUSH1 0x0 SWAP1 SLOAD SWAP1 PUSH2 0x100 EXP SWAP1 DIV PUSH20 0xFFFFFFFFFFFFFFFFFFFFFFFFFFFFFFFFFFFFFFFF AND SWAP1 POP SWAP2 SWAP1 POP JUMP JUMPDEST PUSH1 0x0 DUP1 PUSH1 0x0 DUP4 PUSH20 0xFFFFFFFFFFFFFFFFFFFFFFFFFFFFFFFFFFFFFFFF AND PUSH20 0xFFFFFFFFFFFFFFFFFFFFFFFFFFFFFFFFFFFFFFFF AND DUP2 MSTORE PUSH1 0x20 ADD SWAP1 DUP2 MSTORE PUSH1 0x20 ADD PUSH1 0x0 KECCAK256 PUSH1 0x0 ADD SLOAD SWAP1 POP PUSH1 0x0 DUP1 SHL DUP2 SUB PUSH2 0x15A8 JUMPI PUSH1 0x40 MLOAD PUSH32 0x4CA8209000000000000000000000000000000000000000000000000000000000 DUP2 MSTORE PUSH1 0x4 ADD PUSH1 0x40 MLOAD DUP1 SWAP2 SUB SWAP1 REVERT JUMPDEST SWAP2 SWAP1 POP JUMP JUMPDEST PUSH1 0x0 DUP1 SHL PUSH1 0x0 DUP1 DUP4 PUSH20 0xFFFFFFFFFFFFFFFFFFFFFFFFFFFFFFFFFFFFFFFF AND PUSH20 0xFFFFFFFFFFFFFFFFFFFFFFFFFFFFFFFFFFFFFFFF AND DUP2 MSTORE PUSH1 0x20 ADD SWAP1 DUP2 MSTORE PUSH1 0x20 ADD PUSH1 0x0 KECCAK256 PUSH1 0x0 ADD SLOAD SUB PUSH2 0x162A JUMPI PUSH1 0x40 MLOAD PUSH32 0x4CA8209000000000000000000000000000000000000000000000000000000000 DUP2 MSTORE PUSH1 0x4 ADD PUSH1 0x40 MLOAD DUP1 SWAP2 SUB SWAP1 REVERT JUMPDEST POP JUMP JUMPDEST PUSH2 0x1636 DUP2 PUSH2 0x15AD JUMP JUMPDEST PUSH1 0x0 DUP1 DUP3 PUSH20 0xFFFFFFFFFFFFFFFFFFFFFFFFFFFFFFFFFFFFFFFF AND PUSH20 0xFFFFFFFFFFFFFFFFFFFFFFFFFFFFFFFFFFFFFFFF AND DUP2 MSTORE PUSH1 0x20 ADD SWAP1 DUP2 MSTORE PUSH1 0x20 ADD PUSH1 0x0 KECCAK256 PUSH1 0x1 ADD PUSH1 0x0 SWAP1 SLOAD SWAP1 PUSH2 0x100 EXP SWAP1 DIV PUSH20 0xFFFFFFFFFFFFFFFFFFFFFFFFFFFFFFFFFFFFFFFF AND PUSH20 0xFFFFFFFFFFFFFFFFFFFFFFFFFFFFFFFFFFFFFFFF AND CALLER PUSH20 0xFFFFFFFFFFFFFFFFFFFFFFFFFFFFFFFFFFFFFFFF AND EQ PUSH2 0x1707 JUMPI DUP1 PUSH1 0x40 MLOAD PUSH32 0xD4ED9A1700000000000000000000000000000000000000000000000000000000 DUP2 MSTORE PUSH1 0x4 ADD PUSH2 0x16FE SWAP2 SWAP1 PUSH2 0x17FF JUMP JUMPDEST PUSH1 0x40 MLOAD DUP1 SWAP2 SUB SWAP1 REVERT JUMPDEST POP JUMP JUMPDEST PUSH2 0x10AE DUP1 PUSH2 0x1D7D DUP4 CODECOPY ADD SWAP1 JUMP JUMPDEST PUSH1 0x0 DUP1 REVERT JUMPDEST PUSH1 0x0 PUSH20 0xFFFFFFFFFFFFFFFFFFFFFFFFFFFFFFFFFFFFFFFF DUP3 AND SWAP1 POP SWAP2 SWAP1 POP JUMP JUMPDEST PUSH1 0x0 PUSH2 0x1747 DUP3 PUSH2 0x171C JUMP JUMPDEST SWAP1 POP SWAP2 SWAP1 POP JUMP JUMPDEST PUSH2 0x1757 DUP2 PUSH2 0x173C JUMP JUMPDEST DUP2 EQ PUSH2 0x1762 JUMPI PUSH1 0x0 DUP1 REVERT JUMPDEST POP JUMP JUMPDEST PUSH1 0x0 DUP2 CALLDATALOAD SWAP1 POP PUSH2 0x1774 DUP2 PUSH2 0x174E JUMP JUMPDEST SWAP3 SWAP2 POP POP JUMP JUMPDEST PUSH1 0x0 DUP2 SWAP1 POP SWAP2 SWAP1 POP JUMP JUMPDEST PUSH2 0x178D DUP2 PUSH2 0x177A JUMP JUMPDEST DUP2 EQ PUSH2 0x1798 JUMPI PUSH1 0x0 DUP1 REVERT JUMPDEST POP JUMP JUMPDEST PUSH1 0x0 DUP2 CALLDATALOAD SWAP1 POP PUSH2 0x17AA DUP2 PUSH2 0x1784 JUMP JUMPDEST SWAP3 SWAP2 POP POP JUMP JUMPDEST PUSH1 0x0 DUP1 PUSH1 0x40 DUP4 DUP6 SUB SLT ISZERO PUSH2 0x17C7 JUMPI PUSH2 0x17C6 PUSH2 0x1717 JUMP JUMPDEST JUMPDEST PUSH1 0x0 PUSH2 0x17D5 DUP6 DUP3 DUP7 ADD PUSH2 0x1765 JUMP JUMPDEST SWAP3 POP POP PUSH1 0x20 PUSH2 0x17E6 DUP6 DUP3 DUP7 ADD PUSH2 0x179B JUMP JUMPDEST SWAP2 POP POP SWAP3 POP SWAP3 SWAP1 POP JUMP JUMPDEST PUSH2 0x17F9 DUP2 PUSH2 0x173C JUMP JUMPDEST DUP3 MSTORE POP POP JUMP JUMPDEST PUSH1 0x0 PUSH1 0x20 DUP3 ADD SWAP1 POP PUSH2 0x1814 PUSH1 0x0 DUP4 ADD DUP5 PUSH2 0x17F0 JUMP JUMPDEST SWAP3 SWAP2 POP POP JUMP JUMPDEST PUSH1 0x0 DUP2 SWAP1 POP SWAP2 SWAP1 POP JUMP JUMPDEST PUSH2 0x182D DUP2 PUSH2 0x181A JUMP JUMPDEST DUP3 MSTORE POP POP JUMP JUMPDEST PUSH1 0x0 PUSH1 0x40 DUP3 ADD SWAP1 POP PUSH2 0x1848 PUSH1 0x0 DUP4 ADD DUP6 PUSH2 0x1824 JUMP JUMPDEST PUSH2 0x1855 PUSH1 0x20 DUP4 ADD DUP5 PUSH2 0x1824 JUMP JUMPDEST SWAP4 SWAP3 POP POP POP JUMP JUMPDEST PUSH1 0x0 DUP2 ISZERO ISZERO SWAP1 POP SWAP2 SWAP1 POP JUMP JUMPDEST PUSH2 0x1871 DUP2 PUSH2 0x185C JUMP JUMPDEST DUP2 EQ PUSH2 0x187C JUMPI PUSH1 0x0 DUP1 REVERT JUMPDEST POP JUMP JUMPDEST PUSH1 0x0 DUP2 CALLDATALOAD SWAP1 POP PUSH2 0x188E DUP2 PUSH2 0x1868 JUMP JUMPDEST SWAP3 SWAP2 POP POP JUMP JUMPDEST PUSH1 0x0 DUP1 PUSH1 0x0 PUSH1 0x60 DUP5 DUP7 SUB SLT ISZERO PUSH2 0x18AD JUMPI PUSH2 0x18AC PUSH2 0x1717 JUMP JUMPDEST JUMPDEST PUSH1 0x0 PUSH2 0x18BB DUP7 DUP3 DUP8 ADD PUSH2 0x1765 JUMP JUMPDEST SWAP4 POP POP PUSH1 0x20 PUSH2 0x18CC DUP7 DUP3 DUP8 ADD PUSH2 0x1765 JUMP JUMPDEST SWAP3 POP POP PUSH1 0x40 PUSH2 0x18DD DUP7 DUP3 DUP8 ADD PUSH2 0x187F JUMP JUMPDEST SWAP2 POP POP SWAP3 POP SWAP3 POP SWAP3 JUMP JUMPDEST PUSH1 0x0 PUSH1 0x20 DUP3 DUP5 SUB SLT ISZERO PUSH2 0x18FD JUMPI PUSH2 0x18FC PUSH2 0x1717 JUMP JUMPDEST JUMPDEST PUSH1 0x0 PUSH2 0x190B DUP5 DUP3 DUP6 ADD PUSH2 0x1765 JUMP JUMPDEST SWAP2 POP POP SWAP3 SWAP2 POP POP JUMP JUMPDEST PUSH1 0x0 DUP1 PUSH1 0x40 DUP4 DUP6 SUB SLT ISZERO PUSH2 0x192B JUMPI PUSH2 0x192A PUSH2 0x1717 JUMP JUMPDEST JUMPDEST PUSH1 0x0 PUSH2 0x1939 DUP6 DUP3 DUP7 ADD PUSH2 0x1765 JUMP JUMPDEST SWAP3 POP POP PUSH1 0x20 PUSH2 0x194A DUP6 DUP3 DUP7 ADD PUSH2 0x1765 JUMP JUMPDEST SWAP2 POP POP SWAP3 POP SWAP3 SWAP1 POP JUMP JUMPDEST PUSH2 0x195D DUP2 PUSH2 0x185C JUMP JUMPDEST DUP3 MSTORE POP POP JUMP JUMPDEST PUSH1 0x0 PUSH1 0x20 DUP3 ADD SWAP1 POP PUSH2 0x1978 PUSH1 0x0 DUP4 ADD DUP5 PUSH2 0x1954 JUMP JUMPDEST SWAP3 SWAP2 POP POP JUMP JUMPDEST PUSH2 0x1987 DUP2 PUSH2 0x177A JUMP JUMPDEST DUP3 MSTORE POP POP JUMP JUMPDEST PUSH1 0x0 PUSH1 0x20 DUP3 ADD SWAP1 POP PUSH2 0x19A2 PUSH1 0x0 DUP4 ADD DUP5 PUSH2 0x197E JUMP JUMPDEST SWAP3 SWAP2 POP POP JUMP JUMPDEST PUSH2 0x19B1 DUP2 PUSH2 0x181A JUMP JUMPDEST DUP2 EQ PUSH2 0x19BC JUMPI PUSH1 0x0 DUP1 REVERT JUMPDEST POP JUMP JUMPDEST PUSH1 0x0 DUP2 CALLDATALOAD SWAP1 POP PUSH2 0x19CE DUP2 PUSH2 0x19A8 JUMP JUMPDEST SWAP3 SWAP2 POP POP JUMP JUMPDEST PUSH1 0x0 PUSH1 0x20 DUP3 DUP5 SUB SLT ISZERO PUSH2 0x19EA JUMPI PUSH2 0x19E9 PUSH2 0x1717 JUMP JUMPDEST JUMPDEST PUSH1 0x0 PUSH2 0x19F8 DUP5 DUP3 DUP6 ADD PUSH2 0x19BF JUMP JUMPDEST SWAP2 POP POP SWAP3 SWAP2 POP POP JUMP JUMPDEST PUSH1 0x0 PUSH1 0x40 DUP3 ADD SWAP1 POP PUSH2 0x1A16 PUSH1 0x0 DUP4 ADD DUP6 PUSH2 0x17F0 JUMP JUMPDEST PUSH2 0x1A23 PUSH1 0x20 DUP4 ADD DUP5 PUSH2 0x1954 JUMP JUMPDEST SWAP4 SWAP3 POP POP POP JUMP JUMPDEST PUSH1 0x0 DUP1 PUSH1 0x40 DUP4 DUP6 SUB SLT ISZERO PUSH2 0x1A41 JUMPI PUSH2 0x1A40 PUSH2 0x1717 JUMP JUMPDEST JUMPDEST PUSH1 0x0 PUSH2 0x1A4F DUP6 DUP3 DUP7 ADD PUSH2 0x19BF JUMP JUMPDEST SWAP3 POP POP PUSH1 0x20 PUSH2 0x1A60 DUP6 DUP3 DUP7 ADD PUSH2 0x1765 JUMP JUMPDEST SWAP2 POP POP SWAP3 POP SWAP3 SWAP1 POP JUMP JUMPDEST PUSH1 0x0 DUP2 MLOAD SWAP1 POP SWAP2 SWAP1 POP JUMP JUMPDEST PUSH1 0x0 DUP3 DUP3 MSTORE PUSH1 0x20 DUP3 ADD SWAP1 POP SWAP3 SWAP2 POP POP JUMP JUMPDEST PUSH1 0x0 DUP2 SWAP1 POP PUSH1 0x20 DUP3 ADD SWAP1 POP SWAP2 SWAP1 POP JUMP JUMPDEST PUSH2 0x1A9F DUP2 PUSH2 0x173C JUMP JUMPDEST DUP3 MSTORE POP POP JUMP JUMPDEST PUSH1 0x0 PUSH2 0x1AB1 DUP4 DUP4 PUSH2 0x1A96 JUMP JUMPDEST PUSH1 0x20 DUP4 ADD SWAP1 POP SWAP3 SWAP2 POP POP JUMP JUMPDEST PUSH1 0x0 PUSH1 0x20 DUP3 ADD SWAP1 POP SWAP2 SWAP1 POP JUMP JUMPDEST PUSH1 0x0 PUSH2 0x1AD5 DUP3 PUSH2 0x1A6A JUMP JUMPDEST PUSH2 0x1ADF DUP2 DUP6 PUSH2 0x1A75 JUMP JUMPDEST SWAP4 POP PUSH2 0x1AEA DUP4 PUSH2 0x1A86 JUMP JUMPDEST DUP1 PUSH1 0x0 JUMPDEST DUP4 DUP2 LT ISZERO PUSH2 0x1B1B JUMPI DUP2 MLOAD PUSH2 0x1B02 DUP9 DUP3 PUSH2 0x1AA5 JUMP JUMPDEST SWAP8 POP PUSH2 0x1B0D DUP4 PUSH2 0x1ABD JUMP JUMPDEST SWAP3 POP POP PUSH1 0x1 DUP2 ADD SWAP1 POP PUSH2 0x1AEE JUMP JUMPDEST POP DUP6 SWAP4 POP POP POP POP SWAP3 SWAP2 POP POP JUMP JUMPDEST PUSH1 0x0 PUSH1 0x20 DUP3 ADD SWAP1 POP DUP2 DUP2 SUB PUSH1 0x0 DUP4 ADD MSTORE PUSH2 0x1B42 DUP2 DUP5 PUSH2 0x1ACA JUMP JUMPDEST SWAP1 POP SWAP3 SWAP2 POP POP JUMP JUMPDEST PUSH1 0x0 PUSH1 0x20 DUP3 ADD SWAP1 POP PUSH2 0x1B5F PUSH1 0x0 DUP4 ADD DUP5 PUSH2 0x1824 JUMP JUMPDEST SWAP3 SWAP2 POP POP JUMP JUMPDEST PUSH32 0x4E487B7100000000000000000000000000000000000000000000000000000000 PUSH1 0x0 MSTORE PUSH1 0x32 PUSH1 0x4 MSTORE PUSH1 0x24 PUSH1 0x0 REVERT JUMPDEST PUSH32 0x4E487B7100000000000000000000000000000000000000000000000000000000 PUSH1 0x0 MSTORE PUSH1 0x11 PUSH1 0x4 MSTORE PUSH1 0x24 PUSH1 0x0 REVERT JUMPDEST PUSH1 0x0 PUSH2 0x1BCE DUP3 PUSH2 0x177A JUMP JUMPDEST SWAP2 POP PUSH2 0x1BD9 DUP4 PUSH2 0x177A JUMP JUMPDEST SWAP3 POP DUP3 DUP3 SUB SWAP1 POP DUP2 DUP2 GT ISZERO PUSH2 0x1BF1 JUMPI PUSH2 0x1BF0 PUSH2 0x1B94 JUMP JUMPDEST JUMPDEST SWAP3 SWAP2 POP POP JUMP JUMPDEST PUSH32 0x4E487B7100000000000000000000000000000000000000000000000000000000 PUSH1 0x0 MSTORE PUSH1 0x31 PUSH1 0x4 MSTORE PUSH1 0x24 PUSH1 0x0 REVERT JUMPDEST PUSH1 0x0 PUSH1 0x40 DUP3 ADD SWAP1 POP PUSH2 0x1C3B PUSH1 0x0 DUP4 ADD DUP6 PUSH2 0x17F0 JUMP JUMPDEST PUSH2 0x1C48 PUSH1 0x20 DUP4 ADD DUP5 PUSH2 0x17F0 JUMP JUMPDEST SWAP4 SWAP3 POP POP POP JUMP JUMPDEST PUSH1 0x0 PUSH32 0xFF00000000000000000000000000000000000000000000000000000000000000 DUP3 AND SWAP1 POP SWAP2 SWAP1 POP JUMP JUMPDEST PUSH1 0x0 DUP2 SWAP1 POP SWAP2 SWAP1 POP JUMP JUMPDEST PUSH2 0x1C96 PUSH2 0x1C91 DUP3 PUSH2 0x1C4F JUMP JUMPDEST PUSH2 0x1C7B JUMP JUMPDEST DUP3 MSTORE POP POP JUMP JUMPDEST PUSH1 0x0 DUP2 PUSH1 0x60 SHL SWAP1 POP SWAP2 SWAP1 POP JUMP JUMPDEST PUSH1 0x0 PUSH2 0x1CB4 DUP3 PUSH2 0x1C9C JUMP JUMPDEST SWAP1 POP SWAP2 SWAP1 POP JUMP JUMPDEST PUSH1 0x0 PUSH2 0x1CC6 DUP3 PUSH2 0x1CA9 JUMP JUMPDEST SWAP1 POP SWAP2 SWAP1 POP JUMP JUMPDEST PUSH2 0x1CDE PUSH2 0x1CD9 DUP3 PUSH2 0x173C JUMP JUMPDEST PUSH2 0x1CBB JUMP JUMPDEST DUP3 MSTORE POP POP JUMP JUMPDEST PUSH1 0x0 DUP2 SWAP1 POP SWAP2 SWAP1 POP JUMP JUMPDEST PUSH2 0x1CFF PUSH2 0x1CFA DUP3 PUSH2 0x181A JUMP JUMPDEST PUSH2 0x1CE4 JUMP JUMPDEST DUP3 MSTORE POP POP JUMP JUMPDEST PUSH1 0x0 PUSH2 0x1D11 DUP3 DUP8 PUSH2 0x1C85 JUMP JUMPDEST PUSH1 0x1 DUP3 ADD SWAP2 POP PUSH2 0x1D21 DUP3 DUP7 PUSH2 0x1CCD JUMP JUMPDEST PUSH1 0x14 DUP3 ADD SWAP2 POP PUSH2 0x1D31 DUP3 DUP6 PUSH2 0x1CEE JUMP JUMPDEST PUSH1 0x20 DUP3 ADD SWAP2 POP PUSH2 0x1D41 DUP3 DUP5 PUSH2 0x1CEE JUMP JUMPDEST PUSH1 0x20 DUP3 ADD SWAP2 POP DUP2 SWAP1 POP SWAP6 SWAP5 POP POP POP POP POP JUMP JUMPDEST PUSH1 0x0 PUSH1 0x40 DUP3 ADD SWAP1 POP PUSH2 0x1D68 PUSH1 0x0 DUP4 ADD DUP6 PUSH2 0x17F0 JUMP JUMPDEST PUSH2 0x1D75 PUSH1 0x20 DUP4 ADD DUP5 PUSH2 0x1824 JUMP JUMPDEST SWAP4 SWAP3 POP POP POP JUMP INVALID PUSH1 0xA0 PUSH1 0x40 MSTORE CALLVALUE DUP1 ISZERO PUSH2 0x10 JUMPI PUSH1 0x0 DUP1 REVERT JUMPDEST POP CALLER PUSH20 0xFFFFFFFFFFFFFFFFFFFFFFFFFFFFFFFFFFFFFFFF AND PUSH1 0x80 DUP2 PUSH20 0xFFFFFFFFFFFFFFFFFFFFFFFFFFFFFFFFFFFFFFFF AND DUP2 MSTORE POP POP PUSH1 0x80 MLOAD PUSH2 0x104E PUSH2 0x60 PUSH1 0x0 CODECOPY PUSH1 0x0 PUSH2 0x290 ADD MSTORE PUSH2 0x104E PUSH1 0x0 RETURN INVALID PUSH1 0x80 PUSH1 0x40 MSTORE CALLVALUE DUP1 ISZERO PUSH2 0x10 JUMPI PUSH1 0x0 DUP1 REVERT JUMPDEST POP PUSH1 0x4 CALLDATASIZE LT PUSH2 0x4C JUMPI PUSH1 0x0 CALLDATALOAD PUSH1 0xE0 SHR DUP1 PUSH4 0x4CE34AA2 EQ PUSH2 0x51 JUMPI DUP1 PUSH4 0x899E104C EQ PUSH2 0x81 JUMPI DUP1 PUSH4 0x8DF25D92 EQ PUSH2 0xB1 JUMPI DUP1 PUSH4 0xC4E8FCB5 EQ PUSH2 0xE1 JUMPI JUMPDEST PUSH1 0x0 DUP1 REVERT JUMPDEST PUSH2 0x6B PUSH1 0x4 DUP1 CALLDATASIZE SUB DUP2 ADD SWAP1 PUSH2 0x66 SWAP2 SWAP1 PUSH2 0xC3C JUMP JUMPDEST PUSH2 0xFD JUMP JUMPDEST PUSH1 0x40 MLOAD PUSH2 0x78 SWAP2 SWAP1 PUSH2 0xCC4 JUMP JUMPDEST PUSH1 0x40 MLOAD DUP1 SWAP2 SUB SWAP1 RETURN JUMPDEST PUSH2 0x9B PUSH1 0x4 DUP1 CALLDATASIZE SUB DUP2 ADD SWAP1 PUSH2 0x96 SWAP2 SWAP1 PUSH2 0xD35 JUMP JUMPDEST PUSH2 0x191 JUMP JUMPDEST PUSH1 0x40 MLOAD PUSH2 0xA8 SWAP2 SWAP1 PUSH2 0xCC4 JUMP JUMPDEST PUSH1 0x40 MLOAD DUP1 SWAP2 SUB SWAP1 RETURN JUMPDEST PUSH2 0xCB PUSH1 0x4 DUP1 CALLDATASIZE SUB DUP2 ADD SWAP1 PUSH2 0xC6 SWAP2 SWAP1 PUSH2 0xDB6 JUMP JUMPDEST PUSH2 0x231 JUMP JUMPDEST PUSH1 0x40 MLOAD PUSH2 0xD8 SWAP2 SWAP1 PUSH2 0xCC4 JUMP JUMPDEST PUSH1 0x40 MLOAD DUP1 SWAP2 SUB SWAP1 RETURN JUMPDEST PUSH2 0xFB PUSH1 0x4 DUP1 CALLDATASIZE SUB DUP2 ADD SWAP1 PUSH2 0xF6 SWAP2 SWAP1 PUSH2 0xE99 JUMP JUMPDEST PUSH2 0x28E JUMP JUMPDEST STOP JUMPDEST PUSH1 0x0 CALLER PUSH1 0x0 MSTORE PUSH1 0x0 PUSH1 0x20 MSTORE PUSH1 0x40 PUSH1 0x0 KECCAK256 SLOAD PUSH2 0x140 JUMPI PUSH32 0x93DAADF200000000000000000000000000000000000000000000000000000000 PUSH1 0x0 MSTORE CALLER PUSH1 0x4 MSTORE PUSH1 0x24 PUSH1 0x0 REVERT JUMPDEST PUSH1 0x0 DUP4 DUP4 SWAP1 POP SWAP1 POP PUSH1 0x0 JUMPDEST DUP2 DUP2 LT ISZERO PUSH2 0x17F JUMPI PUSH2 0x174 DUP6 DUP6 DUP4 DUP2 DUP2 LT PUSH2 0x169 JUMPI PUSH2 0x168 PUSH2 0xED9 JUMP JUMPDEST JUMPDEST SWAP1 POP PUSH1 0xC0 MUL ADD PUSH2 0x450 JUMP JUMPDEST DUP1 PUSH1 0x1 ADD SWAP1 POP PUSH2 0x14B JUMP JUMPDEST POP PUSH4 0x4CE34AA2 PUSH1 0xE0 SHL SWAP2 POP POP SWAP3 SWAP2 POP POP JUMP JUMPDEST PUSH1 0x0 CALLER PUSH1 0x0 MSTORE PUSH1 0x0 PUSH1 0x20 MSTORE PUSH1 0x40 PUSH1 0x0 KECCAK256 SLOAD PUSH2 0x1D4 JUMPI PUSH32 0x93DAADF200000000000000000000000000000000000000000000000000000000 PUSH1 0x0 MSTORE CALLER PUSH1 0x4 MSTORE PUSH1 0x24 PUSH1 0x0 REVERT JUMPDEST PUSH1 0x0 DUP6 DUP6 SWAP1 POP SWAP1 POP PUSH1 0x0 JUMPDEST DUP2 DUP2 LT ISZERO PUSH2 0x213 JUMPI PUSH2 0x208 DUP8 DUP8 DUP4 DUP2 DUP2 LT PUSH2 0x1FD JUMPI PUSH2 0x1FC PUSH2 0xED9 JUMP JUMPDEST JUMPDEST SWAP1 POP PUSH1 0xC0 MUL ADD PUSH2 0x450 JUMP JUMPDEST DUP1 PUSH1 0x1 ADD SWAP1 POP PUSH2 0x1DF JUMP JUMPDEST POP PUSH2 0x21E DUP5 DUP5 PUSH2 0x664 JUMP JUMPDEST PUSH4 0x899E104C PUSH1 0xE0 SHL SWAP2 POP POP SWAP5 SWAP4 POP POP POP POP JUMP JUMPDEST PUSH1 0x0 CALLER PUSH1 0x0 MSTORE PUSH1 0x0 PUSH1 0x20 MSTORE PUSH1 0x40 PUSH1 0x0 KECCAK256 SLOAD PUSH2 0x274 JUMPI PUSH32 0x93DAADF200000000000000000000000000000000000000000000000000000000 PUSH1 0x0 MSTORE CALLER PUSH1 0x4 MSTORE PUSH1 0x24 PUSH1 0x0 REVERT JUMPDEST PUSH2 0x27E DUP4 DUP4 PUSH2 0x664 JUMP JUMPDEST PUSH4 0x8DF25D92 PUSH1 0xE0 SHL SWAP1 POP SWAP3 SWAP2 POP POP JUMP JUMPDEST PUSH32 0x0 PUSH20 0xFFFFFFFFFFFFFFFFFFFFFFFFFFFFFFFFFFFFFFFF AND CALLER PUSH20 0xFFFFFFFFFFFFFFFFFFFFFFFFFFFFFFFFFFFFFFFF AND EQ PUSH2 0x313 JUMPI PUSH1 0x40 MLOAD PUSH32 0x6D5769BE00000000000000000000000000000000000000000000000000000000 DUP2 MSTORE PUSH1 0x4 ADD PUSH1 0x40 MLOAD DUP1 SWAP2 SUB SWAP1 REVERT JUMPDEST DUP1 ISZERO ISZERO PUSH1 0x0 DUP1 DUP5 PUSH20 0xFFFFFFFFFFFFFFFFFFFFFFFFFFFFFFFFFFFFFFFF AND PUSH20 0xFFFFFFFFFFFFFFFFFFFFFFFFFFFFFFFFFFFFFFFF AND DUP2 MSTORE PUSH1 0x20 ADD SWAP1 DUP2 MSTORE PUSH1 0x20 ADD PUSH1 0x0 KECCAK256 PUSH1 0x0 SWAP1 SLOAD SWAP1 PUSH2 0x100 EXP SWAP1 DIV PUSH1 0xFF AND ISZERO ISZERO SUB PUSH2 0x3A8 JUMPI DUP2 DUP2 PUSH1 0x40 MLOAD PUSH32 0x924E341E00000000000000000000000000000000000000000000000000000000 DUP2 MSTORE PUSH1 0x4 ADD PUSH2 0x39F SWAP3 SWAP2 SWAP1 PUSH2 0xF26 JUMP JUMPDEST PUSH1 0x40 MLOAD DUP1 SWAP2 SUB SWAP1 REVERT JUMPDEST DUP1 PUSH1 0x0 DUP1 DUP5 PUSH20 0xFFFFFFFFFFFFFFFFFFFFFFFFFFFFFFFFFFFFFFFF AND PUSH20 0xFFFFFFFFFFFFFFFFFFFFFFFFFFFFFFFFFFFFFFFF AND DUP2 MSTORE PUSH1 0x20 ADD SWAP1 DUP2 MSTORE PUSH1 0x20 ADD PUSH1 0x0 KECCAK256 PUSH1 0x0 PUSH2 0x100 EXP DUP2 SLOAD DUP2 PUSH1 0xFF MUL NOT AND SWAP1 DUP4 ISZERO ISZERO MUL OR SWAP1 SSTORE POP DUP2 PUSH20 0xFFFFFFFFFFFFFFFFFFFFFFFFFFFFFFFFFFFFFFFF AND PUSH32 0xAE63067D43AC07563B7EB8DB6595635FC77F1578A2A5EA06BA91B63E2AFA37E2 DUP3 PUSH1 0x40 MLOAD PUSH2 0x444 SWAP2 SWAP1 PUSH2 0xF4F JUMP JUMPDEST PUSH1 0x40 MLOAD DUP1 SWAP2 SUB SWAP1 LOG2 POP POP JUMP JUMPDEST PUSH1 0x1 PUSH1 0x3 DUP2 GT ISZERO PUSH2 0x464 JUMPI PUSH2 0x463 PUSH2 0xF6A JUMP JUMPDEST JUMPDEST DUP2 PUSH1 0x0 ADD PUSH1 0x20 DUP2 ADD SWAP1 PUSH2 0x477 SWAP2 SWAP1 PUSH2 0xFBE JUMP JUMPDEST PUSH1 0x3 DUP2 GT ISZERO PUSH2 0x489 JUMPI PUSH2 0x488 PUSH2 0xF6A JUMP JUMPDEST JUMPDEST SUB PUSH2 0x4D9 JUMPI PUSH2 0x4D4 DUP2 PUSH1 0x20 ADD PUSH1 0x20 DUP2 ADD SWAP1 PUSH2 0x4A4 SWAP2 SWAP1 PUSH2 0xFEB JUMP JUMPDEST DUP3 PUSH1 0x40 ADD PUSH1 0x20 DUP2 ADD SWAP1 PUSH2 0x4B7 SWAP2 SWAP1 PUSH2 0xFEB JUMP JUMPDEST DUP4 PUSH1 0x60 ADD PUSH1 0x20 DUP2 ADD SWAP1 PUSH2 0x4CA SWAP2 SWAP1 PUSH2 0xFEB JUMP JUMPDEST DUP5 PUSH1 0xA0 ADD CALLDATALOAD PUSH2 0x80C JUMP JUMPDEST PUSH2 0x661 JUMP JUMPDEST PUSH1 0x2 PUSH1 0x3 DUP2 GT ISZERO PUSH2 0x4ED JUMPI PUSH2 0x4EC PUSH2 0xF6A JUMP JUMPDEST JUMPDEST DUP2 PUSH1 0x0 ADD PUSH1 0x20 DUP2 ADD SWAP1 PUSH2 0x500 SWAP2 SWAP1 PUSH2 0xFBE JUMP JUMPDEST PUSH1 0x3 DUP2 GT ISZERO PUSH2 0x512 JUMPI PUSH2 0x511 PUSH2 0xF6A JUMP JUMPDEST JUMPDEST SUB PUSH2 0x5A0 JUMPI PUSH1 0x1 DUP2 PUSH1 0xA0 ADD CALLDATALOAD EQ PUSH2 0x555 JUMPI PUSH1 0x40 MLOAD PUSH32 0xEFCC00B100000000000000000000000000000000000000000000000000000000 DUP2 MSTORE PUSH1 0x4 ADD PUSH1 0x40 MLOAD DUP1 SWAP2 SUB SWAP1 REVERT JUMPDEST PUSH2 0x59B DUP2 PUSH1 0x20 ADD PUSH1 0x20 DUP2 ADD SWAP1 PUSH2 0x56B SWAP2 SWAP1 PUSH2 0xFEB JUMP JUMPDEST DUP3 PUSH1 0x40 ADD PUSH1 0x20 DUP2 ADD SWAP1 PUSH2 0x57E SWAP2 SWAP1 PUSH2 0xFEB JUMP JUMPDEST DUP4 PUSH1 0x60 ADD PUSH1 0x20 DUP2 ADD SWAP1 PUSH2 0x591 SWAP2 SWAP1 PUSH2 0xFEB JUMP JUMPDEST DUP5 PUSH1 0x80 ADD CALLDATALOAD PUSH2 0x97F JUMP JUMPDEST PUSH2 0x660 JUMP JUMPDEST PUSH1 0x3 DUP1 DUP2 GT ISZERO PUSH2 0x5B3 JUMPI PUSH2 0x5B2 PUSH2 0xF6A JUMP JUMPDEST JUMPDEST DUP2 PUSH1 0x0 ADD PUSH1 0x20 DUP2 ADD SWAP1 PUSH2 0x5C6 SWAP2 SWAP1 PUSH2 0xFBE JUMP JUMPDEST PUSH1 0x3 DUP2 GT ISZERO PUSH2 0x5D8 JUMPI PUSH2 0x5D7 PUSH2 0xF6A JUMP JUMPDEST JUMPDEST SUB PUSH2 0x62D JUMPI PUSH2 0x628 DUP2 PUSH1 0x20 ADD PUSH1 0x20 DUP2 ADD SWAP1 PUSH2 0x5F3 SWAP2 SWAP1 PUSH2 0xFEB JUMP JUMPDEST DUP3 PUSH1 0x40 ADD PUSH1 0x20 DUP2 ADD SWAP1 PUSH2 0x606 SWAP2 SWAP1 PUSH2 0xFEB JUMP JUMPDEST DUP4 PUSH1 0x60 ADD PUSH1 0x20 DUP2 ADD SWAP1 PUSH2 0x619 SWAP2 SWAP1 PUSH2 0xFEB JUMP JUMPDEST DUP5 PUSH1 0x80 ADD CALLDATALOAD DUP6 PUSH1 0xA0 ADD CALLDATALOAD PUSH2 0xA93 JUMP JUMPDEST PUSH2 0x65F JUMP JUMPDEST PUSH1 0x40 MLOAD PUSH32 0x7932F1FC00000000000000000000000000000000000000000000000000000000 DUP2 MSTORE PUSH1 0x4 ADD PUSH1 0x40 MLOAD DUP1 SWAP2 SUB SWAP1 REVERT JUMPDEST JUMPDEST JUMPDEST POP JUMP JUMPDEST DUP1 DUP3 DUP1 PUSH32 0x2EB2C2D600000000000000000000000000000000000000000000000000000000 PUSH1 0x20 MSTORE PUSH1 0x0 JUMPDEST DUP4 DUP2 LT ISZERO PUSH2 0x7FF JUMPI DUP3 CALLDATALOAD DUP3 ADD DUP1 CALLDATALOAD DUP1 EXTCODESIZE PUSH2 0x6D0 JUMPI PUSH32 0x5F15D67200000000000000000000000000000000000000000000000000000000 PUSH1 0x0 MSTORE DUP1 PUSH1 0x4 MSTORE PUSH1 0x24 PUSH1 0x0 REVERT JUMPDEST PUSH1 0xA0 DUP3 ADD CALLDATALOAD PUSH1 0x20 DUP2 MUL PUSH1 0xC0 ADD DUP1 PUSH1 0x80 DUP6 ADD CALLDATALOAD EQ PUSH1 0xA0 PUSH1 0x60 DUP7 ADD CALLDATALOAD EQ AND DUP2 DUP6 ADD CALLDATALOAD DUP4 EQ AND ISZERO DUP1 ISZERO PUSH2 0x724 JUMPI PUSH32 0xEBA2084C00000000000000000000000000000000000000000000000000000000 PUSH1 0x0 MSTORE PUSH1 0x4 PUSH1 0x0 REVERT JUMPDEST PUSH1 0x20 DUP9 ADD SWAP8 POP PUSH1 0x80 PUSH1 0x20 DUP7 ADD PUSH1 0x24 CALLDATACOPY PUSH1 0x40 DUP4 MUL PUSH1 0x40 ADD DUP1 PUSH1 0xA0 ADD PUSH1 0xA4 MSTORE PUSH1 0x0 DUP2 PUSH1 0xC4 ADD MSTORE DUP1 PUSH1 0xC4 ADD DUP2 PUSH1 0xA0 DUP9 ADD PUSH1 0xC4 CALLDATACOPY PUSH1 0x0 DUP1 DUP3 PUSH1 0x20 PUSH1 0x0 DUP11 GAS CALL DUP1 PUSH2 0x7EC JUMPI RETURNDATASIZE ISZERO PUSH2 0x7B1 JUMPI PUSH1 0x20 PUSH1 0x1F RETURNDATASIZE ADD DIV PUSH1 0x20 DUP4 DIV DUP2 PUSH1 0x3 MUL DUP2 DUP4 GT ISZERO PUSH2 0x798 JUMPI PUSH2 0x200 DUP3 DUP4 MUL DUP5 DUP6 MUL SUB DIV PUSH1 0x3 DUP4 DUP6 SUB MUL ADD DUP2 ADD SWAP1 POP JUMPDEST GAS PUSH1 0x20 DUP3 ADD LT ISZERO PUSH2 0x7AD JUMPI RETURNDATASIZE PUSH1 0x0 DUP1 RETURNDATACOPY RETURNDATASIZE PUSH1 0x0 REVERT JUMPDEST POP POP POP JUMPDEST PUSH32 0xAFC445E200000000000000000000000000000000000000000000000000000000 PUSH1 0x0 MSTORE DUP7 PUSH1 0x4 MSTORE PUSH1 0xC0 PUSH1 0x64 MSTORE PUSH1 0x84 MLOAD PUSH1 0x20 ADD PUSH1 0x84 MSTORE DUP2 PUSH1 0x0 REVERT JUMPDEST POP POP POP POP POP POP POP POP PUSH1 0x1 DUP2 ADD SWAP1 POP PUSH2 0x68E JUMP JUMPDEST POP PUSH1 0x80 PUSH1 0x40 MSTORE POP POP POP POP POP JUMP JUMPDEST PUSH1 0x40 MLOAD PUSH32 0x23B872DD00000000000000000000000000000000000000000000000000000000 PUSH1 0x0 MSTORE DUP4 PUSH1 0x4 MSTORE DUP3 PUSH1 0x24 MSTORE DUP2 PUSH1 0x44 MSTORE PUSH1 0x20 PUSH1 0x0 PUSH1 0x64 PUSH1 0x0 DUP1 DUP10 GAS CALL DUP1 RETURNDATASIZE ISZERO PUSH1 0x1F RETURNDATASIZE GT PUSH1 0x1 PUSH1 0x0 MLOAD EQ AND OR AND RETURNDATASIZE ISZERO ISZERO DUP2 AND PUSH2 0x96D JUMPI DUP1 DUP8 EXTCODESIZE ISZERO ISZERO AND PUSH2 0x96C JUMPI DUP1 PUSH2 0x93E JUMPI DUP2 PUSH2 0x904 JUMPI RETURNDATASIZE ISZERO PUSH2 0x8C5 JUMPI PUSH1 0x20 PUSH1 0x1F RETURNDATASIZE ADD DIV PUSH1 0x20 DUP5 DIV DUP2 PUSH1 0x3 MUL DUP2 DUP4 GT ISZERO PUSH2 0x8AC JUMPI PUSH2 0x200 DUP3 DUP4 MUL DUP5 DUP6 MUL SUB DIV PUSH1 0x3 DUP4 DUP6 SUB MUL ADD DUP2 ADD SWAP1 POP JUMPDEST GAS PUSH1 0x20 DUP3 ADD LT ISZERO PUSH2 0x8C1 JUMPI RETURNDATASIZE PUSH1 0x0 DUP1 RETURNDATACOPY RETURNDATASIZE PUSH1 0x0 REVERT JUMPDEST POP POP POP JUMPDEST PUSH32 0xF486BC8700000000000000000000000000000000000000000000000000000000 PUSH1 0x0 MSTORE DUP7 PUSH1 0x4 MSTORE DUP6 PUSH1 0x24 MSTORE DUP5 PUSH1 0x44 MSTORE PUSH1 0x0 PUSH1 0x64 MSTORE DUP4 PUSH1 0x84 MSTORE PUSH1 0xA4 PUSH1 0x0 REVERT JUMPDEST PUSH32 0x9889192300000000000000000000000000000000000000000000000000000000 PUSH1 0x0 MSTORE DUP7 PUSH1 0x4 MSTORE DUP6 PUSH1 0x24 MSTORE DUP5 PUSH1 0x44 MSTORE DUP4 PUSH1 0x64 MSTORE PUSH1 0x84 PUSH1 0x0 REVERT JUMPDEST PUSH32 0x5F15D67200000000000000000000000000000000000000000000000000000000 PUSH1 0x0 MSTORE DUP7 PUSH1 0x4 MSTORE PUSH1 0x24 PUSH1 0x0 REVERT JUMPDEST JUMPDEST DUP3 PUSH1 0x40 MSTORE PUSH1 0x0 PUSH1 0x60 MSTORE POP POP POP POP POP POP POP JUMP JUMPDEST DUP4 EXTCODESIZE PUSH2 0x9B3 JUMPI PUSH32 0x5F15D67200000000000000000000000000000000000000000000000000000000 PUSH1 0x0 MSTORE DUP4 PUSH1 0x4 MSTORE PUSH1 0x24 PUSH1 0x0 REVERT JUMPDEST PUSH1 0x40 MLOAD PUSH32 0x23B872DD00000000000000000000000000000000000000000000000000000000 PUSH1 0x0 MSTORE DUP4 PUSH1 0x4 MSTORE DUP3 PUSH1 0x24 MSTORE DUP2 PUSH1 0x44 MSTORE PUSH1 0x0 DUP1 PUSH1 0x64 PUSH1 0x0 DUP1 DUP10 GAS CALL DUP1 PUSH2 0xA82 JUMPI RETURNDATASIZE ISZERO PUSH2 0xA43 JUMPI PUSH1 0x20 PUSH1 0x1F RETURNDATASIZE ADD DIV PUSH1 0x20 DUP4 DIV DUP2 PUSH1 0x3 MUL DUP2 DUP4 GT ISZERO PUSH2 0xA2A JUMPI PUSH2 0x200 DUP3 DUP4 MUL DUP5 DUP6 MUL SUB DIV PUSH1 0x3 DUP4 DUP6 SUB MUL ADD DUP2 ADD SWAP1 POP JUMPDEST GAS PUSH1 0x20 DUP3 ADD LT ISZERO PUSH2 0xA3F JUMPI RETURNDATASIZE PUSH1 0x0 DUP1 RETURNDATACOPY RETURNDATASIZE PUSH1 0x0 REVERT JUMPDEST POP POP POP JUMPDEST PUSH32 0xF486BC8700000000000000000000000000000000000000000000000000000000 PUSH1 0x0 MSTORE DUP6 PUSH1 0x4 MSTORE DUP5 PUSH1 0x24 MSTORE DUP4 PUSH1 0x44 MSTORE DUP3 PUSH1 0x64 MSTORE PUSH1 0x1 PUSH1 0x84 MSTORE PUSH1 0xA4 PUSH1 0x0 REVERT JUMPDEST DUP2 PUSH1 0x40 MSTORE PUSH1 0x0 PUSH1 0x60 MSTORE POP POP POP POP POP POP JUMP JUMPDEST DUP5 EXTCODESIZE PUSH2 0xAC7 JUMPI PUSH32 0x5F15D67200000000000000000000000000000000000000000000000000000000 PUSH1 0x0 MSTORE DUP5 PUSH1 0x4 MSTORE PUSH1 0x24 PUSH1 0x0 REVERT JUMPDEST PUSH1 0x40 MLOAD PUSH1 0x80 MLOAD PUSH1 0xA0 MLOAD PUSH1 0xC0 MLOAD PUSH32 0xF242432A00000000000000000000000000000000000000000000000000000000 PUSH1 0x0 MSTORE DUP8 PUSH1 0x4 MSTORE DUP7 PUSH1 0x24 MSTORE DUP6 PUSH1 0x44 MSTORE DUP5 PUSH1 0x64 MSTORE PUSH1 0xA0 PUSH1 0x84 MSTORE PUSH1 0x0 PUSH1 0xA4 MSTORE PUSH1 0x0 DUP1 PUSH1 0xC4 PUSH1 0x0 DUP1 DUP14 GAS CALL DUP1 PUSH2 0xBAC JUMPI RETURNDATASIZE ISZERO PUSH2 0xB6E JUMPI PUSH1 0x20 PUSH1 0x1F RETURNDATASIZE ADD DIV PUSH1 0x20 DUP7 DIV DUP2 PUSH1 0x3 MUL DUP2 DUP4 GT ISZERO PUSH2 0xB55 JUMPI PUSH2 0x200 DUP3 DUP4 MUL DUP5 DUP6 MUL SUB DIV PUSH1 0x3 DUP4 DUP6 SUB MUL ADD DUP2 ADD SWAP1 POP JUMPDEST GAS PUSH1 0x20 DUP3 ADD LT ISZERO PUSH2 0xB6A JUMPI RETURNDATASIZE PUSH1 0x0 DUP1 RETURNDATACOPY RETURNDATASIZE PUSH1 0x0 REVERT JUMPDEST POP POP POP JUMPDEST PUSH32 0xF486BC8700000000000000000000000000000000000000000000000000000000 PUSH1 0x0 MSTORE DUP10 PUSH1 0x4 MSTORE DUP9 PUSH1 0x24 MSTORE DUP8 PUSH1 0x44 MSTORE DUP7 PUSH1 0x64 MSTORE DUP6 PUSH1 0x84 MSTORE PUSH1 0xA4 PUSH1 0x0 REVERT JUMPDEST DUP4 PUSH1 0x80 MSTORE DUP3 PUSH1 0xA0 MSTORE DUP2 PUSH1 0xC0 MSTORE DUP5 PUSH1 0x40 MSTORE PUSH1 0x0 PUSH1 0x60 MSTORE POP POP POP POP POP POP POP POP POP POP JUMP JUMPDEST PUSH1 0x0 DUP1 REVERT JUMPDEST PUSH1 0x0 DUP1 REVERT JUMPDEST PUSH1 0x0 DUP1 REVERT JUMPDEST PUSH1 0x0 DUP1 REVERT JUMPDEST PUSH1 0x0 DUP1 REVERT JUMPDEST PUSH1 0x0 DUP1 DUP4 PUSH1 0x1F DUP5 ADD SLT PUSH2 0xBFC JUMPI PUSH2 0xBFB PUSH2 0xBD7 JUMP JUMPDEST JUMPDEST DUP3 CALLDATALOAD SWAP1 POP PUSH8 0xFFFFFFFFFFFFFFFF DUP2 GT ISZERO PUSH2 0xC19 JUMPI PUSH2 0xC18 PUSH2 0xBDC JUMP JUMPDEST JUMPDEST PUSH1 0x20 DUP4 ADD SWAP2 POP DUP4 PUSH1 0xC0 DUP3 MUL DUP4 ADD GT ISZERO PUSH2 0xC35 JUMPI PUSH2 0xC34 PUSH2 0xBE1 JUMP JUMPDEST JUMPDEST SWAP3 POP SWAP3 SWAP1 POP JUMP JUMPDEST PUSH1 0x0 DUP1 PUSH1 0x20 DUP4 DUP6 SUB SLT ISZERO PUSH2 0xC53 JUMPI PUSH2 0xC52 PUSH2 0xBCD JUMP JUMPDEST JUMPDEST PUSH1 0x0 DUP4 ADD CALLDATALOAD PUSH8 0xFFFFFFFFFFFFFFFF DUP2 GT ISZERO PUSH2 0xC71 JUMPI PUSH2 0xC70 PUSH2 0xBD2 JUMP JUMPDEST JUMPDEST PUSH2 0xC7D DUP6 DUP3 DUP7 ADD PUSH2 0xBE6 JUMP JUMPDEST SWAP3 POP SWAP3 POP POP SWAP3 POP SWAP3 SWAP1 POP JUMP JUMPDEST PUSH1 0x0 PUSH32 0xFFFFFFFF00000000000000000000000000000000000000000000000000000000 DUP3 AND SWAP1 POP SWAP2 SWAP1 POP JUMP JUMPDEST PUSH2 0xCBE DUP2 PUSH2 0xC89 JUMP JUMPDEST DUP3 MSTORE POP POP JUMP JUMPDEST PUSH1 0x0 PUSH1 0x20 DUP3 ADD SWAP1 POP PUSH2 0xCD9 PUSH1 0x0 DUP4 ADD DUP5 PUSH2 0xCB5 JUMP JUMPDEST SWAP3 SWAP2 POP POP JUMP JUMPDEST PUSH1 0x0 DUP1 DUP4 PUSH1 0x1F DUP5 ADD SLT PUSH2 0xCF5 JUMPI PUSH2 0xCF4 PUSH2 0xBD7 JUMP JUMPDEST JUMPDEST DUP3 CALLDATALOAD SWAP1 POP PUSH8 0xFFFFFFFFFFFFFFFF DUP2 GT ISZERO PUSH2 0xD12 JUMPI PUSH2 0xD11 PUSH2 0xBDC JUMP JUMPDEST JUMPDEST PUSH1 0x20 DUP4 ADD SWAP2 POP DUP4 PUSH1 0x20 DUP3 MUL DUP4 ADD GT ISZERO PUSH2 0xD2E JUMPI PUSH2 0xD2D PUSH2 0xBE1 JUMP JUMPDEST JUMPDEST SWAP3 POP SWAP3 SWAP1 POP JUMP JUMPDEST PUSH1 0x0 DUP1 PUSH1 0x0 DUP1 PUSH1 0x40 DUP6 DUP8 SUB SLT ISZERO PUSH2 0xD4F JUMPI PUSH2 0xD4E PUSH2 0xBCD JUMP JUMPDEST JUMPDEST PUSH1 0x0 DUP6 ADD CALLDATALOAD PUSH8 0xFFFFFFFFFFFFFFFF DUP2 GT ISZERO PUSH2 0xD6D JUMPI PUSH2 0xD6C PUSH2 0xBD2 JUMP JUMPDEST JUMPDEST PUSH2 0xD79 DUP8 DUP3 DUP9 ADD PUSH2 0xBE6 JUMP JUMPDEST SWAP5 POP SWAP5 POP POP PUSH1 0x20 DUP6 ADD CALLDATALOAD PUSH8 0xFFFFFFFFFFFFFFFF DUP2 GT ISZERO PUSH2 0xD9C JUMPI PUSH2 0xD9B PUSH2 0xBD2 JUMP JUMPDEST JUMPDEST PUSH2 0xDA8 DUP8 DUP3 DUP9 ADD PUSH2 0xCDF JUMP JUMPDEST SWAP3 POP SWAP3 POP POP SWAP3 SWAP6 SWAP2 SWAP5 POP SWAP3 POP JUMP JUMPDEST PUSH1 0x0 DUP1 PUSH1 0x20 DUP4 DUP6 SUB SLT ISZERO PUSH2 0xDCD JUMPI PUSH2 0xDCC PUSH2 0xBCD JUMP JUMPDEST JUMPDEST PUSH1 0x0 DUP4 ADD CALLDATALOAD PUSH8 0xFFFFFFFFFFFFFFFF DUP2 GT ISZERO PUSH2 0xDEB JUMPI PUSH2 0xDEA PUSH2 0xBD2 JUMP JUMPDEST JUMPDEST PUSH2 0xDF7 DUP6 DUP3 DUP7 ADD PUSH2 0xCDF JUMP JUMPDEST SWAP3 POP SWAP3 POP POP SWAP3 POP SWAP3 SWAP1 POP JUMP JUMPDEST PUSH1 0x0 PUSH20 0xFFFFFFFFFFFFFFFFFFFFFFFFFFFFFFFFFFFFFFFF DUP3 AND SWAP1 POP SWAP2 SWAP1 POP JUMP JUMPDEST PUSH1 0x0 PUSH2 0xE2E DUP3 PUSH2 0xE03 JUMP JUMPDEST SWAP1 POP SWAP2 SWAP1 POP JUMP JUMPDEST PUSH2 0xE3E DUP2 PUSH2 0xE23 JUMP JUMPDEST DUP2 EQ PUSH2 0xE49 JUMPI PUSH1 0x0 DUP1 REVERT JUMPDEST POP JUMP JUMPDEST PUSH1 0x0 DUP2 CALLDATALOAD SWAP1 POP PUSH2 0xE5B DUP2 PUSH2 0xE35 JUMP JUMPDEST SWAP3 SWAP2 POP POP JUMP JUMPDEST PUSH1 0x0 DUP2 ISZERO ISZERO SWAP1 POP SWAP2 SWAP1 POP JUMP JUMPDEST PUSH2 0xE76 DUP2 PUSH2 0xE61 JUMP JUMPDEST DUP2 EQ PUSH2 0xE81 JUMPI PUSH1 0x0 DUP1 REVERT JUMPDEST POP JUMP JUMPDEST PUSH1 0x0 DUP2 CALLDATALOAD SWAP1 POP PUSH2 0xE93 DUP2 PUSH2 0xE6D JUMP JUMPDEST SWAP3 SWAP2 POP POP JUMP JUMPDEST PUSH1 0x0 DUP1 PUSH1 0x40 DUP4 DUP6 SUB SLT ISZERO PUSH2 0xEB0 JUMPI PUSH2 0xEAF PUSH2 0xBCD JUMP JUMPDEST JUMPDEST PUSH1 0x0 PUSH2 0xEBE DUP6 DUP3 DUP7 ADD PUSH2 0xE4C JUMP JUMPDEST SWAP3 POP POP PUSH1 0x20 PUSH2 0xECF DUP6 DUP3 DUP7 ADD PUSH2 0xE84 JUMP JUMPDEST SWAP2 POP POP SWAP3 POP SWAP3 SWAP1 POP JUMP JUMPDEST PUSH32 0x4E487B7100000000000000000000000000000000000000000000000000000000 PUSH1 0x0 MSTORE PUSH1 0x32 PUSH1 0x4 MSTORE PUSH1 0x24 PUSH1 0x0 REVERT JUMPDEST PUSH2 0xF11 DUP2 PUSH2 0xE23 JUMP JUMPDEST DUP3 MSTORE POP POP JUMP JUMPDEST PUSH2 0xF20 DUP2 PUSH2 0xE61 JUMP JUMPDEST DUP3 MSTORE POP POP JUMP JUMPDEST PUSH1 0x0 PUSH1 0x40 DUP3 ADD SWAP1 POP PUSH2 0xF3B PUSH1 0x0 DUP4 ADD DUP6 PUSH2 0xF08 JUMP JUMPDEST PUSH2 0xF48 PUSH1 0x20 DUP4 ADD DUP5 PUSH2 0xF17 JUMP JUMPDEST SWAP4 SWAP3 POP POP POP JUMP JUMPDEST PUSH1 0x0 PUSH1 0x20 DUP3 ADD SWAP1 POP PUSH2 0xF64 PUSH1 0x0 DUP4 ADD DUP5 PUSH2 0xF17 JUMP JUMPDEST SWAP3 SWAP2 POP POP JUMP JUMPDEST PUSH32 0x4E487B7100000000000000000000000000000000000000000000000000000000 PUSH1 0x0 MSTORE PUSH1 0x21 PUSH1 0x4 MSTORE PUSH1 0x24 PUSH1 0x0 REVERT JUMPDEST PUSH1 0x4 DUP2 LT PUSH2 0xFA6 JUMPI PUSH1 0x0 DUP1 REVERT JUMPDEST POP JUMP JUMPDEST PUSH1 0x0 DUP2 CALLDATALOAD SWAP1 POP PUSH2 0xFB8 DUP2 PUSH2 0xF99 JUMP JUMPDEST SWAP3 SWAP2 POP POP JUMP JUMPDEST PUSH1 0x0 PUSH1 0x20 DUP3 DUP5 SUB SLT ISZERO PUSH2 0xFD4 JUMPI PUSH2 0xFD3 PUSH2 0xBCD JUMP JUMPDEST JUMPDEST PUSH1 0x0 PUSH2 0xFE2 DUP5 DUP3 DUP6 ADD PUSH2 0xFA9 JUMP JUMPDEST SWAP2 POP POP SWAP3 SWAP2 POP POP JUMP JUMPDEST PUSH1 0x0 PUSH1 0x20 DUP3 DUP5 SUB SLT ISZERO PUSH2 0x1001 JUMPI PUSH2 0x1000 PUSH2 0xBCD JUMP JUMPDEST JUMPDEST PUSH1 0x0 PUSH2 0x100F DUP5 DUP3 DUP6 ADD PUSH2 0xE4C JUMP JUMPDEST SWAP2 POP POP SWAP3 SWAP2 POP POP JUMP INVALID LOG2 PUSH5 0x6970667358 0x22 SLT KECCAK256 MLOAD CALLDATASIZE SWAP3 0x4F 0x4D 0xBB INVALID PUSH26 0x561A1FC04E45947433C8FCBA59787FFD458BB59436AA02226473 PUSH16 0x6C63430008110033A264697066735822 SLT KECCAK256 PUSH23 0x1BC6711F0AF030E64E4344395B1EF19179448B9D129D2B AND 0xBF 0xAF 0xAE DIV EXTCODESIZE SSTORE 0xCD PUSH5 0x736F6C6343 STOP ADDMOD GT STOP CALLER PUSH1 0xA0 PUSH1 0x40 MSTORE CALLVALUE DUP1 ISZERO PUSH2 0x10 JUMPI PUSH1 0x0 DUP1 REVERT JUMPDEST POP CALLER PUSH20 0xFFFFFFFFFFFFFFFFFFFFFFFFFFFFFFFFFFFFFFFF AND PUSH1 0x80 DUP2 PUSH20 0xFFFFFFFFFFFFFFFFFFFFFFFFFFFFFFFFFFFFFFFF AND DUP2 MSTORE POP POP PUSH1 0x80 MLOAD PUSH2 0x104E PUSH2 0x60 PUSH1 0x0 CODECOPY PUSH1 0x0 PUSH2 0x290 ADD MSTORE PUSH2 0x104E PUSH1 0x0 RETURN INVALID PUSH1 0x80 PUSH1 0x40 MSTORE CALLVALUE DUP1 ISZERO PUSH2 0x10 JUMPI PUSH1 0x0 DUP1 REVERT JUMPDEST POP PUSH1 0x4 CALLDATASIZE LT PUSH2 0x4C JUMPI PUSH1 0x0 CALLDATALOAD PUSH1 0xE0 SHR DUP1 PUSH4 0x4CE34AA2 EQ PUSH2 0x51 JUMPI DUP1 PUSH4 0x899E104C EQ PUSH2 0x81 JUMPI DUP1 PUSH4 0x8DF25D92 EQ PUSH2 0xB1 JUMPI DUP1 PUSH4 0xC4E8FCB5 EQ PUSH2 0xE1 JUMPI JUMPDEST PUSH1 0x0 DUP1 REVERT JUMPDEST PUSH2 0x6B PUSH1 0x4 DUP1 CALLDATASIZE SUB DUP2 ADD SWAP1 PUSH2 0x66 SWAP2 SWAP1 PUSH2 0xC3C JUMP JUMPDEST PUSH2 0xFD JUMP JUMPDEST PUSH1 0x40 MLOAD PUSH2 0x78 SWAP2 SWAP1 PUSH2 0xCC4 JUMP JUMPDEST PUSH1 0x40 MLOAD DUP1 SWAP2 SUB SWAP1 RETURN JUMPDEST PUSH2 0x9B PUSH1 0x4 DUP1 CALLDATASIZE SUB DUP2 ADD SWAP1 PUSH2 0x96 SWAP2 SWAP1 PUSH2 0xD35 JUMP JUMPDEST PUSH2 0x191 JUMP JUMPDEST PUSH1 0x40 MLOAD PUSH2 0xA8 SWAP2 SWAP1 PUSH2 0xCC4 JUMP JUMPDEST PUSH1 0x40 MLOAD DUP1 SWAP2 SUB SWAP1 RETURN JUMPDEST PUSH2 0xCB PUSH1 0x4 DUP1 CALLDATASIZE SUB DUP2 ADD SWAP1 PUSH2 0xC6 SWAP2 SWAP1 PUSH2 0xDB6 JUMP JUMPDEST PUSH2 0x231 JUMP JUMPDEST PUSH1 0x40 MLOAD PUSH2 0xD8 SWAP2 SWAP1 PUSH2 0xCC4 JUMP JUMPDEST PUSH1 0x40 MLOAD DUP1 SWAP2 SUB SWAP1 RETURN JUMPDEST PUSH2 0xFB PUSH1 0x4 DUP1 CALLDATASIZE SUB DUP2 ADD SWAP1 PUSH2 0xF6 SWAP2 SWAP1 PUSH2 0xE99 JUMP JUMPDEST PUSH2 0x28E JUMP JUMPDEST STOP JUMPDEST PUSH1 0x0 CALLER PUSH1 0x0 MSTORE PUSH1 0x0 PUSH1 0x20 MSTORE PUSH1 0x40 PUSH1 0x0 KECCAK256 SLOAD PUSH2 0x140 JUMPI PUSH32 0x93DAADF200000000000000000000000000000000000000000000000000000000 PUSH1 0x0 MSTORE CALLER PUSH1 0x4 MSTORE PUSH1 0x24 PUSH1 0x0 REVERT JUMPDEST PUSH1 0x0 DUP4 DUP4 SWAP1 POP SWAP1 POP PUSH1 0x0 JUMPDEST DUP2 DUP2 LT ISZERO PUSH2 0x17F JUMPI PUSH2 0x174 DUP6 DUP6 DUP4 DUP2 DUP2 LT PUSH2 0x169 JUMPI PUSH2 0x168 PUSH2 0xED9 JUMP JUMPDEST JUMPDEST SWAP1 POP PUSH1 0xC0 MUL ADD PUSH2 0x450 JUMP JUMPDEST DUP1 PUSH1 0x1 ADD SWAP1 POP PUSH2 0x14B JUMP JUMPDEST POP PUSH4 0x4CE34AA2 PUSH1 0xE0 SHL SWAP2 POP POP SWAP3 SWAP2 POP POP JUMP JUMPDEST PUSH1 0x0 CALLER PUSH1 0x0 MSTORE PUSH1 0x0 PUSH1 0x20 MSTORE PUSH1 0x40 PUSH1 0x0 KECCAK256 SLOAD PUSH2 0x1D4 JUMPI PUSH32 0x93DAADF200000000000000000000000000000000000000000000000000000000 PUSH1 0x0 MSTORE CALLER PUSH1 0x4 MSTORE PUSH1 0x24 PUSH1 0x0 REVERT JUMPDEST PUSH1 0x0 DUP6 DUP6 SWAP1 POP SWAP1 POP PUSH1 0x0 JUMPDEST DUP2 DUP2 LT ISZERO PUSH2 0x213 JUMPI PUSH2 0x208 DUP8 DUP8 DUP4 DUP2 DUP2 LT PUSH2 0x1FD JUMPI PUSH2 0x1FC PUSH2 0xED9 JUMP JUMPDEST JUMPDEST SWAP1 POP PUSH1 0xC0 MUL ADD PUSH2 0x450 JUMP JUMPDEST DUP1 PUSH1 0x1 ADD SWAP1 POP PUSH2 0x1DF JUMP JUMPDEST POP PUSH2 0x21E DUP5 DUP5 PUSH2 0x664 JUMP JUMPDEST PUSH4 0x899E104C PUSH1 0xE0 SHL SWAP2 POP POP SWAP5 SWAP4 POP POP POP POP JUMP JUMPDEST PUSH1 0x0 CALLER PUSH1 0x0 MSTORE PUSH1 0x0 PUSH1 0x20 MSTORE PUSH1 0x40 PUSH1 0x0 KECCAK256 SLOAD PUSH2 0x274 JUMPI PUSH32 0x93DAADF200000000000000000000000000000000000000000000000000000000 PUSH1 0x0 MSTORE CALLER PUSH1 0x4 MSTORE PUSH1 0x24 PUSH1 0x0 REVERT JUMPDEST PUSH2 0x27E DUP4 DUP4 PUSH2 0x664 JUMP JUMPDEST PUSH4 0x8DF25D92 PUSH1 0xE0 SHL SWAP1 POP SWAP3 SWAP2 POP POP JUMP JUMPDEST PUSH32 0x0 PUSH20 0xFFFFFFFFFFFFFFFFFFFFFFFFFFFFFFFFFFFFFFFF AND CALLER PUSH20 0xFFFFFFFFFFFFFFFFFFFFFFFFFFFFFFFFFFFFFFFF AND EQ PUSH2 0x313 JUMPI PUSH1 0x40 MLOAD PUSH32 0x6D5769BE00000000000000000000000000000000000000000000000000000000 DUP2 MSTORE PUSH1 0x4 ADD PUSH1 0x40 MLOAD DUP1 SWAP2 SUB SWAP1 REVERT JUMPDEST DUP1 ISZERO ISZERO PUSH1 0x0 DUP1 DUP5 PUSH20 0xFFFFFFFFFFFFFFFFFFFFFFFFFFFFFFFFFFFFFFFF AND PUSH20 0xFFFFFFFFFFFFFFFFFFFFFFFFFFFFFFFFFFFFFFFF AND DUP2 MSTORE PUSH1 0x20 ADD SWAP1 DUP2 MSTORE PUSH1 0x20 ADD PUSH1 0x0 KECCAK256 PUSH1 0x0 SWAP1 SLOAD SWAP1 PUSH2 0x100 EXP SWAP1 DIV PUSH1 0xFF AND ISZERO ISZERO SUB PUSH2 0x3A8 JUMPI DUP2 DUP2 PUSH1 0x40 MLOAD PUSH32 0x924E341E00000000000000000000000000000000000000000000000000000000 DUP2 MSTORE PUSH1 0x4 ADD PUSH2 0x39F SWAP3 SWAP2 SWAP1 PUSH2 0xF26 JUMP JUMPDEST PUSH1 0x40 MLOAD DUP1 SWAP2 SUB SWAP1 REVERT JUMPDEST DUP1 PUSH1 0x0 DUP1 DUP5 PUSH20 0xFFFFFFFFFFFFFFFFFFFFFFFFFFFFFFFFFFFFFFFF AND PUSH20 0xFFFFFFFFFFFFFFFFFFFFFFFFFFFFFFFFFFFFFFFF AND DUP2 MSTORE PUSH1 0x20 ADD SWAP1 DUP2 MSTORE PUSH1 0x20 ADD PUSH1 0x0 KECCAK256 PUSH1 0x0 PUSH2 0x100 EXP DUP2 SLOAD DUP2 PUSH1 0xFF MUL NOT AND SWAP1 DUP4 ISZERO ISZERO MUL OR SWAP1 SSTORE POP DUP2 PUSH20 0xFFFFFFFFFFFFFFFFFFFFFFFFFFFFFFFFFFFFFFFF AND PUSH32 0xAE63067D43AC07563B7EB8DB6595635FC77F1578A2A5EA06BA91B63E2AFA37E2 DUP3 PUSH1 0x40 MLOAD PUSH2 0x444 SWAP2 SWAP1 PUSH2 0xF4F JUMP JUMPDEST PUSH1 0x40 MLOAD DUP1 SWAP2 SUB SWAP1 LOG2 POP POP JUMP JUMPDEST PUSH1 0x1 PUSH1 0x3 DUP2 GT ISZERO PUSH2 0x464 JUMPI PUSH2 0x463 PUSH2 0xF6A JUMP JUMPDEST JUMPDEST DUP2 PUSH1 0x0 ADD PUSH1 0x20 DUP2 ADD SWAP1 PUSH2 0x477 SWAP2 SWAP1 PUSH2 0xFBE JUMP JUMPDEST PUSH1 0x3 DUP2 GT ISZERO PUSH2 0x489 JUMPI PUSH2 0x488 PUSH2 0xF6A JUMP JUMPDEST JUMPDEST SUB PUSH2 0x4D9 JUMPI PUSH2 0x4D4 DUP2 PUSH1 0x20 ADD PUSH1 0x20 DUP2 ADD SWAP1 PUSH2 0x4A4 SWAP2 SWAP1 PUSH2 0xFEB JUMP JUMPDEST DUP3 PUSH1 0x40 ADD PUSH1 0x20 DUP2 ADD SWAP1 PUSH2 0x4B7 SWAP2 SWAP1 PUSH2 0xFEB JUMP JUMPDEST DUP4 PUSH1 0x60 ADD PUSH1 0x20 DUP2 ADD SWAP1 PUSH2 0x4CA SWAP2 SWAP1 PUSH2 0xFEB JUMP JUMPDEST DUP5 PUSH1 0xA0 ADD CALLDATALOAD PUSH2 0x80C JUMP JUMPDEST PUSH2 0x661 JUMP JUMPDEST PUSH1 0x2 PUSH1 0x3 DUP2 GT ISZERO PUSH2 0x4ED JUMPI PUSH2 0x4EC PUSH2 0xF6A JUMP JUMPDEST JUMPDEST DUP2 PUSH1 0x0 ADD PUSH1 0x20 DUP2 ADD SWAP1 PUSH2 0x500 SWAP2 SWAP1 PUSH2 0xFBE JUMP JUMPDEST PUSH1 0x3 DUP2 GT ISZERO PUSH2 0x512 JUMPI PUSH2 0x511 PUSH2 0xF6A JUMP JUMPDEST JUMPDEST SUB PUSH2 0x5A0 JUMPI PUSH1 0x1 DUP2 PUSH1 0xA0 ADD CALLDATALOAD EQ PUSH2 0x555 JUMPI PUSH1 0x40 MLOAD PUSH32 0xEFCC00B100000000000000000000000000000000000000000000000000000000 DUP2 MSTORE PUSH1 0x4 ADD PUSH1 0x40 MLOAD DUP1 SWAP2 SUB SWAP1 REVERT JUMPDEST PUSH2 0x59B DUP2 PUSH1 0x20 ADD PUSH1 0x20 DUP2 ADD SWAP1 PUSH2 0x56B SWAP2 SWAP1 PUSH2 0xFEB JUMP JUMPDEST DUP3 PUSH1 0x40 ADD PUSH1 0x20 DUP2 ADD SWAP1 PUSH2 0x57E SWAP2 SWAP1 PUSH2 0xFEB JUMP JUMPDEST DUP4 PUSH1 0x60 ADD PUSH1 0x20 DUP2 ADD SWAP1 PUSH2 0x591 SWAP2 SWAP1 PUSH2 0xFEB JUMP JUMPDEST DUP5 PUSH1 0x80 ADD CALLDATALOAD PUSH2 0x97F JUMP JUMPDEST PUSH2 0x660 JUMP JUMPDEST PUSH1 0x3 DUP1 DUP2 GT ISZERO PUSH2 0x5B3 JUMPI PUSH2 0x5B2 PUSH2 0xF6A JUMP JUMPDEST JUMPDEST DUP2 PUSH1 0x0 ADD PUSH1 0x20 DUP2 ADD SWAP1 PUSH2 0x5C6 SWAP2 SWAP1 PUSH2 0xFBE JUMP JUMPDEST PUSH1 0x3 DUP2 GT ISZERO PUSH2 0x5D8 JUMPI PUSH2 0x5D7 PUSH2 0xF6A JUMP JUMPDEST JUMPDEST SUB PUSH2 0x62D JUMPI PUSH2 0x628 DUP2 PUSH1 0x20 ADD PUSH1 0x20 DUP2 ADD SWAP1 PUSH2 0x5F3 SWAP2 SWAP1 PUSH2 0xFEB JUMP JUMPDEST DUP3 PUSH1 0x40 ADD PUSH1 0x20 DUP2 ADD SWAP1 PUSH2 0x606 SWAP2 SWAP1 PUSH2 0xFEB JUMP JUMPDEST DUP4 PUSH1 0x60 ADD PUSH1 0x20 DUP2 ADD SWAP1 PUSH2 0x619 SWAP2 SWAP1 PUSH2 0xFEB JUMP JUMPDEST DUP5 PUSH1 0x80 ADD CALLDATALOAD DUP6 PUSH1 0xA0 ADD CALLDATALOAD PUSH2 0xA93 JUMP JUMPDEST PUSH2 0x65F JUMP JUMPDEST PUSH1 0x40 MLOAD PUSH32 0x7932F1FC00000000000000000000000000000000000000000000000000000000 DUP2 MSTORE PUSH1 0x4 ADD PUSH1 0x40 MLOAD DUP1 SWAP2 SUB SWAP1 REVERT JUMPDEST JUMPDEST JUMPDEST POP JUMP JUMPDEST DUP1 DUP3 DUP1 PUSH32 0x2EB2C2D600000000000000000000000000000000000000000000000000000000 PUSH1 0x20 MSTORE PUSH1 0x0 JUMPDEST DUP4 DUP2 LT ISZERO PUSH2 0x7FF JUMPI DUP3 CALLDATALOAD DUP3 ADD DUP1 CALLDATALOAD DUP1 EXTCODESIZE PUSH2 0x6D0 JUMPI PUSH32 0x5F15D67200000000000000000000000000000000000000000000000000000000 PUSH1 0x0 MSTORE DUP1 PUSH1 0x4 MSTORE PUSH1 0x24 PUSH1 0x0 REVERT JUMPDEST PUSH1 0xA0 DUP3 ADD CALLDATALOAD PUSH1 0x20 DUP2 MUL PUSH1 0xC0 ADD DUP1 PUSH1 0x80 DUP6 ADD CALLDATALOAD EQ PUSH1 0xA0 PUSH1 0x60 DUP7 ADD CALLDATALOAD EQ AND DUP2 DUP6 ADD CALLDATALOAD DUP4 EQ AND ISZERO DUP1 ISZERO PUSH2 0x724 JUMPI PUSH32 0xEBA2084C00000000000000000000000000000000000000000000000000000000 PUSH1 0x0 MSTORE PUSH1 0x4 PUSH1 0x0 REVERT JUMPDEST PUSH1 0x20 DUP9 ADD SWAP8 POP PUSH1 0x80 PUSH1 0x20 DUP7 ADD PUSH1 0x24 CALLDATACOPY PUSH1 0x40 DUP4 MUL PUSH1 0x40 ADD DUP1 PUSH1 0xA0 ADD PUSH1 0xA4 MSTORE PUSH1 0x0 DUP2 PUSH1 0xC4 ADD MSTORE DUP1 PUSH1 0xC4 ADD DUP2 PUSH1 0xA0 DUP9 ADD PUSH1 0xC4 CALLDATACOPY PUSH1 0x0 DUP1 DUP3 PUSH1 0x20 PUSH1 0x0 DUP11 GAS CALL DUP1 PUSH2 0x7EC JUMPI RETURNDATASIZE ISZERO PUSH2 0x7B1 JUMPI PUSH1 0x20 PUSH1 0x1F RETURNDATASIZE ADD DIV PUSH1 0x20 DUP4 DIV DUP2 PUSH1 0x3 MUL DUP2 DUP4 GT ISZERO PUSH2 0x798 JUMPI PUSH2 0x200 DUP3 DUP4 MUL DUP5 DUP6 MUL SUB DIV PUSH1 0x3 DUP4 DUP6 SUB MUL ADD DUP2 ADD SWAP1 POP JUMPDEST GAS PUSH1 0x20 DUP3 ADD LT ISZERO PUSH2 0x7AD JUMPI RETURNDATASIZE PUSH1 0x0 DUP1 RETURNDATACOPY RETURNDATASIZE PUSH1 0x0 REVERT JUMPDEST POP POP POP JUMPDEST PUSH32 0xAFC445E200000000000000000000000000000000000000000000000000000000 PUSH1 0x0 MSTORE DUP7 PUSH1 0x4 MSTORE PUSH1 0xC0 PUSH1 0x64 MSTORE PUSH1 0x84 MLOAD PUSH1 0x20 ADD PUSH1 0x84 MSTORE DUP2 PUSH1 0x0 REVERT JUMPDEST POP POP POP POP POP POP POP POP PUSH1 0x1 DUP2 ADD SWAP1 POP PUSH2 0x68E JUMP JUMPDEST POP PUSH1 0x80 PUSH1 0x40 MSTORE POP POP POP POP POP JUMP JUMPDEST PUSH1 0x40 MLOAD PUSH32 0x23B872DD00000000000000000000000000000000000000000000000000000000 PUSH1 0x0 MSTORE DUP4 PUSH1 0x4 MSTORE DUP3 PUSH1 0x24 MSTORE DUP2 PUSH1 0x44 MSTORE PUSH1 0x20 PUSH1 0x0 PUSH1 0x64 PUSH1 0x0 DUP1 DUP10 GAS CALL DUP1 RETURNDATASIZE ISZERO PUSH1 0x1F RETURNDATASIZE GT PUSH1 0x1 PUSH1 0x0 MLOAD EQ AND OR AND RETURNDATASIZE ISZERO ISZERO DUP2 AND PUSH2 0x96D JUMPI DUP1 DUP8 EXTCODESIZE ISZERO ISZERO AND PUSH2 0x96C JUMPI DUP1 PUSH2 0x93E JUMPI DUP2 PUSH2 0x904 JUMPI RETURNDATASIZE ISZERO PUSH2 0x8C5 JUMPI PUSH1 0x20 PUSH1 0x1F RETURNDATASIZE ADD DIV PUSH1 0x20 DUP5 DIV DUP2 PUSH1 0x3 MUL DUP2 DUP4 GT ISZERO PUSH2 0x8AC JUMPI PUSH2 0x200 DUP3 DUP4 MUL DUP5 DUP6 MUL SUB DIV PUSH1 0x3 DUP4 DUP6 SUB MUL ADD DUP2 ADD SWAP1 POP JUMPDEST GAS PUSH1 0x20 DUP3 ADD LT ISZERO PUSH2 0x8C1 JUMPI RETURNDATASIZE PUSH1 0x0 DUP1 RETURNDATACOPY RETURNDATASIZE PUSH1 0x0 REVERT JUMPDEST POP POP POP JUMPDEST PUSH32 0xF486BC8700000000000000000000000000000000000000000000000000000000 PUSH1 0x0 MSTORE DUP7 PUSH1 0x4 MSTORE DUP6 PUSH1 0x24 MSTORE DUP5 PUSH1 0x44 MSTORE PUSH1 0x0 PUSH1 0x64 MSTORE DUP4 PUSH1 0x84 MSTORE PUSH1 0xA4 PUSH1 0x0 REVERT JUMPDEST PUSH32 0x9889192300000000000000000000000000000000000000000000000000000000 PUSH1 0x0 MSTORE DUP7 PUSH1 0x4 MSTORE DUP6 PUSH1 0x24 MSTORE DUP5 PUSH1 0x44 MSTORE DUP4 PUSH1 0x64 MSTORE PUSH1 0x84 PUSH1 0x0 REVERT JUMPDEST PUSH32 0x5F15D67200000000000000000000000000000000000000000000000000000000 PUSH1 0x0 MSTORE DUP7 PUSH1 0x4 MSTORE PUSH1 0x24 PUSH1 0x0 REVERT JUMPDEST JUMPDEST DUP3 PUSH1 0x40 MSTORE PUSH1 0x0 PUSH1 0x60 MSTORE POP POP POP POP POP POP POP JUMP JUMPDEST DUP4 EXTCODESIZE PUSH2 0x9B3 JUMPI PUSH32 0x5F15D67200000000000000000000000000000000000000000000000000000000 PUSH1 0x0 MSTORE DUP4 PUSH1 0x4 MSTORE PUSH1 0x24 PUSH1 0x0 REVERT JUMPDEST PUSH1 0x40 MLOAD PUSH32 0x23B872DD00000000000000000000000000000000000000000000000000000000 PUSH1 0x0 MSTORE DUP4 PUSH1 0x4 MSTORE DUP3 PUSH1 0x24 MSTORE DUP2 PUSH1 0x44 MSTORE PUSH1 0x0 DUP1 PUSH1 0x64 PUSH1 0x0 DUP1 DUP10 GAS CALL DUP1 PUSH2 0xA82 JUMPI RETURNDATASIZE ISZERO PUSH2 0xA43 JUMPI PUSH1 0x20 PUSH1 0x1F RETURNDATASIZE ADD DIV PUSH1 0x20 DUP4 DIV DUP2 PUSH1 0x3 MUL DUP2 DUP4 GT ISZERO PUSH2 0xA2A JUMPI PUSH2 0x200 DUP3 DUP4 MUL DUP5 DUP6 MUL SUB DIV PUSH1 0x3 DUP4 DUP6 SUB MUL ADD DUP2 ADD SWAP1 POP JUMPDEST GAS PUSH1 0x20 DUP3 ADD LT ISZERO PUSH2 0xA3F JUMPI RETURNDATASIZE PUSH1 0x0 DUP1 RETURNDATACOPY RETURNDATASIZE PUSH1 0x0 REVERT JUMPDEST POP POP POP JUMPDEST PUSH32 0xF486BC8700000000000000000000000000000000000000000000000000000000 PUSH1 0x0 MSTORE DUP6 PUSH1 0x4 MSTORE DUP5 PUSH1 0x24 MSTORE DUP4 PUSH1 0x44 MSTORE DUP3 PUSH1 0x64 MSTORE PUSH1 0x1 PUSH1 0x84 MSTORE PUSH1 0xA4 PUSH1 0x0 REVERT JUMPDEST DUP2 PUSH1 0x40 MSTORE PUSH1 0x0 PUSH1 0x60 MSTORE POP POP POP POP POP POP JUMP JUMPDEST DUP5 EXTCODESIZE PUSH2 0xAC7 JUMPI PUSH32 0x5F15D67200000000000000000000000000000000000000000000000000000000 PUSH1 0x0 MSTORE DUP5 PUSH1 0x4 MSTORE PUSH1 0x24 PUSH1 0x0 REVERT JUMPDEST PUSH1 0x40 MLOAD PUSH1 0x80 MLOAD PUSH1 0xA0 MLOAD PUSH1 0xC0 MLOAD PUSH32 0xF242432A00000000000000000000000000000000000000000000000000000000 PUSH1 0x0 MSTORE DUP8 PUSH1 0x4 MSTORE DUP7 PUSH1 0x24 MSTORE DUP6 PUSH1 0x44 MSTORE DUP5 PUSH1 0x64 MSTORE PUSH1 0xA0 PUSH1 0x84 MSTORE PUSH1 0x0 PUSH1 0xA4 MSTORE PUSH1 0x0 DUP1 PUSH1 0xC4 PUSH1 0x0 DUP1 DUP14 GAS CALL DUP1 PUSH2 0xBAC JUMPI RETURNDATASIZE ISZERO PUSH2 0xB6E JUMPI PUSH1 0x20 PUSH1 0x1F RETURNDATASIZE ADD DIV PUSH1 0x20 DUP7 DIV DUP2 PUSH1 0x3 MUL DUP2 DUP4 GT ISZERO PUSH2 0xB55 JUMPI PUSH2 0x200 DUP3 DUP4 MUL DUP5 DUP6 MUL SUB DIV PUSH1 0x3 DUP4 DUP6 SUB MUL ADD DUP2 ADD SWAP1 POP JUMPDEST GAS PUSH1 0x20 DUP3 ADD LT ISZERO PUSH2 0xB6A JUMPI RETURNDATASIZE PUSH1 0x0 DUP1 RETURNDATACOPY RETURNDATASIZE PUSH1 0x0 REVERT JUMPDEST POP POP POP JUMPDEST PUSH32 0xF486BC8700000000000000000000000000000000000000000000000000000000 PUSH1 0x0 MSTORE DUP10 PUSH1 0x4 MSTORE DUP9 PUSH1 0x24 MSTORE DUP8 PUSH1 0x44 MSTORE DUP7 PUSH1 0x64 MSTORE DUP6 PUSH1 0x84 MSTORE PUSH1 0xA4 PUSH1 0x0 REVERT JUMPDEST DUP4 PUSH1 0x80 MSTORE DUP3 PUSH1 0xA0 MSTORE DUP2 PUSH1 0xC0 MSTORE DUP5 PUSH1 0x40 MSTORE PUSH1 0x0 PUSH1 0x60 MSTORE POP POP POP POP POP POP POP POP POP POP JUMP JUMPDEST PUSH1 0x0 DUP1 REVERT JUMPDEST PUSH1 0x0 DUP1 REVERT JUMPDEST PUSH1 0x0 DUP1 REVERT JUMPDEST PUSH1 0x0 DUP1 REVERT JUMPDEST PUSH1 0x0 DUP1 REVERT JUMPDEST PUSH1 0x0 DUP1 DUP4 PUSH1 0x1F DUP5 ADD SLT PUSH2 0xBFC JUMPI PUSH2 0xBFB PUSH2 0xBD7 JUMP JUMPDEST JUMPDEST DUP3 CALLDATALOAD SWAP1 POP PUSH8 0xFFFFFFFFFFFFFFFF DUP2 GT ISZERO PUSH2 0xC19 JUMPI PUSH2 0xC18 PUSH2 0xBDC JUMP JUMPDEST JUMPDEST PUSH1 0x20 DUP4 ADD SWAP2 POP DUP4 PUSH1 0xC0 DUP3 MUL DUP4 ADD GT ISZERO PUSH2 0xC35 JUMPI PUSH2 0xC34 PUSH2 0xBE1 JUMP JUMPDEST JUMPDEST SWAP3 POP SWAP3 SWAP1 POP JUMP JUMPDEST PUSH1 0x0 DUP1 PUSH1 0x20 DUP4 DUP6 SUB SLT ISZERO PUSH2 0xC53 JUMPI PUSH2 0xC52 PUSH2 0xBCD JUMP JUMPDEST JUMPDEST PUSH1 0x0 DUP4 ADD CALLDATALOAD PUSH8 0xFFFFFFFFFFFFFFFF DUP2 GT ISZERO PUSH2 0xC71 JUMPI PUSH2 0xC70 PUSH2 0xBD2 JUMP JUMPDEST JUMPDEST PUSH2 0xC7D DUP6 DUP3 DUP7 ADD PUSH2 0xBE6 JUMP JUMPDEST SWAP3 POP SWAP3 POP POP SWAP3 POP SWAP3 SWAP1 POP JUMP JUMPDEST PUSH1 0x0 PUSH32 0xFFFFFFFF00000000000000000000000000000000000000000000000000000000 DUP3 AND SWAP1 POP SWAP2 SWAP1 POP JUMP JUMPDEST PUSH2 0xCBE DUP2 PUSH2 0xC89 JUMP JUMPDEST DUP3 MSTORE POP POP JUMP JUMPDEST PUSH1 0x0 PUSH1 0x20 DUP3 ADD SWAP1 POP PUSH2 0xCD9 PUSH1 0x0 DUP4 ADD DUP5 PUSH2 0xCB5 JUMP JUMPDEST SWAP3 SWAP2 POP POP JUMP JUMPDEST PUSH1 0x0 DUP1 DUP4 PUSH1 0x1F DUP5 ADD SLT PUSH2 0xCF5 JUMPI PUSH2 0xCF4 PUSH2 0xBD7 JUMP JUMPDEST JUMPDEST DUP3 CALLDATALOAD SWAP1 POP PUSH8 0xFFFFFFFFFFFFFFFF DUP2 GT ISZERO PUSH2 0xD12 JUMPI PUSH2 0xD11 PUSH2 0xBDC JUMP JUMPDEST JUMPDEST PUSH1 0x20 DUP4 ADD SWAP2 POP DUP4 PUSH1 0x20 DUP3 MUL DUP4 ADD GT ISZERO PUSH2 0xD2E JUMPI PUSH2 0xD2D PUSH2 0xBE1 JUMP JUMPDEST JUMPDEST SWAP3 POP SWAP3 SWAP1 POP JUMP JUMPDEST PUSH1 0x0 DUP1 PUSH1 0x0 DUP1 PUSH1 0x40 DUP6 DUP8 SUB SLT ISZERO PUSH2 0xD4F JUMPI PUSH2 0xD4E PUSH2 0xBCD JUMP JUMPDEST JUMPDEST PUSH1 0x0 DUP6 ADD CALLDATALOAD PUSH8 0xFFFFFFFFFFFFFFFF DUP2 GT ISZERO PUSH2 0xD6D JUMPI PUSH2 0xD6C PUSH2 0xBD2 JUMP JUMPDEST JUMPDEST PUSH2 0xD79 DUP8 DUP3 DUP9 ADD PUSH2 0xBE6 JUMP JUMPDEST SWAP5 POP SWAP5 POP POP PUSH1 0x20 DUP6 ADD CALLDATALOAD PUSH8 0xFFFFFFFFFFFFFFFF DUP2 GT ISZERO PUSH2 0xD9C JUMPI PUSH2 0xD9B PUSH2 0xBD2 JUMP JUMPDEST JUMPDEST PUSH2 0xDA8 DUP8 DUP3 DUP9 ADD PUSH2 0xCDF JUMP JUMPDEST SWAP3 POP SWAP3 POP POP SWAP3 SWAP6 SWAP2 SWAP5 POP SWAP3 POP JUMP JUMPDEST PUSH1 0x0 DUP1 PUSH1 0x20 DUP4 DUP6 SUB SLT ISZERO PUSH2 0xDCD JUMPI PUSH2 0xDCC PUSH2 0xBCD JUMP JUMPDEST JUMPDEST PUSH1 0x0 DUP4 ADD CALLDATALOAD PUSH8 0xFFFFFFFFFFFFFFFF DUP2 GT ISZERO PUSH2 0xDEB JUMPI PUSH2 0xDEA PUSH2 0xBD2 JUMP JUMPDEST JUMPDEST PUSH2 0xDF7 DUP6 DUP3 DUP7 ADD PUSH2 0xCDF JUMP JUMPDEST SWAP3 POP SWAP3 POP POP SWAP3 POP SWAP3 SWAP1 POP JUMP JUMPDEST PUSH1 0x0 PUSH20 0xFFFFFFFFFFFFFFFFFFFFFFFFFFFFFFFFFFFFFFFF DUP3 AND SWAP1 POP SWAP2 SWAP1 POP JUMP JUMPDEST PUSH1 0x0 PUSH2 0xE2E DUP3 PUSH2 0xE03 JUMP JUMPDEST SWAP1 POP SWAP2 SWAP1 POP JUMP JUMPDEST PUSH2 0xE3E DUP2 PUSH2 0xE23 JUMP JUMPDEST DUP2 EQ PUSH2 0xE49 JUMPI PUSH1 0x0 DUP1 REVERT JUMPDEST POP JUMP JUMPDEST PUSH1 0x0 DUP2 CALLDATALOAD SWAP1 POP PUSH2 0xE5B DUP2 PUSH2 0xE35 JUMP JUMPDEST SWAP3 SWAP2 POP POP JUMP JUMPDEST PUSH1 0x0 DUP2 ISZERO ISZERO SWAP1 POP SWAP2 SWAP1 POP JUMP JUMPDEST PUSH2 0xE76 DUP2 PUSH2 0xE61 JUMP JUMPDEST DUP2 EQ PUSH2 0xE81 JUMPI PUSH1 0x0 DUP1 REVERT JUMPDEST POP JUMP JUMPDEST PUSH1 0x0 DUP2 CALLDATALOAD SWAP1 POP PUSH2 0xE93 DUP2 PUSH2 0xE6D JUMP JUMPDEST SWAP3 SWAP2 POP POP JUMP JUMPDEST PUSH1 0x0 DUP1 PUSH1 0x40 DUP4 DUP6 SUB SLT ISZERO PUSH2 0xEB0 JUMPI PUSH2 0xEAF PUSH2 0xBCD JUMP JUMPDEST JUMPDEST PUSH1 0x0 PUSH2 0xEBE DUP6 DUP3 DUP7 ADD PUSH2 0xE4C JUMP JUMPDEST SWAP3 POP POP PUSH1 0x20 PUSH2 0xECF DUP6 DUP3 DUP7 ADD PUSH2 0xE84 JUMP JUMPDEST SWAP2 POP POP SWAP3 POP SWAP3 SWAP1 POP JUMP JUMPDEST PUSH32 0x4E487B7100000000000000000000000000000000000000000000000000000000 PUSH1 0x0 MSTORE PUSH1 0x32 PUSH1 0x4 MSTORE PUSH1 0x24 PUSH1 0x0 REVERT JUMPDEST PUSH2 0xF11 DUP2 PUSH2 0xE23 JUMP JUMPDEST DUP3 MSTORE POP POP JUMP JUMPDEST PUSH2 0xF20 DUP2 PUSH2 0xE61 JUMP JUMPDEST DUP3 MSTORE POP POP JUMP JUMPDEST PUSH1 0x0 PUSH1 0x40 DUP3 ADD SWAP1 POP PUSH2 0xF3B PUSH1 0x0 DUP4 ADD DUP6 PUSH2 0xF08 JUMP JUMPDEST PUSH2 0xF48 PUSH1 0x20 DUP4 ADD DUP5 PUSH2 0xF17 JUMP JUMPDEST SWAP4 SWAP3 POP POP POP JUMP JUMPDEST PUSH1 0x0 PUSH1 0x20 DUP3 ADD SWAP1 POP PUSH2 0xF64 PUSH1 0x0 DUP4 ADD DUP5 PUSH2 0xF17 JUMP JUMPDEST SWAP3 SWAP2 POP POP JUMP JUMPDEST PUSH32 0x4E487B7100000000000000000000000000000000000000000000000000000000 PUSH1 0x0 MSTORE PUSH1 0x21 PUSH1 0x4 MSTORE PUSH1 0x24 PUSH1 0x0 REVERT JUMPDEST PUSH1 0x4 DUP2 LT PUSH2 0xFA6 JUMPI PUSH1 0x0 DUP1 REVERT JUMPDEST POP JUMP JUMPDEST PUSH1 0x0 DUP2 CALLDATALOAD SWAP1 POP PUSH2 0xFB8 DUP2 PUSH2 0xF99 JUMP JUMPDEST SWAP3 SWAP2 POP POP JUMP JUMPDEST PUSH1 0x0 PUSH1 0x20 DUP3 DUP5 SUB SLT ISZERO PUSH2 0xFD4 JUMPI PUSH2 0xFD3 PUSH2 0xBCD JUMP JUMPDEST JUMPDEST PUSH1 0x0 PUSH2 0xFE2 DUP5 DUP3 DUP6 ADD PUSH2 0xFA9 JUMP JUMPDEST SWAP2 POP POP SWAP3 SWAP2 POP POP JUMP JUMPDEST PUSH1 0x0 PUSH1 0x20 DUP3 DUP5 SUB SLT ISZERO PUSH2 0x1001 JUMPI PUSH2 0x1000 PUSH2 0xBCD JUMP JUMPDEST JUMPDEST PUSH1 0x0 PUSH2 0x100F DUP5 DUP3 DUP6 ADD PUSH2 0xE4C JUMP JUMPDEST SWAP2 POP POP SWAP3 SWAP2 POP POP JUMP INVALID LOG2 PUSH5 0x6970667358 0x22 SLT KECCAK256 MLOAD CALLDATASIZE SWAP3 0x4F 0x4D 0xBB INVALID PUSH26 0x561A1FC04E45947433C8FCBA59787FFD458BB59436AA02226473 PUSH16 0x6C634300081100330000000000000000 "
		},
		"gasEstimates": {
			"creation": {
				"codeDepositCost": "2374400",
				"executionCost": "infinite",
				"totalCost": "infinite"
			},
			"external": {
				"acceptOwnership(address)": "infinite",
				"cancelOwnershipTransfer(address)": "infinite",
				"createConduit(bytes32,address)": "infinite",
				"getChannel(address,uint256)": "infinite",
				"getChannelStatus(address,address)": "infinite",
				"getChannels(address)": "infinite",
				"getConduit(bytes32)": "infinite",
				"getConduitCodeHashes()": "infinite",
				"getKey(address)": "2964",
				"getPotentialOwner(address)": "infinite",
				"getTotalChannels(address)": "5176",
				"ownerOf(address)": "infinite",
				"transferOwnership(address,address)": "infinite",
				"updateChannel(address,address,bool)": "infinite"
			},
			"internal": {
				"_assertCallerIsConduitOwner(address)": "infinite",
				"_assertConduitExists(address)": "infinite"
			}
		},
		"methodIdentifiers": {
			"acceptOwnership(address)": "51710e45",
			"cancelOwnershipTransfer(address)": "7b37e561",
			"createConduit(bytes32,address)": "794593bc",
			"getChannel(address,uint256)": "027cc764",
			"getChannelStatus(address,address)": "33bc8572",
			"getChannels(address)": "8b9e028b",
			"getConduit(bytes32)": "6e9bfd9f",
			"getConduitCodeHashes()": "0a96ad39",
			"getKey(address)": "93790f44",
			"getPotentialOwner(address)": "906c87cc",
			"getTotalChannels(address)": "4e3f9580",
			"ownerOf(address)": "14afd79e",
			"transferOwnership(address,address)": "6d435421",
			"updateChannel(address,address,bool)": "13ad9cab"
		}
	},
	"abi": [
		{
			"inputs": [],
			"stateMutability": "nonpayable",
			"type": "constructor"
		},
		{
			"inputs": [
				{
					"internalType": "address",
					"name": "conduit",
					"type": "address"
				}
			],
			"name": "CallerIsNotNewPotentialOwner",
			"type": "error"
		},
		{
			"inputs": [
				{
					"internalType": "address",
					"name": "conduit",
					"type": "address"
				}
			],
			"name": "CallerIsNotOwner",
			"type": "error"
		},
		{
			"inputs": [
				{
					"internalType": "address",
					"name": "conduit",
					"type": "address"
				}
			],
			"name": "ChannelOutOfRange",
			"type": "error"
		},
		{
			"inputs": [
				{
					"internalType": "address",
					"name": "conduit",
					"type": "address"
				}
			],
			"name": "ConduitAlreadyExists",
			"type": "error"
		},
		{
			"inputs": [],
			"name": "InvalidCreator",
			"type": "error"
		},
		{
			"inputs": [],
			"name": "InvalidInitialOwner",
			"type": "error"
		},
		{
			"inputs": [
				{
					"internalType": "address",
					"name": "conduit",
					"type": "address"
				},
				{
					"internalType": "address",
					"name": "newPotentialOwner",
					"type": "address"
				}
			],
			"name": "NewPotentialOwnerAlreadySet",
			"type": "error"
		},
		{
			"inputs": [
				{
					"internalType": "address",
					"name": "conduit",
					"type": "address"
				}
			],
			"name": "NewPotentialOwnerIsZeroAddress",
			"type": "error"
		},
		{
			"inputs": [],
			"name": "NoConduit",
			"type": "error"
		},
		{
			"inputs": [
				{
					"internalType": "address",
					"name": "conduit",
					"type": "address"
				}
			],
			"name": "NoPotentialOwnerCurrentlySet",
			"type": "error"
		},
		{
			"anonymous": false,
			"inputs": [
				{
					"indexed": false,
					"internalType": "address",
					"name": "conduit",
					"type": "address"
				},
				{
					"indexed": false,
					"internalType": "bytes32",
					"name": "conduitKey",
					"type": "bytes32"
				}
			],
			"name": "NewConduit",
			"type": "event"
		},
		{
			"anonymous": false,
			"inputs": [
				{
					"indexed": true,
					"internalType": "address",
					"name": "conduit",
					"type": "address"
				},
				{
					"indexed": true,
					"internalType": "address",
					"name": "previousOwner",
					"type": "address"
				},
				{
					"indexed": true,
					"internalType": "address",
					"name": "newOwner",
					"type": "address"
				}
			],
			"name": "OwnershipTransferred",
			"type": "event"
		},
		{
			"anonymous": false,
			"inputs": [
				{
					"indexed": true,
					"internalType": "address",
					"name": "newPotentialOwner",
					"type": "address"
				}
			],
			"name": "PotentialOwnerUpdated",
			"type": "event"
		},
		{
			"inputs": [
				{
					"internalType": "address",
					"name": "conduit",
					"type": "address"
				}
			],
			"name": "acceptOwnership",
			"outputs": [],
			"stateMutability": "nonpayable",
			"type": "function"
		},
		{
			"inputs": [
				{
					"internalType": "address",
					"name": "conduit",
					"type": "address"
				}
			],
			"name": "cancelOwnershipTransfer",
			"outputs": [],
			"stateMutability": "nonpayable",
			"type": "function"
		},
		{
			"inputs": [
				{
					"internalType": "bytes32",
					"name": "conduitKey",
					"type": "bytes32"
				},
				{
					"internalType": "address",
					"name": "initialOwner",
					"type": "address"
				}
			],
			"name": "createConduit",
			"outputs": [
				{
					"internalType": "address",
					"name": "conduit",
					"type": "address"
				}
			],
			"stateMutability": "nonpayable",
			"type": "function"
		},
		{
			"inputs": [
				{
					"internalType": "address",
					"name": "conduit",
					"type": "address"
				},
				{
					"internalType": "uint256",
					"name": "channelIndex",
					"type": "uint256"
				}
			],
			"name": "getChannel",
			"outputs": [
				{
					"internalType": "address",
					"name": "channel",
					"type": "address"
				}
			],
			"stateMutability": "view",
			"type": "function"
		},
		{
			"inputs": [
				{
					"internalType": "address",
					"name": "conduit",
					"type": "address"
				},
				{
					"internalType": "address",
					"name": "channel",
					"type": "address"
				}
			],
			"name": "getChannelStatus",
			"outputs": [
				{
					"internalType": "bool",
					"name": "isOpen",
					"type": "bool"
				}
			],
			"stateMutability": "view",
			"type": "function"
		},
		{
			"inputs": [
				{
					"internalType": "address",
					"name": "conduit",
					"type": "address"
				}
			],
			"name": "getChannels",
			"outputs": [
				{
					"internalType": "address[]",
					"name": "channels",
					"type": "address[]"
				}
			],
			"stateMutability": "view",
			"type": "function"
		},
		{
			"inputs": [
				{
					"internalType": "bytes32",
					"name": "conduitKey",
					"type": "bytes32"
				}
			],
			"name": "getConduit",
			"outputs": [
				{
					"internalType": "address",
					"name": "conduit",
					"type": "address"
				},
				{
					"internalType": "bool",
					"name": "exists",
					"type": "bool"
				}
			],
			"stateMutability": "view",
			"type": "function"
		},
		{
			"inputs": [],
			"name": "getConduitCodeHashes",
			"outputs": [
				{
					"internalType": "bytes32",
					"name": "creationCodeHash",
					"type": "bytes32"
				},
				{
					"internalType": "bytes32",
					"name": "runtimeCodeHash",
					"type": "bytes32"
				}
			],
			"stateMutability": "view",
			"type": "function"
		},
		{
			"inputs": [
				{
					"internalType": "address",
					"name": "conduit",
					"type": "address"
				}
			],
			"name": "getKey",
			"outputs": [
				{
					"internalType": "bytes32",
					"name": "conduitKey",
					"type": "bytes32"
				}
			],
			"stateMutability": "view",
			"type": "function"
		},
		{
			"inputs": [
				{
					"internalType": "address",
					"name": "conduit",
					"type": "address"
				}
			],
			"name": "getPotentialOwner",
			"outputs": [
				{
					"internalType": "address",
					"name": "potentialOwner",
					"type": "address"
				}
			],
			"stateMutability": "view",
			"type": "function"
		},
		{
			"inputs": [
				{
					"internalType": "address",
					"name": "conduit",
					"type": "address"
				}
			],
			"name": "getTotalChannels",
			"outputs": [
				{
					"internalType": "uint256",
					"name": "totalChannels",
					"type": "uint256"
				}
			],
			"stateMutability": "view",
			"type": "function"
		},
		{
			"inputs": [
				{
					"internalType": "address",
					"name": "conduit",
					"type": "address"
				}
			],
			"name": "ownerOf",
			"outputs": [
				{
					"internalType": "address",
					"name": "owner",
					"type": "address"
				}
			],
			"stateMutability": "view",
			"type": "function"
		},
		{
			"inputs": [
				{
					"internalType": "address",
					"name": "conduit",
					"type": "address"
				},
				{
					"internalType": "address",
					"name": "newPotentialOwner",
					"type": "address"
				}
			],
			"name": "transferOwnership",
			"outputs": [],
			"stateMutability": "nonpayable",
			"type": "function"
		},
		{
			"inputs": [
				{
					"internalType": "address",
					"name": "conduit",
					"type": "address"
				},
				{
					"internalType": "address",
					"name": "channel",
					"type": "address"
				},
				{
					"internalType": "bool",
					"name": "isOpen",
					"type": "bool"
				}
			],
			"name": "updateChannel",
			"outputs": [],
			"stateMutability": "nonpayable",
			"type": "function"
		}
	]
}